{
	"contracts/PriceUpdater.sol": {
		"HackCBDC": {
			"abi": [
				{
					"inputs": [],
					"stateMutability": "nonpayable",
					"type": "constructor"
				},
				{
					"anonymous": false,
					"inputs": [
						{
							"indexed": true,
							"internalType": "address",
							"name": "owner",
							"type": "address"
						},
						{
							"indexed": true,
							"internalType": "address",
							"name": "spender",
							"type": "address"
						},
						{
							"indexed": false,
							"internalType": "uint256",
							"name": "value",
							"type": "uint256"
						}
					],
					"name": "Approval",
					"type": "event"
				},
				{
					"anonymous": false,
					"inputs": [
						{
							"indexed": true,
							"internalType": "address",
							"name": "from",
							"type": "address"
						},
						{
							"indexed": true,
							"internalType": "address",
							"name": "to",
							"type": "address"
						},
						{
							"indexed": false,
							"internalType": "uint256",
							"name": "value",
							"type": "uint256"
						}
					],
					"name": "Transfer",
					"type": "event"
				},
				{
					"inputs": [
						{
							"internalType": "address",
							"name": "owner",
							"type": "address"
						},
						{
							"internalType": "address",
							"name": "spender",
							"type": "address"
						}
					],
					"name": "allowance",
					"outputs": [
						{
							"internalType": "uint256",
							"name": "",
							"type": "uint256"
						}
					],
					"stateMutability": "view",
					"type": "function"
				},
				{
					"inputs": [
						{
							"internalType": "address",
							"name": "spender",
							"type": "address"
						},
						{
							"internalType": "uint256",
							"name": "amount",
							"type": "uint256"
						}
					],
					"name": "approve",
					"outputs": [
						{
							"internalType": "bool",
							"name": "",
							"type": "bool"
						}
					],
					"stateMutability": "nonpayable",
					"type": "function"
				},
				{
					"inputs": [
						{
							"internalType": "address",
							"name": "account",
							"type": "address"
						}
					],
					"name": "balanceOf",
					"outputs": [
						{
							"internalType": "uint256",
							"name": "",
							"type": "uint256"
						}
					],
					"stateMutability": "view",
					"type": "function"
				},
				{
					"inputs": [],
					"name": "buyFundsPublic",
					"outputs": [],
					"stateMutability": "nonpayable",
					"type": "function"
				},
				{
					"inputs": [],
					"name": "centralBank",
					"outputs": [
						{
							"internalType": "address",
							"name": "",
							"type": "address"
						}
					],
					"stateMutability": "view",
					"type": "function"
				},
				{
					"inputs": [],
					"name": "decimals",
					"outputs": [
						{
							"internalType": "uint8",
							"name": "",
							"type": "uint8"
						}
					],
					"stateMutability": "view",
					"type": "function"
				},
				{
					"inputs": [
						{
							"internalType": "address",
							"name": "spender",
							"type": "address"
						},
						{
							"internalType": "uint256",
							"name": "subtractedValue",
							"type": "uint256"
						}
					],
					"name": "decreaseAllowance",
					"outputs": [
						{
							"internalType": "bool",
							"name": "",
							"type": "bool"
						}
					],
					"stateMutability": "nonpayable",
					"type": "function"
				},
				{
					"inputs": [
						{
							"internalType": "address",
							"name": "spender",
							"type": "address"
						},
						{
							"internalType": "uint256",
							"name": "addedValue",
							"type": "uint256"
						}
					],
					"name": "increaseAllowance",
					"outputs": [
						{
							"internalType": "bool",
							"name": "",
							"type": "bool"
						}
					],
					"stateMutability": "nonpayable",
					"type": "function"
				},
				{
					"inputs": [],
					"name": "inflation",
					"outputs": [
						{
							"internalType": "uint256",
							"name": "",
							"type": "uint256"
						}
					],
					"stateMutability": "view",
					"type": "function"
				},
				{
					"inputs": [],
					"name": "initialSupply",
					"outputs": [
						{
							"internalType": "uint256",
							"name": "",
							"type": "uint256"
						}
					],
					"stateMutability": "view",
					"type": "function"
				},
				{
					"inputs": [],
					"name": "name",
					"outputs": [
						{
							"internalType": "string",
							"name": "",
							"type": "string"
						}
					],
					"stateMutability": "view",
					"type": "function"
				},
				{
					"inputs": [],
					"name": "symbol",
					"outputs": [
						{
							"internalType": "string",
							"name": "",
							"type": "string"
						}
					],
					"stateMutability": "view",
					"type": "function"
				},
				{
					"inputs": [],
					"name": "totalSupply",
					"outputs": [
						{
							"internalType": "uint256",
							"name": "",
							"type": "uint256"
						}
					],
					"stateMutability": "view",
					"type": "function"
				},
				{
					"inputs": [
						{
							"internalType": "address",
							"name": "to",
							"type": "address"
						},
						{
							"internalType": "uint256",
							"name": "amount",
							"type": "uint256"
						}
					],
					"name": "transfer",
					"outputs": [
						{
							"internalType": "bool",
							"name": "",
							"type": "bool"
						}
					],
					"stateMutability": "nonpayable",
					"type": "function"
				},
				{
					"inputs": [
						{
							"internalType": "address",
							"name": "from",
							"type": "address"
						},
						{
							"internalType": "address",
							"name": "to",
							"type": "address"
						},
						{
							"internalType": "uint256",
							"name": "amount",
							"type": "uint256"
						}
					],
					"name": "transferFrom",
					"outputs": [
						{
							"internalType": "bool",
							"name": "",
							"type": "bool"
						}
					],
					"stateMutability": "nonpayable",
					"type": "function"
				},
				{
					"inputs": [],
					"name": "updateCentralBank",
					"outputs": [],
					"stateMutability": "nonpayable",
					"type": "function"
				},
				{
					"inputs": [],
					"name": "upgradeUSDC",
					"outputs": [],
					"stateMutability": "nonpayable",
					"type": "function"
				}
			],
			"devdoc": {
				"kind": "dev",
				"methods": {
					"allowance(address,address)": {
						"details": "See {IERC20-allowance}."
					},
					"approve(address,uint256)": {
						"details": "See {IERC20-approve}. NOTE: If `amount` is the maximum `uint256`, the allowance is not updated on `transferFrom`. This is semantically equivalent to an infinite approval. Requirements: - `spender` cannot be the zero address."
					},
					"balanceOf(address)": {
						"details": "See {IERC20-balanceOf}."
					},
					"decimals()": {
						"details": "Returns the number of decimals used to get its user representation. For example, if `decimals` equals `2`, a balance of `505` tokens should be displayed to a user as `5.05` (`505 / 10 ** 2`). Tokens usually opt for a value of 18, imitating the relationship between Ether and Wei. This is the value {ERC20} uses, unless this function is overridden; NOTE: This information is only used for _display_ purposes: it in no way affects any of the arithmetic of the contract, including {IERC20-balanceOf} and {IERC20-transfer}."
					},
					"decreaseAllowance(address,uint256)": {
						"details": "Atomically decreases the allowance granted to `spender` by the caller. This is an alternative to {approve} that can be used as a mitigation for problems described in {IERC20-approve}. Emits an {Approval} event indicating the updated allowance. Requirements: - `spender` cannot be the zero address. - `spender` must have allowance for the caller of at least `subtractedValue`."
					},
					"increaseAllowance(address,uint256)": {
						"details": "Atomically increases the allowance granted to `spender` by the caller. This is an alternative to {approve} that can be used as a mitigation for problems described in {IERC20-approve}. Emits an {Approval} event indicating the updated allowance. Requirements: - `spender` cannot be the zero address."
					},
					"name()": {
						"details": "Returns the name of the token."
					},
					"symbol()": {
						"details": "Returns the symbol of the token, usually a shorter version of the name."
					},
					"totalSupply()": {
						"details": "See {IERC20-totalSupply}."
					},
					"transfer(address,uint256)": {
						"details": "See {IERC20-transfer}. Requirements: - `to` cannot be the zero address. - the caller must have a balance of at least `amount`."
					},
					"transferFrom(address,address,uint256)": {
						"details": "See {IERC20-transferFrom}. Emits an {Approval} event indicating the updated allowance. This is not required by the EIP. See the note at the beginning of {ERC20}. NOTE: Does not update the allowance if the current allowance is the maximum `uint256`. Requirements: - `from` and `to` cannot be the zero address. - `from` must have a balance of at least `amount`. - the caller must have allowance for ``from``'s tokens of at least `amount`."
					}
				},
				"version": 1
			},
			"evm": {
				"assembly": "    /* \"contracts/PriceUpdater.sol\":442:1336  contract HackCBDC is ERC20 {... */\n  mstore(0x40, 0x80)\n    /* \"contracts/PriceUpdater.sol\":473:538  address private cbdc = 0x550714e1Fd747084Fc5cB2B2e3a93512972aeBdA */\n  0x05\n  dup1\n  sload\n  not(sub(exp(0x02, 0xa0), 0x01))\n  and\n    /* \"contracts/PriceUpdater.sol\":496:538  0x550714e1Fd747084Fc5cB2B2e3a93512972aeBdA */\n  0x550714e1fd747084fc5cb2b2e3a93512972aebda\n    /* \"contracts/PriceUpdater.sol\":473:538  address private cbdc = 0x550714e1Fd747084Fc5cB2B2e3a93512972aeBdA */\n  or\n  swap1\n  sstore\n    /* \"contracts/PriceUpdater.sol\":574:593  1000000000000 ether */\n  0x0c9f2c9cd04674edea40000000\n    /* \"contracts/PriceUpdater.sol\":543:593  uint256 public initialSupply = 1000000000000 ether */\n  0x06\n  sstore\n    /* \"contracts/PriceUpdater.sol\":654:669  100000000 ether */\n  0x52b7d2dcc80cd2e4000000\n    /* \"contracts/PriceUpdater.sol\":627:669  uint256 public inflation = 100000000 ether */\n  0x07\n  sstore\n    /* \"contracts/PriceUpdater.sol\":708:848  constructor() ERC20(\"Central Bank Digital Currency\", \"CBDC\") {... */\n  callvalue\n  dup1\n  iszero\n  tag_1\n  jumpi\n  0x00\n  dup1\n  revert\ntag_1:\n  pop\n    /* \"@openzeppelin/contracts/token/ERC20/ERC20.sol\":1978:2091  constructor(string memory name_, string memory symbol_) {... */\n  mload(0x40)\n  dup1\n  0x40\n  add\n  0x40\n  mstore\n  dup1\n  0x1d\n  dup2\n  mstore\n  0x20\n  add\n  0x43656e7472616c2042616e6b204469676974616c2043757272656e6379000000\n  dup2\n  mstore\n  pop\n  mload(0x40)\n  dup1\n  0x40\n  add\n  0x40\n  mstore\n  dup1\n  0x04\n  dup2\n  mstore\n  0x20\n  add\n  0x4342444300000000000000000000000000000000000000000000000000000000\n  dup2\n  mstore\n  pop\n    /* \"@openzeppelin/contracts/token/ERC20/ERC20.sol\":2052:2057  name_ */\n  dup2\n    /* \"@openzeppelin/contracts/token/ERC20/ERC20.sol\":2044:2049  _name */\n  0x03\n    /* \"@openzeppelin/contracts/token/ERC20/ERC20.sol\":2044:2057  _name = name_ */\n  swap1\n  dup2\n  tag_5\n  swap2\n  swap1\n  tag_6\n  jump\t// in\ntag_5:\n  pop\n    /* \"@openzeppelin/contracts/token/ERC20/ERC20.sol\":2067:2074  _symbol */\n  0x04\n    /* \"@openzeppelin/contracts/token/ERC20/ERC20.sol\":2067:2084  _symbol = symbol_ */\n  tag_7\n    /* \"@openzeppelin/contracts/token/ERC20/ERC20.sol\":2077:2084  symbol_ */\n  dup3\n    /* \"@openzeppelin/contracts/token/ERC20/ERC20.sol\":2067:2074  _symbol */\n  dup3\n    /* \"@openzeppelin/contracts/token/ERC20/ERC20.sol\":2067:2084  _symbol = symbol_ */\n  tag_6\n  jump\t// in\ntag_7:\n  pop\n    /* \"@openzeppelin/contracts/token/ERC20/ERC20.sol\":1978:2091  constructor(string memory name_, string memory symbol_) {... */\n  pop\n  pop\n    /* \"contracts/PriceUpdater.sol\":777:809  _mint(msg.sender, initialSupply) */\n  tag_9\n    /* \"contracts/PriceUpdater.sol\":783:793  msg.sender */\n  caller\n    /* \"contracts/PriceUpdater.sol\":795:808  initialSupply */\n  sload(0x06)\n    /* \"contracts/PriceUpdater.sol\":777:782  _mint */\n  mul(0x0100000000, tag_10)\n    /* \"contracts/PriceUpdater.sol\":777:809  _mint(msg.sender, initialSupply) */\n  0x0100000000\n  swap1\n  div\n  jump\t// in\ntag_9:\n    /* \"contracts/PriceUpdater.sol\":817:828  centralBank */\n  0x08\n    /* \"contracts/PriceUpdater.sol\":817:841  centralBank = msg.sender */\n  dup1\n  sload\n  not(sub(exp(0x02, 0xa0), 0x01))\n  and\n    /* \"contracts/PriceUpdater.sol\":831:841  msg.sender */\n  caller\n    /* \"contracts/PriceUpdater.sol\":817:841  centralBank = msg.sender */\n  or\n  swap1\n  sstore\n    /* \"contracts/PriceUpdater.sol\":442:1336  contract HackCBDC is ERC20 {... */\n  jump(tag_32)\n    /* \"@openzeppelin/contracts/token/ERC20/ERC20.sol\":8402:8791  function _mint(address account, uint256 amount) internal virtual {... */\ntag_10:\n  sub(exp(0x02, 0xa0), 0x01)\n    /* \"@openzeppelin/contracts/token/ERC20/ERC20.sol\":8485:8506  account != address(0) */\n  dup3\n  and\n    /* \"@openzeppelin/contracts/token/ERC20/ERC20.sol\":8477:8542  require(account != address(0), \"ERC20: mint to the zero address\") */\n  tag_13\n  jumpi\n  mload(0x40)\n  0x08c379a000000000000000000000000000000000000000000000000000000000\n  dup2\n  mstore\n    /* \"#utility.yul\":3072:3074   */\n  0x20\n    /* \"@openzeppelin/contracts/token/ERC20/ERC20.sol\":8477:8542  require(account != address(0), \"ERC20: mint to the zero address\") */\n  0x04\n  dup3\n  add\n    /* \"#utility.yul\":3054:3075   */\n  mstore\n    /* \"#utility.yul\":3111:3113   */\n  0x1f\n    /* \"#utility.yul\":3091:3109   */\n  0x24\n  dup3\n  add\n    /* \"#utility.yul\":3084:3114   */\n  mstore\n    /* \"#utility.yul\":3150:3183   */\n  0x45524332303a206d696e7420746f20746865207a65726f206164647265737300\n    /* \"#utility.yul\":3130:3148   */\n  0x44\n  dup3\n  add\n    /* \"#utility.yul\":3123:3184   */\n  mstore\n    /* \"#utility.yul\":3201:3219   */\n  0x64\n  add\n    /* \"@openzeppelin/contracts/token/ERC20/ERC20.sol\":8477:8542  require(account != address(0), \"ERC20: mint to the zero address\") */\n  mload(0x40)\n  dup1\n  swap2\n  sub\n  swap1\n  revert\ntag_13:\n    /* \"@openzeppelin/contracts/token/ERC20/ERC20.sol\":8553:8602  _beforeTokenTransfer(address(0), account, amount) */\n  tag_16\n    /* \"@openzeppelin/contracts/token/ERC20/ERC20.sol\":8582:8583  0 */\n  0x00\n    /* \"@openzeppelin/contracts/token/ERC20/ERC20.sol\":8586:8593  account */\n  dup4\n    /* \"@openzeppelin/contracts/token/ERC20/ERC20.sol\":8595:8601  amount */\n  dup4\n    /* \"@openzeppelin/contracts/token/ERC20/ERC20.sol\":8553:8573  _beforeTokenTransfer */\n  0x0100000000\n  tag_17\n  dup2\n  mul\n    /* \"@openzeppelin/contracts/token/ERC20/ERC20.sol\":8553:8602  _beforeTokenTransfer(address(0), account, amount) */\n  div\n  jump\t// in\ntag_16:\n    /* \"@openzeppelin/contracts/token/ERC20/ERC20.sol\":8629:8635  amount */\n  dup1\n    /* \"@openzeppelin/contracts/token/ERC20/ERC20.sol\":8613:8625  _totalSupply */\n  0x02\n  0x00\n    /* \"@openzeppelin/contracts/token/ERC20/ERC20.sol\":8613:8635  _totalSupply += amount */\n  dup3\n  dup3\n  sload\n  tag_18\n  swap2\n  swap1\n  tag_19\n  jump\t// in\ntag_18:\n  swap1\n  swap2\n  sstore\n  pop\n  pop\n  sub(exp(0x02, 0xa0), 0x01)\n    /* \"@openzeppelin/contracts/token/ERC20/ERC20.sol\":8645:8663  _balances[account] */\n  dup3\n  and\n    /* \"@openzeppelin/contracts/token/ERC20/ERC20.sol\":8645:8654  _balances */\n  0x00\n    /* \"@openzeppelin/contracts/token/ERC20/ERC20.sol\":8645:8663  _balances[account] */\n  swap1\n  dup2\n  mstore\n  0x20\n  dup2\n  swap1\n  mstore\n  0x40\n  dup2\n  keccak256\n    /* \"@openzeppelin/contracts/token/ERC20/ERC20.sol\":8645:8673  _balances[account] += amount */\n  dup1\n  sload\n    /* \"@openzeppelin/contracts/token/ERC20/ERC20.sol\":8667:8673  amount */\n  dup4\n  swap3\n    /* \"@openzeppelin/contracts/token/ERC20/ERC20.sol\":8645:8654  _balances */\n  swap1\n    /* \"@openzeppelin/contracts/token/ERC20/ERC20.sol\":8645:8673  _balances[account] += amount */\n  tag_20\n  swap1\n    /* \"@openzeppelin/contracts/token/ERC20/ERC20.sol\":8667:8673  amount */\n  dup5\n  swap1\n    /* \"@openzeppelin/contracts/token/ERC20/ERC20.sol\":8645:8673  _balances[account] += amount */\n  tag_19\n  jump\t// in\ntag_20:\n  swap1\n  swap2\n  sstore\n  pop\n  pop\n    /* \"@openzeppelin/contracts/token/ERC20/ERC20.sol\":8688:8725  Transfer(address(0), account, amount) */\n  mload(0x40)\n    /* \"#utility.yul\":3660:3685   */\n  dup2\n  dup2\n  mstore\n  sub(exp(0x02, 0xa0), 0x01)\n    /* \"@openzeppelin/contracts/token/ERC20/ERC20.sol\":8688:8725  Transfer(address(0), account, amount) */\n  dup4\n  and\n  swap1\n    /* \"@openzeppelin/contracts/token/ERC20/ERC20.sol\":8705:8706  0 */\n  0x00\n  swap1\n    /* \"@openzeppelin/contracts/token/ERC20/ERC20.sol\":8688:8725  Transfer(address(0), account, amount) */\n  0xddf252ad1be2c89b69c2b068fc378daa952ba7f163c4a11628f55a4df523b3ef\n  swap1\n    /* \"#utility.yul\":3648:3650   */\n  0x20\n    /* \"#utility.yul\":3633:3651   */\n  add\n    /* \"@openzeppelin/contracts/token/ERC20/ERC20.sol\":8688:8725  Transfer(address(0), account, amount) */\n  mload(0x40)\n  dup1\n  swap2\n  sub\n  swap1\n  log3\n    /* \"@openzeppelin/contracts/token/ERC20/ERC20.sol\":8736:8784  _afterTokenTransfer(address(0), account, amount) */\n  tag_23\n    /* \"@openzeppelin/contracts/token/ERC20/ERC20.sol\":8764:8765  0 */\n  0x00\n    /* \"@openzeppelin/contracts/token/ERC20/ERC20.sol\":8768:8775  account */\n  dup4\n    /* \"@openzeppelin/contracts/token/ERC20/ERC20.sol\":8777:8783  amount */\n  dup4\n    /* \"@openzeppelin/contracts/token/ERC20/ERC20.sol\":8736:8755  _afterTokenTransfer */\n  0x0100000000\n  tag_17\n  dup2\n  mul\n    /* \"@openzeppelin/contracts/token/ERC20/ERC20.sol\":8736:8784  _afterTokenTransfer(address(0), account, amount) */\n  div\n  jump\t// in\ntag_23:\n    /* \"@openzeppelin/contracts/token/ERC20/ERC20.sol\":8402:8791  function _mint(address account, uint256 amount) internal virtual {... */\n  pop\n  pop\n  jump\t// out\n    /* \"@openzeppelin/contracts/token/ERC20/ERC20.sol\":11786:11907  function _beforeTokenTransfer(... */\ntag_17:\n  pop\n  pop\n  pop\n  jump\t// out\n    /* \"#utility.yul\":14:198   */\ntag_27:\n    /* \"#utility.yul\":66:143   */\n  0x4e487b7100000000000000000000000000000000000000000000000000000000\n    /* \"#utility.yul\":63:64   */\n  0x00\n    /* \"#utility.yul\":56:144   */\n  mstore\n    /* \"#utility.yul\":163:167   */\n  0x41\n    /* \"#utility.yul\":160:161   */\n  0x04\n    /* \"#utility.yul\":153:168   */\n  mstore\n    /* \"#utility.yul\":187:191   */\n  0x24\n    /* \"#utility.yul\":184:185   */\n  0x00\n    /* \"#utility.yul\":177:192   */\n  revert\n    /* \"#utility.yul\":203:640   */\ntag_28:\n    /* \"#utility.yul\":288:289   */\n  0x02\n    /* \"#utility.yul\":278:290   */\n  dup2\n  div\n    /* \"#utility.yul\":335:336   */\n  0x01\n    /* \"#utility.yul\":325:337   */\n  dup3\n  and\n  dup1\n    /* \"#utility.yul\":346:407   */\n  tag_35\n  jumpi\n    /* \"#utility.yul\":400:404   */\n  0x7f\n    /* \"#utility.yul\":392:398   */\n  dup3\n    /* \"#utility.yul\":388:405   */\n  and\n    /* \"#utility.yul\":378:405   */\n  swap2\n  pop\n    /* \"#utility.yul\":346:407   */\ntag_35:\n    /* \"#utility.yul\":453:455   */\n  0x20\n    /* \"#utility.yul\":445:451   */\n  dup3\n    /* \"#utility.yul\":442:456   */\n  lt\n    /* \"#utility.yul\":422:440   */\n  dup2\n    /* \"#utility.yul\":419:457   */\n  sub\n    /* \"#utility.yul\":416:634   */\n  tag_36\n  jumpi\n    /* \"#utility.yul\":490:567   */\n  0x4e487b7100000000000000000000000000000000000000000000000000000000\n    /* \"#utility.yul\":487:488   */\n  0x00\n    /* \"#utility.yul\":480:568   */\n  mstore\n    /* \"#utility.yul\":591:595   */\n  0x22\n    /* \"#utility.yul\":588:589   */\n  0x04\n    /* \"#utility.yul\":581:596   */\n  mstore\n    /* \"#utility.yul\":619:623   */\n  0x24\n    /* \"#utility.yul\":616:617   */\n  0x00\n    /* \"#utility.yul\":609:624   */\n  revert\n    /* \"#utility.yul\":416:634   */\ntag_36:\n  pop\n    /* \"#utility.yul\":203:640   */\n  swap2\n  swap1\n  pop\n  jump\t// out\n    /* \"#utility.yul\":771:1322   */\ntag_30:\n    /* \"#utility.yul\":873:875   */\n  0x1f\n    /* \"#utility.yul\":868:871   */\n  dup3\n    /* \"#utility.yul\":865:876   */\n  gt\n    /* \"#utility.yul\":862:1316   */\n  iszero\n  tag_17\n  jumpi\n    /* \"#utility.yul\":909:910   */\n  0x00\n    /* \"#utility.yul\":934:939   */\n  dup2\n    /* \"#utility.yul\":930:932   */\n  dup2\n    /* \"#utility.yul\":923:940   */\n  mstore\n    /* \"#utility.yul\":979:983   */\n  0x20\n    /* \"#utility.yul\":975:977   */\n  dup2\n    /* \"#utility.yul\":965:984   */\n  keccak256\n    /* \"#utility.yul\":1051:1055   */\n  0x20\n    /* \"#utility.yul\":1046:1048   */\n  0x1f\n    /* \"#utility.yul\":1034:1044   */\n  dup7\n    /* \"#utility.yul\":1030:1049   */\n  add\n    /* \"#utility.yul\":1026:1056   */\n  div\n    /* \"#utility.yul\":1020:1024   */\n  dup2\n    /* \"#utility.yul\":1016:1057   */\n  add\n    /* \"#utility.yul\":1088:1092   */\n  0x20\n    /* \"#utility.yul\":1076:1086   */\n  dup7\n    /* \"#utility.yul\":1073:1093   */\n  lt\n    /* \"#utility.yul\":1070:1117   */\n  iszero\n  tag_40\n  jumpi\n  pop\n    /* \"#utility.yul\":1111:1115   */\n  dup1\n    /* \"#utility.yul\":1070:1117   */\ntag_40:\n    /* \"#utility.yul\":1168:1172   */\n  0x20\n    /* \"#utility.yul\":1163:1165   */\n  0x1f\n    /* \"#utility.yul\":1158:1161   */\n  dup7\n    /* \"#utility.yul\":1154:1166   */\n  add\n    /* \"#utility.yul\":1150:1173   */\n  div\n    /* \"#utility.yul\":1144:1148   */\n  dup3\n    /* \"#utility.yul\":1140:1174   */\n  add\n    /* \"#utility.yul\":1130:1174   */\n  swap2\n  pop\n    /* \"#utility.yul\":1224:1306   */\ntag_41:\n    /* \"#utility.yul\":1242:1244   */\n  dup2\n    /* \"#utility.yul\":1235:1240   */\n  dup2\n    /* \"#utility.yul\":1232:1245   */\n  lt\n    /* \"#utility.yul\":1224:1306   */\n  iszero\n  tag_43\n  jumpi\n    /* \"#utility.yul\":1287:1304   */\n  dup3\n  dup2\n  sstore\n    /* \"#utility.yul\":1268:1269   */\n  0x01\n    /* \"#utility.yul\":1257:1270   */\n  add\n    /* \"#utility.yul\":1224:1306   */\n  jump(tag_41)\ntag_43:\n    /* \"#utility.yul\":1228:1231   */\n  pop\n  pop\n  pop\n    /* \"#utility.yul\":771:1322   */\n  pop\n  pop\n  pop\n  jump\t// out\n    /* \"#utility.yul\":1506:2865   */\ntag_6:\n    /* \"#utility.yul\":1632:1635   */\n  dup2\n    /* \"#utility.yul\":1626:1636   */\n  mload\n    /* \"#utility.yul\":1659:1677   */\n  0xffffffffffffffff\n    /* \"#utility.yul\":1651:1657   */\n  dup2\n    /* \"#utility.yul\":1648:1678   */\n  gt\n    /* \"#utility.yul\":1645:1701   */\n  iszero\n  tag_47\n  jumpi\n    /* \"#utility.yul\":1681:1699   */\n  tag_47\n  tag_27\n  jump\t// in\ntag_47:\n    /* \"#utility.yul\":1710:1807   */\n  tag_48\n    /* \"#utility.yul\":1800:1806   */\n  dup2\n    /* \"#utility.yul\":1760:1798   */\n  tag_49\n    /* \"#utility.yul\":1792:1796   */\n  dup5\n    /* \"#utility.yul\":1786:1797   */\n  sload\n    /* \"#utility.yul\":1760:1798   */\n  tag_28\n  jump\t// in\ntag_49:\n    /* \"#utility.yul\":1754:1758   */\n  dup5\n    /* \"#utility.yul\":1710:1807   */\n  tag_30\n  jump\t// in\ntag_48:\n    /* \"#utility.yul\":1862:1866   */\n  0x20\n  dup1\n    /* \"#utility.yul\":1926:1928   */\n  0x1f\n    /* \"#utility.yul\":1915:1929   */\n  dup4\n  gt\n    /* \"#utility.yul\":1943:1944   */\n  0x01\n    /* \"#utility.yul\":1938:2608   */\n  dup2\n  eq\n  tag_51\n  jumpi\n    /* \"#utility.yul\":2652:2653   */\n  0x00\n    /* \"#utility.yul\":2669:2675   */\n  dup5\n    /* \"#utility.yul\":2666:2755   */\n  iszero\n  tag_52\n  jumpi\n  pop\n    /* \"#utility.yul\":2721:2740   */\n  dup6\n  dup4\n  add\n    /* \"#utility.yul\":2715:2741   */\n  mload\n    /* \"#utility.yul\":2666:2755   */\ntag_52:\n    /* \"#utility.yul\":1487:1488   */\n  0x02\n    /* \"#utility.yul\":1483:1494   */\n  dup1\n  dup7\n  mul\n    /* \"#utility.yul\":1470:1471   */\n  0x08\n    /* \"#utility.yul\":1466:1477   */\n  dup8\n  mul\n    /* \"#utility.yul\":1459:1478   */\n  swap1\n  swap2\n  exp\n  not(0x00)\n    /* \"#utility.yul\":1447:1479   */\n  div\n    /* \"#utility.yul\":1443:1480   */\n  not\n    /* \"#utility.yul\":1433:1481   */\n  dup3\n  and\n    /* \"#utility.yul\":1430:1495   */\n  or\n    /* \"#utility.yul\":2775:2779   */\n  dup7\n    /* \"#utility.yul\":2768:2849   */\n  sstore\n  pop\n    /* \"#utility.yul\":1908:2859   */\n  jump(tag_43)\n    /* \"#utility.yul\":1938:2608   */\ntag_51:\n    /* \"#utility.yul\":718:719   */\n  0x00\n    /* \"#utility.yul\":711:725   */\n  dup6\n  dup2\n  mstore\n    /* \"#utility.yul\":755:759   */\n  0x20\n    /* \"#utility.yul\":742:760   */\n  dup2\n  keccak256\n  not(0x1f)\n    /* \"#utility.yul\":1974:1994   */\n  dup7\n  and\n  swap2\n    /* \"#utility.yul\":2092:2328   */\ntag_55:\n    /* \"#utility.yul\":2106:2113   */\n  dup3\n    /* \"#utility.yul\":2103:2104   */\n  dup2\n    /* \"#utility.yul\":2100:2114   */\n  lt\n    /* \"#utility.yul\":2092:2328   */\n  iszero\n  tag_57\n  jumpi\n    /* \"#utility.yul\":2195:2214   */\n  dup9\n  dup7\n  add\n    /* \"#utility.yul\":2189:2215   */\n  mload\n    /* \"#utility.yul\":2174:2216   */\n  dup3\n  sstore\n    /* \"#utility.yul\":2287:2314   */\n  swap5\n  dup5\n  add\n  swap5\n    /* \"#utility.yul\":2255:2256   */\n  0x01\n    /* \"#utility.yul\":2243:2257   */\n  swap1\n  swap2\n  add\n  swap1\n    /* \"#utility.yul\":2122:2141   */\n  dup5\n  add\n    /* \"#utility.yul\":2092:2328   */\n  jump(tag_55)\ntag_57:\n    /* \"#utility.yul\":2096:2099   */\n  pop\n    /* \"#utility.yul\":2356:2362   */\n  dup6\n    /* \"#utility.yul\":2347:2354   */\n  dup3\n    /* \"#utility.yul\":2344:2363   */\n  lt\n    /* \"#utility.yul\":2341:2549   */\n  iszero\n  tag_58\n  jumpi\n    /* \"#utility.yul\":2417:2436   */\n  dup8\n  dup6\n  add\n    /* \"#utility.yul\":2411:2437   */\n  mload\n    /* \"#utility.yul\":2511:2512   */\n  0x08\n    /* \"#utility.yul\":2526:2528   */\n  0x1f\n    /* \"#utility.yul\":2514:2529   */\n  dup9\n  and\n    /* \"#utility.yul\":2507:2530   */\n  mul\n    /* \"#utility.yul\":2504:2505   */\n  0x02\n    /* \"#utility.yul\":2500:2531   */\n  exp\n  not(0x00)\n    /* \"#utility.yul\":2488:2532   */\n  div\n    /* \"#utility.yul\":2484:2533   */\n  not\n    /* \"#utility.yul\":2469:2534   */\n  and\n    /* \"#utility.yul\":2454:2535   */\n  dup2\n  sstore\n    /* \"#utility.yul\":2341:2549   */\ntag_58:\n  pop\n  pop\n  pop\n  pop\n  pop\n    /* \"#utility.yul\":2591:2592   */\n  0x02\n    /* \"#utility.yul\":2579:2593   */\n  mul\n    /* \"#utility.yul\":2595:2596   */\n  0x01\n    /* \"#utility.yul\":2575:2597   */\n  add\n    /* \"#utility.yul\":2562:2598   */\n  swap1\n  sstore\n  pop\n    /* \"#utility.yul\":1506:2865   */\n  jump\t// out\n    /* \"#utility.yul\":3230:3509   */\ntag_19:\n    /* \"#utility.yul\":3295:3304   */\n  dup1\n  dup3\n  add\n    /* \"#utility.yul\":3316:3326   */\n  dup1\n  dup3\n  gt\n    /* \"#utility.yul\":3313:3503   */\n  iszero\n  tag_61\n  jumpi\n    /* \"#utility.yul\":3359:3436   */\n  0x4e487b7100000000000000000000000000000000000000000000000000000000\n    /* \"#utility.yul\":3356:3357   */\n  0x00\n    /* \"#utility.yul\":3349:3437   */\n  mstore\n    /* \"#utility.yul\":3460:3464   */\n  0x11\n    /* \"#utility.yul\":3457:3458   */\n  0x04\n    /* \"#utility.yul\":3450:3465   */\n  mstore\n    /* \"#utility.yul\":3488:3492   */\n  0x24\n    /* \"#utility.yul\":3485:3486   */\n  0x00\n    /* \"#utility.yul\":3478:3493   */\n  revert\n    /* \"#utility.yul\":3313:3503   */\ntag_61:\n    /* \"#utility.yul\":3230:3509   */\n  swap3\n  swap2\n  pop\n  pop\n  jump\t// out\n    /* \"#utility.yul\":3514:3691   */\ntag_32:\n    /* \"contracts/PriceUpdater.sol\":442:1336  contract HackCBDC is ERC20 {... */\n  dataSize(sub_0)\n  dup1\n  dataOffset(sub_0)\n  0x00\n  codecopy\n  0x00\n  return\nstop\n\nsub_0: assembly {\n        /* \"contracts/PriceUpdater.sol\":442:1336  contract HackCBDC is ERC20 {... */\n      mstore(0x40, 0x80)\n      callvalue\n      dup1\n      iszero\n      tag_1\n      jumpi\n      0x00\n      dup1\n      revert\n    tag_1:\n      pop\n      jumpi(tag_2, lt(calldatasize, 0x04))\n      calldataload(0x00)\n      exp(0x02, 0xe0)\n      swap1\n      div\n      dup1\n      0x95d89b41\n      gt\n      tag_20\n      jumpi\n      dup1\n      0xa9059cbb\n      gt\n      tag_21\n      jumpi\n      dup1\n      0xa9059cbb\n      eq\n      tag_15\n      jumpi\n      dup1\n      0xbe0522e0\n      eq\n      tag_16\n      jumpi\n      dup1\n      0xdd62ed3e\n      eq\n      tag_17\n      jumpi\n      dup1\n      0xe9e8f34d\n      eq\n      tag_18\n      jumpi\n      dup1\n      0xf99a1f30\n      eq\n      tag_19\n      jumpi\n      0x00\n      dup1\n      revert\n    tag_21:\n      dup1\n      0x95d89b41\n      eq\n      tag_11\n      jumpi\n      dup1\n      0x9a4a0fb2\n      eq\n      tag_12\n      jumpi\n      dup1\n      0x9b6822f8\n      eq\n      tag_13\n      jumpi\n      dup1\n      0xa457c2d7\n      eq\n      tag_14\n      jumpi\n      0x00\n      dup1\n      revert\n    tag_20:\n      dup1\n      0x313ce567\n      gt\n      tag_22\n      jumpi\n      dup1\n      0x313ce567\n      eq\n      tag_7\n      jumpi\n      dup1\n      0x378dc3dc\n      eq\n      tag_8\n      jumpi\n      dup1\n      0x39509351\n      eq\n      tag_9\n      jumpi\n      dup1\n      0x70a08231\n      eq\n      tag_10\n      jumpi\n      0x00\n      dup1\n      revert\n    tag_22:\n      dup1\n      0x06fdde03\n      eq\n      tag_3\n      jumpi\n      dup1\n      0x095ea7b3\n      eq\n      tag_4\n      jumpi\n      dup1\n      0x18160ddd\n      eq\n      tag_5\n      jumpi\n      dup1\n      0x23b872dd\n      eq\n      tag_6\n      jumpi\n    tag_2:\n      0x00\n      dup1\n      revert\n        /* \"@openzeppelin/contracts/token/ERC20/ERC20.sol\":2156:2254  function name() public view virtual override returns (string memory) {... */\n    tag_3:\n      tag_23\n      tag_24\n      jump\t// in\n    tag_23:\n      mload(0x40)\n      tag_25\n      swap2\n      swap1\n      tag_26\n      jump\t// in\n    tag_25:\n      mload(0x40)\n      dup1\n      swap2\n      sub\n      swap1\n      return\n        /* \"@openzeppelin/contracts/token/ERC20/ERC20.sol\":4433:4630  function approve(address spender, uint256 amount) public virtual override returns (bool) {... */\n    tag_4:\n      tag_27\n      tag_28\n      calldatasize\n      0x04\n      tag_29\n      jump\t// in\n    tag_28:\n      tag_30\n      jump\t// in\n    tag_27:\n      mload(0x40)\n        /* \"#utility.yul\":1192:1206   */\n      swap1\n      iszero\n        /* \"#utility.yul\":1185:1207   */\n      iszero\n        /* \"#utility.yul\":1167:1208   */\n      dup2\n      mstore\n        /* \"#utility.yul\":1155:1157   */\n      0x20\n        /* \"#utility.yul\":1140:1158   */\n      add\n        /* \"@openzeppelin/contracts/token/ERC20/ERC20.sol\":4433:4630  function approve(address spender, uint256 amount) public virtual override returns (bool) {... */\n      tag_25\n        /* \"#utility.yul\":1027:1214   */\n      jump\n        /* \"@openzeppelin/contracts/token/ERC20/ERC20.sol\":3244:3350  function totalSupply() public view virtual override returns (uint256) {... */\n    tag_5:\n        /* \"@openzeppelin/contracts/token/ERC20/ERC20.sol\":3331:3343  _totalSupply */\n      sload(0x02)\n        /* \"@openzeppelin/contracts/token/ERC20/ERC20.sol\":3244:3350  function totalSupply() public view virtual override returns (uint256) {... */\n    tag_33:\n      mload(0x40)\n        /* \"#utility.yul\":1365:1390   */\n      swap1\n      dup2\n      mstore\n        /* \"#utility.yul\":1353:1355   */\n      0x20\n        /* \"#utility.yul\":1338:1356   */\n      add\n        /* \"@openzeppelin/contracts/token/ERC20/ERC20.sol\":3244:3350  function totalSupply() public view virtual override returns (uint256) {... */\n      tag_25\n        /* \"#utility.yul\":1219:1396   */\n      jump\n        /* \"@openzeppelin/contracts/token/ERC20/ERC20.sol\":5192:5478  function transferFrom(... */\n    tag_6:\n      tag_27\n      tag_38\n      calldatasize\n      0x04\n      tag_39\n      jump\t// in\n    tag_38:\n      tag_40\n      jump\t// in\n        /* \"@openzeppelin/contracts/token/ERC20/ERC20.sol\":3093:3184  function decimals() public view virtual override returns (uint8) {... */\n    tag_7:\n      mload(0x40)\n        /* \"@openzeppelin/contracts/token/ERC20/ERC20.sol\":3175:3177  18 */\n      0x12\n        /* \"#utility.yul\":1876:1912   */\n      dup2\n      mstore\n        /* \"#utility.yul\":1864:1866   */\n      0x20\n        /* \"#utility.yul\":1849:1867   */\n      add\n        /* \"@openzeppelin/contracts/token/ERC20/ERC20.sol\":3093:3184  function decimals() public view virtual override returns (uint8) {... */\n      tag_25\n        /* \"#utility.yul\":1734:1918   */\n      jump\n        /* \"contracts/PriceUpdater.sol\":543:593  uint256 public initialSupply = 1000000000000 ether */\n    tag_8:\n      tag_33\n      sload(0x06)\n      dup2\n      jump\n        /* \"@openzeppelin/contracts/token/ERC20/ERC20.sol\":5873:6107  function increaseAllowance(address spender, uint256 addedValue) public virtual returns (bool) {... */\n    tag_9:\n      tag_27\n      tag_50\n      calldatasize\n      0x04\n      tag_29\n      jump\t// in\n    tag_50:\n      tag_51\n      jump\t// in\n        /* \"@openzeppelin/contracts/token/ERC20/ERC20.sol\":3408:3533  function balanceOf(address account) public view virtual override returns (uint256) {... */\n    tag_10:\n      tag_33\n      tag_54\n      calldatasize\n      0x04\n      tag_55\n      jump\t// in\n    tag_54:\n      sub(exp(0x02, 0xa0), 0x01)\n        /* \"@openzeppelin/contracts/token/ERC20/ERC20.sol\":3508:3526  _balances[account] */\n      and\n        /* \"@openzeppelin/contracts/token/ERC20/ERC20.sol\":3482:3489  uint256 */\n      0x00\n        /* \"@openzeppelin/contracts/token/ERC20/ERC20.sol\":3508:3526  _balances[account] */\n      swap1\n      dup2\n      mstore\n      0x20\n      dup2\n      swap1\n      mstore\n      0x40\n      swap1\n      keccak256\n      sload\n      swap1\n        /* \"@openzeppelin/contracts/token/ERC20/ERC20.sol\":3408:3533  function balanceOf(address account) public view virtual override returns (uint256) {... */\n      jump\n        /* \"@openzeppelin/contracts/token/ERC20/ERC20.sol\":2367:2469  function symbol() public view virtual override returns (string memory) {... */\n    tag_11:\n      tag_23\n      tag_59\n      jump\t// in\n        /* \"contracts/PriceUpdater.sol\":675:701  address public centralBank */\n    tag_12:\n      sload(0x08)\n      tag_61\n      swap1\n      sub(exp(0x02, 0xa0), 0x01)\n      and\n      dup2\n      jump\n    tag_61:\n      mload(0x40)\n      sub(exp(0x02, 0xa0), 0x01)\n        /* \"#utility.yul\":2278:2333   */\n      swap1\n      swap2\n      and\n        /* \"#utility.yul\":2260:2334   */\n      dup2\n      mstore\n        /* \"#utility.yul\":2248:2250   */\n      0x20\n        /* \"#utility.yul\":2233:2251   */\n      add\n        /* \"contracts/PriceUpdater.sol\":675:701  address public centralBank */\n      tag_25\n        /* \"#utility.yul\":2114:2340   */\n      jump\n        /* \"contracts/PriceUpdater.sol\":852:943  function updateCentralBank() public {... */\n    tag_13:\n      tag_65\n      tag_66\n      jump\t// in\n    tag_65:\n      stop\n        /* \"@openzeppelin/contracts/token/ERC20/ERC20.sol\":6594:7021  function decreaseAllowance(address spender, uint256 subtractedValue) public virtual returns (bool) {... */\n    tag_14:\n      tag_27\n      tag_68\n      calldatasize\n      0x04\n      tag_29\n      jump\t// in\n    tag_68:\n      tag_69\n      jump\t// in\n        /* \"@openzeppelin/contracts/token/ERC20/ERC20.sol\":3729:3918  function transfer(address to, uint256 amount) public virtual override returns (bool) {... */\n    tag_15:\n      tag_27\n      tag_72\n      calldatasize\n      0x04\n      tag_29\n      jump\t// in\n    tag_72:\n      tag_73\n      jump\t// in\n        /* \"contracts/PriceUpdater.sol\":627:669  uint256 public inflation = 100000000 ether */\n    tag_16:\n      tag_33\n      sload(0x07)\n      dup2\n      jump\n        /* \"@openzeppelin/contracts/token/ERC20/ERC20.sol\":3976:4125  function allowance(address owner, address spender) public view virtual override returns (uint256) {... */\n    tag_17:\n      tag_33\n      tag_79\n      calldatasize\n      0x04\n      tag_80\n      jump\t// in\n    tag_79:\n      tag_81\n      jump\t// in\n        /* \"contracts/PriceUpdater.sol\":1132:1251  function upgradeUSDC() public {... */\n    tag_18:\n      tag_65\n      tag_84\n      jump\t// in\n        /* \"contracts/PriceUpdater.sol\":1257:1334  function buyFundsPublic() public {... */\n    tag_19:\n      tag_65\n      tag_86\n      jump\t// in\n        /* \"@openzeppelin/contracts/token/ERC20/ERC20.sol\":2156:2254  function name() public view virtual override returns (string memory) {... */\n    tag_24:\n        /* \"@openzeppelin/contracts/token/ERC20/ERC20.sol\":2210:2223  string memory */\n      0x60\n        /* \"@openzeppelin/contracts/token/ERC20/ERC20.sol\":2242:2247  _name */\n      0x03\n        /* \"@openzeppelin/contracts/token/ERC20/ERC20.sol\":2235:2247  return _name */\n      dup1\n      sload\n      tag_88\n      swap1\n      tag_89\n      jump\t// in\n    tag_88:\n      dup1\n      0x1f\n      add\n      0x20\n      dup1\n      swap2\n      div\n      mul\n      0x20\n      add\n      mload(0x40)\n      swap1\n      dup2\n      add\n      0x40\n      mstore\n      dup1\n      swap3\n      swap2\n      swap1\n      dup2\n      dup2\n      mstore\n      0x20\n      add\n      dup3\n      dup1\n      sload\n      tag_90\n      swap1\n      tag_89\n      jump\t// in\n    tag_90:\n      dup1\n      iszero\n      tag_91\n      jumpi\n      dup1\n      0x1f\n      lt\n      tag_92\n      jumpi\n      0x0100\n      dup1\n      dup4\n      sload\n      div\n      mul\n      dup4\n      mstore\n      swap2\n      0x20\n      add\n      swap2\n      jump(tag_91)\n    tag_92:\n      dup3\n      add\n      swap2\n      swap1\n      0x00\n      mstore\n      keccak256(0x00, 0x20)\n      swap1\n    tag_93:\n      dup2\n      sload\n      dup2\n      mstore\n      swap1\n      0x01\n      add\n      swap1\n      0x20\n      add\n      dup1\n      dup4\n      gt\n      tag_93\n      jumpi\n      dup3\n      swap1\n      sub\n      0x1f\n      and\n      dup3\n      add\n      swap2\n    tag_91:\n      pop\n      pop\n      pop\n      pop\n      pop\n      swap1\n      pop\n        /* \"@openzeppelin/contracts/token/ERC20/ERC20.sol\":2156:2254  function name() public view virtual override returns (string memory) {... */\n      swap1\n      jump\t// out\n        /* \"@openzeppelin/contracts/token/ERC20/ERC20.sol\":4433:4630  function approve(address spender, uint256 amount) public virtual override returns (bool) {... */\n    tag_30:\n        /* \"@openzeppelin/contracts/token/ERC20/ERC20.sol\":4516:4520  bool */\n      0x00\n        /* \"@openzeppelin/contracts/utils/Context.sol\":719:729  msg.sender */\n      caller\n        /* \"@openzeppelin/contracts/token/ERC20/ERC20.sol\":4570:4602  _approve(owner, spender, amount) */\n      tag_97\n        /* \"@openzeppelin/contracts/utils/Context.sol\":719:729  msg.sender */\n      dup2\n        /* \"@openzeppelin/contracts/token/ERC20/ERC20.sol\":4586:4593  spender */\n      dup6\n        /* \"@openzeppelin/contracts/token/ERC20/ERC20.sol\":4595:4601  amount */\n      dup6\n        /* \"@openzeppelin/contracts/token/ERC20/ERC20.sol\":4570:4578  _approve */\n      tag_98\n        /* \"@openzeppelin/contracts/token/ERC20/ERC20.sol\":4570:4602  _approve(owner, spender, amount) */\n      jump\t// in\n    tag_97:\n        /* \"@openzeppelin/contracts/token/ERC20/ERC20.sol\":4619:4623  true */\n      0x01\n        /* \"@openzeppelin/contracts/token/ERC20/ERC20.sol\":4612:4623  return true */\n      swap2\n      pop\n      pop\n        /* \"@openzeppelin/contracts/token/ERC20/ERC20.sol\":4433:4630  function approve(address spender, uint256 amount) public virtual override returns (bool) {... */\n    tag_94:\n      swap3\n      swap2\n      pop\n      pop\n      jump\t// out\n        /* \"@openzeppelin/contracts/token/ERC20/ERC20.sol\":5192:5478  function transferFrom(... */\n    tag_40:\n        /* \"@openzeppelin/contracts/token/ERC20/ERC20.sol\":5319:5323  bool */\n      0x00\n        /* \"@openzeppelin/contracts/utils/Context.sol\":719:729  msg.sender */\n      caller\n        /* \"@openzeppelin/contracts/token/ERC20/ERC20.sol\":5375:5413  _spendAllowance(from, spender, amount) */\n      tag_102\n        /* \"@openzeppelin/contracts/token/ERC20/ERC20.sol\":5391:5395  from */\n      dup6\n        /* \"@openzeppelin/contracts/utils/Context.sol\":719:729  msg.sender */\n      dup3\n        /* \"@openzeppelin/contracts/token/ERC20/ERC20.sol\":5406:5412  amount */\n      dup6\n        /* \"@openzeppelin/contracts/token/ERC20/ERC20.sol\":5375:5390  _spendAllowance */\n      tag_103\n        /* \"@openzeppelin/contracts/token/ERC20/ERC20.sol\":5375:5413  _spendAllowance(from, spender, amount) */\n      jump\t// in\n    tag_102:\n        /* \"@openzeppelin/contracts/token/ERC20/ERC20.sol\":5423:5450  _transfer(from, to, amount) */\n      tag_104\n        /* \"@openzeppelin/contracts/token/ERC20/ERC20.sol\":5433:5437  from */\n      dup6\n        /* \"@openzeppelin/contracts/token/ERC20/ERC20.sol\":5439:5441  to */\n      dup6\n        /* \"@openzeppelin/contracts/token/ERC20/ERC20.sol\":5443:5449  amount */\n      dup6\n        /* \"@openzeppelin/contracts/token/ERC20/ERC20.sol\":5423:5432  _transfer */\n      tag_105\n        /* \"@openzeppelin/contracts/token/ERC20/ERC20.sol\":5423:5450  _transfer(from, to, amount) */\n      jump\t// in\n    tag_104:\n      pop\n        /* \"@openzeppelin/contracts/token/ERC20/ERC20.sol\":5467:5471  true */\n      0x01\n      swap5\n        /* \"@openzeppelin/contracts/token/ERC20/ERC20.sol\":5192:5478  function transferFrom(... */\n      swap4\n      pop\n      pop\n      pop\n      pop\n      jump\t// out\n        /* \"@openzeppelin/contracts/token/ERC20/ERC20.sol\":5873:6107  function increaseAllowance(address spender, uint256 addedValue) public virtual returns (bool) {... */\n    tag_51:\n        /* \"@openzeppelin/contracts/token/ERC20/ERC20.sol\":5961:5965  bool */\n      0x00\n        /* \"@openzeppelin/contracts/utils/Context.sol\":719:729  msg.sender */\n      caller\n        /* \"@openzeppelin/contracts/token/ERC20/ERC20.sol\":6015:6079  _approve(owner, spender, allowance(owner, spender) + addedValue) */\n      tag_97\n        /* \"@openzeppelin/contracts/utils/Context.sol\":719:729  msg.sender */\n      dup2\n        /* \"@openzeppelin/contracts/token/ERC20/ERC20.sol\":6031:6038  spender */\n      dup6\n        /* \"@openzeppelin/contracts/token/ERC20/ERC20.sol\":6068:6078  addedValue */\n      dup6\n        /* \"@openzeppelin/contracts/token/ERC20/ERC20.sol\":6040:6065  allowance(owner, spender) */\n      tag_110\n        /* \"@openzeppelin/contracts/utils/Context.sol\":719:729  msg.sender */\n      dup4\n        /* \"@openzeppelin/contracts/token/ERC20/ERC20.sol\":6031:6038  spender */\n      dup4\n        /* \"@openzeppelin/contracts/token/ERC20/ERC20.sol\":6040:6049  allowance */\n      tag_81\n        /* \"@openzeppelin/contracts/token/ERC20/ERC20.sol\":6040:6065  allowance(owner, spender) */\n      jump\t// in\n    tag_110:\n        /* \"@openzeppelin/contracts/token/ERC20/ERC20.sol\":6040:6078  allowance(owner, spender) + addedValue */\n      tag_111\n      swap2\n      swap1\n      tag_112\n      jump\t// in\n    tag_111:\n        /* \"@openzeppelin/contracts/token/ERC20/ERC20.sol\":6015:6023  _approve */\n      tag_98\n        /* \"@openzeppelin/contracts/token/ERC20/ERC20.sol\":6015:6079  _approve(owner, spender, allowance(owner, spender) + addedValue) */\n      jump\t// in\n        /* \"@openzeppelin/contracts/token/ERC20/ERC20.sol\":2367:2469  function symbol() public view virtual override returns (string memory) {... */\n    tag_59:\n        /* \"@openzeppelin/contracts/token/ERC20/ERC20.sol\":2423:2436  string memory */\n      0x60\n        /* \"@openzeppelin/contracts/token/ERC20/ERC20.sol\":2455:2462  _symbol */\n      0x04\n        /* \"@openzeppelin/contracts/token/ERC20/ERC20.sol\":2448:2462  return _symbol */\n      dup1\n      sload\n      tag_88\n      swap1\n      tag_89\n      jump\t// in\n        /* \"contracts/PriceUpdater.sol\":852:943  function updateCentralBank() public {... */\n    tag_66:\n        /* \"contracts/PriceUpdater.sol\":903:907  cbdc */\n      sload(0x05)\n        /* \"contracts/PriceUpdater.sol\":894:938  MultiSig(cbdc).updateCentralBank(msg.sender) */\n      mload(0x40)\n      0x077bf51a00000000000000000000000000000000000000000000000000000000\n      dup2\n      mstore\n        /* \"contracts/PriceUpdater.sol\":927:937  msg.sender */\n      caller\n        /* \"contracts/PriceUpdater.sol\":894:938  MultiSig(cbdc).updateCentralBank(msg.sender) */\n      0x04\n      dup3\n      add\n        /* \"#utility.yul\":2260:2334   */\n      mstore\n      sub(exp(0x02, 0xa0), 0x01)\n        /* \"contracts/PriceUpdater.sol\":903:907  cbdc */\n      swap1\n      swap2\n      and\n      swap1\n        /* \"contracts/PriceUpdater.sol\":894:926  MultiSig(cbdc).updateCentralBank */\n      0x077bf51a\n      swap1\n        /* \"#utility.yul\":2233:2251   */\n      0x24\n      add\n        /* \"contracts/PriceUpdater.sol\":894:938  MultiSig(cbdc).updateCentralBank(msg.sender) */\n      0x00\n      mload(0x40)\n      dup1\n      dup4\n      sub\n      dup2\n      0x00\n      dup8\n      dup1\n      extcodesize\n      iszero\n      dup1\n      iszero\n      tag_122\n      jumpi\n      0x00\n      dup1\n      revert\n    tag_122:\n      pop\n      gas\n      call\n      iszero\n      dup1\n      iszero\n      tag_124\n      jumpi\n      returndatasize\n      0x00\n      dup1\n      returndatacopy\n      revert(0x00, returndatasize)\n    tag_124:\n      pop\n      pop\n      pop\n      pop\n        /* \"contracts/PriceUpdater.sol\":852:943  function updateCentralBank() public {... */\n      jump\t// out\n        /* \"@openzeppelin/contracts/token/ERC20/ERC20.sol\":6594:7021  function decreaseAllowance(address spender, uint256 subtractedValue) public virtual returns (bool) {... */\n    tag_69:\n        /* \"@openzeppelin/contracts/token/ERC20/ERC20.sol\":6687:6691  bool */\n      0x00\n        /* \"@openzeppelin/contracts/utils/Context.sol\":719:729  msg.sender */\n      caller\n        /* \"@openzeppelin/contracts/token/ERC20/ERC20.sol\":6687:6691  bool */\n      dup2\n        /* \"@openzeppelin/contracts/token/ERC20/ERC20.sol\":6768:6793  allowance(owner, spender) */\n      tag_127\n        /* \"@openzeppelin/contracts/utils/Context.sol\":719:729  msg.sender */\n      dup3\n        /* \"@openzeppelin/contracts/token/ERC20/ERC20.sol\":6785:6792  spender */\n      dup7\n        /* \"@openzeppelin/contracts/token/ERC20/ERC20.sol\":6768:6777  allowance */\n      tag_81\n        /* \"@openzeppelin/contracts/token/ERC20/ERC20.sol\":6768:6793  allowance(owner, spender) */\n      jump\t// in\n    tag_127:\n        /* \"@openzeppelin/contracts/token/ERC20/ERC20.sol\":6741:6793  uint256 currentAllowance = allowance(owner, spender) */\n      swap1\n      pop\n        /* \"@openzeppelin/contracts/token/ERC20/ERC20.sol\":6831:6846  subtractedValue */\n      dup4\n        /* \"@openzeppelin/contracts/token/ERC20/ERC20.sol\":6811:6827  currentAllowance */\n      dup2\n        /* \"@openzeppelin/contracts/token/ERC20/ERC20.sol\":6811:6846  currentAllowance >= subtractedValue */\n      lt\n      iszero\n        /* \"@openzeppelin/contracts/token/ERC20/ERC20.sol\":6803:6888  require(currentAllowance >= subtractedValue, \"ERC20: decreased allowance below zero\") */\n      tag_128\n      jumpi\n      mload(0x40)\n      mul(0x461bcd, exp(0x02, 0xe5))\n      dup2\n      mstore\n        /* \"#utility.yul\":3538:3540   */\n      0x20\n        /* \"@openzeppelin/contracts/token/ERC20/ERC20.sol\":6803:6888  require(currentAllowance >= subtractedValue, \"ERC20: decreased allowance below zero\") */\n      0x04\n      dup3\n      add\n        /* \"#utility.yul\":3520:3541   */\n      mstore\n        /* \"#utility.yul\":3577:3579   */\n      0x25\n        /* \"#utility.yul\":3557:3575   */\n      0x24\n      dup3\n      add\n        /* \"#utility.yul\":3550:3580   */\n      mstore\n        /* \"#utility.yul\":3616:3650   */\n      0x45524332303a2064656372656173656420616c6c6f77616e63652062656c6f77\n        /* \"#utility.yul\":3596:3614   */\n      0x44\n      dup3\n      add\n        /* \"#utility.yul\":3589:3651   */\n      mstore\n        /* \"#utility.yul\":3687:3694   */\n      0x207a65726f000000000000000000000000000000000000000000000000000000\n        /* \"#utility.yul\":3667:3685   */\n      0x64\n      dup3\n      add\n        /* \"#utility.yul\":3660:3695   */\n      mstore\n        /* \"#utility.yul\":3712:3731   */\n      0x84\n      add\n        /* \"@openzeppelin/contracts/token/ERC20/ERC20.sol\":6803:6888  require(currentAllowance >= subtractedValue, \"ERC20: decreased allowance below zero\") */\n    tag_129:\n      mload(0x40)\n      dup1\n      swap2\n      sub\n      swap1\n      revert\n    tag_128:\n        /* \"@openzeppelin/contracts/token/ERC20/ERC20.sol\":6922:6982  _approve(owner, spender, currentAllowance - subtractedValue) */\n      tag_104\n        /* \"@openzeppelin/contracts/token/ERC20/ERC20.sol\":6931:6936  owner */\n      dup3\n        /* \"@openzeppelin/contracts/token/ERC20/ERC20.sol\":6938:6945  spender */\n      dup7\n        /* \"@openzeppelin/contracts/token/ERC20/ERC20.sol\":6966:6981  subtractedValue */\n      dup7\n        /* \"@openzeppelin/contracts/token/ERC20/ERC20.sol\":6947:6963  currentAllowance */\n      dup5\n        /* \"@openzeppelin/contracts/token/ERC20/ERC20.sol\":6947:6981  currentAllowance - subtractedValue */\n      sub\n        /* \"@openzeppelin/contracts/token/ERC20/ERC20.sol\":6922:6930  _approve */\n      tag_98\n        /* \"@openzeppelin/contracts/token/ERC20/ERC20.sol\":6922:6982  _approve(owner, spender, currentAllowance - subtractedValue) */\n      jump\t// in\n        /* \"@openzeppelin/contracts/token/ERC20/ERC20.sol\":3729:3918  function transfer(address to, uint256 amount) public virtual override returns (bool) {... */\n    tag_73:\n        /* \"@openzeppelin/contracts/token/ERC20/ERC20.sol\":3808:3812  bool */\n      0x00\n        /* \"@openzeppelin/contracts/utils/Context.sol\":719:729  msg.sender */\n      caller\n        /* \"@openzeppelin/contracts/token/ERC20/ERC20.sol\":3862:3890  _transfer(owner, to, amount) */\n      tag_97\n        /* \"@openzeppelin/contracts/utils/Context.sol\":719:729  msg.sender */\n      dup2\n        /* \"@openzeppelin/contracts/token/ERC20/ERC20.sol\":3879:3881  to */\n      dup6\n        /* \"@openzeppelin/contracts/token/ERC20/ERC20.sol\":3883:3889  amount */\n      dup6\n        /* \"@openzeppelin/contracts/token/ERC20/ERC20.sol\":3862:3871  _transfer */\n      tag_105\n        /* \"@openzeppelin/contracts/token/ERC20/ERC20.sol\":3862:3890  _transfer(owner, to, amount) */\n      jump\t// in\n        /* \"@openzeppelin/contracts/token/ERC20/ERC20.sol\":3976:4125  function allowance(address owner, address spender) public view virtual override returns (uint256) {... */\n    tag_81:\n      sub(exp(0x02, 0xa0), 0x01)\n        /* \"@openzeppelin/contracts/token/ERC20/ERC20.sol\":4091:4109  _allowances[owner] */\n      swap2\n      dup3\n      and\n        /* \"@openzeppelin/contracts/token/ERC20/ERC20.sol\":4065:4072  uint256 */\n      0x00\n        /* \"@openzeppelin/contracts/token/ERC20/ERC20.sol\":4091:4109  _allowances[owner] */\n      swap1\n      dup2\n      mstore\n        /* \"@openzeppelin/contracts/token/ERC20/ERC20.sol\":4091:4102  _allowances */\n      0x01\n        /* \"@openzeppelin/contracts/token/ERC20/ERC20.sol\":4091:4109  _allowances[owner] */\n      0x20\n      swap1\n      dup2\n      mstore\n      0x40\n      dup1\n      dup4\n      keccak256\n        /* \"@openzeppelin/contracts/token/ERC20/ERC20.sol\":4091:4118  _allowances[owner][spender] */\n      swap4\n      swap1\n      swap5\n      and\n      dup3\n      mstore\n      swap2\n      swap1\n      swap2\n      mstore\n      keccak256\n      sload\n      swap1\n        /* \"@openzeppelin/contracts/token/ERC20/ERC20.sol\":3976:4125  function allowance(address owner, address spender) public view virtual override returns (uint256) {... */\n      jump\t// out\n        /* \"contracts/PriceUpdater.sol\":1132:1251  function upgradeUSDC() public {... */\n    tag_84:\n        /* \"contracts/PriceUpdater.sol\":1177:1181  cbdc */\n      sload(0x05)\n        /* \"contracts/PriceUpdater.sol\":1168:1209  MultiSig(cbdc).upgradeUSDC(address(this)) */\n      mload(0x40)\n      0x8cba468600000000000000000000000000000000000000000000000000000000\n      dup2\n      mstore\n        /* \"contracts/PriceUpdater.sol\":1203:1207  this */\n      address\n        /* \"contracts/PriceUpdater.sol\":1168:1209  MultiSig(cbdc).upgradeUSDC(address(this)) */\n      0x04\n      dup3\n      add\n        /* \"#utility.yul\":2260:2334   */\n      mstore\n      sub(exp(0x02, 0xa0), 0x01)\n        /* \"contracts/PriceUpdater.sol\":1177:1181  cbdc */\n      swap1\n      swap2\n      and\n      swap1\n        /* \"contracts/PriceUpdater.sol\":1168:1194  MultiSig(cbdc).upgradeUSDC */\n      0x8cba4686\n      swap1\n        /* \"#utility.yul\":2233:2251   */\n      0x24\n      add\n        /* \"contracts/PriceUpdater.sol\":1168:1209  MultiSig(cbdc).upgradeUSDC(address(this)) */\n      0x00\n      mload(0x40)\n      dup1\n      dup4\n      sub\n      dup2\n      0x00\n      dup8\n      dup1\n      extcodesize\n      iszero\n      dup1\n      iszero\n      tag_138\n      jumpi\n      0x00\n      dup1\n      revert\n    tag_138:\n      pop\n      gas\n      call\n      iszero\n      dup1\n      iszero\n      tag_140\n      jumpi\n      returndatasize\n      0x00\n      dup1\n      returndatacopy\n      revert(0x00, returndatasize)\n    tag_140:\n      pop\n      pop\n      pop\n      pop\n        /* \"contracts/PriceUpdater.sol\":1224:1228  cbdc */\n      0x05\n      0x00\n      swap1\n      sload\n      swap1\n      0x0100\n      exp\n      swap1\n      div\n      sub(exp(0x02, 0xa0), 0x01)\n      and\n      sub(exp(0x02, 0xa0), 0x01)\n        /* \"contracts/PriceUpdater.sol\":1215:1244  MultiSig(cbdc).buyFundsPublic */\n      and\n      0xf99a1f30\n        /* \"contracts/PriceUpdater.sol\":1215:1246  MultiSig(cbdc).buyFundsPublic() */\n      mload(0x40)\n      dup2\n      0xffffffff\n      and\n      exp(0x02, 0xe0)\n      mul\n      dup2\n      mstore\n      0x04\n      add\n      0x00\n      mload(0x40)\n      dup1\n      dup4\n      sub\n      dup2\n      0x00\n      dup8\n      dup1\n      extcodesize\n      iszero\n      dup1\n      iszero\n      tag_122\n      jumpi\n      0x00\n      dup1\n      revert\n        /* \"contracts/PriceUpdater.sol\":1257:1334  function buyFundsPublic() public {... */\n    tag_86:\n        /* \"contracts/PriceUpdater.sol\":1307:1311  cbdc */\n      0x05\n      0x00\n      swap1\n      sload\n      swap1\n      0x0100\n      exp\n      swap1\n      div\n      sub(exp(0x02, 0xa0), 0x01)\n      and\n      sub(exp(0x02, 0xa0), 0x01)\n        /* \"contracts/PriceUpdater.sol\":1298:1327  MultiSig(cbdc).buyFundsPublic */\n      and\n      0xf99a1f30\n        /* \"contracts/PriceUpdater.sol\":1298:1329  MultiSig(cbdc).buyFundsPublic() */\n      mload(0x40)\n      dup2\n      0xffffffff\n      and\n      exp(0x02, 0xe0)\n      mul\n      dup2\n      mstore\n      0x04\n      add\n      0x00\n      mload(0x40)\n      dup1\n      dup4\n      sub\n      dup2\n      0x00\n      dup8\n      dup1\n      extcodesize\n      iszero\n      dup1\n      iszero\n      tag_122\n      jumpi\n      0x00\n      dup1\n      revert\n        /* \"@openzeppelin/contracts/token/ERC20/ERC20.sol\":10110:10480  function _approve(... */\n    tag_98:\n      sub(exp(0x02, 0xa0), 0x01)\n        /* \"@openzeppelin/contracts/token/ERC20/ERC20.sol\":10241:10260  owner != address(0) */\n      dup4\n      and\n        /* \"@openzeppelin/contracts/token/ERC20/ERC20.sol\":10233:10301  require(owner != address(0), \"ERC20: approve from the zero address\") */\n      tag_150\n      jumpi\n      mload(0x40)\n      mul(0x461bcd, exp(0x02, 0xe5))\n      dup2\n      mstore\n        /* \"#utility.yul\":3944:3946   */\n      0x20\n        /* \"@openzeppelin/contracts/token/ERC20/ERC20.sol\":10233:10301  require(owner != address(0), \"ERC20: approve from the zero address\") */\n      0x04\n      dup3\n      add\n        /* \"#utility.yul\":3926:3947   */\n      mstore\n        /* \"#utility.yul\":3983:3985   */\n      0x24\n        /* \"#utility.yul\":3963:3981   */\n      dup1\n      dup3\n      add\n        /* \"#utility.yul\":3956:3986   */\n      mstore\n        /* \"#utility.yul\":4022:4056   */\n      0x45524332303a20617070726f76652066726f6d20746865207a65726f20616464\n        /* \"#utility.yul\":4002:4020   */\n      0x44\n      dup3\n      add\n        /* \"#utility.yul\":3995:4057   */\n      mstore\n        /* \"#utility.yul\":4093:4099   */\n      0x7265737300000000000000000000000000000000000000000000000000000000\n        /* \"#utility.yul\":4073:4091   */\n      0x64\n      dup3\n      add\n        /* \"#utility.yul\":4066:4100   */\n      mstore\n        /* \"#utility.yul\":4117:4136   */\n      0x84\n      add\n        /* \"@openzeppelin/contracts/token/ERC20/ERC20.sol\":10233:10301  require(owner != address(0), \"ERC20: approve from the zero address\") */\n      tag_129\n        /* \"#utility.yul\":3742:4142   */\n      jump\n        /* \"@openzeppelin/contracts/token/ERC20/ERC20.sol\":10233:10301  require(owner != address(0), \"ERC20: approve from the zero address\") */\n    tag_150:\n      sub(exp(0x02, 0xa0), 0x01)\n        /* \"@openzeppelin/contracts/token/ERC20/ERC20.sol\":10319:10340  spender != address(0) */\n      dup3\n      and\n        /* \"@openzeppelin/contracts/token/ERC20/ERC20.sol\":10311:10379  require(spender != address(0), \"ERC20: approve to the zero address\") */\n      tag_153\n      jumpi\n      mload(0x40)\n      mul(0x461bcd, exp(0x02, 0xe5))\n      dup2\n      mstore\n        /* \"#utility.yul\":4349:4351   */\n      0x20\n        /* \"@openzeppelin/contracts/token/ERC20/ERC20.sol\":10311:10379  require(spender != address(0), \"ERC20: approve to the zero address\") */\n      0x04\n      dup3\n      add\n        /* \"#utility.yul\":4331:4352   */\n      mstore\n        /* \"#utility.yul\":4388:4390   */\n      0x22\n        /* \"#utility.yul\":4368:4386   */\n      0x24\n      dup3\n      add\n        /* \"#utility.yul\":4361:4391   */\n      mstore\n        /* \"#utility.yul\":4427:4461   */\n      0x45524332303a20617070726f766520746f20746865207a65726f206164647265\n        /* \"#utility.yul\":4407:4425   */\n      0x44\n      dup3\n      add\n        /* \"#utility.yul\":4400:4462   */\n      mstore\n        /* \"#utility.yul\":4498:4502   */\n      0x7373000000000000000000000000000000000000000000000000000000000000\n        /* \"#utility.yul\":4478:4496   */\n      0x64\n      dup3\n      add\n        /* \"#utility.yul\":4471:4503   */\n      mstore\n        /* \"#utility.yul\":4520:4539   */\n      0x84\n      add\n        /* \"@openzeppelin/contracts/token/ERC20/ERC20.sol\":10311:10379  require(spender != address(0), \"ERC20: approve to the zero address\") */\n      tag_129\n        /* \"#utility.yul\":4147:4545   */\n      jump\n        /* \"@openzeppelin/contracts/token/ERC20/ERC20.sol\":10311:10379  require(spender != address(0), \"ERC20: approve to the zero address\") */\n    tag_153:\n      sub(exp(0x02, 0xa0), 0x01)\n        /* \"@openzeppelin/contracts/token/ERC20/ERC20.sol\":10390:10408  _allowances[owner] */\n      dup4\n      dup2\n      and\n      0x00\n      dup2\n      dup2\n      mstore\n        /* \"@openzeppelin/contracts/token/ERC20/ERC20.sol\":10390:10401  _allowances */\n      0x01\n        /* \"@openzeppelin/contracts/token/ERC20/ERC20.sol\":10390:10408  _allowances[owner] */\n      0x20\n      swap1\n      dup2\n      mstore\n      0x40\n      dup1\n      dup4\n      keccak256\n        /* \"@openzeppelin/contracts/token/ERC20/ERC20.sol\":10390:10417  _allowances[owner][spender] */\n      swap5\n      dup8\n      and\n      dup1\n      dup5\n      mstore\n      swap5\n      dup3\n      mstore\n      swap2\n      dup3\n      swap1\n      keccak256\n        /* \"@openzeppelin/contracts/token/ERC20/ERC20.sol\":10390:10426  _allowances[owner][spender] = amount */\n      dup6\n      swap1\n      sstore\n        /* \"@openzeppelin/contracts/token/ERC20/ERC20.sol\":10441:10473  Approval(owner, spender, amount) */\n      swap1\n      mload\n        /* \"#utility.yul\":1365:1390   */\n      dup5\n      dup2\n      mstore\n        /* \"@openzeppelin/contracts/token/ERC20/ERC20.sol\":10441:10473  Approval(owner, spender, amount) */\n      0x8c5be1e5ebec7d5bd14f71427d1e84f3dd0314c0f7b2291e5b200ac8c7c3b925\n      swap2\n        /* \"#utility.yul\":1338:1356   */\n      add\n        /* \"@openzeppelin/contracts/token/ERC20/ERC20.sol\":10441:10473  Approval(owner, spender, amount) */\n      mload(0x40)\n      dup1\n      swap2\n      sub\n      swap1\n      log3\n        /* \"@openzeppelin/contracts/token/ERC20/ERC20.sol\":10110:10480  function _approve(... */\n      pop\n      pop\n      pop\n      jump\t// out\n        /* \"@openzeppelin/contracts/token/ERC20/ERC20.sol\":10761:11202  function _spendAllowance(... */\n    tag_103:\n        /* \"@openzeppelin/contracts/token/ERC20/ERC20.sol\":10891:10915  uint256 currentAllowance */\n      0x00\n        /* \"@openzeppelin/contracts/token/ERC20/ERC20.sol\":10918:10943  allowance(owner, spender) */\n      tag_158\n        /* \"@openzeppelin/contracts/token/ERC20/ERC20.sol\":10928:10933  owner */\n      dup5\n        /* \"@openzeppelin/contracts/token/ERC20/ERC20.sol\":10935:10942  spender */\n      dup5\n        /* \"@openzeppelin/contracts/token/ERC20/ERC20.sol\":10918:10927  allowance */\n      tag_81\n        /* \"@openzeppelin/contracts/token/ERC20/ERC20.sol\":10918:10943  allowance(owner, spender) */\n      jump\t// in\n    tag_158:\n        /* \"@openzeppelin/contracts/token/ERC20/ERC20.sol\":10891:10943  uint256 currentAllowance = allowance(owner, spender) */\n      swap1\n      pop\n      not(0x00)\n        /* \"@openzeppelin/contracts/token/ERC20/ERC20.sol\":10957:10973  currentAllowance */\n      dup2\n        /* \"@openzeppelin/contracts/token/ERC20/ERC20.sol\":10957:10994  currentAllowance != type(uint256).max */\n      eq\n        /* \"@openzeppelin/contracts/token/ERC20/ERC20.sol\":10953:11196  if (currentAllowance != type(uint256).max) {... */\n      tag_124\n      jumpi\n        /* \"@openzeppelin/contracts/token/ERC20/ERC20.sol\":11038:11044  amount */\n      dup2\n        /* \"@openzeppelin/contracts/token/ERC20/ERC20.sol\":11018:11034  currentAllowance */\n      dup2\n        /* \"@openzeppelin/contracts/token/ERC20/ERC20.sol\":11018:11044  currentAllowance >= amount */\n      lt\n      iszero\n        /* \"@openzeppelin/contracts/token/ERC20/ERC20.sol\":11010:11078  require(currentAllowance >= amount, \"ERC20: insufficient allowance\") */\n      tag_160\n      jumpi\n      mload(0x40)\n      mul(0x461bcd, exp(0x02, 0xe5))\n      dup2\n      mstore\n        /* \"#utility.yul\":4752:4754   */\n      0x20\n        /* \"@openzeppelin/contracts/token/ERC20/ERC20.sol\":11010:11078  require(currentAllowance >= amount, \"ERC20: insufficient allowance\") */\n      0x04\n      dup3\n      add\n        /* \"#utility.yul\":4734:4755   */\n      mstore\n        /* \"#utility.yul\":4791:4793   */\n      0x1d\n        /* \"#utility.yul\":4771:4789   */\n      0x24\n      dup3\n      add\n        /* \"#utility.yul\":4764:4794   */\n      mstore\n        /* \"#utility.yul\":4830:4861   */\n      0x45524332303a20696e73756666696369656e7420616c6c6f77616e6365000000\n        /* \"#utility.yul\":4810:4828   */\n      0x44\n      dup3\n      add\n        /* \"#utility.yul\":4803:4862   */\n      mstore\n        /* \"#utility.yul\":4879:4897   */\n      0x64\n      add\n        /* \"@openzeppelin/contracts/token/ERC20/ERC20.sol\":11010:11078  require(currentAllowance >= amount, \"ERC20: insufficient allowance\") */\n      tag_129\n        /* \"#utility.yul\":4550:4903   */\n      jump\n        /* \"@openzeppelin/contracts/token/ERC20/ERC20.sol\":11010:11078  require(currentAllowance >= amount, \"ERC20: insufficient allowance\") */\n    tag_160:\n        /* \"@openzeppelin/contracts/token/ERC20/ERC20.sol\":11120:11171  _approve(owner, spender, currentAllowance - amount) */\n      tag_124\n        /* \"@openzeppelin/contracts/token/ERC20/ERC20.sol\":11129:11134  owner */\n      dup5\n        /* \"@openzeppelin/contracts/token/ERC20/ERC20.sol\":11136:11143  spender */\n      dup5\n        /* \"@openzeppelin/contracts/token/ERC20/ERC20.sol\":11164:11170  amount */\n      dup5\n        /* \"@openzeppelin/contracts/token/ERC20/ERC20.sol\":11145:11161  currentAllowance */\n      dup5\n        /* \"@openzeppelin/contracts/token/ERC20/ERC20.sol\":11145:11170  currentAllowance - amount */\n      sub\n        /* \"@openzeppelin/contracts/token/ERC20/ERC20.sol\":11120:11128  _approve */\n      tag_98\n        /* \"@openzeppelin/contracts/token/ERC20/ERC20.sol\":11120:11171  _approve(owner, spender, currentAllowance - amount) */\n      jump\t// in\n        /* \"@openzeppelin/contracts/token/ERC20/ERC20.sol\":7475:8126  function _transfer(... */\n    tag_105:\n      sub(exp(0x02, 0xa0), 0x01)\n        /* \"@openzeppelin/contracts/token/ERC20/ERC20.sol\":7601:7619  from != address(0) */\n      dup4\n      and\n        /* \"@openzeppelin/contracts/token/ERC20/ERC20.sol\":7593:7661  require(from != address(0), \"ERC20: transfer from the zero address\") */\n      tag_165\n      jumpi\n      mload(0x40)\n      mul(0x461bcd, exp(0x02, 0xe5))\n      dup2\n      mstore\n        /* \"#utility.yul\":5110:5112   */\n      0x20\n        /* \"@openzeppelin/contracts/token/ERC20/ERC20.sol\":7593:7661  require(from != address(0), \"ERC20: transfer from the zero address\") */\n      0x04\n      dup3\n      add\n        /* \"#utility.yul\":5092:5113   */\n      mstore\n        /* \"#utility.yul\":5149:5151   */\n      0x25\n        /* \"#utility.yul\":5129:5147   */\n      0x24\n      dup3\n      add\n        /* \"#utility.yul\":5122:5152   */\n      mstore\n        /* \"#utility.yul\":5188:5222   */\n      0x45524332303a207472616e736665722066726f6d20746865207a65726f206164\n        /* \"#utility.yul\":5168:5186   */\n      0x44\n      dup3\n      add\n        /* \"#utility.yul\":5161:5223   */\n      mstore\n        /* \"#utility.yul\":5259:5266   */\n      0x6472657373000000000000000000000000000000000000000000000000000000\n        /* \"#utility.yul\":5239:5257   */\n      0x64\n      dup3\n      add\n        /* \"#utility.yul\":5232:5267   */\n      mstore\n        /* \"#utility.yul\":5284:5303   */\n      0x84\n      add\n        /* \"@openzeppelin/contracts/token/ERC20/ERC20.sol\":7593:7661  require(from != address(0), \"ERC20: transfer from the zero address\") */\n      tag_129\n        /* \"#utility.yul\":4908:5309   */\n      jump\n        /* \"@openzeppelin/contracts/token/ERC20/ERC20.sol\":7593:7661  require(from != address(0), \"ERC20: transfer from the zero address\") */\n    tag_165:\n      sub(exp(0x02, 0xa0), 0x01)\n        /* \"@openzeppelin/contracts/token/ERC20/ERC20.sol\":7679:7695  to != address(0) */\n      dup3\n      and\n        /* \"@openzeppelin/contracts/token/ERC20/ERC20.sol\":7671:7735  require(to != address(0), \"ERC20: transfer to the zero address\") */\n      tag_168\n      jumpi\n      mload(0x40)\n      mul(0x461bcd, exp(0x02, 0xe5))\n      dup2\n      mstore\n        /* \"#utility.yul\":5516:5518   */\n      0x20\n        /* \"@openzeppelin/contracts/token/ERC20/ERC20.sol\":7671:7735  require(to != address(0), \"ERC20: transfer to the zero address\") */\n      0x04\n      dup3\n      add\n        /* \"#utility.yul\":5498:5519   */\n      mstore\n        /* \"#utility.yul\":5555:5557   */\n      0x23\n        /* \"#utility.yul\":5535:5553   */\n      0x24\n      dup3\n      add\n        /* \"#utility.yul\":5528:5558   */\n      mstore\n        /* \"#utility.yul\":5594:5628   */\n      0x45524332303a207472616e7366657220746f20746865207a65726f2061646472\n        /* \"#utility.yul\":5574:5592   */\n      0x44\n      dup3\n      add\n        /* \"#utility.yul\":5567:5629   */\n      mstore\n        /* \"#utility.yul\":5665:5670   */\n      0x6573730000000000000000000000000000000000000000000000000000000000\n        /* \"#utility.yul\":5645:5663   */\n      0x64\n      dup3\n      add\n        /* \"#utility.yul\":5638:5671   */\n      mstore\n        /* \"#utility.yul\":5688:5707   */\n      0x84\n      add\n        /* \"@openzeppelin/contracts/token/ERC20/ERC20.sol\":7671:7735  require(to != address(0), \"ERC20: transfer to the zero address\") */\n      tag_129\n        /* \"#utility.yul\":5314:5713   */\n      jump\n        /* \"@openzeppelin/contracts/token/ERC20/ERC20.sol\":7671:7735  require(to != address(0), \"ERC20: transfer to the zero address\") */\n    tag_168:\n      sub(exp(0x02, 0xa0), 0x01)\n        /* \"@openzeppelin/contracts/token/ERC20/ERC20.sol\":7817:7832  _balances[from] */\n      dup4\n      and\n        /* \"@openzeppelin/contracts/token/ERC20/ERC20.sol\":7795:7814  uint256 fromBalance */\n      0x00\n        /* \"@openzeppelin/contracts/token/ERC20/ERC20.sol\":7817:7832  _balances[from] */\n      swap1\n      dup2\n      mstore\n      0x20\n      dup2\n      swap1\n      mstore\n      0x40\n      swap1\n      keccak256\n      sload\n        /* \"@openzeppelin/contracts/token/ERC20/ERC20.sol\":7850:7871  fromBalance >= amount */\n      dup2\n      dup2\n      lt\n      iszero\n        /* \"@openzeppelin/contracts/token/ERC20/ERC20.sol\":7842:7914  require(fromBalance >= amount, \"ERC20: transfer amount exceeds balance\") */\n      tag_173\n      jumpi\n      mload(0x40)\n      mul(0x461bcd, exp(0x02, 0xe5))\n      dup2\n      mstore\n        /* \"#utility.yul\":5920:5922   */\n      0x20\n        /* \"@openzeppelin/contracts/token/ERC20/ERC20.sol\":7842:7914  require(fromBalance >= amount, \"ERC20: transfer amount exceeds balance\") */\n      0x04\n      dup3\n      add\n        /* \"#utility.yul\":5902:5923   */\n      mstore\n        /* \"#utility.yul\":5959:5961   */\n      0x26\n        /* \"#utility.yul\":5939:5957   */\n      0x24\n      dup3\n      add\n        /* \"#utility.yul\":5932:5962   */\n      mstore\n        /* \"#utility.yul\":5998:6032   */\n      0x45524332303a207472616e7366657220616d6f756e7420657863656564732062\n        /* \"#utility.yul\":5978:5996   */\n      0x44\n      dup3\n      add\n        /* \"#utility.yul\":5971:6033   */\n      mstore\n        /* \"#utility.yul\":6069:6077   */\n      0x616c616e63650000000000000000000000000000000000000000000000000000\n        /* \"#utility.yul\":6049:6067   */\n      0x64\n      dup3\n      add\n        /* \"#utility.yul\":6042:6078   */\n      mstore\n        /* \"#utility.yul\":6095:6114   */\n      0x84\n      add\n        /* \"@openzeppelin/contracts/token/ERC20/ERC20.sol\":7842:7914  require(fromBalance >= amount, \"ERC20: transfer amount exceeds balance\") */\n      tag_129\n        /* \"#utility.yul\":5718:6120   */\n      jump\n        /* \"@openzeppelin/contracts/token/ERC20/ERC20.sol\":7842:7914  require(fromBalance >= amount, \"ERC20: transfer amount exceeds balance\") */\n    tag_173:\n      sub(exp(0x02, 0xa0), 0x01)\n        /* \"@openzeppelin/contracts/token/ERC20/ERC20.sol\":7948:7963  _balances[from] */\n      dup1\n      dup6\n      and\n        /* \"@openzeppelin/contracts/token/ERC20/ERC20.sol\":7948:7957  _balances */\n      0x00\n        /* \"@openzeppelin/contracts/token/ERC20/ERC20.sol\":7948:7963  _balances[from] */\n      swap1\n      dup2\n      mstore\n      0x20\n      dup2\n      swap1\n      mstore\n      0x40\n      dup1\n      dup3\n      keccak256\n        /* \"@openzeppelin/contracts/token/ERC20/ERC20.sol\":7966:7986  fromBalance - amount */\n      dup6\n      dup6\n      sub\n        /* \"@openzeppelin/contracts/token/ERC20/ERC20.sol\":7948:7986  _balances[from] = fromBalance - amount */\n      swap1\n      sstore\n        /* \"@openzeppelin/contracts/token/ERC20/ERC20.sol\":8006:8019  _balances[to] */\n      swap2\n      dup6\n      and\n      dup2\n      mstore\n      swap1\n      dup2\n      keccak256\n        /* \"@openzeppelin/contracts/token/ERC20/ERC20.sol\":8006:8029  _balances[to] += amount */\n      dup1\n      sload\n        /* \"@openzeppelin/contracts/token/ERC20/ERC20.sol\":7980:7986  amount */\n      dup5\n      swap3\n        /* \"@openzeppelin/contracts/token/ERC20/ERC20.sol\":7948:7957  _balances */\n      swap1\n        /* \"@openzeppelin/contracts/token/ERC20/ERC20.sol\":8006:8029  _balances[to] += amount */\n      tag_176\n      swap1\n        /* \"@openzeppelin/contracts/token/ERC20/ERC20.sol\":7980:7986  amount */\n      dup5\n      swap1\n        /* \"@openzeppelin/contracts/token/ERC20/ERC20.sol\":8006:8029  _balances[to] += amount */\n      tag_112\n      jump\t// in\n    tag_176:\n      swap3\n      pop\n      pop\n      dup2\n      swap1\n      sstore\n      pop\n        /* \"@openzeppelin/contracts/token/ERC20/ERC20.sol\":8060:8062  to */\n      dup3\n      sub(exp(0x02, 0xa0), 0x01)\n        /* \"@openzeppelin/contracts/token/ERC20/ERC20.sol\":8045:8071  Transfer(from, to, amount) */\n      and\n        /* \"@openzeppelin/contracts/token/ERC20/ERC20.sol\":8054:8058  from */\n      dup5\n      sub(exp(0x02, 0xa0), 0x01)\n        /* \"@openzeppelin/contracts/token/ERC20/ERC20.sol\":8045:8071  Transfer(from, to, amount) */\n      and\n      0xddf252ad1be2c89b69c2b068fc378daa952ba7f163c4a11628f55a4df523b3ef\n        /* \"@openzeppelin/contracts/token/ERC20/ERC20.sol\":8064:8070  amount */\n      dup5\n        /* \"@openzeppelin/contracts/token/ERC20/ERC20.sol\":8045:8071  Transfer(from, to, amount) */\n      mload(0x40)\n      tag_177\n      swap2\n        /* \"#utility.yul\":1365:1390   */\n      dup2\n      mstore\n        /* \"#utility.yul\":1353:1355   */\n      0x20\n        /* \"#utility.yul\":1338:1356   */\n      add\n      swap1\n        /* \"#utility.yul\":1219:1396   */\n      jump\n        /* \"@openzeppelin/contracts/token/ERC20/ERC20.sol\":8045:8071  Transfer(from, to, amount) */\n    tag_177:\n      mload(0x40)\n      dup1\n      swap2\n      sub\n      swap1\n      log3\n        /* \"@openzeppelin/contracts/token/ERC20/ERC20.sol\":8082:8119  _afterTokenTransfer(from, to, amount) */\n      tag_124\n        /* \"@openzeppelin/contracts/token/ERC20/ERC20.sol\":11786:11907  function _beforeTokenTransfer(... */\n      jump\n        /* \"#utility.yul\":14:562   */\n    tag_26:\n        /* \"#utility.yul\":126:130   */\n      0x00\n        /* \"#utility.yul\":155:157   */\n      0x20\n        /* \"#utility.yul\":184:186   */\n      dup1\n        /* \"#utility.yul\":173:182   */\n      dup4\n        /* \"#utility.yul\":166:187   */\n      mstore\n        /* \"#utility.yul\":216:222   */\n      dup4\n        /* \"#utility.yul\":210:223   */\n      mload\n        /* \"#utility.yul\":259:265   */\n      dup1\n        /* \"#utility.yul\":254:256   */\n      dup3\n        /* \"#utility.yul\":243:252   */\n      dup6\n        /* \"#utility.yul\":239:257   */\n      add\n        /* \"#utility.yul\":232:266   */\n      mstore\n        /* \"#utility.yul\":284:285   */\n      0x00\n        /* \"#utility.yul\":294:434   */\n    tag_185:\n        /* \"#utility.yul\":308:314   */\n      dup2\n        /* \"#utility.yul\":305:306   */\n      dup2\n        /* \"#utility.yul\":302:315   */\n      lt\n        /* \"#utility.yul\":294:434   */\n      iszero\n      tag_187\n      jumpi\n        /* \"#utility.yul\":403:417   */\n      dup6\n      dup2\n      add\n        /* \"#utility.yul\":399:422   */\n      dup4\n      add\n        /* \"#utility.yul\":393:423   */\n      mload\n        /* \"#utility.yul\":369:386   */\n      dup6\n      dup3\n      add\n        /* \"#utility.yul\":388:390   */\n      0x40\n        /* \"#utility.yul\":365:391   */\n      add\n        /* \"#utility.yul\":358:424   */\n      mstore\n        /* \"#utility.yul\":323:333   */\n      dup3\n      add\n        /* \"#utility.yul\":294:434   */\n      jump(tag_185)\n    tag_187:\n        /* \"#utility.yul\":298:301   */\n      pop\n        /* \"#utility.yul\":483:484   */\n      0x00\n        /* \"#utility.yul\":478:480   */\n      0x40\n        /* \"#utility.yul\":469:475   */\n      dup3\n        /* \"#utility.yul\":458:467   */\n      dup7\n        /* \"#utility.yul\":454:476   */\n      add\n        /* \"#utility.yul\":450:481   */\n      add\n        /* \"#utility.yul\":443:485   */\n      mstore\n        /* \"#utility.yul\":553:555   */\n      0x40\n        /* \"#utility.yul\":546:548   */\n      0x1f\n        /* \"#utility.yul\":542:549   */\n      not\n        /* \"#utility.yul\":537:539   */\n      0x1f\n        /* \"#utility.yul\":529:535   */\n      dup4\n        /* \"#utility.yul\":525:540   */\n      add\n        /* \"#utility.yul\":521:550   */\n      and\n        /* \"#utility.yul\":510:519   */\n      dup6\n        /* \"#utility.yul\":506:551   */\n      add\n        /* \"#utility.yul\":502:556   */\n      add\n        /* \"#utility.yul\":494:556   */\n      swap3\n      pop\n      pop\n      pop\n        /* \"#utility.yul\":14:562   */\n      swap3\n      swap2\n      pop\n      pop\n      jump\t// out\n        /* \"#utility.yul\":567:763   */\n    tag_182:\n        /* \"#utility.yul\":635:655   */\n      dup1\n      calldataload\n      sub(exp(0x02, 0xa0), 0x01)\n        /* \"#utility.yul\":684:738   */\n      dup2\n      and\n        /* \"#utility.yul\":674:739   */\n      dup2\n      eq\n        /* \"#utility.yul\":664:757   */\n      tag_189\n      jumpi\n        /* \"#utility.yul\":753:754   */\n      0x00\n        /* \"#utility.yul\":750:751   */\n      dup1\n        /* \"#utility.yul\":743:755   */\n      revert\n        /* \"#utility.yul\":664:757   */\n    tag_189:\n        /* \"#utility.yul\":567:763   */\n      swap2\n      swap1\n      pop\n      jump\t// out\n        /* \"#utility.yul\":768:1022   */\n    tag_29:\n        /* \"#utility.yul\":836:842   */\n      0x00\n        /* \"#utility.yul\":844:850   */\n      dup1\n        /* \"#utility.yul\":897:899   */\n      0x40\n        /* \"#utility.yul\":885:894   */\n      dup4\n        /* \"#utility.yul\":876:883   */\n      dup6\n        /* \"#utility.yul\":872:895   */\n      sub\n        /* \"#utility.yul\":868:900   */\n      slt\n        /* \"#utility.yul\":865:917   */\n      iszero\n      tag_191\n      jumpi\n        /* \"#utility.yul\":913:914   */\n      0x00\n        /* \"#utility.yul\":910:911   */\n      dup1\n        /* \"#utility.yul\":903:915   */\n      revert\n        /* \"#utility.yul\":865:917   */\n    tag_191:\n        /* \"#utility.yul\":936:965   */\n      tag_192\n        /* \"#utility.yul\":955:964   */\n      dup4\n        /* \"#utility.yul\":936:965   */\n      tag_182\n      jump\t// in\n    tag_192:\n        /* \"#utility.yul\":926:965   */\n      swap5\n        /* \"#utility.yul\":1012:1014   */\n      0x20\n        /* \"#utility.yul\":997:1015   */\n      swap4\n      swap1\n      swap4\n      add\n        /* \"#utility.yul\":984:1016   */\n      calldataload\n      swap4\n      pop\n      pop\n      pop\n        /* \"#utility.yul\":768:1022   */\n      jump\t// out\n        /* \"#utility.yul\":1401:1729   */\n    tag_39:\n        /* \"#utility.yul\":1478:1484   */\n      0x00\n        /* \"#utility.yul\":1486:1492   */\n      dup1\n        /* \"#utility.yul\":1494:1500   */\n      0x00\n        /* \"#utility.yul\":1547:1549   */\n      0x60\n        /* \"#utility.yul\":1535:1544   */\n      dup5\n        /* \"#utility.yul\":1526:1533   */\n      dup7\n        /* \"#utility.yul\":1522:1545   */\n      sub\n        /* \"#utility.yul\":1518:1550   */\n      slt\n        /* \"#utility.yul\":1515:1567   */\n      iszero\n      tag_196\n      jumpi\n        /* \"#utility.yul\":1563:1564   */\n      0x00\n        /* \"#utility.yul\":1560:1561   */\n      dup1\n        /* \"#utility.yul\":1553:1565   */\n      revert\n        /* \"#utility.yul\":1515:1567   */\n    tag_196:\n        /* \"#utility.yul\":1586:1615   */\n      tag_197\n        /* \"#utility.yul\":1605:1614   */\n      dup5\n        /* \"#utility.yul\":1586:1615   */\n      tag_182\n      jump\t// in\n    tag_197:\n        /* \"#utility.yul\":1576:1615   */\n      swap3\n      pop\n        /* \"#utility.yul\":1634:1672   */\n      tag_198\n        /* \"#utility.yul\":1668:1670   */\n      0x20\n        /* \"#utility.yul\":1657:1666   */\n      dup6\n        /* \"#utility.yul\":1653:1671   */\n      add\n        /* \"#utility.yul\":1634:1672   */\n      tag_182\n      jump\t// in\n    tag_198:\n        /* \"#utility.yul\":1624:1672   */\n      swap2\n      pop\n        /* \"#utility.yul\":1719:1721   */\n      0x40\n        /* \"#utility.yul\":1708:1717   */\n      dup5\n        /* \"#utility.yul\":1704:1722   */\n      add\n        /* \"#utility.yul\":1691:1723   */\n      calldataload\n        /* \"#utility.yul\":1681:1723   */\n      swap1\n      pop\n        /* \"#utility.yul\":1401:1729   */\n      swap3\n      pop\n      swap3\n      pop\n      swap3\n      jump\t// out\n        /* \"#utility.yul\":1923:2109   */\n    tag_55:\n        /* \"#utility.yul\":1982:1988   */\n      0x00\n        /* \"#utility.yul\":2035:2037   */\n      0x20\n        /* \"#utility.yul\":2023:2032   */\n      dup3\n        /* \"#utility.yul\":2014:2021   */\n      dup5\n        /* \"#utility.yul\":2010:2033   */\n      sub\n        /* \"#utility.yul\":2006:2038   */\n      slt\n        /* \"#utility.yul\":2003:2055   */\n      iszero\n      tag_201\n      jumpi\n        /* \"#utility.yul\":2051:2052   */\n      0x00\n        /* \"#utility.yul\":2048:2049   */\n      dup1\n        /* \"#utility.yul\":2041:2053   */\n      revert\n        /* \"#utility.yul\":2003:2055   */\n    tag_201:\n        /* \"#utility.yul\":2074:2103   */\n      tag_202\n        /* \"#utility.yul\":2093:2102   */\n      dup3\n        /* \"#utility.yul\":2074:2103   */\n      tag_182\n      jump\t// in\n    tag_202:\n        /* \"#utility.yul\":2064:2103   */\n      swap4\n        /* \"#utility.yul\":1923:2109   */\n      swap3\n      pop\n      pop\n      pop\n      jump\t// out\n        /* \"#utility.yul\":2345:2605   */\n    tag_80:\n        /* \"#utility.yul\":2413:2419   */\n      0x00\n        /* \"#utility.yul\":2421:2427   */\n      dup1\n        /* \"#utility.yul\":2474:2476   */\n      0x40\n        /* \"#utility.yul\":2462:2471   */\n      dup4\n        /* \"#utility.yul\":2453:2460   */\n      dup6\n        /* \"#utility.yul\":2449:2472   */\n      sub\n        /* \"#utility.yul\":2445:2477   */\n      slt\n        /* \"#utility.yul\":2442:2494   */\n      iszero\n      tag_205\n      jumpi\n        /* \"#utility.yul\":2490:2491   */\n      0x00\n        /* \"#utility.yul\":2487:2488   */\n      dup1\n        /* \"#utility.yul\":2480:2492   */\n      revert\n        /* \"#utility.yul\":2442:2494   */\n    tag_205:\n        /* \"#utility.yul\":2513:2542   */\n      tag_206\n        /* \"#utility.yul\":2532:2541   */\n      dup4\n        /* \"#utility.yul\":2513:2542   */\n      tag_182\n      jump\t// in\n    tag_206:\n        /* \"#utility.yul\":2503:2542   */\n      swap2\n      pop\n        /* \"#utility.yul\":2561:2599   */\n      tag_207\n        /* \"#utility.yul\":2595:2597   */\n      0x20\n        /* \"#utility.yul\":2584:2593   */\n      dup5\n        /* \"#utility.yul\":2580:2598   */\n      add\n        /* \"#utility.yul\":2561:2599   */\n      tag_182\n      jump\t// in\n    tag_207:\n        /* \"#utility.yul\":2551:2599   */\n      swap1\n      pop\n        /* \"#utility.yul\":2345:2605   */\n      swap3\n      pop\n      swap3\n      swap1\n      pop\n      jump\t// out\n        /* \"#utility.yul\":2610:3047   */\n    tag_89:\n        /* \"#utility.yul\":2695:2696   */\n      0x02\n        /* \"#utility.yul\":2685:2697   */\n      dup2\n      div\n        /* \"#utility.yul\":2742:2743   */\n      0x01\n        /* \"#utility.yul\":2732:2744   */\n      dup3\n      and\n      dup1\n        /* \"#utility.yul\":2753:2814   */\n      tag_209\n      jumpi\n        /* \"#utility.yul\":2807:2811   */\n      0x7f\n        /* \"#utility.yul\":2799:2805   */\n      dup3\n        /* \"#utility.yul\":2795:2812   */\n      and\n        /* \"#utility.yul\":2785:2812   */\n      swap2\n      pop\n        /* \"#utility.yul\":2753:2814   */\n    tag_209:\n        /* \"#utility.yul\":2860:2862   */\n      0x20\n        /* \"#utility.yul\":2852:2858   */\n      dup3\n        /* \"#utility.yul\":2849:2863   */\n      lt\n        /* \"#utility.yul\":2829:2847   */\n      dup2\n        /* \"#utility.yul\":2826:2864   */\n      sub\n        /* \"#utility.yul\":2823:3041   */\n      tag_210\n      jumpi\n        /* \"#utility.yul\":2897:2974   */\n      0x4e487b7100000000000000000000000000000000000000000000000000000000\n        /* \"#utility.yul\":2894:2895   */\n      0x00\n        /* \"#utility.yul\":2887:2975   */\n      mstore\n        /* \"#utility.yul\":2998:3002   */\n      0x22\n        /* \"#utility.yul\":2995:2996   */\n      0x04\n        /* \"#utility.yul\":2988:3003   */\n      mstore\n        /* \"#utility.yul\":3026:3030   */\n      0x24\n        /* \"#utility.yul\":3023:3024   */\n      0x00\n        /* \"#utility.yul\":3016:3031   */\n      revert\n        /* \"#utility.yul\":2823:3041   */\n    tag_210:\n      pop\n        /* \"#utility.yul\":2610:3047   */\n      swap2\n      swap1\n      pop\n      jump\t// out\n        /* \"#utility.yul\":3052:3331   */\n    tag_112:\n        /* \"#utility.yul\":3117:3126   */\n      dup1\n      dup3\n      add\n        /* \"#utility.yul\":3138:3148   */\n      dup1\n      dup3\n      gt\n        /* \"#utility.yul\":3135:3325   */\n      iszero\n      tag_94\n      jumpi\n        /* \"#utility.yul\":3181:3258   */\n      0x4e487b7100000000000000000000000000000000000000000000000000000000\n        /* \"#utility.yul\":3178:3179   */\n      0x00\n        /* \"#utility.yul\":3171:3259   */\n      mstore\n        /* \"#utility.yul\":3282:3286   */\n      0x11\n        /* \"#utility.yul\":3279:3280   */\n      0x04\n        /* \"#utility.yul\":3272:3287   */\n      mstore\n        /* \"#utility.yul\":3310:3314   */\n      0x24\n        /* \"#utility.yul\":3307:3308   */\n      0x00\n        /* \"#utility.yul\":3300:3315   */\n      revert\n\n    auxdata: 0xa264697066735822122010ad5d60f60b56250b232f7b48131ac30758c81f302a7560a81e51af9c1e1cf264736f6c63430008110033\n}\n",
				"bytecode": {
					"linkReferences": {},
					"object": "608060405260058054600160a060020a03191673550714e1fd747084fc5cb2b2e3a93512972aebda1790556c0c9f2c9cd04674edea400000006006556a52b7d2dcc80cd2e40000006007553480156200005757600080fd5b506040518060400160405280601d81526020017f43656e7472616c2042616e6b204469676974616c2043757272656e63790000008152506040518060400160405280600481526020017f43424443000000000000000000000000000000000000000000000000000000008152508160039081620000d5919062000327565b506004620000e4828262000327565b50505062000104336006546200011c640100000000026401000000009004565b60088054600160a060020a031916331790556200043b565b600160a060020a03821662000191576040517f08c379a000000000000000000000000000000000000000000000000000000000815260206004820152601f60248201527f45524332303a206d696e7420746f20746865207a65726f206164647265737300604482015260640160405180910390fd5b620001a8600083836401000000006200024c810204565b8060026000828254620001bc9190620003fa565b9091555050600160a060020a03821660009081526020819052604081208054839290620001eb908490620003fa565b9091555050604051818152600160a060020a038316906000907fddf252ad1be2c89b69c2b068fc378daa952ba7f163c4a11628f55a4df523b3ef9060200160405180910390a362000248600083836401000000006200024c810204565b5050565b505050565b7f4e487b7100000000000000000000000000000000000000000000000000000000600052604160045260246000fd5b6002810460018216806200029557607f821691505b602082108103620002cf577f4e487b7100000000000000000000000000000000000000000000000000000000600052602260045260246000fd5b50919050565b601f8211156200024c576000818152602081206020601f86010481016020861015620002fe5750805b6020601f860104820191505b818110156200031f578281556001016200030a565b505050505050565b815167ffffffffffffffff81111562000344576200034462000251565b6200035c8162000355845462000280565b84620002d5565b602080601f8311600181146200039857600084156200037b5750858301515b60028086026008870290910a60001904198216178655506200031f565b600085815260208120601f198616915b82811015620003c957888601518255948401946001909101908401620003a8565b5085821015620003ea57878501516008601f88160260020a60001904191681555b5050505050600202600101905550565b8082018082111562000435577f4e487b7100000000000000000000000000000000000000000000000000000000600052601160045260246000fd5b92915050565b610ba3806200044b6000396000f3fe608060405234801561001057600080fd5b506004361061010f5760003560e060020a9004806395d89b41116100a6578063a9059cbb11610075578063a9059cbb1461021e578063be0522e014610231578063dd62ed3e1461023a578063e9e8f34d1461024d578063f99a1f301461025557600080fd5b806395d89b41146101ce5780639a4a0fb2146101d65780639b6822f814610201578063a457c2d71461020b57600080fd5b8063313ce567116100e2578063313ce5671461017a578063378dc3dc14610189578063395093511461019257806370a08231146101a557600080fd5b806306fdde0314610114578063095ea7b31461013257806318160ddd1461015557806323b872dd14610167575b600080fd5b61011c61025d565b60405161012991906109bb565b60405180910390f35b610145610140366004610a25565b6102ef565b6040519015158152602001610129565b6002545b604051908152602001610129565b610145610175366004610a4f565b610309565b60405160128152602001610129565b61015960065481565b6101456101a0366004610a25565b61032d565b6101596101b3366004610a8b565b600160a060020a031660009081526020819052604090205490565b61011c61034f565b6008546101e990600160a060020a031681565b604051600160a060020a039091168152602001610129565b61020961035e565b005b610145610219366004610a25565b6103d6565b61014561022c366004610a25565b610471565b61015960075481565b610159610248366004610aad565b61047f565b6102096104aa565b610209610573565b60606003805461026c90610ae0565b80601f016020809104026020016040519081016040528092919081815260200182805461029890610ae0565b80156102e55780601f106102ba576101008083540402835291602001916102e5565b820191906000526020600020905b8154815290600101906020018083116102c857829003601f168201915b5050505050905090565b6000336102fd8185856105c6565b60019150505b92915050565b600033610317858285610724565b61032285858561079b565b506001949350505050565b6000336102fd818585610340838361047f565b61034a9190610b33565b6105c6565b60606004805461026c90610ae0565b6005546040517f077bf51a000000000000000000000000000000000000000000000000000000008152336004820152600160a060020a039091169063077bf51a90602401600060405180830381600087803b1580156103bc57600080fd5b505af11580156103d0573d6000803e3d6000fd5b50505050565b600033816103e4828661047f565b9050838110156104645760405160e560020a62461bcd02815260206004820152602560248201527f45524332303a2064656372656173656420616c6c6f77616e63652062656c6f7760448201527f207a65726f00000000000000000000000000000000000000000000000000000060648201526084015b60405180910390fd5b61032282868684036105c6565b6000336102fd81858561079b565b600160a060020a03918216600090815260016020908152604080832093909416825291909152205490565b6005546040517f8cba4686000000000000000000000000000000000000000000000000000000008152306004820152600160a060020a0390911690638cba468690602401600060405180830381600087803b15801561050857600080fd5b505af115801561051c573d6000803e3d6000fd5b50505050600560009054906101000a9004600160a060020a0316600160a060020a031663f99a1f306040518163ffffffff1660e060020a028152600401600060405180830381600087803b1580156103bc57600080fd5b600560009054906101000a9004600160a060020a0316600160a060020a031663f99a1f306040518163ffffffff1660e060020a028152600401600060405180830381600087803b1580156103bc57600080fd5b600160a060020a0383166106445760405160e560020a62461bcd028152602060048201526024808201527f45524332303a20617070726f76652066726f6d20746865207a65726f2061646460448201527f7265737300000000000000000000000000000000000000000000000000000000606482015260840161045b565b600160a060020a0382166106c35760405160e560020a62461bcd02815260206004820152602260248201527f45524332303a20617070726f766520746f20746865207a65726f20616464726560448201527f7373000000000000000000000000000000000000000000000000000000000000606482015260840161045b565b600160a060020a0383811660008181526001602090815260408083209487168084529482529182902085905590518481527f8c5be1e5ebec7d5bd14f71427d1e84f3dd0314c0f7b2291e5b200ac8c7c3b925910160405180910390a3505050565b6000610730848461047f565b905060001981146103d0578181101561078e5760405160e560020a62461bcd02815260206004820152601d60248201527f45524332303a20696e73756666696369656e7420616c6c6f77616e6365000000604482015260640161045b565b6103d084848484036105c6565b600160a060020a03831661081a5760405160e560020a62461bcd02815260206004820152602560248201527f45524332303a207472616e736665722066726f6d20746865207a65726f20616460448201527f6472657373000000000000000000000000000000000000000000000000000000606482015260840161045b565b600160a060020a0382166108995760405160e560020a62461bcd02815260206004820152602360248201527f45524332303a207472616e7366657220746f20746865207a65726f206164647260448201527f6573730000000000000000000000000000000000000000000000000000000000606482015260840161045b565b600160a060020a0383166000908152602081905260409020548181101561092b5760405160e560020a62461bcd02815260206004820152602660248201527f45524332303a207472616e7366657220616d6f756e742065786365656473206260448201527f616c616e63650000000000000000000000000000000000000000000000000000606482015260840161045b565b600160a060020a03808516600090815260208190526040808220858503905591851681529081208054849290610962908490610b33565b9250508190555082600160a060020a031684600160a060020a03167fddf252ad1be2c89b69c2b068fc378daa952ba7f163c4a11628f55a4df523b3ef846040516109ae91815260200190565b60405180910390a36103d0565b600060208083528351808285015260005b818110156109e8578581018301518582016040015282016109cc565b506000604082860101526040601f19601f8301168501019250505092915050565b8035600160a060020a0381168114610a2057600080fd5b919050565b60008060408385031215610a3857600080fd5b610a4183610a09565b946020939093013593505050565b600080600060608486031215610a6457600080fd5b610a6d84610a09565b9250610a7b60208501610a09565b9150604084013590509250925092565b600060208284031215610a9d57600080fd5b610aa682610a09565b9392505050565b60008060408385031215610ac057600080fd5b610ac983610a09565b9150610ad760208401610a09565b90509250929050565b600281046001821680610af457607f821691505b602082108103610b2d577f4e487b7100000000000000000000000000000000000000000000000000000000600052602260045260246000fd5b50919050565b80820180821115610303577f4e487b7100000000000000000000000000000000000000000000000000000000600052601160045260246000fdfea264697066735822122010ad5d60f60b56250b232f7b48131ac30758c81f302a7560a81e51af9c1e1cf264736f6c63430008110033",
					"opcodes": "PUSH1 0x80 PUSH1 0x40 MSTORE PUSH1 0x5 DUP1 SLOAD PUSH1 0x1 PUSH1 0xA0 PUSH1 0x2 EXP SUB NOT AND PUSH20 0x550714E1FD747084FC5CB2B2E3A93512972AEBDA OR SWAP1 SSTORE PUSH13 0xC9F2C9CD04674EDEA40000000 PUSH1 0x6 SSTORE PUSH11 0x52B7D2DCC80CD2E4000000 PUSH1 0x7 SSTORE CALLVALUE DUP1 ISZERO PUSH3 0x57 JUMPI PUSH1 0x0 DUP1 REVERT JUMPDEST POP PUSH1 0x40 MLOAD DUP1 PUSH1 0x40 ADD PUSH1 0x40 MSTORE DUP1 PUSH1 0x1D DUP2 MSTORE PUSH1 0x20 ADD PUSH32 0x43656E7472616C2042616E6B204469676974616C2043757272656E6379000000 DUP2 MSTORE POP PUSH1 0x40 MLOAD DUP1 PUSH1 0x40 ADD PUSH1 0x40 MSTORE DUP1 PUSH1 0x4 DUP2 MSTORE PUSH1 0x20 ADD PUSH32 0x4342444300000000000000000000000000000000000000000000000000000000 DUP2 MSTORE POP DUP2 PUSH1 0x3 SWAP1 DUP2 PUSH3 0xD5 SWAP2 SWAP1 PUSH3 0x327 JUMP JUMPDEST POP PUSH1 0x4 PUSH3 0xE4 DUP3 DUP3 PUSH3 0x327 JUMP JUMPDEST POP POP POP PUSH3 0x104 CALLER PUSH1 0x6 SLOAD PUSH3 0x11C PUSH5 0x100000000 MUL PUSH5 0x100000000 SWAP1 DIV JUMP JUMPDEST PUSH1 0x8 DUP1 SLOAD PUSH1 0x1 PUSH1 0xA0 PUSH1 0x2 EXP SUB NOT AND CALLER OR SWAP1 SSTORE PUSH3 0x43B JUMP JUMPDEST PUSH1 0x1 PUSH1 0xA0 PUSH1 0x2 EXP SUB DUP3 AND PUSH3 0x191 JUMPI PUSH1 0x40 MLOAD PUSH32 0x8C379A000000000000000000000000000000000000000000000000000000000 DUP2 MSTORE PUSH1 0x20 PUSH1 0x4 DUP3 ADD MSTORE PUSH1 0x1F PUSH1 0x24 DUP3 ADD MSTORE PUSH32 0x45524332303A206D696E7420746F20746865207A65726F206164647265737300 PUSH1 0x44 DUP3 ADD MSTORE PUSH1 0x64 ADD PUSH1 0x40 MLOAD DUP1 SWAP2 SUB SWAP1 REVERT JUMPDEST PUSH3 0x1A8 PUSH1 0x0 DUP4 DUP4 PUSH5 0x100000000 PUSH3 0x24C DUP2 MUL DIV JUMP JUMPDEST DUP1 PUSH1 0x2 PUSH1 0x0 DUP3 DUP3 SLOAD PUSH3 0x1BC SWAP2 SWAP1 PUSH3 0x3FA JUMP JUMPDEST SWAP1 SWAP2 SSTORE POP POP PUSH1 0x1 PUSH1 0xA0 PUSH1 0x2 EXP SUB DUP3 AND PUSH1 0x0 SWAP1 DUP2 MSTORE PUSH1 0x20 DUP2 SWAP1 MSTORE PUSH1 0x40 DUP2 KECCAK256 DUP1 SLOAD DUP4 SWAP3 SWAP1 PUSH3 0x1EB SWAP1 DUP5 SWAP1 PUSH3 0x3FA JUMP JUMPDEST SWAP1 SWAP2 SSTORE POP POP PUSH1 0x40 MLOAD DUP2 DUP2 MSTORE PUSH1 0x1 PUSH1 0xA0 PUSH1 0x2 EXP SUB DUP4 AND SWAP1 PUSH1 0x0 SWAP1 PUSH32 0xDDF252AD1BE2C89B69C2B068FC378DAA952BA7F163C4A11628F55A4DF523B3EF SWAP1 PUSH1 0x20 ADD PUSH1 0x40 MLOAD DUP1 SWAP2 SUB SWAP1 LOG3 PUSH3 0x248 PUSH1 0x0 DUP4 DUP4 PUSH5 0x100000000 PUSH3 0x24C DUP2 MUL DIV JUMP JUMPDEST POP POP JUMP JUMPDEST POP POP POP JUMP JUMPDEST PUSH32 0x4E487B7100000000000000000000000000000000000000000000000000000000 PUSH1 0x0 MSTORE PUSH1 0x41 PUSH1 0x4 MSTORE PUSH1 0x24 PUSH1 0x0 REVERT JUMPDEST PUSH1 0x2 DUP2 DIV PUSH1 0x1 DUP3 AND DUP1 PUSH3 0x295 JUMPI PUSH1 0x7F DUP3 AND SWAP2 POP JUMPDEST PUSH1 0x20 DUP3 LT DUP2 SUB PUSH3 0x2CF JUMPI PUSH32 0x4E487B7100000000000000000000000000000000000000000000000000000000 PUSH1 0x0 MSTORE PUSH1 0x22 PUSH1 0x4 MSTORE PUSH1 0x24 PUSH1 0x0 REVERT JUMPDEST POP SWAP2 SWAP1 POP JUMP JUMPDEST PUSH1 0x1F DUP3 GT ISZERO PUSH3 0x24C JUMPI PUSH1 0x0 DUP2 DUP2 MSTORE PUSH1 0x20 DUP2 KECCAK256 PUSH1 0x20 PUSH1 0x1F DUP7 ADD DIV DUP2 ADD PUSH1 0x20 DUP7 LT ISZERO PUSH3 0x2FE JUMPI POP DUP1 JUMPDEST PUSH1 0x20 PUSH1 0x1F DUP7 ADD DIV DUP3 ADD SWAP2 POP JUMPDEST DUP2 DUP2 LT ISZERO PUSH3 0x31F JUMPI DUP3 DUP2 SSTORE PUSH1 0x1 ADD PUSH3 0x30A JUMP JUMPDEST POP POP POP POP POP POP JUMP JUMPDEST DUP2 MLOAD PUSH8 0xFFFFFFFFFFFFFFFF DUP2 GT ISZERO PUSH3 0x344 JUMPI PUSH3 0x344 PUSH3 0x251 JUMP JUMPDEST PUSH3 0x35C DUP2 PUSH3 0x355 DUP5 SLOAD PUSH3 0x280 JUMP JUMPDEST DUP5 PUSH3 0x2D5 JUMP JUMPDEST PUSH1 0x20 DUP1 PUSH1 0x1F DUP4 GT PUSH1 0x1 DUP2 EQ PUSH3 0x398 JUMPI PUSH1 0x0 DUP5 ISZERO PUSH3 0x37B JUMPI POP DUP6 DUP4 ADD MLOAD JUMPDEST PUSH1 0x2 DUP1 DUP7 MUL PUSH1 0x8 DUP8 MUL SWAP1 SWAP2 EXP PUSH1 0x0 NOT DIV NOT DUP3 AND OR DUP7 SSTORE POP PUSH3 0x31F JUMP JUMPDEST PUSH1 0x0 DUP6 DUP2 MSTORE PUSH1 0x20 DUP2 KECCAK256 PUSH1 0x1F NOT DUP7 AND SWAP2 JUMPDEST DUP3 DUP2 LT ISZERO PUSH3 0x3C9 JUMPI DUP9 DUP7 ADD MLOAD DUP3 SSTORE SWAP5 DUP5 ADD SWAP5 PUSH1 0x1 SWAP1 SWAP2 ADD SWAP1 DUP5 ADD PUSH3 0x3A8 JUMP JUMPDEST POP DUP6 DUP3 LT ISZERO PUSH3 0x3EA JUMPI DUP8 DUP6 ADD MLOAD PUSH1 0x8 PUSH1 0x1F DUP9 AND MUL PUSH1 0x2 EXP PUSH1 0x0 NOT DIV NOT AND DUP2 SSTORE JUMPDEST POP POP POP POP POP PUSH1 0x2 MUL PUSH1 0x1 ADD SWAP1 SSTORE POP JUMP JUMPDEST DUP1 DUP3 ADD DUP1 DUP3 GT ISZERO PUSH3 0x435 JUMPI PUSH32 0x4E487B7100000000000000000000000000000000000000000000000000000000 PUSH1 0x0 MSTORE PUSH1 0x11 PUSH1 0x4 MSTORE PUSH1 0x24 PUSH1 0x0 REVERT JUMPDEST SWAP3 SWAP2 POP POP JUMP JUMPDEST PUSH2 0xBA3 DUP1 PUSH3 0x44B PUSH1 0x0 CODECOPY PUSH1 0x0 RETURN INVALID PUSH1 0x80 PUSH1 0x40 MSTORE CALLVALUE DUP1 ISZERO PUSH2 0x10 JUMPI PUSH1 0x0 DUP1 REVERT JUMPDEST POP PUSH1 0x4 CALLDATASIZE LT PUSH2 0x10F JUMPI PUSH1 0x0 CALLDATALOAD PUSH1 0xE0 PUSH1 0x2 EXP SWAP1 DIV DUP1 PUSH4 0x95D89B41 GT PUSH2 0xA6 JUMPI DUP1 PUSH4 0xA9059CBB GT PUSH2 0x75 JUMPI DUP1 PUSH4 0xA9059CBB EQ PUSH2 0x21E JUMPI DUP1 PUSH4 0xBE0522E0 EQ PUSH2 0x231 JUMPI DUP1 PUSH4 0xDD62ED3E EQ PUSH2 0x23A JUMPI DUP1 PUSH4 0xE9E8F34D EQ PUSH2 0x24D JUMPI DUP1 PUSH4 0xF99A1F30 EQ PUSH2 0x255 JUMPI PUSH1 0x0 DUP1 REVERT JUMPDEST DUP1 PUSH4 0x95D89B41 EQ PUSH2 0x1CE JUMPI DUP1 PUSH4 0x9A4A0FB2 EQ PUSH2 0x1D6 JUMPI DUP1 PUSH4 0x9B6822F8 EQ PUSH2 0x201 JUMPI DUP1 PUSH4 0xA457C2D7 EQ PUSH2 0x20B JUMPI PUSH1 0x0 DUP1 REVERT JUMPDEST DUP1 PUSH4 0x313CE567 GT PUSH2 0xE2 JUMPI DUP1 PUSH4 0x313CE567 EQ PUSH2 0x17A JUMPI DUP1 PUSH4 0x378DC3DC EQ PUSH2 0x189 JUMPI DUP1 PUSH4 0x39509351 EQ PUSH2 0x192 JUMPI DUP1 PUSH4 0x70A08231 EQ PUSH2 0x1A5 JUMPI PUSH1 0x0 DUP1 REVERT JUMPDEST DUP1 PUSH4 0x6FDDE03 EQ PUSH2 0x114 JUMPI DUP1 PUSH4 0x95EA7B3 EQ PUSH2 0x132 JUMPI DUP1 PUSH4 0x18160DDD EQ PUSH2 0x155 JUMPI DUP1 PUSH4 0x23B872DD EQ PUSH2 0x167 JUMPI JUMPDEST PUSH1 0x0 DUP1 REVERT JUMPDEST PUSH2 0x11C PUSH2 0x25D JUMP JUMPDEST PUSH1 0x40 MLOAD PUSH2 0x129 SWAP2 SWAP1 PUSH2 0x9BB JUMP JUMPDEST PUSH1 0x40 MLOAD DUP1 SWAP2 SUB SWAP1 RETURN JUMPDEST PUSH2 0x145 PUSH2 0x140 CALLDATASIZE PUSH1 0x4 PUSH2 0xA25 JUMP JUMPDEST PUSH2 0x2EF JUMP JUMPDEST PUSH1 0x40 MLOAD SWAP1 ISZERO ISZERO DUP2 MSTORE PUSH1 0x20 ADD PUSH2 0x129 JUMP JUMPDEST PUSH1 0x2 SLOAD JUMPDEST PUSH1 0x40 MLOAD SWAP1 DUP2 MSTORE PUSH1 0x20 ADD PUSH2 0x129 JUMP JUMPDEST PUSH2 0x145 PUSH2 0x175 CALLDATASIZE PUSH1 0x4 PUSH2 0xA4F JUMP JUMPDEST PUSH2 0x309 JUMP JUMPDEST PUSH1 0x40 MLOAD PUSH1 0x12 DUP2 MSTORE PUSH1 0x20 ADD PUSH2 0x129 JUMP JUMPDEST PUSH2 0x159 PUSH1 0x6 SLOAD DUP2 JUMP JUMPDEST PUSH2 0x145 PUSH2 0x1A0 CALLDATASIZE PUSH1 0x4 PUSH2 0xA25 JUMP JUMPDEST PUSH2 0x32D JUMP JUMPDEST PUSH2 0x159 PUSH2 0x1B3 CALLDATASIZE PUSH1 0x4 PUSH2 0xA8B JUMP JUMPDEST PUSH1 0x1 PUSH1 0xA0 PUSH1 0x2 EXP SUB AND PUSH1 0x0 SWAP1 DUP2 MSTORE PUSH1 0x20 DUP2 SWAP1 MSTORE PUSH1 0x40 SWAP1 KECCAK256 SLOAD SWAP1 JUMP JUMPDEST PUSH2 0x11C PUSH2 0x34F JUMP JUMPDEST PUSH1 0x8 SLOAD PUSH2 0x1E9 SWAP1 PUSH1 0x1 PUSH1 0xA0 PUSH1 0x2 EXP SUB AND DUP2 JUMP JUMPDEST PUSH1 0x40 MLOAD PUSH1 0x1 PUSH1 0xA0 PUSH1 0x2 EXP SUB SWAP1 SWAP2 AND DUP2 MSTORE PUSH1 0x20 ADD PUSH2 0x129 JUMP JUMPDEST PUSH2 0x209 PUSH2 0x35E JUMP JUMPDEST STOP JUMPDEST PUSH2 0x145 PUSH2 0x219 CALLDATASIZE PUSH1 0x4 PUSH2 0xA25 JUMP JUMPDEST PUSH2 0x3D6 JUMP JUMPDEST PUSH2 0x145 PUSH2 0x22C CALLDATASIZE PUSH1 0x4 PUSH2 0xA25 JUMP JUMPDEST PUSH2 0x471 JUMP JUMPDEST PUSH2 0x159 PUSH1 0x7 SLOAD DUP2 JUMP JUMPDEST PUSH2 0x159 PUSH2 0x248 CALLDATASIZE PUSH1 0x4 PUSH2 0xAAD JUMP JUMPDEST PUSH2 0x47F JUMP JUMPDEST PUSH2 0x209 PUSH2 0x4AA JUMP JUMPDEST PUSH2 0x209 PUSH2 0x573 JUMP JUMPDEST PUSH1 0x60 PUSH1 0x3 DUP1 SLOAD PUSH2 0x26C SWAP1 PUSH2 0xAE0 JUMP JUMPDEST DUP1 PUSH1 0x1F ADD PUSH1 0x20 DUP1 SWAP2 DIV MUL PUSH1 0x20 ADD PUSH1 0x40 MLOAD SWAP1 DUP2 ADD PUSH1 0x40 MSTORE DUP1 SWAP3 SWAP2 SWAP1 DUP2 DUP2 MSTORE PUSH1 0x20 ADD DUP3 DUP1 SLOAD PUSH2 0x298 SWAP1 PUSH2 0xAE0 JUMP JUMPDEST DUP1 ISZERO PUSH2 0x2E5 JUMPI DUP1 PUSH1 0x1F LT PUSH2 0x2BA JUMPI PUSH2 0x100 DUP1 DUP4 SLOAD DIV MUL DUP4 MSTORE SWAP2 PUSH1 0x20 ADD SWAP2 PUSH2 0x2E5 JUMP JUMPDEST DUP3 ADD SWAP2 SWAP1 PUSH1 0x0 MSTORE PUSH1 0x20 PUSH1 0x0 KECCAK256 SWAP1 JUMPDEST DUP2 SLOAD DUP2 MSTORE SWAP1 PUSH1 0x1 ADD SWAP1 PUSH1 0x20 ADD DUP1 DUP4 GT PUSH2 0x2C8 JUMPI DUP3 SWAP1 SUB PUSH1 0x1F AND DUP3 ADD SWAP2 JUMPDEST POP POP POP POP POP SWAP1 POP SWAP1 JUMP JUMPDEST PUSH1 0x0 CALLER PUSH2 0x2FD DUP2 DUP6 DUP6 PUSH2 0x5C6 JUMP JUMPDEST PUSH1 0x1 SWAP2 POP POP JUMPDEST SWAP3 SWAP2 POP POP JUMP JUMPDEST PUSH1 0x0 CALLER PUSH2 0x317 DUP6 DUP3 DUP6 PUSH2 0x724 JUMP JUMPDEST PUSH2 0x322 DUP6 DUP6 DUP6 PUSH2 0x79B JUMP JUMPDEST POP PUSH1 0x1 SWAP5 SWAP4 POP POP POP POP JUMP JUMPDEST PUSH1 0x0 CALLER PUSH2 0x2FD DUP2 DUP6 DUP6 PUSH2 0x340 DUP4 DUP4 PUSH2 0x47F JUMP JUMPDEST PUSH2 0x34A SWAP2 SWAP1 PUSH2 0xB33 JUMP JUMPDEST PUSH2 0x5C6 JUMP JUMPDEST PUSH1 0x60 PUSH1 0x4 DUP1 SLOAD PUSH2 0x26C SWAP1 PUSH2 0xAE0 JUMP JUMPDEST PUSH1 0x5 SLOAD PUSH1 0x40 MLOAD PUSH32 0x77BF51A00000000000000000000000000000000000000000000000000000000 DUP2 MSTORE CALLER PUSH1 0x4 DUP3 ADD MSTORE PUSH1 0x1 PUSH1 0xA0 PUSH1 0x2 EXP SUB SWAP1 SWAP2 AND SWAP1 PUSH4 0x77BF51A SWAP1 PUSH1 0x24 ADD PUSH1 0x0 PUSH1 0x40 MLOAD DUP1 DUP4 SUB DUP2 PUSH1 0x0 DUP8 DUP1 EXTCODESIZE ISZERO DUP1 ISZERO PUSH2 0x3BC JUMPI PUSH1 0x0 DUP1 REVERT JUMPDEST POP GAS CALL ISZERO DUP1 ISZERO PUSH2 0x3D0 JUMPI RETURNDATASIZE PUSH1 0x0 DUP1 RETURNDATACOPY RETURNDATASIZE PUSH1 0x0 REVERT JUMPDEST POP POP POP POP JUMP JUMPDEST PUSH1 0x0 CALLER DUP2 PUSH2 0x3E4 DUP3 DUP7 PUSH2 0x47F JUMP JUMPDEST SWAP1 POP DUP4 DUP2 LT ISZERO PUSH2 0x464 JUMPI PUSH1 0x40 MLOAD PUSH1 0xE5 PUSH1 0x2 EXP PUSH3 0x461BCD MUL DUP2 MSTORE PUSH1 0x20 PUSH1 0x4 DUP3 ADD MSTORE PUSH1 0x25 PUSH1 0x24 DUP3 ADD MSTORE PUSH32 0x45524332303A2064656372656173656420616C6C6F77616E63652062656C6F77 PUSH1 0x44 DUP3 ADD MSTORE PUSH32 0x207A65726F000000000000000000000000000000000000000000000000000000 PUSH1 0x64 DUP3 ADD MSTORE PUSH1 0x84 ADD JUMPDEST PUSH1 0x40 MLOAD DUP1 SWAP2 SUB SWAP1 REVERT JUMPDEST PUSH2 0x322 DUP3 DUP7 DUP7 DUP5 SUB PUSH2 0x5C6 JUMP JUMPDEST PUSH1 0x0 CALLER PUSH2 0x2FD DUP2 DUP6 DUP6 PUSH2 0x79B JUMP JUMPDEST PUSH1 0x1 PUSH1 0xA0 PUSH1 0x2 EXP SUB SWAP2 DUP3 AND PUSH1 0x0 SWAP1 DUP2 MSTORE PUSH1 0x1 PUSH1 0x20 SWAP1 DUP2 MSTORE PUSH1 0x40 DUP1 DUP4 KECCAK256 SWAP4 SWAP1 SWAP5 AND DUP3 MSTORE SWAP2 SWAP1 SWAP2 MSTORE KECCAK256 SLOAD SWAP1 JUMP JUMPDEST PUSH1 0x5 SLOAD PUSH1 0x40 MLOAD PUSH32 0x8CBA468600000000000000000000000000000000000000000000000000000000 DUP2 MSTORE ADDRESS PUSH1 0x4 DUP3 ADD MSTORE PUSH1 0x1 PUSH1 0xA0 PUSH1 0x2 EXP SUB SWAP1 SWAP2 AND SWAP1 PUSH4 0x8CBA4686 SWAP1 PUSH1 0x24 ADD PUSH1 0x0 PUSH1 0x40 MLOAD DUP1 DUP4 SUB DUP2 PUSH1 0x0 DUP8 DUP1 EXTCODESIZE ISZERO DUP1 ISZERO PUSH2 0x508 JUMPI PUSH1 0x0 DUP1 REVERT JUMPDEST POP GAS CALL ISZERO DUP1 ISZERO PUSH2 0x51C JUMPI RETURNDATASIZE PUSH1 0x0 DUP1 RETURNDATACOPY RETURNDATASIZE PUSH1 0x0 REVERT JUMPDEST POP POP POP POP PUSH1 0x5 PUSH1 0x0 SWAP1 SLOAD SWAP1 PUSH2 0x100 EXP SWAP1 DIV PUSH1 0x1 PUSH1 0xA0 PUSH1 0x2 EXP SUB AND PUSH1 0x1 PUSH1 0xA0 PUSH1 0x2 EXP SUB AND PUSH4 0xF99A1F30 PUSH1 0x40 MLOAD DUP2 PUSH4 0xFFFFFFFF AND PUSH1 0xE0 PUSH1 0x2 EXP MUL DUP2 MSTORE PUSH1 0x4 ADD PUSH1 0x0 PUSH1 0x40 MLOAD DUP1 DUP4 SUB DUP2 PUSH1 0x0 DUP8 DUP1 EXTCODESIZE ISZERO DUP1 ISZERO PUSH2 0x3BC JUMPI PUSH1 0x0 DUP1 REVERT JUMPDEST PUSH1 0x5 PUSH1 0x0 SWAP1 SLOAD SWAP1 PUSH2 0x100 EXP SWAP1 DIV PUSH1 0x1 PUSH1 0xA0 PUSH1 0x2 EXP SUB AND PUSH1 0x1 PUSH1 0xA0 PUSH1 0x2 EXP SUB AND PUSH4 0xF99A1F30 PUSH1 0x40 MLOAD DUP2 PUSH4 0xFFFFFFFF AND PUSH1 0xE0 PUSH1 0x2 EXP MUL DUP2 MSTORE PUSH1 0x4 ADD PUSH1 0x0 PUSH1 0x40 MLOAD DUP1 DUP4 SUB DUP2 PUSH1 0x0 DUP8 DUP1 EXTCODESIZE ISZERO DUP1 ISZERO PUSH2 0x3BC JUMPI PUSH1 0x0 DUP1 REVERT JUMPDEST PUSH1 0x1 PUSH1 0xA0 PUSH1 0x2 EXP SUB DUP4 AND PUSH2 0x644 JUMPI PUSH1 0x40 MLOAD PUSH1 0xE5 PUSH1 0x2 EXP PUSH3 0x461BCD MUL DUP2 MSTORE PUSH1 0x20 PUSH1 0x4 DUP3 ADD MSTORE PUSH1 0x24 DUP1 DUP3 ADD MSTORE PUSH32 0x45524332303A20617070726F76652066726F6D20746865207A65726F20616464 PUSH1 0x44 DUP3 ADD MSTORE PUSH32 0x7265737300000000000000000000000000000000000000000000000000000000 PUSH1 0x64 DUP3 ADD MSTORE PUSH1 0x84 ADD PUSH2 0x45B JUMP JUMPDEST PUSH1 0x1 PUSH1 0xA0 PUSH1 0x2 EXP SUB DUP3 AND PUSH2 0x6C3 JUMPI PUSH1 0x40 MLOAD PUSH1 0xE5 PUSH1 0x2 EXP PUSH3 0x461BCD MUL DUP2 MSTORE PUSH1 0x20 PUSH1 0x4 DUP3 ADD MSTORE PUSH1 0x22 PUSH1 0x24 DUP3 ADD MSTORE PUSH32 0x45524332303A20617070726F766520746F20746865207A65726F206164647265 PUSH1 0x44 DUP3 ADD MSTORE PUSH32 0x7373000000000000000000000000000000000000000000000000000000000000 PUSH1 0x64 DUP3 ADD MSTORE PUSH1 0x84 ADD PUSH2 0x45B JUMP JUMPDEST PUSH1 0x1 PUSH1 0xA0 PUSH1 0x2 EXP SUB DUP4 DUP2 AND PUSH1 0x0 DUP2 DUP2 MSTORE PUSH1 0x1 PUSH1 0x20 SWAP1 DUP2 MSTORE PUSH1 0x40 DUP1 DUP4 KECCAK256 SWAP5 DUP8 AND DUP1 DUP5 MSTORE SWAP5 DUP3 MSTORE SWAP2 DUP3 SWAP1 KECCAK256 DUP6 SWAP1 SSTORE SWAP1 MLOAD DUP5 DUP2 MSTORE PUSH32 0x8C5BE1E5EBEC7D5BD14F71427D1E84F3DD0314C0F7B2291E5B200AC8C7C3B925 SWAP2 ADD PUSH1 0x40 MLOAD DUP1 SWAP2 SUB SWAP1 LOG3 POP POP POP JUMP JUMPDEST PUSH1 0x0 PUSH2 0x730 DUP5 DUP5 PUSH2 0x47F JUMP JUMPDEST SWAP1 POP PUSH1 0x0 NOT DUP2 EQ PUSH2 0x3D0 JUMPI DUP2 DUP2 LT ISZERO PUSH2 0x78E JUMPI PUSH1 0x40 MLOAD PUSH1 0xE5 PUSH1 0x2 EXP PUSH3 0x461BCD MUL DUP2 MSTORE PUSH1 0x20 PUSH1 0x4 DUP3 ADD MSTORE PUSH1 0x1D PUSH1 0x24 DUP3 ADD MSTORE PUSH32 0x45524332303A20696E73756666696369656E7420616C6C6F77616E6365000000 PUSH1 0x44 DUP3 ADD MSTORE PUSH1 0x64 ADD PUSH2 0x45B JUMP JUMPDEST PUSH2 0x3D0 DUP5 DUP5 DUP5 DUP5 SUB PUSH2 0x5C6 JUMP JUMPDEST PUSH1 0x1 PUSH1 0xA0 PUSH1 0x2 EXP SUB DUP4 AND PUSH2 0x81A JUMPI PUSH1 0x40 MLOAD PUSH1 0xE5 PUSH1 0x2 EXP PUSH3 0x461BCD MUL DUP2 MSTORE PUSH1 0x20 PUSH1 0x4 DUP3 ADD MSTORE PUSH1 0x25 PUSH1 0x24 DUP3 ADD MSTORE PUSH32 0x45524332303A207472616E736665722066726F6D20746865207A65726F206164 PUSH1 0x44 DUP3 ADD MSTORE PUSH32 0x6472657373000000000000000000000000000000000000000000000000000000 PUSH1 0x64 DUP3 ADD MSTORE PUSH1 0x84 ADD PUSH2 0x45B JUMP JUMPDEST PUSH1 0x1 PUSH1 0xA0 PUSH1 0x2 EXP SUB DUP3 AND PUSH2 0x899 JUMPI PUSH1 0x40 MLOAD PUSH1 0xE5 PUSH1 0x2 EXP PUSH3 0x461BCD MUL DUP2 MSTORE PUSH1 0x20 PUSH1 0x4 DUP3 ADD MSTORE PUSH1 0x23 PUSH1 0x24 DUP3 ADD MSTORE PUSH32 0x45524332303A207472616E7366657220746F20746865207A65726F2061646472 PUSH1 0x44 DUP3 ADD MSTORE PUSH32 0x6573730000000000000000000000000000000000000000000000000000000000 PUSH1 0x64 DUP3 ADD MSTORE PUSH1 0x84 ADD PUSH2 0x45B JUMP JUMPDEST PUSH1 0x1 PUSH1 0xA0 PUSH1 0x2 EXP SUB DUP4 AND PUSH1 0x0 SWAP1 DUP2 MSTORE PUSH1 0x20 DUP2 SWAP1 MSTORE PUSH1 0x40 SWAP1 KECCAK256 SLOAD DUP2 DUP2 LT ISZERO PUSH2 0x92B JUMPI PUSH1 0x40 MLOAD PUSH1 0xE5 PUSH1 0x2 EXP PUSH3 0x461BCD MUL DUP2 MSTORE PUSH1 0x20 PUSH1 0x4 DUP3 ADD MSTORE PUSH1 0x26 PUSH1 0x24 DUP3 ADD MSTORE PUSH32 0x45524332303A207472616E7366657220616D6F756E7420657863656564732062 PUSH1 0x44 DUP3 ADD MSTORE PUSH32 0x616C616E63650000000000000000000000000000000000000000000000000000 PUSH1 0x64 DUP3 ADD MSTORE PUSH1 0x84 ADD PUSH2 0x45B JUMP JUMPDEST PUSH1 0x1 PUSH1 0xA0 PUSH1 0x2 EXP SUB DUP1 DUP6 AND PUSH1 0x0 SWAP1 DUP2 MSTORE PUSH1 0x20 DUP2 SWAP1 MSTORE PUSH1 0x40 DUP1 DUP3 KECCAK256 DUP6 DUP6 SUB SWAP1 SSTORE SWAP2 DUP6 AND DUP2 MSTORE SWAP1 DUP2 KECCAK256 DUP1 SLOAD DUP5 SWAP3 SWAP1 PUSH2 0x962 SWAP1 DUP5 SWAP1 PUSH2 0xB33 JUMP JUMPDEST SWAP3 POP POP DUP2 SWAP1 SSTORE POP DUP3 PUSH1 0x1 PUSH1 0xA0 PUSH1 0x2 EXP SUB AND DUP5 PUSH1 0x1 PUSH1 0xA0 PUSH1 0x2 EXP SUB AND PUSH32 0xDDF252AD1BE2C89B69C2B068FC378DAA952BA7F163C4A11628F55A4DF523B3EF DUP5 PUSH1 0x40 MLOAD PUSH2 0x9AE SWAP2 DUP2 MSTORE PUSH1 0x20 ADD SWAP1 JUMP JUMPDEST PUSH1 0x40 MLOAD DUP1 SWAP2 SUB SWAP1 LOG3 PUSH2 0x3D0 JUMP JUMPDEST PUSH1 0x0 PUSH1 0x20 DUP1 DUP4 MSTORE DUP4 MLOAD DUP1 DUP3 DUP6 ADD MSTORE PUSH1 0x0 JUMPDEST DUP2 DUP2 LT ISZERO PUSH2 0x9E8 JUMPI DUP6 DUP2 ADD DUP4 ADD MLOAD DUP6 DUP3 ADD PUSH1 0x40 ADD MSTORE DUP3 ADD PUSH2 0x9CC JUMP JUMPDEST POP PUSH1 0x0 PUSH1 0x40 DUP3 DUP7 ADD ADD MSTORE PUSH1 0x40 PUSH1 0x1F NOT PUSH1 0x1F DUP4 ADD AND DUP6 ADD ADD SWAP3 POP POP POP SWAP3 SWAP2 POP POP JUMP JUMPDEST DUP1 CALLDATALOAD PUSH1 0x1 PUSH1 0xA0 PUSH1 0x2 EXP SUB DUP2 AND DUP2 EQ PUSH2 0xA20 JUMPI PUSH1 0x0 DUP1 REVERT JUMPDEST SWAP2 SWAP1 POP JUMP JUMPDEST PUSH1 0x0 DUP1 PUSH1 0x40 DUP4 DUP6 SUB SLT ISZERO PUSH2 0xA38 JUMPI PUSH1 0x0 DUP1 REVERT JUMPDEST PUSH2 0xA41 DUP4 PUSH2 0xA09 JUMP JUMPDEST SWAP5 PUSH1 0x20 SWAP4 SWAP1 SWAP4 ADD CALLDATALOAD SWAP4 POP POP POP JUMP JUMPDEST PUSH1 0x0 DUP1 PUSH1 0x0 PUSH1 0x60 DUP5 DUP7 SUB SLT ISZERO PUSH2 0xA64 JUMPI PUSH1 0x0 DUP1 REVERT JUMPDEST PUSH2 0xA6D DUP5 PUSH2 0xA09 JUMP JUMPDEST SWAP3 POP PUSH2 0xA7B PUSH1 0x20 DUP6 ADD PUSH2 0xA09 JUMP JUMPDEST SWAP2 POP PUSH1 0x40 DUP5 ADD CALLDATALOAD SWAP1 POP SWAP3 POP SWAP3 POP SWAP3 JUMP JUMPDEST PUSH1 0x0 PUSH1 0x20 DUP3 DUP5 SUB SLT ISZERO PUSH2 0xA9D JUMPI PUSH1 0x0 DUP1 REVERT JUMPDEST PUSH2 0xAA6 DUP3 PUSH2 0xA09 JUMP JUMPDEST SWAP4 SWAP3 POP POP POP JUMP JUMPDEST PUSH1 0x0 DUP1 PUSH1 0x40 DUP4 DUP6 SUB SLT ISZERO PUSH2 0xAC0 JUMPI PUSH1 0x0 DUP1 REVERT JUMPDEST PUSH2 0xAC9 DUP4 PUSH2 0xA09 JUMP JUMPDEST SWAP2 POP PUSH2 0xAD7 PUSH1 0x20 DUP5 ADD PUSH2 0xA09 JUMP JUMPDEST SWAP1 POP SWAP3 POP SWAP3 SWAP1 POP JUMP JUMPDEST PUSH1 0x2 DUP2 DIV PUSH1 0x1 DUP3 AND DUP1 PUSH2 0xAF4 JUMPI PUSH1 0x7F DUP3 AND SWAP2 POP JUMPDEST PUSH1 0x20 DUP3 LT DUP2 SUB PUSH2 0xB2D JUMPI PUSH32 0x4E487B7100000000000000000000000000000000000000000000000000000000 PUSH1 0x0 MSTORE PUSH1 0x22 PUSH1 0x4 MSTORE PUSH1 0x24 PUSH1 0x0 REVERT JUMPDEST POP SWAP2 SWAP1 POP JUMP JUMPDEST DUP1 DUP3 ADD DUP1 DUP3 GT ISZERO PUSH2 0x303 JUMPI PUSH32 0x4E487B7100000000000000000000000000000000000000000000000000000000 PUSH1 0x0 MSTORE PUSH1 0x11 PUSH1 0x4 MSTORE PUSH1 0x24 PUSH1 0x0 REVERT INVALID LOG2 PUSH5 0x6970667358 0x22 SLT KECCAK256 LT 0xAD 0x5D PUSH1 0xF6 SIGNEXTEND JUMP 0x25 SIGNEXTEND 0x23 0x2F PUSH28 0x48131AC30758C81F302A7560A81E51AF9C1E1CF264736F6C63430008 GT STOP CALLER "
				},
				"gasEstimates": {
					"creation": {
						"codeDepositCost": "595800",
						"executionCost": "infinite",
						"totalCost": "infinite"
					},
					"external": {
						"allowance(address,address)": "infinite",
						"approve(address,uint256)": "22847",
						"balanceOf(address)": "911",
						"buyFundsPublic()": "infinite",
						"centralBank()": "664",
						"decimals()": "268",
						"decreaseAllowance(address,uint256)": "23392",
						"increaseAllowance(address,uint256)": "infinite",
						"inflation()": "507",
						"initialSupply()": "508",
						"name()": "infinite",
						"symbol()": "infinite",
						"totalSupply()": "517",
						"transfer(address,uint256)": "infinite",
						"transferFrom(address,address,uint256)": "infinite",
						"updateCentralBank()": "infinite",
						"upgradeUSDC()": "infinite"
					}
				},
				"methodIdentifiers": {
					"allowance(address,address)": "dd62ed3e",
					"approve(address,uint256)": "095ea7b3",
					"balanceOf(address)": "70a08231",
					"buyFundsPublic()": "f99a1f30",
					"centralBank()": "9a4a0fb2",
					"decimals()": "313ce567",
					"decreaseAllowance(address,uint256)": "a457c2d7",
					"increaseAllowance(address,uint256)": "39509351",
					"inflation()": "be0522e0",
					"initialSupply()": "378dc3dc",
					"name()": "06fdde03",
					"symbol()": "95d89b41",
					"totalSupply()": "18160ddd",
					"transfer(address,uint256)": "a9059cbb",
					"transferFrom(address,address,uint256)": "23b872dd",
					"updateCentralBank()": "9b6822f8",
					"upgradeUSDC()": "e9e8f34d"
				}
			},
			"storageLayout": {
				"storage": [
					{
						"astId": 15,
						"contract": "contracts/PriceUpdater.sol:HackCBDC",
						"label": "_balances",
						"offset": 0,
						"slot": "0",
						"type": "t_mapping(t_address,t_uint256)"
					},
					{
						"astId": 21,
						"contract": "contracts/PriceUpdater.sol:HackCBDC",
						"label": "_allowances",
						"offset": 0,
						"slot": "1",
						"type": "t_mapping(t_address,t_mapping(t_address,t_uint256))"
					},
					{
						"astId": 23,
						"contract": "contracts/PriceUpdater.sol:HackCBDC",
						"label": "_totalSupply",
						"offset": 0,
						"slot": "2",
						"type": "t_uint256"
					},
					{
						"astId": 25,
						"contract": "contracts/PriceUpdater.sol:HackCBDC",
						"label": "_name",
						"offset": 0,
						"slot": "3",
						"type": "t_string_storage"
					},
					{
						"astId": 27,
						"contract": "contracts/PriceUpdater.sol:HackCBDC",
						"label": "_symbol",
						"offset": 0,
						"slot": "4",
						"type": "t_string_storage"
					},
					{
						"astId": 743,
						"contract": "contracts/PriceUpdater.sol:HackCBDC",
						"label": "cbdc",
						"offset": 0,
						"slot": "5",
						"type": "t_address"
					},
					{
						"astId": 746,
						"contract": "contracts/PriceUpdater.sol:HackCBDC",
						"label": "initialSupply",
						"offset": 0,
						"slot": "6",
						"type": "t_uint256"
					},
					{
						"astId": 749,
						"contract": "contracts/PriceUpdater.sol:HackCBDC",
						"label": "inflation",
						"offset": 0,
						"slot": "7",
						"type": "t_uint256"
					},
					{
						"astId": 751,
						"contract": "contracts/PriceUpdater.sol:HackCBDC",
						"label": "centralBank",
						"offset": 0,
						"slot": "8",
						"type": "t_address"
					}
				],
				"types": {
					"t_address": {
						"encoding": "inplace",
						"label": "address",
						"numberOfBytes": "20"
					},
					"t_mapping(t_address,t_mapping(t_address,t_uint256))": {
						"encoding": "mapping",
						"key": "t_address",
						"label": "mapping(address => mapping(address => uint256))",
						"numberOfBytes": "32",
						"value": "t_mapping(t_address,t_uint256)"
					},
					"t_mapping(t_address,t_uint256)": {
						"encoding": "mapping",
						"key": "t_address",
						"label": "mapping(address => uint256)",
						"numberOfBytes": "32",
						"value": "t_uint256"
					},
					"t_string_storage": {
						"encoding": "bytes",
						"label": "string",
						"numberOfBytes": "32"
					},
					"t_uint256": {
						"encoding": "inplace",
						"label": "uint256",
						"numberOfBytes": "32"
					}
				}
			},
			"userdoc": {
				"kind": "user",
				"methods": {},
				"version": 1
			}
		}
	}
}