{
	"contracts/Test.sol": {
		"FactoryWallet": {
			"abi": [
				{
					"inputs": [],
					"name": "createWallet",
					"outputs": [],
					"stateMutability": "nonpayable",
					"type": "function"
				},
				{
					"inputs": [],
					"name": "getBalance",
					"outputs": [
						{
							"internalType": "uint256",
							"name": "",
							"type": "uint256"
						}
					],
					"stateMutability": "view",
					"type": "function"
				},
				{
					"inputs": [],
					"name": "getTotalBalance",
					"outputs": [
						{
							"internalType": "uint256",
							"name": "",
							"type": "uint256"
						}
					],
					"stateMutability": "view",
					"type": "function"
				},
				{
					"inputs": [
						{
							"internalType": "address payable",
							"name": "_to",
							"type": "address"
						}
					],
					"name": "withdrawAllMoney",
					"outputs": [],
					"stateMutability": "nonpayable",
					"type": "function"
				},
				{
					"inputs": [
						{
							"internalType": "address payable",
							"name": "_to",
							"type": "address"
						},
						{
							"internalType": "uint256",
							"name": "_amount",
							"type": "uint256"
						}
					],
					"name": "withdrawMoney",
					"outputs": [],
					"stateMutability": "nonpayable",
					"type": "function"
				},
				{
					"stateMutability": "payable",
					"type": "receive"
				}
			],
			"devdoc": {
				"kind": "dev",
				"methods": {},
				"version": 1
			},
			"evm": {
				"assembly": "    /* \"contracts/Test.sol\":1568:1726  contract FactoryWallet is Wallet {... */\n  mstore(0x40, 0x80)\n  callvalue\n  dup1\n  iszero\n  tag_1\n  jumpi\n  0x00\n  dup1\n  revert\ntag_1:\n  pop\n    /* \"contracts/Test.sol\":126:131  owner */\n  0x00\n    /* \"contracts/Test.sol\":126:144  owner = msg.sender */\n  dup1\n  sload\n  not(sub(exp(0x02, 0xa0), 0x01))\n  and\n    /* \"contracts/Test.sol\":134:144  msg.sender */\n  caller\n    /* \"contracts/Test.sol\":126:144  owner = msg.sender */\n  or\n  swap1\n  sstore\n    /* \"contracts/Test.sol\":1568:1726  contract FactoryWallet is Wallet {... */\n  dataSize(sub_0)\n  dup1\n  dataOffset(sub_0)\n  0x00\n  codecopy\n  0x00\n  return\nstop\n\nsub_0: assembly {\n        /* \"contracts/Test.sol\":1568:1726  contract FactoryWallet is Wallet {... */\n      mstore(0x40, 0x80)\n      jumpi(tag_1, lt(calldatasize, 0x04))\n      div(calldataload(0x00), 0x0100000000000000000000000000000000000000000000000000000000)\n      0x0adec93c\n      dup2\n      eq\n      tag_3\n      jumpi\n      dup1\n      0x11ebbf24\n      eq\n      tag_4\n      jumpi\n      dup1\n      0x12065fe0\n      eq\n      tag_5\n      jumpi\n      dup1\n      0x12b58349\n      eq\n      tag_6\n      jumpi\n      dup1\n      0xf274c897\n      eq\n      tag_7\n      jumpi\n      0x00\n      dup1\n      revert\n    tag_1:\n      jumpi(tag_2, calldatasize)\n        /* \"contracts/Test.sol\":595:630  Payment(msg.value, block.timestamp) */\n      0x40\n      dup1\n      mload\n      dup1\n      dup3\n      add\n      dup3\n      mstore\n        /* \"contracts/Test.sol\":603:612  msg.value */\n      callvalue\n        /* \"contracts/Test.sol\":595:630  Payment(msg.value, block.timestamp) */\n      dup1\n      dup3\n      mstore\n        /* \"contracts/Test.sol\":614:629  block.timestamp */\n      timestamp\n        /* \"contracts/Test.sol\":595:630  Payment(msg.value, block.timestamp) */\n      0x20\n      dup1\n      dup5\n      add\n      swap2\n      dup3\n      mstore\n        /* \"contracts/Test.sol\":648:658  msg.sender */\n      caller\n        /* \"contracts/Test.sol\":570:592  Payment memory payment */\n      0x00\n        /* \"contracts/Test.sol\":640:659  wallets[msg.sender] */\n      dup2\n      dup2\n      mstore\n        /* \"contracts/Test.sol\":640:647  wallets */\n      0x01\n        /* \"contracts/Test.sol\":640:659  wallets[msg.sender] */\n      dup1\n      dup5\n      mstore\n      dup8\n      dup3\n      keccak256\n        /* \"contracts/Test.sol\":640:684  wallets[msg.sender].totalBalance = msg.value */\n      swap6\n      dup7\n      sstore\n        /* \"contracts/Test.sol\":728:761  wallets[msg.sender].numberPayment */\n      dup6\n      dup2\n      add\n      dup1\n      sload\n        /* \"contracts/Test.sol\":699:762  wallets[msg.sender].payments[wallets[msg.sender].numberPayment] */\n      dup4\n      mstore\n        /* \"contracts/Test.sol\":699:727  wallets[msg.sender].payments */\n      0x02\n      swap1\n      swap7\n      add\n        /* \"contracts/Test.sol\":699:762  wallets[msg.sender].payments[wallets[msg.sender].numberPayment] */\n      dup5\n      mstore\n      swap7\n      dup2\n      keccak256\n        /* \"contracts/Test.sol\":699:772  wallets[msg.sender].payments[wallets[msg.sender].numberPayment] = payment */\n      dup7\n      mload\n      dup2\n      sstore\n      swap4\n      mload\n      swap4\n      dup8\n      add\n      swap4\n      swap1\n      swap4\n      sstore\n        /* \"contracts/Test.sol\":787:806  wallets[msg.sender] */\n      dup3\n      mstore\n      swap4\n      swap1\n      swap4\n      mstore\n        /* \"contracts/Test.sol\":787:822  wallets[msg.sender].numberPayment++ */\n      dup1\n      sload\n        /* \"contracts/Test.sol\":595:630  Payment(msg.value, block.timestamp) */\n      swap2\n      swap3\n        /* \"contracts/Test.sol\":787:822  wallets[msg.sender].numberPayment++ */\n      tag_10\n      dup4\n      tag_11\n      jump\t// in\n    tag_10:\n      swap2\n      swap1\n      pop\n      sstore\n      pop\n        /* \"contracts/Test.sol\":560:834  {... */\n      pop\n        /* \"contracts/Test.sol\":1568:1726  contract FactoryWallet is Wallet {... */\n      stop\n    tag_2:\n      0x00\n      dup1\n      revert\n        /* \"contracts/Test.sol\":1074:1316  function withdrawAllMoney(address payable _to) external {... */\n    tag_3:\n      callvalue\n      dup1\n      iszero\n      tag_12\n      jumpi\n      0x00\n      dup1\n      revert\n    tag_12:\n      pop\n      tag_13\n      tag_14\n      calldatasize\n      0x04\n      tag_15\n      jump\t// in\n    tag_14:\n      tag_16\n      jump\t// in\n    tag_13:\n      stop\n        /* \"contracts/Test.sol\":1637:1719  function createWallet() external {... */\n    tag_4:\n      callvalue\n      dup1\n      iszero\n      tag_17\n      jumpi\n      0x00\n      dup1\n      revert\n    tag_17:\n      pop\n      tag_13\n      tag_19\n      jump\t// in\n        /* \"contracts/Test.sol\":960:1068  function getBalance() external view  returns (uint) {... */\n    tag_5:\n      callvalue\n      dup1\n      iszero\n      tag_20\n      jumpi\n      0x00\n      dup1\n      revert\n    tag_20:\n      pop\n        /* \"contracts/Test.sol\":1037:1047  msg.sender */\n      caller\n        /* \"contracts/Test.sol\":1006:1010  uint */\n      0x00\n        /* \"contracts/Test.sol\":1029:1048  wallets[msg.sender] */\n      swap1\n      dup2\n      mstore\n        /* \"contracts/Test.sol\":1029:1036  wallets */\n      0x01\n        /* \"contracts/Test.sol\":1029:1048  wallets[msg.sender] */\n      0x20\n      mstore\n      0x40\n      swap1\n      keccak256\n        /* \"contracts/Test.sol\":1029:1061  wallets[msg.sender].totalBalance */\n      sload\n        /* \"contracts/Test.sol\":960:1068  function getBalance() external view  returns (uint) {... */\n    tag_21:\n      mload(0x40)\n        /* \"#utility.yul\":1880:1905   */\n      swap1\n      dup2\n      mstore\n        /* \"#utility.yul\":1868:1870   */\n      0x20\n        /* \"#utility.yul\":1853:1871   */\n      add\n        /* \"contracts/Test.sol\":960:1068  function getBalance() external view  returns (uint) {... */\n      mload(0x40)\n      dup1\n      swap2\n      sub\n      swap1\n      return\n        /* \"contracts/Test.sol\":840:951  function getTotalBalance() external view onlyOwner returns (uint) {... */\n    tag_6:\n      callvalue\n      dup1\n      iszero\n      tag_25\n      jumpi\n      0x00\n      dup1\n      revert\n    tag_25:\n      pop\n      tag_21\n      tag_27\n      jump\t// in\n        /* \"contracts/Test.sol\":1322:1564  function withdrawMoney(address payable _to, uint _amount) external {... */\n    tag_7:\n      callvalue\n      dup1\n      iszero\n      tag_29\n      jumpi\n      0x00\n      dup1\n      revert\n    tag_29:\n      pop\n      tag_13\n      tag_31\n      calldatasize\n      0x04\n      tag_32\n      jump\t// in\n    tag_31:\n      tag_33\n      jump\t// in\n        /* \"contracts/Test.sol\":1074:1316  function withdrawAllMoney(address payable _to) external {... */\n    tag_16:\n        /* \"contracts/Test.sol\":1162:1172  msg.sender */\n      caller\n        /* \"contracts/Test.sol\":1140:1151  uint amount */\n      0x00\n        /* \"contracts/Test.sol\":1154:1173  wallets[msg.sender] */\n      swap1\n      dup2\n      mstore\n        /* \"contracts/Test.sol\":1154:1161  wallets */\n      0x01\n        /* \"contracts/Test.sol\":1154:1173  wallets[msg.sender] */\n      0x20\n      mstore\n      0x40\n      swap1\n      keccak256\n        /* \"contracts/Test.sol\":1154:1186  wallets[msg.sender].totalBalance */\n      sload\n        /* \"contracts/Test.sol\":1204:1215  amount != 0 */\n      dup1\n        /* \"contracts/Test.sol\":1196:1233  require(amount != 0 , \"Empty wallet\") */\n      tag_35\n      jumpi\n      mload(0x40)\n      0x08c379a000000000000000000000000000000000000000000000000000000000\n      dup2\n      mstore\n        /* \"#utility.yul\":1595:1597   */\n      0x20\n        /* \"contracts/Test.sol\":1196:1233  require(amount != 0 , \"Empty wallet\") */\n      0x04\n      dup3\n      add\n        /* \"#utility.yul\":1577:1598   */\n      mstore\n        /* \"#utility.yul\":1634:1636   */\n      0x0c\n        /* \"#utility.yul\":1614:1632   */\n      0x24\n      dup3\n      add\n        /* \"#utility.yul\":1607:1637   */\n      mstore\n        /* \"#utility.yul\":1673:1687   */\n      0x456d7074792077616c6c65740000000000000000000000000000000000000000\n        /* \"#utility.yul\":1653:1671   */\n      0x44\n      dup3\n      add\n        /* \"#utility.yul\":1646:1688   */\n      mstore\n        /* \"#utility.yul\":1705:1723   */\n      0x64\n      add\n        /* \"contracts/Test.sol\":1196:1233  require(amount != 0 , \"Empty wallet\") */\n    tag_36:\n      mload(0x40)\n      dup1\n      swap2\n      sub\n      swap1\n      revert\n    tag_35:\n        /* \"contracts/Test.sol\":1251:1261  msg.sender */\n      caller\n        /* \"contracts/Test.sol\":1278:1279  0 */\n      0x00\n        /* \"contracts/Test.sol\":1243:1262  wallets[msg.sender] */\n      swap1\n      dup2\n      mstore\n        /* \"contracts/Test.sol\":1243:1250  wallets */\n      0x01\n        /* \"contracts/Test.sol\":1243:1262  wallets[msg.sender] */\n      0x20\n      mstore\n      0x40\n      dup1\n      dup3\n      keccak256\n        /* \"contracts/Test.sol\":1243:1279  wallets[msg.sender].totalBalance = 0 */\n      dup3\n      swap1\n      sstore\n        /* \"contracts/Test.sol\":1289:1309  _to.transfer(amount) */\n      mload\n        /* \"contracts/Test.sol\":1243:1262  wallets[msg.sender] */\n      0xffffffffffffffffffffffffffffffffffffffff\n        /* \"contracts/Test.sol\":1289:1301  _to.transfer */\n      dup5\n      and\n      swap2\n        /* \"contracts/Test.sol\":1289:1309  _to.transfer(amount) */\n      dup4\n      iszero\n      0x08fc\n      mul\n      swap2\n        /* \"contracts/Test.sol\":1302:1308  amount */\n      dup5\n      swap2\n        /* \"contracts/Test.sol\":1289:1309  _to.transfer(amount) */\n      dup2\n        /* \"contracts/Test.sol\":1278:1279  0 */\n      dup2\n        /* \"contracts/Test.sol\":1289:1309  _to.transfer(amount) */\n      dup2\n        /* \"contracts/Test.sol\":1302:1308  amount */\n      dup6\n        /* \"contracts/Test.sol\":1289:1301  _to.transfer */\n      dup9\n        /* \"contracts/Test.sol\":1289:1309  _to.transfer(amount) */\n      dup9\n      call\n      swap4\n      pop\n      pop\n      pop\n      pop\n      iszero\n      dup1\n      iszero\n      tag_39\n      jumpi\n      returndatasize\n      0x00\n      dup1\n      returndatacopy\n      revert(0x00, returndatasize)\n    tag_39:\n      pop\n        /* \"contracts/Test.sol\":1130:1316  {... */\n      pop\n        /* \"contracts/Test.sol\":1074:1316  function withdrawAllMoney(address payable _to) external {... */\n      pop\n      jump\t// out\n        /* \"contracts/Test.sol\":1637:1719  function createWallet() external {... */\n    tag_19:\n        /* \"contracts/Test.sol\":1680:1688  Wallet w */\n      0x00\n        /* \"contracts/Test.sol\":1691:1703  new Wallet() */\n      mload(0x40)\n      tag_41\n      swap1\n      tag_42\n      jump\t// in\n    tag_41:\n      mload(0x40)\n      dup1\n      swap2\n      sub\n      swap1\n      0x00\n      create\n      dup1\n      iszero\n      dup1\n      iszero\n      tag_39\n      jumpi\n      returndatasize\n      0x00\n      dup1\n      returndatacopy\n      revert(0x00, returndatasize)\n        /* \"contracts/Test.sol\":840:951  function getTotalBalance() external view onlyOwner returns (uint) {... */\n    tag_27:\n        /* \"contracts/Test.sol\":900:904  uint */\n      0x00\n        /* \"contracts/Test.sol\":210:215  owner */\n      dup1\n      sload\n      0xffffffffffffffffffffffffffffffffffffffff\n      and\n        /* \"contracts/Test.sol\":196:206  msg.sender */\n      caller\n        /* \"contracts/Test.sol\":196:215  msg.sender == owner */\n      eq\n        /* \"contracts/Test.sol\":188:233  require(msg.sender == owner, \"Not the owner\") */\n      tag_46\n      jumpi\n      mload(0x40)\n      0x08c379a000000000000000000000000000000000000000000000000000000000\n      dup2\n      mstore\n        /* \"#utility.yul\":907:909   */\n      0x20\n        /* \"contracts/Test.sol\":188:233  require(msg.sender == owner, \"Not the owner\") */\n      0x04\n      dup3\n      add\n        /* \"#utility.yul\":889:910   */\n      mstore\n        /* \"#utility.yul\":946:948   */\n      0x0d\n        /* \"#utility.yul\":926:944   */\n      0x24\n      dup3\n      add\n        /* \"#utility.yul\":919:949   */\n      mstore\n        /* \"#utility.yul\":985:1000   */\n      0x4e6f7420746865206f776e657200000000000000000000000000000000000000\n        /* \"#utility.yul\":965:983   */\n      0x44\n      dup3\n      add\n        /* \"#utility.yul\":958:1001   */\n      mstore\n        /* \"#utility.yul\":1018:1036   */\n      0x64\n      add\n        /* \"contracts/Test.sol\":188:233  require(msg.sender == owner, \"Not the owner\") */\n      tag_36\n        /* \"#utility.yul\":705:1042   */\n      jump\n        /* \"contracts/Test.sol\":188:233  require(msg.sender == owner, \"Not the owner\") */\n    tag_46:\n      pop\n        /* \"contracts/Test.sol\":931:935  this */\n      address\n        /* \"contracts/Test.sol\":923:944  address(this).balance */\n      balance\n        /* \"contracts/Test.sol\":840:951  function getTotalBalance() external view onlyOwner returns (uint) {... */\n      swap1\n      jump\t// out\n        /* \"contracts/Test.sol\":1322:1564  function withdrawMoney(address payable _to, uint _amount) external {... */\n    tag_33:\n        /* \"contracts/Test.sol\":1426:1436  msg.sender */\n      caller\n        /* \"contracts/Test.sol\":1418:1437  wallets[msg.sender] */\n      0x00\n      swap1\n      dup2\n      mstore\n        /* \"contracts/Test.sol\":1418:1425  wallets */\n      0x01\n        /* \"contracts/Test.sol\":1418:1437  wallets[msg.sender] */\n      0x20\n      mstore\n      0x40\n      swap1\n      keccak256\n        /* \"contracts/Test.sol\":1418:1450  wallets[msg.sender].totalBalance */\n      sload\n        /* \"contracts/Test.sol\":1407:1450  _amount <= wallets[msg.sender].totalBalance */\n      dup2\n      gt\n      iszero\n        /* \"contracts/Test.sol\":1399:1472  require(_amount <= wallets[msg.sender].totalBalance, \"Not enought money\") */\n      tag_51\n      jumpi\n      mload(0x40)\n      0x08c379a000000000000000000000000000000000000000000000000000000000\n      dup2\n      mstore\n        /* \"#utility.yul\":1249:1251   */\n      0x20\n        /* \"contracts/Test.sol\":1399:1472  require(_amount <= wallets[msg.sender].totalBalance, \"Not enought money\") */\n      0x04\n      dup3\n      add\n        /* \"#utility.yul\":1231:1252   */\n      mstore\n        /* \"#utility.yul\":1288:1290   */\n      0x11\n        /* \"#utility.yul\":1268:1286   */\n      0x24\n      dup3\n      add\n        /* \"#utility.yul\":1261:1291   */\n      mstore\n        /* \"#utility.yul\":1327:1346   */\n      0x4e6f7420656e6f75676874206d6f6e6579000000000000000000000000000000\n        /* \"#utility.yul\":1307:1325   */\n      0x44\n      dup3\n      add\n        /* \"#utility.yul\":1300:1347   */\n      mstore\n        /* \"#utility.yul\":1364:1382   */\n      0x64\n      add\n        /* \"contracts/Test.sol\":1399:1472  require(_amount <= wallets[msg.sender].totalBalance, \"Not enought money\") */\n      tag_36\n        /* \"#utility.yul\":1047:1388   */\n      jump\n        /* \"contracts/Test.sol\":1399:1472  require(_amount <= wallets[msg.sender].totalBalance, \"Not enought money\") */\n    tag_51:\n        /* \"contracts/Test.sol\":1491:1501  msg.sender */\n      caller\n        /* \"contracts/Test.sol\":1483:1502  wallets[msg.sender] */\n      0x00\n      swap1\n      dup2\n      mstore\n        /* \"contracts/Test.sol\":1483:1490  wallets */\n      0x01\n        /* \"contracts/Test.sol\":1483:1502  wallets[msg.sender] */\n      0x20\n      mstore\n      0x40\n      dup2\n      keccak256\n        /* \"contracts/Test.sol\":1483:1526  wallets[msg.sender].totalBalance -= _amount */\n      dup1\n      sload\n        /* \"contracts/Test.sol\":1519:1526  _amount */\n      dup4\n      swap3\n        /* \"contracts/Test.sol\":1483:1502  wallets[msg.sender] */\n      swap1\n        /* \"contracts/Test.sol\":1483:1526  wallets[msg.sender].totalBalance -= _amount */\n      tag_54\n      swap1\n        /* \"contracts/Test.sol\":1519:1526  _amount */\n      dup5\n      swap1\n        /* \"contracts/Test.sol\":1483:1526  wallets[msg.sender].totalBalance -= _amount */\n      tag_55\n      jump\t// in\n    tag_54:\n      swap1\n      swap2\n      sstore\n      pop\n      pop\n        /* \"contracts/Test.sol\":1536:1557  _to.transfer(_amount) */\n      mload(0x40)\n        /* \"contracts/Test.sol\":1536:1548  _to.transfer */\n      0xffffffffffffffffffffffffffffffffffffffff\n      dup4\n      and\n      swap1\n        /* \"contracts/Test.sol\":1536:1557  _to.transfer(_amount) */\n      dup3\n      iszero\n      0x08fc\n      mul\n      swap1\n        /* \"contracts/Test.sol\":1549:1556  _amount */\n      dup4\n      swap1\n        /* \"contracts/Test.sol\":1536:1557  _to.transfer(_amount) */\n      0x00\n      dup2\n      dup2\n      dup2\n        /* \"contracts/Test.sol\":1549:1556  _amount */\n      dup6\n        /* \"contracts/Test.sol\":1536:1548  _to.transfer */\n      dup9\n        /* \"contracts/Test.sol\":1536:1557  _to.transfer(_amount) */\n      dup9\n      call\n      swap4\n      pop\n      pop\n      pop\n      pop\n      iszero\n      dup1\n      iszero\n      tag_39\n      jumpi\n      returndatasize\n      0x00\n      dup1\n      returndatacopy\n      revert(0x00, returndatasize)\n    tag_42:\n      dataSize(sub_0)\n      dup1\n      dataOffset(sub_0)\n      dup4\n      codecopy\n      add\n      swap1\n      jump\t// out\n        /* \"#utility.yul\":14:218   */\n    tag_59:\n        /* \"#utility.yul\":90:110   */\n      dup1\n      calldataload\n        /* \"#utility.yul\":150:192   */\n      0xffffffffffffffffffffffffffffffffffffffff\n        /* \"#utility.yul\":139:193   */\n      dup2\n      and\n        /* \"#utility.yul\":129:194   */\n      dup2\n      eq\n        /* \"#utility.yul\":119:212   */\n      tag_61\n      jumpi\n        /* \"#utility.yul\":208:209   */\n      0x00\n        /* \"#utility.yul\":205:206   */\n      dup1\n        /* \"#utility.yul\":198:210   */\n      revert\n        /* \"#utility.yul\":119:212   */\n    tag_61:\n        /* \"#utility.yul\":14:218   */\n      swap2\n      swap1\n      pop\n      jump\t// out\n        /* \"#utility.yul\":223:425   */\n    tag_15:\n        /* \"#utility.yul\":290:296   */\n      0x00\n        /* \"#utility.yul\":343:345   */\n      0x20\n        /* \"#utility.yul\":331:340   */\n      dup3\n        /* \"#utility.yul\":322:329   */\n      dup5\n        /* \"#utility.yul\":318:341   */\n      sub\n        /* \"#utility.yul\":314:346   */\n      slt\n        /* \"#utility.yul\":311:363   */\n      iszero\n      tag_63\n      jumpi\n        /* \"#utility.yul\":359:360   */\n      0x00\n        /* \"#utility.yul\":356:357   */\n      dup1\n        /* \"#utility.yul\":349:361   */\n      revert\n        /* \"#utility.yul\":311:363   */\n    tag_63:\n        /* \"#utility.yul\":382:419   */\n      tag_64\n        /* \"#utility.yul\":409:418   */\n      dup3\n        /* \"#utility.yul\":382:419   */\n      tag_59\n      jump\t// in\n    tag_64:\n        /* \"#utility.yul\":372:419   */\n      swap4\n        /* \"#utility.yul\":223:425   */\n      swap3\n      pop\n      pop\n      pop\n      jump\t// out\n        /* \"#utility.yul\":430:700   */\n    tag_32:\n        /* \"#utility.yul\":506:512   */\n      0x00\n        /* \"#utility.yul\":514:520   */\n      dup1\n        /* \"#utility.yul\":567:569   */\n      0x40\n        /* \"#utility.yul\":555:564   */\n      dup4\n        /* \"#utility.yul\":546:553   */\n      dup6\n        /* \"#utility.yul\":542:565   */\n      sub\n        /* \"#utility.yul\":538:570   */\n      slt\n        /* \"#utility.yul\":535:587   */\n      iszero\n      tag_66\n      jumpi\n        /* \"#utility.yul\":583:584   */\n      0x00\n        /* \"#utility.yul\":580:581   */\n      dup1\n        /* \"#utility.yul\":573:585   */\n      revert\n        /* \"#utility.yul\":535:587   */\n    tag_66:\n        /* \"#utility.yul\":606:643   */\n      tag_67\n        /* \"#utility.yul\":633:642   */\n      dup4\n        /* \"#utility.yul\":606:643   */\n      tag_59\n      jump\t// in\n    tag_67:\n        /* \"#utility.yul\":596:643   */\n      swap5\n        /* \"#utility.yul\":690:692   */\n      0x20\n        /* \"#utility.yul\":675:693   */\n      swap4\n      swap1\n      swap4\n      add\n        /* \"#utility.yul\":662:694   */\n      calldataload\n      swap4\n      pop\n      pop\n      pop\n        /* \"#utility.yul\":430:700   */\n      jump\t// out\n        /* \"#utility.yul\":1916:2041   */\n    tag_55:\n        /* \"#utility.yul\":1956:1960   */\n      0x00\n        /* \"#utility.yul\":1984:1985   */\n      dup3\n        /* \"#utility.yul\":1981:1982   */\n      dup3\n        /* \"#utility.yul\":1978:1986   */\n      lt\n        /* \"#utility.yul\":1975:2009   */\n      iszero\n      tag_74\n      jumpi\n        /* \"#utility.yul\":1989:2007   */\n      tag_74\n      tag_75\n      jump\t// in\n    tag_74:\n      pop\n        /* \"#utility.yul\":2026:2035   */\n      sub\n      swap1\n        /* \"#utility.yul\":1916:2041   */\n      jump\t// out\n        /* \"#utility.yul\":2046:2181   */\n    tag_11:\n        /* \"#utility.yul\":2085:2088   */\n      0x00\n      not(0x00)\n        /* \"#utility.yul\":2106:2123   */\n      dup3\n      eq\n        /* \"#utility.yul\":2103:2146   */\n      iszero\n      tag_78\n      jumpi\n        /* \"#utility.yul\":2126:2144   */\n      tag_78\n      tag_75\n      jump\t// in\n    tag_78:\n      pop\n        /* \"#utility.yul\":2173:2174   */\n      0x01\n        /* \"#utility.yul\":2162:2175   */\n      add\n      swap1\n        /* \"#utility.yul\":2046:2181   */\n      jump\t// out\n        /* \"#utility.yul\":2186:2370   */\n    tag_75:\n        /* \"#utility.yul\":2238:2315   */\n      0x4e487b7100000000000000000000000000000000000000000000000000000000\n        /* \"#utility.yul\":2235:2236   */\n      0x00\n        /* \"#utility.yul\":2228:2316   */\n      mstore\n        /* \"#utility.yul\":2335:2339   */\n      0x11\n        /* \"#utility.yul\":2332:2333   */\n      0x04\n        /* \"#utility.yul\":2325:2340   */\n      mstore\n        /* \"#utility.yul\":2359:2363   */\n      0x24\n        /* \"#utility.yul\":2356:2357   */\n      0x00\n        /* \"#utility.yul\":2349:2364   */\n      revert\n    stop\n\n    sub_0: assembly {\n            /* \"contracts/Test.sol\":257:1566  contract Wallet is Ownable {... */\n          mstore(0x40, 0x80)\n          callvalue\n          dup1\n          iszero\n          tag_1\n          jumpi\n          0x00\n          dup1\n          revert\n        tag_1:\n          pop\n            /* \"contracts/Test.sol\":126:131  owner */\n          0x00\n            /* \"contracts/Test.sol\":126:144  owner = msg.sender */\n          dup1\n          sload\n          not(0xffffffffffffffffffffffffffffffffffffffff)\n          and\n            /* \"contracts/Test.sol\":134:144  msg.sender */\n          caller\n            /* \"contracts/Test.sol\":126:144  owner = msg.sender */\n          or\n          dup2\n          sstore\n          0x0497\n          swap1\n          dup2\n          swap1\n            /* \"contracts/Test.sol\":257:1566  contract Wallet is Ownable {... */\n          dataOffset(sub_0)\n          swap1\n          codecopy\n          0x00\n          return\n        stop\n\n        sub_0: assembly {\n                /* \"contracts/Test.sol\":257:1566  contract Wallet is Ownable {... */\n              mstore(0x40, 0x80)\n              jumpi(tag_1, lt(calldatasize, 0x04))\n              div(calldataload(0x00), 0x0100000000000000000000000000000000000000000000000000000000)\n              0x0adec93c\n              dup2\n              eq\n              tag_3\n              jumpi\n              dup1\n              0x12065fe0\n              eq\n              tag_4\n              jumpi\n              dup1\n              0x12b58349\n              eq\n              tag_5\n              jumpi\n              dup1\n              0xf274c897\n              eq\n              tag_6\n              jumpi\n              0x00\n              dup1\n              revert\n            tag_1:\n              jumpi(tag_2, calldatasize)\n                /* \"contracts/Test.sol\":595:630  Payment(msg.value, block.timestamp) */\n              0x40\n              dup1\n              mload\n              dup1\n              dup3\n              add\n              dup3\n              mstore\n                /* \"contracts/Test.sol\":603:612  msg.value */\n              callvalue\n                /* \"contracts/Test.sol\":595:630  Payment(msg.value, block.timestamp) */\n              dup1\n              dup3\n              mstore\n                /* \"contracts/Test.sol\":614:629  block.timestamp */\n              timestamp\n                /* \"contracts/Test.sol\":595:630  Payment(msg.value, block.timestamp) */\n              0x20\n              dup1\n              dup5\n              add\n              swap2\n              dup3\n              mstore\n                /* \"contracts/Test.sol\":648:658  msg.sender */\n              caller\n                /* \"contracts/Test.sol\":570:592  Payment memory payment */\n              0x00\n                /* \"contracts/Test.sol\":640:659  wallets[msg.sender] */\n              dup2\n              dup2\n              mstore\n                /* \"contracts/Test.sol\":640:647  wallets */\n              0x01\n                /* \"contracts/Test.sol\":640:659  wallets[msg.sender] */\n              dup1\n              dup5\n              mstore\n              dup8\n              dup3\n              keccak256\n                /* \"contracts/Test.sol\":640:684  wallets[msg.sender].totalBalance = msg.value */\n              swap6\n              dup7\n              sstore\n                /* \"contracts/Test.sol\":728:761  wallets[msg.sender].numberPayment */\n              dup6\n              dup2\n              add\n              dup1\n              sload\n                /* \"contracts/Test.sol\":699:762  wallets[msg.sender].payments[wallets[msg.sender].numberPayment] */\n              dup4\n              mstore\n                /* \"contracts/Test.sol\":699:727  wallets[msg.sender].payments */\n              0x02\n              swap1\n              swap7\n              add\n                /* \"contracts/Test.sol\":699:762  wallets[msg.sender].payments[wallets[msg.sender].numberPayment] */\n              dup5\n              mstore\n              swap7\n              dup2\n              keccak256\n                /* \"contracts/Test.sol\":699:772  wallets[msg.sender].payments[wallets[msg.sender].numberPayment] = payment */\n              dup7\n              mload\n              dup2\n              sstore\n              swap4\n              mload\n              swap4\n              dup8\n              add\n              swap4\n              swap1\n              swap4\n              sstore\n                /* \"contracts/Test.sol\":787:806  wallets[msg.sender] */\n              dup3\n              mstore\n              swap4\n              swap1\n              swap4\n              mstore\n                /* \"contracts/Test.sol\":787:822  wallets[msg.sender].numberPayment++ */\n              dup1\n              sload\n                /* \"contracts/Test.sol\":595:630  Payment(msg.value, block.timestamp) */\n              swap2\n              swap3\n                /* \"contracts/Test.sol\":787:822  wallets[msg.sender].numberPayment++ */\n              tag_9\n              dup4\n              tag_10\n              jump\t// in\n            tag_9:\n              swap2\n              swap1\n              pop\n              sstore\n              pop\n                /* \"contracts/Test.sol\":560:834  {... */\n              pop\n                /* \"contracts/Test.sol\":257:1566  contract Wallet is Ownable {... */\n              stop\n            tag_2:\n              0x00\n              dup1\n              revert\n                /* \"contracts/Test.sol\":1074:1316  function withdrawAllMoney(address payable _to) external {... */\n            tag_3:\n              callvalue\n              dup1\n              iszero\n              tag_11\n              jumpi\n              0x00\n              dup1\n              revert\n            tag_11:\n              pop\n              tag_12\n              tag_13\n              calldatasize\n              0x04\n              tag_14\n              jump\t// in\n            tag_13:\n              tag_15\n              jump\t// in\n            tag_12:\n              stop\n                /* \"contracts/Test.sol\":960:1068  function getBalance() external view  returns (uint) {... */\n            tag_4:\n              callvalue\n              dup1\n              iszero\n              tag_16\n              jumpi\n              0x00\n              dup1\n              revert\n            tag_16:\n              pop\n                /* \"contracts/Test.sol\":1037:1047  msg.sender */\n              caller\n                /* \"contracts/Test.sol\":1006:1010  uint */\n              0x00\n                /* \"contracts/Test.sol\":1029:1048  wallets[msg.sender] */\n              swap1\n              dup2\n              mstore\n                /* \"contracts/Test.sol\":1029:1036  wallets */\n              0x01\n                /* \"contracts/Test.sol\":1029:1048  wallets[msg.sender] */\n              0x20\n              mstore\n              0x40\n              swap1\n              keccak256\n                /* \"contracts/Test.sol\":1029:1061  wallets[msg.sender].totalBalance */\n              sload\n                /* \"contracts/Test.sol\":960:1068  function getBalance() external view  returns (uint) {... */\n            tag_17:\n              mload(0x40)\n                /* \"#utility.yul\":1880:1905   */\n              swap1\n              dup2\n              mstore\n                /* \"#utility.yul\":1868:1870   */\n              0x20\n                /* \"#utility.yul\":1853:1871   */\n              add\n                /* \"contracts/Test.sol\":960:1068  function getBalance() external view  returns (uint) {... */\n              mload(0x40)\n              dup1\n              swap2\n              sub\n              swap1\n              return\n                /* \"contracts/Test.sol\":840:951  function getTotalBalance() external view onlyOwner returns (uint) {... */\n            tag_5:\n              callvalue\n              dup1\n              iszero\n              tag_21\n              jumpi\n              0x00\n              dup1\n              revert\n            tag_21:\n              pop\n              tag_17\n              tag_23\n              jump\t// in\n                /* \"contracts/Test.sol\":1322:1564  function withdrawMoney(address payable _to, uint _amount) external {... */\n            tag_6:\n              callvalue\n              dup1\n              iszero\n              tag_25\n              jumpi\n              0x00\n              dup1\n              revert\n            tag_25:\n              pop\n              tag_12\n              tag_27\n              calldatasize\n              0x04\n              tag_28\n              jump\t// in\n            tag_27:\n              tag_29\n              jump\t// in\n                /* \"contracts/Test.sol\":1074:1316  function withdrawAllMoney(address payable _to) external {... */\n            tag_15:\n                /* \"contracts/Test.sol\":1162:1172  msg.sender */\n              caller\n                /* \"contracts/Test.sol\":1140:1151  uint amount */\n              0x00\n                /* \"contracts/Test.sol\":1154:1173  wallets[msg.sender] */\n              swap1\n              dup2\n              mstore\n                /* \"contracts/Test.sol\":1154:1161  wallets */\n              0x01\n                /* \"contracts/Test.sol\":1154:1173  wallets[msg.sender] */\n              0x20\n              mstore\n              0x40\n              swap1\n              keccak256\n                /* \"contracts/Test.sol\":1154:1186  wallets[msg.sender].totalBalance */\n              sload\n                /* \"contracts/Test.sol\":1204:1215  amount != 0 */\n              dup1\n                /* \"contracts/Test.sol\":1196:1233  require(amount != 0 , \"Empty wallet\") */\n              tag_31\n              jumpi\n              mload(0x40)\n              0x08c379a000000000000000000000000000000000000000000000000000000000\n              dup2\n              mstore\n                /* \"#utility.yul\":1595:1597   */\n              0x20\n                /* \"contracts/Test.sol\":1196:1233  require(amount != 0 , \"Empty wallet\") */\n              0x04\n              dup3\n              add\n                /* \"#utility.yul\":1577:1598   */\n              mstore\n                /* \"#utility.yul\":1634:1636   */\n              0x0c\n                /* \"#utility.yul\":1614:1632   */\n              0x24\n              dup3\n              add\n                /* \"#utility.yul\":1607:1637   */\n              mstore\n                /* \"#utility.yul\":1673:1687   */\n              0x456d7074792077616c6c65740000000000000000000000000000000000000000\n                /* \"#utility.yul\":1653:1671   */\n              0x44\n              dup3\n              add\n                /* \"#utility.yul\":1646:1688   */\n              mstore\n                /* \"#utility.yul\":1705:1723   */\n              0x64\n              add\n                /* \"contracts/Test.sol\":1196:1233  require(amount != 0 , \"Empty wallet\") */\n            tag_32:\n              mload(0x40)\n              dup1\n              swap2\n              sub\n              swap1\n              revert\n            tag_31:\n                /* \"contracts/Test.sol\":1251:1261  msg.sender */\n              caller\n                /* \"contracts/Test.sol\":1278:1279  0 */\n              0x00\n                /* \"contracts/Test.sol\":1243:1262  wallets[msg.sender] */\n              swap1\n              dup2\n              mstore\n                /* \"contracts/Test.sol\":1243:1250  wallets */\n              0x01\n                /* \"contracts/Test.sol\":1243:1262  wallets[msg.sender] */\n              0x20\n              mstore\n              0x40\n              dup1\n              dup3\n              keccak256\n                /* \"contracts/Test.sol\":1243:1279  wallets[msg.sender].totalBalance = 0 */\n              dup3\n              swap1\n              sstore\n                /* \"contracts/Test.sol\":1289:1309  _to.transfer(amount) */\n              mload\n                /* \"contracts/Test.sol\":1243:1262  wallets[msg.sender] */\n              0xffffffffffffffffffffffffffffffffffffffff\n                /* \"contracts/Test.sol\":1289:1301  _to.transfer */\n              dup5\n              and\n              swap2\n                /* \"contracts/Test.sol\":1289:1309  _to.transfer(amount) */\n              dup4\n              iszero\n              0x08fc\n              mul\n              swap2\n                /* \"contracts/Test.sol\":1302:1308  amount */\n              dup5\n              swap2\n                /* \"contracts/Test.sol\":1289:1309  _to.transfer(amount) */\n              dup2\n                /* \"contracts/Test.sol\":1278:1279  0 */\n              dup2\n                /* \"contracts/Test.sol\":1289:1309  _to.transfer(amount) */\n              dup2\n                /* \"contracts/Test.sol\":1302:1308  amount */\n              dup6\n                /* \"contracts/Test.sol\":1289:1301  _to.transfer */\n              dup9\n                /* \"contracts/Test.sol\":1289:1309  _to.transfer(amount) */\n              dup9\n              call\n              swap4\n              pop\n              pop\n              pop\n              pop\n              iszero\n              dup1\n              iszero\n              tag_35\n              jumpi\n              returndatasize\n              0x00\n              dup1\n              returndatacopy\n              revert(0x00, returndatasize)\n            tag_35:\n              pop\n                /* \"contracts/Test.sol\":1130:1316  {... */\n              pop\n                /* \"contracts/Test.sol\":1074:1316  function withdrawAllMoney(address payable _to) external {... */\n              pop\n              jump\t// out\n                /* \"contracts/Test.sol\":840:951  function getTotalBalance() external view onlyOwner returns (uint) {... */\n            tag_23:\n                /* \"contracts/Test.sol\":900:904  uint */\n              0x00\n                /* \"contracts/Test.sol\":210:215  owner */\n              dup1\n              sload\n              0xffffffffffffffffffffffffffffffffffffffff\n              and\n                /* \"contracts/Test.sol\":196:206  msg.sender */\n              caller\n                /* \"contracts/Test.sol\":196:215  msg.sender == owner */\n              eq\n                /* \"contracts/Test.sol\":188:233  require(msg.sender == owner, \"Not the owner\") */\n              tag_38\n              jumpi\n              mload(0x40)\n              0x08c379a000000000000000000000000000000000000000000000000000000000\n              dup2\n              mstore\n                /* \"#utility.yul\":907:909   */\n              0x20\n                /* \"contracts/Test.sol\":188:233  require(msg.sender == owner, \"Not the owner\") */\n              0x04\n              dup3\n              add\n                /* \"#utility.yul\":889:910   */\n              mstore\n                /* \"#utility.yul\":946:948   */\n              0x0d\n                /* \"#utility.yul\":926:944   */\n              0x24\n              dup3\n              add\n                /* \"#utility.yul\":919:949   */\n              mstore\n                /* \"#utility.yul\":985:1000   */\n              0x4e6f7420746865206f776e657200000000000000000000000000000000000000\n                /* \"#utility.yul\":965:983   */\n              0x44\n              dup3\n              add\n                /* \"#utility.yul\":958:1001   */\n              mstore\n                /* \"#utility.yul\":1018:1036   */\n              0x64\n              add\n                /* \"contracts/Test.sol\":188:233  require(msg.sender == owner, \"Not the owner\") */\n              tag_32\n                /* \"#utility.yul\":705:1042   */\n              jump\n                /* \"contracts/Test.sol\":188:233  require(msg.sender == owner, \"Not the owner\") */\n            tag_38:\n              pop\n                /* \"contracts/Test.sol\":931:935  this */\n              address\n                /* \"contracts/Test.sol\":923:944  address(this).balance */\n              balance\n                /* \"contracts/Test.sol\":840:951  function getTotalBalance() external view onlyOwner returns (uint) {... */\n              swap1\n              jump\t// out\n                /* \"contracts/Test.sol\":1322:1564  function withdrawMoney(address payable _to, uint _amount) external {... */\n            tag_29:\n                /* \"contracts/Test.sol\":1426:1436  msg.sender */\n              caller\n                /* \"contracts/Test.sol\":1418:1437  wallets[msg.sender] */\n              0x00\n              swap1\n              dup2\n              mstore\n                /* \"contracts/Test.sol\":1418:1425  wallets */\n              0x01\n                /* \"contracts/Test.sol\":1418:1437  wallets[msg.sender] */\n              0x20\n              mstore\n              0x40\n              swap1\n              keccak256\n                /* \"contracts/Test.sol\":1418:1450  wallets[msg.sender].totalBalance */\n              sload\n                /* \"contracts/Test.sol\":1407:1450  _amount <= wallets[msg.sender].totalBalance */\n              dup2\n              gt\n              iszero\n                /* \"contracts/Test.sol\":1399:1472  require(_amount <= wallets[msg.sender].totalBalance, \"Not enought money\") */\n              tag_43\n              jumpi\n              mload(0x40)\n              0x08c379a000000000000000000000000000000000000000000000000000000000\n              dup2\n              mstore\n                /* \"#utility.yul\":1249:1251   */\n              0x20\n                /* \"contracts/Test.sol\":1399:1472  require(_amount <= wallets[msg.sender].totalBalance, \"Not enought money\") */\n              0x04\n              dup3\n              add\n                /* \"#utility.yul\":1231:1252   */\n              mstore\n                /* \"#utility.yul\":1288:1290   */\n              0x11\n                /* \"#utility.yul\":1268:1286   */\n              0x24\n              dup3\n              add\n                /* \"#utility.yul\":1261:1291   */\n              mstore\n                /* \"#utility.yul\":1327:1346   */\n              0x4e6f7420656e6f75676874206d6f6e6579000000000000000000000000000000\n                /* \"#utility.yul\":1307:1325   */\n              0x44\n              dup3\n              add\n                /* \"#utility.yul\":1300:1347   */\n              mstore\n                /* \"#utility.yul\":1364:1382   */\n              0x64\n              add\n                /* \"contracts/Test.sol\":1399:1472  require(_amount <= wallets[msg.sender].totalBalance, \"Not enought money\") */\n              tag_32\n                /* \"#utility.yul\":1047:1388   */\n              jump\n                /* \"contracts/Test.sol\":1399:1472  require(_amount <= wallets[msg.sender].totalBalance, \"Not enought money\") */\n            tag_43:\n                /* \"contracts/Test.sol\":1491:1501  msg.sender */\n              caller\n                /* \"contracts/Test.sol\":1483:1502  wallets[msg.sender] */\n              0x00\n              swap1\n              dup2\n              mstore\n                /* \"contracts/Test.sol\":1483:1490  wallets */\n              0x01\n                /* \"contracts/Test.sol\":1483:1502  wallets[msg.sender] */\n              0x20\n              mstore\n              0x40\n              dup2\n              keccak256\n                /* \"contracts/Test.sol\":1483:1526  wallets[msg.sender].totalBalance -= _amount */\n              dup1\n              sload\n                /* \"contracts/Test.sol\":1519:1526  _amount */\n              dup4\n              swap3\n                /* \"contracts/Test.sol\":1483:1502  wallets[msg.sender] */\n              swap1\n                /* \"contracts/Test.sol\":1483:1526  wallets[msg.sender].totalBalance -= _amount */\n              tag_46\n              swap1\n                /* \"contracts/Test.sol\":1519:1526  _amount */\n              dup5\n              swap1\n                /* \"contracts/Test.sol\":1483:1526  wallets[msg.sender].totalBalance -= _amount */\n              tag_47\n              jump\t// in\n            tag_46:\n              swap1\n              swap2\n              sstore\n              pop\n              pop\n                /* \"contracts/Test.sol\":1536:1557  _to.transfer(_amount) */\n              mload(0x40)\n                /* \"contracts/Test.sol\":1536:1548  _to.transfer */\n              0xffffffffffffffffffffffffffffffffffffffff\n              dup4\n              and\n              swap1\n                /* \"contracts/Test.sol\":1536:1557  _to.transfer(_amount) */\n              dup3\n              iszero\n              0x08fc\n              mul\n              swap1\n                /* \"contracts/Test.sol\":1549:1556  _amount */\n              dup4\n              swap1\n                /* \"contracts/Test.sol\":1536:1557  _to.transfer(_amount) */\n              0x00\n              dup2\n              dup2\n              dup2\n                /* \"contracts/Test.sol\":1549:1556  _amount */\n              dup6\n                /* \"contracts/Test.sol\":1536:1548  _to.transfer */\n              dup9\n                /* \"contracts/Test.sol\":1536:1557  _to.transfer(_amount) */\n              dup9\n              call\n              swap4\n              pop\n              pop\n              pop\n              pop\n              iszero\n              dup1\n              iszero\n              tag_35\n              jumpi\n              returndatasize\n              0x00\n              dup1\n              returndatacopy\n              revert(0x00, returndatasize)\n                /* \"#utility.yul\":14:218   */\n            tag_51:\n                /* \"#utility.yul\":90:110   */\n              dup1\n              calldataload\n                /* \"#utility.yul\":150:192   */\n              0xffffffffffffffffffffffffffffffffffffffff\n                /* \"#utility.yul\":139:193   */\n              dup2\n              and\n                /* \"#utility.yul\":129:194   */\n              dup2\n              eq\n                /* \"#utility.yul\":119:212   */\n              tag_53\n              jumpi\n                /* \"#utility.yul\":208:209   */\n              0x00\n                /* \"#utility.yul\":205:206   */\n              dup1\n                /* \"#utility.yul\":198:210   */\n              revert\n                /* \"#utility.yul\":119:212   */\n            tag_53:\n                /* \"#utility.yul\":14:218   */\n              swap2\n              swap1\n              pop\n              jump\t// out\n                /* \"#utility.yul\":223:425   */\n            tag_14:\n                /* \"#utility.yul\":290:296   */\n              0x00\n                /* \"#utility.yul\":343:345   */\n              0x20\n                /* \"#utility.yul\":331:340   */\n              dup3\n                /* \"#utility.yul\":322:329   */\n              dup5\n                /* \"#utility.yul\":318:341   */\n              sub\n                /* \"#utility.yul\":314:346   */\n              slt\n                /* \"#utility.yul\":311:363   */\n              iszero\n              tag_55\n              jumpi\n                /* \"#utility.yul\":359:360   */\n              0x00\n                /* \"#utility.yul\":356:357   */\n              dup1\n                /* \"#utility.yul\":349:361   */\n              revert\n                /* \"#utility.yul\":311:363   */\n            tag_55:\n                /* \"#utility.yul\":382:419   */\n              tag_56\n                /* \"#utility.yul\":409:418   */\n              dup3\n                /* \"#utility.yul\":382:419   */\n              tag_51\n              jump\t// in\n            tag_56:\n                /* \"#utility.yul\":372:419   */\n              swap4\n                /* \"#utility.yul\":223:425   */\n              swap3\n              pop\n              pop\n              pop\n              jump\t// out\n                /* \"#utility.yul\":430:700   */\n            tag_28:\n                /* \"#utility.yul\":506:512   */\n              0x00\n                /* \"#utility.yul\":514:520   */\n              dup1\n                /* \"#utility.yul\":567:569   */\n              0x40\n                /* \"#utility.yul\":555:564   */\n              dup4\n                /* \"#utility.yul\":546:553   */\n              dup6\n                /* \"#utility.yul\":542:565   */\n              sub\n                /* \"#utility.yul\":538:570   */\n              slt\n                /* \"#utility.yul\":535:587   */\n              iszero\n              tag_58\n              jumpi\n                /* \"#utility.yul\":583:584   */\n              0x00\n                /* \"#utility.yul\":580:581   */\n              dup1\n                /* \"#utility.yul\":573:585   */\n              revert\n                /* \"#utility.yul\":535:587   */\n            tag_58:\n                /* \"#utility.yul\":606:643   */\n              tag_59\n                /* \"#utility.yul\":633:642   */\n              dup4\n                /* \"#utility.yul\":606:643   */\n              tag_51\n              jump\t// in\n            tag_59:\n                /* \"#utility.yul\":596:643   */\n              swap5\n                /* \"#utility.yul\":690:692   */\n              0x20\n                /* \"#utility.yul\":675:693   */\n              swap4\n              swap1\n              swap4\n              add\n                /* \"#utility.yul\":662:694   */\n              calldataload\n              swap4\n              pop\n              pop\n              pop\n                /* \"#utility.yul\":430:700   */\n              jump\t// out\n                /* \"#utility.yul\":1916:2041   */\n            tag_47:\n                /* \"#utility.yul\":1956:1960   */\n              0x00\n                /* \"#utility.yul\":1984:1985   */\n              dup3\n                /* \"#utility.yul\":1981:1982   */\n              dup3\n                /* \"#utility.yul\":1978:1986   */\n              lt\n                /* \"#utility.yul\":1975:2009   */\n              iszero\n              tag_66\n              jumpi\n                /* \"#utility.yul\":1989:2007   */\n              tag_66\n              tag_67\n              jump\t// in\n            tag_66:\n              pop\n                /* \"#utility.yul\":2026:2035   */\n              sub\n              swap1\n                /* \"#utility.yul\":1916:2041   */\n              jump\t// out\n                /* \"#utility.yul\":2046:2181   */\n            tag_10:\n                /* \"#utility.yul\":2085:2088   */\n              0x00\n              not(0x00)\n                /* \"#utility.yul\":2106:2123   */\n              dup3\n              eq\n                /* \"#utility.yul\":2103:2146   */\n              iszero\n              tag_70\n              jumpi\n                /* \"#utility.yul\":2126:2144   */\n              tag_70\n              tag_67\n              jump\t// in\n            tag_70:\n              pop\n                /* \"#utility.yul\":2173:2174   */\n              0x01\n                /* \"#utility.yul\":2162:2175   */\n              add\n              swap1\n                /* \"#utility.yul\":2046:2181   */\n              jump\t// out\n                /* \"#utility.yul\":2186:2370   */\n            tag_67:\n                /* \"#utility.yul\":2238:2315   */\n              0x4e487b7100000000000000000000000000000000000000000000000000000000\n                /* \"#utility.yul\":2235:2236   */\n              0x00\n                /* \"#utility.yul\":2228:2316   */\n              mstore\n                /* \"#utility.yul\":2335:2339   */\n              0x11\n                /* \"#utility.yul\":2332:2333   */\n              0x04\n                /* \"#utility.yul\":2325:2340   */\n              mstore\n                /* \"#utility.yul\":2359:2363   */\n              0x24\n                /* \"#utility.yul\":2356:2357   */\n              0x00\n                /* \"#utility.yul\":2349:2364   */\n              revert\n\n            auxdata: 0xa26469706673582212209f495c3755f497c1e08da30684cdae110f570c177f2d03bfdb4e6921aeb48c2164736f6c63430008070033\n        }\n    }\n\n    auxdata: 0xa26469706673582212203bf2d4ac636cf1b0a8f84edb4c36bf60116841f47a794f581d0339dd0271742d64736f6c63430008070033\n}\n",
				"bytecode": {
					"linkReferences": {},
					"object": "608060405234801561001057600080fd5b5060008054600160a060020a031916331790556109b7806100326000396000f3fe60806040526004361061006a577c010000000000000000000000000000000000000000000000000000000060003504630adec93c81146100d457806311ebbf24146100f657806312065fe01461010b57806312b583491461013b578063f274c8971461015057600080fd5b366100cf57604080518082018252348082524260208084019182523360008181526001808452878220958655858101805483526002909601845296812086518155935193870193909355825293909352805491926100c78361046e565b919050555050005b600080fd5b3480156100e057600080fd5b506100f46100ef36600461040b565b610170565b005b34801561010257600080fd5b506100f4610243565b34801561011757600080fd5b50336000908152600160205260409020545b60405190815260200160405180910390f35b34801561014757600080fd5b5061012961026d565b34801561015c57600080fd5b506100f461016b36600461042d565b6102f5565b33600090815260016020526040902054806101ec576040517f08c379a000000000000000000000000000000000000000000000000000000000815260206004820152600c60248201527f456d7074792077616c6c6574000000000000000000000000000000000000000060448201526064015b60405180910390fd5b336000908152600160205260408082208290555173ffffffffffffffffffffffffffffffffffffffff84169183156108fc02918491818181858888f1935050505015801561023e573d6000803e3d6000fd5b505050565b6000604051610251906103d5565b604051809103906000f08015801561023e573d6000803e3d6000fd5b6000805473ffffffffffffffffffffffffffffffffffffffff1633146102ef576040517f08c379a000000000000000000000000000000000000000000000000000000000815260206004820152600d60248201527f4e6f7420746865206f776e65720000000000000000000000000000000000000060448201526064016101e3565b50303190565b3360009081526001602052604090205481111561036e576040517f08c379a000000000000000000000000000000000000000000000000000000000815260206004820152601160248201527f4e6f7420656e6f75676874206d6f6e657900000000000000000000000000000060448201526064016101e3565b336000908152600160205260408120805483929061038d908490610457565b909155505060405173ffffffffffffffffffffffffffffffffffffffff83169082156108fc029083906000818181858888f1935050505015801561023e573d6000803e3d6000fd5b6104c9806104b983390190565b803573ffffffffffffffffffffffffffffffffffffffff8116811461040657600080fd5b919050565b60006020828403121561041d57600080fd5b610426826103e2565b9392505050565b6000806040838503121561044057600080fd5b610449836103e2565b946020939093013593505050565b60008282101561046957610469610489565b500390565b600060001982141561048257610482610489565b5060010190565b7f4e487b7100000000000000000000000000000000000000000000000000000000600052601160045260246000fdfe608060405234801561001057600080fd5b5060008054600160a060020a03191633179055610497806100326000396000f3fe60806040526004361061005f577c010000000000000000000000000000000000000000000000000000000060003504630adec93c81146100c957806312065fe0146100eb57806312b583491461011b578063f274c8971461013057600080fd5b366100c457604080518082018252348082524260208084019182523360008181526001808452878220958655858101805483526002909601845296812086518155935193870193909355825293909352805491926100bc83610417565b919050555050005b600080fd5b3480156100d557600080fd5b506100e96100e43660046103b4565b610150565b005b3480156100f757600080fd5b50336000908152600160205260409020545b60405190815260200160405180910390f35b34801561012757600080fd5b50610109610223565b34801561013c57600080fd5b506100e961014b3660046103d6565b6102ab565b33600090815260016020526040902054806101cc576040517f08c379a000000000000000000000000000000000000000000000000000000000815260206004820152600c60248201527f456d7074792077616c6c6574000000000000000000000000000000000000000060448201526064015b60405180910390fd5b336000908152600160205260408082208290555173ffffffffffffffffffffffffffffffffffffffff84169183156108fc02918491818181858888f1935050505015801561021e573d6000803e3d6000fd5b505050565b6000805473ffffffffffffffffffffffffffffffffffffffff1633146102a5576040517f08c379a000000000000000000000000000000000000000000000000000000000815260206004820152600d60248201527f4e6f7420746865206f776e65720000000000000000000000000000000000000060448201526064016101c3565b50303190565b33600090815260016020526040902054811115610324576040517f08c379a000000000000000000000000000000000000000000000000000000000815260206004820152601160248201527f4e6f7420656e6f75676874206d6f6e657900000000000000000000000000000060448201526064016101c3565b3360009081526001602052604081208054839290610343908490610400565b909155505060405173ffffffffffffffffffffffffffffffffffffffff83169082156108fc029083906000818181858888f1935050505015801561021e573d6000803e3d6000fd5b803573ffffffffffffffffffffffffffffffffffffffff811681146103af57600080fd5b919050565b6000602082840312156103c657600080fd5b6103cf8261038b565b9392505050565b600080604083850312156103e957600080fd5b6103f28361038b565b946020939093013593505050565b60008282101561041257610412610432565b500390565b600060001982141561042b5761042b610432565b5060010190565b7f4e487b7100000000000000000000000000000000000000000000000000000000600052601160045260246000fdfea26469706673582212209f495c3755f497c1e08da30684cdae110f570c177f2d03bfdb4e6921aeb48c2164736f6c63430008070033a26469706673582212203bf2d4ac636cf1b0a8f84edb4c36bf60116841f47a794f581d0339dd0271742d64736f6c63430008070033",
					"opcodes": "PUSH1 0x80 PUSH1 0x40 MSTORE CALLVALUE DUP1 ISZERO PUSH2 0x10 JUMPI PUSH1 0x0 DUP1 REVERT JUMPDEST POP PUSH1 0x0 DUP1 SLOAD PUSH1 0x1 PUSH1 0xA0 PUSH1 0x2 EXP SUB NOT AND CALLER OR SWAP1 SSTORE PUSH2 0x9B7 DUP1 PUSH2 0x32 PUSH1 0x0 CODECOPY PUSH1 0x0 RETURN INVALID PUSH1 0x80 PUSH1 0x40 MSTORE PUSH1 0x4 CALLDATASIZE LT PUSH2 0x6A JUMPI PUSH29 0x100000000000000000000000000000000000000000000000000000000 PUSH1 0x0 CALLDATALOAD DIV PUSH4 0xADEC93C DUP2 EQ PUSH2 0xD4 JUMPI DUP1 PUSH4 0x11EBBF24 EQ PUSH2 0xF6 JUMPI DUP1 PUSH4 0x12065FE0 EQ PUSH2 0x10B JUMPI DUP1 PUSH4 0x12B58349 EQ PUSH2 0x13B JUMPI DUP1 PUSH4 0xF274C897 EQ PUSH2 0x150 JUMPI PUSH1 0x0 DUP1 REVERT JUMPDEST CALLDATASIZE PUSH2 0xCF JUMPI PUSH1 0x40 DUP1 MLOAD DUP1 DUP3 ADD DUP3 MSTORE CALLVALUE DUP1 DUP3 MSTORE TIMESTAMP PUSH1 0x20 DUP1 DUP5 ADD SWAP2 DUP3 MSTORE CALLER PUSH1 0x0 DUP2 DUP2 MSTORE PUSH1 0x1 DUP1 DUP5 MSTORE DUP8 DUP3 KECCAK256 SWAP6 DUP7 SSTORE DUP6 DUP2 ADD DUP1 SLOAD DUP4 MSTORE PUSH1 0x2 SWAP1 SWAP7 ADD DUP5 MSTORE SWAP7 DUP2 KECCAK256 DUP7 MLOAD DUP2 SSTORE SWAP4 MLOAD SWAP4 DUP8 ADD SWAP4 SWAP1 SWAP4 SSTORE DUP3 MSTORE SWAP4 SWAP1 SWAP4 MSTORE DUP1 SLOAD SWAP2 SWAP3 PUSH2 0xC7 DUP4 PUSH2 0x46E JUMP JUMPDEST SWAP2 SWAP1 POP SSTORE POP POP STOP JUMPDEST PUSH1 0x0 DUP1 REVERT JUMPDEST CALLVALUE DUP1 ISZERO PUSH2 0xE0 JUMPI PUSH1 0x0 DUP1 REVERT JUMPDEST POP PUSH2 0xF4 PUSH2 0xEF CALLDATASIZE PUSH1 0x4 PUSH2 0x40B JUMP JUMPDEST PUSH2 0x170 JUMP JUMPDEST STOP JUMPDEST CALLVALUE DUP1 ISZERO PUSH2 0x102 JUMPI PUSH1 0x0 DUP1 REVERT JUMPDEST POP PUSH2 0xF4 PUSH2 0x243 JUMP JUMPDEST CALLVALUE DUP1 ISZERO PUSH2 0x117 JUMPI PUSH1 0x0 DUP1 REVERT JUMPDEST POP CALLER PUSH1 0x0 SWAP1 DUP2 MSTORE PUSH1 0x1 PUSH1 0x20 MSTORE PUSH1 0x40 SWAP1 KECCAK256 SLOAD JUMPDEST PUSH1 0x40 MLOAD SWAP1 DUP2 MSTORE PUSH1 0x20 ADD PUSH1 0x40 MLOAD DUP1 SWAP2 SUB SWAP1 RETURN JUMPDEST CALLVALUE DUP1 ISZERO PUSH2 0x147 JUMPI PUSH1 0x0 DUP1 REVERT JUMPDEST POP PUSH2 0x129 PUSH2 0x26D JUMP JUMPDEST CALLVALUE DUP1 ISZERO PUSH2 0x15C JUMPI PUSH1 0x0 DUP1 REVERT JUMPDEST POP PUSH2 0xF4 PUSH2 0x16B CALLDATASIZE PUSH1 0x4 PUSH2 0x42D JUMP JUMPDEST PUSH2 0x2F5 JUMP JUMPDEST CALLER PUSH1 0x0 SWAP1 DUP2 MSTORE PUSH1 0x1 PUSH1 0x20 MSTORE PUSH1 0x40 SWAP1 KECCAK256 SLOAD DUP1 PUSH2 0x1EC JUMPI PUSH1 0x40 MLOAD PUSH32 0x8C379A000000000000000000000000000000000000000000000000000000000 DUP2 MSTORE PUSH1 0x20 PUSH1 0x4 DUP3 ADD MSTORE PUSH1 0xC PUSH1 0x24 DUP3 ADD MSTORE PUSH32 0x456D7074792077616C6C65740000000000000000000000000000000000000000 PUSH1 0x44 DUP3 ADD MSTORE PUSH1 0x64 ADD JUMPDEST PUSH1 0x40 MLOAD DUP1 SWAP2 SUB SWAP1 REVERT JUMPDEST CALLER PUSH1 0x0 SWAP1 DUP2 MSTORE PUSH1 0x1 PUSH1 0x20 MSTORE PUSH1 0x40 DUP1 DUP3 KECCAK256 DUP3 SWAP1 SSTORE MLOAD PUSH20 0xFFFFFFFFFFFFFFFFFFFFFFFFFFFFFFFFFFFFFFFF DUP5 AND SWAP2 DUP4 ISZERO PUSH2 0x8FC MUL SWAP2 DUP5 SWAP2 DUP2 DUP2 DUP2 DUP6 DUP9 DUP9 CALL SWAP4 POP POP POP POP ISZERO DUP1 ISZERO PUSH2 0x23E JUMPI RETURNDATASIZE PUSH1 0x0 DUP1 RETURNDATACOPY RETURNDATASIZE PUSH1 0x0 REVERT JUMPDEST POP POP POP JUMP JUMPDEST PUSH1 0x0 PUSH1 0x40 MLOAD PUSH2 0x251 SWAP1 PUSH2 0x3D5 JUMP JUMPDEST PUSH1 0x40 MLOAD DUP1 SWAP2 SUB SWAP1 PUSH1 0x0 CREATE DUP1 ISZERO DUP1 ISZERO PUSH2 0x23E JUMPI RETURNDATASIZE PUSH1 0x0 DUP1 RETURNDATACOPY RETURNDATASIZE PUSH1 0x0 REVERT JUMPDEST PUSH1 0x0 DUP1 SLOAD PUSH20 0xFFFFFFFFFFFFFFFFFFFFFFFFFFFFFFFFFFFFFFFF AND CALLER EQ PUSH2 0x2EF JUMPI PUSH1 0x40 MLOAD PUSH32 0x8C379A000000000000000000000000000000000000000000000000000000000 DUP2 MSTORE PUSH1 0x20 PUSH1 0x4 DUP3 ADD MSTORE PUSH1 0xD PUSH1 0x24 DUP3 ADD MSTORE PUSH32 0x4E6F7420746865206F776E657200000000000000000000000000000000000000 PUSH1 0x44 DUP3 ADD MSTORE PUSH1 0x64 ADD PUSH2 0x1E3 JUMP JUMPDEST POP ADDRESS BALANCE SWAP1 JUMP JUMPDEST CALLER PUSH1 0x0 SWAP1 DUP2 MSTORE PUSH1 0x1 PUSH1 0x20 MSTORE PUSH1 0x40 SWAP1 KECCAK256 SLOAD DUP2 GT ISZERO PUSH2 0x36E JUMPI PUSH1 0x40 MLOAD PUSH32 0x8C379A000000000000000000000000000000000000000000000000000000000 DUP2 MSTORE PUSH1 0x20 PUSH1 0x4 DUP3 ADD MSTORE PUSH1 0x11 PUSH1 0x24 DUP3 ADD MSTORE PUSH32 0x4E6F7420656E6F75676874206D6F6E6579000000000000000000000000000000 PUSH1 0x44 DUP3 ADD MSTORE PUSH1 0x64 ADD PUSH2 0x1E3 JUMP JUMPDEST CALLER PUSH1 0x0 SWAP1 DUP2 MSTORE PUSH1 0x1 PUSH1 0x20 MSTORE PUSH1 0x40 DUP2 KECCAK256 DUP1 SLOAD DUP4 SWAP3 SWAP1 PUSH2 0x38D SWAP1 DUP5 SWAP1 PUSH2 0x457 JUMP JUMPDEST SWAP1 SWAP2 SSTORE POP POP PUSH1 0x40 MLOAD PUSH20 0xFFFFFFFFFFFFFFFFFFFFFFFFFFFFFFFFFFFFFFFF DUP4 AND SWAP1 DUP3 ISZERO PUSH2 0x8FC MUL SWAP1 DUP4 SWAP1 PUSH1 0x0 DUP2 DUP2 DUP2 DUP6 DUP9 DUP9 CALL SWAP4 POP POP POP POP ISZERO DUP1 ISZERO PUSH2 0x23E JUMPI RETURNDATASIZE PUSH1 0x0 DUP1 RETURNDATACOPY RETURNDATASIZE PUSH1 0x0 REVERT JUMPDEST PUSH2 0x4C9 DUP1 PUSH2 0x4B9 DUP4 CODECOPY ADD SWAP1 JUMP JUMPDEST DUP1 CALLDATALOAD PUSH20 0xFFFFFFFFFFFFFFFFFFFFFFFFFFFFFFFFFFFFFFFF DUP2 AND DUP2 EQ PUSH2 0x406 JUMPI PUSH1 0x0 DUP1 REVERT JUMPDEST SWAP2 SWAP1 POP JUMP JUMPDEST PUSH1 0x0 PUSH1 0x20 DUP3 DUP5 SUB SLT ISZERO PUSH2 0x41D JUMPI PUSH1 0x0 DUP1 REVERT JUMPDEST PUSH2 0x426 DUP3 PUSH2 0x3E2 JUMP JUMPDEST SWAP4 SWAP3 POP POP POP JUMP JUMPDEST PUSH1 0x0 DUP1 PUSH1 0x40 DUP4 DUP6 SUB SLT ISZERO PUSH2 0x440 JUMPI PUSH1 0x0 DUP1 REVERT JUMPDEST PUSH2 0x449 DUP4 PUSH2 0x3E2 JUMP JUMPDEST SWAP5 PUSH1 0x20 SWAP4 SWAP1 SWAP4 ADD CALLDATALOAD SWAP4 POP POP POP JUMP JUMPDEST PUSH1 0x0 DUP3 DUP3 LT ISZERO PUSH2 0x469 JUMPI PUSH2 0x469 PUSH2 0x489 JUMP JUMPDEST POP SUB SWAP1 JUMP JUMPDEST PUSH1 0x0 PUSH1 0x0 NOT DUP3 EQ ISZERO PUSH2 0x482 JUMPI PUSH2 0x482 PUSH2 0x489 JUMP JUMPDEST POP PUSH1 0x1 ADD SWAP1 JUMP JUMPDEST PUSH32 0x4E487B7100000000000000000000000000000000000000000000000000000000 PUSH1 0x0 MSTORE PUSH1 0x11 PUSH1 0x4 MSTORE PUSH1 0x24 PUSH1 0x0 REVERT INVALID PUSH1 0x80 PUSH1 0x40 MSTORE CALLVALUE DUP1 ISZERO PUSH2 0x10 JUMPI PUSH1 0x0 DUP1 REVERT JUMPDEST POP PUSH1 0x0 DUP1 SLOAD PUSH1 0x1 PUSH1 0xA0 PUSH1 0x2 EXP SUB NOT AND CALLER OR SWAP1 SSTORE PUSH2 0x497 DUP1 PUSH2 0x32 PUSH1 0x0 CODECOPY PUSH1 0x0 RETURN INVALID PUSH1 0x80 PUSH1 0x40 MSTORE PUSH1 0x4 CALLDATASIZE LT PUSH2 0x5F JUMPI PUSH29 0x100000000000000000000000000000000000000000000000000000000 PUSH1 0x0 CALLDATALOAD DIV PUSH4 0xADEC93C DUP2 EQ PUSH2 0xC9 JUMPI DUP1 PUSH4 0x12065FE0 EQ PUSH2 0xEB JUMPI DUP1 PUSH4 0x12B58349 EQ PUSH2 0x11B JUMPI DUP1 PUSH4 0xF274C897 EQ PUSH2 0x130 JUMPI PUSH1 0x0 DUP1 REVERT JUMPDEST CALLDATASIZE PUSH2 0xC4 JUMPI PUSH1 0x40 DUP1 MLOAD DUP1 DUP3 ADD DUP3 MSTORE CALLVALUE DUP1 DUP3 MSTORE TIMESTAMP PUSH1 0x20 DUP1 DUP5 ADD SWAP2 DUP3 MSTORE CALLER PUSH1 0x0 DUP2 DUP2 MSTORE PUSH1 0x1 DUP1 DUP5 MSTORE DUP8 DUP3 KECCAK256 SWAP6 DUP7 SSTORE DUP6 DUP2 ADD DUP1 SLOAD DUP4 MSTORE PUSH1 0x2 SWAP1 SWAP7 ADD DUP5 MSTORE SWAP7 DUP2 KECCAK256 DUP7 MLOAD DUP2 SSTORE SWAP4 MLOAD SWAP4 DUP8 ADD SWAP4 SWAP1 SWAP4 SSTORE DUP3 MSTORE SWAP4 SWAP1 SWAP4 MSTORE DUP1 SLOAD SWAP2 SWAP3 PUSH2 0xBC DUP4 PUSH2 0x417 JUMP JUMPDEST SWAP2 SWAP1 POP SSTORE POP POP STOP JUMPDEST PUSH1 0x0 DUP1 REVERT JUMPDEST CALLVALUE DUP1 ISZERO PUSH2 0xD5 JUMPI PUSH1 0x0 DUP1 REVERT JUMPDEST POP PUSH2 0xE9 PUSH2 0xE4 CALLDATASIZE PUSH1 0x4 PUSH2 0x3B4 JUMP JUMPDEST PUSH2 0x150 JUMP JUMPDEST STOP JUMPDEST CALLVALUE DUP1 ISZERO PUSH2 0xF7 JUMPI PUSH1 0x0 DUP1 REVERT JUMPDEST POP CALLER PUSH1 0x0 SWAP1 DUP2 MSTORE PUSH1 0x1 PUSH1 0x20 MSTORE PUSH1 0x40 SWAP1 KECCAK256 SLOAD JUMPDEST PUSH1 0x40 MLOAD SWAP1 DUP2 MSTORE PUSH1 0x20 ADD PUSH1 0x40 MLOAD DUP1 SWAP2 SUB SWAP1 RETURN JUMPDEST CALLVALUE DUP1 ISZERO PUSH2 0x127 JUMPI PUSH1 0x0 DUP1 REVERT JUMPDEST POP PUSH2 0x109 PUSH2 0x223 JUMP JUMPDEST CALLVALUE DUP1 ISZERO PUSH2 0x13C JUMPI PUSH1 0x0 DUP1 REVERT JUMPDEST POP PUSH2 0xE9 PUSH2 0x14B CALLDATASIZE PUSH1 0x4 PUSH2 0x3D6 JUMP JUMPDEST PUSH2 0x2AB JUMP JUMPDEST CALLER PUSH1 0x0 SWAP1 DUP2 MSTORE PUSH1 0x1 PUSH1 0x20 MSTORE PUSH1 0x40 SWAP1 KECCAK256 SLOAD DUP1 PUSH2 0x1CC JUMPI PUSH1 0x40 MLOAD PUSH32 0x8C379A000000000000000000000000000000000000000000000000000000000 DUP2 MSTORE PUSH1 0x20 PUSH1 0x4 DUP3 ADD MSTORE PUSH1 0xC PUSH1 0x24 DUP3 ADD MSTORE PUSH32 0x456D7074792077616C6C65740000000000000000000000000000000000000000 PUSH1 0x44 DUP3 ADD MSTORE PUSH1 0x64 ADD JUMPDEST PUSH1 0x40 MLOAD DUP1 SWAP2 SUB SWAP1 REVERT JUMPDEST CALLER PUSH1 0x0 SWAP1 DUP2 MSTORE PUSH1 0x1 PUSH1 0x20 MSTORE PUSH1 0x40 DUP1 DUP3 KECCAK256 DUP3 SWAP1 SSTORE MLOAD PUSH20 0xFFFFFFFFFFFFFFFFFFFFFFFFFFFFFFFFFFFFFFFF DUP5 AND SWAP2 DUP4 ISZERO PUSH2 0x8FC MUL SWAP2 DUP5 SWAP2 DUP2 DUP2 DUP2 DUP6 DUP9 DUP9 CALL SWAP4 POP POP POP POP ISZERO DUP1 ISZERO PUSH2 0x21E JUMPI RETURNDATASIZE PUSH1 0x0 DUP1 RETURNDATACOPY RETURNDATASIZE PUSH1 0x0 REVERT JUMPDEST POP POP POP JUMP JUMPDEST PUSH1 0x0 DUP1 SLOAD PUSH20 0xFFFFFFFFFFFFFFFFFFFFFFFFFFFFFFFFFFFFFFFF AND CALLER EQ PUSH2 0x2A5 JUMPI PUSH1 0x40 MLOAD PUSH32 0x8C379A000000000000000000000000000000000000000000000000000000000 DUP2 MSTORE PUSH1 0x20 PUSH1 0x4 DUP3 ADD MSTORE PUSH1 0xD PUSH1 0x24 DUP3 ADD MSTORE PUSH32 0x4E6F7420746865206F776E657200000000000000000000000000000000000000 PUSH1 0x44 DUP3 ADD MSTORE PUSH1 0x64 ADD PUSH2 0x1C3 JUMP JUMPDEST POP ADDRESS BALANCE SWAP1 JUMP JUMPDEST CALLER PUSH1 0x0 SWAP1 DUP2 MSTORE PUSH1 0x1 PUSH1 0x20 MSTORE PUSH1 0x40 SWAP1 KECCAK256 SLOAD DUP2 GT ISZERO PUSH2 0x324 JUMPI PUSH1 0x40 MLOAD PUSH32 0x8C379A000000000000000000000000000000000000000000000000000000000 DUP2 MSTORE PUSH1 0x20 PUSH1 0x4 DUP3 ADD MSTORE PUSH1 0x11 PUSH1 0x24 DUP3 ADD MSTORE PUSH32 0x4E6F7420656E6F75676874206D6F6E6579000000000000000000000000000000 PUSH1 0x44 DUP3 ADD MSTORE PUSH1 0x64 ADD PUSH2 0x1C3 JUMP JUMPDEST CALLER PUSH1 0x0 SWAP1 DUP2 MSTORE PUSH1 0x1 PUSH1 0x20 MSTORE PUSH1 0x40 DUP2 KECCAK256 DUP1 SLOAD DUP4 SWAP3 SWAP1 PUSH2 0x343 SWAP1 DUP5 SWAP1 PUSH2 0x400 JUMP JUMPDEST SWAP1 SWAP2 SSTORE POP POP PUSH1 0x40 MLOAD PUSH20 0xFFFFFFFFFFFFFFFFFFFFFFFFFFFFFFFFFFFFFFFF DUP4 AND SWAP1 DUP3 ISZERO PUSH2 0x8FC MUL SWAP1 DUP4 SWAP1 PUSH1 0x0 DUP2 DUP2 DUP2 DUP6 DUP9 DUP9 CALL SWAP4 POP POP POP POP ISZERO DUP1 ISZERO PUSH2 0x21E JUMPI RETURNDATASIZE PUSH1 0x0 DUP1 RETURNDATACOPY RETURNDATASIZE PUSH1 0x0 REVERT JUMPDEST DUP1 CALLDATALOAD PUSH20 0xFFFFFFFFFFFFFFFFFFFFFFFFFFFFFFFFFFFFFFFF DUP2 AND DUP2 EQ PUSH2 0x3AF JUMPI PUSH1 0x0 DUP1 REVERT JUMPDEST SWAP2 SWAP1 POP JUMP JUMPDEST PUSH1 0x0 PUSH1 0x20 DUP3 DUP5 SUB SLT ISZERO PUSH2 0x3C6 JUMPI PUSH1 0x0 DUP1 REVERT JUMPDEST PUSH2 0x3CF DUP3 PUSH2 0x38B JUMP JUMPDEST SWAP4 SWAP3 POP POP POP JUMP JUMPDEST PUSH1 0x0 DUP1 PUSH1 0x40 DUP4 DUP6 SUB SLT ISZERO PUSH2 0x3E9 JUMPI PUSH1 0x0 DUP1 REVERT JUMPDEST PUSH2 0x3F2 DUP4 PUSH2 0x38B JUMP JUMPDEST SWAP5 PUSH1 0x20 SWAP4 SWAP1 SWAP4 ADD CALLDATALOAD SWAP4 POP POP POP JUMP JUMPDEST PUSH1 0x0 DUP3 DUP3 LT ISZERO PUSH2 0x412 JUMPI PUSH2 0x412 PUSH2 0x432 JUMP JUMPDEST POP SUB SWAP1 JUMP JUMPDEST PUSH1 0x0 PUSH1 0x0 NOT DUP3 EQ ISZERO PUSH2 0x42B JUMPI PUSH2 0x42B PUSH2 0x432 JUMP JUMPDEST POP PUSH1 0x1 ADD SWAP1 JUMP JUMPDEST PUSH32 0x4E487B7100000000000000000000000000000000000000000000000000000000 PUSH1 0x0 MSTORE PUSH1 0x11 PUSH1 0x4 MSTORE PUSH1 0x24 PUSH1 0x0 REVERT INVALID LOG2 PUSH5 0x6970667358 0x22 SLT KECCAK256 SWAP16 0x49 0x5C CALLDATACOPY SSTORE DELEGATECALL SWAP8 0xC1 0xE0 DUP14 LOG3 MOD DUP5 0xCD 0xAE GT 0xF JUMPI 0xC OR PUSH32 0x2D03BFDB4E6921AEB48C2164736F6C63430008070033A2646970667358221220 EXTCODESIZE CALLCODE 0xD4 0xAC PUSH4 0x6CF1B0A8 0xF8 0x4E 0xDB 0x4C CALLDATASIZE 0xBF PUSH1 0x11 PUSH9 0x41F47A794F581D0339 0xDD MUL PUSH18 0x742D64736F6C634300080700330000000000 "
				},
				"gasEstimates": {
					"creation": {
						"codeDepositCost": "497400",
						"executionCost": "20822",
						"totalCost": "518222"
					},
					"external": {
						"createWallet()": "infinite",
						"getBalance()": "461",
						"getTotalBalance()": "873",
						"withdrawAllMoney(address)": "infinite",
						"withdrawMoney(address,uint256)": "infinite"
					}
				},
				"methodIdentifiers": {
					"createWallet()": "11ebbf24",
					"getBalance()": "12065fe0",
					"getTotalBalance()": "12b58349",
					"withdrawAllMoney(address)": "0adec93c",
					"withdrawMoney(address,uint256)": "f274c897"
				}
			},
			"storageLayout": {
				"storage": [
					{
						"astId": 3,
						"contract": "contracts/Test.sol:FactoryWallet",
						"label": "owner",
						"offset": 0,
						"slot": "0",
						"type": "t_address"
					},
					{
						"astId": 47,
						"contract": "contracts/Test.sol:FactoryWallet",
						"label": "wallets",
						"offset": 0,
						"slot": "1",
						"type": "t_mapping(t_address,t_struct(Balance)42_storage)"
					},
					{
						"astId": 192,
						"contract": "contracts/Test.sol:FactoryWallet",
						"label": "factoryWallets",
						"offset": 0,
						"slot": "2",
						"type": "t_array(t_contract(Wallet)186)dyn_storage"
					}
				],
				"types": {
					"t_address": {
						"encoding": "inplace",
						"label": "address",
						"numberOfBytes": "20"
					},
					"t_array(t_contract(Wallet)186)dyn_storage": {
						"base": "t_contract(Wallet)186",
						"encoding": "dynamic_array",
						"label": "contract Wallet[]",
						"numberOfBytes": "32"
					},
					"t_contract(Wallet)186": {
						"encoding": "inplace",
						"label": "contract Wallet",
						"numberOfBytes": "20"
					},
					"t_mapping(t_address,t_struct(Balance)42_storage)": {
						"encoding": "mapping",
						"key": "t_address",
						"label": "mapping(address => struct Wallet.Balance)",
						"numberOfBytes": "32",
						"value": "t_struct(Balance)42_storage"
					},
					"t_mapping(t_uint256,t_struct(Payment)32_storage)": {
						"encoding": "mapping",
						"key": "t_uint256",
						"label": "mapping(uint256 => struct Wallet.Payment)",
						"numberOfBytes": "32",
						"value": "t_struct(Payment)32_storage"
					},
					"t_struct(Balance)42_storage": {
						"encoding": "inplace",
						"label": "struct Wallet.Balance",
						"members": [
							{
								"astId": 34,
								"contract": "contracts/Test.sol:FactoryWallet",
								"label": "totalBalance",
								"offset": 0,
								"slot": "0",
								"type": "t_uint256"
							},
							{
								"astId": 36,
								"contract": "contracts/Test.sol:FactoryWallet",
								"label": "numberPayment",
								"offset": 0,
								"slot": "1",
								"type": "t_uint256"
							},
							{
								"astId": 41,
								"contract": "contracts/Test.sol:FactoryWallet",
								"label": "payments",
								"offset": 0,
								"slot": "2",
								"type": "t_mapping(t_uint256,t_struct(Payment)32_storage)"
							}
						],
						"numberOfBytes": "96"
					},
					"t_struct(Payment)32_storage": {
						"encoding": "inplace",
						"label": "struct Wallet.Payment",
						"members": [
							{
								"astId": 29,
								"contract": "contracts/Test.sol:FactoryWallet",
								"label": "amount",
								"offset": 0,
								"slot": "0",
								"type": "t_uint256"
							},
							{
								"astId": 31,
								"contract": "contracts/Test.sol:FactoryWallet",
								"label": "timestamp",
								"offset": 0,
								"slot": "1",
								"type": "t_uint256"
							}
						],
						"numberOfBytes": "64"
					},
					"t_uint256": {
						"encoding": "inplace",
						"label": "uint256",
						"numberOfBytes": "32"
					}
				}
			},
			"userdoc": {
				"kind": "user",
				"methods": {},
				"version": 1
			}
		}
	}
}