{
	"contracts/Test.sol": {
		"FactoryWallet": {
			"abi": [
				{
					"inputs": [],
					"name": "createWallet",
					"outputs": [
						{
							"internalType": "address",
							"name": "",
							"type": "address"
						}
					],
					"stateMutability": "nonpayable",
					"type": "function"
				}
			],
			"devdoc": {
				"kind": "dev",
				"methods": {},
				"version": 1
			},
			"evm": {
				"assembly": "    /* \"contracts/Test.sol\":82:562  contract FactoryWallet {... */\n  mstore(0x40, 0x80)\n  callvalue\n  dup1\n  iszero\n  tag_1\n  jumpi\n  0x00\n  dup1\n  revert\ntag_1:\n  pop\n  dataSize(sub_0)\n  dup1\n  dataOffset(sub_0)\n  0x00\n  codecopy\n  0x00\n  return\nstop\n\nsub_0: assembly {\n        /* \"contracts/Test.sol\":82:562  contract FactoryWallet {... */\n      mstore(0x40, 0x80)\n      callvalue\n      dup1\n      iszero\n      tag_1\n      jumpi\n      0x00\n      dup1\n      revert\n    tag_1:\n      pop\n      jumpi(tag_2, lt(calldatasize, 0x04))\n      div(calldataload(0x00), 0x0100000000000000000000000000000000000000000000000000000000)\n      0x11ebbf24\n      dup2\n      eq\n      tag_3\n      jumpi\n    tag_2:\n      0x00\n      dup1\n      revert\n        /* \"contracts/Test.sol\":259:547  function createWallet() external returns(address){... */\n    tag_3:\n      tag_4\n      tag_5\n      jump\t// in\n    tag_4:\n      mload(0x40)\n        /* \"#utility.yul\":190:232   */\n      0xffffffffffffffffffffffffffffffffffffffff\n        /* \"#utility.yul\":178:233   */\n      swap1\n      swap2\n      and\n        /* \"#utility.yul\":160:234   */\n      dup2\n      mstore\n        /* \"#utility.yul\":148:150   */\n      0x20\n        /* \"#utility.yul\":133:151   */\n      add\n        /* \"contracts/Test.sol\":259:547  function createWallet() external returns(address){... */\n      mload(0x40)\n      dup1\n      swap2\n      sub\n      swap1\n      return\n    tag_5:\n        /* \"contracts/Test.sol\":342:352  msg.sender */\n      caller\n        /* \"contracts/Test.sol\":300:307  address */\n      0x00\n        /* \"contracts/Test.sol\":327:353  factoryWallets[msg.sender] */\n      swap1\n      dup2\n      mstore\n      0x20\n      dup2\n      swap1\n      mstore\n      0x40\n      dup2\n      keccak256\n        /* \"contracts/Test.sol\":327:361  factoryWallets[msg.sender].created */\n      sload\n      0x010000000000000000000000000000000000000000\n      swap1\n      div\n      0xff\n      and\n        /* \"contracts/Test.sol\":326:361  !factoryWallets[msg.sender].created */\n      iszero\n        /* \"contracts/Test.sol\":318:381  require(!factoryWallets[msg.sender].created, \"Already Created\") */\n      tag_9\n      jumpi\n      mload(0x40)\n      0x08c379a000000000000000000000000000000000000000000000000000000000\n      dup2\n      mstore\n        /* \"#utility.yul\":447:449   */\n      0x20\n        /* \"contracts/Test.sol\":318:381  require(!factoryWallets[msg.sender].created, \"Already Created\") */\n      0x04\n      dup3\n      add\n        /* \"#utility.yul\":429:450   */\n      mstore\n        /* \"#utility.yul\":486:488   */\n      0x0f\n        /* \"#utility.yul\":466:484   */\n      0x24\n      dup3\n      add\n        /* \"#utility.yul\":459:489   */\n      mstore\n        /* \"#utility.yul\":525:542   */\n      0x416c726561647920437265617465640000000000000000000000000000000000\n        /* \"#utility.yul\":505:523   */\n      0x44\n      dup3\n      add\n        /* \"#utility.yul\":498:543   */\n      mstore\n        /* \"#utility.yul\":560:578   */\n      0x64\n      add\n        /* \"contracts/Test.sol\":318:381  require(!factoryWallets[msg.sender].created, \"Already Created\") */\n      mload(0x40)\n      dup1\n      swap2\n      sub\n      swap1\n      revert\n    tag_9:\n        /* \"contracts/Test.sol\":391:399  Wallet w */\n      0x00\n        /* \"contracts/Test.sol\":402:414  new Wallet() */\n      mload(0x40)\n      tag_12\n      swap1\n      tag_13\n      jump\t// in\n    tag_12:\n      mload(0x40)\n      dup1\n      swap2\n      sub\n      swap1\n      0x00\n      create\n      dup1\n      iszero\n      dup1\n      iszero\n      tag_14\n      jumpi\n      returndatasize\n      0x00\n      dup1\n      returndatacopy\n      revert(0x00, returndatasize)\n    tag_14:\n      pop\n        /* \"contracts/Test.sol\":439:449  msg.sender */\n      caller\n        /* \"contracts/Test.sol\":424:438  factoryWallets */\n      0x00\n        /* \"contracts/Test.sol\":424:450  factoryWallets[msg.sender] */\n      swap1\n      dup2\n      mstore\n      0x20\n      dup2\n      swap1\n      mstore\n      0x40\n      swap1\n      keccak256\n        /* \"contracts/Test.sol\":424:461  factoryWallets[msg.sender].wallet = w */\n      dup1\n      sload\n      not(0xffffffffffffffffffffffffffffffffffffffffff)\n        /* \"contracts/Test.sol\":471:512  factoryWallets[msg.sender].created = true */\n      and\n        /* \"contracts/Test.sol\":424:450  factoryWallets[msg.sender] */\n      0xffffffffffffffffffffffffffffffffffffffff\n        /* \"contracts/Test.sol\":424:461  factoryWallets[msg.sender].wallet = w */\n      dup4\n      and\n        /* \"contracts/Test.sol\":471:512  factoryWallets[msg.sender].created = true */\n      or\n      0x010000000000000000000000000000000000000000\n      or\n      swap1\n      sstore\n        /* \"contracts/Test.sol\":391:414  Wallet w = new Wallet() */\n      swap3\n        /* \"contracts/Test.sol\":259:547  function createWallet() external returns(address){... */\n      swap2\n      pop\n      pop\n      jump\t// out\n    tag_13:\n      dataSize(sub_0)\n      dup1\n      dataOffset(sub_0)\n      dup4\n      codecopy\n      add\n      swap1\n      jump\t// out\n    stop\n\n    sub_0: assembly {\n            /* \"contracts/Wallet.sol\":119:1428  contract Wallet is Ownable {... */\n          mstore(0x40, 0x80)\n          callvalue\n          dup1\n          iszero\n          tag_1\n          jumpi\n          0x00\n          dup1\n          revert\n        tag_1:\n          pop\n            /* \"contracts/Ownable.sol\":127:132  owner */\n          0x00\n            /* \"contracts/Ownable.sol\":127:145  owner = msg.sender */\n          dup1\n          sload\n          not(0xffffffffffffffffffffffffffffffffffffffff)\n          and\n            /* \"contracts/Ownable.sol\":135:145  msg.sender */\n          caller\n            /* \"contracts/Ownable.sol\":127:145  owner = msg.sender */\n          or\n          dup2\n          sstore\n          0x0497\n          swap1\n          dup2\n          swap1\n            /* \"contracts/Wallet.sol\":119:1428  contract Wallet is Ownable {... */\n          dataOffset(sub_0)\n          swap1\n          codecopy\n          0x00\n          return\n        stop\n\n        sub_0: assembly {\n                /* \"contracts/Wallet.sol\":119:1428  contract Wallet is Ownable {... */\n              mstore(0x40, 0x80)\n              jumpi(tag_1, lt(calldatasize, 0x04))\n              div(calldataload(0x00), 0x0100000000000000000000000000000000000000000000000000000000)\n              0x0adec93c\n              dup2\n              eq\n              tag_3\n              jumpi\n              dup1\n              0x12065fe0\n              eq\n              tag_4\n              jumpi\n              dup1\n              0x12b58349\n              eq\n              tag_5\n              jumpi\n              dup1\n              0xf274c897\n              eq\n              tag_6\n              jumpi\n              0x00\n              dup1\n              revert\n            tag_1:\n              jumpi(tag_2, calldatasize)\n                /* \"contracts/Wallet.sol\":457:492  Payment(msg.value, block.timestamp) */\n              0x40\n              dup1\n              mload\n              dup1\n              dup3\n              add\n              dup3\n              mstore\n                /* \"contracts/Wallet.sol\":465:474  msg.value */\n              callvalue\n                /* \"contracts/Wallet.sol\":457:492  Payment(msg.value, block.timestamp) */\n              dup1\n              dup3\n              mstore\n                /* \"contracts/Wallet.sol\":476:491  block.timestamp */\n              timestamp\n                /* \"contracts/Wallet.sol\":457:492  Payment(msg.value, block.timestamp) */\n              0x20\n              dup1\n              dup5\n              add\n              swap2\n              dup3\n              mstore\n                /* \"contracts/Wallet.sol\":510:520  msg.sender */\n              caller\n                /* \"contracts/Wallet.sol\":432:454  Payment memory payment */\n              0x00\n                /* \"contracts/Wallet.sol\":502:521  wallets[msg.sender] */\n              dup2\n              dup2\n              mstore\n                /* \"contracts/Wallet.sol\":502:509  wallets */\n              0x01\n                /* \"contracts/Wallet.sol\":502:521  wallets[msg.sender] */\n              dup1\n              dup5\n              mstore\n              dup8\n              dup3\n              keccak256\n                /* \"contracts/Wallet.sol\":502:546  wallets[msg.sender].totalBalance = msg.value */\n              swap6\n              dup7\n              sstore\n                /* \"contracts/Wallet.sol\":590:623  wallets[msg.sender].numberPayment */\n              dup6\n              dup2\n              add\n              dup1\n              sload\n                /* \"contracts/Wallet.sol\":561:624  wallets[msg.sender].payments[wallets[msg.sender].numberPayment] */\n              dup4\n              mstore\n                /* \"contracts/Wallet.sol\":561:589  wallets[msg.sender].payments */\n              0x02\n              swap1\n              swap7\n              add\n                /* \"contracts/Wallet.sol\":561:624  wallets[msg.sender].payments[wallets[msg.sender].numberPayment] */\n              dup5\n              mstore\n              swap7\n              dup2\n              keccak256\n                /* \"contracts/Wallet.sol\":561:634  wallets[msg.sender].payments[wallets[msg.sender].numberPayment] = payment */\n              dup7\n              mload\n              dup2\n              sstore\n              swap4\n              mload\n              swap4\n              dup8\n              add\n              swap4\n              swap1\n              swap4\n              sstore\n                /* \"contracts/Wallet.sol\":649:668  wallets[msg.sender] */\n              dup3\n              mstore\n              swap4\n              swap1\n              swap4\n              mstore\n                /* \"contracts/Wallet.sol\":649:684  wallets[msg.sender].numberPayment++ */\n              dup1\n              sload\n                /* \"contracts/Wallet.sol\":457:492  Payment(msg.value, block.timestamp) */\n              swap2\n              swap3\n                /* \"contracts/Wallet.sol\":649:684  wallets[msg.sender].numberPayment++ */\n              tag_9\n              dup4\n              tag_10\n              jump\t// in\n            tag_9:\n              swap2\n              swap1\n              pop\n              sstore\n              pop\n                /* \"contracts/Wallet.sol\":422:696  {... */\n              pop\n                /* \"contracts/Wallet.sol\":119:1428  contract Wallet is Ownable {... */\n              stop\n            tag_2:\n              0x00\n              dup1\n              revert\n                /* \"contracts/Wallet.sol\":936:1178  function withdrawAllMoney(address payable _to) external {... */\n            tag_3:\n              callvalue\n              dup1\n              iszero\n              tag_11\n              jumpi\n              0x00\n              dup1\n              revert\n            tag_11:\n              pop\n              tag_12\n              tag_13\n              calldatasize\n              0x04\n              tag_14\n              jump\t// in\n            tag_13:\n              tag_15\n              jump\t// in\n            tag_12:\n              stop\n                /* \"contracts/Wallet.sol\":822:930  function getBalance() external view  returns (uint) {... */\n            tag_4:\n              callvalue\n              dup1\n              iszero\n              tag_16\n              jumpi\n              0x00\n              dup1\n              revert\n            tag_16:\n              pop\n                /* \"contracts/Wallet.sol\":899:909  msg.sender */\n              caller\n                /* \"contracts/Wallet.sol\":868:872  uint */\n              0x00\n                /* \"contracts/Wallet.sol\":891:910  wallets[msg.sender] */\n              swap1\n              dup2\n              mstore\n                /* \"contracts/Wallet.sol\":891:898  wallets */\n              0x01\n                /* \"contracts/Wallet.sol\":891:910  wallets[msg.sender] */\n              0x20\n              mstore\n              0x40\n              swap1\n              keccak256\n                /* \"contracts/Wallet.sol\":891:923  wallets[msg.sender].totalBalance */\n              sload\n                /* \"contracts/Wallet.sol\":822:930  function getBalance() external view  returns (uint) {... */\n            tag_17:\n              mload(0x40)\n                /* \"#utility.yul\":1880:1905   */\n              swap1\n              dup2\n              mstore\n                /* \"#utility.yul\":1868:1870   */\n              0x20\n                /* \"#utility.yul\":1853:1871   */\n              add\n                /* \"contracts/Wallet.sol\":822:930  function getBalance() external view  returns (uint) {... */\n              mload(0x40)\n              dup1\n              swap2\n              sub\n              swap1\n              return\n                /* \"contracts/Wallet.sol\":702:813  function getTotalBalance() external view onlyOwner returns (uint) {... */\n            tag_5:\n              callvalue\n              dup1\n              iszero\n              tag_21\n              jumpi\n              0x00\n              dup1\n              revert\n            tag_21:\n              pop\n              tag_17\n              tag_23\n              jump\t// in\n                /* \"contracts/Wallet.sol\":1184:1426  function withdrawMoney(address payable _to, uint _amount) external {... */\n            tag_6:\n              callvalue\n              dup1\n              iszero\n              tag_25\n              jumpi\n              0x00\n              dup1\n              revert\n            tag_25:\n              pop\n              tag_12\n              tag_27\n              calldatasize\n              0x04\n              tag_28\n              jump\t// in\n            tag_27:\n              tag_29\n              jump\t// in\n                /* \"contracts/Wallet.sol\":936:1178  function withdrawAllMoney(address payable _to) external {... */\n            tag_15:\n                /* \"contracts/Wallet.sol\":1024:1034  msg.sender */\n              caller\n                /* \"contracts/Wallet.sol\":1002:1013  uint amount */\n              0x00\n                /* \"contracts/Wallet.sol\":1016:1035  wallets[msg.sender] */\n              swap1\n              dup2\n              mstore\n                /* \"contracts/Wallet.sol\":1016:1023  wallets */\n              0x01\n                /* \"contracts/Wallet.sol\":1016:1035  wallets[msg.sender] */\n              0x20\n              mstore\n              0x40\n              swap1\n              keccak256\n                /* \"contracts/Wallet.sol\":1016:1048  wallets[msg.sender].totalBalance */\n              sload\n                /* \"contracts/Wallet.sol\":1066:1077  amount != 0 */\n              dup1\n                /* \"contracts/Wallet.sol\":1058:1095  require(amount != 0 , \"Empty wallet\") */\n              tag_31\n              jumpi\n              mload(0x40)\n              0x08c379a000000000000000000000000000000000000000000000000000000000\n              dup2\n              mstore\n                /* \"#utility.yul\":1595:1597   */\n              0x20\n                /* \"contracts/Wallet.sol\":1058:1095  require(amount != 0 , \"Empty wallet\") */\n              0x04\n              dup3\n              add\n                /* \"#utility.yul\":1577:1598   */\n              mstore\n                /* \"#utility.yul\":1634:1636   */\n              0x0c\n                /* \"#utility.yul\":1614:1632   */\n              0x24\n              dup3\n              add\n                /* \"#utility.yul\":1607:1637   */\n              mstore\n                /* \"#utility.yul\":1673:1687   */\n              0x456d7074792077616c6c65740000000000000000000000000000000000000000\n                /* \"#utility.yul\":1653:1671   */\n              0x44\n              dup3\n              add\n                /* \"#utility.yul\":1646:1688   */\n              mstore\n                /* \"#utility.yul\":1705:1723   */\n              0x64\n              add\n                /* \"contracts/Wallet.sol\":1058:1095  require(amount != 0 , \"Empty wallet\") */\n            tag_32:\n              mload(0x40)\n              dup1\n              swap2\n              sub\n              swap1\n              revert\n            tag_31:\n                /* \"contracts/Wallet.sol\":1113:1123  msg.sender */\n              caller\n                /* \"contracts/Wallet.sol\":1140:1141  0 */\n              0x00\n                /* \"contracts/Wallet.sol\":1105:1124  wallets[msg.sender] */\n              swap1\n              dup2\n              mstore\n                /* \"contracts/Wallet.sol\":1105:1112  wallets */\n              0x01\n                /* \"contracts/Wallet.sol\":1105:1124  wallets[msg.sender] */\n              0x20\n              mstore\n              0x40\n              dup1\n              dup3\n              keccak256\n                /* \"contracts/Wallet.sol\":1105:1141  wallets[msg.sender].totalBalance = 0 */\n              dup3\n              swap1\n              sstore\n                /* \"contracts/Wallet.sol\":1151:1171  _to.transfer(amount) */\n              mload\n                /* \"contracts/Wallet.sol\":1105:1124  wallets[msg.sender] */\n              0xffffffffffffffffffffffffffffffffffffffff\n                /* \"contracts/Wallet.sol\":1151:1163  _to.transfer */\n              dup5\n              and\n              swap2\n                /* \"contracts/Wallet.sol\":1151:1171  _to.transfer(amount) */\n              dup4\n              iszero\n              0x08fc\n              mul\n              swap2\n                /* \"contracts/Wallet.sol\":1164:1170  amount */\n              dup5\n              swap2\n                /* \"contracts/Wallet.sol\":1151:1171  _to.transfer(amount) */\n              dup2\n                /* \"contracts/Wallet.sol\":1140:1141  0 */\n              dup2\n                /* \"contracts/Wallet.sol\":1151:1171  _to.transfer(amount) */\n              dup2\n                /* \"contracts/Wallet.sol\":1164:1170  amount */\n              dup6\n                /* \"contracts/Wallet.sol\":1151:1163  _to.transfer */\n              dup9\n                /* \"contracts/Wallet.sol\":1151:1171  _to.transfer(amount) */\n              dup9\n              call\n              swap4\n              pop\n              pop\n              pop\n              pop\n              iszero\n              dup1\n              iszero\n              tag_35\n              jumpi\n              returndatasize\n              0x00\n              dup1\n              returndatacopy\n              revert(0x00, returndatasize)\n            tag_35:\n              pop\n                /* \"contracts/Wallet.sol\":992:1178  {... */\n              pop\n                /* \"contracts/Wallet.sol\":936:1178  function withdrawAllMoney(address payable _to) external {... */\n              pop\n              jump\t// out\n                /* \"contracts/Wallet.sol\":702:813  function getTotalBalance() external view onlyOwner returns (uint) {... */\n            tag_23:\n                /* \"contracts/Wallet.sol\":762:766  uint */\n              0x00\n                /* \"contracts/Ownable.sol\":211:216  owner */\n              dup1\n              sload\n              0xffffffffffffffffffffffffffffffffffffffff\n              and\n                /* \"contracts/Ownable.sol\":197:207  msg.sender */\n              caller\n                /* \"contracts/Ownable.sol\":197:216  msg.sender == owner */\n              eq\n                /* \"contracts/Ownable.sol\":189:234  require(msg.sender == owner, \"Not the owner\") */\n              tag_38\n              jumpi\n              mload(0x40)\n              0x08c379a000000000000000000000000000000000000000000000000000000000\n              dup2\n              mstore\n                /* \"#utility.yul\":907:909   */\n              0x20\n                /* \"contracts/Ownable.sol\":189:234  require(msg.sender == owner, \"Not the owner\") */\n              0x04\n              dup3\n              add\n                /* \"#utility.yul\":889:910   */\n              mstore\n                /* \"#utility.yul\":946:948   */\n              0x0d\n                /* \"#utility.yul\":926:944   */\n              0x24\n              dup3\n              add\n                /* \"#utility.yul\":919:949   */\n              mstore\n                /* \"#utility.yul\":985:1000   */\n              0x4e6f7420746865206f776e657200000000000000000000000000000000000000\n                /* \"#utility.yul\":965:983   */\n              0x44\n              dup3\n              add\n                /* \"#utility.yul\":958:1001   */\n              mstore\n                /* \"#utility.yul\":1018:1036   */\n              0x64\n              add\n                /* \"contracts/Ownable.sol\":189:234  require(msg.sender == owner, \"Not the owner\") */\n              tag_32\n                /* \"#utility.yul\":705:1042   */\n              jump\n                /* \"contracts/Ownable.sol\":189:234  require(msg.sender == owner, \"Not the owner\") */\n            tag_38:\n              pop\n                /* \"contracts/Wallet.sol\":793:797  this */\n              address\n                /* \"contracts/Wallet.sol\":785:806  address(this).balance */\n              balance\n                /* \"contracts/Wallet.sol\":702:813  function getTotalBalance() external view onlyOwner returns (uint) {... */\n              swap1\n              jump\t// out\n                /* \"contracts/Wallet.sol\":1184:1426  function withdrawMoney(address payable _to, uint _amount) external {... */\n            tag_29:\n                /* \"contracts/Wallet.sol\":1288:1298  msg.sender */\n              caller\n                /* \"contracts/Wallet.sol\":1280:1299  wallets[msg.sender] */\n              0x00\n              swap1\n              dup2\n              mstore\n                /* \"contracts/Wallet.sol\":1280:1287  wallets */\n              0x01\n                /* \"contracts/Wallet.sol\":1280:1299  wallets[msg.sender] */\n              0x20\n              mstore\n              0x40\n              swap1\n              keccak256\n                /* \"contracts/Wallet.sol\":1280:1312  wallets[msg.sender].totalBalance */\n              sload\n                /* \"contracts/Wallet.sol\":1269:1312  _amount <= wallets[msg.sender].totalBalance */\n              dup2\n              gt\n              iszero\n                /* \"contracts/Wallet.sol\":1261:1334  require(_amount <= wallets[msg.sender].totalBalance, \"Not enought money\") */\n              tag_43\n              jumpi\n              mload(0x40)\n              0x08c379a000000000000000000000000000000000000000000000000000000000\n              dup2\n              mstore\n                /* \"#utility.yul\":1249:1251   */\n              0x20\n                /* \"contracts/Wallet.sol\":1261:1334  require(_amount <= wallets[msg.sender].totalBalance, \"Not enought money\") */\n              0x04\n              dup3\n              add\n                /* \"#utility.yul\":1231:1252   */\n              mstore\n                /* \"#utility.yul\":1288:1290   */\n              0x11\n                /* \"#utility.yul\":1268:1286   */\n              0x24\n              dup3\n              add\n                /* \"#utility.yul\":1261:1291   */\n              mstore\n                /* \"#utility.yul\":1327:1346   */\n              0x4e6f7420656e6f75676874206d6f6e6579000000000000000000000000000000\n                /* \"#utility.yul\":1307:1325   */\n              0x44\n              dup3\n              add\n                /* \"#utility.yul\":1300:1347   */\n              mstore\n                /* \"#utility.yul\":1364:1382   */\n              0x64\n              add\n                /* \"contracts/Wallet.sol\":1261:1334  require(_amount <= wallets[msg.sender].totalBalance, \"Not enought money\") */\n              tag_32\n                /* \"#utility.yul\":1047:1388   */\n              jump\n                /* \"contracts/Wallet.sol\":1261:1334  require(_amount <= wallets[msg.sender].totalBalance, \"Not enought money\") */\n            tag_43:\n                /* \"contracts/Wallet.sol\":1353:1363  msg.sender */\n              caller\n                /* \"contracts/Wallet.sol\":1345:1364  wallets[msg.sender] */\n              0x00\n              swap1\n              dup2\n              mstore\n                /* \"contracts/Wallet.sol\":1345:1352  wallets */\n              0x01\n                /* \"contracts/Wallet.sol\":1345:1364  wallets[msg.sender] */\n              0x20\n              mstore\n              0x40\n              dup2\n              keccak256\n                /* \"contracts/Wallet.sol\":1345:1388  wallets[msg.sender].totalBalance -= _amount */\n              dup1\n              sload\n                /* \"contracts/Wallet.sol\":1381:1388  _amount */\n              dup4\n              swap3\n                /* \"contracts/Wallet.sol\":1345:1364  wallets[msg.sender] */\n              swap1\n                /* \"contracts/Wallet.sol\":1345:1388  wallets[msg.sender].totalBalance -= _amount */\n              tag_46\n              swap1\n                /* \"contracts/Wallet.sol\":1381:1388  _amount */\n              dup5\n              swap1\n                /* \"contracts/Wallet.sol\":1345:1388  wallets[msg.sender].totalBalance -= _amount */\n              tag_47\n              jump\t// in\n            tag_46:\n              swap1\n              swap2\n              sstore\n              pop\n              pop\n                /* \"contracts/Wallet.sol\":1398:1419  _to.transfer(_amount) */\n              mload(0x40)\n                /* \"contracts/Wallet.sol\":1398:1410  _to.transfer */\n              0xffffffffffffffffffffffffffffffffffffffff\n              dup4\n              and\n              swap1\n                /* \"contracts/Wallet.sol\":1398:1419  _to.transfer(_amount) */\n              dup3\n              iszero\n              0x08fc\n              mul\n              swap1\n                /* \"contracts/Wallet.sol\":1411:1418  _amount */\n              dup4\n              swap1\n                /* \"contracts/Wallet.sol\":1398:1419  _to.transfer(_amount) */\n              0x00\n              dup2\n              dup2\n              dup2\n                /* \"contracts/Wallet.sol\":1411:1418  _amount */\n              dup6\n                /* \"contracts/Wallet.sol\":1398:1410  _to.transfer */\n              dup9\n                /* \"contracts/Wallet.sol\":1398:1419  _to.transfer(_amount) */\n              dup9\n              call\n              swap4\n              pop\n              pop\n              pop\n              pop\n              iszero\n              dup1\n              iszero\n              tag_35\n              jumpi\n              returndatasize\n              0x00\n              dup1\n              returndatacopy\n              revert(0x00, returndatasize)\n                /* \"#utility.yul\":14:218   */\n            tag_51:\n                /* \"#utility.yul\":90:110   */\n              dup1\n              calldataload\n                /* \"#utility.yul\":150:192   */\n              0xffffffffffffffffffffffffffffffffffffffff\n                /* \"#utility.yul\":139:193   */\n              dup2\n              and\n                /* \"#utility.yul\":129:194   */\n              dup2\n              eq\n                /* \"#utility.yul\":119:212   */\n              tag_53\n              jumpi\n                /* \"#utility.yul\":208:209   */\n              0x00\n                /* \"#utility.yul\":205:206   */\n              dup1\n                /* \"#utility.yul\":198:210   */\n              revert\n                /* \"#utility.yul\":119:212   */\n            tag_53:\n                /* \"#utility.yul\":14:218   */\n              swap2\n              swap1\n              pop\n              jump\t// out\n                /* \"#utility.yul\":223:425   */\n            tag_14:\n                /* \"#utility.yul\":290:296   */\n              0x00\n                /* \"#utility.yul\":343:345   */\n              0x20\n                /* \"#utility.yul\":331:340   */\n              dup3\n                /* \"#utility.yul\":322:329   */\n              dup5\n                /* \"#utility.yul\":318:341   */\n              sub\n                /* \"#utility.yul\":314:346   */\n              slt\n                /* \"#utility.yul\":311:363   */\n              iszero\n              tag_55\n              jumpi\n                /* \"#utility.yul\":359:360   */\n              0x00\n                /* \"#utility.yul\":356:357   */\n              dup1\n                /* \"#utility.yul\":349:361   */\n              revert\n                /* \"#utility.yul\":311:363   */\n            tag_55:\n                /* \"#utility.yul\":382:419   */\n              tag_56\n                /* \"#utility.yul\":409:418   */\n              dup3\n                /* \"#utility.yul\":382:419   */\n              tag_51\n              jump\t// in\n            tag_56:\n                /* \"#utility.yul\":372:419   */\n              swap4\n                /* \"#utility.yul\":223:425   */\n              swap3\n              pop\n              pop\n              pop\n              jump\t// out\n                /* \"#utility.yul\":430:700   */\n            tag_28:\n                /* \"#utility.yul\":506:512   */\n              0x00\n                /* \"#utility.yul\":514:520   */\n              dup1\n                /* \"#utility.yul\":567:569   */\n              0x40\n                /* \"#utility.yul\":555:564   */\n              dup4\n                /* \"#utility.yul\":546:553   */\n              dup6\n                /* \"#utility.yul\":542:565   */\n              sub\n                /* \"#utility.yul\":538:570   */\n              slt\n                /* \"#utility.yul\":535:587   */\n              iszero\n              tag_58\n              jumpi\n                /* \"#utility.yul\":583:584   */\n              0x00\n                /* \"#utility.yul\":580:581   */\n              dup1\n                /* \"#utility.yul\":573:585   */\n              revert\n                /* \"#utility.yul\":535:587   */\n            tag_58:\n                /* \"#utility.yul\":606:643   */\n              tag_59\n                /* \"#utility.yul\":633:642   */\n              dup4\n                /* \"#utility.yul\":606:643   */\n              tag_51\n              jump\t// in\n            tag_59:\n                /* \"#utility.yul\":596:643   */\n              swap5\n                /* \"#utility.yul\":690:692   */\n              0x20\n                /* \"#utility.yul\":675:693   */\n              swap4\n              swap1\n              swap4\n              add\n                /* \"#utility.yul\":662:694   */\n              calldataload\n              swap4\n              pop\n              pop\n              pop\n                /* \"#utility.yul\":430:700   */\n              jump\t// out\n                /* \"#utility.yul\":1916:2041   */\n            tag_47:\n                /* \"#utility.yul\":1956:1960   */\n              0x00\n                /* \"#utility.yul\":1984:1985   */\n              dup3\n                /* \"#utility.yul\":1981:1982   */\n              dup3\n                /* \"#utility.yul\":1978:1986   */\n              lt\n                /* \"#utility.yul\":1975:2009   */\n              iszero\n              tag_66\n              jumpi\n                /* \"#utility.yul\":1989:2007   */\n              tag_66\n              tag_67\n              jump\t// in\n            tag_66:\n              pop\n                /* \"#utility.yul\":2026:2035   */\n              sub\n              swap1\n                /* \"#utility.yul\":1916:2041   */\n              jump\t// out\n                /* \"#utility.yul\":2046:2181   */\n            tag_10:\n                /* \"#utility.yul\":2085:2088   */\n              0x00\n              not(0x00)\n                /* \"#utility.yul\":2106:2123   */\n              dup3\n              eq\n                /* \"#utility.yul\":2103:2146   */\n              iszero\n              tag_70\n              jumpi\n                /* \"#utility.yul\":2126:2144   */\n              tag_70\n              tag_67\n              jump\t// in\n            tag_70:\n              pop\n                /* \"#utility.yul\":2173:2174   */\n              0x01\n                /* \"#utility.yul\":2162:2175   */\n              add\n              swap1\n                /* \"#utility.yul\":2046:2181   */\n              jump\t// out\n                /* \"#utility.yul\":2186:2370   */\n            tag_67:\n                /* \"#utility.yul\":2238:2315   */\n              0x4e487b7100000000000000000000000000000000000000000000000000000000\n                /* \"#utility.yul\":2235:2236   */\n              0x00\n                /* \"#utility.yul\":2228:2316   */\n              mstore\n                /* \"#utility.yul\":2335:2339   */\n              0x11\n                /* \"#utility.yul\":2332:2333   */\n              0x04\n                /* \"#utility.yul\":2325:2340   */\n              mstore\n                /* \"#utility.yul\":2359:2363   */\n              0x24\n                /* \"#utility.yul\":2356:2357   */\n              0x00\n                /* \"#utility.yul\":2349:2364   */\n              revert\n\n            auxdata: 0xa2646970667358221220a95a5247b9fb55c7fbd142f9c6120b5b92225a72b36f505b81228cbd53019eb064736f6c63430008070033\n        }\n    }\n\n    auxdata: 0xa264697066735822122007929524ca0dba65ef88e121e1594d105c646a1735e6cd420a438be8dc1be05864736f6c63430008070033\n}\n",
				"bytecode": {
					"linkReferences": {},
					"object": "608060405234801561001057600080fd5b506106aa806100206000396000f3fe608060405234801561001057600080fd5b5060043610610047577c0100000000000000000000000000000000000000000000000000000000600035046311ebbf24811461004c575b600080fd5b61005461007d565b60405173ffffffffffffffffffffffffffffffffffffffff909116815260200160405180910390f35b3360009081526020819052604081205474010000000000000000000000000000000000000000900460ff1615610113576040517f08c379a000000000000000000000000000000000000000000000000000000000815260206004820152600f60248201527f416c726561647920437265617465640000000000000000000000000000000000604482015260640160405180910390fd5b60006040516101219061019e565b604051809103906000f08015801561013d573d6000803e3d6000fd5b50336000908152602081905260409020805474ffffffffffffffffffffffffffffffffffffffffff191673ffffffffffffffffffffffffffffffffffffffff8316177401000000000000000000000000000000000000000017905592915050565b6104c9806101ac8339019056fe608060405234801561001057600080fd5b5060008054600160a060020a03191633179055610497806100326000396000f3fe60806040526004361061005f577c010000000000000000000000000000000000000000000000000000000060003504630adec93c81146100c957806312065fe0146100eb57806312b583491461011b578063f274c8971461013057600080fd5b366100c457604080518082018252348082524260208084019182523360008181526001808452878220958655858101805483526002909601845296812086518155935193870193909355825293909352805491926100bc83610417565b919050555050005b600080fd5b3480156100d557600080fd5b506100e96100e43660046103b4565b610150565b005b3480156100f757600080fd5b50336000908152600160205260409020545b60405190815260200160405180910390f35b34801561012757600080fd5b50610109610223565b34801561013c57600080fd5b506100e961014b3660046103d6565b6102ab565b33600090815260016020526040902054806101cc576040517f08c379a000000000000000000000000000000000000000000000000000000000815260206004820152600c60248201527f456d7074792077616c6c6574000000000000000000000000000000000000000060448201526064015b60405180910390fd5b336000908152600160205260408082208290555173ffffffffffffffffffffffffffffffffffffffff84169183156108fc02918491818181858888f1935050505015801561021e573d6000803e3d6000fd5b505050565b6000805473ffffffffffffffffffffffffffffffffffffffff1633146102a5576040517f08c379a000000000000000000000000000000000000000000000000000000000815260206004820152600d60248201527f4e6f7420746865206f776e65720000000000000000000000000000000000000060448201526064016101c3565b50303190565b33600090815260016020526040902054811115610324576040517f08c379a000000000000000000000000000000000000000000000000000000000815260206004820152601160248201527f4e6f7420656e6f75676874206d6f6e657900000000000000000000000000000060448201526064016101c3565b3360009081526001602052604081208054839290610343908490610400565b909155505060405173ffffffffffffffffffffffffffffffffffffffff83169082156108fc029083906000818181858888f1935050505015801561021e573d6000803e3d6000fd5b803573ffffffffffffffffffffffffffffffffffffffff811681146103af57600080fd5b919050565b6000602082840312156103c657600080fd5b6103cf8261038b565b9392505050565b600080604083850312156103e957600080fd5b6103f28361038b565b946020939093013593505050565b60008282101561041257610412610432565b500390565b600060001982141561042b5761042b610432565b5060010190565b7f4e487b7100000000000000000000000000000000000000000000000000000000600052601160045260246000fdfea2646970667358221220a95a5247b9fb55c7fbd142f9c6120b5b92225a72b36f505b81228cbd53019eb064736f6c63430008070033a264697066735822122007929524ca0dba65ef88e121e1594d105c646a1735e6cd420a438be8dc1be05864736f6c63430008070033",
					"opcodes": "PUSH1 0x80 PUSH1 0x40 MSTORE CALLVALUE DUP1 ISZERO PUSH2 0x10 JUMPI PUSH1 0x0 DUP1 REVERT JUMPDEST POP PUSH2 0x6AA DUP1 PUSH2 0x20 PUSH1 0x0 CODECOPY PUSH1 0x0 RETURN INVALID PUSH1 0x80 PUSH1 0x40 MSTORE CALLVALUE DUP1 ISZERO PUSH2 0x10 JUMPI PUSH1 0x0 DUP1 REVERT JUMPDEST POP PUSH1 0x4 CALLDATASIZE LT PUSH2 0x47 JUMPI PUSH29 0x100000000000000000000000000000000000000000000000000000000 PUSH1 0x0 CALLDATALOAD DIV PUSH4 0x11EBBF24 DUP2 EQ PUSH2 0x4C JUMPI JUMPDEST PUSH1 0x0 DUP1 REVERT JUMPDEST PUSH2 0x54 PUSH2 0x7D JUMP JUMPDEST PUSH1 0x40 MLOAD PUSH20 0xFFFFFFFFFFFFFFFFFFFFFFFFFFFFFFFFFFFFFFFF SWAP1 SWAP2 AND DUP2 MSTORE PUSH1 0x20 ADD PUSH1 0x40 MLOAD DUP1 SWAP2 SUB SWAP1 RETURN JUMPDEST CALLER PUSH1 0x0 SWAP1 DUP2 MSTORE PUSH1 0x20 DUP2 SWAP1 MSTORE PUSH1 0x40 DUP2 KECCAK256 SLOAD PUSH21 0x10000000000000000000000000000000000000000 SWAP1 DIV PUSH1 0xFF AND ISZERO PUSH2 0x113 JUMPI PUSH1 0x40 MLOAD PUSH32 0x8C379A000000000000000000000000000000000000000000000000000000000 DUP2 MSTORE PUSH1 0x20 PUSH1 0x4 DUP3 ADD MSTORE PUSH1 0xF PUSH1 0x24 DUP3 ADD MSTORE PUSH32 0x416C726561647920437265617465640000000000000000000000000000000000 PUSH1 0x44 DUP3 ADD MSTORE PUSH1 0x64 ADD PUSH1 0x40 MLOAD DUP1 SWAP2 SUB SWAP1 REVERT JUMPDEST PUSH1 0x0 PUSH1 0x40 MLOAD PUSH2 0x121 SWAP1 PUSH2 0x19E JUMP JUMPDEST PUSH1 0x40 MLOAD DUP1 SWAP2 SUB SWAP1 PUSH1 0x0 CREATE DUP1 ISZERO DUP1 ISZERO PUSH2 0x13D JUMPI RETURNDATASIZE PUSH1 0x0 DUP1 RETURNDATACOPY RETURNDATASIZE PUSH1 0x0 REVERT JUMPDEST POP CALLER PUSH1 0x0 SWAP1 DUP2 MSTORE PUSH1 0x20 DUP2 SWAP1 MSTORE PUSH1 0x40 SWAP1 KECCAK256 DUP1 SLOAD PUSH21 0xFFFFFFFFFFFFFFFFFFFFFFFFFFFFFFFFFFFFFFFFFF NOT AND PUSH20 0xFFFFFFFFFFFFFFFFFFFFFFFFFFFFFFFFFFFFFFFF DUP4 AND OR PUSH21 0x10000000000000000000000000000000000000000 OR SWAP1 SSTORE SWAP3 SWAP2 POP POP JUMP JUMPDEST PUSH2 0x4C9 DUP1 PUSH2 0x1AC DUP4 CODECOPY ADD SWAP1 JUMP INVALID PUSH1 0x80 PUSH1 0x40 MSTORE CALLVALUE DUP1 ISZERO PUSH2 0x10 JUMPI PUSH1 0x0 DUP1 REVERT JUMPDEST POP PUSH1 0x0 DUP1 SLOAD PUSH1 0x1 PUSH1 0xA0 PUSH1 0x2 EXP SUB NOT AND CALLER OR SWAP1 SSTORE PUSH2 0x497 DUP1 PUSH2 0x32 PUSH1 0x0 CODECOPY PUSH1 0x0 RETURN INVALID PUSH1 0x80 PUSH1 0x40 MSTORE PUSH1 0x4 CALLDATASIZE LT PUSH2 0x5F JUMPI PUSH29 0x100000000000000000000000000000000000000000000000000000000 PUSH1 0x0 CALLDATALOAD DIV PUSH4 0xADEC93C DUP2 EQ PUSH2 0xC9 JUMPI DUP1 PUSH4 0x12065FE0 EQ PUSH2 0xEB JUMPI DUP1 PUSH4 0x12B58349 EQ PUSH2 0x11B JUMPI DUP1 PUSH4 0xF274C897 EQ PUSH2 0x130 JUMPI PUSH1 0x0 DUP1 REVERT JUMPDEST CALLDATASIZE PUSH2 0xC4 JUMPI PUSH1 0x40 DUP1 MLOAD DUP1 DUP3 ADD DUP3 MSTORE CALLVALUE DUP1 DUP3 MSTORE TIMESTAMP PUSH1 0x20 DUP1 DUP5 ADD SWAP2 DUP3 MSTORE CALLER PUSH1 0x0 DUP2 DUP2 MSTORE PUSH1 0x1 DUP1 DUP5 MSTORE DUP8 DUP3 KECCAK256 SWAP6 DUP7 SSTORE DUP6 DUP2 ADD DUP1 SLOAD DUP4 MSTORE PUSH1 0x2 SWAP1 SWAP7 ADD DUP5 MSTORE SWAP7 DUP2 KECCAK256 DUP7 MLOAD DUP2 SSTORE SWAP4 MLOAD SWAP4 DUP8 ADD SWAP4 SWAP1 SWAP4 SSTORE DUP3 MSTORE SWAP4 SWAP1 SWAP4 MSTORE DUP1 SLOAD SWAP2 SWAP3 PUSH2 0xBC DUP4 PUSH2 0x417 JUMP JUMPDEST SWAP2 SWAP1 POP SSTORE POP POP STOP JUMPDEST PUSH1 0x0 DUP1 REVERT JUMPDEST CALLVALUE DUP1 ISZERO PUSH2 0xD5 JUMPI PUSH1 0x0 DUP1 REVERT JUMPDEST POP PUSH2 0xE9 PUSH2 0xE4 CALLDATASIZE PUSH1 0x4 PUSH2 0x3B4 JUMP JUMPDEST PUSH2 0x150 JUMP JUMPDEST STOP JUMPDEST CALLVALUE DUP1 ISZERO PUSH2 0xF7 JUMPI PUSH1 0x0 DUP1 REVERT JUMPDEST POP CALLER PUSH1 0x0 SWAP1 DUP2 MSTORE PUSH1 0x1 PUSH1 0x20 MSTORE PUSH1 0x40 SWAP1 KECCAK256 SLOAD JUMPDEST PUSH1 0x40 MLOAD SWAP1 DUP2 MSTORE PUSH1 0x20 ADD PUSH1 0x40 MLOAD DUP1 SWAP2 SUB SWAP1 RETURN JUMPDEST CALLVALUE DUP1 ISZERO PUSH2 0x127 JUMPI PUSH1 0x0 DUP1 REVERT JUMPDEST POP PUSH2 0x109 PUSH2 0x223 JUMP JUMPDEST CALLVALUE DUP1 ISZERO PUSH2 0x13C JUMPI PUSH1 0x0 DUP1 REVERT JUMPDEST POP PUSH2 0xE9 PUSH2 0x14B CALLDATASIZE PUSH1 0x4 PUSH2 0x3D6 JUMP JUMPDEST PUSH2 0x2AB JUMP JUMPDEST CALLER PUSH1 0x0 SWAP1 DUP2 MSTORE PUSH1 0x1 PUSH1 0x20 MSTORE PUSH1 0x40 SWAP1 KECCAK256 SLOAD DUP1 PUSH2 0x1CC JUMPI PUSH1 0x40 MLOAD PUSH32 0x8C379A000000000000000000000000000000000000000000000000000000000 DUP2 MSTORE PUSH1 0x20 PUSH1 0x4 DUP3 ADD MSTORE PUSH1 0xC PUSH1 0x24 DUP3 ADD MSTORE PUSH32 0x456D7074792077616C6C65740000000000000000000000000000000000000000 PUSH1 0x44 DUP3 ADD MSTORE PUSH1 0x64 ADD JUMPDEST PUSH1 0x40 MLOAD DUP1 SWAP2 SUB SWAP1 REVERT JUMPDEST CALLER PUSH1 0x0 SWAP1 DUP2 MSTORE PUSH1 0x1 PUSH1 0x20 MSTORE PUSH1 0x40 DUP1 DUP3 KECCAK256 DUP3 SWAP1 SSTORE MLOAD PUSH20 0xFFFFFFFFFFFFFFFFFFFFFFFFFFFFFFFFFFFFFFFF DUP5 AND SWAP2 DUP4 ISZERO PUSH2 0x8FC MUL SWAP2 DUP5 SWAP2 DUP2 DUP2 DUP2 DUP6 DUP9 DUP9 CALL SWAP4 POP POP POP POP ISZERO DUP1 ISZERO PUSH2 0x21E JUMPI RETURNDATASIZE PUSH1 0x0 DUP1 RETURNDATACOPY RETURNDATASIZE PUSH1 0x0 REVERT JUMPDEST POP POP POP JUMP JUMPDEST PUSH1 0x0 DUP1 SLOAD PUSH20 0xFFFFFFFFFFFFFFFFFFFFFFFFFFFFFFFFFFFFFFFF AND CALLER EQ PUSH2 0x2A5 JUMPI PUSH1 0x40 MLOAD PUSH32 0x8C379A000000000000000000000000000000000000000000000000000000000 DUP2 MSTORE PUSH1 0x20 PUSH1 0x4 DUP3 ADD MSTORE PUSH1 0xD PUSH1 0x24 DUP3 ADD MSTORE PUSH32 0x4E6F7420746865206F776E657200000000000000000000000000000000000000 PUSH1 0x44 DUP3 ADD MSTORE PUSH1 0x64 ADD PUSH2 0x1C3 JUMP JUMPDEST POP ADDRESS BALANCE SWAP1 JUMP JUMPDEST CALLER PUSH1 0x0 SWAP1 DUP2 MSTORE PUSH1 0x1 PUSH1 0x20 MSTORE PUSH1 0x40 SWAP1 KECCAK256 SLOAD DUP2 GT ISZERO PUSH2 0x324 JUMPI PUSH1 0x40 MLOAD PUSH32 0x8C379A000000000000000000000000000000000000000000000000000000000 DUP2 MSTORE PUSH1 0x20 PUSH1 0x4 DUP3 ADD MSTORE PUSH1 0x11 PUSH1 0x24 DUP3 ADD MSTORE PUSH32 0x4E6F7420656E6F75676874206D6F6E6579000000000000000000000000000000 PUSH1 0x44 DUP3 ADD MSTORE PUSH1 0x64 ADD PUSH2 0x1C3 JUMP JUMPDEST CALLER PUSH1 0x0 SWAP1 DUP2 MSTORE PUSH1 0x1 PUSH1 0x20 MSTORE PUSH1 0x40 DUP2 KECCAK256 DUP1 SLOAD DUP4 SWAP3 SWAP1 PUSH2 0x343 SWAP1 DUP5 SWAP1 PUSH2 0x400 JUMP JUMPDEST SWAP1 SWAP2 SSTORE POP POP PUSH1 0x40 MLOAD PUSH20 0xFFFFFFFFFFFFFFFFFFFFFFFFFFFFFFFFFFFFFFFF DUP4 AND SWAP1 DUP3 ISZERO PUSH2 0x8FC MUL SWAP1 DUP4 SWAP1 PUSH1 0x0 DUP2 DUP2 DUP2 DUP6 DUP9 DUP9 CALL SWAP4 POP POP POP POP ISZERO DUP1 ISZERO PUSH2 0x21E JUMPI RETURNDATASIZE PUSH1 0x0 DUP1 RETURNDATACOPY RETURNDATASIZE PUSH1 0x0 REVERT JUMPDEST DUP1 CALLDATALOAD PUSH20 0xFFFFFFFFFFFFFFFFFFFFFFFFFFFFFFFFFFFFFFFF DUP2 AND DUP2 EQ PUSH2 0x3AF JUMPI PUSH1 0x0 DUP1 REVERT JUMPDEST SWAP2 SWAP1 POP JUMP JUMPDEST PUSH1 0x0 PUSH1 0x20 DUP3 DUP5 SUB SLT ISZERO PUSH2 0x3C6 JUMPI PUSH1 0x0 DUP1 REVERT JUMPDEST PUSH2 0x3CF DUP3 PUSH2 0x38B JUMP JUMPDEST SWAP4 SWAP3 POP POP POP JUMP JUMPDEST PUSH1 0x0 DUP1 PUSH1 0x40 DUP4 DUP6 SUB SLT ISZERO PUSH2 0x3E9 JUMPI PUSH1 0x0 DUP1 REVERT JUMPDEST PUSH2 0x3F2 DUP4 PUSH2 0x38B JUMP JUMPDEST SWAP5 PUSH1 0x20 SWAP4 SWAP1 SWAP4 ADD CALLDATALOAD SWAP4 POP POP POP JUMP JUMPDEST PUSH1 0x0 DUP3 DUP3 LT ISZERO PUSH2 0x412 JUMPI PUSH2 0x412 PUSH2 0x432 JUMP JUMPDEST POP SUB SWAP1 JUMP JUMPDEST PUSH1 0x0 PUSH1 0x0 NOT DUP3 EQ ISZERO PUSH2 0x42B JUMPI PUSH2 0x42B PUSH2 0x432 JUMP JUMPDEST POP PUSH1 0x1 ADD SWAP1 JUMP JUMPDEST PUSH32 0x4E487B7100000000000000000000000000000000000000000000000000000000 PUSH1 0x0 MSTORE PUSH1 0x11 PUSH1 0x4 MSTORE PUSH1 0x24 PUSH1 0x0 REVERT INVALID LOG2 PUSH5 0x6970667358 0x22 SLT KECCAK256 0xA9 GAS MSTORE SELFBALANCE 0xB9 0xFB SSTORE 0xC7 0xFB 0xD1 TIMESTAMP 0xF9 0xC6 SLT SIGNEXTEND JUMPDEST SWAP3 0x22 GAS PUSH19 0xB36F505B81228CBD53019EB064736F6C634300 ADDMOD SMOD STOP CALLER LOG2 PUSH5 0x6970667358 0x22 SLT KECCAK256 SMOD SWAP3 SWAP6 0x24 0xCA 0xD 0xBA PUSH6 0xEF88E121E159 0x4D LT 0x5C PUSH5 0x6A1735E6CD TIMESTAMP EXP NUMBER DUP12 0xE8 0xDC SHL 0xE0 PC PUSH5 0x736F6C6343 STOP ADDMOD SMOD STOP CALLER "
				},
				"gasEstimates": {
					"creation": {
						"codeDepositCost": "341200",
						"executionCost": "380",
						"totalCost": "341580"
					},
					"external": {
						"createWallet()": "infinite"
					}
				},
				"methodIdentifiers": {
					"createWallet()": "11ebbf24"
				}
			},
			"storageLayout": {
				"storage": [
					{
						"astId": 39,
						"contract": "contracts/Test.sol:FactoryWallet",
						"label": "factoryWallets",
						"offset": 0,
						"slot": "0",
						"type": "t_mapping(t_address,t_struct(FactoryWalletStruct)34_storage)"
					}
				],
				"types": {
					"t_address": {
						"encoding": "inplace",
						"label": "address",
						"numberOfBytes": "20"
					},
					"t_bool": {
						"encoding": "inplace",
						"label": "bool",
						"numberOfBytes": "1"
					},
					"t_contract(Wallet)250": {
						"encoding": "inplace",
						"label": "contract Wallet",
						"numberOfBytes": "20"
					},
					"t_mapping(t_address,t_struct(FactoryWalletStruct)34_storage)": {
						"encoding": "mapping",
						"key": "t_address",
						"label": "mapping(address => struct FactoryWallet.FactoryWalletStruct)",
						"numberOfBytes": "32",
						"value": "t_struct(FactoryWalletStruct)34_storage"
					},
					"t_struct(FactoryWalletStruct)34_storage": {
						"encoding": "inplace",
						"label": "struct FactoryWallet.FactoryWalletStruct",
						"members": [
							{
								"astId": 31,
								"contract": "contracts/Test.sol:FactoryWallet",
								"label": "wallet",
								"offset": 0,
								"slot": "0",
								"type": "t_contract(Wallet)250"
							},
							{
								"astId": 33,
								"contract": "contracts/Test.sol:FactoryWallet",
								"label": "created",
								"offset": 20,
								"slot": "0",
								"type": "t_bool"
							}
						],
						"numberOfBytes": "32"
					}
				}
			},
			"userdoc": {
				"kind": "user",
				"methods": {},
				"version": 1
			}
		}
	}
}