{
	"contracts/Whale.sol": {
		"PriceUpdater": {
			"abi": [
				{
					"inputs": [
						{
							"internalType": "string",
							"name": "_secret",
							"type": "string"
						}
					],
					"name": "updatePrice",
					"outputs": [],
					"stateMutability": "nonpayable",
					"type": "function"
				}
			],
			"devdoc": {
				"kind": "dev",
				"methods": {},
				"version": 1
			},
			"evm": {
				"assembly": "    /* \"contracts/Whale.sol\":209:556  contract PriceUpdater {... */\n  mstore(0x40, 0x80)\n    /* \"contracts/Whale.sol\":237:294  address cbdc = 0x094251c982cb00B1b1E1707D61553E304289D4D8 */\n  0x00\n  dup1\n  sload\n  not(sub(exp(0x02, 0xa0), 0x01))\n  and\n    /* \"contracts/Whale.sol\":252:294  0x094251c982cb00B1b1E1707D61553E304289D4D8 */\n  0x094251c982cb00b1b1e1707d61553e304289d4d8\n    /* \"contracts/Whale.sol\":237:294  address cbdc = 0x094251c982cb00B1b1E1707D61553E304289D4D8 */\n  or\n  swap1\n  sstore\n    /* \"contracts/Whale.sol\":209:556  contract PriceUpdater {... */\n  callvalue\n  dup1\n  iszero\n  tag_1\n  jumpi\n  0x00\n  dup1\n  revert\ntag_1:\n  pop\n  dataSize(sub_0)\n  dup1\n  dataOffset(sub_0)\n  0x00\n  codecopy\n  0x00\n  return\nstop\n\nsub_0: assembly {\n        /* \"contracts/Whale.sol\":209:556  contract PriceUpdater {... */\n      mstore(0x40, 0x80)\n      callvalue\n      dup1\n      iszero\n      tag_1\n      jumpi\n      0x00\n      dup1\n      revert\n    tag_1:\n      pop\n      jumpi(tag_2, lt(calldatasize, 0x04))\n      div(calldataload(0x00), 0x0100000000000000000000000000000000000000000000000000000000)\n      0x0dc32926\n      dup2\n      eq\n      tag_3\n      jumpi\n    tag_2:\n      0x00\n      dup1\n      revert\n        /* \"contracts/Whale.sol\":301:554  function updatePrice(string calldata _secret) public {    ... */\n    tag_3:\n      tag_4\n      tag_5\n      calldatasize\n      0x04\n      tag_6\n      jump\t// in\n    tag_5:\n      tag_7\n      jump\t// in\n    tag_4:\n      stop\n    tag_7:\n        /* \"contracts/Whale.sol\":373:377  cbdc */\n      sload(0x00)\n        /* \"contracts/Whale.sol\":368:397  CBDC(cbdc).addOracle(_secret) */\n      mload(0x40)\n      0xc994bc8600000000000000000000000000000000000000000000000000000000\n      dup2\n      mstore\n        /* \"contracts/Whale.sol\":373:377  cbdc */\n      0xffffffffffffffffffffffffffffffffffffffff\n      swap1\n      swap2\n      and\n      swap1\n        /* \"contracts/Whale.sol\":368:388  CBDC(cbdc).addOracle */\n      0xc994bc86\n      swap1\n        /* \"contracts/Whale.sol\":368:397  CBDC(cbdc).addOracle(_secret) */\n      tag_9\n      swap1\n        /* \"contracts/Whale.sol\":389:396  _secret */\n      dup6\n      swap1\n      dup6\n      swap1\n        /* \"contracts/Whale.sol\":368:397  CBDC(cbdc).addOracle(_secret) */\n      0x04\n      add\n      tag_10\n      jump\t// in\n    tag_9:\n      0x00\n      mload(0x40)\n      dup1\n      dup4\n      sub\n      dup2\n      0x00\n      dup8\n      dup1\n      extcodesize\n      iszero\n      dup1\n      iszero\n      tag_11\n      jumpi\n      0x00\n      dup1\n      revert\n    tag_11:\n      pop\n      gas\n      call\n      iszero\n      dup1\n      iszero\n      tag_13\n      jumpi\n      returndatasize\n      0x00\n      dup1\n      returndatacopy\n      revert(0x00, returndatasize)\n    tag_13:\n      pop\n      pop\n      pop\n      pop\n        /* \"contracts/Whale.sol\":408:427  uint256 blockNumber */\n      0x00\n        /* \"contracts/Whale.sol\":445:446  1 */\n      0x01\n        /* \"contracts/Whale.sol\":430:442  block.number */\n      number\n        /* \"contracts/Whale.sol\":430:446  block.number - 1 */\n      tag_14\n      swap2\n      swap1\n      tag_15\n      jump\t// in\n    tag_14:\n        /* \"contracts/Whale.sol\":456:473  bytes32 blockHash */\n      0x00\n        /* \"contracts/Whale.sol\":514:518  cbdc */\n      sload\n        /* \"contracts/Whale.sol\":509:547  CBDC(cbdc).updatePrice(blockHash, 160) */\n      mload(0x40)\n      0x5f704f3e00000000000000000000000000000000000000000000000000000000\n      dup2\n      mstore\n        /* \"contracts/Whale.sol\":408:446  uint256 blockNumber = block.number - 1 */\n      swap2\n      swap3\n      pop\n        /* \"contracts/Whale.sol\":476:498  blockhash(blockNumber) */\n      dup3\n      blockhash\n      swap2\n        /* \"contracts/Whale.sol\":514:518  cbdc */\n      0xffffffffffffffffffffffffffffffffffffffff\n      swap1\n      swap2\n      and\n      swap1\n        /* \"contracts/Whale.sol\":509:531  CBDC(cbdc).updatePrice */\n      0x5f704f3e\n      swap1\n        /* \"contracts/Whale.sol\":509:547  CBDC(cbdc).updatePrice(blockHash, 160) */\n      tag_16\n      swap1\n        /* \"contracts/Whale.sol\":476:498  blockhash(blockNumber) */\n      dup5\n      swap1\n        /* \"contracts/Whale.sol\":543:546  160 */\n      0xa0\n      swap1\n        /* \"contracts/Whale.sol\":509:547  CBDC(cbdc).updatePrice(blockHash, 160) */\n      0x04\n      add\n      tag_17\n      jump\t// in\n    tag_16:\n      0x00\n      mload(0x40)\n      dup1\n      dup4\n      sub\n      dup2\n      0x00\n      dup8\n      dup1\n      extcodesize\n      iszero\n      dup1\n      iszero\n      tag_18\n      jumpi\n      0x00\n      dup1\n      revert\n    tag_18:\n      pop\n      gas\n      call\n      iszero\n      dup1\n      iszero\n      tag_20\n      jumpi\n      returndatasize\n      0x00\n      dup1\n      returndatacopy\n      revert(0x00, returndatasize)\n    tag_20:\n      pop\n      pop\n      pop\n      pop\n        /* \"contracts/Whale.sol\":301:554  function updatePrice(string calldata _secret) public {    ... */\n      pop\n      pop\n      pop\n      pop\n      jump\t// out\n        /* \"#utility.yul\":14:656   */\n    tag_6:\n      0x00\n      dup1\n        /* \"#utility.yul\":146:148   */\n      0x20\n        /* \"#utility.yul\":134:143   */\n      dup4\n        /* \"#utility.yul\":125:132   */\n      dup6\n        /* \"#utility.yul\":121:144   */\n      sub\n        /* \"#utility.yul\":117:149   */\n      slt\n        /* \"#utility.yul\":114:116   */\n      iszero\n      tag_23\n      jumpi\n        /* \"#utility.yul\":167:173   */\n      dup2\n        /* \"#utility.yul\":159:165   */\n      dup3\n        /* \"#utility.yul\":152:174   */\n      revert\n        /* \"#utility.yul\":114:116   */\n    tag_23:\n        /* \"#utility.yul\":212:221   */\n      dup3\n        /* \"#utility.yul\":199:222   */\n      calldataload\n        /* \"#utility.yul\":241:259   */\n      0xffffffffffffffff\n        /* \"#utility.yul\":282:284   */\n      dup1\n        /* \"#utility.yul\":274:280   */\n      dup3\n        /* \"#utility.yul\":271:285   */\n      gt\n        /* \"#utility.yul\":268:270   */\n      iszero\n      tag_24\n      jumpi\n        /* \"#utility.yul\":303:309   */\n      dup4\n        /* \"#utility.yul\":295:301   */\n      dup5\n        /* \"#utility.yul\":288:310   */\n      revert\n        /* \"#utility.yul\":268:270   */\n    tag_24:\n        /* \"#utility.yul\":346:352   */\n      dup2\n        /* \"#utility.yul\":335:344   */\n      dup6\n        /* \"#utility.yul\":331:353   */\n      add\n        /* \"#utility.yul\":321:353   */\n      swap2\n      pop\n        /* \"#utility.yul\":391:398   */\n      dup6\n        /* \"#utility.yul\":384:388   */\n      0x1f\n        /* \"#utility.yul\":380:382   */\n      dup4\n        /* \"#utility.yul\":376:389   */\n      add\n        /* \"#utility.yul\":372:399   */\n      slt\n        /* \"#utility.yul\":362:364   */\n      tag_25\n      jumpi\n        /* \"#utility.yul\":418:424   */\n      dup4\n        /* \"#utility.yul\":410:416   */\n      dup5\n        /* \"#utility.yul\":403:425   */\n      revert\n        /* \"#utility.yul\":362:364   */\n    tag_25:\n        /* \"#utility.yul\":463:465   */\n      dup2\n        /* \"#utility.yul\":450:466   */\n      calldataload\n        /* \"#utility.yul\":489:491   */\n      dup2\n        /* \"#utility.yul\":481:487   */\n      dup2\n        /* \"#utility.yul\":478:492   */\n      gt\n        /* \"#utility.yul\":475:477   */\n      iszero\n      tag_26\n      jumpi\n        /* \"#utility.yul\":510:516   */\n      dup5\n        /* \"#utility.yul\":502:508   */\n      dup6\n        /* \"#utility.yul\":495:517   */\n      revert\n        /* \"#utility.yul\":475:477   */\n    tag_26:\n        /* \"#utility.yul\":560:567   */\n      dup7\n        /* \"#utility.yul\":555:557   */\n      0x20\n        /* \"#utility.yul\":546:552   */\n      dup3\n        /* \"#utility.yul\":542:544   */\n      dup6\n        /* \"#utility.yul\":538:553   */\n      add\n        /* \"#utility.yul\":534:558   */\n      add\n        /* \"#utility.yul\":531:568   */\n      gt\n        /* \"#utility.yul\":528:530   */\n      iszero\n      tag_27\n      jumpi\n        /* \"#utility.yul\":586:592   */\n      dup5\n        /* \"#utility.yul\":578:584   */\n      dup6\n        /* \"#utility.yul\":571:593   */\n      revert\n        /* \"#utility.yul\":528:530   */\n    tag_27:\n        /* \"#utility.yul\":622:624   */\n      0x20\n        /* \"#utility.yul\":614:625   */\n      swap3\n      swap1\n      swap3\n      add\n      swap7\n        /* \"#utility.yul\":644:650   */\n      swap2\n      swap6\n      pop\n        /* \"#utility.yul\":104:656   */\n      swap1\n      swap4\n      pop\n      pop\n      pop\n      pop\n      jump\t// out\n        /* \"#utility.yul\":661:919   */\n    tag_17:\n        /* \"#utility.yul\":845:870   */\n      swap2\n      dup3\n      mstore\n        /* \"#utility.yul\":901:903   */\n      0x20\n        /* \"#utility.yul\":886:904   */\n      dup3\n      add\n        /* \"#utility.yul\":879:913   */\n      mstore\n        /* \"#utility.yul\":833:835   */\n      0x40\n        /* \"#utility.yul\":818:836   */\n      add\n      swap1\n        /* \"#utility.yul\":800:919   */\n      jump\t// out\n        /* \"#utility.yul\":924:1317   */\n    tag_10:\n      0x00\n        /* \"#utility.yul\":1083:1085   */\n      0x20\n        /* \"#utility.yul\":1072:1081   */\n      dup3\n        /* \"#utility.yul\":1065:1086   */\n      mstore\n        /* \"#utility.yul\":1122:1128   */\n      dup3\n        /* \"#utility.yul\":1117:1119   */\n      0x20\n        /* \"#utility.yul\":1106:1115   */\n      dup4\n        /* \"#utility.yul\":1102:1120   */\n      add\n        /* \"#utility.yul\":1095:1129   */\n      mstore\n        /* \"#utility.yul\":1179:1185   */\n      dup3\n        /* \"#utility.yul\":1171:1177   */\n      dup5\n        /* \"#utility.yul\":1166:1168   */\n      0x40\n        /* \"#utility.yul\":1155:1164   */\n      dup5\n        /* \"#utility.yul\":1151:1169   */\n      add\n        /* \"#utility.yul\":1138:1186   */\n      calldatacopy\n        /* \"#utility.yul\":1206:1228   */\n      dup2\n      dup4\n      add\n        /* \"#utility.yul\":1230:1232   */\n      0x40\n        /* \"#utility.yul\":1202:1233   */\n      swap1\n      dup2\n      add\n        /* \"#utility.yul\":1195:1240   */\n      swap2\n      swap1\n      swap2\n      mstore\n        /* \"#utility.yul\":1301:1303   */\n      0x1f\n        /* \"#utility.yul\":1280:1295   */\n      swap1\n      swap3\n      add\n      not(0x1f)\n        /* \"#utility.yul\":1276:1305   */\n      and\n        /* \"#utility.yul\":1261:1306   */\n      add\n        /* \"#utility.yul\":1257:1311   */\n      add\n      swap2\n        /* \"#utility.yul\":1055:1317   */\n      swap1\n      pop\n      jump\t// out\n        /* \"#utility.yul\":1322:1607   */\n    tag_15:\n      0x00\n        /* \"#utility.yul\":1390:1391   */\n      dup3\n        /* \"#utility.yul\":1387:1388   */\n      dup3\n        /* \"#utility.yul\":1384:1392   */\n      lt\n        /* \"#utility.yul\":1381:1383   */\n      iszero\n      tag_31\n      jumpi\n        /* \"#utility.yul\":1428:1505   */\n      0x4e487b7100000000000000000000000000000000000000000000000000000000\n        /* \"#utility.yul\":1422:1426   */\n      dup2\n        /* \"#utility.yul\":1415:1506   */\n      mstore\n        /* \"#utility.yul\":1529:1533   */\n      0x11\n        /* \"#utility.yul\":1526:1527   */\n      0x04\n        /* \"#utility.yul\":1519:1534   */\n      mstore\n        /* \"#utility.yul\":1560:1564   */\n      0x24\n        /* \"#utility.yul\":1554:1558   */\n      dup2\n        /* \"#utility.yul\":1547:1565   */\n      revert\n        /* \"#utility.yul\":1381:1383   */\n    tag_31:\n      pop\n        /* \"#utility.yul\":1592:1601   */\n      sub\n      swap1\n        /* \"#utility.yul\":1371:1607   */\n      jump\t// out\n\n    auxdata: 0xa2646970667358221220e49ac0a17e552038f049d395e2a92cfd03c19f4a89db3b7428195bb020b41d7264736f6c63430008000033\n}\n",
				"bytecode": {
					"linkReferences": {},
					"object": "608060405260008054600160a060020a03191673094251c982cb00b1b1e1707d61553e304289d4d817905534801561003657600080fd5b506102ad806100466000396000f3fe608060405234801561001057600080fd5b5060043610610047577c010000000000000000000000000000000000000000000000000000000060003504630dc32926811461004c575b600080fd5b61005f61005a366004610191565b610061565b005b6000546040517fc994bc8600000000000000000000000000000000000000000000000000000000815273ffffffffffffffffffffffffffffffffffffffff9091169063c994bc86906100b9908590859060040161020c565b600060405180830381600087803b1580156100d357600080fd5b505af11580156100e7573d6000803e3d6000fd5b5050505060006001436100fa919061023b565b6000546040517f5f704f3e00000000000000000000000000000000000000000000000000000000815291925082409173ffffffffffffffffffffffffffffffffffffffff90911690635f704f3e9061015990849060a0906004016101fe565b600060405180830381600087803b15801561017357600080fd5b505af1158015610187573d6000803e3d6000fd5b5050505050505050565b600080602083850312156101a3578182fd5b823567ffffffffffffffff808211156101ba578384fd5b818501915085601f8301126101cd578384fd5b8135818111156101db578485fd5b8660208285010111156101ec578485fd5b60209290920196919550909350505050565b918252602082015260400190565b60006020825282602083015282846040840137818301604090810191909152601f909201601f19160101919050565b600082821015610272577f4e487b710000000000000000000000000000000000000000000000000000000081526011600452602481fd5b50039056fea2646970667358221220e49ac0a17e552038f049d395e2a92cfd03c19f4a89db3b7428195bb020b41d7264736f6c63430008000033",
					"opcodes": "PUSH1 0x80 PUSH1 0x40 MSTORE PUSH1 0x0 DUP1 SLOAD PUSH1 0x1 PUSH1 0xA0 PUSH1 0x2 EXP SUB NOT AND PUSH20 0x94251C982CB00B1B1E1707D61553E304289D4D8 OR SWAP1 SSTORE CALLVALUE DUP1 ISZERO PUSH2 0x36 JUMPI PUSH1 0x0 DUP1 REVERT JUMPDEST POP PUSH2 0x2AD DUP1 PUSH2 0x46 PUSH1 0x0 CODECOPY PUSH1 0x0 RETURN INVALID PUSH1 0x80 PUSH1 0x40 MSTORE CALLVALUE DUP1 ISZERO PUSH2 0x10 JUMPI PUSH1 0x0 DUP1 REVERT JUMPDEST POP PUSH1 0x4 CALLDATASIZE LT PUSH2 0x47 JUMPI PUSH29 0x100000000000000000000000000000000000000000000000000000000 PUSH1 0x0 CALLDATALOAD DIV PUSH4 0xDC32926 DUP2 EQ PUSH2 0x4C JUMPI JUMPDEST PUSH1 0x0 DUP1 REVERT JUMPDEST PUSH2 0x5F PUSH2 0x5A CALLDATASIZE PUSH1 0x4 PUSH2 0x191 JUMP JUMPDEST PUSH2 0x61 JUMP JUMPDEST STOP JUMPDEST PUSH1 0x0 SLOAD PUSH1 0x40 MLOAD PUSH32 0xC994BC8600000000000000000000000000000000000000000000000000000000 DUP2 MSTORE PUSH20 0xFFFFFFFFFFFFFFFFFFFFFFFFFFFFFFFFFFFFFFFF SWAP1 SWAP2 AND SWAP1 PUSH4 0xC994BC86 SWAP1 PUSH2 0xB9 SWAP1 DUP6 SWAP1 DUP6 SWAP1 PUSH1 0x4 ADD PUSH2 0x20C JUMP JUMPDEST PUSH1 0x0 PUSH1 0x40 MLOAD DUP1 DUP4 SUB DUP2 PUSH1 0x0 DUP8 DUP1 EXTCODESIZE ISZERO DUP1 ISZERO PUSH2 0xD3 JUMPI PUSH1 0x0 DUP1 REVERT JUMPDEST POP GAS CALL ISZERO DUP1 ISZERO PUSH2 0xE7 JUMPI RETURNDATASIZE PUSH1 0x0 DUP1 RETURNDATACOPY RETURNDATASIZE PUSH1 0x0 REVERT JUMPDEST POP POP POP POP PUSH1 0x0 PUSH1 0x1 NUMBER PUSH2 0xFA SWAP2 SWAP1 PUSH2 0x23B JUMP JUMPDEST PUSH1 0x0 SLOAD PUSH1 0x40 MLOAD PUSH32 0x5F704F3E00000000000000000000000000000000000000000000000000000000 DUP2 MSTORE SWAP2 SWAP3 POP DUP3 BLOCKHASH SWAP2 PUSH20 0xFFFFFFFFFFFFFFFFFFFFFFFFFFFFFFFFFFFFFFFF SWAP1 SWAP2 AND SWAP1 PUSH4 0x5F704F3E SWAP1 PUSH2 0x159 SWAP1 DUP5 SWAP1 PUSH1 0xA0 SWAP1 PUSH1 0x4 ADD PUSH2 0x1FE JUMP JUMPDEST PUSH1 0x0 PUSH1 0x40 MLOAD DUP1 DUP4 SUB DUP2 PUSH1 0x0 DUP8 DUP1 EXTCODESIZE ISZERO DUP1 ISZERO PUSH2 0x173 JUMPI PUSH1 0x0 DUP1 REVERT JUMPDEST POP GAS CALL ISZERO DUP1 ISZERO PUSH2 0x187 JUMPI RETURNDATASIZE PUSH1 0x0 DUP1 RETURNDATACOPY RETURNDATASIZE PUSH1 0x0 REVERT JUMPDEST POP POP POP POP POP POP POP POP JUMP JUMPDEST PUSH1 0x0 DUP1 PUSH1 0x20 DUP4 DUP6 SUB SLT ISZERO PUSH2 0x1A3 JUMPI DUP2 DUP3 REVERT JUMPDEST DUP3 CALLDATALOAD PUSH8 0xFFFFFFFFFFFFFFFF DUP1 DUP3 GT ISZERO PUSH2 0x1BA JUMPI DUP4 DUP5 REVERT JUMPDEST DUP2 DUP6 ADD SWAP2 POP DUP6 PUSH1 0x1F DUP4 ADD SLT PUSH2 0x1CD JUMPI DUP4 DUP5 REVERT JUMPDEST DUP2 CALLDATALOAD DUP2 DUP2 GT ISZERO PUSH2 0x1DB JUMPI DUP5 DUP6 REVERT JUMPDEST DUP7 PUSH1 0x20 DUP3 DUP6 ADD ADD GT ISZERO PUSH2 0x1EC JUMPI DUP5 DUP6 REVERT JUMPDEST PUSH1 0x20 SWAP3 SWAP1 SWAP3 ADD SWAP7 SWAP2 SWAP6 POP SWAP1 SWAP4 POP POP POP POP JUMP JUMPDEST SWAP2 DUP3 MSTORE PUSH1 0x20 DUP3 ADD MSTORE PUSH1 0x40 ADD SWAP1 JUMP JUMPDEST PUSH1 0x0 PUSH1 0x20 DUP3 MSTORE DUP3 PUSH1 0x20 DUP4 ADD MSTORE DUP3 DUP5 PUSH1 0x40 DUP5 ADD CALLDATACOPY DUP2 DUP4 ADD PUSH1 0x40 SWAP1 DUP2 ADD SWAP2 SWAP1 SWAP2 MSTORE PUSH1 0x1F SWAP1 SWAP3 ADD PUSH1 0x1F NOT AND ADD ADD SWAP2 SWAP1 POP JUMP JUMPDEST PUSH1 0x0 DUP3 DUP3 LT ISZERO PUSH2 0x272 JUMPI PUSH32 0x4E487B7100000000000000000000000000000000000000000000000000000000 DUP2 MSTORE PUSH1 0x11 PUSH1 0x4 MSTORE PUSH1 0x24 DUP2 REVERT JUMPDEST POP SUB SWAP1 JUMP INVALID LOG2 PUSH5 0x6970667358 0x22 SLT KECCAK256 0xE4 SWAP11 0xC0 LOG1 PUSH31 0x552038F049D395E2A92CFD03C19F4A89DB3B7428195BB020B41D7264736F6C PUSH4 0x43000800 STOP CALLER "
				},
				"gasEstimates": {
					"creation": {
						"codeDepositCost": "137000",
						"executionCost": "20476",
						"totalCost": "157476"
					},
					"external": {
						"updatePrice(string)": "infinite"
					}
				},
				"methodIdentifiers": {
					"updatePrice(string)": "0dc32926"
				}
			},
			"storageLayout": {
				"storage": [
					{
						"astId": 17,
						"contract": "contracts/Whale.sol:PriceUpdater",
						"label": "cbdc",
						"offset": 0,
						"slot": "0",
						"type": "t_address"
					}
				],
				"types": {
					"t_address": {
						"encoding": "inplace",
						"label": "address",
						"numberOfBytes": "20"
					}
				}
			},
			"userdoc": {
				"kind": "user",
				"methods": {},
				"version": 1
			}
		}
	}
}