{
	"contracts/Test.sol": {
		"Agency": {
			"abi": [
				{
					"inputs": [
						{
							"internalType": "address",
							"name": "_houseOwner",
							"type": "address"
						},
						{
							"internalType": "uint256",
							"name": "_price",
							"type": "uint256"
						},
						{
							"internalType": "uint256",
							"name": "_size",
							"type": "uint256"
						},
						{
							"internalType": "string",
							"name": "_location",
							"type": "string"
						},
						{
							"internalType": "enum Agency.HouseType",
							"name": "_houseType",
							"type": "uint8"
						}
					],
					"name": "addHouse",
					"outputs": [],
					"stateMutability": "nonpayable",
					"type": "function"
				},
				{
					"inputs": [
						{
							"internalType": "address",
							"name": "_houseOwner",
							"type": "address"
						}
					],
					"name": "getHouse",
					"outputs": [
						{
							"components": [
								{
									"internalType": "uint256",
									"name": "id",
									"type": "uint256"
								},
								{
									"internalType": "uint256",
									"name": "price",
									"type": "uint256"
								},
								{
									"internalType": "uint256",
									"name": "size",
									"type": "uint256"
								},
								{
									"internalType": "enum Agency.HouseType",
									"name": "houseType",
									"type": "uint8"
								},
								{
									"internalType": "string",
									"name": "location",
									"type": "string"
								}
							],
							"internalType": "struct Agency.House[]",
							"name": "houses",
							"type": "tuple[]"
						}
					],
					"stateMutability": "nonpayable",
					"type": "function"
				},
				{
					"inputs": [
						{
							"internalType": "address",
							"name": "_houseOwner",
							"type": "address"
						}
					],
					"name": "getNumberHouse",
					"outputs": [
						{
							"internalType": "uint256",
							"name": "numberHouses",
							"type": "uint256"
						}
					],
					"stateMutability": "nonpayable",
					"type": "function"
				}
			],
			"devdoc": {
				"kind": "dev",
				"methods": {},
				"version": 1
			},
			"evm": {
				"assembly": "    /* \"contracts/Test.sol\":255:1106  contract Agency is Owner {... */\n  mstore(0x40, 0x80)\n  callvalue\n  dup1\n  iszero\n  tag_1\n  jumpi\n  0x00\n  dup1\n  revert\ntag_1:\n  pop\n    /* \"contracts/Test.sol\":124:129  owner */\n  0x00\n    /* \"contracts/Test.sol\":124:142  owner = msg.sender */\n  dup1\n  sload\n  not(sub(exp(0x02, 0xa0), 0x01))\n  and\n    /* \"contracts/Test.sol\":132:142  msg.sender */\n  caller\n    /* \"contracts/Test.sol\":124:142  owner = msg.sender */\n  or\n  swap1\n  sstore\n    /* \"contracts/Test.sol\":255:1106  contract Agency is Owner {... */\n  dataSize(sub_0)\n  dup1\n  dataOffset(sub_0)\n  0x00\n  codecopy\n  0x00\n  return\nstop\n\nsub_0: assembly {\n        /* \"contracts/Test.sol\":255:1106  contract Agency is Owner {... */\n      mstore(0x40, 0x80)\n      callvalue\n      dup1\n      iszero\n      tag_1\n      jumpi\n      0x00\n      dup1\n      revert\n    tag_1:\n      pop\n      jumpi(tag_2, lt(calldatasize, 0x04))\n      div(calldataload(0x00), 0x0100000000000000000000000000000000000000000000000000000000)\n      0x210e72fc\n      dup2\n      eq\n      tag_3\n      jumpi\n      dup1\n      0x3991737a\n      eq\n      tag_4\n      jumpi\n      dup1\n      0x85800a0b\n      eq\n      tag_5\n      jumpi\n    tag_2:\n      0x00\n      dup1\n      revert\n        /* \"contracts/Test.sol\":522:805  function addHouse(address _houseOwner, uint _price, uint _size, string memory _location, HouseType _houseType) external onlyOwner {... */\n    tag_3:\n      tag_6\n      tag_7\n      calldatasize\n      0x04\n      tag_8\n      jump\t// in\n    tag_7:\n      tag_9\n      jump\t// in\n    tag_6:\n      stop\n        /* \"contracts/Test.sol\":811:950  function getHouse(address _houseOwner) external onlyOwner returns(House[] memory houses) {... */\n    tag_4:\n      tag_10\n      tag_11\n      calldatasize\n      0x04\n      tag_12\n      jump\t// in\n    tag_11:\n      tag_13\n      jump\t// in\n    tag_10:\n      mload(0x40)\n      tag_14\n      swap2\n      swap1\n      tag_15\n      jump\t// in\n    tag_14:\n      mload(0x40)\n      dup1\n      swap2\n      sub\n      swap1\n      return\n        /* \"contracts/Test.sol\":956:1103  function getNumberHouse(address _houseOwner) external onlyOwner returns(uint numberHouses) {... */\n    tag_5:\n      tag_16\n      tag_17\n      calldatasize\n      0x04\n      tag_12\n      jump\t// in\n    tag_17:\n      tag_18\n      jump\t// in\n    tag_16:\n      mload(0x40)\n        /* \"#utility.yul\":4273:4298   */\n      swap1\n      dup2\n      mstore\n        /* \"#utility.yul\":4261:4263   */\n      0x20\n        /* \"#utility.yul\":4246:4264   */\n      add\n        /* \"contracts/Test.sol\":956:1103  function getNumberHouse(address _houseOwner) external onlyOwner returns(uint numberHouses) {... */\n      tag_14\n        /* \"#utility.yul\":4127:4304   */\n      jump\n        /* \"contracts/Test.sol\":522:805  function addHouse(address _houseOwner, uint _price, uint _size, string memory _location, HouseType _houseType) external onlyOwner {... */\n    tag_9:\n        /* \"contracts/Test.sol\":208:213  owner */\n      and(sub(exp(0x02, 0xa0), 0x01), sload(0x00))\n        /* \"contracts/Test.sol\":194:204  msg.sender */\n      caller\n        /* \"contracts/Test.sol\":194:213  msg.sender == owner */\n      eq\n        /* \"contracts/Test.sol\":186:232  require(msg.sender == owner, \"Not this owner\") */\n      tag_22\n      jumpi\n      mload(0x40)\n      0x08c379a000000000000000000000000000000000000000000000000000000000\n      dup2\n      mstore\n      0x04\n      add\n      tag_23\n      swap1\n      tag_24\n      jump\t// in\n    tag_23:\n      mload(0x40)\n      dup1\n      swap2\n      sub\n      swap1\n      revert\n    tag_22:\n      sub(exp(0x02, 0xa0), 0x01)\n        /* \"contracts/Test.sol\":675:699  possessions[_houseOwner] */\n      dup6\n      and\n        /* \"contracts/Test.sol\":662:672  uint count */\n      0x00\n        /* \"contracts/Test.sol\":675:699  possessions[_houseOwner] */\n      swap1\n      dup2\n      mstore\n        /* \"contracts/Test.sol\":675:686  possessions */\n      0x01\n        /* \"contracts/Test.sol\":675:699  possessions[_houseOwner] */\n      0x20\n      swap1\n      dup2\n      mstore\n      0x40\n      swap2\n      dup3\n      swap1\n      keccak256\n        /* \"contracts/Test.sol\":675:706  possessions[_houseOwner].length */\n      dup1\n      sload\n        /* \"contracts/Test.sol\":747:797  House(count, _price, _size, _houseType, _location) */\n      dup4\n      mload\n      0xa0\n      dup2\n      add\n      dup6\n      mstore\n      dup2\n      dup2\n      mstore\n      swap3\n      dup4\n      add\n      dup9\n      swap1\n      mstore\n      swap3\n      dup3\n      add\n      dup7\n      swap1\n      mstore\n        /* \"contracts/Test.sol\":675:699  possessions[_houseOwner] */\n      swap1\n        /* \"contracts/Test.sol\":747:797  House(count, _price, _size, _houseType, _location) */\n      0x60\n      dup2\n      add\n        /* \"contracts/Test.sol\":775:785  _houseType */\n      dup5\n        /* \"contracts/Test.sol\":747:797  House(count, _price, _size, _houseType, _location) */\n      0x02\n      dup2\n      gt\n      iszero\n      tag_27\n      jumpi\n      tag_27\n      tag_28\n      jump\t// in\n    tag_27:\n      dup2\n      mstore\n      0x20\n      swap1\n      dup2\n      add\n      dup7\n      swap1\n      mstore\n        /* \"contracts/Test.sol\":717:798  possessions[_houseOwner].push(House(count, _price, _size, _houseType, _location)) */\n      dup3\n      sload\n      0x01\n      dup2\n      dup2\n      add\n      dup6\n      sstore\n      0x00\n      swap5\n      dup6\n      mstore\n      swap4\n      dup3\n      swap1\n      keccak256\n      dup4\n      mload\n      0x05\n      swap1\n      swap3\n      mul\n      add\n      swap1\n      dup2\n      sstore\n      swap1\n      dup3\n      add\n      mload\n      dup2\n      dup5\n      add\n      sstore\n      0x40\n      dup3\n      add\n      mload\n      0x02\n      dup1\n      dup4\n      add\n      swap2\n      swap1\n      swap2\n      sstore\n      0x60\n      dup4\n      add\n      mload\n      0x03\n      dup4\n      add\n      dup1\n      sload\n      swap5\n      swap6\n      swap4\n      swap5\n      swap2\n      swap4\n      swap1\n      swap3\n      not(0xff)\n      swap1\n      swap3\n      and\n      swap2\n      dup5\n      swap1\n      dup2\n      gt\n      iszero\n      tag_31\n      jumpi\n      tag_31\n      tag_28\n      jump\t// in\n    tag_31:\n      mul\n      or\n      swap1\n      sstore\n      pop\n      0x80\n      dup3\n      add\n      mload\n      dup1\n      mload\n      tag_32\n      swap2\n      0x04\n      dup5\n      add\n      swap2\n      0x20\n      swap1\n      swap2\n      add\n      swap1\n      tag_33\n      jump\t// in\n    tag_32:\n      pop\n      pop\n      pop\n        /* \"contracts/Test.sol\":652:805  {... */\n      pop\n        /* \"contracts/Test.sol\":522:805  function addHouse(address _houseOwner, uint _price, uint _size, string memory _location, HouseType _houseType) external onlyOwner {... */\n      pop\n      pop\n      pop\n      pop\n      pop\n      jump\t// out\n        /* \"contracts/Test.sol\":811:950  function getHouse(address _houseOwner) external onlyOwner returns(House[] memory houses) {... */\n    tag_13:\n        /* \"contracts/Test.sol\":208:213  owner */\n      sload(0x00)\n        /* \"contracts/Test.sol\":877:898  House[] memory houses */\n      0x60\n      swap1\n      sub(exp(0x02, 0xa0), 0x01)\n        /* \"contracts/Test.sol\":208:213  owner */\n      and\n        /* \"contracts/Test.sol\":194:204  msg.sender */\n      caller\n        /* \"contracts/Test.sol\":194:213  msg.sender == owner */\n      eq\n        /* \"contracts/Test.sol\":186:232  require(msg.sender == owner, \"Not this owner\") */\n      tag_35\n      jumpi\n      mload(0x40)\n      0x08c379a000000000000000000000000000000000000000000000000000000000\n      dup2\n      mstore\n      0x04\n      add\n      tag_23\n      swap1\n      tag_24\n      jump\t// in\n    tag_35:\n      sub(exp(0x02, 0xa0), 0x01)\n        /* \"contracts/Test.sol\":919:943  possessions[_houseOwner] */\n      dup3\n      and\n      0x00\n      swap1\n      dup2\n      mstore\n        /* \"contracts/Test.sol\":919:930  possessions */\n      0x01\n        /* \"contracts/Test.sol\":919:943  possessions[_houseOwner] */\n      0x20\n      swap1\n      dup2\n      mstore\n      0x40\n      dup1\n      dup4\n      keccak256\n        /* \"contracts/Test.sol\":910:943  houses = possessions[_houseOwner] */\n      dup1\n      sload\n      dup3\n      mload\n      dup2\n      dup6\n      mul\n      dup2\n      add\n      dup6\n      add\n      swap1\n      swap4\n      mstore\n      dup1\n      dup4\n      mstore\n      swap2\n      swap4\n        /* \"contracts/Test.sol\":919:943  possessions[_houseOwner] */\n      swap1\n      swap3\n        /* \"contracts/Test.sol\":910:943  houses = possessions[_houseOwner] */\n      dup5\n      add\n    tag_38:\n      dup3\n      dup3\n      lt\n      iszero\n      tag_39\n      jumpi\n      dup4\n      dup3\n      swap1\n      0x00\n      mstore\n      keccak256(0x00, 0x20)\n      swap1\n      0x05\n      mul\n      add\n      mload(0x40)\n      dup1\n      0xa0\n      add\n      0x40\n      mstore\n      swap1\n      dup2\n      0x00\n      dup3\n      add\n      sload\n      dup2\n      mstore\n      0x20\n      add\n      0x01\n      dup3\n      add\n      sload\n      dup2\n      mstore\n      0x20\n      add\n      0x02\n      dup3\n      add\n      sload\n      dup2\n      mstore\n      0x20\n      add\n      0x03\n      dup3\n      add\n      0x00\n      swap1\n      sload\n      swap1\n      0x0100\n      exp\n      swap1\n      div\n      0xff\n      and\n      0x02\n      dup2\n      gt\n      iszero\n      tag_42\n      jumpi\n      tag_42\n      tag_28\n      jump\t// in\n    tag_42:\n      0x02\n      dup2\n      gt\n      iszero\n      tag_44\n      jumpi\n      tag_44\n      tag_28\n      jump\t// in\n    tag_44:\n      dup2\n      mstore\n      0x20\n      add\n      0x04\n      dup3\n      add\n      dup1\n      sload\n      tag_45\n      swap1\n      tag_46\n      jump\t// in\n    tag_45:\n      dup1\n      0x1f\n      add\n      0x20\n      dup1\n      swap2\n      div\n      mul\n      0x20\n      add\n      mload(0x40)\n      swap1\n      dup2\n      add\n      0x40\n      mstore\n      dup1\n      swap3\n      swap2\n      swap1\n      dup2\n      dup2\n      mstore\n      0x20\n      add\n      dup3\n      dup1\n      sload\n      tag_47\n      swap1\n      tag_46\n      jump\t// in\n    tag_47:\n      dup1\n      iszero\n      tag_48\n      jumpi\n      dup1\n      0x1f\n      lt\n      tag_49\n      jumpi\n      0x0100\n      dup1\n      dup4\n      sload\n      div\n      mul\n      dup4\n      mstore\n      swap2\n      0x20\n      add\n      swap2\n      jump(tag_48)\n    tag_49:\n      dup3\n      add\n      swap2\n      swap1\n      0x00\n      mstore\n      keccak256(0x00, 0x20)\n      swap1\n    tag_50:\n      dup2\n      sload\n      dup2\n      mstore\n      swap1\n      0x01\n      add\n      swap1\n      0x20\n      add\n      dup1\n      dup4\n      gt\n      tag_50\n      jumpi\n      dup3\n      swap1\n      sub\n      0x1f\n      and\n      dup3\n      add\n      swap2\n    tag_48:\n      pop\n      pop\n      pop\n      pop\n      pop\n      dup2\n      mstore\n      pop\n      pop\n      dup2\n      mstore\n      0x20\n      add\n      swap1\n      0x01\n      add\n      swap1\n      jump(tag_38)\n    tag_39:\n      pop\n      pop\n      pop\n      pop\n      swap1\n      pop\n        /* \"contracts/Test.sol\":811:950  function getHouse(address _houseOwner) external onlyOwner returns(House[] memory houses) {... */\n      swap2\n      swap1\n      pop\n      jump\t// out\n        /* \"contracts/Test.sol\":956:1103  function getNumberHouse(address _houseOwner) external onlyOwner returns(uint numberHouses) {... */\n    tag_18:\n        /* \"contracts/Test.sol\":1028:1045  uint numberHouses */\n      0x00\n        /* \"contracts/Test.sol\":208:213  owner */\n      dup1\n      sload\n      sub(exp(0x02, 0xa0), 0x01)\n      and\n        /* \"contracts/Test.sol\":194:204  msg.sender */\n      caller\n        /* \"contracts/Test.sol\":194:213  msg.sender == owner */\n      eq\n        /* \"contracts/Test.sol\":186:232  require(msg.sender == owner, \"Not this owner\") */\n      tag_52\n      jumpi\n      mload(0x40)\n      0x08c379a000000000000000000000000000000000000000000000000000000000\n      dup2\n      mstore\n      0x04\n      add\n      tag_23\n      swap1\n      tag_24\n      jump\t// in\n    tag_52:\n      pop\n      sub(exp(0x02, 0xa0), 0x01)\n        /* \"contracts/Test.sol\":1064:1088  possessions[_houseOwner] */\n      dup2\n      and\n      0x00\n      swap1\n      dup2\n      mstore\n        /* \"contracts/Test.sol\":1064:1075  possessions */\n      0x01\n        /* \"contracts/Test.sol\":1064:1088  possessions[_houseOwner] */\n      0x20\n      mstore\n      0x40\n      swap1\n      keccak256\n        /* \"contracts/Test.sol\":1064:1095  possessions[_houseOwner].length */\n      sload\n        /* \"contracts/Test.sol\":242:243  _ */\n    tag_54:\n        /* \"contracts/Test.sol\":956:1103  function getNumberHouse(address _houseOwner) external onlyOwner returns(uint numberHouses) {... */\n      swap2\n      swap1\n      pop\n      jump\t// out\n    tag_33:\n      dup3\n      dup1\n      sload\n      tag_55\n      swap1\n      tag_46\n      jump\t// in\n    tag_55:\n      swap1\n      0x00\n      mstore\n      keccak256(0x00, 0x20)\n      swap1\n      0x1f\n      add\n      0x20\n      swap1\n      div\n      dup2\n      add\n      swap3\n      dup3\n      tag_57\n      jumpi\n      0x00\n      dup6\n      sstore\n      jump(tag_60)\n    tag_57:\n      dup3\n      0x1f\n      lt\n      tag_58\n      jumpi\n      dup1\n      mload\n      not(0xff)\n      and\n      dup4\n      dup1\n      add\n      or\n      dup6\n      sstore\n      jump(tag_60)\n    tag_58:\n      dup3\n      dup1\n      add\n      0x01\n      add\n      dup6\n      sstore\n      dup3\n      iszero\n      tag_60\n      jumpi\n      swap2\n      dup3\n      add\n    tag_59:\n      dup3\n      dup2\n      gt\n      iszero\n      tag_60\n      jumpi\n      dup3\n      mload\n      dup3\n      sstore\n      swap2\n      0x20\n      add\n      swap2\n      swap1\n      0x01\n      add\n      swap1\n      jump(tag_59)\n    tag_60:\n      pop\n      tag_61\n      swap3\n      swap2\n      pop\n      tag_62\n      jump\t// in\n    tag_61:\n      pop\n      swap1\n      jump\t// out\n    tag_62:\n    tag_63:\n      dup1\n      dup3\n      gt\n      iszero\n      tag_61\n      jumpi\n      0x00\n      dup2\n      sstore\n      0x01\n      add\n      jump(tag_63)\n        /* \"#utility.yul\":14:210   */\n    tag_66:\n        /* \"#utility.yul\":82:102   */\n      dup1\n      calldataload\n      sub(exp(0x02, 0xa0), 0x01)\n        /* \"#utility.yul\":131:185   */\n      dup2\n      and\n        /* \"#utility.yul\":121:186   */\n      dup2\n      eq\n        /* \"#utility.yul\":111:204   */\n      tag_54\n      jumpi\n        /* \"#utility.yul\":200:201   */\n      0x00\n        /* \"#utility.yul\":197:198   */\n      dup1\n        /* \"#utility.yul\":190:202   */\n      revert\n        /* \"#utility.yul\":215:365   */\n    tag_69:\n        /* \"#utility.yul\":290:310   */\n      dup1\n      calldataload\n        /* \"#utility.yul\":339:340   */\n      0x03\n        /* \"#utility.yul\":329:341   */\n      dup2\n      lt\n        /* \"#utility.yul\":319:359   */\n      tag_54\n      jumpi\n        /* \"#utility.yul\":355:356   */\n      0x00\n        /* \"#utility.yul\":352:353   */\n      dup1\n        /* \"#utility.yul\":345:357   */\n      revert\n        /* \"#utility.yul\":370:556   */\n    tag_12:\n        /* \"#utility.yul\":429:435   */\n      0x00\n        /* \"#utility.yul\":482:484   */\n      0x20\n        /* \"#utility.yul\":470:479   */\n      dup3\n        /* \"#utility.yul\":461:468   */\n      dup5\n        /* \"#utility.yul\":457:480   */\n      sub\n        /* \"#utility.yul\":453:485   */\n      slt\n        /* \"#utility.yul\":450:502   */\n      iszero\n      tag_73\n      jumpi\n        /* \"#utility.yul\":498:499   */\n      0x00\n        /* \"#utility.yul\":495:496   */\n      dup1\n        /* \"#utility.yul\":488:500   */\n      revert\n        /* \"#utility.yul\":450:502   */\n    tag_73:\n        /* \"#utility.yul\":521:550   */\n      tag_74\n        /* \"#utility.yul\":540:549   */\n      dup3\n        /* \"#utility.yul\":521:550   */\n      tag_66\n      jump\t// in\n    tag_74:\n        /* \"#utility.yul\":511:550   */\n      swap4\n        /* \"#utility.yul\":370:556   */\n      swap3\n      pop\n      pop\n      pop\n      jump\t// out\n        /* \"#utility.yul\":561:1788   */\n    tag_8:\n        /* \"#utility.yul\":678:684   */\n      0x00\n        /* \"#utility.yul\":686:692   */\n      dup1\n        /* \"#utility.yul\":694:700   */\n      0x00\n        /* \"#utility.yul\":702:708   */\n      dup1\n        /* \"#utility.yul\":710:716   */\n      0x00\n        /* \"#utility.yul\":763:766   */\n      0xa0\n        /* \"#utility.yul\":751:760   */\n      dup7\n        /* \"#utility.yul\":742:749   */\n      dup9\n        /* \"#utility.yul\":738:761   */\n      sub\n        /* \"#utility.yul\":734:767   */\n      slt\n        /* \"#utility.yul\":731:784   */\n      iszero\n      tag_76\n      jumpi\n        /* \"#utility.yul\":780:781   */\n      0x00\n        /* \"#utility.yul\":777:778   */\n      dup1\n        /* \"#utility.yul\":770:782   */\n      revert\n        /* \"#utility.yul\":731:784   */\n    tag_76:\n        /* \"#utility.yul\":803:832   */\n      tag_77\n        /* \"#utility.yul\":822:831   */\n      dup7\n        /* \"#utility.yul\":803:832   */\n      tag_66\n      jump\t// in\n    tag_77:\n        /* \"#utility.yul\":793:832   */\n      swap5\n      pop\n        /* \"#utility.yul\":879:881   */\n      0x20\n        /* \"#utility.yul\":868:877   */\n      dup7\n        /* \"#utility.yul\":864:882   */\n      add\n        /* \"#utility.yul\":851:883   */\n      calldataload\n        /* \"#utility.yul\":841:883   */\n      swap4\n      pop\n        /* \"#utility.yul\":930:932   */\n      0x40\n        /* \"#utility.yul\":919:928   */\n      dup7\n        /* \"#utility.yul\":915:933   */\n      add\n        /* \"#utility.yul\":902:934   */\n      calldataload\n        /* \"#utility.yul\":892:934   */\n      swap3\n      pop\n        /* \"#utility.yul\":985:987   */\n      0x60\n        /* \"#utility.yul\":974:983   */\n      dup7\n        /* \"#utility.yul\":970:988   */\n      add\n        /* \"#utility.yul\":957:989   */\n      calldataload\n        /* \"#utility.yul\":1008:1026   */\n      0xffffffffffffffff\n        /* \"#utility.yul\":1049:1051   */\n      dup1\n        /* \"#utility.yul\":1041:1047   */\n      dup3\n        /* \"#utility.yul\":1038:1052   */\n      gt\n        /* \"#utility.yul\":1035:1069   */\n      iszero\n      tag_78\n      jumpi\n        /* \"#utility.yul\":1065:1066   */\n      0x00\n        /* \"#utility.yul\":1062:1063   */\n      dup1\n        /* \"#utility.yul\":1055:1067   */\n      revert\n        /* \"#utility.yul\":1035:1069   */\n    tag_78:\n        /* \"#utility.yul\":1103:1109   */\n      dup2\n        /* \"#utility.yul\":1092:1101   */\n      dup9\n        /* \"#utility.yul\":1088:1110   */\n      add\n        /* \"#utility.yul\":1078:1110   */\n      swap2\n      pop\n        /* \"#utility.yul\":1148:1155   */\n      dup9\n        /* \"#utility.yul\":1141:1145   */\n      0x1f\n        /* \"#utility.yul\":1137:1139   */\n      dup4\n        /* \"#utility.yul\":1133:1146   */\n      add\n        /* \"#utility.yul\":1129:1156   */\n      slt\n        /* \"#utility.yul\":1119:1174   */\n      tag_79\n      jumpi\n        /* \"#utility.yul\":1170:1171   */\n      0x00\n        /* \"#utility.yul\":1167:1168   */\n      dup1\n        /* \"#utility.yul\":1160:1172   */\n      revert\n        /* \"#utility.yul\":1119:1174   */\n    tag_79:\n        /* \"#utility.yul\":1206:1208   */\n      dup2\n        /* \"#utility.yul\":1193:1209   */\n      calldataload\n        /* \"#utility.yul\":1228:1230   */\n      dup2\n        /* \"#utility.yul\":1224:1226   */\n      dup2\n        /* \"#utility.yul\":1221:1231   */\n      gt\n        /* \"#utility.yul\":1218:1254   */\n      iszero\n      tag_81\n      jumpi\n        /* \"#utility.yul\":1234:1252   */\n      tag_81\n      tag_82\n      jump\t// in\n    tag_81:\n        /* \"#utility.yul\":1309:1311   */\n      0x40\n        /* \"#utility.yul\":1303:1312   */\n      mload\n        /* \"#utility.yul\":1277:1279   */\n      0x1f\n        /* \"#utility.yul\":1363:1376   */\n      dup3\n      add\n      not(0x1f)\n        /* \"#utility.yul\":1359:1381   */\n      swap1\n      dup2\n      and\n        /* \"#utility.yul\":1383:1385   */\n      0x3f\n        /* \"#utility.yul\":1355:1386   */\n      add\n        /* \"#utility.yul\":1351:1391   */\n      and\n        /* \"#utility.yul\":1339:1392   */\n      dup2\n      add\n      swap1\n        /* \"#utility.yul\":1407:1425   */\n      dup4\n      dup3\n      gt\n        /* \"#utility.yul\":1427:1449   */\n      dup2\n      dup4\n      lt\n        /* \"#utility.yul\":1404:1450   */\n      or\n        /* \"#utility.yul\":1401:1473   */\n      iszero\n      tag_84\n      jumpi\n        /* \"#utility.yul\":1453:1471   */\n      tag_84\n      tag_82\n      jump\t// in\n    tag_84:\n        /* \"#utility.yul\":1493:1503   */\n      dup2\n        /* \"#utility.yul\":1489:1491   */\n      0x40\n        /* \"#utility.yul\":1482:1504   */\n      mstore\n        /* \"#utility.yul\":1528:1530   */\n      dup3\n        /* \"#utility.yul\":1520:1526   */\n      dup2\n        /* \"#utility.yul\":1513:1531   */\n      mstore\n        /* \"#utility.yul\":1568:1575   */\n      dup12\n        /* \"#utility.yul\":1563:1565   */\n      0x20\n        /* \"#utility.yul\":1558:1560   */\n      dup5\n        /* \"#utility.yul\":1554:1556   */\n      dup8\n        /* \"#utility.yul\":1550:1561   */\n      add\n        /* \"#utility.yul\":1546:1566   */\n      add\n        /* \"#utility.yul\":1543:1576   */\n      gt\n        /* \"#utility.yul\":1540:1593   */\n      iszero\n      tag_85\n      jumpi\n        /* \"#utility.yul\":1589:1590   */\n      0x00\n        /* \"#utility.yul\":1586:1587   */\n      dup1\n        /* \"#utility.yul\":1579:1591   */\n      revert\n        /* \"#utility.yul\":1540:1593   */\n    tag_85:\n        /* \"#utility.yul\":1645:1647   */\n      dup3\n        /* \"#utility.yul\":1640:1642   */\n      0x20\n        /* \"#utility.yul\":1636:1638   */\n      dup7\n        /* \"#utility.yul\":1632:1643   */\n      add\n        /* \"#utility.yul\":1627:1629   */\n      0x20\n        /* \"#utility.yul\":1619:1625   */\n      dup4\n        /* \"#utility.yul\":1615:1630   */\n      add\n        /* \"#utility.yul\":1602:1648   */\n      calldatacopy\n        /* \"#utility.yul\":1690:1691   */\n      0x00\n        /* \"#utility.yul\":1685:1687   */\n      0x20\n        /* \"#utility.yul\":1680:1682   */\n      dup5\n        /* \"#utility.yul\":1672:1678   */\n      dup4\n        /* \"#utility.yul\":1668:1683   */\n      add\n        /* \"#utility.yul\":1664:1688   */\n      add\n        /* \"#utility.yul\":1657:1692   */\n      mstore\n        /* \"#utility.yul\":1711:1717   */\n      dup1\n        /* \"#utility.yul\":1701:1717   */\n      swap7\n      pop\n      pop\n      pop\n      pop\n      pop\n      pop\n        /* \"#utility.yul\":1736:1782   */\n      tag_86\n        /* \"#utility.yul\":1777:1780   */\n      0x80\n        /* \"#utility.yul\":1766:1775   */\n      dup8\n        /* \"#utility.yul\":1762:1781   */\n      add\n        /* \"#utility.yul\":1736:1782   */\n      tag_69\n      jump\t// in\n    tag_86:\n        /* \"#utility.yul\":1726:1782   */\n      swap1\n      pop\n        /* \"#utility.yul\":561:1788   */\n      swap3\n      swap6\n      pop\n      swap3\n      swap6\n      swap1\n      swap4\n      pop\n      jump\t// out\n        /* \"#utility.yul\":1793:3779   */\n    tag_15:\n        /* \"#utility.yul\":2006:2008   */\n      0x20\n        /* \"#utility.yul\":2058:2079   */\n      dup1\n      dup3\n      mstore\n        /* \"#utility.yul\":2128:2141   */\n      dup3\n      mload\n        /* \"#utility.yul\":2031:2049   */\n      dup3\n      dup3\n      add\n        /* \"#utility.yul\":2150:2172   */\n      dup2\n      swap1\n      mstore\n        /* \"#utility.yul\":1977:1981   */\n      0x00\n      swap2\n        /* \"#utility.yul\":2006:2008   */\n      swap1\n        /* \"#utility.yul\":2191:2193   */\n      0x40\n      swap1\n        /* \"#utility.yul\":2209:2227   */\n      dup2\n      dup6\n      add\n      swap1\n        /* \"#utility.yul\":2269:2284   */\n      dup1\n      dup5\n      mul\n        /* \"#utility.yul\":2254:2285   */\n      dup7\n      add\n        /* \"#utility.yul\":2250:2290   */\n      dup4\n      add\n        /* \"#utility.yul\":2313:2328   */\n      dup8\n      dup6\n      add\n        /* \"#utility.yul\":1977:1981   */\n      dup7\n        /* \"#utility.yul\":2356:3750   */\n    tag_88:\n        /* \"#utility.yul\":2370:2376   */\n      dup4\n        /* \"#utility.yul\":2367:2368   */\n      dup2\n        /* \"#utility.yul\":2364:2377   */\n      lt\n        /* \"#utility.yul\":2356:3750   */\n      iszero\n      tag_90\n      jumpi\n        /* \"#utility.yul\":2463:2465   */\n      0x3f\n        /* \"#utility.yul\":2459:2466   */\n      not\n        /* \"#utility.yul\":2447:2456   */\n      dup10\n        /* \"#utility.yul\":2439:2445   */\n      dup5\n        /* \"#utility.yul\":2435:2457   */\n      sub\n        /* \"#utility.yul\":2431:2467   */\n      add\n        /* \"#utility.yul\":2426:2429   */\n      dup6\n        /* \"#utility.yul\":2419:2468   */\n      mstore\n        /* \"#utility.yul\":2497:2503   */\n      dup2\n        /* \"#utility.yul\":2491:2504   */\n      mload\n        /* \"#utility.yul\":2527:2531   */\n      0xa0\n        /* \"#utility.yul\":2565:2567   */\n      dup2\n        /* \"#utility.yul\":2559:2568   */\n      mload\n        /* \"#utility.yul\":2551:2557   */\n      dup6\n        /* \"#utility.yul\":2544:2569   */\n      mstore\n        /* \"#utility.yul\":2620:2622   */\n      dup9\n        /* \"#utility.yul\":2616:2618   */\n      dup3\n        /* \"#utility.yul\":2612:2623   */\n      add\n        /* \"#utility.yul\":2606:2624   */\n      mload\n        /* \"#utility.yul\":2601:2603   */\n      dup10\n        /* \"#utility.yul\":2593:2599   */\n      dup7\n        /* \"#utility.yul\":2589:2604   */\n      add\n        /* \"#utility.yul\":2582:2625   */\n      mstore\n        /* \"#utility.yul\":2676:2678   */\n      dup8\n        /* \"#utility.yul\":2672:2674   */\n      dup3\n        /* \"#utility.yul\":2668:2679   */\n      add\n        /* \"#utility.yul\":2662:2680   */\n      mload\n        /* \"#utility.yul\":2657:2659   */\n      dup9\n        /* \"#utility.yul\":2649:2655   */\n      dup7\n        /* \"#utility.yul\":2645:2660   */\n      add\n        /* \"#utility.yul\":2638:2681   */\n      mstore\n        /* \"#utility.yul\":2704:2708   */\n      0x60\n        /* \"#utility.yul\":2755:2757   */\n      dup1\n        /* \"#utility.yul\":2751:2753   */\n      dup4\n        /* \"#utility.yul\":2747:2758   */\n      add\n        /* \"#utility.yul\":2741:2759   */\n      mload\n        /* \"#utility.yul\":2799:2800   */\n      0x03\n        /* \"#utility.yul\":2785:2797   */\n      dup2\n        /* \"#utility.yul\":2782:2801   */\n      lt\n        /* \"#utility.yul\":2772:2999   */\n      tag_91\n      jumpi\n      mul(0x4e487b71, exp(0x02, 0xe0))\n        /* \"#utility.yul\":2840:2841   */\n      0x00\n        /* \"#utility.yul\":2833:2921   */\n      mstore\n        /* \"#utility.yul\":2948:2952   */\n      0x21\n        /* \"#utility.yul\":2945:2946   */\n      0x04\n        /* \"#utility.yul\":2938:2953   */\n      mstore\n        /* \"#utility.yul\":2980:2984   */\n      0x24\n        /* \"#utility.yul\":2977:2978   */\n      0x00\n        /* \"#utility.yul\":2970:2985   */\n      revert\n        /* \"#utility.yul\":2772:2999   */\n    tag_91:\n        /* \"#utility.yul\":3019:3034   */\n      swap1\n      dup7\n      add\n        /* \"#utility.yul\":3012:3049   */\n      mstore\n        /* \"#utility.yul\":3072:3076   */\n      0x80\n        /* \"#utility.yul\":3117:3128   */\n      swap2\n      dup3\n      add\n        /* \"#utility.yul\":3111:3129   */\n      mload\n        /* \"#utility.yul\":3149:3164   */\n      swap2\n      dup6\n      add\n        /* \"#utility.yul\":3142:3169   */\n      dup2\n      swap1\n      mstore\n        /* \"#utility.yul\":3198:3219   */\n      dup2\n      mload\n        /* \"#utility.yul\":3239:3254   */\n      swap1\n      dup6\n      add\n        /* \"#utility.yul\":3232:3265   */\n      dup2\n      swap1\n      mstore\n      0x00\n      swap1\n        /* \"#utility.yul\":3303:3473   */\n    tag_92:\n        /* \"#utility.yul\":3319:3327   */\n      dup1\n        /* \"#utility.yul\":3314:3317   */\n      dup3\n        /* \"#utility.yul\":3311:3328   */\n      lt\n        /* \"#utility.yul\":3303:3473   */\n      iszero\n      tag_94\n      jumpi\n        /* \"#utility.yul\":3428:3452   */\n      dup3\n      dup3\n      add\n        /* \"#utility.yul\":3424:3457   */\n      dup11\n      add\n        /* \"#utility.yul\":3418:3458   */\n      mload\n        /* \"#utility.yul\":3394:3410   */\n      dup7\n      dup4\n      add\n        /* \"#utility.yul\":3412:3415   */\n      0xc0\n        /* \"#utility.yul\":3390:3416   */\n      add\n        /* \"#utility.yul\":3383:3459   */\n      mstore\n        /* \"#utility.yul\":3338:3350   */\n      swap1\n      dup10\n      add\n      swap1\n        /* \"#utility.yul\":3303:3473   */\n      jump(tag_92)\n    tag_94:\n        /* \"#utility.yul\":3497:3505   */\n      dup1\n        /* \"#utility.yul\":3492:3495   */\n      dup3\n        /* \"#utility.yul\":3489:3506   */\n      gt\n        /* \"#utility.yul\":3486:3593   */\n      iszero\n      tag_95\n      jumpi\n        /* \"#utility.yul\":3577:3578   */\n      0x00\n        /* \"#utility.yul\":3571:3574   */\n      0xc0\n        /* \"#utility.yul\":3560:3568   */\n      dup3\n        /* \"#utility.yul\":3552:3558   */\n      dup9\n        /* \"#utility.yul\":3548:3569   */\n      add\n        /* \"#utility.yul\":3544:3575   */\n      add\n        /* \"#utility.yul\":3537:3579   */\n      mstore\n        /* \"#utility.yul\":3486:3593   */\n    tag_95:\n        /* \"#utility.yul\":3728:3740   */\n      swap7\n      dup10\n      add\n      swap7\n        /* \"#utility.yul\":3659:3661   */\n      0x1f\n        /* \"#utility.yul\":3636:3653   */\n      add\n      not(0x1f)\n        /* \"#utility.yul\":3632:3663   */\n      and\n        /* \"#utility.yul\":3620:3664   */\n      swap5\n      swap1\n      swap5\n      add\n        /* \"#utility.yul\":3666:3669   */\n      0xc0\n        /* \"#utility.yul\":3616:3670   */\n      add\n      swap4\n      pop\n      pop\n        /* \"#utility.yul\":3693:3708   */\n      swap1\n      dup7\n      add\n      swap1\n        /* \"#utility.yul\":2392:2393   */\n      0x01\n        /* \"#utility.yul\":2385:2394   */\n      add\n        /* \"#utility.yul\":2356:3750   */\n      jump(tag_88)\n    tag_90:\n      pop\n        /* \"#utility.yul\":3767:3773   */\n      swap1\n      swap9\n        /* \"#utility.yul\":1793:3779   */\n      swap8\n      pop\n      pop\n      pop\n      pop\n      pop\n      pop\n      pop\n      pop\n      jump\t// out\n        /* \"#utility.yul\":3784:4122   */\n    tag_24:\n        /* \"#utility.yul\":3986:3988   */\n      0x20\n        /* \"#utility.yul\":3968:3989   */\n      dup1\n      dup3\n      mstore\n        /* \"#utility.yul\":4025:4027   */\n      0x0e\n        /* \"#utility.yul\":4005:4023   */\n      swap1\n      dup3\n      add\n        /* \"#utility.yul\":3998:4028   */\n      mstore\n        /* \"#utility.yul\":4064:4080   */\n      0x4e6f742074686973206f776e6572000000000000000000000000000000000000\n        /* \"#utility.yul\":4059:4061   */\n      0x40\n        /* \"#utility.yul\":4044:4062   */\n      dup3\n      add\n        /* \"#utility.yul\":4037:4081   */\n      mstore\n        /* \"#utility.yul\":4113:4115   */\n      0x60\n        /* \"#utility.yul\":4098:4116   */\n      add\n      swap1\n        /* \"#utility.yul\":3784:4122   */\n      jump\t// out\n        /* \"#utility.yul\":4309:4746   */\n    tag_46:\n        /* \"#utility.yul\":4394:4395   */\n      0x02\n        /* \"#utility.yul\":4384:4396   */\n      dup2\n      div\n        /* \"#utility.yul\":4441:4442   */\n      0x01\n        /* \"#utility.yul\":4431:4443   */\n      dup3\n      and\n      dup1\n        /* \"#utility.yul\":4452:4513   */\n      tag_99\n      jumpi\n        /* \"#utility.yul\":4506:4510   */\n      0x7f\n        /* \"#utility.yul\":4498:4504   */\n      dup3\n        /* \"#utility.yul\":4494:4511   */\n      and\n        /* \"#utility.yul\":4484:4511   */\n      swap2\n      pop\n        /* \"#utility.yul\":4452:4513   */\n    tag_99:\n        /* \"#utility.yul\":4559:4561   */\n      0x20\n        /* \"#utility.yul\":4551:4557   */\n      dup3\n        /* \"#utility.yul\":4548:4562   */\n      lt\n        /* \"#utility.yul\":4528:4546   */\n      dup2\n        /* \"#utility.yul\":4525:4563   */\n      eq\n        /* \"#utility.yul\":4522:4740   */\n      iszero\n      tag_100\n      jumpi\n      mul(0x4e487b71, exp(0x02, 0xe0))\n        /* \"#utility.yul\":4593:4594   */\n      0x00\n        /* \"#utility.yul\":4586:4674   */\n      mstore\n        /* \"#utility.yul\":4697:4701   */\n      0x22\n        /* \"#utility.yul\":4694:4695   */\n      0x04\n        /* \"#utility.yul\":4687:4702   */\n      mstore\n        /* \"#utility.yul\":4725:4729   */\n      0x24\n        /* \"#utility.yul\":4722:4723   */\n      0x00\n        /* \"#utility.yul\":4715:4730   */\n      revert\n        /* \"#utility.yul\":4522:4740   */\n    tag_100:\n      pop\n        /* \"#utility.yul\":4309:4746   */\n      swap2\n      swap1\n      pop\n      jump\t// out\n        /* \"#utility.yul\":4751:4935   */\n    tag_28:\n      mul(0x4e487b71, exp(0x02, 0xe0))\n        /* \"#utility.yul\":4800:4801   */\n      0x00\n        /* \"#utility.yul\":4793:4881   */\n      mstore\n        /* \"#utility.yul\":4900:4904   */\n      0x21\n        /* \"#utility.yul\":4897:4898   */\n      0x04\n        /* \"#utility.yul\":4890:4905   */\n      mstore\n        /* \"#utility.yul\":4924:4928   */\n      0x24\n        /* \"#utility.yul\":4921:4922   */\n      0x00\n        /* \"#utility.yul\":4914:4929   */\n      revert\n        /* \"#utility.yul\":4940:5124   */\n    tag_82:\n      mul(0x4e487b71, exp(0x02, 0xe0))\n        /* \"#utility.yul\":4989:4990   */\n      0x00\n        /* \"#utility.yul\":4982:5070   */\n      mstore\n        /* \"#utility.yul\":5089:5093   */\n      0x41\n        /* \"#utility.yul\":5086:5087   */\n      0x04\n        /* \"#utility.yul\":5079:5094   */\n      mstore\n        /* \"#utility.yul\":5113:5117   */\n      0x24\n        /* \"#utility.yul\":5110:5111   */\n      0x00\n        /* \"#utility.yul\":5103:5118   */\n      revert\n\n    auxdata: 0xa26469706673582212209ff8f5d2e27d9ea8cc0a67ff1ff2caf60efaa455c8f3650d57cb27325e2518fe64736f6c63430008070033\n}\n",
				"bytecode": {
					"linkReferences": {},
					"object": "608060405234801561001057600080fd5b5060008054600160a060020a03191633179055610785806100326000396000f3fe608060405234801561001057600080fd5b506004361061005d577c01000000000000000000000000000000000000000000000000000000006000350463210e72fc81146100625780633991737a1461007757806385800a0b146100a0575b600080fd5b6100756100703660046104d3565b6100c1565b005b61008a6100853660046104b1565b6101ed565b60405161009791906105b9565b60405180910390f35b6100b36100ae3660046104b1565b61038d565b604051908152602001610097565b600054600160a060020a0316331461010e576040517f08c379a0000000000000000000000000000000000000000000000000000000008152600401610105906106a8565b60405180910390fd5b600160a060020a0385166000908152600160209081526040918290208054835160a081018552818152928301889052928201869052906060810184600281111561015a5761015a61071d565b815260209081018690528254600181810185556000948552938290208351600590920201908155908201518184015560408201516002808301919091556060830151600383018054949593949193909260ff199092169184908111156101c2576101c261071d565b0217905550608082015180516101e29160048401916020909101906103f2565b505050505050505050565b600054606090600160a060020a03163314610234576040517f08c379a0000000000000000000000000000000000000000000000000000000008152600401610105906106a8565b600160a060020a038216600090815260016020908152604080832080548251818502810185019093528083529193909284015b8282101561038257838290600052602060002090600502016040518060a00160405290816000820154815260200160018201548152602001600282015481526020016003820160009054906101000a900460ff1660028111156102cc576102cc61071d565b60028111156102dd576102dd61071d565b81526020016004820180546102f1906106df565b80601f016020809104026020016040519081016040528092919081815260200182805461031d906106df565b801561036a5780601f1061033f5761010080835404028352916020019161036a565b820191906000526020600020905b81548152906001019060200180831161034d57829003601f168201915b50505050508152505081526020019060010190610267565b505050509050919050565b60008054600160a060020a031633146103d2576040517f08c379a0000000000000000000000000000000000000000000000000000000008152600401610105906106a8565b50600160a060020a0381166000908152600160205260409020545b919050565b8280546103fe906106df565b90600052602060002090601f0160209004810192826104205760008555610466565b82601f1061043957805160ff1916838001178555610466565b82800160010185558215610466579182015b8281111561046657825182559160200191906001019061044b565b50610472929150610476565b5090565b5b808211156104725760008155600101610477565b8035600160a060020a03811681146103ed57600080fd5b8035600381106103ed57600080fd5b6000602082840312156104c357600080fd5b6104cc8261048b565b9392505050565b600080600080600060a086880312156104eb57600080fd5b6104f48661048b565b94506020860135935060408601359250606086013567ffffffffffffffff8082111561051f57600080fd5b818801915088601f83011261053357600080fd5b81358181111561054557610545610736565b604051601f8201601f19908116603f0116810190838211818310171561056d5761056d610736565b816040528281528b602084870101111561058657600080fd5b8260208601602083013760006020848301015280965050505050506105ad608087016104a2565b90509295509295909350565b60208082528251828201819052600091906040908185019080840286018301878501865b8381101561069a57603f19898403018552815160a081518552888201518986015287820151888601526060808301516003811061062d5760e060020a634e487b7102600052602160045260246000fd5b9086015260809182015191850181905281519085018190526000905b80821015610667578282018a015186830160c0015290890190610649565b8082111561067957600060c082880101525b96890196601f01601f19169490940160c001935050908601906001016105dd565b509098975050505050505050565b6020808252600e908201527f4e6f742074686973206f776e6572000000000000000000000000000000000000604082015260600190565b6002810460018216806106f357607f821691505b602082108114156107175760e060020a634e487b7102600052602260045260246000fd5b50919050565b60e060020a634e487b7102600052602160045260246000fd5b60e060020a634e487b7102600052604160045260246000fdfea26469706673582212209ff8f5d2e27d9ea8cc0a67ff1ff2caf60efaa455c8f3650d57cb27325e2518fe64736f6c63430008070033",
					"opcodes": "PUSH1 0x80 PUSH1 0x40 MSTORE CALLVALUE DUP1 ISZERO PUSH2 0x10 JUMPI PUSH1 0x0 DUP1 REVERT JUMPDEST POP PUSH1 0x0 DUP1 SLOAD PUSH1 0x1 PUSH1 0xA0 PUSH1 0x2 EXP SUB NOT AND CALLER OR SWAP1 SSTORE PUSH2 0x785 DUP1 PUSH2 0x32 PUSH1 0x0 CODECOPY PUSH1 0x0 RETURN INVALID PUSH1 0x80 PUSH1 0x40 MSTORE CALLVALUE DUP1 ISZERO PUSH2 0x10 JUMPI PUSH1 0x0 DUP1 REVERT JUMPDEST POP PUSH1 0x4 CALLDATASIZE LT PUSH2 0x5D JUMPI PUSH29 0x100000000000000000000000000000000000000000000000000000000 PUSH1 0x0 CALLDATALOAD DIV PUSH4 0x210E72FC DUP2 EQ PUSH2 0x62 JUMPI DUP1 PUSH4 0x3991737A EQ PUSH2 0x77 JUMPI DUP1 PUSH4 0x85800A0B EQ PUSH2 0xA0 JUMPI JUMPDEST PUSH1 0x0 DUP1 REVERT JUMPDEST PUSH2 0x75 PUSH2 0x70 CALLDATASIZE PUSH1 0x4 PUSH2 0x4D3 JUMP JUMPDEST PUSH2 0xC1 JUMP JUMPDEST STOP JUMPDEST PUSH2 0x8A PUSH2 0x85 CALLDATASIZE PUSH1 0x4 PUSH2 0x4B1 JUMP JUMPDEST PUSH2 0x1ED JUMP JUMPDEST PUSH1 0x40 MLOAD PUSH2 0x97 SWAP2 SWAP1 PUSH2 0x5B9 JUMP JUMPDEST PUSH1 0x40 MLOAD DUP1 SWAP2 SUB SWAP1 RETURN JUMPDEST PUSH2 0xB3 PUSH2 0xAE CALLDATASIZE PUSH1 0x4 PUSH2 0x4B1 JUMP JUMPDEST PUSH2 0x38D JUMP JUMPDEST PUSH1 0x40 MLOAD SWAP1 DUP2 MSTORE PUSH1 0x20 ADD PUSH2 0x97 JUMP JUMPDEST PUSH1 0x0 SLOAD PUSH1 0x1 PUSH1 0xA0 PUSH1 0x2 EXP SUB AND CALLER EQ PUSH2 0x10E JUMPI PUSH1 0x40 MLOAD PUSH32 0x8C379A000000000000000000000000000000000000000000000000000000000 DUP2 MSTORE PUSH1 0x4 ADD PUSH2 0x105 SWAP1 PUSH2 0x6A8 JUMP JUMPDEST PUSH1 0x40 MLOAD DUP1 SWAP2 SUB SWAP1 REVERT JUMPDEST PUSH1 0x1 PUSH1 0xA0 PUSH1 0x2 EXP SUB DUP6 AND PUSH1 0x0 SWAP1 DUP2 MSTORE PUSH1 0x1 PUSH1 0x20 SWAP1 DUP2 MSTORE PUSH1 0x40 SWAP2 DUP3 SWAP1 KECCAK256 DUP1 SLOAD DUP4 MLOAD PUSH1 0xA0 DUP2 ADD DUP6 MSTORE DUP2 DUP2 MSTORE SWAP3 DUP4 ADD DUP9 SWAP1 MSTORE SWAP3 DUP3 ADD DUP7 SWAP1 MSTORE SWAP1 PUSH1 0x60 DUP2 ADD DUP5 PUSH1 0x2 DUP2 GT ISZERO PUSH2 0x15A JUMPI PUSH2 0x15A PUSH2 0x71D JUMP JUMPDEST DUP2 MSTORE PUSH1 0x20 SWAP1 DUP2 ADD DUP7 SWAP1 MSTORE DUP3 SLOAD PUSH1 0x1 DUP2 DUP2 ADD DUP6 SSTORE PUSH1 0x0 SWAP5 DUP6 MSTORE SWAP4 DUP3 SWAP1 KECCAK256 DUP4 MLOAD PUSH1 0x5 SWAP1 SWAP3 MUL ADD SWAP1 DUP2 SSTORE SWAP1 DUP3 ADD MLOAD DUP2 DUP5 ADD SSTORE PUSH1 0x40 DUP3 ADD MLOAD PUSH1 0x2 DUP1 DUP4 ADD SWAP2 SWAP1 SWAP2 SSTORE PUSH1 0x60 DUP4 ADD MLOAD PUSH1 0x3 DUP4 ADD DUP1 SLOAD SWAP5 SWAP6 SWAP4 SWAP5 SWAP2 SWAP4 SWAP1 SWAP3 PUSH1 0xFF NOT SWAP1 SWAP3 AND SWAP2 DUP5 SWAP1 DUP2 GT ISZERO PUSH2 0x1C2 JUMPI PUSH2 0x1C2 PUSH2 0x71D JUMP JUMPDEST MUL OR SWAP1 SSTORE POP PUSH1 0x80 DUP3 ADD MLOAD DUP1 MLOAD PUSH2 0x1E2 SWAP2 PUSH1 0x4 DUP5 ADD SWAP2 PUSH1 0x20 SWAP1 SWAP2 ADD SWAP1 PUSH2 0x3F2 JUMP JUMPDEST POP POP POP POP POP POP POP POP POP JUMP JUMPDEST PUSH1 0x0 SLOAD PUSH1 0x60 SWAP1 PUSH1 0x1 PUSH1 0xA0 PUSH1 0x2 EXP SUB AND CALLER EQ PUSH2 0x234 JUMPI PUSH1 0x40 MLOAD PUSH32 0x8C379A000000000000000000000000000000000000000000000000000000000 DUP2 MSTORE PUSH1 0x4 ADD PUSH2 0x105 SWAP1 PUSH2 0x6A8 JUMP JUMPDEST PUSH1 0x1 PUSH1 0xA0 PUSH1 0x2 EXP SUB DUP3 AND PUSH1 0x0 SWAP1 DUP2 MSTORE PUSH1 0x1 PUSH1 0x20 SWAP1 DUP2 MSTORE PUSH1 0x40 DUP1 DUP4 KECCAK256 DUP1 SLOAD DUP3 MLOAD DUP2 DUP6 MUL DUP2 ADD DUP6 ADD SWAP1 SWAP4 MSTORE DUP1 DUP4 MSTORE SWAP2 SWAP4 SWAP1 SWAP3 DUP5 ADD JUMPDEST DUP3 DUP3 LT ISZERO PUSH2 0x382 JUMPI DUP4 DUP3 SWAP1 PUSH1 0x0 MSTORE PUSH1 0x20 PUSH1 0x0 KECCAK256 SWAP1 PUSH1 0x5 MUL ADD PUSH1 0x40 MLOAD DUP1 PUSH1 0xA0 ADD PUSH1 0x40 MSTORE SWAP1 DUP2 PUSH1 0x0 DUP3 ADD SLOAD DUP2 MSTORE PUSH1 0x20 ADD PUSH1 0x1 DUP3 ADD SLOAD DUP2 MSTORE PUSH1 0x20 ADD PUSH1 0x2 DUP3 ADD SLOAD DUP2 MSTORE PUSH1 0x20 ADD PUSH1 0x3 DUP3 ADD PUSH1 0x0 SWAP1 SLOAD SWAP1 PUSH2 0x100 EXP SWAP1 DIV PUSH1 0xFF AND PUSH1 0x2 DUP2 GT ISZERO PUSH2 0x2CC JUMPI PUSH2 0x2CC PUSH2 0x71D JUMP JUMPDEST PUSH1 0x2 DUP2 GT ISZERO PUSH2 0x2DD JUMPI PUSH2 0x2DD PUSH2 0x71D JUMP JUMPDEST DUP2 MSTORE PUSH1 0x20 ADD PUSH1 0x4 DUP3 ADD DUP1 SLOAD PUSH2 0x2F1 SWAP1 PUSH2 0x6DF JUMP JUMPDEST DUP1 PUSH1 0x1F ADD PUSH1 0x20 DUP1 SWAP2 DIV MUL PUSH1 0x20 ADD PUSH1 0x40 MLOAD SWAP1 DUP2 ADD PUSH1 0x40 MSTORE DUP1 SWAP3 SWAP2 SWAP1 DUP2 DUP2 MSTORE PUSH1 0x20 ADD DUP3 DUP1 SLOAD PUSH2 0x31D SWAP1 PUSH2 0x6DF JUMP JUMPDEST DUP1 ISZERO PUSH2 0x36A JUMPI DUP1 PUSH1 0x1F LT PUSH2 0x33F JUMPI PUSH2 0x100 DUP1 DUP4 SLOAD DIV MUL DUP4 MSTORE SWAP2 PUSH1 0x20 ADD SWAP2 PUSH2 0x36A JUMP JUMPDEST DUP3 ADD SWAP2 SWAP1 PUSH1 0x0 MSTORE PUSH1 0x20 PUSH1 0x0 KECCAK256 SWAP1 JUMPDEST DUP2 SLOAD DUP2 MSTORE SWAP1 PUSH1 0x1 ADD SWAP1 PUSH1 0x20 ADD DUP1 DUP4 GT PUSH2 0x34D JUMPI DUP3 SWAP1 SUB PUSH1 0x1F AND DUP3 ADD SWAP2 JUMPDEST POP POP POP POP POP DUP2 MSTORE POP POP DUP2 MSTORE PUSH1 0x20 ADD SWAP1 PUSH1 0x1 ADD SWAP1 PUSH2 0x267 JUMP JUMPDEST POP POP POP POP SWAP1 POP SWAP2 SWAP1 POP JUMP JUMPDEST PUSH1 0x0 DUP1 SLOAD PUSH1 0x1 PUSH1 0xA0 PUSH1 0x2 EXP SUB AND CALLER EQ PUSH2 0x3D2 JUMPI PUSH1 0x40 MLOAD PUSH32 0x8C379A000000000000000000000000000000000000000000000000000000000 DUP2 MSTORE PUSH1 0x4 ADD PUSH2 0x105 SWAP1 PUSH2 0x6A8 JUMP JUMPDEST POP PUSH1 0x1 PUSH1 0xA0 PUSH1 0x2 EXP SUB DUP2 AND PUSH1 0x0 SWAP1 DUP2 MSTORE PUSH1 0x1 PUSH1 0x20 MSTORE PUSH1 0x40 SWAP1 KECCAK256 SLOAD JUMPDEST SWAP2 SWAP1 POP JUMP JUMPDEST DUP3 DUP1 SLOAD PUSH2 0x3FE SWAP1 PUSH2 0x6DF JUMP JUMPDEST SWAP1 PUSH1 0x0 MSTORE PUSH1 0x20 PUSH1 0x0 KECCAK256 SWAP1 PUSH1 0x1F ADD PUSH1 0x20 SWAP1 DIV DUP2 ADD SWAP3 DUP3 PUSH2 0x420 JUMPI PUSH1 0x0 DUP6 SSTORE PUSH2 0x466 JUMP JUMPDEST DUP3 PUSH1 0x1F LT PUSH2 0x439 JUMPI DUP1 MLOAD PUSH1 0xFF NOT AND DUP4 DUP1 ADD OR DUP6 SSTORE PUSH2 0x466 JUMP JUMPDEST DUP3 DUP1 ADD PUSH1 0x1 ADD DUP6 SSTORE DUP3 ISZERO PUSH2 0x466 JUMPI SWAP2 DUP3 ADD JUMPDEST DUP3 DUP2 GT ISZERO PUSH2 0x466 JUMPI DUP3 MLOAD DUP3 SSTORE SWAP2 PUSH1 0x20 ADD SWAP2 SWAP1 PUSH1 0x1 ADD SWAP1 PUSH2 0x44B JUMP JUMPDEST POP PUSH2 0x472 SWAP3 SWAP2 POP PUSH2 0x476 JUMP JUMPDEST POP SWAP1 JUMP JUMPDEST JUMPDEST DUP1 DUP3 GT ISZERO PUSH2 0x472 JUMPI PUSH1 0x0 DUP2 SSTORE PUSH1 0x1 ADD PUSH2 0x477 JUMP JUMPDEST DUP1 CALLDATALOAD PUSH1 0x1 PUSH1 0xA0 PUSH1 0x2 EXP SUB DUP2 AND DUP2 EQ PUSH2 0x3ED JUMPI PUSH1 0x0 DUP1 REVERT JUMPDEST DUP1 CALLDATALOAD PUSH1 0x3 DUP2 LT PUSH2 0x3ED JUMPI PUSH1 0x0 DUP1 REVERT JUMPDEST PUSH1 0x0 PUSH1 0x20 DUP3 DUP5 SUB SLT ISZERO PUSH2 0x4C3 JUMPI PUSH1 0x0 DUP1 REVERT JUMPDEST PUSH2 0x4CC DUP3 PUSH2 0x48B JUMP JUMPDEST SWAP4 SWAP3 POP POP POP JUMP JUMPDEST PUSH1 0x0 DUP1 PUSH1 0x0 DUP1 PUSH1 0x0 PUSH1 0xA0 DUP7 DUP9 SUB SLT ISZERO PUSH2 0x4EB JUMPI PUSH1 0x0 DUP1 REVERT JUMPDEST PUSH2 0x4F4 DUP7 PUSH2 0x48B JUMP JUMPDEST SWAP5 POP PUSH1 0x20 DUP7 ADD CALLDATALOAD SWAP4 POP PUSH1 0x40 DUP7 ADD CALLDATALOAD SWAP3 POP PUSH1 0x60 DUP7 ADD CALLDATALOAD PUSH8 0xFFFFFFFFFFFFFFFF DUP1 DUP3 GT ISZERO PUSH2 0x51F JUMPI PUSH1 0x0 DUP1 REVERT JUMPDEST DUP2 DUP9 ADD SWAP2 POP DUP9 PUSH1 0x1F DUP4 ADD SLT PUSH2 0x533 JUMPI PUSH1 0x0 DUP1 REVERT JUMPDEST DUP2 CALLDATALOAD DUP2 DUP2 GT ISZERO PUSH2 0x545 JUMPI PUSH2 0x545 PUSH2 0x736 JUMP JUMPDEST PUSH1 0x40 MLOAD PUSH1 0x1F DUP3 ADD PUSH1 0x1F NOT SWAP1 DUP2 AND PUSH1 0x3F ADD AND DUP2 ADD SWAP1 DUP4 DUP3 GT DUP2 DUP4 LT OR ISZERO PUSH2 0x56D JUMPI PUSH2 0x56D PUSH2 0x736 JUMP JUMPDEST DUP2 PUSH1 0x40 MSTORE DUP3 DUP2 MSTORE DUP12 PUSH1 0x20 DUP5 DUP8 ADD ADD GT ISZERO PUSH2 0x586 JUMPI PUSH1 0x0 DUP1 REVERT JUMPDEST DUP3 PUSH1 0x20 DUP7 ADD PUSH1 0x20 DUP4 ADD CALLDATACOPY PUSH1 0x0 PUSH1 0x20 DUP5 DUP4 ADD ADD MSTORE DUP1 SWAP7 POP POP POP POP POP POP PUSH2 0x5AD PUSH1 0x80 DUP8 ADD PUSH2 0x4A2 JUMP JUMPDEST SWAP1 POP SWAP3 SWAP6 POP SWAP3 SWAP6 SWAP1 SWAP4 POP JUMP JUMPDEST PUSH1 0x20 DUP1 DUP3 MSTORE DUP3 MLOAD DUP3 DUP3 ADD DUP2 SWAP1 MSTORE PUSH1 0x0 SWAP2 SWAP1 PUSH1 0x40 SWAP1 DUP2 DUP6 ADD SWAP1 DUP1 DUP5 MUL DUP7 ADD DUP4 ADD DUP8 DUP6 ADD DUP7 JUMPDEST DUP4 DUP2 LT ISZERO PUSH2 0x69A JUMPI PUSH1 0x3F NOT DUP10 DUP5 SUB ADD DUP6 MSTORE DUP2 MLOAD PUSH1 0xA0 DUP2 MLOAD DUP6 MSTORE DUP9 DUP3 ADD MLOAD DUP10 DUP7 ADD MSTORE DUP8 DUP3 ADD MLOAD DUP9 DUP7 ADD MSTORE PUSH1 0x60 DUP1 DUP4 ADD MLOAD PUSH1 0x3 DUP2 LT PUSH2 0x62D JUMPI PUSH1 0xE0 PUSH1 0x2 EXP PUSH4 0x4E487B71 MUL PUSH1 0x0 MSTORE PUSH1 0x21 PUSH1 0x4 MSTORE PUSH1 0x24 PUSH1 0x0 REVERT JUMPDEST SWAP1 DUP7 ADD MSTORE PUSH1 0x80 SWAP2 DUP3 ADD MLOAD SWAP2 DUP6 ADD DUP2 SWAP1 MSTORE DUP2 MLOAD SWAP1 DUP6 ADD DUP2 SWAP1 MSTORE PUSH1 0x0 SWAP1 JUMPDEST DUP1 DUP3 LT ISZERO PUSH2 0x667 JUMPI DUP3 DUP3 ADD DUP11 ADD MLOAD DUP7 DUP4 ADD PUSH1 0xC0 ADD MSTORE SWAP1 DUP10 ADD SWAP1 PUSH2 0x649 JUMP JUMPDEST DUP1 DUP3 GT ISZERO PUSH2 0x679 JUMPI PUSH1 0x0 PUSH1 0xC0 DUP3 DUP9 ADD ADD MSTORE JUMPDEST SWAP7 DUP10 ADD SWAP7 PUSH1 0x1F ADD PUSH1 0x1F NOT AND SWAP5 SWAP1 SWAP5 ADD PUSH1 0xC0 ADD SWAP4 POP POP SWAP1 DUP7 ADD SWAP1 PUSH1 0x1 ADD PUSH2 0x5DD JUMP JUMPDEST POP SWAP1 SWAP9 SWAP8 POP POP POP POP POP POP POP POP JUMP JUMPDEST PUSH1 0x20 DUP1 DUP3 MSTORE PUSH1 0xE SWAP1 DUP3 ADD MSTORE PUSH32 0x4E6F742074686973206F776E6572000000000000000000000000000000000000 PUSH1 0x40 DUP3 ADD MSTORE PUSH1 0x60 ADD SWAP1 JUMP JUMPDEST PUSH1 0x2 DUP2 DIV PUSH1 0x1 DUP3 AND DUP1 PUSH2 0x6F3 JUMPI PUSH1 0x7F DUP3 AND SWAP2 POP JUMPDEST PUSH1 0x20 DUP3 LT DUP2 EQ ISZERO PUSH2 0x717 JUMPI PUSH1 0xE0 PUSH1 0x2 EXP PUSH4 0x4E487B71 MUL PUSH1 0x0 MSTORE PUSH1 0x22 PUSH1 0x4 MSTORE PUSH1 0x24 PUSH1 0x0 REVERT JUMPDEST POP SWAP2 SWAP1 POP JUMP JUMPDEST PUSH1 0xE0 PUSH1 0x2 EXP PUSH4 0x4E487B71 MUL PUSH1 0x0 MSTORE PUSH1 0x21 PUSH1 0x4 MSTORE PUSH1 0x24 PUSH1 0x0 REVERT JUMPDEST PUSH1 0xE0 PUSH1 0x2 EXP PUSH4 0x4E487B71 MUL PUSH1 0x0 MSTORE PUSH1 0x41 PUSH1 0x4 MSTORE PUSH1 0x24 PUSH1 0x0 REVERT INVALID LOG2 PUSH5 0x6970667358 0x22 SLT KECCAK256 SWAP16 0xF8 CREATE2 0xD2 0xE2 PUSH30 0x9EA8CC0A67FF1FF2CAF60EFAA455C8F3650D57CB27325E2518FE64736F6C PUSH4 0x43000807 STOP CALLER "
				},
				"gasEstimates": {
					"creation": {
						"codeDepositCost": "385000",
						"executionCost": "20716",
						"totalCost": "405716"
					},
					"external": {
						"addHouse(address,uint256,uint256,string,uint8)": "infinite",
						"getHouse(address)": "infinite",
						"getNumberHouse(address)": "infinite"
					}
				},
				"methodIdentifiers": {
					"addHouse(address,uint256,uint256,string,uint8)": "210e72fc",
					"getHouse(address)": "3991737a",
					"getNumberHouse(address)": "85800a0b"
				}
			},
			"storageLayout": {
				"storage": [
					{
						"astId": 3,
						"contract": "contracts/Test.sol:Agency",
						"label": "owner",
						"offset": 0,
						"slot": "0",
						"type": "t_address"
					},
					{
						"astId": 49,
						"contract": "contracts/Test.sol:Agency",
						"label": "possessions",
						"offset": 0,
						"slot": "1",
						"type": "t_mapping(t_address,t_array(t_struct(House)43_storage)dyn_storage)"
					}
				],
				"types": {
					"t_address": {
						"encoding": "inplace",
						"label": "address",
						"numberOfBytes": "20"
					},
					"t_array(t_struct(House)43_storage)dyn_storage": {
						"base": "t_struct(House)43_storage",
						"encoding": "dynamic_array",
						"label": "struct Agency.House[]",
						"numberOfBytes": "32"
					},
					"t_enum(HouseType)31": {
						"encoding": "inplace",
						"label": "enum Agency.HouseType",
						"numberOfBytes": "1"
					},
					"t_mapping(t_address,t_array(t_struct(House)43_storage)dyn_storage)": {
						"encoding": "mapping",
						"key": "t_address",
						"label": "mapping(address => struct Agency.House[])",
						"numberOfBytes": "32",
						"value": "t_array(t_struct(House)43_storage)dyn_storage"
					},
					"t_string_storage": {
						"encoding": "bytes",
						"label": "string",
						"numberOfBytes": "32"
					},
					"t_struct(House)43_storage": {
						"encoding": "inplace",
						"label": "struct Agency.House",
						"members": [
							{
								"astId": 33,
								"contract": "contracts/Test.sol:Agency",
								"label": "id",
								"offset": 0,
								"slot": "0",
								"type": "t_uint256"
							},
							{
								"astId": 35,
								"contract": "contracts/Test.sol:Agency",
								"label": "price",
								"offset": 0,
								"slot": "1",
								"type": "t_uint256"
							},
							{
								"astId": 37,
								"contract": "contracts/Test.sol:Agency",
								"label": "size",
								"offset": 0,
								"slot": "2",
								"type": "t_uint256"
							},
							{
								"astId": 40,
								"contract": "contracts/Test.sol:Agency",
								"label": "houseType",
								"offset": 0,
								"slot": "3",
								"type": "t_enum(HouseType)31"
							},
							{
								"astId": 42,
								"contract": "contracts/Test.sol:Agency",
								"label": "location",
								"offset": 0,
								"slot": "4",
								"type": "t_string_storage"
							}
						],
						"numberOfBytes": "160"
					},
					"t_uint256": {
						"encoding": "inplace",
						"label": "uint256",
						"numberOfBytes": "32"
					}
				}
			},
			"userdoc": {
				"kind": "user",
				"methods": {},
				"version": 1
			}
		}
	}
}