{
	"contracts/3_Ballot.sol": {
		"Vote": {
			"abi": [
				{
					"inputs": [
						{
							"internalType": "bytes32[]",
							"name": "_proposalNames",
							"type": "bytes32[]"
						}
					],
					"stateMutability": "nonpayable",
					"type": "constructor"
				},
				{
					"inputs": [],
					"name": "chairman",
					"outputs": [
						{
							"internalType": "address",
							"name": "",
							"type": "address"
						}
					],
					"stateMutability": "view",
					"type": "function"
				},
				{
					"inputs": [
						{
							"internalType": "address",
							"name": "_voter",
							"type": "address"
						}
					],
					"name": "giveRightToVote",
					"outputs": [],
					"stateMutability": "nonpayable",
					"type": "function"
				},
				{
					"inputs": [],
					"name": "isOpenVote",
					"outputs": [
						{
							"internalType": "bool",
							"name": "",
							"type": "bool"
						}
					],
					"stateMutability": "view",
					"type": "function"
				},
				{
					"inputs": [],
					"name": "proposalWinnerName",
					"outputs": [
						{
							"internalType": "bytes32",
							"name": "_winnerName",
							"type": "bytes32"
						}
					],
					"stateMutability": "view",
					"type": "function"
				},
				{
					"inputs": [
						{
							"internalType": "uint256",
							"name": "",
							"type": "uint256"
						}
					],
					"name": "proposals",
					"outputs": [
						{
							"internalType": "bytes32",
							"name": "name",
							"type": "bytes32"
						},
						{
							"internalType": "uint256",
							"name": "voteCount",
							"type": "uint256"
						}
					],
					"stateMutability": "view",
					"type": "function"
				},
				{
					"inputs": [],
					"name": "stopVote",
					"outputs": [
						{
							"internalType": "bytes32",
							"name": "_winnerName",
							"type": "bytes32"
						}
					],
					"stateMutability": "nonpayable",
					"type": "function"
				},
				{
					"inputs": [
						{
							"internalType": "uint8",
							"name": "_proposalId",
							"type": "uint8"
						},
						{
							"internalType": "address",
							"name": "_voter",
							"type": "address"
						}
					],
					"name": "vote",
					"outputs": [],
					"stateMutability": "nonpayable",
					"type": "function"
				},
				{
					"inputs": [],
					"name": "winnerName",
					"outputs": [
						{
							"internalType": "bytes32",
							"name": "_winnerName",
							"type": "bytes32"
						}
					],
					"stateMutability": "view",
					"type": "function"
				}
			],
			"devdoc": {
				"kind": "dev",
				"methods": {},
				"version": 1
			},
			"evm": {
				"assembly": "    /* \"contracts/3_Ballot.sol\":70:2725  contract Vote {... */\n  mstore(0x40, 0x80)\n    /* \"contracts/3_Ballot.sol\":379:383  true */\n  0x01\n    /* \"contracts/3_Ballot.sol\":354:383  bool public isOpenVote = true */\n  0x02\n  exp(0x0100, 0x14)\n  dup2\n  sload\n  dup2\n  0xff\n  mul\n  not\n  and\n  swap1\n  dup4\n  iszero\n  iszero\n  mul\n  or\n  swap1\n  sstore\n  pop\n    /* \"contracts/3_Ballot.sol\":388:820  constructor(bytes32[] memory _proposalNames) {... */\n  callvalue\n  dup1\n  iszero\n  tag_1\n  jumpi\n  0x00\n  dup1\n  revert\ntag_1:\n  pop\n  mload(0x40)\n  sub(codesize, bytecodeSize)\n  dup1\n  bytecodeSize\n  dup4\n  codecopy\n  dup2\n  dup2\n  add\n  0x40\n  mstore\n  dup2\n  add\n  swap1\n  tag_2\n  swap2\n  swap1\n  tag_3\n  jump\t// in\ntag_2:\n    /* \"contracts/3_Ballot.sol\":450:460  msg.sender */\n  caller\n    /* \"contracts/3_Ballot.sol\":439:447  chairman */\n  0x02\n  0x00\n    /* \"contracts/3_Ballot.sol\":439:460  chairman = msg.sender */\n  0x0100\n  exp\n  dup2\n  sload\n  dup2\n  0xffffffffffffffffffffffffffffffffffffffff\n  mul\n  not\n  and\n  swap1\n  dup4\n  0xffffffffffffffffffffffffffffffffffffffff\n  and\n  mul\n  or\n  swap1\n  sstore\n  pop\n    /* \"contracts/3_Ballot.sol\":492:493  1 */\n  0x01\n    /* \"contracts/3_Ballot.sol\":466:472  voters */\n  0x00\n    /* \"contracts/3_Ballot.sol\":466:482  voters[chairman] */\n  dup1\n    /* \"contracts/3_Ballot.sol\":473:481  chairman */\n  0x02\n  0x00\n  swap1\n  sload\n  swap1\n  0x0100\n  exp\n  swap1\n  div\n  0xffffffffffffffffffffffffffffffffffffffff\n  and\n    /* \"contracts/3_Ballot.sol\":466:482  voters[chairman] */\n  0xffffffffffffffffffffffffffffffffffffffff\n  and\n  0xffffffffffffffffffffffffffffffffffffffff\n  and\n  dup2\n  mstore\n  0x20\n  add\n  swap1\n  dup2\n  mstore\n  0x20\n  add\n  0x00\n  keccak256\n    /* \"contracts/3_Ballot.sol\":466:489  voters[chairman].weight */\n  0x00\n  add\n  0x02\n    /* \"contracts/3_Ballot.sol\":466:493  voters[chairman].weight = 1 */\n  0x0100\n  exp\n  dup2\n  sload\n  dup2\n  0xffffffff\n  mul\n  not\n  and\n  swap1\n  dup4\n  0xffffffff\n  and\n  mul\n  or\n  swap1\n  sstore\n  pop\n    /* \"contracts/3_Ballot.sol\":687:696  uint256 i */\n  0x00\n    /* \"contracts/3_Ballot.sol\":682:816  for (uint256 i = 0; i < _proposalNames.length; i++) {... */\ntag_6:\n    /* \"contracts/3_Ballot.sol\":706:720  _proposalNames */\n  dup2\n    /* \"contracts/3_Ballot.sol\":706:727  _proposalNames.length */\n  mload\n    /* \"contracts/3_Ballot.sol\":702:703  i */\n  dup2\n    /* \"contracts/3_Ballot.sol\":702:727  i < _proposalNames.length */\n  lt\n    /* \"contracts/3_Ballot.sol\":682:816  for (uint256 i = 0; i < _proposalNames.length; i++) {... */\n  iszero\n  tag_7\n  jumpi\n    /* \"contracts/3_Ballot.sol\":742:751  proposals */\n  0x01\n    /* \"contracts/3_Ballot.sol\":757:808  Proposal({ name: _proposalNames[i], voteCount: 0 }) */\n  mload(0x40)\n  dup1\n  0x40\n  add\n  0x40\n  mstore\n  dup1\n    /* \"contracts/3_Ballot.sol\":774:788  _proposalNames */\n  dup5\n    /* \"contracts/3_Ballot.sol\":789:790  i */\n  dup5\n    /* \"contracts/3_Ballot.sol\":774:791  _proposalNames[i] */\n  dup2\n  mload\n  dup2\n  lt\n  tag_9\n  jumpi\n  tag_10\n  tag_11\n  jump\t// in\ntag_10:\ntag_9:\n  0x20\n  mul\n  0x20\n  add\n  add\n  mload\n    /* \"contracts/3_Ballot.sol\":757:808  Proposal({ name: _proposalNames[i], voteCount: 0 }) */\n  dup2\n  mstore\n  0x20\n  add\n    /* \"contracts/3_Ballot.sol\":804:805  0 */\n  0x00\n    /* \"contracts/3_Ballot.sol\":757:808  Proposal({ name: _proposalNames[i], voteCount: 0 }) */\n  dup2\n  mstore\n  pop\n    /* \"contracts/3_Ballot.sol\":742:809  proposals.push(Proposal({ name: _proposalNames[i], voteCount: 0 })) */\n  swap1\n  dup1\n  0x01\n  dup2\n  sload\n  add\n  dup1\n  dup3\n  sstore\n  dup1\n  swap2\n  pop\n  pop\n  0x01\n  swap1\n  sub\n  swap1\n  0x00\n  mstore\n  keccak256(0x00, 0x20)\n  swap1\n  0x02\n  mul\n  add\n  0x00\n  swap1\n  swap2\n  swap1\n  swap2\n  swap1\n  swap2\n  pop\n  0x00\n  dup3\n  add\n  mload\n  dup2\n  0x00\n  add\n  sstore\n  0x20\n  dup3\n  add\n  mload\n  dup2\n  0x01\n  add\n  sstore\n  pop\n  pop\n    /* \"contracts/3_Ballot.sol\":729:732  i++ */\n  dup1\n  dup1\n  tag_13\n  swap1\n  tag_14\n  jump\t// in\ntag_13:\n  swap2\n  pop\n  pop\n    /* \"contracts/3_Ballot.sol\":682:816  for (uint256 i = 0; i < _proposalNames.length; i++) {... */\n  jump(tag_6)\ntag_7:\n  pop\n    /* \"contracts/3_Ballot.sol\":388:820  constructor(bytes32[] memory _proposalNames) {... */\n  pop\n    /* \"contracts/3_Ballot.sol\":70:2725  contract Vote {... */\n  jump(tag_15)\n    /* \"#utility.yul\":24:768   */\ntag_17:\n    /* \"#utility.yul\":131:136   */\n  0x00\n    /* \"#utility.yul\":156:237   */\n  tag_19\n    /* \"#utility.yul\":172:236   */\n  tag_20\n    /* \"#utility.yul\":229:235   */\n  dup5\n    /* \"#utility.yul\":172:236   */\n  tag_21\n  jump\t// in\ntag_20:\n    /* \"#utility.yul\":156:237   */\n  tag_22\n  jump\t// in\ntag_19:\n    /* \"#utility.yul\":147:237   */\n  swap1\n  pop\n    /* \"#utility.yul\":257:262   */\n  dup1\n    /* \"#utility.yul\":286:292   */\n  dup4\n    /* \"#utility.yul\":279:284   */\n  dup3\n    /* \"#utility.yul\":272:293   */\n  mstore\n    /* \"#utility.yul\":320:324   */\n  0x20\n    /* \"#utility.yul\":313:318   */\n  dup3\n    /* \"#utility.yul\":309:325   */\n  add\n    /* \"#utility.yul\":302:325   */\n  swap1\n  pop\n    /* \"#utility.yul\":346:352   */\n  dup3\n    /* \"#utility.yul\":396:399   */\n  dup6\n    /* \"#utility.yul\":388:392   */\n  0x20\n    /* \"#utility.yul\":380:386   */\n  dup7\n    /* \"#utility.yul\":376:393   */\n  mul\n    /* \"#utility.yul\":371:374   */\n  dup3\n    /* \"#utility.yul\":367:394   */\n  add\n    /* \"#utility.yul\":364:400   */\n  gt\n    /* \"#utility.yul\":361:504   */\n  iszero\n  tag_23\n  jumpi\n    /* \"#utility.yul\":415:494   */\n  tag_24\n  tag_25\n  jump\t// in\ntag_24:\n    /* \"#utility.yul\":361:504   */\ntag_23:\n    /* \"#utility.yul\":528:529   */\n  0x00\n    /* \"#utility.yul\":513:762   */\ntag_26:\n    /* \"#utility.yul\":538:544   */\n  dup6\n    /* \"#utility.yul\":535:536   */\n  dup2\n    /* \"#utility.yul\":532:545   */\n  lt\n    /* \"#utility.yul\":513:762   */\n  iszero\n  tag_28\n  jumpi\n    /* \"#utility.yul\":606:609   */\n  dup2\n    /* \"#utility.yul\":635:683   */\n  tag_29\n    /* \"#utility.yul\":679:682   */\n  dup9\n    /* \"#utility.yul\":667:677   */\n  dup3\n    /* \"#utility.yul\":635:683   */\n  tag_30\n  jump\t// in\ntag_29:\n    /* \"#utility.yul\":630:633   */\n  dup5\n    /* \"#utility.yul\":623:684   */\n  mstore\n    /* \"#utility.yul\":713:717   */\n  0x20\n    /* \"#utility.yul\":708:711   */\n  dup5\n    /* \"#utility.yul\":704:718   */\n  add\n    /* \"#utility.yul\":697:718   */\n  swap4\n  pop\n    /* \"#utility.yul\":747:751   */\n  0x20\n    /* \"#utility.yul\":742:745   */\n  dup4\n    /* \"#utility.yul\":738:752   */\n  add\n    /* \"#utility.yul\":731:752   */\n  swap3\n  pop\n    /* \"#utility.yul\":573:762   */\n  pop\n    /* \"#utility.yul\":560:561   */\n  0x01\n    /* \"#utility.yul\":557:558   */\n  dup2\n    /* \"#utility.yul\":553:562   */\n  add\n    /* \"#utility.yul\":548:562   */\n  swap1\n  pop\n    /* \"#utility.yul\":513:762   */\n  jump(tag_26)\ntag_28:\n    /* \"#utility.yul\":517:531   */\n  pop\n    /* \"#utility.yul\":137:768   */\n  pop\n  pop\n    /* \"#utility.yul\":24:768   */\n  swap4\n  swap3\n  pop\n  pop\n  pop\n  jump\t// out\n    /* \"#utility.yul\":791:1176   */\ntag_31:\n    /* \"#utility.yul\":873:878   */\n  0x00\n    /* \"#utility.yul\":922:925   */\n  dup3\n    /* \"#utility.yul\":915:919   */\n  0x1f\n    /* \"#utility.yul\":907:913   */\n  dup4\n    /* \"#utility.yul\":903:920   */\n  add\n    /* \"#utility.yul\":899:926   */\n  slt\n    /* \"#utility.yul\":889:1011   */\n  tag_33\n  jumpi\n    /* \"#utility.yul\":930:1009   */\n  tag_34\n  tag_35\n  jump\t// in\ntag_34:\n    /* \"#utility.yul\":889:1011   */\ntag_33:\n    /* \"#utility.yul\":1040:1046   */\n  dup2\n    /* \"#utility.yul\":1034:1047   */\n  mload\n    /* \"#utility.yul\":1065:1170   */\n  tag_36\n    /* \"#utility.yul\":1166:1169   */\n  dup5\n    /* \"#utility.yul\":1158:1164   */\n  dup3\n    /* \"#utility.yul\":1151:1155   */\n  0x20\n    /* \"#utility.yul\":1143:1149   */\n  dup7\n    /* \"#utility.yul\":1139:1156   */\n  add\n    /* \"#utility.yul\":1065:1170   */\n  tag_17\n  jump\t// in\ntag_36:\n    /* \"#utility.yul\":1056:1170   */\n  swap2\n  pop\n    /* \"#utility.yul\":879:1176   */\n  pop\n    /* \"#utility.yul\":791:1176   */\n  swap3\n  swap2\n  pop\n  pop\n  jump\t// out\n    /* \"#utility.yul\":1182:1325   */\ntag_30:\n    /* \"#utility.yul\":1239:1244   */\n  0x00\n    /* \"#utility.yul\":1270:1276   */\n  dup2\n    /* \"#utility.yul\":1264:1277   */\n  mload\n    /* \"#utility.yul\":1255:1277   */\n  swap1\n  pop\n    /* \"#utility.yul\":1286:1319   */\n  tag_38\n    /* \"#utility.yul\":1313:1318   */\n  dup2\n    /* \"#utility.yul\":1286:1319   */\n  tag_39\n  jump\t// in\ntag_38:\n    /* \"#utility.yul\":1182:1325   */\n  swap3\n  swap2\n  pop\n  pop\n  jump\t// out\n    /* \"#utility.yul\":1331:1885   */\ntag_3:\n    /* \"#utility.yul\":1426:1432   */\n  0x00\n    /* \"#utility.yul\":1475:1477   */\n  0x20\n    /* \"#utility.yul\":1463:1472   */\n  dup3\n    /* \"#utility.yul\":1454:1461   */\n  dup5\n    /* \"#utility.yul\":1450:1473   */\n  sub\n    /* \"#utility.yul\":1446:1478   */\n  slt\n    /* \"#utility.yul\":1443:1562   */\n  iszero\n  tag_41\n  jumpi\n    /* \"#utility.yul\":1481:1560   */\n  tag_42\n  tag_43\n  jump\t// in\ntag_42:\n    /* \"#utility.yul\":1443:1562   */\ntag_41:\n    /* \"#utility.yul\":1622:1623   */\n  0x00\n    /* \"#utility.yul\":1611:1620   */\n  dup3\n    /* \"#utility.yul\":1607:1624   */\n  add\n    /* \"#utility.yul\":1601:1625   */\n  mload\n    /* \"#utility.yul\":1652:1670   */\n  0xffffffffffffffff\n    /* \"#utility.yul\":1644:1650   */\n  dup2\n    /* \"#utility.yul\":1641:1671   */\n  gt\n    /* \"#utility.yul\":1638:1755   */\n  iszero\n  tag_44\n  jumpi\n    /* \"#utility.yul\":1674:1753   */\n  tag_45\n  tag_46\n  jump\t// in\ntag_45:\n    /* \"#utility.yul\":1638:1755   */\ntag_44:\n    /* \"#utility.yul\":1779:1868   */\n  tag_47\n    /* \"#utility.yul\":1860:1867   */\n  dup5\n    /* \"#utility.yul\":1851:1857   */\n  dup3\n    /* \"#utility.yul\":1840:1849   */\n  dup6\n    /* \"#utility.yul\":1836:1858   */\n  add\n    /* \"#utility.yul\":1779:1868   */\n  tag_31\n  jump\t// in\ntag_47:\n    /* \"#utility.yul\":1769:1868   */\n  swap2\n  pop\n    /* \"#utility.yul\":1572:1878   */\n  pop\n    /* \"#utility.yul\":1331:1885   */\n  swap3\n  swap2\n  pop\n  pop\n  jump\t// out\n    /* \"#utility.yul\":1891:2020   */\ntag_22:\n    /* \"#utility.yul\":1925:1931   */\n  0x00\n    /* \"#utility.yul\":1952:1972   */\n  tag_49\n  tag_50\n  jump\t// in\ntag_49:\n    /* \"#utility.yul\":1942:1972   */\n  swap1\n  pop\n    /* \"#utility.yul\":1981:2014   */\n  tag_51\n    /* \"#utility.yul\":2009:2013   */\n  dup3\n    /* \"#utility.yul\":2001:2007   */\n  dup3\n    /* \"#utility.yul\":1981:2014   */\n  tag_52\n  jump\t// in\ntag_51:\n    /* \"#utility.yul\":1891:2020   */\n  swap2\n  swap1\n  pop\n  jump\t// out\n    /* \"#utility.yul\":2026:2101   */\ntag_50:\n    /* \"#utility.yul\":2059:2065   */\n  0x00\n    /* \"#utility.yul\":2092:2094   */\n  0x40\n    /* \"#utility.yul\":2086:2095   */\n  mload\n    /* \"#utility.yul\":2076:2095   */\n  swap1\n  pop\n    /* \"#utility.yul\":2026:2101   */\n  swap1\n  jump\t// out\n    /* \"#utility.yul\":2107:2418   */\ntag_21:\n    /* \"#utility.yul\":2184:2188   */\n  0x00\n    /* \"#utility.yul\":2274:2292   */\n  0xffffffffffffffff\n    /* \"#utility.yul\":2266:2272   */\n  dup3\n    /* \"#utility.yul\":2263:2293   */\n  gt\n    /* \"#utility.yul\":2260:2316   */\n  iszero\n  tag_55\n  jumpi\n    /* \"#utility.yul\":2296:2314   */\n  tag_56\n  tag_57\n  jump\t// in\ntag_56:\n    /* \"#utility.yul\":2260:2316   */\ntag_55:\n    /* \"#utility.yul\":2346:2350   */\n  0x20\n    /* \"#utility.yul\":2338:2344   */\n  dup3\n    /* \"#utility.yul\":2334:2351   */\n  mul\n    /* \"#utility.yul\":2326:2351   */\n  swap1\n  pop\n    /* \"#utility.yul\":2406:2410   */\n  0x20\n    /* \"#utility.yul\":2400:2404   */\n  dup2\n    /* \"#utility.yul\":2396:2411   */\n  add\n    /* \"#utility.yul\":2388:2411   */\n  swap1\n  pop\n    /* \"#utility.yul\":2107:2418   */\n  swap2\n  swap1\n  pop\n  jump\t// out\n    /* \"#utility.yul\":2424:2501   */\ntag_58:\n    /* \"#utility.yul\":2461:2468   */\n  0x00\n    /* \"#utility.yul\":2490:2495   */\n  dup2\n    /* \"#utility.yul\":2479:2495   */\n  swap1\n  pop\n    /* \"#utility.yul\":2424:2501   */\n  swap2\n  swap1\n  pop\n  jump\t// out\n    /* \"#utility.yul\":2507:2584   */\ntag_60:\n    /* \"#utility.yul\":2544:2551   */\n  0x00\n    /* \"#utility.yul\":2573:2578   */\n  dup2\n    /* \"#utility.yul\":2562:2578   */\n  swap1\n  pop\n    /* \"#utility.yul\":2507:2584   */\n  swap2\n  swap1\n  pop\n  jump\t// out\n    /* \"#utility.yul\":2590:2871   */\ntag_52:\n    /* \"#utility.yul\":2673:2700   */\n  tag_63\n    /* \"#utility.yul\":2695:2699   */\n  dup3\n    /* \"#utility.yul\":2673:2700   */\n  tag_64\n  jump\t// in\ntag_63:\n    /* \"#utility.yul\":2665:2671   */\n  dup2\n    /* \"#utility.yul\":2661:2701   */\n  add\n    /* \"#utility.yul\":2803:2809   */\n  dup2\n    /* \"#utility.yul\":2791:2801   */\n  dup2\n    /* \"#utility.yul\":2788:2810   */\n  lt\n    /* \"#utility.yul\":2767:2785   */\n  0xffffffffffffffff\n    /* \"#utility.yul\":2755:2765   */\n  dup3\n    /* \"#utility.yul\":2752:2786   */\n  gt\n    /* \"#utility.yul\":2749:2811   */\n  or\n    /* \"#utility.yul\":2746:2834   */\n  iszero\n  tag_65\n  jumpi\n    /* \"#utility.yul\":2814:2832   */\n  tag_66\n  tag_57\n  jump\t// in\ntag_66:\n    /* \"#utility.yul\":2746:2834   */\ntag_65:\n    /* \"#utility.yul\":2854:2864   */\n  dup1\n    /* \"#utility.yul\":2850:2852   */\n  0x40\n    /* \"#utility.yul\":2843:2865   */\n  mstore\n    /* \"#utility.yul\":2633:2871   */\n  pop\n    /* \"#utility.yul\":2590:2871   */\n  pop\n  pop\n  jump\t// out\n    /* \"#utility.yul\":2877:3110   */\ntag_14:\n    /* \"#utility.yul\":2916:2919   */\n  0x00\n    /* \"#utility.yul\":2939:2963   */\n  tag_68\n    /* \"#utility.yul\":2957:2962   */\n  dup3\n    /* \"#utility.yul\":2939:2963   */\n  tag_60\n  jump\t// in\ntag_68:\n    /* \"#utility.yul\":2930:2963   */\n  swap2\n  pop\n    /* \"#utility.yul\":2985:3051   */\n  0xffffffffffffffffffffffffffffffffffffffffffffffffffffffffffffffff\n    /* \"#utility.yul\":2978:2983   */\n  dup3\n    /* \"#utility.yul\":2975:3052   */\n  eq\n    /* \"#utility.yul\":2972:3075   */\n  iszero\n  tag_69\n  jumpi\n    /* \"#utility.yul\":3055:3073   */\n  tag_70\n  tag_71\n  jump\t// in\ntag_70:\n    /* \"#utility.yul\":2972:3075   */\ntag_69:\n    /* \"#utility.yul\":3102:3103   */\n  0x01\n    /* \"#utility.yul\":3095:3100   */\n  dup3\n    /* \"#utility.yul\":3091:3104   */\n  add\n    /* \"#utility.yul\":3084:3104   */\n  swap1\n  pop\n    /* \"#utility.yul\":2877:3110   */\n  swap2\n  swap1\n  pop\n  jump\t// out\n    /* \"#utility.yul\":3116:3296   */\ntag_71:\n    /* \"#utility.yul\":3164:3241   */\n  0x4e487b7100000000000000000000000000000000000000000000000000000000\n    /* \"#utility.yul\":3161:3162   */\n  0x00\n    /* \"#utility.yul\":3154:3242   */\n  mstore\n    /* \"#utility.yul\":3261:3265   */\n  0x11\n    /* \"#utility.yul\":3258:3259   */\n  0x04\n    /* \"#utility.yul\":3251:3266   */\n  mstore\n    /* \"#utility.yul\":3285:3289   */\n  0x24\n    /* \"#utility.yul\":3282:3283   */\n  0x00\n    /* \"#utility.yul\":3275:3290   */\n  revert\n    /* \"#utility.yul\":3302:3482   */\ntag_11:\n    /* \"#utility.yul\":3350:3427   */\n  0x4e487b7100000000000000000000000000000000000000000000000000000000\n    /* \"#utility.yul\":3347:3348   */\n  0x00\n    /* \"#utility.yul\":3340:3428   */\n  mstore\n    /* \"#utility.yul\":3447:3451   */\n  0x32\n    /* \"#utility.yul\":3444:3445   */\n  0x04\n    /* \"#utility.yul\":3437:3452   */\n  mstore\n    /* \"#utility.yul\":3471:3475   */\n  0x24\n    /* \"#utility.yul\":3468:3469   */\n  0x00\n    /* \"#utility.yul\":3461:3476   */\n  revert\n    /* \"#utility.yul\":3488:3668   */\ntag_57:\n    /* \"#utility.yul\":3536:3613   */\n  0x4e487b7100000000000000000000000000000000000000000000000000000000\n    /* \"#utility.yul\":3533:3534   */\n  0x00\n    /* \"#utility.yul\":3526:3614   */\n  mstore\n    /* \"#utility.yul\":3633:3637   */\n  0x41\n    /* \"#utility.yul\":3630:3631   */\n  0x04\n    /* \"#utility.yul\":3623:3638   */\n  mstore\n    /* \"#utility.yul\":3657:3661   */\n  0x24\n    /* \"#utility.yul\":3654:3655   */\n  0x00\n    /* \"#utility.yul\":3647:3662   */\n  revert\n    /* \"#utility.yul\":3674:3791   */\ntag_35:\n    /* \"#utility.yul\":3783:3784   */\n  0x00\n    /* \"#utility.yul\":3780:3781   */\n  dup1\n    /* \"#utility.yul\":3773:3785   */\n  revert\n    /* \"#utility.yul\":3797:3914   */\ntag_25:\n    /* \"#utility.yul\":3906:3907   */\n  0x00\n    /* \"#utility.yul\":3903:3904   */\n  dup1\n    /* \"#utility.yul\":3896:3908   */\n  revert\n    /* \"#utility.yul\":3920:4037   */\ntag_46:\n    /* \"#utility.yul\":4029:4030   */\n  0x00\n    /* \"#utility.yul\":4026:4027   */\n  dup1\n    /* \"#utility.yul\":4019:4031   */\n  revert\n    /* \"#utility.yul\":4043:4160   */\ntag_43:\n    /* \"#utility.yul\":4152:4153   */\n  0x00\n    /* \"#utility.yul\":4149:4150   */\n  dup1\n    /* \"#utility.yul\":4142:4154   */\n  revert\n    /* \"#utility.yul\":4166:4268   */\ntag_64:\n    /* \"#utility.yul\":4207:4213   */\n  0x00\n    /* \"#utility.yul\":4258:4260   */\n  0x1f\n    /* \"#utility.yul\":4254:4261   */\n  not\n    /* \"#utility.yul\":4249:4251   */\n  0x1f\n    /* \"#utility.yul\":4242:4247   */\n  dup4\n    /* \"#utility.yul\":4238:4252   */\n  add\n    /* \"#utility.yul\":4234:4262   */\n  and\n    /* \"#utility.yul\":4224:4262   */\n  swap1\n  pop\n    /* \"#utility.yul\":4166:4268   */\n  swap2\n  swap1\n  pop\n  jump\t// out\n    /* \"#utility.yul\":4274:4396   */\ntag_39:\n    /* \"#utility.yul\":4347:4371   */\n  tag_81\n    /* \"#utility.yul\":4365:4370   */\n  dup2\n    /* \"#utility.yul\":4347:4371   */\n  tag_58\n  jump\t// in\ntag_81:\n    /* \"#utility.yul\":4340:4345   */\n  dup2\n    /* \"#utility.yul\":4337:4372   */\n  eq\n    /* \"#utility.yul\":4327:4390   */\n  tag_82\n  jumpi\n    /* \"#utility.yul\":4386:4387   */\n  0x00\n    /* \"#utility.yul\":4383:4384   */\n  dup1\n    /* \"#utility.yul\":4376:4388   */\n  revert\n    /* \"#utility.yul\":4327:4390   */\ntag_82:\n    /* \"#utility.yul\":4274:4396   */\n  pop\n  jump\t// out\n    /* \"contracts/3_Ballot.sol\":70:2725  contract Vote {... */\ntag_15:\n  dataSize(sub_0)\n  dup1\n  dataOffset(sub_0)\n  0x00\n  codecopy\n  0x00\n  return\nstop\n\nsub_0: assembly {\n        /* \"contracts/3_Ballot.sol\":70:2725  contract Vote {... */\n      mstore(0x40, 0x80)\n      callvalue\n      dup1\n      iszero\n      tag_1\n      jumpi\n      0x00\n      dup1\n      revert\n    tag_1:\n      pop\n      jumpi(tag_2, lt(calldatasize, 0x04))\n      shr(0xe0, calldataload(0x00))\n      dup1\n      0x9e7b8d61\n      gt\n      tag_11\n      jumpi\n      dup1\n      0x9e7b8d61\n      eq\n      tag_7\n      jumpi\n      dup1\n      0xb61bfe5b\n      eq\n      tag_8\n      jumpi\n      dup1\n      0xb81c6453\n      eq\n      tag_9\n      jumpi\n      dup1\n      0xe2ba53f0\n      eq\n      tag_10\n      jumpi\n      jump(tag_2)\n    tag_11:\n      dup1\n      0x013cf08b\n      eq\n      tag_3\n      jumpi\n      dup1\n      0x2495c0ce\n      eq\n      tag_4\n      jumpi\n      dup1\n      0x72133c96\n      eq\n      tag_5\n      jumpi\n      dup1\n      0x87f7b975\n      eq\n      tag_6\n      jumpi\n    tag_2:\n      0x00\n      dup1\n      revert\n        /* \"contracts/3_Ballot.sol\":294:321  Proposal[] public proposals */\n    tag_3:\n      tag_12\n      0x04\n      dup1\n      calldatasize\n      sub\n      dup2\n      add\n      swap1\n      tag_13\n      swap2\n      swap1\n      tag_14\n      jump\t// in\n    tag_13:\n      tag_15\n      jump\t// in\n    tag_12:\n      mload(0x40)\n      tag_16\n      swap3\n      swap2\n      swap1\n      tag_17\n      jump\t// in\n    tag_16:\n      mload(0x40)\n      dup1\n      swap2\n      sub\n      swap1\n      return\n        /* \"contracts/3_Ballot.sol\":2379:2549  function stopVote()... */\n    tag_4:\n      tag_18\n      tag_19\n      jump\t// in\n    tag_18:\n      mload(0x40)\n      tag_20\n      swap2\n      swap1\n      tag_21\n      jump\t// in\n    tag_20:\n      mload(0x40)\n      dup1\n      swap2\n      sub\n      swap1\n      return\n        /* \"contracts/3_Ballot.sol\":2028:2375  function proposalWinnerName() public view voteOpened returns (bytes32 _winnerName) {... */\n    tag_5:\n      tag_22\n      tag_23\n      jump\t// in\n    tag_22:\n      mload(0x40)\n      tag_24\n      swap2\n      swap1\n      tag_21\n      jump\t// in\n    tag_24:\n      mload(0x40)\n      dup1\n      swap2\n      sub\n      swap1\n      return\n        /* \"contracts/3_Ballot.sol\":326:349  address public chairman */\n    tag_6:\n      tag_25\n      tag_26\n      jump\t// in\n    tag_25:\n      mload(0x40)\n      tag_27\n      swap2\n      swap1\n      tag_28\n      jump\t// in\n    tag_27:\n      mload(0x40)\n      dup1\n      swap2\n      sub\n      swap1\n      return\n        /* \"contracts/3_Ballot.sol\":1576:1750  function giveRightToVote(address _voter)... */\n    tag_7:\n      tag_29\n      0x04\n      dup1\n      calldatasize\n      sub\n      dup2\n      add\n      swap1\n      tag_30\n      swap2\n      swap1\n      tag_31\n      jump\t// in\n    tag_30:\n      tag_32\n      jump\t// in\n    tag_29:\n      stop\n        /* \"contracts/3_Ballot.sol\":354:383  bool public isOpenVote = true */\n    tag_8:\n      tag_33\n      tag_34\n      jump\t// in\n    tag_33:\n      mload(0x40)\n      tag_35\n      swap2\n      swap1\n      tag_36\n      jump\t// in\n    tag_35:\n      mload(0x40)\n      dup1\n      swap2\n      sub\n      swap1\n      return\n        /* \"contracts/3_Ballot.sol\":1754:2024  function vote(uint8 _proposalId, address _voter)... */\n    tag_9:\n      tag_37\n      0x04\n      dup1\n      calldatasize\n      sub\n      dup2\n      add\n      swap1\n      tag_38\n      swap2\n      swap1\n      tag_39\n      jump\t// in\n    tag_38:\n      tag_40\n      jump\t// in\n    tag_37:\n      stop\n        /* \"contracts/3_Ballot.sol\":2553:2723  function winnerName() public view returns (bytes32 _winnerName){... */\n    tag_10:\n      tag_41\n      tag_42\n      jump\t// in\n    tag_41:\n      mload(0x40)\n      tag_43\n      swap2\n      swap1\n      tag_21\n      jump\t// in\n    tag_43:\n      mload(0x40)\n      dup1\n      swap2\n      sub\n      swap1\n      return\n        /* \"contracts/3_Ballot.sol\":294:321  Proposal[] public proposals */\n    tag_15:\n      0x01\n      dup2\n      dup2\n      sload\n      dup2\n      lt\n      tag_44\n      jumpi\n      0x00\n      dup1\n      revert\n    tag_44:\n      swap1\n      0x00\n      mstore\n      keccak256(0x00, 0x20)\n      swap1\n      0x02\n      mul\n      add\n      0x00\n      swap2\n      pop\n      swap1\n      pop\n      dup1\n      0x00\n      add\n      sload\n      swap1\n      dup1\n      0x01\n      add\n      sload\n      swap1\n      pop\n      dup3\n      jump\t// out\n        /* \"contracts/3_Ballot.sol\":2379:2549  function stopVote()... */\n    tag_19:\n        /* \"contracts/3_Ballot.sol\":2457:2476  bytes32 _winnerName */\n      0x00\n        /* \"contracts/3_Ballot.sol\":874:884  msg.sender */\n      caller\n        /* \"contracts/3_Ballot.sol\":862:884  chairman == msg.sender */\n      0xffffffffffffffffffffffffffffffffffffffff\n      and\n        /* \"contracts/3_Ballot.sol\":862:870  chairman */\n      0x02\n      0x00\n      swap1\n      sload\n      swap1\n      0x0100\n      exp\n      swap1\n      div\n      0xffffffffffffffffffffffffffffffffffffffff\n      and\n        /* \"contracts/3_Ballot.sol\":862:884  chairman == msg.sender */\n      0xffffffffffffffffffffffffffffffffffffffff\n      and\n      eq\n        /* \"contracts/3_Ballot.sol\":854:932  require(chairman == msg.sender, \"Only chairperson can execute this function.\") */\n      tag_47\n      jumpi\n      mload(0x40)\n      0x08c379a000000000000000000000000000000000000000000000000000000000\n      dup2\n      mstore\n      0x04\n      add\n      tag_48\n      swap1\n      tag_49\n      jump\t// in\n    tag_48:\n      mload(0x40)\n      dup1\n      swap2\n      sub\n      swap1\n      revert\n    tag_47:\n        /* \"contracts/3_Ballot.sol\":998:1003  false */\n      0x00\n        /* \"contracts/3_Ballot.sol\":984:1003  isOpenVote == false */\n      iszero\n      iszero\n        /* \"contracts/3_Ballot.sol\":984:994  isOpenVote */\n      0x02\n      0x14\n      swap1\n      sload\n      swap1\n      0x0100\n      exp\n      swap1\n      div\n      0xff\n      and\n        /* \"contracts/3_Ballot.sol\":984:1003  isOpenVote == false */\n      iszero\n      iszero\n      eq\n        /* \"contracts/3_Ballot.sol\":976:1025  require(isOpenVote == false, \"Votes are closed.\") */\n      tag_51\n      jumpi\n      mload(0x40)\n      0x08c379a000000000000000000000000000000000000000000000000000000000\n      dup2\n      mstore\n      0x04\n      add\n      tag_52\n      swap1\n      tag_53\n      jump\t// in\n    tag_52:\n      mload(0x40)\n      dup1\n      swap2\n      sub\n      swap1\n      revert\n    tag_51:\n        /* \"contracts/3_Ballot.sol\":2499:2504  false */\n      0x00\n        /* \"contracts/3_Ballot.sol\":2486:2496  isOpenVote */\n      0x02\n      0x14\n        /* \"contracts/3_Ballot.sol\":2486:2504  isOpenVote = false */\n      0x0100\n      exp\n      dup2\n      sload\n      dup2\n      0xff\n      mul\n      not\n      and\n      swap1\n      dup4\n      iszero\n      iszero\n      mul\n      or\n      swap1\n      sstore\n      pop\n        /* \"contracts/3_Ballot.sol\":2524:2544  proposalWinnerName() */\n      tag_55\n        /* \"contracts/3_Ballot.sol\":2524:2542  proposalWinnerName */\n      tag_23\n        /* \"contracts/3_Ballot.sol\":2524:2544  proposalWinnerName() */\n      jump\t// in\n    tag_55:\n        /* \"contracts/3_Ballot.sol\":2510:2544  _winnerName = proposalWinnerName() */\n      swap1\n      pop\n        /* \"contracts/3_Ballot.sol\":2379:2549  function stopVote()... */\n      swap1\n      jump\t// out\n        /* \"contracts/3_Ballot.sol\":2028:2375  function proposalWinnerName() public view voteOpened returns (bytes32 _winnerName) {... */\n    tag_23:\n        /* \"contracts/3_Ballot.sol\":2090:2109  bytes32 _winnerName */\n      0x00\n        /* \"contracts/3_Ballot.sol\":998:1003  false */\n      dup1\n        /* \"contracts/3_Ballot.sol\":984:1003  isOpenVote == false */\n      iszero\n      iszero\n        /* \"contracts/3_Ballot.sol\":984:994  isOpenVote */\n      0x02\n      0x14\n      swap1\n      sload\n      swap1\n      0x0100\n      exp\n      swap1\n      div\n      0xff\n      and\n        /* \"contracts/3_Ballot.sol\":984:1003  isOpenVote == false */\n      iszero\n      iszero\n      eq\n        /* \"contracts/3_Ballot.sol\":976:1025  require(isOpenVote == false, \"Votes are closed.\") */\n      tag_57\n      jumpi\n      mload(0x40)\n      0x08c379a000000000000000000000000000000000000000000000000000000000\n      dup2\n      mstore\n      0x04\n      add\n      tag_58\n      swap1\n      tag_53\n      jump\t// in\n    tag_58:\n      mload(0x40)\n      dup1\n      swap2\n      sub\n      swap1\n      revert\n    tag_57:\n        /* \"contracts/3_Ballot.sol\":2117:2145  uint256 _numberOfWinnerVotes */\n      0x00\n        /* \"contracts/3_Ballot.sol\":2161:2168  uint8 i */\n      dup1\n        /* \"contracts/3_Ballot.sol\":2156:2371  for (uint8 i = 0; i < proposals.length; i++) {... */\n    tag_60:\n        /* \"contracts/3_Ballot.sol\":2178:2187  proposals */\n      0x01\n        /* \"contracts/3_Ballot.sol\":2178:2194  proposals.length */\n      dup1\n      sload\n      swap1\n      pop\n        /* \"contracts/3_Ballot.sol\":2174:2175  i */\n      dup2\n        /* \"contracts/3_Ballot.sol\":2174:2194  i < proposals.length */\n      0xff\n      and\n      lt\n        /* \"contracts/3_Ballot.sol\":2156:2371  for (uint8 i = 0; i < proposals.length; i++) {... */\n      iszero\n      tag_61\n      jumpi\n        /* \"contracts/3_Ballot.sol\":2238:2258  _numberOfWinnerVotes */\n      dup2\n        /* \"contracts/3_Ballot.sol\":2213:2222  proposals */\n      0x01\n        /* \"contracts/3_Ballot.sol\":2223:2224  i */\n      dup3\n        /* \"contracts/3_Ballot.sol\":2213:2225  proposals[i] */\n      0xff\n      and\n      dup2\n      sload\n      dup2\n      lt\n      tag_63\n      jumpi\n      tag_64\n      tag_65\n      jump\t// in\n    tag_64:\n    tag_63:\n      swap1\n      0x00\n      mstore\n      keccak256(0x00, 0x20)\n      swap1\n      0x02\n      mul\n      add\n        /* \"contracts/3_Ballot.sol\":2213:2235  proposals[i].voteCount */\n      0x01\n      add\n      sload\n        /* \"contracts/3_Ballot.sol\":2213:2258  proposals[i].voteCount > _numberOfWinnerVotes */\n      gt\n        /* \"contracts/3_Ballot.sol\":2209:2365  if (proposals[i].voteCount > _numberOfWinnerVotes) {... */\n      iszero\n      tag_67\n      jumpi\n        /* \"contracts/3_Ballot.sol\":2284:2293  proposals */\n      0x01\n        /* \"contracts/3_Ballot.sol\":2294:2295  i */\n      dup2\n        /* \"contracts/3_Ballot.sol\":2284:2296  proposals[i] */\n      0xff\n      and\n      dup2\n      sload\n      dup2\n      lt\n      tag_68\n      jumpi\n      tag_69\n      tag_65\n      jump\t// in\n    tag_69:\n    tag_68:\n      swap1\n      0x00\n      mstore\n      keccak256(0x00, 0x20)\n      swap1\n      0x02\n      mul\n      add\n        /* \"contracts/3_Ballot.sol\":2284:2301  proposals[i].name */\n      0x00\n      add\n      sload\n        /* \"contracts/3_Ballot.sol\":2270:2301  _winnerName = proposals[i].name */\n      swap3\n      pop\n        /* \"contracts/3_Ballot.sol\":2334:2343  proposals */\n      0x01\n        /* \"contracts/3_Ballot.sol\":2344:2345  i */\n      dup2\n        /* \"contracts/3_Ballot.sol\":2334:2346  proposals[i] */\n      0xff\n      and\n      dup2\n      sload\n      dup2\n      lt\n      tag_71\n      jumpi\n      tag_72\n      tag_65\n      jump\t// in\n    tag_72:\n    tag_71:\n      swap1\n      0x00\n      mstore\n      keccak256(0x00, 0x20)\n      swap1\n      0x02\n      mul\n      add\n        /* \"contracts/3_Ballot.sol\":2334:2356  proposals[i].voteCount */\n      0x01\n      add\n      sload\n        /* \"contracts/3_Ballot.sol\":2311:2356  _numberOfWinnerVotes = proposals[i].voteCount */\n      swap2\n      pop\n        /* \"contracts/3_Ballot.sol\":2209:2365  if (proposals[i].voteCount > _numberOfWinnerVotes) {... */\n    tag_67:\n        /* \"contracts/3_Ballot.sol\":2196:2199  i++ */\n      dup1\n      dup1\n      tag_74\n      swap1\n      tag_75\n      jump\t// in\n    tag_74:\n      swap2\n      pop\n      pop\n        /* \"contracts/3_Ballot.sol\":2156:2371  for (uint8 i = 0; i < proposals.length; i++) {... */\n      jump(tag_60)\n    tag_61:\n      pop\n        /* \"contracts/3_Ballot.sol\":2111:2375  {... */\n      pop\n        /* \"contracts/3_Ballot.sol\":2028:2375  function proposalWinnerName() public view voteOpened returns (bytes32 _winnerName) {... */\n      swap1\n      jump\t// out\n        /* \"contracts/3_Ballot.sol\":326:349  address public chairman */\n    tag_26:\n      0x02\n      0x00\n      swap1\n      sload\n      swap1\n      0x0100\n      exp\n      swap1\n      div\n      0xffffffffffffffffffffffffffffffffffffffff\n      and\n      dup2\n      jump\t// out\n        /* \"contracts/3_Ballot.sol\":1576:1750  function giveRightToVote(address _voter)... */\n    tag_32:\n        /* \"contracts/3_Ballot.sol\":874:884  msg.sender */\n      caller\n        /* \"contracts/3_Ballot.sol\":862:884  chairman == msg.sender */\n      0xffffffffffffffffffffffffffffffffffffffff\n      and\n        /* \"contracts/3_Ballot.sol\":862:870  chairman */\n      0x02\n      0x00\n      swap1\n      sload\n      swap1\n      0x0100\n      exp\n      swap1\n      div\n      0xffffffffffffffffffffffffffffffffffffffff\n      and\n        /* \"contracts/3_Ballot.sol\":862:884  chairman == msg.sender */\n      0xffffffffffffffffffffffffffffffffffffffff\n      and\n      eq\n        /* \"contracts/3_Ballot.sol\":854:932  require(chairman == msg.sender, \"Only chairperson can execute this function.\") */\n      tag_77\n      jumpi\n      mload(0x40)\n      0x08c379a000000000000000000000000000000000000000000000000000000000\n      dup2\n      mstore\n      0x04\n      add\n      tag_78\n      swap1\n      tag_49\n      jump\t// in\n    tag_78:\n      mload(0x40)\n      dup1\n      swap2\n      sub\n      swap1\n      revert\n    tag_77:\n        /* \"contracts/3_Ballot.sol\":998:1003  false */\n      0x00\n        /* \"contracts/3_Ballot.sol\":984:1003  isOpenVote == false */\n      iszero\n      iszero\n        /* \"contracts/3_Ballot.sol\":984:994  isOpenVote */\n      0x02\n      0x14\n      swap1\n      sload\n      swap1\n      0x0100\n      exp\n      swap1\n      div\n      0xff\n      and\n        /* \"contracts/3_Ballot.sol\":984:1003  isOpenVote == false */\n      iszero\n      iszero\n      eq\n        /* \"contracts/3_Ballot.sol\":976:1025  require(isOpenVote == false, \"Votes are closed.\") */\n      tag_80\n      jumpi\n      mload(0x40)\n      0x08c379a000000000000000000000000000000000000000000000000000000000\n      dup2\n      mstore\n      0x04\n      add\n      tag_81\n      swap1\n      tag_53\n      jump\t// in\n    tag_81:\n      mload(0x40)\n      dup1\n      swap2\n      sub\n      swap1\n      revert\n    tag_80:\n        /* \"contracts/3_Ballot.sol\":1678:1684  _voter */\n      dup1\n        /* \"contracts/3_Ballot.sol\":1093:1099  voters */\n      0x00\n        /* \"contracts/3_Ballot.sol\":1093:1107  voters[_voter] */\n      dup1\n        /* \"contracts/3_Ballot.sol\":1100:1106  _voter */\n      dup3\n        /* \"contracts/3_Ballot.sol\":1093:1107  voters[_voter] */\n      0xffffffffffffffffffffffffffffffffffffffff\n      and\n      0xffffffffffffffffffffffffffffffffffffffff\n      and\n      dup2\n      mstore\n      0x20\n      add\n      swap1\n      dup2\n      mstore\n      0x20\n      add\n      0x00\n      keccak256\n        /* \"contracts/3_Ballot.sol\":1093:1113  voters[_voter].voted */\n      0x00\n      add\n      0x00\n      swap1\n      sload\n      swap1\n      0x0100\n      exp\n      swap1\n      div\n      0xff\n      and\n        /* \"contracts/3_Ballot.sol\":1092:1113  !voters[_voter].voted */\n      iszero\n        /* \"contracts/3_Ballot.sol\":1084:1142  require(!voters[_voter].voted, \"The voter already voted.\") */\n      tag_83\n      jumpi\n      mload(0x40)\n      0x08c379a000000000000000000000000000000000000000000000000000000000\n      dup2\n      mstore\n      0x04\n      add\n      tag_84\n      swap1\n      tag_85\n      jump\t// in\n    tag_84:\n      mload(0x40)\n      dup1\n      swap2\n      sub\n      swap1\n      revert\n    tag_83:\n        /* \"contracts/3_Ballot.sol\":1704:1710  _voter */\n      dup2\n        /* \"contracts/3_Ballot.sol\":1236:1237  0 */\n      0x00\n        /* \"contracts/3_Ballot.sol\":1211:1217  voters */\n      dup1\n        /* \"contracts/3_Ballot.sol\":1211:1225  voters[_voter] */\n      0x00\n        /* \"contracts/3_Ballot.sol\":1218:1224  _voter */\n      dup4\n        /* \"contracts/3_Ballot.sol\":1211:1225  voters[_voter] */\n      0xffffffffffffffffffffffffffffffffffffffff\n      and\n      0xffffffffffffffffffffffffffffffffffffffff\n      and\n      dup2\n      mstore\n      0x20\n      add\n      swap1\n      dup2\n      mstore\n      0x20\n      add\n      0x00\n      keccak256\n        /* \"contracts/3_Ballot.sol\":1211:1232  voters[_voter].weight */\n      0x00\n      add\n      0x02\n      swap1\n      sload\n      swap1\n      0x0100\n      exp\n      swap1\n      div\n      0xffffffff\n      and\n        /* \"contracts/3_Ballot.sol\":1211:1237  voters[_voter].weight == 0 */\n      0xffffffff\n      and\n      eq\n        /* \"contracts/3_Ballot.sol\":1203:1275  require(voters[_voter].weight == 0, \"You have already a right to vote.\") */\n      tag_87\n      jumpi\n      mload(0x40)\n      0x08c379a000000000000000000000000000000000000000000000000000000000\n      dup2\n      mstore\n      0x04\n      add\n      tag_88\n      swap1\n      tag_89\n      jump\t// in\n    tag_88:\n      mload(0x40)\n      dup1\n      swap2\n      sub\n      swap1\n      revert\n    tag_87:\n        /* \"contracts/3_Ballot.sol\":1744:1745  1 */\n      0x01\n        /* \"contracts/3_Ballot.sol\":1720:1726  voters */\n      0x00\n        /* \"contracts/3_Ballot.sol\":1720:1734  voters[_voter] */\n      dup1\n        /* \"contracts/3_Ballot.sol\":1727:1733  _voter */\n      dup6\n        /* \"contracts/3_Ballot.sol\":1720:1734  voters[_voter] */\n      0xffffffffffffffffffffffffffffffffffffffff\n      and\n      0xffffffffffffffffffffffffffffffffffffffff\n      and\n      dup2\n      mstore\n      0x20\n      add\n      swap1\n      dup2\n      mstore\n      0x20\n      add\n      0x00\n      keccak256\n        /* \"contracts/3_Ballot.sol\":1720:1741  voters[_voter].weight */\n      0x00\n      add\n      0x02\n        /* \"contracts/3_Ballot.sol\":1720:1745  voters[_voter].weight = 1 */\n      0x0100\n      exp\n      dup2\n      sload\n      dup2\n      0xffffffff\n      mul\n      not\n      and\n      swap1\n      dup4\n      0xffffffff\n      and\n      mul\n      or\n      swap1\n      sstore\n      pop\n        /* \"contracts/3_Ballot.sol\":1148:1149  _ */\n      pop\n        /* \"contracts/3_Ballot.sol\":1031:1032  _ */\n      pop\n        /* \"contracts/3_Ballot.sol\":1576:1750  function giveRightToVote(address _voter)... */\n      pop\n      jump\t// out\n        /* \"contracts/3_Ballot.sol\":354:383  bool public isOpenVote = true */\n    tag_34:\n      0x02\n      0x14\n      swap1\n      sload\n      swap1\n      0x0100\n      exp\n      swap1\n      div\n      0xff\n      and\n      dup2\n      jump\t// out\n        /* \"contracts/3_Ballot.sol\":1754:2024  function vote(uint8 _proposalId, address _voter)... */\n    tag_40:\n        /* \"contracts/3_Ballot.sol\":998:1003  false */\n      0x00\n        /* \"contracts/3_Ballot.sol\":984:1003  isOpenVote == false */\n      iszero\n      iszero\n        /* \"contracts/3_Ballot.sol\":984:994  isOpenVote */\n      0x02\n      0x14\n      swap1\n      sload\n      swap1\n      0x0100\n      exp\n      swap1\n      div\n      0xff\n      and\n        /* \"contracts/3_Ballot.sol\":984:1003  isOpenVote == false */\n      iszero\n      iszero\n      eq\n        /* \"contracts/3_Ballot.sol\":976:1025  require(isOpenVote == false, \"Votes are closed.\") */\n      tag_92\n      jumpi\n      mload(0x40)\n      0x08c379a000000000000000000000000000000000000000000000000000000000\n      dup2\n      mstore\n      0x04\n      add\n      tag_93\n      swap1\n      tag_53\n      jump\t// in\n    tag_93:\n      mload(0x40)\n      dup1\n      swap2\n      sub\n      swap1\n      revert\n    tag_92:\n        /* \"contracts/3_Ballot.sol\":1845:1851  _voter */\n      dup1\n        /* \"contracts/3_Ballot.sol\":1488:1498  msg.sender */\n      caller\n        /* \"contracts/3_Ballot.sol\":1478:1498  _voter == msg.sender */\n      0xffffffffffffffffffffffffffffffffffffffff\n      and\n        /* \"contracts/3_Ballot.sol\":1478:1484  _voter */\n      dup2\n        /* \"contracts/3_Ballot.sol\":1478:1498  _voter == msg.sender */\n      0xffffffffffffffffffffffffffffffffffffffff\n      and\n      eq\n        /* \"contracts/3_Ballot.sol\":1463:1560  require(... */\n      tag_95\n      jumpi\n      mload(0x40)\n      0x08c379a000000000000000000000000000000000000000000000000000000000\n      dup2\n      mstore\n      0x04\n      add\n      tag_96\n      swap1\n      tag_97\n      jump\t// in\n    tag_96:\n      mload(0x40)\n      dup1\n      swap2\n      sub\n      swap1\n      revert\n    tag_95:\n        /* \"contracts/3_Ballot.sol\":1869:1875  _voter */\n      dup2\n        /* \"contracts/3_Ballot.sol\":1367:1368  0 */\n      0x00\n        /* \"contracts/3_Ballot.sol\":1342:1348  voters */\n      dup1\n        /* \"contracts/3_Ballot.sol\":1342:1356  voters[_voter] */\n      0x00\n        /* \"contracts/3_Ballot.sol\":1349:1355  _voter */\n      dup4\n        /* \"contracts/3_Ballot.sol\":1342:1356  voters[_voter] */\n      0xffffffffffffffffffffffffffffffffffffffff\n      and\n      0xffffffffffffffffffffffffffffffffffffffff\n      and\n      dup2\n      mstore\n      0x20\n      add\n      swap1\n      dup2\n      mstore\n      0x20\n      add\n      0x00\n      keccak256\n        /* \"contracts/3_Ballot.sol\":1342:1363  voters[_voter].weight */\n      0x00\n      add\n      0x02\n      swap1\n      sload\n      swap1\n      0x0100\n      exp\n      swap1\n      div\n      0xffffffff\n      and\n        /* \"contracts/3_Ballot.sol\":1342:1368  voters[_voter].weight != 0 */\n      0xffffffff\n      and\n      eq\n      iszero\n        /* \"contracts/3_Ballot.sol\":1334:1406  require(voters[_voter].weight != 0, \"You don't have the right to vote.\") */\n      tag_99\n      jumpi\n      mload(0x40)\n      0x08c379a000000000000000000000000000000000000000000000000000000000\n      dup2\n      mstore\n      0x04\n      add\n      tag_100\n      swap1\n      tag_101\n      jump\t// in\n    tag_100:\n      mload(0x40)\n      dup1\n      swap2\n      sub\n      swap1\n      revert\n    tag_99:\n        /* \"contracts/3_Ballot.sol\":1893:1899  _voter */\n      dup3\n        /* \"contracts/3_Ballot.sol\":1093:1099  voters */\n      0x00\n        /* \"contracts/3_Ballot.sol\":1093:1107  voters[_voter] */\n      dup1\n        /* \"contracts/3_Ballot.sol\":1100:1106  _voter */\n      dup3\n        /* \"contracts/3_Ballot.sol\":1093:1107  voters[_voter] */\n      0xffffffffffffffffffffffffffffffffffffffff\n      and\n      0xffffffffffffffffffffffffffffffffffffffff\n      and\n      dup2\n      mstore\n      0x20\n      add\n      swap1\n      dup2\n      mstore\n      0x20\n      add\n      0x00\n      keccak256\n        /* \"contracts/3_Ballot.sol\":1093:1113  voters[_voter].voted */\n      0x00\n      add\n      0x00\n      swap1\n      sload\n      swap1\n      0x0100\n      exp\n      swap1\n      div\n      0xff\n      and\n        /* \"contracts/3_Ballot.sol\":1092:1113  !voters[_voter].voted */\n      iszero\n        /* \"contracts/3_Ballot.sol\":1084:1142  require(!voters[_voter].voted, \"The voter already voted.\") */\n      tag_103\n      jumpi\n      mload(0x40)\n      0x08c379a000000000000000000000000000000000000000000000000000000000\n      dup2\n      mstore\n      0x04\n      add\n      tag_104\n      swap1\n      tag_85\n      jump\t// in\n    tag_104:\n      mload(0x40)\n      dup1\n      swap2\n      sub\n      swap1\n      revert\n    tag_103:\n        /* \"contracts/3_Ballot.sol\":1932:1936  true */\n      0x01\n        /* \"contracts/3_Ballot.sol\":1909:1915  voters */\n      0x00\n        /* \"contracts/3_Ballot.sol\":1909:1923  voters[_voter] */\n      dup1\n        /* \"contracts/3_Ballot.sol\":1916:1922  _voter */\n      dup7\n        /* \"contracts/3_Ballot.sol\":1909:1923  voters[_voter] */\n      0xffffffffffffffffffffffffffffffffffffffff\n      and\n      0xffffffffffffffffffffffffffffffffffffffff\n      and\n      dup2\n      mstore\n      0x20\n      add\n      swap1\n      dup2\n      mstore\n      0x20\n      add\n      0x00\n      keccak256\n        /* \"contracts/3_Ballot.sol\":1909:1929  voters[_voter].voted */\n      0x00\n      add\n      0x00\n        /* \"contracts/3_Ballot.sol\":1909:1936  voters[_voter].voted = true */\n      0x0100\n      exp\n      dup2\n      sload\n      dup2\n      0xff\n      mul\n      not\n      and\n      swap1\n      dup4\n      iszero\n      iszero\n      mul\n      or\n      swap1\n      sstore\n      pop\n        /* \"contracts/3_Ballot.sol\":1964:1975  _proposalId */\n      dup5\n        /* \"contracts/3_Ballot.sol\":1942:1948  voters */\n      0x00\n        /* \"contracts/3_Ballot.sol\":1942:1956  voters[_voter] */\n      dup1\n        /* \"contracts/3_Ballot.sol\":1949:1955  _voter */\n      dup7\n        /* \"contracts/3_Ballot.sol\":1942:1956  voters[_voter] */\n      0xffffffffffffffffffffffffffffffffffffffff\n      and\n      0xffffffffffffffffffffffffffffffffffffffff\n      and\n      dup2\n      mstore\n      0x20\n      add\n      swap1\n      dup2\n      mstore\n      0x20\n      add\n      0x00\n      keccak256\n        /* \"contracts/3_Ballot.sol\":1942:1961  voters[_voter].vote */\n      0x00\n      add\n      0x01\n        /* \"contracts/3_Ballot.sol\":1942:1975  voters[_voter].vote = _proposalId */\n      0x0100\n      exp\n      dup2\n      sload\n      dup2\n      0xff\n      mul\n      not\n      and\n      swap1\n      dup4\n      0xff\n      and\n      mul\n      or\n      swap1\n      sstore\n      pop\n        /* \"contracts/3_Ballot.sol\":2018:2019  1 */\n      0x01\n        /* \"contracts/3_Ballot.sol\":1982:1991  proposals */\n      dup1\n        /* \"contracts/3_Ballot.sol\":1992:2003  _proposalId */\n      dup7\n        /* \"contracts/3_Ballot.sol\":1982:2004  proposals[_proposalId] */\n      0xff\n      and\n      dup2\n      sload\n      dup2\n      lt\n      tag_106\n      jumpi\n      tag_107\n      tag_65\n      jump\t// in\n    tag_107:\n    tag_106:\n      swap1\n      0x00\n      mstore\n      keccak256(0x00, 0x20)\n      swap1\n      0x02\n      mul\n      add\n        /* \"contracts/3_Ballot.sol\":1982:2014  proposals[_proposalId].voteCount */\n      0x01\n      add\n      0x00\n        /* \"contracts/3_Ballot.sol\":1982:2019  proposals[_proposalId].voteCount += 1 */\n      dup3\n      dup3\n      sload\n      tag_109\n      swap2\n      swap1\n      tag_110\n      jump\t// in\n    tag_109:\n      swap3\n      pop\n      pop\n      dup2\n      swap1\n      sstore\n      pop\n        /* \"contracts/3_Ballot.sol\":1412:1413  _ */\n      pop\n        /* \"contracts/3_Ballot.sol\":1566:1567  _ */\n      pop\n        /* \"contracts/3_Ballot.sol\":1031:1032  _ */\n      pop\n        /* \"contracts/3_Ballot.sol\":1754:2024  function vote(uint8 _proposalId, address _voter)... */\n      pop\n      pop\n      jump\t// out\n        /* \"contracts/3_Ballot.sol\":2553:2723  function winnerName() public view returns (bytes32 _winnerName){... */\n    tag_42:\n        /* \"contracts/3_Ballot.sol\":2596:2615  bytes32 _winnerName */\n      0x00\n        /* \"contracts/3_Ballot.sol\":2635:2645  isOpenVote */\n      0x02\n      0x14\n      swap1\n      sload\n      swap1\n      0x0100\n      exp\n      swap1\n      div\n      0xff\n      and\n        /* \"contracts/3_Ballot.sol\":2634:2645  !isOpenVote */\n      iszero\n        /* \"contracts/3_Ballot.sol\":2626:2674  require(!isOpenVote, \"Votes are not yet closed\") */\n      tag_112\n      jumpi\n      mload(0x40)\n      0x08c379a000000000000000000000000000000000000000000000000000000000\n      dup2\n      mstore\n      0x04\n      add\n      tag_113\n      swap1\n      tag_114\n      jump\t// in\n    tag_113:\n      mload(0x40)\n      dup1\n      swap2\n      sub\n      swap1\n      revert\n    tag_112:\n        /* \"contracts/3_Ballot.sol\":2698:2718  proposalWinnerName() */\n      tag_115\n        /* \"contracts/3_Ballot.sol\":2698:2716  proposalWinnerName */\n      tag_23\n        /* \"contracts/3_Ballot.sol\":2698:2718  proposalWinnerName() */\n      jump\t// in\n    tag_115:\n        /* \"contracts/3_Ballot.sol\":2684:2718  _winnerName = proposalWinnerName() */\n      swap1\n      pop\n        /* \"contracts/3_Ballot.sol\":2553:2723  function winnerName() public view returns (bytes32 _winnerName){... */\n      swap1\n      jump\t// out\n        /* \"#utility.yul\":7:146   */\n    tag_117:\n        /* \"#utility.yul\":53:58   */\n      0x00\n        /* \"#utility.yul\":91:97   */\n      dup2\n        /* \"#utility.yul\":78:98   */\n      calldataload\n        /* \"#utility.yul\":69:98   */\n      swap1\n      pop\n        /* \"#utility.yul\":107:140   */\n      tag_119\n        /* \"#utility.yul\":134:139   */\n      dup2\n        /* \"#utility.yul\":107:140   */\n      tag_120\n      jump\t// in\n    tag_119:\n        /* \"#utility.yul\":7:146   */\n      swap3\n      swap2\n      pop\n      pop\n      jump\t// out\n        /* \"#utility.yul\":152:291   */\n    tag_121:\n        /* \"#utility.yul\":198:203   */\n      0x00\n        /* \"#utility.yul\":236:242   */\n      dup2\n        /* \"#utility.yul\":223:243   */\n      calldataload\n        /* \"#utility.yul\":214:243   */\n      swap1\n      pop\n        /* \"#utility.yul\":252:285   */\n      tag_123\n        /* \"#utility.yul\":279:284   */\n      dup2\n        /* \"#utility.yul\":252:285   */\n      tag_124\n      jump\t// in\n    tag_123:\n        /* \"#utility.yul\":152:291   */\n      swap3\n      swap2\n      pop\n      pop\n      jump\t// out\n        /* \"#utility.yul\":297:432   */\n    tag_125:\n        /* \"#utility.yul\":341:346   */\n      0x00\n        /* \"#utility.yul\":379:385   */\n      dup2\n        /* \"#utility.yul\":366:386   */\n      calldataload\n        /* \"#utility.yul\":357:386   */\n      swap1\n      pop\n        /* \"#utility.yul\":395:426   */\n      tag_127\n        /* \"#utility.yul\":420:425   */\n      dup2\n        /* \"#utility.yul\":395:426   */\n      tag_128\n      jump\t// in\n    tag_127:\n        /* \"#utility.yul\":297:432   */\n      swap3\n      swap2\n      pop\n      pop\n      jump\t// out\n        /* \"#utility.yul\":438:767   */\n    tag_31:\n        /* \"#utility.yul\":497:503   */\n      0x00\n        /* \"#utility.yul\":546:548   */\n      0x20\n        /* \"#utility.yul\":534:543   */\n      dup3\n        /* \"#utility.yul\":525:532   */\n      dup5\n        /* \"#utility.yul\":521:544   */\n      sub\n        /* \"#utility.yul\":517:549   */\n      slt\n        /* \"#utility.yul\":514:633   */\n      iszero\n      tag_130\n      jumpi\n        /* \"#utility.yul\":552:631   */\n      tag_131\n      tag_132\n      jump\t// in\n    tag_131:\n        /* \"#utility.yul\":514:633   */\n    tag_130:\n        /* \"#utility.yul\":672:673   */\n      0x00\n        /* \"#utility.yul\":697:750   */\n      tag_133\n        /* \"#utility.yul\":742:749   */\n      dup5\n        /* \"#utility.yul\":733:739   */\n      dup3\n        /* \"#utility.yul\":722:731   */\n      dup6\n        /* \"#utility.yul\":718:740   */\n      add\n        /* \"#utility.yul\":697:750   */\n      tag_117\n      jump\t// in\n    tag_133:\n        /* \"#utility.yul\":687:750   */\n      swap2\n      pop\n        /* \"#utility.yul\":643:760   */\n      pop\n        /* \"#utility.yul\":438:767   */\n      swap3\n      swap2\n      pop\n      pop\n      jump\t// out\n        /* \"#utility.yul\":773:1102   */\n    tag_14:\n        /* \"#utility.yul\":832:838   */\n      0x00\n        /* \"#utility.yul\":881:883   */\n      0x20\n        /* \"#utility.yul\":869:878   */\n      dup3\n        /* \"#utility.yul\":860:867   */\n      dup5\n        /* \"#utility.yul\":856:879   */\n      sub\n        /* \"#utility.yul\":852:884   */\n      slt\n        /* \"#utility.yul\":849:968   */\n      iszero\n      tag_135\n      jumpi\n        /* \"#utility.yul\":887:966   */\n      tag_136\n      tag_132\n      jump\t// in\n    tag_136:\n        /* \"#utility.yul\":849:968   */\n    tag_135:\n        /* \"#utility.yul\":1007:1008   */\n      0x00\n        /* \"#utility.yul\":1032:1085   */\n      tag_137\n        /* \"#utility.yul\":1077:1084   */\n      dup5\n        /* \"#utility.yul\":1068:1074   */\n      dup3\n        /* \"#utility.yul\":1057:1066   */\n      dup6\n        /* \"#utility.yul\":1053:1075   */\n      add\n        /* \"#utility.yul\":1032:1085   */\n      tag_121\n      jump\t// in\n    tag_137:\n        /* \"#utility.yul\":1022:1085   */\n      swap2\n      pop\n        /* \"#utility.yul\":978:1095   */\n      pop\n        /* \"#utility.yul\":773:1102   */\n      swap3\n      swap2\n      pop\n      pop\n      jump\t// out\n        /* \"#utility.yul\":1108:1578   */\n    tag_39:\n        /* \"#utility.yul\":1174:1180   */\n      0x00\n        /* \"#utility.yul\":1182:1188   */\n      dup1\n        /* \"#utility.yul\":1231:1233   */\n      0x40\n        /* \"#utility.yul\":1219:1228   */\n      dup4\n        /* \"#utility.yul\":1210:1217   */\n      dup6\n        /* \"#utility.yul\":1206:1229   */\n      sub\n        /* \"#utility.yul\":1202:1234   */\n      slt\n        /* \"#utility.yul\":1199:1318   */\n      iszero\n      tag_139\n      jumpi\n        /* \"#utility.yul\":1237:1316   */\n      tag_140\n      tag_132\n      jump\t// in\n    tag_140:\n        /* \"#utility.yul\":1199:1318   */\n    tag_139:\n        /* \"#utility.yul\":1357:1358   */\n      0x00\n        /* \"#utility.yul\":1382:1433   */\n      tag_141\n        /* \"#utility.yul\":1425:1432   */\n      dup6\n        /* \"#utility.yul\":1416:1422   */\n      dup3\n        /* \"#utility.yul\":1405:1414   */\n      dup7\n        /* \"#utility.yul\":1401:1423   */\n      add\n        /* \"#utility.yul\":1382:1433   */\n      tag_125\n      jump\t// in\n    tag_141:\n        /* \"#utility.yul\":1372:1433   */\n      swap3\n      pop\n        /* \"#utility.yul\":1328:1443   */\n      pop\n        /* \"#utility.yul\":1482:1484   */\n      0x20\n        /* \"#utility.yul\":1508:1561   */\n      tag_142\n        /* \"#utility.yul\":1553:1560   */\n      dup6\n        /* \"#utility.yul\":1544:1550   */\n      dup3\n        /* \"#utility.yul\":1533:1542   */\n      dup7\n        /* \"#utility.yul\":1529:1551   */\n      add\n        /* \"#utility.yul\":1508:1561   */\n      tag_117\n      jump\t// in\n    tag_142:\n        /* \"#utility.yul\":1498:1561   */\n      swap2\n      pop\n        /* \"#utility.yul\":1453:1571   */\n      pop\n        /* \"#utility.yul\":1108:1578   */\n      swap3\n      pop\n      swap3\n      swap1\n      pop\n      jump\t// out\n        /* \"#utility.yul\":1584:1702   */\n    tag_143:\n        /* \"#utility.yul\":1671:1695   */\n      tag_145\n        /* \"#utility.yul\":1689:1694   */\n      dup2\n        /* \"#utility.yul\":1671:1695   */\n      tag_146\n      jump\t// in\n    tag_145:\n        /* \"#utility.yul\":1666:1669   */\n      dup3\n        /* \"#utility.yul\":1659:1696   */\n      mstore\n        /* \"#utility.yul\":1584:1702   */\n      pop\n      pop\n      jump\t// out\n        /* \"#utility.yul\":1708:1817   */\n    tag_147:\n        /* \"#utility.yul\":1789:1810   */\n      tag_149\n        /* \"#utility.yul\":1804:1809   */\n      dup2\n        /* \"#utility.yul\":1789:1810   */\n      tag_150\n      jump\t// in\n    tag_149:\n        /* \"#utility.yul\":1784:1787   */\n      dup3\n        /* \"#utility.yul\":1777:1811   */\n      mstore\n        /* \"#utility.yul\":1708:1817   */\n      pop\n      pop\n      jump\t// out\n        /* \"#utility.yul\":1823:1941   */\n    tag_151:\n        /* \"#utility.yul\":1910:1934   */\n      tag_153\n        /* \"#utility.yul\":1928:1933   */\n      dup2\n        /* \"#utility.yul\":1910:1934   */\n      tag_154\n      jump\t// in\n    tag_153:\n        /* \"#utility.yul\":1905:1908   */\n      dup3\n        /* \"#utility.yul\":1898:1935   */\n      mstore\n        /* \"#utility.yul\":1823:1941   */\n      pop\n      pop\n      jump\t// out\n        /* \"#utility.yul\":1947:2313   */\n    tag_155:\n        /* \"#utility.yul\":2089:2092   */\n      0x00\n        /* \"#utility.yul\":2110:2177   */\n      tag_157\n        /* \"#utility.yul\":2174:2176   */\n      0x11\n        /* \"#utility.yul\":2169:2172   */\n      dup4\n        /* \"#utility.yul\":2110:2177   */\n      tag_158\n      jump\t// in\n    tag_157:\n        /* \"#utility.yul\":2103:2177   */\n      swap2\n      pop\n        /* \"#utility.yul\":2186:2279   */\n      tag_159\n        /* \"#utility.yul\":2275:2278   */\n      dup3\n        /* \"#utility.yul\":2186:2279   */\n      tag_160\n      jump\t// in\n    tag_159:\n        /* \"#utility.yul\":2304:2306   */\n      0x20\n        /* \"#utility.yul\":2299:2302   */\n      dup3\n        /* \"#utility.yul\":2295:2307   */\n      add\n        /* \"#utility.yul\":2288:2307   */\n      swap1\n      pop\n        /* \"#utility.yul\":1947:2313   */\n      swap2\n      swap1\n      pop\n      jump\t// out\n        /* \"#utility.yul\":2319:2685   */\n    tag_161:\n        /* \"#utility.yul\":2461:2464   */\n      0x00\n        /* \"#utility.yul\":2482:2549   */\n      tag_163\n        /* \"#utility.yul\":2546:2548   */\n      0x21\n        /* \"#utility.yul\":2541:2544   */\n      dup4\n        /* \"#utility.yul\":2482:2549   */\n      tag_158\n      jump\t// in\n    tag_163:\n        /* \"#utility.yul\":2475:2549   */\n      swap2\n      pop\n        /* \"#utility.yul\":2558:2651   */\n      tag_164\n        /* \"#utility.yul\":2647:2650   */\n      dup3\n        /* \"#utility.yul\":2558:2651   */\n      tag_165\n      jump\t// in\n    tag_164:\n        /* \"#utility.yul\":2676:2678   */\n      0x40\n        /* \"#utility.yul\":2671:2674   */\n      dup3\n        /* \"#utility.yul\":2667:2679   */\n      add\n        /* \"#utility.yul\":2660:2679   */\n      swap1\n      pop\n        /* \"#utility.yul\":2319:2685   */\n      swap2\n      swap1\n      pop\n      jump\t// out\n        /* \"#utility.yul\":2691:3057   */\n    tag_166:\n        /* \"#utility.yul\":2833:2836   */\n      0x00\n        /* \"#utility.yul\":2854:2921   */\n      tag_168\n        /* \"#utility.yul\":2918:2920   */\n      0x18\n        /* \"#utility.yul\":2913:2916   */\n      dup4\n        /* \"#utility.yul\":2854:2921   */\n      tag_158\n      jump\t// in\n    tag_168:\n        /* \"#utility.yul\":2847:2921   */\n      swap2\n      pop\n        /* \"#utility.yul\":2930:3023   */\n      tag_169\n        /* \"#utility.yul\":3019:3022   */\n      dup3\n        /* \"#utility.yul\":2930:3023   */\n      tag_170\n      jump\t// in\n    tag_169:\n        /* \"#utility.yul\":3048:3050   */\n      0x20\n        /* \"#utility.yul\":3043:3046   */\n      dup3\n        /* \"#utility.yul\":3039:3051   */\n      add\n        /* \"#utility.yul\":3032:3051   */\n      swap1\n      pop\n        /* \"#utility.yul\":2691:3057   */\n      swap2\n      swap1\n      pop\n      jump\t// out\n        /* \"#utility.yul\":3063:3429   */\n    tag_171:\n        /* \"#utility.yul\":3205:3208   */\n      0x00\n        /* \"#utility.yul\":3226:3293   */\n      tag_173\n        /* \"#utility.yul\":3290:3292   */\n      0x21\n        /* \"#utility.yul\":3285:3288   */\n      dup4\n        /* \"#utility.yul\":3226:3293   */\n      tag_158\n      jump\t// in\n    tag_173:\n        /* \"#utility.yul\":3219:3293   */\n      swap2\n      pop\n        /* \"#utility.yul\":3302:3395   */\n      tag_174\n        /* \"#utility.yul\":3391:3394   */\n      dup3\n        /* \"#utility.yul\":3302:3395   */\n      tag_175\n      jump\t// in\n    tag_174:\n        /* \"#utility.yul\":3420:3422   */\n      0x40\n        /* \"#utility.yul\":3415:3418   */\n      dup3\n        /* \"#utility.yul\":3411:3423   */\n      add\n        /* \"#utility.yul\":3404:3423   */\n      swap1\n      pop\n        /* \"#utility.yul\":3063:3429   */\n      swap2\n      swap1\n      pop\n      jump\t// out\n        /* \"#utility.yul\":3435:3801   */\n    tag_176:\n        /* \"#utility.yul\":3577:3580   */\n      0x00\n        /* \"#utility.yul\":3598:3665   */\n      tag_178\n        /* \"#utility.yul\":3662:3664   */\n      0x2b\n        /* \"#utility.yul\":3657:3660   */\n      dup4\n        /* \"#utility.yul\":3598:3665   */\n      tag_158\n      jump\t// in\n    tag_178:\n        /* \"#utility.yul\":3591:3665   */\n      swap2\n      pop\n        /* \"#utility.yul\":3674:3767   */\n      tag_179\n        /* \"#utility.yul\":3763:3766   */\n      dup3\n        /* \"#utility.yul\":3674:3767   */\n      tag_180\n      jump\t// in\n    tag_179:\n        /* \"#utility.yul\":3792:3794   */\n      0x40\n        /* \"#utility.yul\":3787:3790   */\n      dup3\n        /* \"#utility.yul\":3783:3795   */\n      add\n        /* \"#utility.yul\":3776:3795   */\n      swap1\n      pop\n        /* \"#utility.yul\":3435:3801   */\n      swap2\n      swap1\n      pop\n      jump\t// out\n        /* \"#utility.yul\":3807:4173   */\n    tag_181:\n        /* \"#utility.yul\":3949:3952   */\n      0x00\n        /* \"#utility.yul\":3970:4037   */\n      tag_183\n        /* \"#utility.yul\":4034:4036   */\n      0x2e\n        /* \"#utility.yul\":4029:4032   */\n      dup4\n        /* \"#utility.yul\":3970:4037   */\n      tag_158\n      jump\t// in\n    tag_183:\n        /* \"#utility.yul\":3963:4037   */\n      swap2\n      pop\n        /* \"#utility.yul\":4046:4139   */\n      tag_184\n        /* \"#utility.yul\":4135:4138   */\n      dup3\n        /* \"#utility.yul\":4046:4139   */\n      tag_185\n      jump\t// in\n    tag_184:\n        /* \"#utility.yul\":4164:4166   */\n      0x40\n        /* \"#utility.yul\":4159:4162   */\n      dup3\n        /* \"#utility.yul\":4155:4167   */\n      add\n        /* \"#utility.yul\":4148:4167   */\n      swap1\n      pop\n        /* \"#utility.yul\":3807:4173   */\n      swap2\n      swap1\n      pop\n      jump\t// out\n        /* \"#utility.yul\":4179:4545   */\n    tag_186:\n        /* \"#utility.yul\":4321:4324   */\n      0x00\n        /* \"#utility.yul\":4342:4409   */\n      tag_188\n        /* \"#utility.yul\":4406:4408   */\n      0x18\n        /* \"#utility.yul\":4401:4404   */\n      dup4\n        /* \"#utility.yul\":4342:4409   */\n      tag_158\n      jump\t// in\n    tag_188:\n        /* \"#utility.yul\":4335:4409   */\n      swap2\n      pop\n        /* \"#utility.yul\":4418:4511   */\n      tag_189\n        /* \"#utility.yul\":4507:4510   */\n      dup3\n        /* \"#utility.yul\":4418:4511   */\n      tag_190\n      jump\t// in\n    tag_189:\n        /* \"#utility.yul\":4536:4538   */\n      0x20\n        /* \"#utility.yul\":4531:4534   */\n      dup3\n        /* \"#utility.yul\":4527:4539   */\n      add\n        /* \"#utility.yul\":4520:4539   */\n      swap1\n      pop\n        /* \"#utility.yul\":4179:4545   */\n      swap2\n      swap1\n      pop\n      jump\t// out\n        /* \"#utility.yul\":4551:4669   */\n    tag_191:\n        /* \"#utility.yul\":4638:4662   */\n      tag_193\n        /* \"#utility.yul\":4656:4661   */\n      dup2\n        /* \"#utility.yul\":4638:4662   */\n      tag_194\n      jump\t// in\n    tag_193:\n        /* \"#utility.yul\":4633:4636   */\n      dup3\n        /* \"#utility.yul\":4626:4663   */\n      mstore\n        /* \"#utility.yul\":4551:4669   */\n      pop\n      pop\n      jump\t// out\n        /* \"#utility.yul\":4675:4897   */\n    tag_28:\n        /* \"#utility.yul\":4768:4772   */\n      0x00\n        /* \"#utility.yul\":4806:4808   */\n      0x20\n        /* \"#utility.yul\":4795:4804   */\n      dup3\n        /* \"#utility.yul\":4791:4809   */\n      add\n        /* \"#utility.yul\":4783:4809   */\n      swap1\n      pop\n        /* \"#utility.yul\":4819:4890   */\n      tag_196\n        /* \"#utility.yul\":4887:4888   */\n      0x00\n        /* \"#utility.yul\":4876:4885   */\n      dup4\n        /* \"#utility.yul\":4872:4889   */\n      add\n        /* \"#utility.yul\":4863:4869   */\n      dup5\n        /* \"#utility.yul\":4819:4890   */\n      tag_143\n      jump\t// in\n    tag_196:\n        /* \"#utility.yul\":4675:4897   */\n      swap3\n      swap2\n      pop\n      pop\n      jump\t// out\n        /* \"#utility.yul\":4903:5113   */\n    tag_36:\n        /* \"#utility.yul\":4990:4994   */\n      0x00\n        /* \"#utility.yul\":5028:5030   */\n      0x20\n        /* \"#utility.yul\":5017:5026   */\n      dup3\n        /* \"#utility.yul\":5013:5031   */\n      add\n        /* \"#utility.yul\":5005:5031   */\n      swap1\n      pop\n        /* \"#utility.yul\":5041:5106   */\n      tag_198\n        /* \"#utility.yul\":5103:5104   */\n      0x00\n        /* \"#utility.yul\":5092:5101   */\n      dup4\n        /* \"#utility.yul\":5088:5105   */\n      add\n        /* \"#utility.yul\":5079:5085   */\n      dup5\n        /* \"#utility.yul\":5041:5106   */\n      tag_147\n      jump\t// in\n    tag_198:\n        /* \"#utility.yul\":4903:5113   */\n      swap3\n      swap2\n      pop\n      pop\n      jump\t// out\n        /* \"#utility.yul\":5119:5341   */\n    tag_21:\n        /* \"#utility.yul\":5212:5216   */\n      0x00\n        /* \"#utility.yul\":5250:5252   */\n      0x20\n        /* \"#utility.yul\":5239:5248   */\n      dup3\n        /* \"#utility.yul\":5235:5253   */\n      add\n        /* \"#utility.yul\":5227:5253   */\n      swap1\n      pop\n        /* \"#utility.yul\":5263:5334   */\n      tag_200\n        /* \"#utility.yul\":5331:5332   */\n      0x00\n        /* \"#utility.yul\":5320:5329   */\n      dup4\n        /* \"#utility.yul\":5316:5333   */\n      add\n        /* \"#utility.yul\":5307:5313   */\n      dup5\n        /* \"#utility.yul\":5263:5334   */\n      tag_151\n      jump\t// in\n    tag_200:\n        /* \"#utility.yul\":5119:5341   */\n      swap3\n      swap2\n      pop\n      pop\n      jump\t// out\n        /* \"#utility.yul\":5347:5679   */\n    tag_17:\n        /* \"#utility.yul\":5468:5472   */\n      0x00\n        /* \"#utility.yul\":5506:5508   */\n      0x40\n        /* \"#utility.yul\":5495:5504   */\n      dup3\n        /* \"#utility.yul\":5491:5509   */\n      add\n        /* \"#utility.yul\":5483:5509   */\n      swap1\n      pop\n        /* \"#utility.yul\":5519:5590   */\n      tag_202\n        /* \"#utility.yul\":5587:5588   */\n      0x00\n        /* \"#utility.yul\":5576:5585   */\n      dup4\n        /* \"#utility.yul\":5572:5589   */\n      add\n        /* \"#utility.yul\":5563:5569   */\n      dup6\n        /* \"#utility.yul\":5519:5590   */\n      tag_151\n      jump\t// in\n    tag_202:\n        /* \"#utility.yul\":5600:5672   */\n      tag_203\n        /* \"#utility.yul\":5668:5670   */\n      0x20\n        /* \"#utility.yul\":5657:5666   */\n      dup4\n        /* \"#utility.yul\":5653:5671   */\n      add\n        /* \"#utility.yul\":5644:5650   */\n      dup5\n        /* \"#utility.yul\":5600:5672   */\n      tag_191\n      jump\t// in\n    tag_203:\n        /* \"#utility.yul\":5347:5679   */\n      swap4\n      swap3\n      pop\n      pop\n      pop\n      jump\t// out\n        /* \"#utility.yul\":5685:6104   */\n    tag_53:\n        /* \"#utility.yul\":5851:5855   */\n      0x00\n        /* \"#utility.yul\":5889:5891   */\n      0x20\n        /* \"#utility.yul\":5878:5887   */\n      dup3\n        /* \"#utility.yul\":5874:5892   */\n      add\n        /* \"#utility.yul\":5866:5892   */\n      swap1\n      pop\n        /* \"#utility.yul\":5938:5947   */\n      dup2\n        /* \"#utility.yul\":5932:5936   */\n      dup2\n        /* \"#utility.yul\":5928:5948   */\n      sub\n        /* \"#utility.yul\":5924:5925   */\n      0x00\n        /* \"#utility.yul\":5913:5922   */\n      dup4\n        /* \"#utility.yul\":5909:5926   */\n      add\n        /* \"#utility.yul\":5902:5949   */\n      mstore\n        /* \"#utility.yul\":5966:6097   */\n      tag_205\n        /* \"#utility.yul\":6092:6096   */\n      dup2\n        /* \"#utility.yul\":5966:6097   */\n      tag_155\n      jump\t// in\n    tag_205:\n        /* \"#utility.yul\":5958:6097   */\n      swap1\n      pop\n        /* \"#utility.yul\":5685:6104   */\n      swap2\n      swap1\n      pop\n      jump\t// out\n        /* \"#utility.yul\":6110:6529   */\n    tag_89:\n        /* \"#utility.yul\":6276:6280   */\n      0x00\n        /* \"#utility.yul\":6314:6316   */\n      0x20\n        /* \"#utility.yul\":6303:6312   */\n      dup3\n        /* \"#utility.yul\":6299:6317   */\n      add\n        /* \"#utility.yul\":6291:6317   */\n      swap1\n      pop\n        /* \"#utility.yul\":6363:6372   */\n      dup2\n        /* \"#utility.yul\":6357:6361   */\n      dup2\n        /* \"#utility.yul\":6353:6373   */\n      sub\n        /* \"#utility.yul\":6349:6350   */\n      0x00\n        /* \"#utility.yul\":6338:6347   */\n      dup4\n        /* \"#utility.yul\":6334:6351   */\n      add\n        /* \"#utility.yul\":6327:6374   */\n      mstore\n        /* \"#utility.yul\":6391:6522   */\n      tag_207\n        /* \"#utility.yul\":6517:6521   */\n      dup2\n        /* \"#utility.yul\":6391:6522   */\n      tag_161\n      jump\t// in\n    tag_207:\n        /* \"#utility.yul\":6383:6522   */\n      swap1\n      pop\n        /* \"#utility.yul\":6110:6529   */\n      swap2\n      swap1\n      pop\n      jump\t// out\n        /* \"#utility.yul\":6535:6954   */\n    tag_114:\n        /* \"#utility.yul\":6701:6705   */\n      0x00\n        /* \"#utility.yul\":6739:6741   */\n      0x20\n        /* \"#utility.yul\":6728:6737   */\n      dup3\n        /* \"#utility.yul\":6724:6742   */\n      add\n        /* \"#utility.yul\":6716:6742   */\n      swap1\n      pop\n        /* \"#utility.yul\":6788:6797   */\n      dup2\n        /* \"#utility.yul\":6782:6786   */\n      dup2\n        /* \"#utility.yul\":6778:6798   */\n      sub\n        /* \"#utility.yul\":6774:6775   */\n      0x00\n        /* \"#utility.yul\":6763:6772   */\n      dup4\n        /* \"#utility.yul\":6759:6776   */\n      add\n        /* \"#utility.yul\":6752:6799   */\n      mstore\n        /* \"#utility.yul\":6816:6947   */\n      tag_209\n        /* \"#utility.yul\":6942:6946   */\n      dup2\n        /* \"#utility.yul\":6816:6947   */\n      tag_166\n      jump\t// in\n    tag_209:\n        /* \"#utility.yul\":6808:6947   */\n      swap1\n      pop\n        /* \"#utility.yul\":6535:6954   */\n      swap2\n      swap1\n      pop\n      jump\t// out\n        /* \"#utility.yul\":6960:7379   */\n    tag_101:\n        /* \"#utility.yul\":7126:7130   */\n      0x00\n        /* \"#utility.yul\":7164:7166   */\n      0x20\n        /* \"#utility.yul\":7153:7162   */\n      dup3\n        /* \"#utility.yul\":7149:7167   */\n      add\n        /* \"#utility.yul\":7141:7167   */\n      swap1\n      pop\n        /* \"#utility.yul\":7213:7222   */\n      dup2\n        /* \"#utility.yul\":7207:7211   */\n      dup2\n        /* \"#utility.yul\":7203:7223   */\n      sub\n        /* \"#utility.yul\":7199:7200   */\n      0x00\n        /* \"#utility.yul\":7188:7197   */\n      dup4\n        /* \"#utility.yul\":7184:7201   */\n      add\n        /* \"#utility.yul\":7177:7224   */\n      mstore\n        /* \"#utility.yul\":7241:7372   */\n      tag_211\n        /* \"#utility.yul\":7367:7371   */\n      dup2\n        /* \"#utility.yul\":7241:7372   */\n      tag_171\n      jump\t// in\n    tag_211:\n        /* \"#utility.yul\":7233:7372   */\n      swap1\n      pop\n        /* \"#utility.yul\":6960:7379   */\n      swap2\n      swap1\n      pop\n      jump\t// out\n        /* \"#utility.yul\":7385:7804   */\n    tag_49:\n        /* \"#utility.yul\":7551:7555   */\n      0x00\n        /* \"#utility.yul\":7589:7591   */\n      0x20\n        /* \"#utility.yul\":7578:7587   */\n      dup3\n        /* \"#utility.yul\":7574:7592   */\n      add\n        /* \"#utility.yul\":7566:7592   */\n      swap1\n      pop\n        /* \"#utility.yul\":7638:7647   */\n      dup2\n        /* \"#utility.yul\":7632:7636   */\n      dup2\n        /* \"#utility.yul\":7628:7648   */\n      sub\n        /* \"#utility.yul\":7624:7625   */\n      0x00\n        /* \"#utility.yul\":7613:7622   */\n      dup4\n        /* \"#utility.yul\":7609:7626   */\n      add\n        /* \"#utility.yul\":7602:7649   */\n      mstore\n        /* \"#utility.yul\":7666:7797   */\n      tag_213\n        /* \"#utility.yul\":7792:7796   */\n      dup2\n        /* \"#utility.yul\":7666:7797   */\n      tag_176\n      jump\t// in\n    tag_213:\n        /* \"#utility.yul\":7658:7797   */\n      swap1\n      pop\n        /* \"#utility.yul\":7385:7804   */\n      swap2\n      swap1\n      pop\n      jump\t// out\n        /* \"#utility.yul\":7810:8229   */\n    tag_97:\n        /* \"#utility.yul\":7976:7980   */\n      0x00\n        /* \"#utility.yul\":8014:8016   */\n      0x20\n        /* \"#utility.yul\":8003:8012   */\n      dup3\n        /* \"#utility.yul\":7999:8017   */\n      add\n        /* \"#utility.yul\":7991:8017   */\n      swap1\n      pop\n        /* \"#utility.yul\":8063:8072   */\n      dup2\n        /* \"#utility.yul\":8057:8061   */\n      dup2\n        /* \"#utility.yul\":8053:8073   */\n      sub\n        /* \"#utility.yul\":8049:8050   */\n      0x00\n        /* \"#utility.yul\":8038:8047   */\n      dup4\n        /* \"#utility.yul\":8034:8051   */\n      add\n        /* \"#utility.yul\":8027:8074   */\n      mstore\n        /* \"#utility.yul\":8091:8222   */\n      tag_215\n        /* \"#utility.yul\":8217:8221   */\n      dup2\n        /* \"#utility.yul\":8091:8222   */\n      tag_181\n      jump\t// in\n    tag_215:\n        /* \"#utility.yul\":8083:8222   */\n      swap1\n      pop\n        /* \"#utility.yul\":7810:8229   */\n      swap2\n      swap1\n      pop\n      jump\t// out\n        /* \"#utility.yul\":8235:8654   */\n    tag_85:\n        /* \"#utility.yul\":8401:8405   */\n      0x00\n        /* \"#utility.yul\":8439:8441   */\n      0x20\n        /* \"#utility.yul\":8428:8437   */\n      dup3\n        /* \"#utility.yul\":8424:8442   */\n      add\n        /* \"#utility.yul\":8416:8442   */\n      swap1\n      pop\n        /* \"#utility.yul\":8488:8497   */\n      dup2\n        /* \"#utility.yul\":8482:8486   */\n      dup2\n        /* \"#utility.yul\":8478:8498   */\n      sub\n        /* \"#utility.yul\":8474:8475   */\n      0x00\n        /* \"#utility.yul\":8463:8472   */\n      dup4\n        /* \"#utility.yul\":8459:8476   */\n      add\n        /* \"#utility.yul\":8452:8499   */\n      mstore\n        /* \"#utility.yul\":8516:8647   */\n      tag_217\n        /* \"#utility.yul\":8642:8646   */\n      dup2\n        /* \"#utility.yul\":8516:8647   */\n      tag_186\n      jump\t// in\n    tag_217:\n        /* \"#utility.yul\":8508:8647   */\n      swap1\n      pop\n        /* \"#utility.yul\":8235:8654   */\n      swap2\n      swap1\n      pop\n      jump\t// out\n        /* \"#utility.yul\":8741:8910   */\n    tag_158:\n        /* \"#utility.yul\":8825:8836   */\n      0x00\n        /* \"#utility.yul\":8859:8865   */\n      dup3\n        /* \"#utility.yul\":8854:8857   */\n      dup3\n        /* \"#utility.yul\":8847:8866   */\n      mstore\n        /* \"#utility.yul\":8899:8903   */\n      0x20\n        /* \"#utility.yul\":8894:8897   */\n      dup3\n        /* \"#utility.yul\":8890:8904   */\n      add\n        /* \"#utility.yul\":8875:8904   */\n      swap1\n      pop\n        /* \"#utility.yul\":8741:8910   */\n      swap3\n      swap2\n      pop\n      pop\n      jump\t// out\n        /* \"#utility.yul\":8916:9221   */\n    tag_110:\n        /* \"#utility.yul\":8956:8959   */\n      0x00\n        /* \"#utility.yul\":8975:8995   */\n      tag_222\n        /* \"#utility.yul\":8993:8994   */\n      dup3\n        /* \"#utility.yul\":8975:8995   */\n      tag_194\n      jump\t// in\n    tag_222:\n        /* \"#utility.yul\":8970:8995   */\n      swap2\n      pop\n        /* \"#utility.yul\":9009:9029   */\n      tag_223\n        /* \"#utility.yul\":9027:9028   */\n      dup4\n        /* \"#utility.yul\":9009:9029   */\n      tag_194\n      jump\t// in\n    tag_223:\n        /* \"#utility.yul\":9004:9029   */\n      swap3\n      pop\n        /* \"#utility.yul\":9163:9164   */\n      dup3\n        /* \"#utility.yul\":9095:9161   */\n      0xffffffffffffffffffffffffffffffffffffffffffffffffffffffffffffffff\n        /* \"#utility.yul\":9091:9165   */\n      sub\n        /* \"#utility.yul\":9088:9089   */\n      dup3\n        /* \"#utility.yul\":9085:9166   */\n      gt\n        /* \"#utility.yul\":9082:9189   */\n      iszero\n      tag_224\n      jumpi\n        /* \"#utility.yul\":9169:9187   */\n      tag_225\n      tag_226\n      jump\t// in\n    tag_225:\n        /* \"#utility.yul\":9082:9189   */\n    tag_224:\n        /* \"#utility.yul\":9213:9214   */\n      dup3\n        /* \"#utility.yul\":9210:9211   */\n      dup3\n        /* \"#utility.yul\":9206:9215   */\n      add\n        /* \"#utility.yul\":9199:9215   */\n      swap1\n      pop\n        /* \"#utility.yul\":8916:9221   */\n      swap3\n      swap2\n      pop\n      pop\n      jump\t// out\n        /* \"#utility.yul\":9227:9323   */\n    tag_146:\n        /* \"#utility.yul\":9264:9271   */\n      0x00\n        /* \"#utility.yul\":9293:9317   */\n      tag_228\n        /* \"#utility.yul\":9311:9316   */\n      dup3\n        /* \"#utility.yul\":9293:9317   */\n      tag_229\n      jump\t// in\n    tag_228:\n        /* \"#utility.yul\":9282:9317   */\n      swap1\n      pop\n        /* \"#utility.yul\":9227:9323   */\n      swap2\n      swap1\n      pop\n      jump\t// out\n        /* \"#utility.yul\":9329:9419   */\n    tag_150:\n        /* \"#utility.yul\":9363:9370   */\n      0x00\n        /* \"#utility.yul\":9406:9411   */\n      dup2\n        /* \"#utility.yul\":9399:9412   */\n      iszero\n        /* \"#utility.yul\":9392:9413   */\n      iszero\n        /* \"#utility.yul\":9381:9413   */\n      swap1\n      pop\n        /* \"#utility.yul\":9329:9419   */\n      swap2\n      swap1\n      pop\n      jump\t// out\n        /* \"#utility.yul\":9425:9502   */\n    tag_154:\n        /* \"#utility.yul\":9462:9469   */\n      0x00\n        /* \"#utility.yul\":9491:9496   */\n      dup2\n        /* \"#utility.yul\":9480:9496   */\n      swap1\n      pop\n        /* \"#utility.yul\":9425:9502   */\n      swap2\n      swap1\n      pop\n      jump\t// out\n        /* \"#utility.yul\":9508:9634   */\n    tag_229:\n        /* \"#utility.yul\":9545:9552   */\n      0x00\n        /* \"#utility.yul\":9585:9627   */\n      0xffffffffffffffffffffffffffffffffffffffff\n        /* \"#utility.yul\":9578:9583   */\n      dup3\n        /* \"#utility.yul\":9574:9628   */\n      and\n        /* \"#utility.yul\":9563:9628   */\n      swap1\n      pop\n        /* \"#utility.yul\":9508:9634   */\n      swap2\n      swap1\n      pop\n      jump\t// out\n        /* \"#utility.yul\":9640:9717   */\n    tag_194:\n        /* \"#utility.yul\":9677:9684   */\n      0x00\n        /* \"#utility.yul\":9706:9711   */\n      dup2\n        /* \"#utility.yul\":9695:9711   */\n      swap1\n      pop\n        /* \"#utility.yul\":9640:9717   */\n      swap2\n      swap1\n      pop\n      jump\t// out\n        /* \"#utility.yul\":9723:9809   */\n    tag_234:\n        /* \"#utility.yul\":9758:9765   */\n      0x00\n        /* \"#utility.yul\":9798:9802   */\n      0xff\n        /* \"#utility.yul\":9791:9796   */\n      dup3\n        /* \"#utility.yul\":9787:9803   */\n      and\n        /* \"#utility.yul\":9776:9803   */\n      swap1\n      pop\n        /* \"#utility.yul\":9723:9809   */\n      swap2\n      swap1\n      pop\n      jump\t// out\n        /* \"#utility.yul\":9815:9982   */\n    tag_75:\n        /* \"#utility.yul\":9852:9855   */\n      0x00\n        /* \"#utility.yul\":9875:9897   */\n      tag_237\n        /* \"#utility.yul\":9891:9896   */\n      dup3\n        /* \"#utility.yul\":9875:9897   */\n      tag_234\n      jump\t// in\n    tag_237:\n        /* \"#utility.yul\":9866:9897   */\n      swap2\n      pop\n        /* \"#utility.yul\":9919:9923   */\n      0xff\n        /* \"#utility.yul\":9912:9917   */\n      dup3\n        /* \"#utility.yul\":9909:9924   */\n      eq\n        /* \"#utility.yul\":9906:9947   */\n      iszero\n      tag_238\n      jumpi\n        /* \"#utility.yul\":9927:9945   */\n      tag_239\n      tag_226\n      jump\t// in\n    tag_239:\n        /* \"#utility.yul\":9906:9947   */\n    tag_238:\n        /* \"#utility.yul\":9974:9975   */\n      0x01\n        /* \"#utility.yul\":9967:9972   */\n      dup3\n        /* \"#utility.yul\":9963:9976   */\n      add\n        /* \"#utility.yul\":9956:9976   */\n      swap1\n      pop\n        /* \"#utility.yul\":9815:9982   */\n      swap2\n      swap1\n      pop\n      jump\t// out\n        /* \"#utility.yul\":9988:10168   */\n    tag_226:\n        /* \"#utility.yul\":10036:10113   */\n      0x4e487b7100000000000000000000000000000000000000000000000000000000\n        /* \"#utility.yul\":10033:10034   */\n      0x00\n        /* \"#utility.yul\":10026:10114   */\n      mstore\n        /* \"#utility.yul\":10133:10137   */\n      0x11\n        /* \"#utility.yul\":10130:10131   */\n      0x04\n        /* \"#utility.yul\":10123:10138   */\n      mstore\n        /* \"#utility.yul\":10157:10161   */\n      0x24\n        /* \"#utility.yul\":10154:10155   */\n      0x00\n        /* \"#utility.yul\":10147:10162   */\n      revert\n        /* \"#utility.yul\":10174:10354   */\n    tag_65:\n        /* \"#utility.yul\":10222:10299   */\n      0x4e487b7100000000000000000000000000000000000000000000000000000000\n        /* \"#utility.yul\":10219:10220   */\n      0x00\n        /* \"#utility.yul\":10212:10300   */\n      mstore\n        /* \"#utility.yul\":10319:10323   */\n      0x32\n        /* \"#utility.yul\":10316:10317   */\n      0x04\n        /* \"#utility.yul\":10309:10324   */\n      mstore\n        /* \"#utility.yul\":10343:10347   */\n      0x24\n        /* \"#utility.yul\":10340:10341   */\n      0x00\n        /* \"#utility.yul\":10333:10348   */\n      revert\n        /* \"#utility.yul\":10483:10600   */\n    tag_132:\n        /* \"#utility.yul\":10592:10593   */\n      0x00\n        /* \"#utility.yul\":10589:10590   */\n      dup1\n        /* \"#utility.yul\":10582:10594   */\n      revert\n        /* \"#utility.yul\":10606:10773   */\n    tag_160:\n        /* \"#utility.yul\":10746:10765   */\n      0x566f7465732061726520636c6f7365642e000000000000000000000000000000\n        /* \"#utility.yul\":10742:10743   */\n      0x00\n        /* \"#utility.yul\":10734:10740   */\n      dup3\n        /* \"#utility.yul\":10730:10744   */\n      add\n        /* \"#utility.yul\":10723:10766   */\n      mstore\n        /* \"#utility.yul\":10606:10773   */\n      pop\n      jump\t// out\n        /* \"#utility.yul\":10779:10999   */\n    tag_165:\n        /* \"#utility.yul\":10919:10953   */\n      0x596f75206861766520616c7265616479206120726967687420746f20766f7465\n        /* \"#utility.yul\":10915:10916   */\n      0x00\n        /* \"#utility.yul\":10907:10913   */\n      dup3\n        /* \"#utility.yul\":10903:10917   */\n      add\n        /* \"#utility.yul\":10896:10954   */\n      mstore\n        /* \"#utility.yul\":10988:10991   */\n      0x2e00000000000000000000000000000000000000000000000000000000000000\n        /* \"#utility.yul\":10983:10985   */\n      0x20\n        /* \"#utility.yul\":10975:10981   */\n      dup3\n        /* \"#utility.yul\":10971:10986   */\n      add\n        /* \"#utility.yul\":10964:10992   */\n      mstore\n        /* \"#utility.yul\":10779:10999   */\n      pop\n      jump\t// out\n        /* \"#utility.yul\":11005:11179   */\n    tag_170:\n        /* \"#utility.yul\":11145:11171   */\n      0x566f74657320617265206e6f742079657420636c6f7365640000000000000000\n        /* \"#utility.yul\":11141:11142   */\n      0x00\n        /* \"#utility.yul\":11133:11139   */\n      dup3\n        /* \"#utility.yul\":11129:11143   */\n      add\n        /* \"#utility.yul\":11122:11172   */\n      mstore\n        /* \"#utility.yul\":11005:11179   */\n      pop\n      jump\t// out\n        /* \"#utility.yul\":11185:11405   */\n    tag_175:\n        /* \"#utility.yul\":11325:11359   */\n      0x596f7520646f6e277420686176652074686520726967687420746f20766f7465\n        /* \"#utility.yul\":11321:11322   */\n      0x00\n        /* \"#utility.yul\":11313:11319   */\n      dup3\n        /* \"#utility.yul\":11309:11323   */\n      add\n        /* \"#utility.yul\":11302:11360   */\n      mstore\n        /* \"#utility.yul\":11394:11397   */\n      0x2e00000000000000000000000000000000000000000000000000000000000000\n        /* \"#utility.yul\":11389:11391   */\n      0x20\n        /* \"#utility.yul\":11381:11387   */\n      dup3\n        /* \"#utility.yul\":11377:11392   */\n      add\n        /* \"#utility.yul\":11370:11398   */\n      mstore\n        /* \"#utility.yul\":11185:11405   */\n      pop\n      jump\t// out\n        /* \"#utility.yul\":11411:11641   */\n    tag_180:\n        /* \"#utility.yul\":11551:11585   */\n      0x4f6e6c79206368616972706572736f6e2063616e206578656375746520746869\n        /* \"#utility.yul\":11547:11548   */\n      0x00\n        /* \"#utility.yul\":11539:11545   */\n      dup3\n        /* \"#utility.yul\":11535:11549   */\n      add\n        /* \"#utility.yul\":11528:11586   */\n      mstore\n        /* \"#utility.yul\":11620:11633   */\n      0x732066756e6374696f6e2e000000000000000000000000000000000000000000\n        /* \"#utility.yul\":11615:11617   */\n      0x20\n        /* \"#utility.yul\":11607:11613   */\n      dup3\n        /* \"#utility.yul\":11603:11618   */\n      add\n        /* \"#utility.yul\":11596:11634   */\n      mstore\n        /* \"#utility.yul\":11411:11641   */\n      pop\n      jump\t// out\n        /* \"#utility.yul\":11647:11880   */\n    tag_185:\n        /* \"#utility.yul\":11787:11821   */\n      0x596f7520617265206e6f7420616c6c6f77656420746f20766f74652077697468\n        /* \"#utility.yul\":11783:11784   */\n      0x00\n        /* \"#utility.yul\":11775:11781   */\n      dup3\n        /* \"#utility.yul\":11771:11785   */\n      add\n        /* \"#utility.yul\":11764:11822   */\n      mstore\n        /* \"#utility.yul\":11856:11872   */\n      0x207468697320616464726573732e000000000000000000000000000000000000\n        /* \"#utility.yul\":11851:11853   */\n      0x20\n        /* \"#utility.yul\":11843:11849   */\n      dup3\n        /* \"#utility.yul\":11839:11854   */\n      add\n        /* \"#utility.yul\":11832:11873   */\n      mstore\n        /* \"#utility.yul\":11647:11880   */\n      pop\n      jump\t// out\n        /* \"#utility.yul\":11886:12060   */\n    tag_190:\n        /* \"#utility.yul\":12026:12052   */\n      0x54686520766f74657220616c726561647920766f7465642e0000000000000000\n        /* \"#utility.yul\":12022:12023   */\n      0x00\n        /* \"#utility.yul\":12014:12020   */\n      dup3\n        /* \"#utility.yul\":12010:12024   */\n      add\n        /* \"#utility.yul\":12003:12053   */\n      mstore\n        /* \"#utility.yul\":11886:12060   */\n      pop\n      jump\t// out\n        /* \"#utility.yul\":12066:12188   */\n    tag_120:\n        /* \"#utility.yul\":12139:12163   */\n      tag_253\n        /* \"#utility.yul\":12157:12162   */\n      dup2\n        /* \"#utility.yul\":12139:12163   */\n      tag_146\n      jump\t// in\n    tag_253:\n        /* \"#utility.yul\":12132:12137   */\n      dup2\n        /* \"#utility.yul\":12129:12164   */\n      eq\n        /* \"#utility.yul\":12119:12182   */\n      tag_254\n      jumpi\n        /* \"#utility.yul\":12178:12179   */\n      0x00\n        /* \"#utility.yul\":12175:12176   */\n      dup1\n        /* \"#utility.yul\":12168:12180   */\n      revert\n        /* \"#utility.yul\":12119:12182   */\n    tag_254:\n        /* \"#utility.yul\":12066:12188   */\n      pop\n      jump\t// out\n        /* \"#utility.yul\":12194:12316   */\n    tag_124:\n        /* \"#utility.yul\":12267:12291   */\n      tag_256\n        /* \"#utility.yul\":12285:12290   */\n      dup2\n        /* \"#utility.yul\":12267:12291   */\n      tag_194\n      jump\t// in\n    tag_256:\n        /* \"#utility.yul\":12260:12265   */\n      dup2\n        /* \"#utility.yul\":12257:12292   */\n      eq\n        /* \"#utility.yul\":12247:12310   */\n      tag_257\n      jumpi\n        /* \"#utility.yul\":12306:12307   */\n      0x00\n        /* \"#utility.yul\":12303:12304   */\n      dup1\n        /* \"#utility.yul\":12296:12308   */\n      revert\n        /* \"#utility.yul\":12247:12310   */\n    tag_257:\n        /* \"#utility.yul\":12194:12316   */\n      pop\n      jump\t// out\n        /* \"#utility.yul\":12322:12440   */\n    tag_128:\n        /* \"#utility.yul\":12393:12415   */\n      tag_259\n        /* \"#utility.yul\":12409:12414   */\n      dup2\n        /* \"#utility.yul\":12393:12415   */\n      tag_234\n      jump\t// in\n    tag_259:\n        /* \"#utility.yul\":12386:12391   */\n      dup2\n        /* \"#utility.yul\":12383:12416   */\n      eq\n        /* \"#utility.yul\":12373:12434   */\n      tag_260\n      jumpi\n        /* \"#utility.yul\":12430:12431   */\n      0x00\n        /* \"#utility.yul\":12427:12428   */\n      dup1\n        /* \"#utility.yul\":12420:12432   */\n      revert\n        /* \"#utility.yul\":12373:12434   */\n    tag_260:\n        /* \"#utility.yul\":12322:12440   */\n      pop\n      jump\t// out\n\n    auxdata: 0xa2646970667358221220b5df7ea49217b6ebe660dd5ffb14a07377f27c0ccf293306de85d6a2ffe191fd64736f6c63430008070033\n}\n",
				"bytecode": {
					"linkReferences": {},
					"object": "60806040526001600260146101000a81548160ff0219169083151502179055503480156200002c57600080fd5b50604051620015543803806200155483398181016040528101906200005291906200027a565b33600260006101000a81548173ffffffffffffffffffffffffffffffffffffffff021916908373ffffffffffffffffffffffffffffffffffffffff1602179055506001600080600260009054906101000a900473ffffffffffffffffffffffffffffffffffffffff1673ffffffffffffffffffffffffffffffffffffffff1673ffffffffffffffffffffffffffffffffffffffff16815260200190815260200160002060000160026101000a81548163ffffffff021916908363ffffffff16021790555060005b8151811015620001ad5760016040518060400160405280848481518110620001465762000145620003ea565b5b6020026020010151815260200160008152509080600181540180825580915050600190039060005260206000209060020201600090919091909150600082015181600001556020820151816001015550508080620001a4906200036d565b91505062000119565b505062000487565b6000620001cc620001c684620002f4565b620002cb565b90508083825260208201905082856020860282011115620001f257620001f16200044d565b5b60005b858110156200022657816200020b888262000263565b845260208401935060208301925050600181019050620001f5565b5050509392505050565b600082601f83011262000248576200024762000448565b5b81516200025a848260208601620001b5565b91505092915050565b60008151905062000274816200046d565b92915050565b60006020828403121562000293576200029262000457565b5b600082015167ffffffffffffffff811115620002b457620002b362000452565b5b620002c28482850162000230565b91505092915050565b6000620002d7620002ea565b9050620002e5828262000337565b919050565b6000604051905090565b600067ffffffffffffffff82111562000312576200031162000419565b5b602082029050602081019050919050565b6000819050919050565b6000819050919050565b62000342826200045c565b810181811067ffffffffffffffff8211171562000364576200036362000419565b5b80604052505050565b60006200037a826200032d565b91507fffffffffffffffffffffffffffffffffffffffffffffffffffffffffffffffff821415620003b057620003af620003bb565b5b600182019050919050565b7f4e487b7100000000000000000000000000000000000000000000000000000000600052601160045260246000fd5b7f4e487b7100000000000000000000000000000000000000000000000000000000600052603260045260246000fd5b7f4e487b7100000000000000000000000000000000000000000000000000000000600052604160045260246000fd5b600080fd5b600080fd5b600080fd5b600080fd5b6000601f19601f8301169050919050565b620004788162000323565b81146200048457600080fd5b50565b6110bd80620004976000396000f3fe608060405234801561001057600080fd5b50600436106100885760003560e01c80639e7b8d611161005b5780639e7b8d6114610118578063b61bfe5b14610134578063b81c645314610152578063e2ba53f01461016e57610088565b8063013cf08b1461008d5780632495c0ce146100be57806372133c96146100dc57806387f7b975146100fa575b600080fd5b6100a760048036038101906100a29190610a40565b61018c565b6040516100b5929190610c2f565b60405180910390f35b6100c66101c0565b6040516100d39190610c14565b60405180910390f35b6100e46102d0565b6040516100f19190610c14565b60405180910390f35b6101026103da565b60405161010f9190610bde565b60405180910390f35b610132600480360381019061012d9190610a13565b610400565b005b61013c610677565b6040516101499190610bf9565b60405180910390f35b61016c60048036038101906101679190610a6d565b61068a565b005b610176610975565b6040516101839190610c14565b60405180910390f35b6001818154811061019c57600080fd5b90600052602060002090600202016000915090508060000154908060010154905082565b60003373ffffffffffffffffffffffffffffffffffffffff16600260009054906101000a900473ffffffffffffffffffffffffffffffffffffffff1673ffffffffffffffffffffffffffffffffffffffff1614610252576040517f08c379a000000000000000000000000000000000000000000000000000000000815260040161024990610cd8565b60405180910390fd5b60001515600260149054906101000a900460ff161515146102a8576040517f08c379a000000000000000000000000000000000000000000000000000000000815260040161029f90610c58565b60405180910390fd5b6000600260146101000a81548160ff0219169083151502179055506102cb6102d0565b905090565b6000801515600260149054906101000a900460ff16151514610327576040517f08c379a000000000000000000000000000000000000000000000000000000000815260040161031e90610c58565b60405180910390fd5b6000805b6001805490508160ff1610156103d5578160018260ff168154811061035357610352610e57565b5b90600052602060002090600202016001015411156103c25760018160ff168154811061038257610381610e57565b5b906000526020600020906002020160000154925060018160ff16815481106103ad576103ac610e57565b5b90600052602060002090600202016001015491505b80806103cd90610dfe565b91505061032b565b505090565b600260009054906101000a900473ffffffffffffffffffffffffffffffffffffffff1681565b3373ffffffffffffffffffffffffffffffffffffffff16600260009054906101000a900473ffffffffffffffffffffffffffffffffffffffff1673ffffffffffffffffffffffffffffffffffffffff1614610490576040517f08c379a000000000000000000000000000000000000000000000000000000000815260040161048790610cd8565b60405180910390fd5b60001515600260149054906101000a900460ff161515146104e6576040517f08c379a00000000000000000000000000000000000000000000000000000000081526004016104dd90610c58565b60405180910390fd5b806000808273ffffffffffffffffffffffffffffffffffffffff1673ffffffffffffffffffffffffffffffffffffffff16815260200190815260200160002060000160009054906101000a900460ff1615610576576040517f08c379a000000000000000000000000000000000000000000000000000000000815260040161056d90610d18565b60405180910390fd5b8160008060008373ffffffffffffffffffffffffffffffffffffffff1673ffffffffffffffffffffffffffffffffffffffff16815260200190815260200160002060000160029054906101000a900463ffffffff1663ffffffff1614610611576040517f08c379a000000000000000000000000000000000000000000000000000000000815260040161060890610c78565b60405180910390fd5b60016000808573ffffffffffffffffffffffffffffffffffffffff1673ffffffffffffffffffffffffffffffffffffffff16815260200190815260200160002060000160026101000a81548163ffffffff021916908363ffffffff160217905550505050565b600260149054906101000a900460ff1681565b60001515600260149054906101000a900460ff161515146106e0576040517f08c379a00000000000000000000000000000000000000000000000000000000081526004016106d790610c58565b60405180910390fd5b803373ffffffffffffffffffffffffffffffffffffffff168173ffffffffffffffffffffffffffffffffffffffff161461074f576040517f08c379a000000000000000000000000000000000000000000000000000000000815260040161074690610cf8565b60405180910390fd5b8160008060008373ffffffffffffffffffffffffffffffffffffffff1673ffffffffffffffffffffffffffffffffffffffff16815260200190815260200160002060000160029054906101000a900463ffffffff1663ffffffff1614156107eb576040517f08c379a00000000000000000000000000000000000000000000000000000000081526004016107e290610cb8565b60405180910390fd5b826000808273ffffffffffffffffffffffffffffffffffffffff1673ffffffffffffffffffffffffffffffffffffffff16815260200190815260200160002060000160009054906101000a900460ff161561087b576040517f08c379a000000000000000000000000000000000000000000000000000000000815260040161087290610d18565b60405180910390fd5b60016000808673ffffffffffffffffffffffffffffffffffffffff1673ffffffffffffffffffffffffffffffffffffffff16815260200190815260200160002060000160006101000a81548160ff021916908315150217905550846000808673ffffffffffffffffffffffffffffffffffffffff1673ffffffffffffffffffffffffffffffffffffffff16815260200190815260200160002060000160016101000a81548160ff021916908360ff1602179055506001808660ff168154811061094757610946610e57565b5b906000526020600020906002020160010160008282546109679190610d49565b925050819055505050505050565b6000600260149054906101000a900460ff16156109c7576040517f08c379a00000000000000000000000000000000000000000000000000000000081526004016109be90610c98565b60405180910390fd5b6109cf6102d0565b905090565b6000813590506109e381611042565b92915050565b6000813590506109f881611059565b92915050565b600081359050610a0d81611070565b92915050565b600060208284031215610a2957610a28610e86565b5b6000610a37848285016109d4565b91505092915050565b600060208284031215610a5657610a55610e86565b5b6000610a64848285016109e9565b91505092915050565b60008060408385031215610a8457610a83610e86565b5b6000610a92858286016109fe565b9250506020610aa3858286016109d4565b9150509250929050565b610ab681610d9f565b82525050565b610ac581610db1565b82525050565b610ad481610dbd565b82525050565b6000610ae7601183610d38565b9150610af282610e8b565b602082019050919050565b6000610b0a602183610d38565b9150610b1582610eb4565b604082019050919050565b6000610b2d601883610d38565b9150610b3882610f03565b602082019050919050565b6000610b50602183610d38565b9150610b5b82610f2c565b604082019050919050565b6000610b73602b83610d38565b9150610b7e82610f7b565b604082019050919050565b6000610b96602e83610d38565b9150610ba182610fca565b604082019050919050565b6000610bb9601883610d38565b9150610bc482611019565b602082019050919050565b610bd881610de7565b82525050565b6000602082019050610bf36000830184610aad565b92915050565b6000602082019050610c0e6000830184610abc565b92915050565b6000602082019050610c296000830184610acb565b92915050565b6000604082019050610c446000830185610acb565b610c516020830184610bcf565b9392505050565b60006020820190508181036000830152610c7181610ada565b9050919050565b60006020820190508181036000830152610c9181610afd565b9050919050565b60006020820190508181036000830152610cb181610b20565b9050919050565b60006020820190508181036000830152610cd181610b43565b9050919050565b60006020820190508181036000830152610cf181610b66565b9050919050565b60006020820190508181036000830152610d1181610b89565b9050919050565b60006020820190508181036000830152610d3181610bac565b9050919050565b600082825260208201905092915050565b6000610d5482610de7565b9150610d5f83610de7565b9250827fffffffffffffffffffffffffffffffffffffffffffffffffffffffffffffffff03821115610d9457610d93610e28565b5b828201905092915050565b6000610daa82610dc7565b9050919050565b60008115159050919050565b6000819050919050565b600073ffffffffffffffffffffffffffffffffffffffff82169050919050565b6000819050919050565b600060ff82169050919050565b6000610e0982610df1565b915060ff821415610e1d57610e1c610e28565b5b600182019050919050565b7f4e487b7100000000000000000000000000000000000000000000000000000000600052601160045260246000fd5b7f4e487b7100000000000000000000000000000000000000000000000000000000600052603260045260246000fd5b600080fd5b7f566f7465732061726520636c6f7365642e000000000000000000000000000000600082015250565b7f596f75206861766520616c7265616479206120726967687420746f20766f746560008201527f2e00000000000000000000000000000000000000000000000000000000000000602082015250565b7f566f74657320617265206e6f742079657420636c6f7365640000000000000000600082015250565b7f596f7520646f6e277420686176652074686520726967687420746f20766f746560008201527f2e00000000000000000000000000000000000000000000000000000000000000602082015250565b7f4f6e6c79206368616972706572736f6e2063616e20657865637574652074686960008201527f732066756e6374696f6e2e000000000000000000000000000000000000000000602082015250565b7f596f7520617265206e6f7420616c6c6f77656420746f20766f7465207769746860008201527f207468697320616464726573732e000000000000000000000000000000000000602082015250565b7f54686520766f74657220616c726561647920766f7465642e0000000000000000600082015250565b61104b81610d9f565b811461105657600080fd5b50565b61106281610de7565b811461106d57600080fd5b50565b61107981610df1565b811461108457600080fd5b5056fea2646970667358221220b5df7ea49217b6ebe660dd5ffb14a07377f27c0ccf293306de85d6a2ffe191fd64736f6c63430008070033",
					"opcodes": "PUSH1 0x80 PUSH1 0x40 MSTORE PUSH1 0x1 PUSH1 0x2 PUSH1 0x14 PUSH2 0x100 EXP DUP2 SLOAD DUP2 PUSH1 0xFF MUL NOT AND SWAP1 DUP4 ISZERO ISZERO MUL OR SWAP1 SSTORE POP CALLVALUE DUP1 ISZERO PUSH3 0x2C JUMPI PUSH1 0x0 DUP1 REVERT JUMPDEST POP PUSH1 0x40 MLOAD PUSH3 0x1554 CODESIZE SUB DUP1 PUSH3 0x1554 DUP4 CODECOPY DUP2 DUP2 ADD PUSH1 0x40 MSTORE DUP2 ADD SWAP1 PUSH3 0x52 SWAP2 SWAP1 PUSH3 0x27A JUMP JUMPDEST CALLER PUSH1 0x2 PUSH1 0x0 PUSH2 0x100 EXP DUP2 SLOAD DUP2 PUSH20 0xFFFFFFFFFFFFFFFFFFFFFFFFFFFFFFFFFFFFFFFF MUL NOT AND SWAP1 DUP4 PUSH20 0xFFFFFFFFFFFFFFFFFFFFFFFFFFFFFFFFFFFFFFFF AND MUL OR SWAP1 SSTORE POP PUSH1 0x1 PUSH1 0x0 DUP1 PUSH1 0x2 PUSH1 0x0 SWAP1 SLOAD SWAP1 PUSH2 0x100 EXP SWAP1 DIV PUSH20 0xFFFFFFFFFFFFFFFFFFFFFFFFFFFFFFFFFFFFFFFF AND PUSH20 0xFFFFFFFFFFFFFFFFFFFFFFFFFFFFFFFFFFFFFFFF AND PUSH20 0xFFFFFFFFFFFFFFFFFFFFFFFFFFFFFFFFFFFFFFFF AND DUP2 MSTORE PUSH1 0x20 ADD SWAP1 DUP2 MSTORE PUSH1 0x20 ADD PUSH1 0x0 KECCAK256 PUSH1 0x0 ADD PUSH1 0x2 PUSH2 0x100 EXP DUP2 SLOAD DUP2 PUSH4 0xFFFFFFFF MUL NOT AND SWAP1 DUP4 PUSH4 0xFFFFFFFF AND MUL OR SWAP1 SSTORE POP PUSH1 0x0 JUMPDEST DUP2 MLOAD DUP2 LT ISZERO PUSH3 0x1AD JUMPI PUSH1 0x1 PUSH1 0x40 MLOAD DUP1 PUSH1 0x40 ADD PUSH1 0x40 MSTORE DUP1 DUP5 DUP5 DUP2 MLOAD DUP2 LT PUSH3 0x146 JUMPI PUSH3 0x145 PUSH3 0x3EA JUMP JUMPDEST JUMPDEST PUSH1 0x20 MUL PUSH1 0x20 ADD ADD MLOAD DUP2 MSTORE PUSH1 0x20 ADD PUSH1 0x0 DUP2 MSTORE POP SWAP1 DUP1 PUSH1 0x1 DUP2 SLOAD ADD DUP1 DUP3 SSTORE DUP1 SWAP2 POP POP PUSH1 0x1 SWAP1 SUB SWAP1 PUSH1 0x0 MSTORE PUSH1 0x20 PUSH1 0x0 KECCAK256 SWAP1 PUSH1 0x2 MUL ADD PUSH1 0x0 SWAP1 SWAP2 SWAP1 SWAP2 SWAP1 SWAP2 POP PUSH1 0x0 DUP3 ADD MLOAD DUP2 PUSH1 0x0 ADD SSTORE PUSH1 0x20 DUP3 ADD MLOAD DUP2 PUSH1 0x1 ADD SSTORE POP POP DUP1 DUP1 PUSH3 0x1A4 SWAP1 PUSH3 0x36D JUMP JUMPDEST SWAP2 POP POP PUSH3 0x119 JUMP JUMPDEST POP POP PUSH3 0x487 JUMP JUMPDEST PUSH1 0x0 PUSH3 0x1CC PUSH3 0x1C6 DUP5 PUSH3 0x2F4 JUMP JUMPDEST PUSH3 0x2CB JUMP JUMPDEST SWAP1 POP DUP1 DUP4 DUP3 MSTORE PUSH1 0x20 DUP3 ADD SWAP1 POP DUP3 DUP6 PUSH1 0x20 DUP7 MUL DUP3 ADD GT ISZERO PUSH3 0x1F2 JUMPI PUSH3 0x1F1 PUSH3 0x44D JUMP JUMPDEST JUMPDEST PUSH1 0x0 JUMPDEST DUP6 DUP2 LT ISZERO PUSH3 0x226 JUMPI DUP2 PUSH3 0x20B DUP9 DUP3 PUSH3 0x263 JUMP JUMPDEST DUP5 MSTORE PUSH1 0x20 DUP5 ADD SWAP4 POP PUSH1 0x20 DUP4 ADD SWAP3 POP POP PUSH1 0x1 DUP2 ADD SWAP1 POP PUSH3 0x1F5 JUMP JUMPDEST POP POP POP SWAP4 SWAP3 POP POP POP JUMP JUMPDEST PUSH1 0x0 DUP3 PUSH1 0x1F DUP4 ADD SLT PUSH3 0x248 JUMPI PUSH3 0x247 PUSH3 0x448 JUMP JUMPDEST JUMPDEST DUP2 MLOAD PUSH3 0x25A DUP5 DUP3 PUSH1 0x20 DUP7 ADD PUSH3 0x1B5 JUMP JUMPDEST SWAP2 POP POP SWAP3 SWAP2 POP POP JUMP JUMPDEST PUSH1 0x0 DUP2 MLOAD SWAP1 POP PUSH3 0x274 DUP2 PUSH3 0x46D JUMP JUMPDEST SWAP3 SWAP2 POP POP JUMP JUMPDEST PUSH1 0x0 PUSH1 0x20 DUP3 DUP5 SUB SLT ISZERO PUSH3 0x293 JUMPI PUSH3 0x292 PUSH3 0x457 JUMP JUMPDEST JUMPDEST PUSH1 0x0 DUP3 ADD MLOAD PUSH8 0xFFFFFFFFFFFFFFFF DUP2 GT ISZERO PUSH3 0x2B4 JUMPI PUSH3 0x2B3 PUSH3 0x452 JUMP JUMPDEST JUMPDEST PUSH3 0x2C2 DUP5 DUP3 DUP6 ADD PUSH3 0x230 JUMP JUMPDEST SWAP2 POP POP SWAP3 SWAP2 POP POP JUMP JUMPDEST PUSH1 0x0 PUSH3 0x2D7 PUSH3 0x2EA JUMP JUMPDEST SWAP1 POP PUSH3 0x2E5 DUP3 DUP3 PUSH3 0x337 JUMP JUMPDEST SWAP2 SWAP1 POP JUMP JUMPDEST PUSH1 0x0 PUSH1 0x40 MLOAD SWAP1 POP SWAP1 JUMP JUMPDEST PUSH1 0x0 PUSH8 0xFFFFFFFFFFFFFFFF DUP3 GT ISZERO PUSH3 0x312 JUMPI PUSH3 0x311 PUSH3 0x419 JUMP JUMPDEST JUMPDEST PUSH1 0x20 DUP3 MUL SWAP1 POP PUSH1 0x20 DUP2 ADD SWAP1 POP SWAP2 SWAP1 POP JUMP JUMPDEST PUSH1 0x0 DUP2 SWAP1 POP SWAP2 SWAP1 POP JUMP JUMPDEST PUSH1 0x0 DUP2 SWAP1 POP SWAP2 SWAP1 POP JUMP JUMPDEST PUSH3 0x342 DUP3 PUSH3 0x45C JUMP JUMPDEST DUP2 ADD DUP2 DUP2 LT PUSH8 0xFFFFFFFFFFFFFFFF DUP3 GT OR ISZERO PUSH3 0x364 JUMPI PUSH3 0x363 PUSH3 0x419 JUMP JUMPDEST JUMPDEST DUP1 PUSH1 0x40 MSTORE POP POP POP JUMP JUMPDEST PUSH1 0x0 PUSH3 0x37A DUP3 PUSH3 0x32D JUMP JUMPDEST SWAP2 POP PUSH32 0xFFFFFFFFFFFFFFFFFFFFFFFFFFFFFFFFFFFFFFFFFFFFFFFFFFFFFFFFFFFFFFFF DUP3 EQ ISZERO PUSH3 0x3B0 JUMPI PUSH3 0x3AF PUSH3 0x3BB JUMP JUMPDEST JUMPDEST PUSH1 0x1 DUP3 ADD SWAP1 POP SWAP2 SWAP1 POP JUMP JUMPDEST PUSH32 0x4E487B7100000000000000000000000000000000000000000000000000000000 PUSH1 0x0 MSTORE PUSH1 0x11 PUSH1 0x4 MSTORE PUSH1 0x24 PUSH1 0x0 REVERT JUMPDEST PUSH32 0x4E487B7100000000000000000000000000000000000000000000000000000000 PUSH1 0x0 MSTORE PUSH1 0x32 PUSH1 0x4 MSTORE PUSH1 0x24 PUSH1 0x0 REVERT JUMPDEST PUSH32 0x4E487B7100000000000000000000000000000000000000000000000000000000 PUSH1 0x0 MSTORE PUSH1 0x41 PUSH1 0x4 MSTORE PUSH1 0x24 PUSH1 0x0 REVERT JUMPDEST PUSH1 0x0 DUP1 REVERT JUMPDEST PUSH1 0x0 DUP1 REVERT JUMPDEST PUSH1 0x0 DUP1 REVERT JUMPDEST PUSH1 0x0 DUP1 REVERT JUMPDEST PUSH1 0x0 PUSH1 0x1F NOT PUSH1 0x1F DUP4 ADD AND SWAP1 POP SWAP2 SWAP1 POP JUMP JUMPDEST PUSH3 0x478 DUP2 PUSH3 0x323 JUMP JUMPDEST DUP2 EQ PUSH3 0x484 JUMPI PUSH1 0x0 DUP1 REVERT JUMPDEST POP JUMP JUMPDEST PUSH2 0x10BD DUP1 PUSH3 0x497 PUSH1 0x0 CODECOPY PUSH1 0x0 RETURN INVALID PUSH1 0x80 PUSH1 0x40 MSTORE CALLVALUE DUP1 ISZERO PUSH2 0x10 JUMPI PUSH1 0x0 DUP1 REVERT JUMPDEST POP PUSH1 0x4 CALLDATASIZE LT PUSH2 0x88 JUMPI PUSH1 0x0 CALLDATALOAD PUSH1 0xE0 SHR DUP1 PUSH4 0x9E7B8D61 GT PUSH2 0x5B JUMPI DUP1 PUSH4 0x9E7B8D61 EQ PUSH2 0x118 JUMPI DUP1 PUSH4 0xB61BFE5B EQ PUSH2 0x134 JUMPI DUP1 PUSH4 0xB81C6453 EQ PUSH2 0x152 JUMPI DUP1 PUSH4 0xE2BA53F0 EQ PUSH2 0x16E JUMPI PUSH2 0x88 JUMP JUMPDEST DUP1 PUSH4 0x13CF08B EQ PUSH2 0x8D JUMPI DUP1 PUSH4 0x2495C0CE EQ PUSH2 0xBE JUMPI DUP1 PUSH4 0x72133C96 EQ PUSH2 0xDC JUMPI DUP1 PUSH4 0x87F7B975 EQ PUSH2 0xFA JUMPI JUMPDEST PUSH1 0x0 DUP1 REVERT JUMPDEST PUSH2 0xA7 PUSH1 0x4 DUP1 CALLDATASIZE SUB DUP2 ADD SWAP1 PUSH2 0xA2 SWAP2 SWAP1 PUSH2 0xA40 JUMP JUMPDEST PUSH2 0x18C JUMP JUMPDEST PUSH1 0x40 MLOAD PUSH2 0xB5 SWAP3 SWAP2 SWAP1 PUSH2 0xC2F JUMP JUMPDEST PUSH1 0x40 MLOAD DUP1 SWAP2 SUB SWAP1 RETURN JUMPDEST PUSH2 0xC6 PUSH2 0x1C0 JUMP JUMPDEST PUSH1 0x40 MLOAD PUSH2 0xD3 SWAP2 SWAP1 PUSH2 0xC14 JUMP JUMPDEST PUSH1 0x40 MLOAD DUP1 SWAP2 SUB SWAP1 RETURN JUMPDEST PUSH2 0xE4 PUSH2 0x2D0 JUMP JUMPDEST PUSH1 0x40 MLOAD PUSH2 0xF1 SWAP2 SWAP1 PUSH2 0xC14 JUMP JUMPDEST PUSH1 0x40 MLOAD DUP1 SWAP2 SUB SWAP1 RETURN JUMPDEST PUSH2 0x102 PUSH2 0x3DA JUMP JUMPDEST PUSH1 0x40 MLOAD PUSH2 0x10F SWAP2 SWAP1 PUSH2 0xBDE JUMP JUMPDEST PUSH1 0x40 MLOAD DUP1 SWAP2 SUB SWAP1 RETURN JUMPDEST PUSH2 0x132 PUSH1 0x4 DUP1 CALLDATASIZE SUB DUP2 ADD SWAP1 PUSH2 0x12D SWAP2 SWAP1 PUSH2 0xA13 JUMP JUMPDEST PUSH2 0x400 JUMP JUMPDEST STOP JUMPDEST PUSH2 0x13C PUSH2 0x677 JUMP JUMPDEST PUSH1 0x40 MLOAD PUSH2 0x149 SWAP2 SWAP1 PUSH2 0xBF9 JUMP JUMPDEST PUSH1 0x40 MLOAD DUP1 SWAP2 SUB SWAP1 RETURN JUMPDEST PUSH2 0x16C PUSH1 0x4 DUP1 CALLDATASIZE SUB DUP2 ADD SWAP1 PUSH2 0x167 SWAP2 SWAP1 PUSH2 0xA6D JUMP JUMPDEST PUSH2 0x68A JUMP JUMPDEST STOP JUMPDEST PUSH2 0x176 PUSH2 0x975 JUMP JUMPDEST PUSH1 0x40 MLOAD PUSH2 0x183 SWAP2 SWAP1 PUSH2 0xC14 JUMP JUMPDEST PUSH1 0x40 MLOAD DUP1 SWAP2 SUB SWAP1 RETURN JUMPDEST PUSH1 0x1 DUP2 DUP2 SLOAD DUP2 LT PUSH2 0x19C JUMPI PUSH1 0x0 DUP1 REVERT JUMPDEST SWAP1 PUSH1 0x0 MSTORE PUSH1 0x20 PUSH1 0x0 KECCAK256 SWAP1 PUSH1 0x2 MUL ADD PUSH1 0x0 SWAP2 POP SWAP1 POP DUP1 PUSH1 0x0 ADD SLOAD SWAP1 DUP1 PUSH1 0x1 ADD SLOAD SWAP1 POP DUP3 JUMP JUMPDEST PUSH1 0x0 CALLER PUSH20 0xFFFFFFFFFFFFFFFFFFFFFFFFFFFFFFFFFFFFFFFF AND PUSH1 0x2 PUSH1 0x0 SWAP1 SLOAD SWAP1 PUSH2 0x100 EXP SWAP1 DIV PUSH20 0xFFFFFFFFFFFFFFFFFFFFFFFFFFFFFFFFFFFFFFFF AND PUSH20 0xFFFFFFFFFFFFFFFFFFFFFFFFFFFFFFFFFFFFFFFF AND EQ PUSH2 0x252 JUMPI PUSH1 0x40 MLOAD PUSH32 0x8C379A000000000000000000000000000000000000000000000000000000000 DUP2 MSTORE PUSH1 0x4 ADD PUSH2 0x249 SWAP1 PUSH2 0xCD8 JUMP JUMPDEST PUSH1 0x40 MLOAD DUP1 SWAP2 SUB SWAP1 REVERT JUMPDEST PUSH1 0x0 ISZERO ISZERO PUSH1 0x2 PUSH1 0x14 SWAP1 SLOAD SWAP1 PUSH2 0x100 EXP SWAP1 DIV PUSH1 0xFF AND ISZERO ISZERO EQ PUSH2 0x2A8 JUMPI PUSH1 0x40 MLOAD PUSH32 0x8C379A000000000000000000000000000000000000000000000000000000000 DUP2 MSTORE PUSH1 0x4 ADD PUSH2 0x29F SWAP1 PUSH2 0xC58 JUMP JUMPDEST PUSH1 0x40 MLOAD DUP1 SWAP2 SUB SWAP1 REVERT JUMPDEST PUSH1 0x0 PUSH1 0x2 PUSH1 0x14 PUSH2 0x100 EXP DUP2 SLOAD DUP2 PUSH1 0xFF MUL NOT AND SWAP1 DUP4 ISZERO ISZERO MUL OR SWAP1 SSTORE POP PUSH2 0x2CB PUSH2 0x2D0 JUMP JUMPDEST SWAP1 POP SWAP1 JUMP JUMPDEST PUSH1 0x0 DUP1 ISZERO ISZERO PUSH1 0x2 PUSH1 0x14 SWAP1 SLOAD SWAP1 PUSH2 0x100 EXP SWAP1 DIV PUSH1 0xFF AND ISZERO ISZERO EQ PUSH2 0x327 JUMPI PUSH1 0x40 MLOAD PUSH32 0x8C379A000000000000000000000000000000000000000000000000000000000 DUP2 MSTORE PUSH1 0x4 ADD PUSH2 0x31E SWAP1 PUSH2 0xC58 JUMP JUMPDEST PUSH1 0x40 MLOAD DUP1 SWAP2 SUB SWAP1 REVERT JUMPDEST PUSH1 0x0 DUP1 JUMPDEST PUSH1 0x1 DUP1 SLOAD SWAP1 POP DUP2 PUSH1 0xFF AND LT ISZERO PUSH2 0x3D5 JUMPI DUP2 PUSH1 0x1 DUP3 PUSH1 0xFF AND DUP2 SLOAD DUP2 LT PUSH2 0x353 JUMPI PUSH2 0x352 PUSH2 0xE57 JUMP JUMPDEST JUMPDEST SWAP1 PUSH1 0x0 MSTORE PUSH1 0x20 PUSH1 0x0 KECCAK256 SWAP1 PUSH1 0x2 MUL ADD PUSH1 0x1 ADD SLOAD GT ISZERO PUSH2 0x3C2 JUMPI PUSH1 0x1 DUP2 PUSH1 0xFF AND DUP2 SLOAD DUP2 LT PUSH2 0x382 JUMPI PUSH2 0x381 PUSH2 0xE57 JUMP JUMPDEST JUMPDEST SWAP1 PUSH1 0x0 MSTORE PUSH1 0x20 PUSH1 0x0 KECCAK256 SWAP1 PUSH1 0x2 MUL ADD PUSH1 0x0 ADD SLOAD SWAP3 POP PUSH1 0x1 DUP2 PUSH1 0xFF AND DUP2 SLOAD DUP2 LT PUSH2 0x3AD JUMPI PUSH2 0x3AC PUSH2 0xE57 JUMP JUMPDEST JUMPDEST SWAP1 PUSH1 0x0 MSTORE PUSH1 0x20 PUSH1 0x0 KECCAK256 SWAP1 PUSH1 0x2 MUL ADD PUSH1 0x1 ADD SLOAD SWAP2 POP JUMPDEST DUP1 DUP1 PUSH2 0x3CD SWAP1 PUSH2 0xDFE JUMP JUMPDEST SWAP2 POP POP PUSH2 0x32B JUMP JUMPDEST POP POP SWAP1 JUMP JUMPDEST PUSH1 0x2 PUSH1 0x0 SWAP1 SLOAD SWAP1 PUSH2 0x100 EXP SWAP1 DIV PUSH20 0xFFFFFFFFFFFFFFFFFFFFFFFFFFFFFFFFFFFFFFFF AND DUP2 JUMP JUMPDEST CALLER PUSH20 0xFFFFFFFFFFFFFFFFFFFFFFFFFFFFFFFFFFFFFFFF AND PUSH1 0x2 PUSH1 0x0 SWAP1 SLOAD SWAP1 PUSH2 0x100 EXP SWAP1 DIV PUSH20 0xFFFFFFFFFFFFFFFFFFFFFFFFFFFFFFFFFFFFFFFF AND PUSH20 0xFFFFFFFFFFFFFFFFFFFFFFFFFFFFFFFFFFFFFFFF AND EQ PUSH2 0x490 JUMPI PUSH1 0x40 MLOAD PUSH32 0x8C379A000000000000000000000000000000000000000000000000000000000 DUP2 MSTORE PUSH1 0x4 ADD PUSH2 0x487 SWAP1 PUSH2 0xCD8 JUMP JUMPDEST PUSH1 0x40 MLOAD DUP1 SWAP2 SUB SWAP1 REVERT JUMPDEST PUSH1 0x0 ISZERO ISZERO PUSH1 0x2 PUSH1 0x14 SWAP1 SLOAD SWAP1 PUSH2 0x100 EXP SWAP1 DIV PUSH1 0xFF AND ISZERO ISZERO EQ PUSH2 0x4E6 JUMPI PUSH1 0x40 MLOAD PUSH32 0x8C379A000000000000000000000000000000000000000000000000000000000 DUP2 MSTORE PUSH1 0x4 ADD PUSH2 0x4DD SWAP1 PUSH2 0xC58 JUMP JUMPDEST PUSH1 0x40 MLOAD DUP1 SWAP2 SUB SWAP1 REVERT JUMPDEST DUP1 PUSH1 0x0 DUP1 DUP3 PUSH20 0xFFFFFFFFFFFFFFFFFFFFFFFFFFFFFFFFFFFFFFFF AND PUSH20 0xFFFFFFFFFFFFFFFFFFFFFFFFFFFFFFFFFFFFFFFF AND DUP2 MSTORE PUSH1 0x20 ADD SWAP1 DUP2 MSTORE PUSH1 0x20 ADD PUSH1 0x0 KECCAK256 PUSH1 0x0 ADD PUSH1 0x0 SWAP1 SLOAD SWAP1 PUSH2 0x100 EXP SWAP1 DIV PUSH1 0xFF AND ISZERO PUSH2 0x576 JUMPI PUSH1 0x40 MLOAD PUSH32 0x8C379A000000000000000000000000000000000000000000000000000000000 DUP2 MSTORE PUSH1 0x4 ADD PUSH2 0x56D SWAP1 PUSH2 0xD18 JUMP JUMPDEST PUSH1 0x40 MLOAD DUP1 SWAP2 SUB SWAP1 REVERT JUMPDEST DUP2 PUSH1 0x0 DUP1 PUSH1 0x0 DUP4 PUSH20 0xFFFFFFFFFFFFFFFFFFFFFFFFFFFFFFFFFFFFFFFF AND PUSH20 0xFFFFFFFFFFFFFFFFFFFFFFFFFFFFFFFFFFFFFFFF AND DUP2 MSTORE PUSH1 0x20 ADD SWAP1 DUP2 MSTORE PUSH1 0x20 ADD PUSH1 0x0 KECCAK256 PUSH1 0x0 ADD PUSH1 0x2 SWAP1 SLOAD SWAP1 PUSH2 0x100 EXP SWAP1 DIV PUSH4 0xFFFFFFFF AND PUSH4 0xFFFFFFFF AND EQ PUSH2 0x611 JUMPI PUSH1 0x40 MLOAD PUSH32 0x8C379A000000000000000000000000000000000000000000000000000000000 DUP2 MSTORE PUSH1 0x4 ADD PUSH2 0x608 SWAP1 PUSH2 0xC78 JUMP JUMPDEST PUSH1 0x40 MLOAD DUP1 SWAP2 SUB SWAP1 REVERT JUMPDEST PUSH1 0x1 PUSH1 0x0 DUP1 DUP6 PUSH20 0xFFFFFFFFFFFFFFFFFFFFFFFFFFFFFFFFFFFFFFFF AND PUSH20 0xFFFFFFFFFFFFFFFFFFFFFFFFFFFFFFFFFFFFFFFF AND DUP2 MSTORE PUSH1 0x20 ADD SWAP1 DUP2 MSTORE PUSH1 0x20 ADD PUSH1 0x0 KECCAK256 PUSH1 0x0 ADD PUSH1 0x2 PUSH2 0x100 EXP DUP2 SLOAD DUP2 PUSH4 0xFFFFFFFF MUL NOT AND SWAP1 DUP4 PUSH4 0xFFFFFFFF AND MUL OR SWAP1 SSTORE POP POP POP POP JUMP JUMPDEST PUSH1 0x2 PUSH1 0x14 SWAP1 SLOAD SWAP1 PUSH2 0x100 EXP SWAP1 DIV PUSH1 0xFF AND DUP2 JUMP JUMPDEST PUSH1 0x0 ISZERO ISZERO PUSH1 0x2 PUSH1 0x14 SWAP1 SLOAD SWAP1 PUSH2 0x100 EXP SWAP1 DIV PUSH1 0xFF AND ISZERO ISZERO EQ PUSH2 0x6E0 JUMPI PUSH1 0x40 MLOAD PUSH32 0x8C379A000000000000000000000000000000000000000000000000000000000 DUP2 MSTORE PUSH1 0x4 ADD PUSH2 0x6D7 SWAP1 PUSH2 0xC58 JUMP JUMPDEST PUSH1 0x40 MLOAD DUP1 SWAP2 SUB SWAP1 REVERT JUMPDEST DUP1 CALLER PUSH20 0xFFFFFFFFFFFFFFFFFFFFFFFFFFFFFFFFFFFFFFFF AND DUP2 PUSH20 0xFFFFFFFFFFFFFFFFFFFFFFFFFFFFFFFFFFFFFFFF AND EQ PUSH2 0x74F JUMPI PUSH1 0x40 MLOAD PUSH32 0x8C379A000000000000000000000000000000000000000000000000000000000 DUP2 MSTORE PUSH1 0x4 ADD PUSH2 0x746 SWAP1 PUSH2 0xCF8 JUMP JUMPDEST PUSH1 0x40 MLOAD DUP1 SWAP2 SUB SWAP1 REVERT JUMPDEST DUP2 PUSH1 0x0 DUP1 PUSH1 0x0 DUP4 PUSH20 0xFFFFFFFFFFFFFFFFFFFFFFFFFFFFFFFFFFFFFFFF AND PUSH20 0xFFFFFFFFFFFFFFFFFFFFFFFFFFFFFFFFFFFFFFFF AND DUP2 MSTORE PUSH1 0x20 ADD SWAP1 DUP2 MSTORE PUSH1 0x20 ADD PUSH1 0x0 KECCAK256 PUSH1 0x0 ADD PUSH1 0x2 SWAP1 SLOAD SWAP1 PUSH2 0x100 EXP SWAP1 DIV PUSH4 0xFFFFFFFF AND PUSH4 0xFFFFFFFF AND EQ ISZERO PUSH2 0x7EB JUMPI PUSH1 0x40 MLOAD PUSH32 0x8C379A000000000000000000000000000000000000000000000000000000000 DUP2 MSTORE PUSH1 0x4 ADD PUSH2 0x7E2 SWAP1 PUSH2 0xCB8 JUMP JUMPDEST PUSH1 0x40 MLOAD DUP1 SWAP2 SUB SWAP1 REVERT JUMPDEST DUP3 PUSH1 0x0 DUP1 DUP3 PUSH20 0xFFFFFFFFFFFFFFFFFFFFFFFFFFFFFFFFFFFFFFFF AND PUSH20 0xFFFFFFFFFFFFFFFFFFFFFFFFFFFFFFFFFFFFFFFF AND DUP2 MSTORE PUSH1 0x20 ADD SWAP1 DUP2 MSTORE PUSH1 0x20 ADD PUSH1 0x0 KECCAK256 PUSH1 0x0 ADD PUSH1 0x0 SWAP1 SLOAD SWAP1 PUSH2 0x100 EXP SWAP1 DIV PUSH1 0xFF AND ISZERO PUSH2 0x87B JUMPI PUSH1 0x40 MLOAD PUSH32 0x8C379A000000000000000000000000000000000000000000000000000000000 DUP2 MSTORE PUSH1 0x4 ADD PUSH2 0x872 SWAP1 PUSH2 0xD18 JUMP JUMPDEST PUSH1 0x40 MLOAD DUP1 SWAP2 SUB SWAP1 REVERT JUMPDEST PUSH1 0x1 PUSH1 0x0 DUP1 DUP7 PUSH20 0xFFFFFFFFFFFFFFFFFFFFFFFFFFFFFFFFFFFFFFFF AND PUSH20 0xFFFFFFFFFFFFFFFFFFFFFFFFFFFFFFFFFFFFFFFF AND DUP2 MSTORE PUSH1 0x20 ADD SWAP1 DUP2 MSTORE PUSH1 0x20 ADD PUSH1 0x0 KECCAK256 PUSH1 0x0 ADD PUSH1 0x0 PUSH2 0x100 EXP DUP2 SLOAD DUP2 PUSH1 0xFF MUL NOT AND SWAP1 DUP4 ISZERO ISZERO MUL OR SWAP1 SSTORE POP DUP5 PUSH1 0x0 DUP1 DUP7 PUSH20 0xFFFFFFFFFFFFFFFFFFFFFFFFFFFFFFFFFFFFFFFF AND PUSH20 0xFFFFFFFFFFFFFFFFFFFFFFFFFFFFFFFFFFFFFFFF AND DUP2 MSTORE PUSH1 0x20 ADD SWAP1 DUP2 MSTORE PUSH1 0x20 ADD PUSH1 0x0 KECCAK256 PUSH1 0x0 ADD PUSH1 0x1 PUSH2 0x100 EXP DUP2 SLOAD DUP2 PUSH1 0xFF MUL NOT AND SWAP1 DUP4 PUSH1 0xFF AND MUL OR SWAP1 SSTORE POP PUSH1 0x1 DUP1 DUP7 PUSH1 0xFF AND DUP2 SLOAD DUP2 LT PUSH2 0x947 JUMPI PUSH2 0x946 PUSH2 0xE57 JUMP JUMPDEST JUMPDEST SWAP1 PUSH1 0x0 MSTORE PUSH1 0x20 PUSH1 0x0 KECCAK256 SWAP1 PUSH1 0x2 MUL ADD PUSH1 0x1 ADD PUSH1 0x0 DUP3 DUP3 SLOAD PUSH2 0x967 SWAP2 SWAP1 PUSH2 0xD49 JUMP JUMPDEST SWAP3 POP POP DUP2 SWAP1 SSTORE POP POP POP POP POP POP JUMP JUMPDEST PUSH1 0x0 PUSH1 0x2 PUSH1 0x14 SWAP1 SLOAD SWAP1 PUSH2 0x100 EXP SWAP1 DIV PUSH1 0xFF AND ISZERO PUSH2 0x9C7 JUMPI PUSH1 0x40 MLOAD PUSH32 0x8C379A000000000000000000000000000000000000000000000000000000000 DUP2 MSTORE PUSH1 0x4 ADD PUSH2 0x9BE SWAP1 PUSH2 0xC98 JUMP JUMPDEST PUSH1 0x40 MLOAD DUP1 SWAP2 SUB SWAP1 REVERT JUMPDEST PUSH2 0x9CF PUSH2 0x2D0 JUMP JUMPDEST SWAP1 POP SWAP1 JUMP JUMPDEST PUSH1 0x0 DUP2 CALLDATALOAD SWAP1 POP PUSH2 0x9E3 DUP2 PUSH2 0x1042 JUMP JUMPDEST SWAP3 SWAP2 POP POP JUMP JUMPDEST PUSH1 0x0 DUP2 CALLDATALOAD SWAP1 POP PUSH2 0x9F8 DUP2 PUSH2 0x1059 JUMP JUMPDEST SWAP3 SWAP2 POP POP JUMP JUMPDEST PUSH1 0x0 DUP2 CALLDATALOAD SWAP1 POP PUSH2 0xA0D DUP2 PUSH2 0x1070 JUMP JUMPDEST SWAP3 SWAP2 POP POP JUMP JUMPDEST PUSH1 0x0 PUSH1 0x20 DUP3 DUP5 SUB SLT ISZERO PUSH2 0xA29 JUMPI PUSH2 0xA28 PUSH2 0xE86 JUMP JUMPDEST JUMPDEST PUSH1 0x0 PUSH2 0xA37 DUP5 DUP3 DUP6 ADD PUSH2 0x9D4 JUMP JUMPDEST SWAP2 POP POP SWAP3 SWAP2 POP POP JUMP JUMPDEST PUSH1 0x0 PUSH1 0x20 DUP3 DUP5 SUB SLT ISZERO PUSH2 0xA56 JUMPI PUSH2 0xA55 PUSH2 0xE86 JUMP JUMPDEST JUMPDEST PUSH1 0x0 PUSH2 0xA64 DUP5 DUP3 DUP6 ADD PUSH2 0x9E9 JUMP JUMPDEST SWAP2 POP POP SWAP3 SWAP2 POP POP JUMP JUMPDEST PUSH1 0x0 DUP1 PUSH1 0x40 DUP4 DUP6 SUB SLT ISZERO PUSH2 0xA84 JUMPI PUSH2 0xA83 PUSH2 0xE86 JUMP JUMPDEST JUMPDEST PUSH1 0x0 PUSH2 0xA92 DUP6 DUP3 DUP7 ADD PUSH2 0x9FE JUMP JUMPDEST SWAP3 POP POP PUSH1 0x20 PUSH2 0xAA3 DUP6 DUP3 DUP7 ADD PUSH2 0x9D4 JUMP JUMPDEST SWAP2 POP POP SWAP3 POP SWAP3 SWAP1 POP JUMP JUMPDEST PUSH2 0xAB6 DUP2 PUSH2 0xD9F JUMP JUMPDEST DUP3 MSTORE POP POP JUMP JUMPDEST PUSH2 0xAC5 DUP2 PUSH2 0xDB1 JUMP JUMPDEST DUP3 MSTORE POP POP JUMP JUMPDEST PUSH2 0xAD4 DUP2 PUSH2 0xDBD JUMP JUMPDEST DUP3 MSTORE POP POP JUMP JUMPDEST PUSH1 0x0 PUSH2 0xAE7 PUSH1 0x11 DUP4 PUSH2 0xD38 JUMP JUMPDEST SWAP2 POP PUSH2 0xAF2 DUP3 PUSH2 0xE8B JUMP JUMPDEST PUSH1 0x20 DUP3 ADD SWAP1 POP SWAP2 SWAP1 POP JUMP JUMPDEST PUSH1 0x0 PUSH2 0xB0A PUSH1 0x21 DUP4 PUSH2 0xD38 JUMP JUMPDEST SWAP2 POP PUSH2 0xB15 DUP3 PUSH2 0xEB4 JUMP JUMPDEST PUSH1 0x40 DUP3 ADD SWAP1 POP SWAP2 SWAP1 POP JUMP JUMPDEST PUSH1 0x0 PUSH2 0xB2D PUSH1 0x18 DUP4 PUSH2 0xD38 JUMP JUMPDEST SWAP2 POP PUSH2 0xB38 DUP3 PUSH2 0xF03 JUMP JUMPDEST PUSH1 0x20 DUP3 ADD SWAP1 POP SWAP2 SWAP1 POP JUMP JUMPDEST PUSH1 0x0 PUSH2 0xB50 PUSH1 0x21 DUP4 PUSH2 0xD38 JUMP JUMPDEST SWAP2 POP PUSH2 0xB5B DUP3 PUSH2 0xF2C JUMP JUMPDEST PUSH1 0x40 DUP3 ADD SWAP1 POP SWAP2 SWAP1 POP JUMP JUMPDEST PUSH1 0x0 PUSH2 0xB73 PUSH1 0x2B DUP4 PUSH2 0xD38 JUMP JUMPDEST SWAP2 POP PUSH2 0xB7E DUP3 PUSH2 0xF7B JUMP JUMPDEST PUSH1 0x40 DUP3 ADD SWAP1 POP SWAP2 SWAP1 POP JUMP JUMPDEST PUSH1 0x0 PUSH2 0xB96 PUSH1 0x2E DUP4 PUSH2 0xD38 JUMP JUMPDEST SWAP2 POP PUSH2 0xBA1 DUP3 PUSH2 0xFCA JUMP JUMPDEST PUSH1 0x40 DUP3 ADD SWAP1 POP SWAP2 SWAP1 POP JUMP JUMPDEST PUSH1 0x0 PUSH2 0xBB9 PUSH1 0x18 DUP4 PUSH2 0xD38 JUMP JUMPDEST SWAP2 POP PUSH2 0xBC4 DUP3 PUSH2 0x1019 JUMP JUMPDEST PUSH1 0x20 DUP3 ADD SWAP1 POP SWAP2 SWAP1 POP JUMP JUMPDEST PUSH2 0xBD8 DUP2 PUSH2 0xDE7 JUMP JUMPDEST DUP3 MSTORE POP POP JUMP JUMPDEST PUSH1 0x0 PUSH1 0x20 DUP3 ADD SWAP1 POP PUSH2 0xBF3 PUSH1 0x0 DUP4 ADD DUP5 PUSH2 0xAAD JUMP JUMPDEST SWAP3 SWAP2 POP POP JUMP JUMPDEST PUSH1 0x0 PUSH1 0x20 DUP3 ADD SWAP1 POP PUSH2 0xC0E PUSH1 0x0 DUP4 ADD DUP5 PUSH2 0xABC JUMP JUMPDEST SWAP3 SWAP2 POP POP JUMP JUMPDEST PUSH1 0x0 PUSH1 0x20 DUP3 ADD SWAP1 POP PUSH2 0xC29 PUSH1 0x0 DUP4 ADD DUP5 PUSH2 0xACB JUMP JUMPDEST SWAP3 SWAP2 POP POP JUMP JUMPDEST PUSH1 0x0 PUSH1 0x40 DUP3 ADD SWAP1 POP PUSH2 0xC44 PUSH1 0x0 DUP4 ADD DUP6 PUSH2 0xACB JUMP JUMPDEST PUSH2 0xC51 PUSH1 0x20 DUP4 ADD DUP5 PUSH2 0xBCF JUMP JUMPDEST SWAP4 SWAP3 POP POP POP JUMP JUMPDEST PUSH1 0x0 PUSH1 0x20 DUP3 ADD SWAP1 POP DUP2 DUP2 SUB PUSH1 0x0 DUP4 ADD MSTORE PUSH2 0xC71 DUP2 PUSH2 0xADA JUMP JUMPDEST SWAP1 POP SWAP2 SWAP1 POP JUMP JUMPDEST PUSH1 0x0 PUSH1 0x20 DUP3 ADD SWAP1 POP DUP2 DUP2 SUB PUSH1 0x0 DUP4 ADD MSTORE PUSH2 0xC91 DUP2 PUSH2 0xAFD JUMP JUMPDEST SWAP1 POP SWAP2 SWAP1 POP JUMP JUMPDEST PUSH1 0x0 PUSH1 0x20 DUP3 ADD SWAP1 POP DUP2 DUP2 SUB PUSH1 0x0 DUP4 ADD MSTORE PUSH2 0xCB1 DUP2 PUSH2 0xB20 JUMP JUMPDEST SWAP1 POP SWAP2 SWAP1 POP JUMP JUMPDEST PUSH1 0x0 PUSH1 0x20 DUP3 ADD SWAP1 POP DUP2 DUP2 SUB PUSH1 0x0 DUP4 ADD MSTORE PUSH2 0xCD1 DUP2 PUSH2 0xB43 JUMP JUMPDEST SWAP1 POP SWAP2 SWAP1 POP JUMP JUMPDEST PUSH1 0x0 PUSH1 0x20 DUP3 ADD SWAP1 POP DUP2 DUP2 SUB PUSH1 0x0 DUP4 ADD MSTORE PUSH2 0xCF1 DUP2 PUSH2 0xB66 JUMP JUMPDEST SWAP1 POP SWAP2 SWAP1 POP JUMP JUMPDEST PUSH1 0x0 PUSH1 0x20 DUP3 ADD SWAP1 POP DUP2 DUP2 SUB PUSH1 0x0 DUP4 ADD MSTORE PUSH2 0xD11 DUP2 PUSH2 0xB89 JUMP JUMPDEST SWAP1 POP SWAP2 SWAP1 POP JUMP JUMPDEST PUSH1 0x0 PUSH1 0x20 DUP3 ADD SWAP1 POP DUP2 DUP2 SUB PUSH1 0x0 DUP4 ADD MSTORE PUSH2 0xD31 DUP2 PUSH2 0xBAC JUMP JUMPDEST SWAP1 POP SWAP2 SWAP1 POP JUMP JUMPDEST PUSH1 0x0 DUP3 DUP3 MSTORE PUSH1 0x20 DUP3 ADD SWAP1 POP SWAP3 SWAP2 POP POP JUMP JUMPDEST PUSH1 0x0 PUSH2 0xD54 DUP3 PUSH2 0xDE7 JUMP JUMPDEST SWAP2 POP PUSH2 0xD5F DUP4 PUSH2 0xDE7 JUMP JUMPDEST SWAP3 POP DUP3 PUSH32 0xFFFFFFFFFFFFFFFFFFFFFFFFFFFFFFFFFFFFFFFFFFFFFFFFFFFFFFFFFFFFFFFF SUB DUP3 GT ISZERO PUSH2 0xD94 JUMPI PUSH2 0xD93 PUSH2 0xE28 JUMP JUMPDEST JUMPDEST DUP3 DUP3 ADD SWAP1 POP SWAP3 SWAP2 POP POP JUMP JUMPDEST PUSH1 0x0 PUSH2 0xDAA DUP3 PUSH2 0xDC7 JUMP JUMPDEST SWAP1 POP SWAP2 SWAP1 POP JUMP JUMPDEST PUSH1 0x0 DUP2 ISZERO ISZERO SWAP1 POP SWAP2 SWAP1 POP JUMP JUMPDEST PUSH1 0x0 DUP2 SWAP1 POP SWAP2 SWAP1 POP JUMP JUMPDEST PUSH1 0x0 PUSH20 0xFFFFFFFFFFFFFFFFFFFFFFFFFFFFFFFFFFFFFFFF DUP3 AND SWAP1 POP SWAP2 SWAP1 POP JUMP JUMPDEST PUSH1 0x0 DUP2 SWAP1 POP SWAP2 SWAP1 POP JUMP JUMPDEST PUSH1 0x0 PUSH1 0xFF DUP3 AND SWAP1 POP SWAP2 SWAP1 POP JUMP JUMPDEST PUSH1 0x0 PUSH2 0xE09 DUP3 PUSH2 0xDF1 JUMP JUMPDEST SWAP2 POP PUSH1 0xFF DUP3 EQ ISZERO PUSH2 0xE1D JUMPI PUSH2 0xE1C PUSH2 0xE28 JUMP JUMPDEST JUMPDEST PUSH1 0x1 DUP3 ADD SWAP1 POP SWAP2 SWAP1 POP JUMP JUMPDEST PUSH32 0x4E487B7100000000000000000000000000000000000000000000000000000000 PUSH1 0x0 MSTORE PUSH1 0x11 PUSH1 0x4 MSTORE PUSH1 0x24 PUSH1 0x0 REVERT JUMPDEST PUSH32 0x4E487B7100000000000000000000000000000000000000000000000000000000 PUSH1 0x0 MSTORE PUSH1 0x32 PUSH1 0x4 MSTORE PUSH1 0x24 PUSH1 0x0 REVERT JUMPDEST PUSH1 0x0 DUP1 REVERT JUMPDEST PUSH32 0x566F7465732061726520636C6F7365642E000000000000000000000000000000 PUSH1 0x0 DUP3 ADD MSTORE POP JUMP JUMPDEST PUSH32 0x596F75206861766520616C7265616479206120726967687420746F20766F7465 PUSH1 0x0 DUP3 ADD MSTORE PUSH32 0x2E00000000000000000000000000000000000000000000000000000000000000 PUSH1 0x20 DUP3 ADD MSTORE POP JUMP JUMPDEST PUSH32 0x566F74657320617265206E6F742079657420636C6F7365640000000000000000 PUSH1 0x0 DUP3 ADD MSTORE POP JUMP JUMPDEST PUSH32 0x596F7520646F6E277420686176652074686520726967687420746F20766F7465 PUSH1 0x0 DUP3 ADD MSTORE PUSH32 0x2E00000000000000000000000000000000000000000000000000000000000000 PUSH1 0x20 DUP3 ADD MSTORE POP JUMP JUMPDEST PUSH32 0x4F6E6C79206368616972706572736F6E2063616E206578656375746520746869 PUSH1 0x0 DUP3 ADD MSTORE PUSH32 0x732066756E6374696F6E2E000000000000000000000000000000000000000000 PUSH1 0x20 DUP3 ADD MSTORE POP JUMP JUMPDEST PUSH32 0x596F7520617265206E6F7420616C6C6F77656420746F20766F74652077697468 PUSH1 0x0 DUP3 ADD MSTORE PUSH32 0x207468697320616464726573732E000000000000000000000000000000000000 PUSH1 0x20 DUP3 ADD MSTORE POP JUMP JUMPDEST PUSH32 0x54686520766F74657220616C726561647920766F7465642E0000000000000000 PUSH1 0x0 DUP3 ADD MSTORE POP JUMP JUMPDEST PUSH2 0x104B DUP2 PUSH2 0xD9F JUMP JUMPDEST DUP2 EQ PUSH2 0x1056 JUMPI PUSH1 0x0 DUP1 REVERT JUMPDEST POP JUMP JUMPDEST PUSH2 0x1062 DUP2 PUSH2 0xDE7 JUMP JUMPDEST DUP2 EQ PUSH2 0x106D JUMPI PUSH1 0x0 DUP1 REVERT JUMPDEST POP JUMP JUMPDEST PUSH2 0x1079 DUP2 PUSH2 0xDF1 JUMP JUMPDEST DUP2 EQ PUSH2 0x1084 JUMPI PUSH1 0x0 DUP1 REVERT JUMPDEST POP JUMP INVALID LOG2 PUSH5 0x6970667358 0x22 SLT KECCAK256 0xB5 0xDF PUSH31 0xA49217B6EBE660DD5FFB14A07377F27C0CCF293306DE85D6A2FFE191FD6473 PUSH16 0x6C634300080700330000000000000000 "
				},
				"gasEstimates": {
					"creation": {
						"codeDepositCost": "857000",
						"executionCost": "infinite",
						"totalCost": "infinite"
					},
					"external": {
						"chairman()": "2581",
						"giveRightToVote(address)": "33832",
						"isOpenVote()": "2543",
						"proposalWinnerName()": "infinite",
						"proposals(uint256)": "infinite",
						"stopVote()": "infinite",
						"vote(uint8,address)": "infinite",
						"winnerName()": "infinite"
					}
				},
				"methodIdentifiers": {
					"chairman()": "87f7b975",
					"giveRightToVote(address)": "9e7b8d61",
					"isOpenVote()": "b61bfe5b",
					"proposalWinnerName()": "72133c96",
					"proposals(uint256)": "013cf08b",
					"stopVote()": "2495c0ce",
					"vote(uint8,address)": "b81c6453",
					"winnerName()": "e2ba53f0"
				}
			},
			"storageLayout": {
				"storage": [
					{
						"astId": 20,
						"contract": "contracts/3_Ballot.sol:Vote",
						"label": "voters",
						"offset": 0,
						"slot": "0",
						"type": "t_mapping(t_address,t_struct(Voter)10_storage)"
					},
					{
						"astId": 24,
						"contract": "contracts/3_Ballot.sol:Vote",
						"label": "proposals",
						"offset": 0,
						"slot": "1",
						"type": "t_array(t_struct(Proposal)15_storage)dyn_storage"
					},
					{
						"astId": 26,
						"contract": "contracts/3_Ballot.sol:Vote",
						"label": "chairman",
						"offset": 0,
						"slot": "2",
						"type": "t_address"
					},
					{
						"astId": 29,
						"contract": "contracts/3_Ballot.sol:Vote",
						"label": "isOpenVote",
						"offset": 20,
						"slot": "2",
						"type": "t_bool"
					}
				],
				"types": {
					"t_address": {
						"encoding": "inplace",
						"label": "address",
						"numberOfBytes": "20"
					},
					"t_array(t_struct(Proposal)15_storage)dyn_storage": {
						"base": "t_struct(Proposal)15_storage",
						"encoding": "dynamic_array",
						"label": "struct Vote.Proposal[]",
						"numberOfBytes": "32"
					},
					"t_bool": {
						"encoding": "inplace",
						"label": "bool",
						"numberOfBytes": "1"
					},
					"t_bytes32": {
						"encoding": "inplace",
						"label": "bytes32",
						"numberOfBytes": "32"
					},
					"t_mapping(t_address,t_struct(Voter)10_storage)": {
						"encoding": "mapping",
						"key": "t_address",
						"label": "mapping(address => struct Vote.Voter)",
						"numberOfBytes": "32",
						"value": "t_struct(Voter)10_storage"
					},
					"t_struct(Proposal)15_storage": {
						"encoding": "inplace",
						"label": "struct Vote.Proposal",
						"members": [
							{
								"astId": 12,
								"contract": "contracts/3_Ballot.sol:Vote",
								"label": "name",
								"offset": 0,
								"slot": "0",
								"type": "t_bytes32"
							},
							{
								"astId": 14,
								"contract": "contracts/3_Ballot.sol:Vote",
								"label": "voteCount",
								"offset": 0,
								"slot": "1",
								"type": "t_uint256"
							}
						],
						"numberOfBytes": "64"
					},
					"t_struct(Voter)10_storage": {
						"encoding": "inplace",
						"label": "struct Vote.Voter",
						"members": [
							{
								"astId": 3,
								"contract": "contracts/3_Ballot.sol:Vote",
								"label": "voted",
								"offset": 0,
								"slot": "0",
								"type": "t_bool"
							},
							{
								"astId": 5,
								"contract": "contracts/3_Ballot.sol:Vote",
								"label": "vote",
								"offset": 1,
								"slot": "0",
								"type": "t_uint8"
							},
							{
								"astId": 7,
								"contract": "contracts/3_Ballot.sol:Vote",
								"label": "weight",
								"offset": 2,
								"slot": "0",
								"type": "t_uint32"
							},
							{
								"astId": 9,
								"contract": "contracts/3_Ballot.sol:Vote",
								"label": "delegate",
								"offset": 6,
								"slot": "0",
								"type": "t_address"
							}
						],
						"numberOfBytes": "32"
					},
					"t_uint256": {
						"encoding": "inplace",
						"label": "uint256",
						"numberOfBytes": "32"
					},
					"t_uint32": {
						"encoding": "inplace",
						"label": "uint32",
						"numberOfBytes": "4"
					},
					"t_uint8": {
						"encoding": "inplace",
						"label": "uint8",
						"numberOfBytes": "1"
					}
				}
			},
			"userdoc": {
				"kind": "user",
				"methods": {},
				"version": 1
			}
		}
	}
}