{
	"contracts/4_Ballot_2.sol": {
		"Vote": {
			"abi": [
				{
					"inputs": [
						{
							"internalType": "bytes32[]",
							"name": "_proposalNames",
							"type": "bytes32[]"
						}
					],
					"stateMutability": "nonpayable",
					"type": "constructor"
				},
				{
					"inputs": [],
					"name": "chairman",
					"outputs": [
						{
							"internalType": "address",
							"name": "",
							"type": "address"
						}
					],
					"stateMutability": "view",
					"type": "function"
				},
				{
					"inputs": [
						{
							"internalType": "address",
							"name": "_voter",
							"type": "address"
						}
					],
					"name": "giveRightToVote",
					"outputs": [],
					"stateMutability": "nonpayable",
					"type": "function"
				},
				{
					"inputs": [
						{
							"internalType": "uint256",
							"name": "",
							"type": "uint256"
						}
					],
					"name": "proposals",
					"outputs": [
						{
							"internalType": "bytes32",
							"name": "name",
							"type": "bytes32"
						},
						{
							"internalType": "uint256",
							"name": "voteCount",
							"type": "uint256"
						}
					],
					"stateMutability": "view",
					"type": "function"
				},
				{
					"inputs": [
						{
							"internalType": "uint8",
							"name": "_proposalId",
							"type": "uint8"
						},
						{
							"internalType": "address",
							"name": "_voter",
							"type": "address"
						}
					],
					"name": "vote",
					"outputs": [],
					"stateMutability": "nonpayable",
					"type": "function"
				},
				{
					"inputs": [],
					"name": "winnerName",
					"outputs": [
						{
							"internalType": "bytes32",
							"name": "_winnerName",
							"type": "bytes32"
						}
					],
					"stateMutability": "view",
					"type": "function"
				}
			],
			"devdoc": {
				"kind": "dev",
				"methods": {},
				"version": 1
			},
			"evm": {
				"assembly": "    /* \"contracts/4_Ballot_2.sol\":71:2175  contract Vote {... */\n  mstore(0x40, 0x80)\n    /* \"contracts/4_Ballot_2.sol\":393:663  constructor(bytes32[] memory _proposalNames) {... */\n  callvalue\n  dup1\n  iszero\n  tag_1\n  jumpi\n  0x00\n  dup1\n  revert\ntag_1:\n  pop\n  mload(0x40)\n  sub(codesize, bytecodeSize)\n  dup1\n  bytecodeSize\n  dup4\n  codecopy\n  dup2\n  dup2\n  add\n  0x40\n  mstore\n  dup2\n  add\n  swap1\n  tag_2\n  swap2\n  swap1\n  tag_3\n  jump\t// in\ntag_2:\n    /* \"contracts/4_Ballot_2.sol\":459:469  msg.sender */\n  caller\n    /* \"contracts/4_Ballot_2.sol\":448:456  chairman */\n  0x02\n  0x00\n    /* \"contracts/4_Ballot_2.sol\":448:469  chairman = msg.sender */\n  0x0100\n  exp\n  dup2\n  sload\n  dup2\n  0xffffffffffffffffffffffffffffffffffffffff\n  mul\n  not\n  and\n  swap1\n  dup4\n  0xffffffffffffffffffffffffffffffffffffffff\n  and\n  mul\n  or\n  swap1\n  sstore\n  pop\n    /* \"contracts/4_Ballot_2.sol\":505:506  1 */\n  0x01\n    /* \"contracts/4_Ballot_2.sol\":479:485  voters */\n  0x00\n    /* \"contracts/4_Ballot_2.sol\":479:495  voters[chairman] */\n  dup1\n    /* \"contracts/4_Ballot_2.sol\":486:494  chairman */\n  0x02\n  0x00\n  swap1\n  sload\n  swap1\n  0x0100\n  exp\n  swap1\n  div\n  0xffffffffffffffffffffffffffffffffffffffff\n  and\n    /* \"contracts/4_Ballot_2.sol\":479:495  voters[chairman] */\n  0xffffffffffffffffffffffffffffffffffffffff\n  and\n  0xffffffffffffffffffffffffffffffffffffffff\n  and\n  dup2\n  mstore\n  0x20\n  add\n  swap1\n  dup2\n  mstore\n  0x20\n  add\n  0x00\n  keccak256\n    /* \"contracts/4_Ballot_2.sol\":479:502  voters[chairman].weight */\n  0x00\n  add\n  0x02\n    /* \"contracts/4_Ballot_2.sol\":479:506  voters[chairman].weight = 1 */\n  0x0100\n  exp\n  dup2\n  sload\n  dup2\n  0xffffffff\n  mul\n  not\n  and\n  swap1\n  dup4\n  0xffffffff\n  and\n  mul\n  or\n  swap1\n  sstore\n  pop\n    /* \"contracts/4_Ballot_2.sol\":522:528  uint i */\n  0x00\n    /* \"contracts/4_Ballot_2.sol\":517:657  for (uint i = 0; i < _proposalNames.length ; i++) {... */\ntag_6:\n    /* \"contracts/4_Ballot_2.sol\":538:552  _proposalNames */\n  dup2\n    /* \"contracts/4_Ballot_2.sol\":538:559  _proposalNames.length */\n  mload\n    /* \"contracts/4_Ballot_2.sol\":534:535  i */\n  dup2\n    /* \"contracts/4_Ballot_2.sol\":534:559  i < _proposalNames.length */\n  lt\n    /* \"contracts/4_Ballot_2.sol\":517:657  for (uint i = 0; i < _proposalNames.length ; i++) {... */\n  iszero\n  tag_7\n  jumpi\n    /* \"contracts/4_Ballot_2.sol\":581:590  proposals */\n  0x01\n    /* \"contracts/4_Ballot_2.sol\":596:645  Proposal({name: _proposalNames[i], voteCount: 0}) */\n  mload(0x40)\n  dup1\n  0x40\n  add\n  0x40\n  mstore\n  dup1\n    /* \"contracts/4_Ballot_2.sol\":612:626  _proposalNames */\n  dup5\n    /* \"contracts/4_Ballot_2.sol\":627:628  i */\n  dup5\n    /* \"contracts/4_Ballot_2.sol\":612:629  _proposalNames[i] */\n  dup2\n  mload\n  dup2\n  lt\n  tag_9\n  jumpi\n  tag_10\n  tag_11\n  jump\t// in\ntag_10:\ntag_9:\n  0x20\n  mul\n  0x20\n  add\n  add\n  mload\n    /* \"contracts/4_Ballot_2.sol\":596:645  Proposal({name: _proposalNames[i], voteCount: 0}) */\n  dup2\n  mstore\n  0x20\n  add\n    /* \"contracts/4_Ballot_2.sol\":642:643  0 */\n  0x00\n    /* \"contracts/4_Ballot_2.sol\":596:645  Proposal({name: _proposalNames[i], voteCount: 0}) */\n  dup2\n  mstore\n  pop\n    /* \"contracts/4_Ballot_2.sol\":581:646  proposals.push(Proposal({name: _proposalNames[i], voteCount: 0})) */\n  swap1\n  dup1\n  0x01\n  dup2\n  sload\n  add\n  dup1\n  dup3\n  sstore\n  dup1\n  swap2\n  pop\n  pop\n  0x01\n  swap1\n  sub\n  swap1\n  0x00\n  mstore\n  keccak256(0x00, 0x20)\n  swap1\n  0x02\n  mul\n  add\n  0x00\n  swap1\n  swap2\n  swap1\n  swap2\n  swap1\n  swap2\n  pop\n  0x00\n  dup3\n  add\n  mload\n  dup2\n  0x00\n  add\n  sstore\n  0x20\n  dup3\n  add\n  mload\n  dup2\n  0x01\n  add\n  sstore\n  pop\n  pop\n    /* \"contracts/4_Ballot_2.sol\":562:565  i++ */\n  dup1\n  dup1\n  tag_13\n  swap1\n  tag_14\n  jump\t// in\ntag_13:\n  swap2\n  pop\n  pop\n    /* \"contracts/4_Ballot_2.sol\":517:657  for (uint i = 0; i < _proposalNames.length ; i++) {... */\n  jump(tag_6)\ntag_7:\n  pop\n    /* \"contracts/4_Ballot_2.sol\":393:663  constructor(bytes32[] memory _proposalNames) {... */\n  pop\n    /* \"contracts/4_Ballot_2.sol\":71:2175  contract Vote {... */\n  jump(tag_15)\n    /* \"#utility.yul\":24:768   */\ntag_17:\n    /* \"#utility.yul\":131:136   */\n  0x00\n    /* \"#utility.yul\":156:237   */\n  tag_19\n    /* \"#utility.yul\":172:236   */\n  tag_20\n    /* \"#utility.yul\":229:235   */\n  dup5\n    /* \"#utility.yul\":172:236   */\n  tag_21\n  jump\t// in\ntag_20:\n    /* \"#utility.yul\":156:237   */\n  tag_22\n  jump\t// in\ntag_19:\n    /* \"#utility.yul\":147:237   */\n  swap1\n  pop\n    /* \"#utility.yul\":257:262   */\n  dup1\n    /* \"#utility.yul\":286:292   */\n  dup4\n    /* \"#utility.yul\":279:284   */\n  dup3\n    /* \"#utility.yul\":272:293   */\n  mstore\n    /* \"#utility.yul\":320:324   */\n  0x20\n    /* \"#utility.yul\":313:318   */\n  dup3\n    /* \"#utility.yul\":309:325   */\n  add\n    /* \"#utility.yul\":302:325   */\n  swap1\n  pop\n    /* \"#utility.yul\":346:352   */\n  dup3\n    /* \"#utility.yul\":396:399   */\n  dup6\n    /* \"#utility.yul\":388:392   */\n  0x20\n    /* \"#utility.yul\":380:386   */\n  dup7\n    /* \"#utility.yul\":376:393   */\n  mul\n    /* \"#utility.yul\":371:374   */\n  dup3\n    /* \"#utility.yul\":367:394   */\n  add\n    /* \"#utility.yul\":364:400   */\n  gt\n    /* \"#utility.yul\":361:504   */\n  iszero\n  tag_23\n  jumpi\n    /* \"#utility.yul\":415:494   */\n  tag_24\n  tag_25\n  jump\t// in\ntag_24:\n    /* \"#utility.yul\":361:504   */\ntag_23:\n    /* \"#utility.yul\":528:529   */\n  0x00\n    /* \"#utility.yul\":513:762   */\ntag_26:\n    /* \"#utility.yul\":538:544   */\n  dup6\n    /* \"#utility.yul\":535:536   */\n  dup2\n    /* \"#utility.yul\":532:545   */\n  lt\n    /* \"#utility.yul\":513:762   */\n  iszero\n  tag_28\n  jumpi\n    /* \"#utility.yul\":606:609   */\n  dup2\n    /* \"#utility.yul\":635:683   */\n  tag_29\n    /* \"#utility.yul\":679:682   */\n  dup9\n    /* \"#utility.yul\":667:677   */\n  dup3\n    /* \"#utility.yul\":635:683   */\n  tag_30\n  jump\t// in\ntag_29:\n    /* \"#utility.yul\":630:633   */\n  dup5\n    /* \"#utility.yul\":623:684   */\n  mstore\n    /* \"#utility.yul\":713:717   */\n  0x20\n    /* \"#utility.yul\":708:711   */\n  dup5\n    /* \"#utility.yul\":704:718   */\n  add\n    /* \"#utility.yul\":697:718   */\n  swap4\n  pop\n    /* \"#utility.yul\":747:751   */\n  0x20\n    /* \"#utility.yul\":742:745   */\n  dup4\n    /* \"#utility.yul\":738:752   */\n  add\n    /* \"#utility.yul\":731:752   */\n  swap3\n  pop\n    /* \"#utility.yul\":573:762   */\n  pop\n    /* \"#utility.yul\":560:561   */\n  0x01\n    /* \"#utility.yul\":557:558   */\n  dup2\n    /* \"#utility.yul\":553:562   */\n  add\n    /* \"#utility.yul\":548:562   */\n  swap1\n  pop\n    /* \"#utility.yul\":513:762   */\n  jump(tag_26)\ntag_28:\n    /* \"#utility.yul\":517:531   */\n  pop\n    /* \"#utility.yul\":137:768   */\n  pop\n  pop\n    /* \"#utility.yul\":24:768   */\n  swap4\n  swap3\n  pop\n  pop\n  pop\n  jump\t// out\n    /* \"#utility.yul\":791:1176   */\ntag_31:\n    /* \"#utility.yul\":873:878   */\n  0x00\n    /* \"#utility.yul\":922:925   */\n  dup3\n    /* \"#utility.yul\":915:919   */\n  0x1f\n    /* \"#utility.yul\":907:913   */\n  dup4\n    /* \"#utility.yul\":903:920   */\n  add\n    /* \"#utility.yul\":899:926   */\n  slt\n    /* \"#utility.yul\":889:1011   */\n  tag_33\n  jumpi\n    /* \"#utility.yul\":930:1009   */\n  tag_34\n  tag_35\n  jump\t// in\ntag_34:\n    /* \"#utility.yul\":889:1011   */\ntag_33:\n    /* \"#utility.yul\":1040:1046   */\n  dup2\n    /* \"#utility.yul\":1034:1047   */\n  mload\n    /* \"#utility.yul\":1065:1170   */\n  tag_36\n    /* \"#utility.yul\":1166:1169   */\n  dup5\n    /* \"#utility.yul\":1158:1164   */\n  dup3\n    /* \"#utility.yul\":1151:1155   */\n  0x20\n    /* \"#utility.yul\":1143:1149   */\n  dup7\n    /* \"#utility.yul\":1139:1156   */\n  add\n    /* \"#utility.yul\":1065:1170   */\n  tag_17\n  jump\t// in\ntag_36:\n    /* \"#utility.yul\":1056:1170   */\n  swap2\n  pop\n    /* \"#utility.yul\":879:1176   */\n  pop\n    /* \"#utility.yul\":791:1176   */\n  swap3\n  swap2\n  pop\n  pop\n  jump\t// out\n    /* \"#utility.yul\":1182:1325   */\ntag_30:\n    /* \"#utility.yul\":1239:1244   */\n  0x00\n    /* \"#utility.yul\":1270:1276   */\n  dup2\n    /* \"#utility.yul\":1264:1277   */\n  mload\n    /* \"#utility.yul\":1255:1277   */\n  swap1\n  pop\n    /* \"#utility.yul\":1286:1319   */\n  tag_38\n    /* \"#utility.yul\":1313:1318   */\n  dup2\n    /* \"#utility.yul\":1286:1319   */\n  tag_39\n  jump\t// in\ntag_38:\n    /* \"#utility.yul\":1182:1325   */\n  swap3\n  swap2\n  pop\n  pop\n  jump\t// out\n    /* \"#utility.yul\":1331:1885   */\ntag_3:\n    /* \"#utility.yul\":1426:1432   */\n  0x00\n    /* \"#utility.yul\":1475:1477   */\n  0x20\n    /* \"#utility.yul\":1463:1472   */\n  dup3\n    /* \"#utility.yul\":1454:1461   */\n  dup5\n    /* \"#utility.yul\":1450:1473   */\n  sub\n    /* \"#utility.yul\":1446:1478   */\n  slt\n    /* \"#utility.yul\":1443:1562   */\n  iszero\n  tag_41\n  jumpi\n    /* \"#utility.yul\":1481:1560   */\n  tag_42\n  tag_43\n  jump\t// in\ntag_42:\n    /* \"#utility.yul\":1443:1562   */\ntag_41:\n    /* \"#utility.yul\":1622:1623   */\n  0x00\n    /* \"#utility.yul\":1611:1620   */\n  dup3\n    /* \"#utility.yul\":1607:1624   */\n  add\n    /* \"#utility.yul\":1601:1625   */\n  mload\n    /* \"#utility.yul\":1652:1670   */\n  0xffffffffffffffff\n    /* \"#utility.yul\":1644:1650   */\n  dup2\n    /* \"#utility.yul\":1641:1671   */\n  gt\n    /* \"#utility.yul\":1638:1755   */\n  iszero\n  tag_44\n  jumpi\n    /* \"#utility.yul\":1674:1753   */\n  tag_45\n  tag_46\n  jump\t// in\ntag_45:\n    /* \"#utility.yul\":1638:1755   */\ntag_44:\n    /* \"#utility.yul\":1779:1868   */\n  tag_47\n    /* \"#utility.yul\":1860:1867   */\n  dup5\n    /* \"#utility.yul\":1851:1857   */\n  dup3\n    /* \"#utility.yul\":1840:1849   */\n  dup6\n    /* \"#utility.yul\":1836:1858   */\n  add\n    /* \"#utility.yul\":1779:1868   */\n  tag_31\n  jump\t// in\ntag_47:\n    /* \"#utility.yul\":1769:1868   */\n  swap2\n  pop\n    /* \"#utility.yul\":1572:1878   */\n  pop\n    /* \"#utility.yul\":1331:1885   */\n  swap3\n  swap2\n  pop\n  pop\n  jump\t// out\n    /* \"#utility.yul\":1891:2020   */\ntag_22:\n    /* \"#utility.yul\":1925:1931   */\n  0x00\n    /* \"#utility.yul\":1952:1972   */\n  tag_49\n  tag_50\n  jump\t// in\ntag_49:\n    /* \"#utility.yul\":1942:1972   */\n  swap1\n  pop\n    /* \"#utility.yul\":1981:2014   */\n  tag_51\n    /* \"#utility.yul\":2009:2013   */\n  dup3\n    /* \"#utility.yul\":2001:2007   */\n  dup3\n    /* \"#utility.yul\":1981:2014   */\n  tag_52\n  jump\t// in\ntag_51:\n    /* \"#utility.yul\":1891:2020   */\n  swap2\n  swap1\n  pop\n  jump\t// out\n    /* \"#utility.yul\":2026:2101   */\ntag_50:\n    /* \"#utility.yul\":2059:2065   */\n  0x00\n    /* \"#utility.yul\":2092:2094   */\n  0x40\n    /* \"#utility.yul\":2086:2095   */\n  mload\n    /* \"#utility.yul\":2076:2095   */\n  swap1\n  pop\n    /* \"#utility.yul\":2026:2101   */\n  swap1\n  jump\t// out\n    /* \"#utility.yul\":2107:2418   */\ntag_21:\n    /* \"#utility.yul\":2184:2188   */\n  0x00\n    /* \"#utility.yul\":2274:2292   */\n  0xffffffffffffffff\n    /* \"#utility.yul\":2266:2272   */\n  dup3\n    /* \"#utility.yul\":2263:2293   */\n  gt\n    /* \"#utility.yul\":2260:2316   */\n  iszero\n  tag_55\n  jumpi\n    /* \"#utility.yul\":2296:2314   */\n  tag_56\n  tag_57\n  jump\t// in\ntag_56:\n    /* \"#utility.yul\":2260:2316   */\ntag_55:\n    /* \"#utility.yul\":2346:2350   */\n  0x20\n    /* \"#utility.yul\":2338:2344   */\n  dup3\n    /* \"#utility.yul\":2334:2351   */\n  mul\n    /* \"#utility.yul\":2326:2351   */\n  swap1\n  pop\n    /* \"#utility.yul\":2406:2410   */\n  0x20\n    /* \"#utility.yul\":2400:2404   */\n  dup2\n    /* \"#utility.yul\":2396:2411   */\n  add\n    /* \"#utility.yul\":2388:2411   */\n  swap1\n  pop\n    /* \"#utility.yul\":2107:2418   */\n  swap2\n  swap1\n  pop\n  jump\t// out\n    /* \"#utility.yul\":2424:2501   */\ntag_58:\n    /* \"#utility.yul\":2461:2468   */\n  0x00\n    /* \"#utility.yul\":2490:2495   */\n  dup2\n    /* \"#utility.yul\":2479:2495   */\n  swap1\n  pop\n    /* \"#utility.yul\":2424:2501   */\n  swap2\n  swap1\n  pop\n  jump\t// out\n    /* \"#utility.yul\":2507:2584   */\ntag_60:\n    /* \"#utility.yul\":2544:2551   */\n  0x00\n    /* \"#utility.yul\":2573:2578   */\n  dup2\n    /* \"#utility.yul\":2562:2578   */\n  swap1\n  pop\n    /* \"#utility.yul\":2507:2584   */\n  swap2\n  swap1\n  pop\n  jump\t// out\n    /* \"#utility.yul\":2590:2871   */\ntag_52:\n    /* \"#utility.yul\":2673:2700   */\n  tag_63\n    /* \"#utility.yul\":2695:2699   */\n  dup3\n    /* \"#utility.yul\":2673:2700   */\n  tag_64\n  jump\t// in\ntag_63:\n    /* \"#utility.yul\":2665:2671   */\n  dup2\n    /* \"#utility.yul\":2661:2701   */\n  add\n    /* \"#utility.yul\":2803:2809   */\n  dup2\n    /* \"#utility.yul\":2791:2801   */\n  dup2\n    /* \"#utility.yul\":2788:2810   */\n  lt\n    /* \"#utility.yul\":2767:2785   */\n  0xffffffffffffffff\n    /* \"#utility.yul\":2755:2765   */\n  dup3\n    /* \"#utility.yul\":2752:2786   */\n  gt\n    /* \"#utility.yul\":2749:2811   */\n  or\n    /* \"#utility.yul\":2746:2834   */\n  iszero\n  tag_65\n  jumpi\n    /* \"#utility.yul\":2814:2832   */\n  tag_66\n  tag_57\n  jump\t// in\ntag_66:\n    /* \"#utility.yul\":2746:2834   */\ntag_65:\n    /* \"#utility.yul\":2854:2864   */\n  dup1\n    /* \"#utility.yul\":2850:2852   */\n  0x40\n    /* \"#utility.yul\":2843:2865   */\n  mstore\n    /* \"#utility.yul\":2633:2871   */\n  pop\n    /* \"#utility.yul\":2590:2871   */\n  pop\n  pop\n  jump\t// out\n    /* \"#utility.yul\":2877:3110   */\ntag_14:\n    /* \"#utility.yul\":2916:2919   */\n  0x00\n    /* \"#utility.yul\":2939:2963   */\n  tag_68\n    /* \"#utility.yul\":2957:2962   */\n  dup3\n    /* \"#utility.yul\":2939:2963   */\n  tag_60\n  jump\t// in\ntag_68:\n    /* \"#utility.yul\":2930:2963   */\n  swap2\n  pop\n    /* \"#utility.yul\":2985:3051   */\n  0xffffffffffffffffffffffffffffffffffffffffffffffffffffffffffffffff\n    /* \"#utility.yul\":2978:2983   */\n  dup3\n    /* \"#utility.yul\":2975:3052   */\n  eq\n    /* \"#utility.yul\":2972:3075   */\n  iszero\n  tag_69\n  jumpi\n    /* \"#utility.yul\":3055:3073   */\n  tag_70\n  tag_71\n  jump\t// in\ntag_70:\n    /* \"#utility.yul\":2972:3075   */\ntag_69:\n    /* \"#utility.yul\":3102:3103   */\n  0x01\n    /* \"#utility.yul\":3095:3100   */\n  dup3\n    /* \"#utility.yul\":3091:3104   */\n  add\n    /* \"#utility.yul\":3084:3104   */\n  swap1\n  pop\n    /* \"#utility.yul\":2877:3110   */\n  swap2\n  swap1\n  pop\n  jump\t// out\n    /* \"#utility.yul\":3116:3296   */\ntag_71:\n    /* \"#utility.yul\":3164:3241   */\n  0x4e487b7100000000000000000000000000000000000000000000000000000000\n    /* \"#utility.yul\":3161:3162   */\n  0x00\n    /* \"#utility.yul\":3154:3242   */\n  mstore\n    /* \"#utility.yul\":3261:3265   */\n  0x11\n    /* \"#utility.yul\":3258:3259   */\n  0x04\n    /* \"#utility.yul\":3251:3266   */\n  mstore\n    /* \"#utility.yul\":3285:3289   */\n  0x24\n    /* \"#utility.yul\":3282:3283   */\n  0x00\n    /* \"#utility.yul\":3275:3290   */\n  revert\n    /* \"#utility.yul\":3302:3482   */\ntag_11:\n    /* \"#utility.yul\":3350:3427   */\n  0x4e487b7100000000000000000000000000000000000000000000000000000000\n    /* \"#utility.yul\":3347:3348   */\n  0x00\n    /* \"#utility.yul\":3340:3428   */\n  mstore\n    /* \"#utility.yul\":3447:3451   */\n  0x32\n    /* \"#utility.yul\":3444:3445   */\n  0x04\n    /* \"#utility.yul\":3437:3452   */\n  mstore\n    /* \"#utility.yul\":3471:3475   */\n  0x24\n    /* \"#utility.yul\":3468:3469   */\n  0x00\n    /* \"#utility.yul\":3461:3476   */\n  revert\n    /* \"#utility.yul\":3488:3668   */\ntag_57:\n    /* \"#utility.yul\":3536:3613   */\n  0x4e487b7100000000000000000000000000000000000000000000000000000000\n    /* \"#utility.yul\":3533:3534   */\n  0x00\n    /* \"#utility.yul\":3526:3614   */\n  mstore\n    /* \"#utility.yul\":3633:3637   */\n  0x41\n    /* \"#utility.yul\":3630:3631   */\n  0x04\n    /* \"#utility.yul\":3623:3638   */\n  mstore\n    /* \"#utility.yul\":3657:3661   */\n  0x24\n    /* \"#utility.yul\":3654:3655   */\n  0x00\n    /* \"#utility.yul\":3647:3662   */\n  revert\n    /* \"#utility.yul\":3674:3791   */\ntag_35:\n    /* \"#utility.yul\":3783:3784   */\n  0x00\n    /* \"#utility.yul\":3780:3781   */\n  dup1\n    /* \"#utility.yul\":3773:3785   */\n  revert\n    /* \"#utility.yul\":3797:3914   */\ntag_25:\n    /* \"#utility.yul\":3906:3907   */\n  0x00\n    /* \"#utility.yul\":3903:3904   */\n  dup1\n    /* \"#utility.yul\":3896:3908   */\n  revert\n    /* \"#utility.yul\":3920:4037   */\ntag_46:\n    /* \"#utility.yul\":4029:4030   */\n  0x00\n    /* \"#utility.yul\":4026:4027   */\n  dup1\n    /* \"#utility.yul\":4019:4031   */\n  revert\n    /* \"#utility.yul\":4043:4160   */\ntag_43:\n    /* \"#utility.yul\":4152:4153   */\n  0x00\n    /* \"#utility.yul\":4149:4150   */\n  dup1\n    /* \"#utility.yul\":4142:4154   */\n  revert\n    /* \"#utility.yul\":4166:4268   */\ntag_64:\n    /* \"#utility.yul\":4207:4213   */\n  0x00\n    /* \"#utility.yul\":4258:4260   */\n  0x1f\n    /* \"#utility.yul\":4254:4261   */\n  not\n    /* \"#utility.yul\":4249:4251   */\n  0x1f\n    /* \"#utility.yul\":4242:4247   */\n  dup4\n    /* \"#utility.yul\":4238:4252   */\n  add\n    /* \"#utility.yul\":4234:4262   */\n  and\n    /* \"#utility.yul\":4224:4262   */\n  swap1\n  pop\n    /* \"#utility.yul\":4166:4268   */\n  swap2\n  swap1\n  pop\n  jump\t// out\n    /* \"#utility.yul\":4274:4396   */\ntag_39:\n    /* \"#utility.yul\":4347:4371   */\n  tag_81\n    /* \"#utility.yul\":4365:4370   */\n  dup2\n    /* \"#utility.yul\":4347:4371   */\n  tag_58\n  jump\t// in\ntag_81:\n    /* \"#utility.yul\":4340:4345   */\n  dup2\n    /* \"#utility.yul\":4337:4372   */\n  eq\n    /* \"#utility.yul\":4327:4390   */\n  tag_82\n  jumpi\n    /* \"#utility.yul\":4386:4387   */\n  0x00\n    /* \"#utility.yul\":4383:4384   */\n  dup1\n    /* \"#utility.yul\":4376:4388   */\n  revert\n    /* \"#utility.yul\":4327:4390   */\ntag_82:\n    /* \"#utility.yul\":4274:4396   */\n  pop\n  jump\t// out\n    /* \"contracts/4_Ballot_2.sol\":71:2175  contract Vote {... */\ntag_15:\n  dataSize(sub_0)\n  dup1\n  dataOffset(sub_0)\n  0x00\n  codecopy\n  0x00\n  return\nstop\n\nsub_0: assembly {\n        /* \"contracts/4_Ballot_2.sol\":71:2175  contract Vote {... */\n      mstore(0x40, 0x80)\n      callvalue\n      dup1\n      iszero\n      tag_1\n      jumpi\n      0x00\n      dup1\n      revert\n    tag_1:\n      pop\n      jumpi(tag_2, lt(calldatasize, 0x04))\n      shr(0xe0, calldataload(0x00))\n      dup1\n      0x013cf08b\n      eq\n      tag_3\n      jumpi\n      dup1\n      0x87f7b975\n      eq\n      tag_4\n      jumpi\n      dup1\n      0x9e7b8d61\n      eq\n      tag_5\n      jumpi\n      dup1\n      0xb81c6453\n      eq\n      tag_6\n      jumpi\n      dup1\n      0xe2ba53f0\n      eq\n      tag_7\n      jumpi\n    tag_2:\n      0x00\n      dup1\n      revert\n        /* \"contracts/4_Ballot_2.sol\":329:356  Proposal[] public proposals */\n    tag_3:\n      tag_8\n      0x04\n      dup1\n      calldatasize\n      sub\n      dup2\n      add\n      swap1\n      tag_9\n      swap2\n      swap1\n      tag_10\n      jump\t// in\n    tag_9:\n      tag_11\n      jump\t// in\n    tag_8:\n      mload(0x40)\n      tag_12\n      swap3\n      swap2\n      swap1\n      tag_13\n      jump\t// in\n    tag_12:\n      mload(0x40)\n      dup1\n      swap2\n      sub\n      swap1\n      return\n        /* \"contracts/4_Ballot_2.sol\":363:386  address public chairman */\n    tag_4:\n      tag_14\n      tag_15\n      jump\t// in\n    tag_14:\n      mload(0x40)\n      tag_16\n      swap2\n      swap1\n      tag_17\n      jump\t// in\n    tag_16:\n      mload(0x40)\n      dup1\n      swap2\n      sub\n      swap1\n      return\n        /* \"contracts/4_Ballot_2.sol\":1367:1513  function giveRightToVote(address _voter) external onlyChairman notYetVoted(_voter) noRightToVote(_voter){... */\n    tag_5:\n      tag_18\n      0x04\n      dup1\n      calldatasize\n      sub\n      dup2\n      add\n      swap1\n      tag_19\n      swap2\n      swap1\n      tag_20\n      jump\t// in\n    tag_19:\n      tag_21\n      jump\t// in\n    tag_18:\n      stop\n        /* \"contracts/4_Ballot_2.sol\":1519:1770  function vote(uint8 _proposalId, address _voter) external onlyVoter(_voter) rightToVote(_voter) notYetVoted(_voter) {... */\n    tag_6:\n      tag_22\n      0x04\n      dup1\n      calldatasize\n      sub\n      dup2\n      add\n      swap1\n      tag_23\n      swap2\n      swap1\n      tag_24\n      jump\t// in\n    tag_23:\n      tag_25\n      jump\t// in\n    tag_22:\n      stop\n        /* \"contracts/4_Ballot_2.sol\":1776:2172  function winnerName() public view returns (bytes32 _winnerName) {... */\n    tag_7:\n      tag_26\n      tag_27\n      jump\t// in\n    tag_26:\n      mload(0x40)\n      tag_28\n      swap2\n      swap1\n      tag_29\n      jump\t// in\n    tag_28:\n      mload(0x40)\n      dup1\n      swap2\n      sub\n      swap1\n      return\n        /* \"contracts/4_Ballot_2.sol\":329:356  Proposal[] public proposals */\n    tag_11:\n      0x01\n      dup2\n      dup2\n      sload\n      dup2\n      lt\n      tag_30\n      jumpi\n      0x00\n      dup1\n      revert\n    tag_30:\n      swap1\n      0x00\n      mstore\n      keccak256(0x00, 0x20)\n      swap1\n      0x02\n      mul\n      add\n      0x00\n      swap2\n      pop\n      swap1\n      pop\n      dup1\n      0x00\n      add\n      sload\n      swap1\n      dup1\n      0x01\n      add\n      sload\n      swap1\n      pop\n      dup3\n      jump\t// out\n        /* \"contracts/4_Ballot_2.sol\":363:386  address public chairman */\n    tag_15:\n      0x02\n      0x00\n      swap1\n      sload\n      swap1\n      0x0100\n      exp\n      swap1\n      div\n      0xffffffffffffffffffffffffffffffffffffffff\n      and\n      dup2\n      jump\t// out\n        /* \"contracts/4_Ballot_2.sol\":1367:1513  function giveRightToVote(address _voter) external onlyChairman notYetVoted(_voter) noRightToVote(_voter){... */\n    tag_21:\n        /* \"contracts/4_Ballot_2.sol\":723:733  msg.sender */\n      caller\n        /* \"contracts/4_Ballot_2.sol\":711:733  chairman == msg.sender */\n      0xffffffffffffffffffffffffffffffffffffffff\n      and\n        /* \"contracts/4_Ballot_2.sol\":711:719  chairman */\n      0x02\n      0x00\n      swap1\n      sload\n      swap1\n      0x0100\n      exp\n      swap1\n      div\n      0xffffffffffffffffffffffffffffffffffffffff\n      and\n        /* \"contracts/4_Ballot_2.sol\":711:733  chairman == msg.sender */\n      0xffffffffffffffffffffffffffffffffffffffff\n      and\n      eq\n        /* \"contracts/4_Ballot_2.sol\":703:778  require(chairman == msg.sender, \"Only chairperson can give right to vote.\") */\n      tag_33\n      jumpi\n      mload(0x40)\n      0x08c379a000000000000000000000000000000000000000000000000000000000\n      dup2\n      mstore\n      0x04\n      add\n      tag_34\n      swap1\n      tag_35\n      jump\t// in\n    tag_34:\n      mload(0x40)\n      dup1\n      swap2\n      sub\n      swap1\n      revert\n    tag_33:\n        /* \"contracts/4_Ballot_2.sol\":1442:1448  _voter */\n      dup1\n        /* \"contracts/4_Ballot_2.sol\":858:864  voters */\n      0x00\n        /* \"contracts/4_Ballot_2.sol\":858:872  voters[_voter] */\n      dup1\n        /* \"contracts/4_Ballot_2.sol\":865:871  _voter */\n      dup3\n        /* \"contracts/4_Ballot_2.sol\":858:872  voters[_voter] */\n      0xffffffffffffffffffffffffffffffffffffffff\n      and\n      0xffffffffffffffffffffffffffffffffffffffff\n      and\n      dup2\n      mstore\n      0x20\n      add\n      swap1\n      dup2\n      mstore\n      0x20\n      add\n      0x00\n      keccak256\n        /* \"contracts/4_Ballot_2.sol\":858:878  voters[_voter].voted */\n      0x00\n      add\n      0x00\n      swap1\n      sload\n      swap1\n      0x0100\n      exp\n      swap1\n      div\n      0xff\n      and\n        /* \"contracts/4_Ballot_2.sol\":857:878  !voters[_voter].voted */\n      iszero\n        /* \"contracts/4_Ballot_2.sol\":849:907  require(!voters[_voter].voted, \"The voter already voted.\") */\n      tag_37\n      jumpi\n      mload(0x40)\n      0x08c379a000000000000000000000000000000000000000000000000000000000\n      dup2\n      mstore\n      0x04\n      add\n      tag_38\n      swap1\n      tag_39\n      jump\t// in\n    tag_38:\n      mload(0x40)\n      dup1\n      swap2\n      sub\n      swap1\n      revert\n    tag_37:\n        /* \"contracts/4_Ballot_2.sol\":1464:1470  _voter */\n      dup2\n        /* \"contracts/4_Ballot_2.sol\":1013:1014  0 */\n      0x00\n        /* \"contracts/4_Ballot_2.sol\":988:994  voters */\n      dup1\n        /* \"contracts/4_Ballot_2.sol\":988:1002  voters[_voter] */\n      0x00\n        /* \"contracts/4_Ballot_2.sol\":995:1001  _voter */\n      dup4\n        /* \"contracts/4_Ballot_2.sol\":988:1002  voters[_voter] */\n      0xffffffffffffffffffffffffffffffffffffffff\n      and\n      0xffffffffffffffffffffffffffffffffffffffff\n      and\n      dup2\n      mstore\n      0x20\n      add\n      swap1\n      dup2\n      mstore\n      0x20\n      add\n      0x00\n      keccak256\n        /* \"contracts/4_Ballot_2.sol\":988:1009  voters[_voter].weight */\n      0x00\n      add\n      0x02\n      swap1\n      sload\n      swap1\n      0x0100\n      exp\n      swap1\n      div\n      0xffffffff\n      and\n        /* \"contracts/4_Ballot_2.sol\":988:1014  voters[_voter].weight == 0 */\n      0xffffffff\n      and\n      eq\n        /* \"contracts/4_Ballot_2.sol\":980:1052  require(voters[_voter].weight == 0, \"You have already a right to vote.\") */\n      tag_41\n      jumpi\n      mload(0x40)\n      0x08c379a000000000000000000000000000000000000000000000000000000000\n      dup2\n      mstore\n      0x04\n      add\n      tag_42\n      swap1\n      tag_43\n      jump\t// in\n    tag_42:\n      mload(0x40)\n      dup1\n      swap2\n      sub\n      swap1\n      revert\n    tag_41:\n        /* \"contracts/4_Ballot_2.sol\":1505:1506  1 */\n      0x01\n        /* \"contracts/4_Ballot_2.sol\":1481:1487  voters */\n      0x00\n        /* \"contracts/4_Ballot_2.sol\":1481:1495  voters[_voter] */\n      dup1\n        /* \"contracts/4_Ballot_2.sol\":1488:1494  _voter */\n      dup6\n        /* \"contracts/4_Ballot_2.sol\":1481:1495  voters[_voter] */\n      0xffffffffffffffffffffffffffffffffffffffff\n      and\n      0xffffffffffffffffffffffffffffffffffffffff\n      and\n      dup2\n      mstore\n      0x20\n      add\n      swap1\n      dup2\n      mstore\n      0x20\n      add\n      0x00\n      keccak256\n        /* \"contracts/4_Ballot_2.sol\":1481:1502  voters[_voter].weight */\n      0x00\n      add\n      0x02\n        /* \"contracts/4_Ballot_2.sol\":1481:1506  voters[_voter].weight = 1 */\n      0x0100\n      exp\n      dup2\n      sload\n      dup2\n      0xffffffff\n      mul\n      not\n      and\n      swap1\n      dup4\n      0xffffffff\n      and\n      mul\n      or\n      swap1\n      sstore\n      pop\n        /* \"contracts/4_Ballot_2.sol\":917:918  _ */\n      pop\n        /* \"contracts/4_Ballot_2.sol\":788:789  _ */\n      pop\n        /* \"contracts/4_Ballot_2.sol\":1367:1513  function giveRightToVote(address _voter) external onlyChairman notYetVoted(_voter) noRightToVote(_voter){... */\n      pop\n      jump\t// out\n        /* \"contracts/4_Ballot_2.sol\":1519:1770  function vote(uint8 _proposalId, address _voter) external onlyVoter(_voter) rightToVote(_voter) notYetVoted(_voter) {... */\n    tag_25:\n        /* \"contracts/4_Ballot_2.sol\":1587:1593  _voter */\n      dup1\n        /* \"contracts/4_Ballot_2.sol\":1282:1292  msg.sender */\n      caller\n        /* \"contracts/4_Ballot_2.sol\":1272:1292  _voter == msg.sender */\n      0xffffffffffffffffffffffffffffffffffffffff\n      and\n        /* \"contracts/4_Ballot_2.sol\":1272:1278  _voter */\n      dup2\n        /* \"contracts/4_Ballot_2.sol\":1272:1292  _voter == msg.sender */\n      0xffffffffffffffffffffffffffffffffffffffff\n      and\n      eq\n        /* \"contracts/4_Ballot_2.sol\":1264:1343  require(_voter == msg.sender, \"You are not allowed to vote with this address.\") */\n      tag_46\n      jumpi\n      mload(0x40)\n      0x08c379a000000000000000000000000000000000000000000000000000000000\n      dup2\n      mstore\n      0x04\n      add\n      tag_47\n      swap1\n      tag_48\n      jump\t// in\n    tag_47:\n      mload(0x40)\n      dup1\n      swap2\n      sub\n      swap1\n      revert\n    tag_46:\n        /* \"contracts/4_Ballot_2.sol\":1607:1613  _voter */\n      dup2\n        /* \"contracts/4_Ballot_2.sol\":1156:1157  0 */\n      0x00\n        /* \"contracts/4_Ballot_2.sol\":1131:1137  voters */\n      dup1\n        /* \"contracts/4_Ballot_2.sol\":1131:1145  voters[_voter] */\n      0x00\n        /* \"contracts/4_Ballot_2.sol\":1138:1144  _voter */\n      dup4\n        /* \"contracts/4_Ballot_2.sol\":1131:1145  voters[_voter] */\n      0xffffffffffffffffffffffffffffffffffffffff\n      and\n      0xffffffffffffffffffffffffffffffffffffffff\n      and\n      dup2\n      mstore\n      0x20\n      add\n      swap1\n      dup2\n      mstore\n      0x20\n      add\n      0x00\n      keccak256\n        /* \"contracts/4_Ballot_2.sol\":1131:1152  voters[_voter].weight */\n      0x00\n      add\n      0x02\n      swap1\n      sload\n      swap1\n      0x0100\n      exp\n      swap1\n      div\n      0xffffffff\n      and\n        /* \"contracts/4_Ballot_2.sol\":1131:1157  voters[_voter].weight != 0 */\n      0xffffffff\n      and\n      eq\n      iszero\n        /* \"contracts/4_Ballot_2.sol\":1123:1195  require(voters[_voter].weight != 0, \"You don't have the right to vote.\") */\n      tag_50\n      jumpi\n      mload(0x40)\n      0x08c379a000000000000000000000000000000000000000000000000000000000\n      dup2\n      mstore\n      0x04\n      add\n      tag_51\n      swap1\n      tag_52\n      jump\t// in\n    tag_51:\n      mload(0x40)\n      dup1\n      swap2\n      sub\n      swap1\n      revert\n    tag_50:\n        /* \"contracts/4_Ballot_2.sol\":1627:1633  _voter */\n      dup3\n        /* \"contracts/4_Ballot_2.sol\":858:864  voters */\n      0x00\n        /* \"contracts/4_Ballot_2.sol\":858:872  voters[_voter] */\n      dup1\n        /* \"contracts/4_Ballot_2.sol\":865:871  _voter */\n      dup3\n        /* \"contracts/4_Ballot_2.sol\":858:872  voters[_voter] */\n      0xffffffffffffffffffffffffffffffffffffffff\n      and\n      0xffffffffffffffffffffffffffffffffffffffff\n      and\n      dup2\n      mstore\n      0x20\n      add\n      swap1\n      dup2\n      mstore\n      0x20\n      add\n      0x00\n      keccak256\n        /* \"contracts/4_Ballot_2.sol\":858:878  voters[_voter].voted */\n      0x00\n      add\n      0x00\n      swap1\n      sload\n      swap1\n      0x0100\n      exp\n      swap1\n      div\n      0xff\n      and\n        /* \"contracts/4_Ballot_2.sol\":857:878  !voters[_voter].voted */\n      iszero\n        /* \"contracts/4_Ballot_2.sol\":849:907  require(!voters[_voter].voted, \"The voter already voted.\") */\n      tag_54\n      jumpi\n      mload(0x40)\n      0x08c379a000000000000000000000000000000000000000000000000000000000\n      dup2\n      mstore\n      0x04\n      add\n      tag_55\n      swap1\n      tag_39\n      jump\t// in\n    tag_55:\n      mload(0x40)\n      dup1\n      swap2\n      sub\n      swap1\n      revert\n    tag_54:\n        /* \"contracts/4_Ballot_2.sol\":1668:1672  true */\n      0x01\n        /* \"contracts/4_Ballot_2.sol\":1645:1651  voters */\n      0x00\n        /* \"contracts/4_Ballot_2.sol\":1645:1659  voters[_voter] */\n      dup1\n        /* \"contracts/4_Ballot_2.sol\":1652:1658  _voter */\n      dup7\n        /* \"contracts/4_Ballot_2.sol\":1645:1659  voters[_voter] */\n      0xffffffffffffffffffffffffffffffffffffffff\n      and\n      0xffffffffffffffffffffffffffffffffffffffff\n      and\n      dup2\n      mstore\n      0x20\n      add\n      swap1\n      dup2\n      mstore\n      0x20\n      add\n      0x00\n      keccak256\n        /* \"contracts/4_Ballot_2.sol\":1645:1665  voters[_voter].voted */\n      0x00\n      add\n      0x00\n        /* \"contracts/4_Ballot_2.sol\":1645:1672  voters[_voter].voted = true */\n      0x0100\n      exp\n      dup2\n      sload\n      dup2\n      0xff\n      mul\n      not\n      and\n      swap1\n      dup4\n      iszero\n      iszero\n      mul\n      or\n      swap1\n      sstore\n      pop\n        /* \"contracts/4_Ballot_2.sol\":1704:1715  _proposalId */\n      dup5\n        /* \"contracts/4_Ballot_2.sol\":1682:1688  voters */\n      0x00\n        /* \"contracts/4_Ballot_2.sol\":1682:1696  voters[_voter] */\n      dup1\n        /* \"contracts/4_Ballot_2.sol\":1689:1695  _voter */\n      dup7\n        /* \"contracts/4_Ballot_2.sol\":1682:1696  voters[_voter] */\n      0xffffffffffffffffffffffffffffffffffffffff\n      and\n      0xffffffffffffffffffffffffffffffffffffffff\n      and\n      dup2\n      mstore\n      0x20\n      add\n      swap1\n      dup2\n      mstore\n      0x20\n      add\n      0x00\n      keccak256\n        /* \"contracts/4_Ballot_2.sol\":1682:1701  voters[_voter].vote */\n      0x00\n      add\n      0x01\n        /* \"contracts/4_Ballot_2.sol\":1682:1715  voters[_voter].vote = _proposalId */\n      0x0100\n      exp\n      dup2\n      sload\n      dup2\n      0xff\n      mul\n      not\n      and\n      swap1\n      dup4\n      0xff\n      and\n      mul\n      or\n      swap1\n      sstore\n      pop\n        /* \"contracts/4_Ballot_2.sol\":1762:1763  1 */\n      0x01\n        /* \"contracts/4_Ballot_2.sol\":1726:1735  proposals */\n      dup1\n        /* \"contracts/4_Ballot_2.sol\":1736:1747  _proposalId */\n      dup7\n        /* \"contracts/4_Ballot_2.sol\":1726:1748  proposals[_proposalId] */\n      0xff\n      and\n      dup2\n      sload\n      dup2\n      lt\n      tag_57\n      jumpi\n      tag_58\n      tag_59\n      jump\t// in\n    tag_58:\n    tag_57:\n      swap1\n      0x00\n      mstore\n      keccak256(0x00, 0x20)\n      swap1\n      0x02\n      mul\n      add\n        /* \"contracts/4_Ballot_2.sol\":1726:1758  proposals[_proposalId].voteCount */\n      0x01\n      add\n      0x00\n        /* \"contracts/4_Ballot_2.sol\":1726:1763  proposals[_proposalId].voteCount += 1 */\n      dup3\n      dup3\n      sload\n      tag_61\n      swap2\n      swap1\n      tag_62\n      jump\t// in\n    tag_61:\n      swap3\n      pop\n      pop\n      dup2\n      swap1\n      sstore\n      pop\n        /* \"contracts/4_Ballot_2.sol\":1205:1206  _ */\n      pop\n        /* \"contracts/4_Ballot_2.sol\":1353:1354  _ */\n      pop\n        /* \"contracts/4_Ballot_2.sol\":1519:1770  function vote(uint8 _proposalId, address _voter) external onlyVoter(_voter) rightToVote(_voter) notYetVoted(_voter) {... */\n      pop\n      pop\n      pop\n      jump\t// out\n        /* \"contracts/4_Ballot_2.sol\":1776:2172  function winnerName() public view returns (bytes32 _winnerName) {... */\n    tag_27:\n        /* \"contracts/4_Ballot_2.sol\":1819:1838  bytes32 _winnerName */\n      0x00\n        /* \"contracts/4_Ballot_2.sol\":1850:1869  bytes32 _winnerName */\n      dup1\n        /* \"contracts/4_Ballot_2.sol\":1879:1904  uint _numberOfWinnerVotes */\n      0x00\n        /* \"contracts/4_Ballot_2.sol\":1923:1930  uint8 i */\n      dup1\n        /* \"contracts/4_Ballot_2.sol\":1918:2166  for (uint8 i = 0; i < proposals.length ; i++) {... */\n    tag_64:\n        /* \"contracts/4_Ballot_2.sol\":1940:1949  proposals */\n      0x01\n        /* \"contracts/4_Ballot_2.sol\":1940:1956  proposals.length */\n      dup1\n      sload\n      swap1\n      pop\n        /* \"contracts/4_Ballot_2.sol\":1936:1937  i */\n      dup2\n        /* \"contracts/4_Ballot_2.sol\":1936:1956  i < proposals.length */\n      0xff\n      and\n      lt\n        /* \"contracts/4_Ballot_2.sol\":1918:2166  for (uint8 i = 0; i < proposals.length ; i++) {... */\n      iszero\n      tag_65\n      jumpi\n        /* \"contracts/4_Ballot_2.sol\":2007:2027  _numberOfWinnerVotes */\n      dup2\n        /* \"contracts/4_Ballot_2.sol\":1982:1991  proposals */\n      0x01\n        /* \"contracts/4_Ballot_2.sol\":1992:1993  i */\n      dup3\n        /* \"contracts/4_Ballot_2.sol\":1982:1994  proposals[i] */\n      0xff\n      and\n      dup2\n      sload\n      dup2\n      lt\n      tag_67\n      jumpi\n      tag_68\n      tag_59\n      jump\t// in\n    tag_68:\n    tag_67:\n      swap1\n      0x00\n      mstore\n      keccak256(0x00, 0x20)\n      swap1\n      0x02\n      mul\n      add\n        /* \"contracts/4_Ballot_2.sol\":1982:2004  proposals[i].voteCount */\n      0x01\n      add\n      sload\n        /* \"contracts/4_Ballot_2.sol\":1982:2027  proposals[i].voteCount > _numberOfWinnerVotes */\n      gt\n        /* \"contracts/4_Ballot_2.sol\":1978:2156  if (proposals[i].voteCount > _numberOfWinnerVotes) {... */\n      iszero\n      tag_70\n      jumpi\n        /* \"contracts/4_Ballot_2.sol\":2061:2070  proposals */\n      0x01\n        /* \"contracts/4_Ballot_2.sol\":2071:2072  i */\n      dup2\n        /* \"contracts/4_Ballot_2.sol\":2061:2073  proposals[i] */\n      0xff\n      and\n      dup2\n      sload\n      dup2\n      lt\n      tag_71\n      jumpi\n      tag_72\n      tag_59\n      jump\t// in\n    tag_72:\n    tag_71:\n      swap1\n      0x00\n      mstore\n      keccak256(0x00, 0x20)\n      swap1\n      0x02\n      mul\n      add\n        /* \"contracts/4_Ballot_2.sol\":2061:2078  proposals[i].name */\n      0x00\n      add\n      sload\n        /* \"contracts/4_Ballot_2.sol\":2047:2078  _winnerName = proposals[i].name */\n      swap3\n      pop\n        /* \"contracts/4_Ballot_2.sol\":2119:2128  proposals */\n      0x01\n        /* \"contracts/4_Ballot_2.sol\":2129:2130  i */\n      dup2\n        /* \"contracts/4_Ballot_2.sol\":2119:2131  proposals[i] */\n      0xff\n      and\n      dup2\n      sload\n      dup2\n      lt\n      tag_74\n      jumpi\n      tag_75\n      tag_59\n      jump\t// in\n    tag_75:\n    tag_74:\n      swap1\n      0x00\n      mstore\n      keccak256(0x00, 0x20)\n      swap1\n      0x02\n      mul\n      add\n        /* \"contracts/4_Ballot_2.sol\":2119:2141  proposals[i].voteCount */\n      0x01\n      add\n      sload\n        /* \"contracts/4_Ballot_2.sol\":2096:2141  _numberOfWinnerVotes = proposals[i].voteCount */\n      swap2\n      pop\n        /* \"contracts/4_Ballot_2.sol\":1978:2156  if (proposals[i].voteCount > _numberOfWinnerVotes) {... */\n    tag_70:\n        /* \"contracts/4_Ballot_2.sol\":1959:1962  i++ */\n      dup1\n      dup1\n      tag_77\n      swap1\n      tag_78\n      jump\t// in\n    tag_77:\n      swap2\n      pop\n      pop\n        /* \"contracts/4_Ballot_2.sol\":1918:2166  for (uint8 i = 0; i < proposals.length ; i++) {... */\n      jump(tag_64)\n    tag_65:\n      pop\n        /* \"contracts/4_Ballot_2.sol\":1840:2172  {... */\n      pop\n      pop\n        /* \"contracts/4_Ballot_2.sol\":1776:2172  function winnerName() public view returns (bytes32 _winnerName) {... */\n      swap1\n      jump\t// out\n        /* \"#utility.yul\":7:146   */\n    tag_80:\n        /* \"#utility.yul\":53:58   */\n      0x00\n        /* \"#utility.yul\":91:97   */\n      dup2\n        /* \"#utility.yul\":78:98   */\n      calldataload\n        /* \"#utility.yul\":69:98   */\n      swap1\n      pop\n        /* \"#utility.yul\":107:140   */\n      tag_82\n        /* \"#utility.yul\":134:139   */\n      dup2\n        /* \"#utility.yul\":107:140   */\n      tag_83\n      jump\t// in\n    tag_82:\n        /* \"#utility.yul\":7:146   */\n      swap3\n      swap2\n      pop\n      pop\n      jump\t// out\n        /* \"#utility.yul\":152:291   */\n    tag_84:\n        /* \"#utility.yul\":198:203   */\n      0x00\n        /* \"#utility.yul\":236:242   */\n      dup2\n        /* \"#utility.yul\":223:243   */\n      calldataload\n        /* \"#utility.yul\":214:243   */\n      swap1\n      pop\n        /* \"#utility.yul\":252:285   */\n      tag_86\n        /* \"#utility.yul\":279:284   */\n      dup2\n        /* \"#utility.yul\":252:285   */\n      tag_87\n      jump\t// in\n    tag_86:\n        /* \"#utility.yul\":152:291   */\n      swap3\n      swap2\n      pop\n      pop\n      jump\t// out\n        /* \"#utility.yul\":297:432   */\n    tag_88:\n        /* \"#utility.yul\":341:346   */\n      0x00\n        /* \"#utility.yul\":379:385   */\n      dup2\n        /* \"#utility.yul\":366:386   */\n      calldataload\n        /* \"#utility.yul\":357:386   */\n      swap1\n      pop\n        /* \"#utility.yul\":395:426   */\n      tag_90\n        /* \"#utility.yul\":420:425   */\n      dup2\n        /* \"#utility.yul\":395:426   */\n      tag_91\n      jump\t// in\n    tag_90:\n        /* \"#utility.yul\":297:432   */\n      swap3\n      swap2\n      pop\n      pop\n      jump\t// out\n        /* \"#utility.yul\":438:767   */\n    tag_20:\n        /* \"#utility.yul\":497:503   */\n      0x00\n        /* \"#utility.yul\":546:548   */\n      0x20\n        /* \"#utility.yul\":534:543   */\n      dup3\n        /* \"#utility.yul\":525:532   */\n      dup5\n        /* \"#utility.yul\":521:544   */\n      sub\n        /* \"#utility.yul\":517:549   */\n      slt\n        /* \"#utility.yul\":514:633   */\n      iszero\n      tag_93\n      jumpi\n        /* \"#utility.yul\":552:631   */\n      tag_94\n      tag_95\n      jump\t// in\n    tag_94:\n        /* \"#utility.yul\":514:633   */\n    tag_93:\n        /* \"#utility.yul\":672:673   */\n      0x00\n        /* \"#utility.yul\":697:750   */\n      tag_96\n        /* \"#utility.yul\":742:749   */\n      dup5\n        /* \"#utility.yul\":733:739   */\n      dup3\n        /* \"#utility.yul\":722:731   */\n      dup6\n        /* \"#utility.yul\":718:740   */\n      add\n        /* \"#utility.yul\":697:750   */\n      tag_80\n      jump\t// in\n    tag_96:\n        /* \"#utility.yul\":687:750   */\n      swap2\n      pop\n        /* \"#utility.yul\":643:760   */\n      pop\n        /* \"#utility.yul\":438:767   */\n      swap3\n      swap2\n      pop\n      pop\n      jump\t// out\n        /* \"#utility.yul\":773:1102   */\n    tag_10:\n        /* \"#utility.yul\":832:838   */\n      0x00\n        /* \"#utility.yul\":881:883   */\n      0x20\n        /* \"#utility.yul\":869:878   */\n      dup3\n        /* \"#utility.yul\":860:867   */\n      dup5\n        /* \"#utility.yul\":856:879   */\n      sub\n        /* \"#utility.yul\":852:884   */\n      slt\n        /* \"#utility.yul\":849:968   */\n      iszero\n      tag_98\n      jumpi\n        /* \"#utility.yul\":887:966   */\n      tag_99\n      tag_95\n      jump\t// in\n    tag_99:\n        /* \"#utility.yul\":849:968   */\n    tag_98:\n        /* \"#utility.yul\":1007:1008   */\n      0x00\n        /* \"#utility.yul\":1032:1085   */\n      tag_100\n        /* \"#utility.yul\":1077:1084   */\n      dup5\n        /* \"#utility.yul\":1068:1074   */\n      dup3\n        /* \"#utility.yul\":1057:1066   */\n      dup6\n        /* \"#utility.yul\":1053:1075   */\n      add\n        /* \"#utility.yul\":1032:1085   */\n      tag_84\n      jump\t// in\n    tag_100:\n        /* \"#utility.yul\":1022:1085   */\n      swap2\n      pop\n        /* \"#utility.yul\":978:1095   */\n      pop\n        /* \"#utility.yul\":773:1102   */\n      swap3\n      swap2\n      pop\n      pop\n      jump\t// out\n        /* \"#utility.yul\":1108:1578   */\n    tag_24:\n        /* \"#utility.yul\":1174:1180   */\n      0x00\n        /* \"#utility.yul\":1182:1188   */\n      dup1\n        /* \"#utility.yul\":1231:1233   */\n      0x40\n        /* \"#utility.yul\":1219:1228   */\n      dup4\n        /* \"#utility.yul\":1210:1217   */\n      dup6\n        /* \"#utility.yul\":1206:1229   */\n      sub\n        /* \"#utility.yul\":1202:1234   */\n      slt\n        /* \"#utility.yul\":1199:1318   */\n      iszero\n      tag_102\n      jumpi\n        /* \"#utility.yul\":1237:1316   */\n      tag_103\n      tag_95\n      jump\t// in\n    tag_103:\n        /* \"#utility.yul\":1199:1318   */\n    tag_102:\n        /* \"#utility.yul\":1357:1358   */\n      0x00\n        /* \"#utility.yul\":1382:1433   */\n      tag_104\n        /* \"#utility.yul\":1425:1432   */\n      dup6\n        /* \"#utility.yul\":1416:1422   */\n      dup3\n        /* \"#utility.yul\":1405:1414   */\n      dup7\n        /* \"#utility.yul\":1401:1423   */\n      add\n        /* \"#utility.yul\":1382:1433   */\n      tag_88\n      jump\t// in\n    tag_104:\n        /* \"#utility.yul\":1372:1433   */\n      swap3\n      pop\n        /* \"#utility.yul\":1328:1443   */\n      pop\n        /* \"#utility.yul\":1482:1484   */\n      0x20\n        /* \"#utility.yul\":1508:1561   */\n      tag_105\n        /* \"#utility.yul\":1553:1560   */\n      dup6\n        /* \"#utility.yul\":1544:1550   */\n      dup3\n        /* \"#utility.yul\":1533:1542   */\n      dup7\n        /* \"#utility.yul\":1529:1551   */\n      add\n        /* \"#utility.yul\":1508:1561   */\n      tag_80\n      jump\t// in\n    tag_105:\n        /* \"#utility.yul\":1498:1561   */\n      swap2\n      pop\n        /* \"#utility.yul\":1453:1571   */\n      pop\n        /* \"#utility.yul\":1108:1578   */\n      swap3\n      pop\n      swap3\n      swap1\n      pop\n      jump\t// out\n        /* \"#utility.yul\":1584:1702   */\n    tag_106:\n        /* \"#utility.yul\":1671:1695   */\n      tag_108\n        /* \"#utility.yul\":1689:1694   */\n      dup2\n        /* \"#utility.yul\":1671:1695   */\n      tag_109\n      jump\t// in\n    tag_108:\n        /* \"#utility.yul\":1666:1669   */\n      dup3\n        /* \"#utility.yul\":1659:1696   */\n      mstore\n        /* \"#utility.yul\":1584:1702   */\n      pop\n      pop\n      jump\t// out\n        /* \"#utility.yul\":1708:1826   */\n    tag_110:\n        /* \"#utility.yul\":1795:1819   */\n      tag_112\n        /* \"#utility.yul\":1813:1818   */\n      dup2\n        /* \"#utility.yul\":1795:1819   */\n      tag_113\n      jump\t// in\n    tag_112:\n        /* \"#utility.yul\":1790:1793   */\n      dup3\n        /* \"#utility.yul\":1783:1820   */\n      mstore\n        /* \"#utility.yul\":1708:1826   */\n      pop\n      pop\n      jump\t// out\n        /* \"#utility.yul\":1832:2198   */\n    tag_114:\n        /* \"#utility.yul\":1974:1977   */\n      0x00\n        /* \"#utility.yul\":1995:2062   */\n      tag_116\n        /* \"#utility.yul\":2059:2061   */\n      0x21\n        /* \"#utility.yul\":2054:2057   */\n      dup4\n        /* \"#utility.yul\":1995:2062   */\n      tag_117\n      jump\t// in\n    tag_116:\n        /* \"#utility.yul\":1988:2062   */\n      swap2\n      pop\n        /* \"#utility.yul\":2071:2164   */\n      tag_118\n        /* \"#utility.yul\":2160:2163   */\n      dup3\n        /* \"#utility.yul\":2071:2164   */\n      tag_119\n      jump\t// in\n    tag_118:\n        /* \"#utility.yul\":2189:2191   */\n      0x40\n        /* \"#utility.yul\":2184:2187   */\n      dup3\n        /* \"#utility.yul\":2180:2192   */\n      add\n        /* \"#utility.yul\":2173:2192   */\n      swap1\n      pop\n        /* \"#utility.yul\":1832:2198   */\n      swap2\n      swap1\n      pop\n      jump\t// out\n        /* \"#utility.yul\":2204:2570   */\n    tag_120:\n        /* \"#utility.yul\":2346:2349   */\n      0x00\n        /* \"#utility.yul\":2367:2434   */\n      tag_122\n        /* \"#utility.yul\":2431:2433   */\n      0x28\n        /* \"#utility.yul\":2426:2429   */\n      dup4\n        /* \"#utility.yul\":2367:2434   */\n      tag_117\n      jump\t// in\n    tag_122:\n        /* \"#utility.yul\":2360:2434   */\n      swap2\n      pop\n        /* \"#utility.yul\":2443:2536   */\n      tag_123\n        /* \"#utility.yul\":2532:2535   */\n      dup3\n        /* \"#utility.yul\":2443:2536   */\n      tag_124\n      jump\t// in\n    tag_123:\n        /* \"#utility.yul\":2561:2563   */\n      0x40\n        /* \"#utility.yul\":2556:2559   */\n      dup3\n        /* \"#utility.yul\":2552:2564   */\n      add\n        /* \"#utility.yul\":2545:2564   */\n      swap1\n      pop\n        /* \"#utility.yul\":2204:2570   */\n      swap2\n      swap1\n      pop\n      jump\t// out\n        /* \"#utility.yul\":2576:2942   */\n    tag_125:\n        /* \"#utility.yul\":2718:2721   */\n      0x00\n        /* \"#utility.yul\":2739:2806   */\n      tag_127\n        /* \"#utility.yul\":2803:2805   */\n      0x21\n        /* \"#utility.yul\":2798:2801   */\n      dup4\n        /* \"#utility.yul\":2739:2806   */\n      tag_117\n      jump\t// in\n    tag_127:\n        /* \"#utility.yul\":2732:2806   */\n      swap2\n      pop\n        /* \"#utility.yul\":2815:2908   */\n      tag_128\n        /* \"#utility.yul\":2904:2907   */\n      dup3\n        /* \"#utility.yul\":2815:2908   */\n      tag_129\n      jump\t// in\n    tag_128:\n        /* \"#utility.yul\":2933:2935   */\n      0x40\n        /* \"#utility.yul\":2928:2931   */\n      dup3\n        /* \"#utility.yul\":2924:2936   */\n      add\n        /* \"#utility.yul\":2917:2936   */\n      swap1\n      pop\n        /* \"#utility.yul\":2576:2942   */\n      swap2\n      swap1\n      pop\n      jump\t// out\n        /* \"#utility.yul\":2948:3314   */\n    tag_130:\n        /* \"#utility.yul\":3090:3093   */\n      0x00\n        /* \"#utility.yul\":3111:3178   */\n      tag_132\n        /* \"#utility.yul\":3175:3177   */\n      0x2e\n        /* \"#utility.yul\":3170:3173   */\n      dup4\n        /* \"#utility.yul\":3111:3178   */\n      tag_117\n      jump\t// in\n    tag_132:\n        /* \"#utility.yul\":3104:3178   */\n      swap2\n      pop\n        /* \"#utility.yul\":3187:3280   */\n      tag_133\n        /* \"#utility.yul\":3276:3279   */\n      dup3\n        /* \"#utility.yul\":3187:3280   */\n      tag_134\n      jump\t// in\n    tag_133:\n        /* \"#utility.yul\":3305:3307   */\n      0x40\n        /* \"#utility.yul\":3300:3303   */\n      dup3\n        /* \"#utility.yul\":3296:3308   */\n      add\n        /* \"#utility.yul\":3289:3308   */\n      swap1\n      pop\n        /* \"#utility.yul\":2948:3314   */\n      swap2\n      swap1\n      pop\n      jump\t// out\n        /* \"#utility.yul\":3320:3686   */\n    tag_135:\n        /* \"#utility.yul\":3462:3465   */\n      0x00\n        /* \"#utility.yul\":3483:3550   */\n      tag_137\n        /* \"#utility.yul\":3547:3549   */\n      0x18\n        /* \"#utility.yul\":3542:3545   */\n      dup4\n        /* \"#utility.yul\":3483:3550   */\n      tag_117\n      jump\t// in\n    tag_137:\n        /* \"#utility.yul\":3476:3550   */\n      swap2\n      pop\n        /* \"#utility.yul\":3559:3652   */\n      tag_138\n        /* \"#utility.yul\":3648:3651   */\n      dup3\n        /* \"#utility.yul\":3559:3652   */\n      tag_139\n      jump\t// in\n    tag_138:\n        /* \"#utility.yul\":3677:3679   */\n      0x20\n        /* \"#utility.yul\":3672:3675   */\n      dup3\n        /* \"#utility.yul\":3668:3680   */\n      add\n        /* \"#utility.yul\":3661:3680   */\n      swap1\n      pop\n        /* \"#utility.yul\":3320:3686   */\n      swap2\n      swap1\n      pop\n      jump\t// out\n        /* \"#utility.yul\":3692:3810   */\n    tag_140:\n        /* \"#utility.yul\":3779:3803   */\n      tag_142\n        /* \"#utility.yul\":3797:3802   */\n      dup2\n        /* \"#utility.yul\":3779:3803   */\n      tag_143\n      jump\t// in\n    tag_142:\n        /* \"#utility.yul\":3774:3777   */\n      dup3\n        /* \"#utility.yul\":3767:3804   */\n      mstore\n        /* \"#utility.yul\":3692:3810   */\n      pop\n      pop\n      jump\t// out\n        /* \"#utility.yul\":3816:4038   */\n    tag_17:\n        /* \"#utility.yul\":3909:3913   */\n      0x00\n        /* \"#utility.yul\":3947:3949   */\n      0x20\n        /* \"#utility.yul\":3936:3945   */\n      dup3\n        /* \"#utility.yul\":3932:3950   */\n      add\n        /* \"#utility.yul\":3924:3950   */\n      swap1\n      pop\n        /* \"#utility.yul\":3960:4031   */\n      tag_145\n        /* \"#utility.yul\":4028:4029   */\n      0x00\n        /* \"#utility.yul\":4017:4026   */\n      dup4\n        /* \"#utility.yul\":4013:4030   */\n      add\n        /* \"#utility.yul\":4004:4010   */\n      dup5\n        /* \"#utility.yul\":3960:4031   */\n      tag_106\n      jump\t// in\n    tag_145:\n        /* \"#utility.yul\":3816:4038   */\n      swap3\n      swap2\n      pop\n      pop\n      jump\t// out\n        /* \"#utility.yul\":4044:4266   */\n    tag_29:\n        /* \"#utility.yul\":4137:4141   */\n      0x00\n        /* \"#utility.yul\":4175:4177   */\n      0x20\n        /* \"#utility.yul\":4164:4173   */\n      dup3\n        /* \"#utility.yul\":4160:4178   */\n      add\n        /* \"#utility.yul\":4152:4178   */\n      swap1\n      pop\n        /* \"#utility.yul\":4188:4259   */\n      tag_147\n        /* \"#utility.yul\":4256:4257   */\n      0x00\n        /* \"#utility.yul\":4245:4254   */\n      dup4\n        /* \"#utility.yul\":4241:4258   */\n      add\n        /* \"#utility.yul\":4232:4238   */\n      dup5\n        /* \"#utility.yul\":4188:4259   */\n      tag_110\n      jump\t// in\n    tag_147:\n        /* \"#utility.yul\":4044:4266   */\n      swap3\n      swap2\n      pop\n      pop\n      jump\t// out\n        /* \"#utility.yul\":4272:4604   */\n    tag_13:\n        /* \"#utility.yul\":4393:4397   */\n      0x00\n        /* \"#utility.yul\":4431:4433   */\n      0x40\n        /* \"#utility.yul\":4420:4429   */\n      dup3\n        /* \"#utility.yul\":4416:4434   */\n      add\n        /* \"#utility.yul\":4408:4434   */\n      swap1\n      pop\n        /* \"#utility.yul\":4444:4515   */\n      tag_149\n        /* \"#utility.yul\":4512:4513   */\n      0x00\n        /* \"#utility.yul\":4501:4510   */\n      dup4\n        /* \"#utility.yul\":4497:4514   */\n      add\n        /* \"#utility.yul\":4488:4494   */\n      dup6\n        /* \"#utility.yul\":4444:4515   */\n      tag_110\n      jump\t// in\n    tag_149:\n        /* \"#utility.yul\":4525:4597   */\n      tag_150\n        /* \"#utility.yul\":4593:4595   */\n      0x20\n        /* \"#utility.yul\":4582:4591   */\n      dup4\n        /* \"#utility.yul\":4578:4596   */\n      add\n        /* \"#utility.yul\":4569:4575   */\n      dup5\n        /* \"#utility.yul\":4525:4597   */\n      tag_140\n      jump\t// in\n    tag_150:\n        /* \"#utility.yul\":4272:4604   */\n      swap4\n      swap3\n      pop\n      pop\n      pop\n      jump\t// out\n        /* \"#utility.yul\":4610:5029   */\n    tag_43:\n        /* \"#utility.yul\":4776:4780   */\n      0x00\n        /* \"#utility.yul\":4814:4816   */\n      0x20\n        /* \"#utility.yul\":4803:4812   */\n      dup3\n        /* \"#utility.yul\":4799:4817   */\n      add\n        /* \"#utility.yul\":4791:4817   */\n      swap1\n      pop\n        /* \"#utility.yul\":4863:4872   */\n      dup2\n        /* \"#utility.yul\":4857:4861   */\n      dup2\n        /* \"#utility.yul\":4853:4873   */\n      sub\n        /* \"#utility.yul\":4849:4850   */\n      0x00\n        /* \"#utility.yul\":4838:4847   */\n      dup4\n        /* \"#utility.yul\":4834:4851   */\n      add\n        /* \"#utility.yul\":4827:4874   */\n      mstore\n        /* \"#utility.yul\":4891:5022   */\n      tag_152\n        /* \"#utility.yul\":5017:5021   */\n      dup2\n        /* \"#utility.yul\":4891:5022   */\n      tag_114\n      jump\t// in\n    tag_152:\n        /* \"#utility.yul\":4883:5022   */\n      swap1\n      pop\n        /* \"#utility.yul\":4610:5029   */\n      swap2\n      swap1\n      pop\n      jump\t// out\n        /* \"#utility.yul\":5035:5454   */\n    tag_35:\n        /* \"#utility.yul\":5201:5205   */\n      0x00\n        /* \"#utility.yul\":5239:5241   */\n      0x20\n        /* \"#utility.yul\":5228:5237   */\n      dup3\n        /* \"#utility.yul\":5224:5242   */\n      add\n        /* \"#utility.yul\":5216:5242   */\n      swap1\n      pop\n        /* \"#utility.yul\":5288:5297   */\n      dup2\n        /* \"#utility.yul\":5282:5286   */\n      dup2\n        /* \"#utility.yul\":5278:5298   */\n      sub\n        /* \"#utility.yul\":5274:5275   */\n      0x00\n        /* \"#utility.yul\":5263:5272   */\n      dup4\n        /* \"#utility.yul\":5259:5276   */\n      add\n        /* \"#utility.yul\":5252:5299   */\n      mstore\n        /* \"#utility.yul\":5316:5447   */\n      tag_154\n        /* \"#utility.yul\":5442:5446   */\n      dup2\n        /* \"#utility.yul\":5316:5447   */\n      tag_120\n      jump\t// in\n    tag_154:\n        /* \"#utility.yul\":5308:5447   */\n      swap1\n      pop\n        /* \"#utility.yul\":5035:5454   */\n      swap2\n      swap1\n      pop\n      jump\t// out\n        /* \"#utility.yul\":5460:5879   */\n    tag_52:\n        /* \"#utility.yul\":5626:5630   */\n      0x00\n        /* \"#utility.yul\":5664:5666   */\n      0x20\n        /* \"#utility.yul\":5653:5662   */\n      dup3\n        /* \"#utility.yul\":5649:5667   */\n      add\n        /* \"#utility.yul\":5641:5667   */\n      swap1\n      pop\n        /* \"#utility.yul\":5713:5722   */\n      dup2\n        /* \"#utility.yul\":5707:5711   */\n      dup2\n        /* \"#utility.yul\":5703:5723   */\n      sub\n        /* \"#utility.yul\":5699:5700   */\n      0x00\n        /* \"#utility.yul\":5688:5697   */\n      dup4\n        /* \"#utility.yul\":5684:5701   */\n      add\n        /* \"#utility.yul\":5677:5724   */\n      mstore\n        /* \"#utility.yul\":5741:5872   */\n      tag_156\n        /* \"#utility.yul\":5867:5871   */\n      dup2\n        /* \"#utility.yul\":5741:5872   */\n      tag_125\n      jump\t// in\n    tag_156:\n        /* \"#utility.yul\":5733:5872   */\n      swap1\n      pop\n        /* \"#utility.yul\":5460:5879   */\n      swap2\n      swap1\n      pop\n      jump\t// out\n        /* \"#utility.yul\":5885:6304   */\n    tag_48:\n        /* \"#utility.yul\":6051:6055   */\n      0x00\n        /* \"#utility.yul\":6089:6091   */\n      0x20\n        /* \"#utility.yul\":6078:6087   */\n      dup3\n        /* \"#utility.yul\":6074:6092   */\n      add\n        /* \"#utility.yul\":6066:6092   */\n      swap1\n      pop\n        /* \"#utility.yul\":6138:6147   */\n      dup2\n        /* \"#utility.yul\":6132:6136   */\n      dup2\n        /* \"#utility.yul\":6128:6148   */\n      sub\n        /* \"#utility.yul\":6124:6125   */\n      0x00\n        /* \"#utility.yul\":6113:6122   */\n      dup4\n        /* \"#utility.yul\":6109:6126   */\n      add\n        /* \"#utility.yul\":6102:6149   */\n      mstore\n        /* \"#utility.yul\":6166:6297   */\n      tag_158\n        /* \"#utility.yul\":6292:6296   */\n      dup2\n        /* \"#utility.yul\":6166:6297   */\n      tag_130\n      jump\t// in\n    tag_158:\n        /* \"#utility.yul\":6158:6297   */\n      swap1\n      pop\n        /* \"#utility.yul\":5885:6304   */\n      swap2\n      swap1\n      pop\n      jump\t// out\n        /* \"#utility.yul\":6310:6729   */\n    tag_39:\n        /* \"#utility.yul\":6476:6480   */\n      0x00\n        /* \"#utility.yul\":6514:6516   */\n      0x20\n        /* \"#utility.yul\":6503:6512   */\n      dup3\n        /* \"#utility.yul\":6499:6517   */\n      add\n        /* \"#utility.yul\":6491:6517   */\n      swap1\n      pop\n        /* \"#utility.yul\":6563:6572   */\n      dup2\n        /* \"#utility.yul\":6557:6561   */\n      dup2\n        /* \"#utility.yul\":6553:6573   */\n      sub\n        /* \"#utility.yul\":6549:6550   */\n      0x00\n        /* \"#utility.yul\":6538:6547   */\n      dup4\n        /* \"#utility.yul\":6534:6551   */\n      add\n        /* \"#utility.yul\":6527:6574   */\n      mstore\n        /* \"#utility.yul\":6591:6722   */\n      tag_160\n        /* \"#utility.yul\":6717:6721   */\n      dup2\n        /* \"#utility.yul\":6591:6722   */\n      tag_135\n      jump\t// in\n    tag_160:\n        /* \"#utility.yul\":6583:6722   */\n      swap1\n      pop\n        /* \"#utility.yul\":6310:6729   */\n      swap2\n      swap1\n      pop\n      jump\t// out\n        /* \"#utility.yul\":6816:6985   */\n    tag_117:\n        /* \"#utility.yul\":6900:6911   */\n      0x00\n        /* \"#utility.yul\":6934:6940   */\n      dup3\n        /* \"#utility.yul\":6929:6932   */\n      dup3\n        /* \"#utility.yul\":6922:6941   */\n      mstore\n        /* \"#utility.yul\":6974:6978   */\n      0x20\n        /* \"#utility.yul\":6969:6972   */\n      dup3\n        /* \"#utility.yul\":6965:6979   */\n      add\n        /* \"#utility.yul\":6950:6979   */\n      swap1\n      pop\n        /* \"#utility.yul\":6816:6985   */\n      swap3\n      swap2\n      pop\n      pop\n      jump\t// out\n        /* \"#utility.yul\":6991:7296   */\n    tag_62:\n        /* \"#utility.yul\":7031:7034   */\n      0x00\n        /* \"#utility.yul\":7050:7070   */\n      tag_165\n        /* \"#utility.yul\":7068:7069   */\n      dup3\n        /* \"#utility.yul\":7050:7070   */\n      tag_143\n      jump\t// in\n    tag_165:\n        /* \"#utility.yul\":7045:7070   */\n      swap2\n      pop\n        /* \"#utility.yul\":7084:7104   */\n      tag_166\n        /* \"#utility.yul\":7102:7103   */\n      dup4\n        /* \"#utility.yul\":7084:7104   */\n      tag_143\n      jump\t// in\n    tag_166:\n        /* \"#utility.yul\":7079:7104   */\n      swap3\n      pop\n        /* \"#utility.yul\":7238:7239   */\n      dup3\n        /* \"#utility.yul\":7170:7236   */\n      0xffffffffffffffffffffffffffffffffffffffffffffffffffffffffffffffff\n        /* \"#utility.yul\":7166:7240   */\n      sub\n        /* \"#utility.yul\":7163:7164   */\n      dup3\n        /* \"#utility.yul\":7160:7241   */\n      gt\n        /* \"#utility.yul\":7157:7264   */\n      iszero\n      tag_167\n      jumpi\n        /* \"#utility.yul\":7244:7262   */\n      tag_168\n      tag_169\n      jump\t// in\n    tag_168:\n        /* \"#utility.yul\":7157:7264   */\n    tag_167:\n        /* \"#utility.yul\":7288:7289   */\n      dup3\n        /* \"#utility.yul\":7285:7286   */\n      dup3\n        /* \"#utility.yul\":7281:7290   */\n      add\n        /* \"#utility.yul\":7274:7290   */\n      swap1\n      pop\n        /* \"#utility.yul\":6991:7296   */\n      swap3\n      swap2\n      pop\n      pop\n      jump\t// out\n        /* \"#utility.yul\":7302:7398   */\n    tag_109:\n        /* \"#utility.yul\":7339:7346   */\n      0x00\n        /* \"#utility.yul\":7368:7392   */\n      tag_171\n        /* \"#utility.yul\":7386:7391   */\n      dup3\n        /* \"#utility.yul\":7368:7392   */\n      tag_172\n      jump\t// in\n    tag_171:\n        /* \"#utility.yul\":7357:7392   */\n      swap1\n      pop\n        /* \"#utility.yul\":7302:7398   */\n      swap2\n      swap1\n      pop\n      jump\t// out\n        /* \"#utility.yul\":7404:7481   */\n    tag_113:\n        /* \"#utility.yul\":7441:7448   */\n      0x00\n        /* \"#utility.yul\":7470:7475   */\n      dup2\n        /* \"#utility.yul\":7459:7475   */\n      swap1\n      pop\n        /* \"#utility.yul\":7404:7481   */\n      swap2\n      swap1\n      pop\n      jump\t// out\n        /* \"#utility.yul\":7487:7613   */\n    tag_172:\n        /* \"#utility.yul\":7524:7531   */\n      0x00\n        /* \"#utility.yul\":7564:7606   */\n      0xffffffffffffffffffffffffffffffffffffffff\n        /* \"#utility.yul\":7557:7562   */\n      dup3\n        /* \"#utility.yul\":7553:7607   */\n      and\n        /* \"#utility.yul\":7542:7607   */\n      swap1\n      pop\n        /* \"#utility.yul\":7487:7613   */\n      swap2\n      swap1\n      pop\n      jump\t// out\n        /* \"#utility.yul\":7619:7696   */\n    tag_143:\n        /* \"#utility.yul\":7656:7663   */\n      0x00\n        /* \"#utility.yul\":7685:7690   */\n      dup2\n        /* \"#utility.yul\":7674:7690   */\n      swap1\n      pop\n        /* \"#utility.yul\":7619:7696   */\n      swap2\n      swap1\n      pop\n      jump\t// out\n        /* \"#utility.yul\":7702:7788   */\n    tag_176:\n        /* \"#utility.yul\":7737:7744   */\n      0x00\n        /* \"#utility.yul\":7777:7781   */\n      0xff\n        /* \"#utility.yul\":7770:7775   */\n      dup3\n        /* \"#utility.yul\":7766:7782   */\n      and\n        /* \"#utility.yul\":7755:7782   */\n      swap1\n      pop\n        /* \"#utility.yul\":7702:7788   */\n      swap2\n      swap1\n      pop\n      jump\t// out\n        /* \"#utility.yul\":7794:7961   */\n    tag_78:\n        /* \"#utility.yul\":7831:7834   */\n      0x00\n        /* \"#utility.yul\":7854:7876   */\n      tag_179\n        /* \"#utility.yul\":7870:7875   */\n      dup3\n        /* \"#utility.yul\":7854:7876   */\n      tag_176\n      jump\t// in\n    tag_179:\n        /* \"#utility.yul\":7845:7876   */\n      swap2\n      pop\n        /* \"#utility.yul\":7898:7902   */\n      0xff\n        /* \"#utility.yul\":7891:7896   */\n      dup3\n        /* \"#utility.yul\":7888:7903   */\n      eq\n        /* \"#utility.yul\":7885:7926   */\n      iszero\n      tag_180\n      jumpi\n        /* \"#utility.yul\":7906:7924   */\n      tag_181\n      tag_169\n      jump\t// in\n    tag_181:\n        /* \"#utility.yul\":7885:7926   */\n    tag_180:\n        /* \"#utility.yul\":7953:7954   */\n      0x01\n        /* \"#utility.yul\":7946:7951   */\n      dup3\n        /* \"#utility.yul\":7942:7955   */\n      add\n        /* \"#utility.yul\":7935:7955   */\n      swap1\n      pop\n        /* \"#utility.yul\":7794:7961   */\n      swap2\n      swap1\n      pop\n      jump\t// out\n        /* \"#utility.yul\":7967:8147   */\n    tag_169:\n        /* \"#utility.yul\":8015:8092   */\n      0x4e487b7100000000000000000000000000000000000000000000000000000000\n        /* \"#utility.yul\":8012:8013   */\n      0x00\n        /* \"#utility.yul\":8005:8093   */\n      mstore\n        /* \"#utility.yul\":8112:8116   */\n      0x11\n        /* \"#utility.yul\":8109:8110   */\n      0x04\n        /* \"#utility.yul\":8102:8117   */\n      mstore\n        /* \"#utility.yul\":8136:8140   */\n      0x24\n        /* \"#utility.yul\":8133:8134   */\n      0x00\n        /* \"#utility.yul\":8126:8141   */\n      revert\n        /* \"#utility.yul\":8153:8333   */\n    tag_59:\n        /* \"#utility.yul\":8201:8278   */\n      0x4e487b7100000000000000000000000000000000000000000000000000000000\n        /* \"#utility.yul\":8198:8199   */\n      0x00\n        /* \"#utility.yul\":8191:8279   */\n      mstore\n        /* \"#utility.yul\":8298:8302   */\n      0x32\n        /* \"#utility.yul\":8295:8296   */\n      0x04\n        /* \"#utility.yul\":8288:8303   */\n      mstore\n        /* \"#utility.yul\":8322:8326   */\n      0x24\n        /* \"#utility.yul\":8319:8320   */\n      0x00\n        /* \"#utility.yul\":8312:8327   */\n      revert\n        /* \"#utility.yul\":8462:8579   */\n    tag_95:\n        /* \"#utility.yul\":8571:8572   */\n      0x00\n        /* \"#utility.yul\":8568:8569   */\n      dup1\n        /* \"#utility.yul\":8561:8573   */\n      revert\n        /* \"#utility.yul\":8585:8805   */\n    tag_119:\n        /* \"#utility.yul\":8725:8759   */\n      0x596f75206861766520616c7265616479206120726967687420746f20766f7465\n        /* \"#utility.yul\":8721:8722   */\n      0x00\n        /* \"#utility.yul\":8713:8719   */\n      dup3\n        /* \"#utility.yul\":8709:8723   */\n      add\n        /* \"#utility.yul\":8702:8760   */\n      mstore\n        /* \"#utility.yul\":8794:8797   */\n      0x2e00000000000000000000000000000000000000000000000000000000000000\n        /* \"#utility.yul\":8789:8791   */\n      0x20\n        /* \"#utility.yul\":8781:8787   */\n      dup3\n        /* \"#utility.yul\":8777:8792   */\n      add\n        /* \"#utility.yul\":8770:8798   */\n      mstore\n        /* \"#utility.yul\":8585:8805   */\n      pop\n      jump\t// out\n        /* \"#utility.yul\":8811:9038   */\n    tag_124:\n        /* \"#utility.yul\":8951:8985   */\n      0x4f6e6c79206368616972706572736f6e2063616e206769766520726967687420\n        /* \"#utility.yul\":8947:8948   */\n      0x00\n        /* \"#utility.yul\":8939:8945   */\n      dup3\n        /* \"#utility.yul\":8935:8949   */\n      add\n        /* \"#utility.yul\":8928:8986   */\n      mstore\n        /* \"#utility.yul\":9020:9030   */\n      0x746f20766f74652e000000000000000000000000000000000000000000000000\n        /* \"#utility.yul\":9015:9017   */\n      0x20\n        /* \"#utility.yul\":9007:9013   */\n      dup3\n        /* \"#utility.yul\":9003:9018   */\n      add\n        /* \"#utility.yul\":8996:9031   */\n      mstore\n        /* \"#utility.yul\":8811:9038   */\n      pop\n      jump\t// out\n        /* \"#utility.yul\":9044:9264   */\n    tag_129:\n        /* \"#utility.yul\":9184:9218   */\n      0x596f7520646f6e277420686176652074686520726967687420746f20766f7465\n        /* \"#utility.yul\":9180:9181   */\n      0x00\n        /* \"#utility.yul\":9172:9178   */\n      dup3\n        /* \"#utility.yul\":9168:9182   */\n      add\n        /* \"#utility.yul\":9161:9219   */\n      mstore\n        /* \"#utility.yul\":9253:9256   */\n      0x2e00000000000000000000000000000000000000000000000000000000000000\n        /* \"#utility.yul\":9248:9250   */\n      0x20\n        /* \"#utility.yul\":9240:9246   */\n      dup3\n        /* \"#utility.yul\":9236:9251   */\n      add\n        /* \"#utility.yul\":9229:9257   */\n      mstore\n        /* \"#utility.yul\":9044:9264   */\n      pop\n      jump\t// out\n        /* \"#utility.yul\":9270:9503   */\n    tag_134:\n        /* \"#utility.yul\":9410:9444   */\n      0x596f7520617265206e6f7420616c6c6f77656420746f20766f74652077697468\n        /* \"#utility.yul\":9406:9407   */\n      0x00\n        /* \"#utility.yul\":9398:9404   */\n      dup3\n        /* \"#utility.yul\":9394:9408   */\n      add\n        /* \"#utility.yul\":9387:9445   */\n      mstore\n        /* \"#utility.yul\":9479:9495   */\n      0x207468697320616464726573732e000000000000000000000000000000000000\n        /* \"#utility.yul\":9474:9476   */\n      0x20\n        /* \"#utility.yul\":9466:9472   */\n      dup3\n        /* \"#utility.yul\":9462:9477   */\n      add\n        /* \"#utility.yul\":9455:9496   */\n      mstore\n        /* \"#utility.yul\":9270:9503   */\n      pop\n      jump\t// out\n        /* \"#utility.yul\":9509:9683   */\n    tag_139:\n        /* \"#utility.yul\":9649:9675   */\n      0x54686520766f74657220616c726561647920766f7465642e0000000000000000\n        /* \"#utility.yul\":9645:9646   */\n      0x00\n        /* \"#utility.yul\":9637:9643   */\n      dup3\n        /* \"#utility.yul\":9633:9647   */\n      add\n        /* \"#utility.yul\":9626:9676   */\n      mstore\n        /* \"#utility.yul\":9509:9683   */\n      pop\n      jump\t// out\n        /* \"#utility.yul\":9689:9811   */\n    tag_83:\n        /* \"#utility.yul\":9762:9786   */\n      tag_193\n        /* \"#utility.yul\":9780:9785   */\n      dup2\n        /* \"#utility.yul\":9762:9786   */\n      tag_109\n      jump\t// in\n    tag_193:\n        /* \"#utility.yul\":9755:9760   */\n      dup2\n        /* \"#utility.yul\":9752:9787   */\n      eq\n        /* \"#utility.yul\":9742:9805   */\n      tag_194\n      jumpi\n        /* \"#utility.yul\":9801:9802   */\n      0x00\n        /* \"#utility.yul\":9798:9799   */\n      dup1\n        /* \"#utility.yul\":9791:9803   */\n      revert\n        /* \"#utility.yul\":9742:9805   */\n    tag_194:\n        /* \"#utility.yul\":9689:9811   */\n      pop\n      jump\t// out\n        /* \"#utility.yul\":9817:9939   */\n    tag_87:\n        /* \"#utility.yul\":9890:9914   */\n      tag_196\n        /* \"#utility.yul\":9908:9913   */\n      dup2\n        /* \"#utility.yul\":9890:9914   */\n      tag_143\n      jump\t// in\n    tag_196:\n        /* \"#utility.yul\":9883:9888   */\n      dup2\n        /* \"#utility.yul\":9880:9915   */\n      eq\n        /* \"#utility.yul\":9870:9933   */\n      tag_197\n      jumpi\n        /* \"#utility.yul\":9929:9930   */\n      0x00\n        /* \"#utility.yul\":9926:9927   */\n      dup1\n        /* \"#utility.yul\":9919:9931   */\n      revert\n        /* \"#utility.yul\":9870:9933   */\n    tag_197:\n        /* \"#utility.yul\":9817:9939   */\n      pop\n      jump\t// out\n        /* \"#utility.yul\":9945:10063   */\n    tag_91:\n        /* \"#utility.yul\":10016:10038   */\n      tag_199\n        /* \"#utility.yul\":10032:10037   */\n      dup2\n        /* \"#utility.yul\":10016:10038   */\n      tag_176\n      jump\t// in\n    tag_199:\n        /* \"#utility.yul\":10009:10014   */\n      dup2\n        /* \"#utility.yul\":10006:10039   */\n      eq\n        /* \"#utility.yul\":9996:10057   */\n      tag_200\n      jumpi\n        /* \"#utility.yul\":10053:10054   */\n      0x00\n        /* \"#utility.yul\":10050:10051   */\n      dup1\n        /* \"#utility.yul\":10043:10055   */\n      revert\n        /* \"#utility.yul\":9996:10057   */\n    tag_200:\n        /* \"#utility.yul\":9945:10063   */\n      pop\n      jump\t// out\n\n    auxdata: 0xa264697066735822122056cedd7a3f2098575919ff968fb6c8a803b682b25241cab8d899e88dec15832064736f6c63430008070033\n}\n",
				"bytecode": {
					"linkReferences": {},
					"object": "60806040523480156200001157600080fd5b506040516200111f3803806200111f83398181016040528101906200003791906200025f565b33600260006101000a81548173ffffffffffffffffffffffffffffffffffffffff021916908373ffffffffffffffffffffffffffffffffffffffff1602179055506001600080600260009054906101000a900473ffffffffffffffffffffffffffffffffffffffff1673ffffffffffffffffffffffffffffffffffffffff1673ffffffffffffffffffffffffffffffffffffffff16815260200190815260200160002060000160026101000a81548163ffffffff021916908363ffffffff16021790555060005b81518110156200019257600160405180604001604052808484815181106200012b576200012a620003cf565b5b6020026020010151815260200160008152509080600181540180825580915050600190039060005260206000209060020201600090919091909150600082015181600001556020820151816001015550508080620001899062000352565b915050620000fe565b50506200046c565b6000620001b1620001ab84620002d9565b620002b0565b90508083825260208201905082856020860282011115620001d757620001d662000432565b5b60005b858110156200020b5781620001f0888262000248565b845260208401935060208301925050600181019050620001da565b5050509392505050565b600082601f8301126200022d576200022c6200042d565b5b81516200023f8482602086016200019a565b91505092915050565b600081519050620002598162000452565b92915050565b6000602082840312156200027857620002776200043c565b5b600082015167ffffffffffffffff81111562000299576200029862000437565b5b620002a78482850162000215565b91505092915050565b6000620002bc620002cf565b9050620002ca82826200031c565b919050565b6000604051905090565b600067ffffffffffffffff821115620002f757620002f6620003fe565b5b602082029050602081019050919050565b6000819050919050565b6000819050919050565b620003278262000441565b810181811067ffffffffffffffff82111715620003495762000348620003fe565b5b80604052505050565b60006200035f8262000312565b91507fffffffffffffffffffffffffffffffffffffffffffffffffffffffffffffffff821415620003955762000394620003a0565b5b600182019050919050565b7f4e487b7100000000000000000000000000000000000000000000000000000000600052601160045260246000fd5b7f4e487b7100000000000000000000000000000000000000000000000000000000600052603260045260246000fd5b7f4e487b7100000000000000000000000000000000000000000000000000000000600052604160045260246000fd5b600080fd5b600080fd5b600080fd5b600080fd5b6000601f19601f8301169050919050565b6200045d8162000308565b81146200046957600080fd5b50565b610ca3806200047c6000396000f3fe608060405234801561001057600080fd5b50600436106100575760003560e01c8063013cf08b1461005c57806387f7b9751461008d5780639e7b8d61146100ab578063b81c6453146100c7578063e2ba53f0146100e3575b600080fd5b61007660048036038101906100719190610734565b610101565b6040516100849291906108b3565b60405180910390f35b610095610135565b6040516100a2919061087d565b60405180910390f35b6100c560048036038101906100c09190610707565b61015b565b005b6100e160048036038101906100dc9190610761565b61037c565b005b6100eb610611565b6040516100f89190610898565b60405180910390f35b6001818154811061011157600080fd5b90600052602060002090600202016000915090508060000154908060010154905082565b600260009054906101000a900473ffffffffffffffffffffffffffffffffffffffff1681565b3373ffffffffffffffffffffffffffffffffffffffff16600260009054906101000a900473ffffffffffffffffffffffffffffffffffffffff1673ffffffffffffffffffffffffffffffffffffffff16146101eb576040517f08c379a00000000000000000000000000000000000000000000000000000000081526004016101e2906108fc565b60405180910390fd5b806000808273ffffffffffffffffffffffffffffffffffffffff1673ffffffffffffffffffffffffffffffffffffffff16815260200190815260200160002060000160009054906101000a900460ff161561027b576040517f08c379a00000000000000000000000000000000000000000000000000000000081526004016102729061095c565b60405180910390fd5b8160008060008373ffffffffffffffffffffffffffffffffffffffff1673ffffffffffffffffffffffffffffffffffffffff16815260200190815260200160002060000160029054906101000a900463ffffffff1663ffffffff1614610316576040517f08c379a000000000000000000000000000000000000000000000000000000000815260040161030d906108dc565b60405180910390fd5b60016000808573ffffffffffffffffffffffffffffffffffffffff1673ffffffffffffffffffffffffffffffffffffffff16815260200190815260200160002060000160026101000a81548163ffffffff021916908363ffffffff160217905550505050565b803373ffffffffffffffffffffffffffffffffffffffff168173ffffffffffffffffffffffffffffffffffffffff16146103eb576040517f08c379a00000000000000000000000000000000000000000000000000000000081526004016103e29061093c565b60405180910390fd5b8160008060008373ffffffffffffffffffffffffffffffffffffffff1673ffffffffffffffffffffffffffffffffffffffff16815260200190815260200160002060000160029054906101000a900463ffffffff1663ffffffff161415610487576040517f08c379a000000000000000000000000000000000000000000000000000000000815260040161047e9061091c565b60405180910390fd5b826000808273ffffffffffffffffffffffffffffffffffffffff1673ffffffffffffffffffffffffffffffffffffffff16815260200190815260200160002060000160009054906101000a900460ff1615610517576040517f08c379a000000000000000000000000000000000000000000000000000000000815260040161050e9061095c565b60405180910390fd5b60016000808673ffffffffffffffffffffffffffffffffffffffff1673ffffffffffffffffffffffffffffffffffffffff16815260200190815260200160002060000160006101000a81548160ff021916908315150217905550846000808673ffffffffffffffffffffffffffffffffffffffff1673ffffffffffffffffffffffffffffffffffffffff16815260200190815260200160002060000160016101000a81548160ff021916908360ff1602179055506001808660ff16815481106105e3576105e2610a8f565b5b90600052602060002090600202016001016000828254610603919061098d565b925050819055505050505050565b6000806000805b6001805490508160ff1610156106c2578160018260ff16815481106106405761063f610a8f565b5b90600052602060002090600202016001015411156106af5760018160ff168154811061066f5761066e610a8f565b5b906000526020600020906002020160000154925060018160ff168154811061069a57610699610a8f565b5b90600052602060002090600202016001015491505b80806106ba90610a36565b915050610618565b50505090565b6000813590506106d781610c28565b92915050565b6000813590506106ec81610c3f565b92915050565b60008135905061070181610c56565b92915050565b60006020828403121561071d5761071c610abe565b5b600061072b848285016106c8565b91505092915050565b60006020828403121561074a57610749610abe565b5b6000610758848285016106dd565b91505092915050565b6000806040838503121561077857610777610abe565b5b6000610786858286016106f2565b9250506020610797858286016106c8565b9150509250929050565b6107aa816109e3565b82525050565b6107b9816109f5565b82525050565b60006107cc60218361097c565b91506107d782610ac3565b604082019050919050565b60006107ef60288361097c565b91506107fa82610b12565b604082019050919050565b600061081260218361097c565b915061081d82610b61565b604082019050919050565b6000610835602e8361097c565b915061084082610bb0565b604082019050919050565b600061085860188361097c565b915061086382610bff565b602082019050919050565b61087781610a1f565b82525050565b600060208201905061089260008301846107a1565b92915050565b60006020820190506108ad60008301846107b0565b92915050565b60006040820190506108c860008301856107b0565b6108d5602083018461086e565b9392505050565b600060208201905081810360008301526108f5816107bf565b9050919050565b60006020820190508181036000830152610915816107e2565b9050919050565b6000602082019050818103600083015261093581610805565b9050919050565b6000602082019050818103600083015261095581610828565b9050919050565b600060208201905081810360008301526109758161084b565b9050919050565b600082825260208201905092915050565b600061099882610a1f565b91506109a383610a1f565b9250827fffffffffffffffffffffffffffffffffffffffffffffffffffffffffffffffff038211156109d8576109d7610a60565b5b828201905092915050565b60006109ee826109ff565b9050919050565b6000819050919050565b600073ffffffffffffffffffffffffffffffffffffffff82169050919050565b6000819050919050565b600060ff82169050919050565b6000610a4182610a29565b915060ff821415610a5557610a54610a60565b5b600182019050919050565b7f4e487b7100000000000000000000000000000000000000000000000000000000600052601160045260246000fd5b7f4e487b7100000000000000000000000000000000000000000000000000000000600052603260045260246000fd5b600080fd5b7f596f75206861766520616c7265616479206120726967687420746f20766f746560008201527f2e00000000000000000000000000000000000000000000000000000000000000602082015250565b7f4f6e6c79206368616972706572736f6e2063616e20676976652072696768742060008201527f746f20766f74652e000000000000000000000000000000000000000000000000602082015250565b7f596f7520646f6e277420686176652074686520726967687420746f20766f746560008201527f2e00000000000000000000000000000000000000000000000000000000000000602082015250565b7f596f7520617265206e6f7420616c6c6f77656420746f20766f7465207769746860008201527f207468697320616464726573732e000000000000000000000000000000000000602082015250565b7f54686520766f74657220616c726561647920766f7465642e0000000000000000600082015250565b610c31816109e3565b8114610c3c57600080fd5b50565b610c4881610a1f565b8114610c5357600080fd5b50565b610c5f81610a29565b8114610c6a57600080fd5b5056fea264697066735822122056cedd7a3f2098575919ff968fb6c8a803b682b25241cab8d899e88dec15832064736f6c63430008070033",
					"opcodes": "PUSH1 0x80 PUSH1 0x40 MSTORE CALLVALUE DUP1 ISZERO PUSH3 0x11 JUMPI PUSH1 0x0 DUP1 REVERT JUMPDEST POP PUSH1 0x40 MLOAD PUSH3 0x111F CODESIZE SUB DUP1 PUSH3 0x111F DUP4 CODECOPY DUP2 DUP2 ADD PUSH1 0x40 MSTORE DUP2 ADD SWAP1 PUSH3 0x37 SWAP2 SWAP1 PUSH3 0x25F JUMP JUMPDEST CALLER PUSH1 0x2 PUSH1 0x0 PUSH2 0x100 EXP DUP2 SLOAD DUP2 PUSH20 0xFFFFFFFFFFFFFFFFFFFFFFFFFFFFFFFFFFFFFFFF MUL NOT AND SWAP1 DUP4 PUSH20 0xFFFFFFFFFFFFFFFFFFFFFFFFFFFFFFFFFFFFFFFF AND MUL OR SWAP1 SSTORE POP PUSH1 0x1 PUSH1 0x0 DUP1 PUSH1 0x2 PUSH1 0x0 SWAP1 SLOAD SWAP1 PUSH2 0x100 EXP SWAP1 DIV PUSH20 0xFFFFFFFFFFFFFFFFFFFFFFFFFFFFFFFFFFFFFFFF AND PUSH20 0xFFFFFFFFFFFFFFFFFFFFFFFFFFFFFFFFFFFFFFFF AND PUSH20 0xFFFFFFFFFFFFFFFFFFFFFFFFFFFFFFFFFFFFFFFF AND DUP2 MSTORE PUSH1 0x20 ADD SWAP1 DUP2 MSTORE PUSH1 0x20 ADD PUSH1 0x0 KECCAK256 PUSH1 0x0 ADD PUSH1 0x2 PUSH2 0x100 EXP DUP2 SLOAD DUP2 PUSH4 0xFFFFFFFF MUL NOT AND SWAP1 DUP4 PUSH4 0xFFFFFFFF AND MUL OR SWAP1 SSTORE POP PUSH1 0x0 JUMPDEST DUP2 MLOAD DUP2 LT ISZERO PUSH3 0x192 JUMPI PUSH1 0x1 PUSH1 0x40 MLOAD DUP1 PUSH1 0x40 ADD PUSH1 0x40 MSTORE DUP1 DUP5 DUP5 DUP2 MLOAD DUP2 LT PUSH3 0x12B JUMPI PUSH3 0x12A PUSH3 0x3CF JUMP JUMPDEST JUMPDEST PUSH1 0x20 MUL PUSH1 0x20 ADD ADD MLOAD DUP2 MSTORE PUSH1 0x20 ADD PUSH1 0x0 DUP2 MSTORE POP SWAP1 DUP1 PUSH1 0x1 DUP2 SLOAD ADD DUP1 DUP3 SSTORE DUP1 SWAP2 POP POP PUSH1 0x1 SWAP1 SUB SWAP1 PUSH1 0x0 MSTORE PUSH1 0x20 PUSH1 0x0 KECCAK256 SWAP1 PUSH1 0x2 MUL ADD PUSH1 0x0 SWAP1 SWAP2 SWAP1 SWAP2 SWAP1 SWAP2 POP PUSH1 0x0 DUP3 ADD MLOAD DUP2 PUSH1 0x0 ADD SSTORE PUSH1 0x20 DUP3 ADD MLOAD DUP2 PUSH1 0x1 ADD SSTORE POP POP DUP1 DUP1 PUSH3 0x189 SWAP1 PUSH3 0x352 JUMP JUMPDEST SWAP2 POP POP PUSH3 0xFE JUMP JUMPDEST POP POP PUSH3 0x46C JUMP JUMPDEST PUSH1 0x0 PUSH3 0x1B1 PUSH3 0x1AB DUP5 PUSH3 0x2D9 JUMP JUMPDEST PUSH3 0x2B0 JUMP JUMPDEST SWAP1 POP DUP1 DUP4 DUP3 MSTORE PUSH1 0x20 DUP3 ADD SWAP1 POP DUP3 DUP6 PUSH1 0x20 DUP7 MUL DUP3 ADD GT ISZERO PUSH3 0x1D7 JUMPI PUSH3 0x1D6 PUSH3 0x432 JUMP JUMPDEST JUMPDEST PUSH1 0x0 JUMPDEST DUP6 DUP2 LT ISZERO PUSH3 0x20B JUMPI DUP2 PUSH3 0x1F0 DUP9 DUP3 PUSH3 0x248 JUMP JUMPDEST DUP5 MSTORE PUSH1 0x20 DUP5 ADD SWAP4 POP PUSH1 0x20 DUP4 ADD SWAP3 POP POP PUSH1 0x1 DUP2 ADD SWAP1 POP PUSH3 0x1DA JUMP JUMPDEST POP POP POP SWAP4 SWAP3 POP POP POP JUMP JUMPDEST PUSH1 0x0 DUP3 PUSH1 0x1F DUP4 ADD SLT PUSH3 0x22D JUMPI PUSH3 0x22C PUSH3 0x42D JUMP JUMPDEST JUMPDEST DUP2 MLOAD PUSH3 0x23F DUP5 DUP3 PUSH1 0x20 DUP7 ADD PUSH3 0x19A JUMP JUMPDEST SWAP2 POP POP SWAP3 SWAP2 POP POP JUMP JUMPDEST PUSH1 0x0 DUP2 MLOAD SWAP1 POP PUSH3 0x259 DUP2 PUSH3 0x452 JUMP JUMPDEST SWAP3 SWAP2 POP POP JUMP JUMPDEST PUSH1 0x0 PUSH1 0x20 DUP3 DUP5 SUB SLT ISZERO PUSH3 0x278 JUMPI PUSH3 0x277 PUSH3 0x43C JUMP JUMPDEST JUMPDEST PUSH1 0x0 DUP3 ADD MLOAD PUSH8 0xFFFFFFFFFFFFFFFF DUP2 GT ISZERO PUSH3 0x299 JUMPI PUSH3 0x298 PUSH3 0x437 JUMP JUMPDEST JUMPDEST PUSH3 0x2A7 DUP5 DUP3 DUP6 ADD PUSH3 0x215 JUMP JUMPDEST SWAP2 POP POP SWAP3 SWAP2 POP POP JUMP JUMPDEST PUSH1 0x0 PUSH3 0x2BC PUSH3 0x2CF JUMP JUMPDEST SWAP1 POP PUSH3 0x2CA DUP3 DUP3 PUSH3 0x31C JUMP JUMPDEST SWAP2 SWAP1 POP JUMP JUMPDEST PUSH1 0x0 PUSH1 0x40 MLOAD SWAP1 POP SWAP1 JUMP JUMPDEST PUSH1 0x0 PUSH8 0xFFFFFFFFFFFFFFFF DUP3 GT ISZERO PUSH3 0x2F7 JUMPI PUSH3 0x2F6 PUSH3 0x3FE JUMP JUMPDEST JUMPDEST PUSH1 0x20 DUP3 MUL SWAP1 POP PUSH1 0x20 DUP2 ADD SWAP1 POP SWAP2 SWAP1 POP JUMP JUMPDEST PUSH1 0x0 DUP2 SWAP1 POP SWAP2 SWAP1 POP JUMP JUMPDEST PUSH1 0x0 DUP2 SWAP1 POP SWAP2 SWAP1 POP JUMP JUMPDEST PUSH3 0x327 DUP3 PUSH3 0x441 JUMP JUMPDEST DUP2 ADD DUP2 DUP2 LT PUSH8 0xFFFFFFFFFFFFFFFF DUP3 GT OR ISZERO PUSH3 0x349 JUMPI PUSH3 0x348 PUSH3 0x3FE JUMP JUMPDEST JUMPDEST DUP1 PUSH1 0x40 MSTORE POP POP POP JUMP JUMPDEST PUSH1 0x0 PUSH3 0x35F DUP3 PUSH3 0x312 JUMP JUMPDEST SWAP2 POP PUSH32 0xFFFFFFFFFFFFFFFFFFFFFFFFFFFFFFFFFFFFFFFFFFFFFFFFFFFFFFFFFFFFFFFF DUP3 EQ ISZERO PUSH3 0x395 JUMPI PUSH3 0x394 PUSH3 0x3A0 JUMP JUMPDEST JUMPDEST PUSH1 0x1 DUP3 ADD SWAP1 POP SWAP2 SWAP1 POP JUMP JUMPDEST PUSH32 0x4E487B7100000000000000000000000000000000000000000000000000000000 PUSH1 0x0 MSTORE PUSH1 0x11 PUSH1 0x4 MSTORE PUSH1 0x24 PUSH1 0x0 REVERT JUMPDEST PUSH32 0x4E487B7100000000000000000000000000000000000000000000000000000000 PUSH1 0x0 MSTORE PUSH1 0x32 PUSH1 0x4 MSTORE PUSH1 0x24 PUSH1 0x0 REVERT JUMPDEST PUSH32 0x4E487B7100000000000000000000000000000000000000000000000000000000 PUSH1 0x0 MSTORE PUSH1 0x41 PUSH1 0x4 MSTORE PUSH1 0x24 PUSH1 0x0 REVERT JUMPDEST PUSH1 0x0 DUP1 REVERT JUMPDEST PUSH1 0x0 DUP1 REVERT JUMPDEST PUSH1 0x0 DUP1 REVERT JUMPDEST PUSH1 0x0 DUP1 REVERT JUMPDEST PUSH1 0x0 PUSH1 0x1F NOT PUSH1 0x1F DUP4 ADD AND SWAP1 POP SWAP2 SWAP1 POP JUMP JUMPDEST PUSH3 0x45D DUP2 PUSH3 0x308 JUMP JUMPDEST DUP2 EQ PUSH3 0x469 JUMPI PUSH1 0x0 DUP1 REVERT JUMPDEST POP JUMP JUMPDEST PUSH2 0xCA3 DUP1 PUSH3 0x47C PUSH1 0x0 CODECOPY PUSH1 0x0 RETURN INVALID PUSH1 0x80 PUSH1 0x40 MSTORE CALLVALUE DUP1 ISZERO PUSH2 0x10 JUMPI PUSH1 0x0 DUP1 REVERT JUMPDEST POP PUSH1 0x4 CALLDATASIZE LT PUSH2 0x57 JUMPI PUSH1 0x0 CALLDATALOAD PUSH1 0xE0 SHR DUP1 PUSH4 0x13CF08B EQ PUSH2 0x5C JUMPI DUP1 PUSH4 0x87F7B975 EQ PUSH2 0x8D JUMPI DUP1 PUSH4 0x9E7B8D61 EQ PUSH2 0xAB JUMPI DUP1 PUSH4 0xB81C6453 EQ PUSH2 0xC7 JUMPI DUP1 PUSH4 0xE2BA53F0 EQ PUSH2 0xE3 JUMPI JUMPDEST PUSH1 0x0 DUP1 REVERT JUMPDEST PUSH2 0x76 PUSH1 0x4 DUP1 CALLDATASIZE SUB DUP2 ADD SWAP1 PUSH2 0x71 SWAP2 SWAP1 PUSH2 0x734 JUMP JUMPDEST PUSH2 0x101 JUMP JUMPDEST PUSH1 0x40 MLOAD PUSH2 0x84 SWAP3 SWAP2 SWAP1 PUSH2 0x8B3 JUMP JUMPDEST PUSH1 0x40 MLOAD DUP1 SWAP2 SUB SWAP1 RETURN JUMPDEST PUSH2 0x95 PUSH2 0x135 JUMP JUMPDEST PUSH1 0x40 MLOAD PUSH2 0xA2 SWAP2 SWAP1 PUSH2 0x87D JUMP JUMPDEST PUSH1 0x40 MLOAD DUP1 SWAP2 SUB SWAP1 RETURN JUMPDEST PUSH2 0xC5 PUSH1 0x4 DUP1 CALLDATASIZE SUB DUP2 ADD SWAP1 PUSH2 0xC0 SWAP2 SWAP1 PUSH2 0x707 JUMP JUMPDEST PUSH2 0x15B JUMP JUMPDEST STOP JUMPDEST PUSH2 0xE1 PUSH1 0x4 DUP1 CALLDATASIZE SUB DUP2 ADD SWAP1 PUSH2 0xDC SWAP2 SWAP1 PUSH2 0x761 JUMP JUMPDEST PUSH2 0x37C JUMP JUMPDEST STOP JUMPDEST PUSH2 0xEB PUSH2 0x611 JUMP JUMPDEST PUSH1 0x40 MLOAD PUSH2 0xF8 SWAP2 SWAP1 PUSH2 0x898 JUMP JUMPDEST PUSH1 0x40 MLOAD DUP1 SWAP2 SUB SWAP1 RETURN JUMPDEST PUSH1 0x1 DUP2 DUP2 SLOAD DUP2 LT PUSH2 0x111 JUMPI PUSH1 0x0 DUP1 REVERT JUMPDEST SWAP1 PUSH1 0x0 MSTORE PUSH1 0x20 PUSH1 0x0 KECCAK256 SWAP1 PUSH1 0x2 MUL ADD PUSH1 0x0 SWAP2 POP SWAP1 POP DUP1 PUSH1 0x0 ADD SLOAD SWAP1 DUP1 PUSH1 0x1 ADD SLOAD SWAP1 POP DUP3 JUMP JUMPDEST PUSH1 0x2 PUSH1 0x0 SWAP1 SLOAD SWAP1 PUSH2 0x100 EXP SWAP1 DIV PUSH20 0xFFFFFFFFFFFFFFFFFFFFFFFFFFFFFFFFFFFFFFFF AND DUP2 JUMP JUMPDEST CALLER PUSH20 0xFFFFFFFFFFFFFFFFFFFFFFFFFFFFFFFFFFFFFFFF AND PUSH1 0x2 PUSH1 0x0 SWAP1 SLOAD SWAP1 PUSH2 0x100 EXP SWAP1 DIV PUSH20 0xFFFFFFFFFFFFFFFFFFFFFFFFFFFFFFFFFFFFFFFF AND PUSH20 0xFFFFFFFFFFFFFFFFFFFFFFFFFFFFFFFFFFFFFFFF AND EQ PUSH2 0x1EB JUMPI PUSH1 0x40 MLOAD PUSH32 0x8C379A000000000000000000000000000000000000000000000000000000000 DUP2 MSTORE PUSH1 0x4 ADD PUSH2 0x1E2 SWAP1 PUSH2 0x8FC JUMP JUMPDEST PUSH1 0x40 MLOAD DUP1 SWAP2 SUB SWAP1 REVERT JUMPDEST DUP1 PUSH1 0x0 DUP1 DUP3 PUSH20 0xFFFFFFFFFFFFFFFFFFFFFFFFFFFFFFFFFFFFFFFF AND PUSH20 0xFFFFFFFFFFFFFFFFFFFFFFFFFFFFFFFFFFFFFFFF AND DUP2 MSTORE PUSH1 0x20 ADD SWAP1 DUP2 MSTORE PUSH1 0x20 ADD PUSH1 0x0 KECCAK256 PUSH1 0x0 ADD PUSH1 0x0 SWAP1 SLOAD SWAP1 PUSH2 0x100 EXP SWAP1 DIV PUSH1 0xFF AND ISZERO PUSH2 0x27B JUMPI PUSH1 0x40 MLOAD PUSH32 0x8C379A000000000000000000000000000000000000000000000000000000000 DUP2 MSTORE PUSH1 0x4 ADD PUSH2 0x272 SWAP1 PUSH2 0x95C JUMP JUMPDEST PUSH1 0x40 MLOAD DUP1 SWAP2 SUB SWAP1 REVERT JUMPDEST DUP2 PUSH1 0x0 DUP1 PUSH1 0x0 DUP4 PUSH20 0xFFFFFFFFFFFFFFFFFFFFFFFFFFFFFFFFFFFFFFFF AND PUSH20 0xFFFFFFFFFFFFFFFFFFFFFFFFFFFFFFFFFFFFFFFF AND DUP2 MSTORE PUSH1 0x20 ADD SWAP1 DUP2 MSTORE PUSH1 0x20 ADD PUSH1 0x0 KECCAK256 PUSH1 0x0 ADD PUSH1 0x2 SWAP1 SLOAD SWAP1 PUSH2 0x100 EXP SWAP1 DIV PUSH4 0xFFFFFFFF AND PUSH4 0xFFFFFFFF AND EQ PUSH2 0x316 JUMPI PUSH1 0x40 MLOAD PUSH32 0x8C379A000000000000000000000000000000000000000000000000000000000 DUP2 MSTORE PUSH1 0x4 ADD PUSH2 0x30D SWAP1 PUSH2 0x8DC JUMP JUMPDEST PUSH1 0x40 MLOAD DUP1 SWAP2 SUB SWAP1 REVERT JUMPDEST PUSH1 0x1 PUSH1 0x0 DUP1 DUP6 PUSH20 0xFFFFFFFFFFFFFFFFFFFFFFFFFFFFFFFFFFFFFFFF AND PUSH20 0xFFFFFFFFFFFFFFFFFFFFFFFFFFFFFFFFFFFFFFFF AND DUP2 MSTORE PUSH1 0x20 ADD SWAP1 DUP2 MSTORE PUSH1 0x20 ADD PUSH1 0x0 KECCAK256 PUSH1 0x0 ADD PUSH1 0x2 PUSH2 0x100 EXP DUP2 SLOAD DUP2 PUSH4 0xFFFFFFFF MUL NOT AND SWAP1 DUP4 PUSH4 0xFFFFFFFF AND MUL OR SWAP1 SSTORE POP POP POP POP JUMP JUMPDEST DUP1 CALLER PUSH20 0xFFFFFFFFFFFFFFFFFFFFFFFFFFFFFFFFFFFFFFFF AND DUP2 PUSH20 0xFFFFFFFFFFFFFFFFFFFFFFFFFFFFFFFFFFFFFFFF AND EQ PUSH2 0x3EB JUMPI PUSH1 0x40 MLOAD PUSH32 0x8C379A000000000000000000000000000000000000000000000000000000000 DUP2 MSTORE PUSH1 0x4 ADD PUSH2 0x3E2 SWAP1 PUSH2 0x93C JUMP JUMPDEST PUSH1 0x40 MLOAD DUP1 SWAP2 SUB SWAP1 REVERT JUMPDEST DUP2 PUSH1 0x0 DUP1 PUSH1 0x0 DUP4 PUSH20 0xFFFFFFFFFFFFFFFFFFFFFFFFFFFFFFFFFFFFFFFF AND PUSH20 0xFFFFFFFFFFFFFFFFFFFFFFFFFFFFFFFFFFFFFFFF AND DUP2 MSTORE PUSH1 0x20 ADD SWAP1 DUP2 MSTORE PUSH1 0x20 ADD PUSH1 0x0 KECCAK256 PUSH1 0x0 ADD PUSH1 0x2 SWAP1 SLOAD SWAP1 PUSH2 0x100 EXP SWAP1 DIV PUSH4 0xFFFFFFFF AND PUSH4 0xFFFFFFFF AND EQ ISZERO PUSH2 0x487 JUMPI PUSH1 0x40 MLOAD PUSH32 0x8C379A000000000000000000000000000000000000000000000000000000000 DUP2 MSTORE PUSH1 0x4 ADD PUSH2 0x47E SWAP1 PUSH2 0x91C JUMP JUMPDEST PUSH1 0x40 MLOAD DUP1 SWAP2 SUB SWAP1 REVERT JUMPDEST DUP3 PUSH1 0x0 DUP1 DUP3 PUSH20 0xFFFFFFFFFFFFFFFFFFFFFFFFFFFFFFFFFFFFFFFF AND PUSH20 0xFFFFFFFFFFFFFFFFFFFFFFFFFFFFFFFFFFFFFFFF AND DUP2 MSTORE PUSH1 0x20 ADD SWAP1 DUP2 MSTORE PUSH1 0x20 ADD PUSH1 0x0 KECCAK256 PUSH1 0x0 ADD PUSH1 0x0 SWAP1 SLOAD SWAP1 PUSH2 0x100 EXP SWAP1 DIV PUSH1 0xFF AND ISZERO PUSH2 0x517 JUMPI PUSH1 0x40 MLOAD PUSH32 0x8C379A000000000000000000000000000000000000000000000000000000000 DUP2 MSTORE PUSH1 0x4 ADD PUSH2 0x50E SWAP1 PUSH2 0x95C JUMP JUMPDEST PUSH1 0x40 MLOAD DUP1 SWAP2 SUB SWAP1 REVERT JUMPDEST PUSH1 0x1 PUSH1 0x0 DUP1 DUP7 PUSH20 0xFFFFFFFFFFFFFFFFFFFFFFFFFFFFFFFFFFFFFFFF AND PUSH20 0xFFFFFFFFFFFFFFFFFFFFFFFFFFFFFFFFFFFFFFFF AND DUP2 MSTORE PUSH1 0x20 ADD SWAP1 DUP2 MSTORE PUSH1 0x20 ADD PUSH1 0x0 KECCAK256 PUSH1 0x0 ADD PUSH1 0x0 PUSH2 0x100 EXP DUP2 SLOAD DUP2 PUSH1 0xFF MUL NOT AND SWAP1 DUP4 ISZERO ISZERO MUL OR SWAP1 SSTORE POP DUP5 PUSH1 0x0 DUP1 DUP7 PUSH20 0xFFFFFFFFFFFFFFFFFFFFFFFFFFFFFFFFFFFFFFFF AND PUSH20 0xFFFFFFFFFFFFFFFFFFFFFFFFFFFFFFFFFFFFFFFF AND DUP2 MSTORE PUSH1 0x20 ADD SWAP1 DUP2 MSTORE PUSH1 0x20 ADD PUSH1 0x0 KECCAK256 PUSH1 0x0 ADD PUSH1 0x1 PUSH2 0x100 EXP DUP2 SLOAD DUP2 PUSH1 0xFF MUL NOT AND SWAP1 DUP4 PUSH1 0xFF AND MUL OR SWAP1 SSTORE POP PUSH1 0x1 DUP1 DUP7 PUSH1 0xFF AND DUP2 SLOAD DUP2 LT PUSH2 0x5E3 JUMPI PUSH2 0x5E2 PUSH2 0xA8F JUMP JUMPDEST JUMPDEST SWAP1 PUSH1 0x0 MSTORE PUSH1 0x20 PUSH1 0x0 KECCAK256 SWAP1 PUSH1 0x2 MUL ADD PUSH1 0x1 ADD PUSH1 0x0 DUP3 DUP3 SLOAD PUSH2 0x603 SWAP2 SWAP1 PUSH2 0x98D JUMP JUMPDEST SWAP3 POP POP DUP2 SWAP1 SSTORE POP POP POP POP POP POP JUMP JUMPDEST PUSH1 0x0 DUP1 PUSH1 0x0 DUP1 JUMPDEST PUSH1 0x1 DUP1 SLOAD SWAP1 POP DUP2 PUSH1 0xFF AND LT ISZERO PUSH2 0x6C2 JUMPI DUP2 PUSH1 0x1 DUP3 PUSH1 0xFF AND DUP2 SLOAD DUP2 LT PUSH2 0x640 JUMPI PUSH2 0x63F PUSH2 0xA8F JUMP JUMPDEST JUMPDEST SWAP1 PUSH1 0x0 MSTORE PUSH1 0x20 PUSH1 0x0 KECCAK256 SWAP1 PUSH1 0x2 MUL ADD PUSH1 0x1 ADD SLOAD GT ISZERO PUSH2 0x6AF JUMPI PUSH1 0x1 DUP2 PUSH1 0xFF AND DUP2 SLOAD DUP2 LT PUSH2 0x66F JUMPI PUSH2 0x66E PUSH2 0xA8F JUMP JUMPDEST JUMPDEST SWAP1 PUSH1 0x0 MSTORE PUSH1 0x20 PUSH1 0x0 KECCAK256 SWAP1 PUSH1 0x2 MUL ADD PUSH1 0x0 ADD SLOAD SWAP3 POP PUSH1 0x1 DUP2 PUSH1 0xFF AND DUP2 SLOAD DUP2 LT PUSH2 0x69A JUMPI PUSH2 0x699 PUSH2 0xA8F JUMP JUMPDEST JUMPDEST SWAP1 PUSH1 0x0 MSTORE PUSH1 0x20 PUSH1 0x0 KECCAK256 SWAP1 PUSH1 0x2 MUL ADD PUSH1 0x1 ADD SLOAD SWAP2 POP JUMPDEST DUP1 DUP1 PUSH2 0x6BA SWAP1 PUSH2 0xA36 JUMP JUMPDEST SWAP2 POP POP PUSH2 0x618 JUMP JUMPDEST POP POP POP SWAP1 JUMP JUMPDEST PUSH1 0x0 DUP2 CALLDATALOAD SWAP1 POP PUSH2 0x6D7 DUP2 PUSH2 0xC28 JUMP JUMPDEST SWAP3 SWAP2 POP POP JUMP JUMPDEST PUSH1 0x0 DUP2 CALLDATALOAD SWAP1 POP PUSH2 0x6EC DUP2 PUSH2 0xC3F JUMP JUMPDEST SWAP3 SWAP2 POP POP JUMP JUMPDEST PUSH1 0x0 DUP2 CALLDATALOAD SWAP1 POP PUSH2 0x701 DUP2 PUSH2 0xC56 JUMP JUMPDEST SWAP3 SWAP2 POP POP JUMP JUMPDEST PUSH1 0x0 PUSH1 0x20 DUP3 DUP5 SUB SLT ISZERO PUSH2 0x71D JUMPI PUSH2 0x71C PUSH2 0xABE JUMP JUMPDEST JUMPDEST PUSH1 0x0 PUSH2 0x72B DUP5 DUP3 DUP6 ADD PUSH2 0x6C8 JUMP JUMPDEST SWAP2 POP POP SWAP3 SWAP2 POP POP JUMP JUMPDEST PUSH1 0x0 PUSH1 0x20 DUP3 DUP5 SUB SLT ISZERO PUSH2 0x74A JUMPI PUSH2 0x749 PUSH2 0xABE JUMP JUMPDEST JUMPDEST PUSH1 0x0 PUSH2 0x758 DUP5 DUP3 DUP6 ADD PUSH2 0x6DD JUMP JUMPDEST SWAP2 POP POP SWAP3 SWAP2 POP POP JUMP JUMPDEST PUSH1 0x0 DUP1 PUSH1 0x40 DUP4 DUP6 SUB SLT ISZERO PUSH2 0x778 JUMPI PUSH2 0x777 PUSH2 0xABE JUMP JUMPDEST JUMPDEST PUSH1 0x0 PUSH2 0x786 DUP6 DUP3 DUP7 ADD PUSH2 0x6F2 JUMP JUMPDEST SWAP3 POP POP PUSH1 0x20 PUSH2 0x797 DUP6 DUP3 DUP7 ADD PUSH2 0x6C8 JUMP JUMPDEST SWAP2 POP POP SWAP3 POP SWAP3 SWAP1 POP JUMP JUMPDEST PUSH2 0x7AA DUP2 PUSH2 0x9E3 JUMP JUMPDEST DUP3 MSTORE POP POP JUMP JUMPDEST PUSH2 0x7B9 DUP2 PUSH2 0x9F5 JUMP JUMPDEST DUP3 MSTORE POP POP JUMP JUMPDEST PUSH1 0x0 PUSH2 0x7CC PUSH1 0x21 DUP4 PUSH2 0x97C JUMP JUMPDEST SWAP2 POP PUSH2 0x7D7 DUP3 PUSH2 0xAC3 JUMP JUMPDEST PUSH1 0x40 DUP3 ADD SWAP1 POP SWAP2 SWAP1 POP JUMP JUMPDEST PUSH1 0x0 PUSH2 0x7EF PUSH1 0x28 DUP4 PUSH2 0x97C JUMP JUMPDEST SWAP2 POP PUSH2 0x7FA DUP3 PUSH2 0xB12 JUMP JUMPDEST PUSH1 0x40 DUP3 ADD SWAP1 POP SWAP2 SWAP1 POP JUMP JUMPDEST PUSH1 0x0 PUSH2 0x812 PUSH1 0x21 DUP4 PUSH2 0x97C JUMP JUMPDEST SWAP2 POP PUSH2 0x81D DUP3 PUSH2 0xB61 JUMP JUMPDEST PUSH1 0x40 DUP3 ADD SWAP1 POP SWAP2 SWAP1 POP JUMP JUMPDEST PUSH1 0x0 PUSH2 0x835 PUSH1 0x2E DUP4 PUSH2 0x97C JUMP JUMPDEST SWAP2 POP PUSH2 0x840 DUP3 PUSH2 0xBB0 JUMP JUMPDEST PUSH1 0x40 DUP3 ADD SWAP1 POP SWAP2 SWAP1 POP JUMP JUMPDEST PUSH1 0x0 PUSH2 0x858 PUSH1 0x18 DUP4 PUSH2 0x97C JUMP JUMPDEST SWAP2 POP PUSH2 0x863 DUP3 PUSH2 0xBFF JUMP JUMPDEST PUSH1 0x20 DUP3 ADD SWAP1 POP SWAP2 SWAP1 POP JUMP JUMPDEST PUSH2 0x877 DUP2 PUSH2 0xA1F JUMP JUMPDEST DUP3 MSTORE POP POP JUMP JUMPDEST PUSH1 0x0 PUSH1 0x20 DUP3 ADD SWAP1 POP PUSH2 0x892 PUSH1 0x0 DUP4 ADD DUP5 PUSH2 0x7A1 JUMP JUMPDEST SWAP3 SWAP2 POP POP JUMP JUMPDEST PUSH1 0x0 PUSH1 0x20 DUP3 ADD SWAP1 POP PUSH2 0x8AD PUSH1 0x0 DUP4 ADD DUP5 PUSH2 0x7B0 JUMP JUMPDEST SWAP3 SWAP2 POP POP JUMP JUMPDEST PUSH1 0x0 PUSH1 0x40 DUP3 ADD SWAP1 POP PUSH2 0x8C8 PUSH1 0x0 DUP4 ADD DUP6 PUSH2 0x7B0 JUMP JUMPDEST PUSH2 0x8D5 PUSH1 0x20 DUP4 ADD DUP5 PUSH2 0x86E JUMP JUMPDEST SWAP4 SWAP3 POP POP POP JUMP JUMPDEST PUSH1 0x0 PUSH1 0x20 DUP3 ADD SWAP1 POP DUP2 DUP2 SUB PUSH1 0x0 DUP4 ADD MSTORE PUSH2 0x8F5 DUP2 PUSH2 0x7BF JUMP JUMPDEST SWAP1 POP SWAP2 SWAP1 POP JUMP JUMPDEST PUSH1 0x0 PUSH1 0x20 DUP3 ADD SWAP1 POP DUP2 DUP2 SUB PUSH1 0x0 DUP4 ADD MSTORE PUSH2 0x915 DUP2 PUSH2 0x7E2 JUMP JUMPDEST SWAP1 POP SWAP2 SWAP1 POP JUMP JUMPDEST PUSH1 0x0 PUSH1 0x20 DUP3 ADD SWAP1 POP DUP2 DUP2 SUB PUSH1 0x0 DUP4 ADD MSTORE PUSH2 0x935 DUP2 PUSH2 0x805 JUMP JUMPDEST SWAP1 POP SWAP2 SWAP1 POP JUMP JUMPDEST PUSH1 0x0 PUSH1 0x20 DUP3 ADD SWAP1 POP DUP2 DUP2 SUB PUSH1 0x0 DUP4 ADD MSTORE PUSH2 0x955 DUP2 PUSH2 0x828 JUMP JUMPDEST SWAP1 POP SWAP2 SWAP1 POP JUMP JUMPDEST PUSH1 0x0 PUSH1 0x20 DUP3 ADD SWAP1 POP DUP2 DUP2 SUB PUSH1 0x0 DUP4 ADD MSTORE PUSH2 0x975 DUP2 PUSH2 0x84B JUMP JUMPDEST SWAP1 POP SWAP2 SWAP1 POP JUMP JUMPDEST PUSH1 0x0 DUP3 DUP3 MSTORE PUSH1 0x20 DUP3 ADD SWAP1 POP SWAP3 SWAP2 POP POP JUMP JUMPDEST PUSH1 0x0 PUSH2 0x998 DUP3 PUSH2 0xA1F JUMP JUMPDEST SWAP2 POP PUSH2 0x9A3 DUP4 PUSH2 0xA1F JUMP JUMPDEST SWAP3 POP DUP3 PUSH32 0xFFFFFFFFFFFFFFFFFFFFFFFFFFFFFFFFFFFFFFFFFFFFFFFFFFFFFFFFFFFFFFFF SUB DUP3 GT ISZERO PUSH2 0x9D8 JUMPI PUSH2 0x9D7 PUSH2 0xA60 JUMP JUMPDEST JUMPDEST DUP3 DUP3 ADD SWAP1 POP SWAP3 SWAP2 POP POP JUMP JUMPDEST PUSH1 0x0 PUSH2 0x9EE DUP3 PUSH2 0x9FF JUMP JUMPDEST SWAP1 POP SWAP2 SWAP1 POP JUMP JUMPDEST PUSH1 0x0 DUP2 SWAP1 POP SWAP2 SWAP1 POP JUMP JUMPDEST PUSH1 0x0 PUSH20 0xFFFFFFFFFFFFFFFFFFFFFFFFFFFFFFFFFFFFFFFF DUP3 AND SWAP1 POP SWAP2 SWAP1 POP JUMP JUMPDEST PUSH1 0x0 DUP2 SWAP1 POP SWAP2 SWAP1 POP JUMP JUMPDEST PUSH1 0x0 PUSH1 0xFF DUP3 AND SWAP1 POP SWAP2 SWAP1 POP JUMP JUMPDEST PUSH1 0x0 PUSH2 0xA41 DUP3 PUSH2 0xA29 JUMP JUMPDEST SWAP2 POP PUSH1 0xFF DUP3 EQ ISZERO PUSH2 0xA55 JUMPI PUSH2 0xA54 PUSH2 0xA60 JUMP JUMPDEST JUMPDEST PUSH1 0x1 DUP3 ADD SWAP1 POP SWAP2 SWAP1 POP JUMP JUMPDEST PUSH32 0x4E487B7100000000000000000000000000000000000000000000000000000000 PUSH1 0x0 MSTORE PUSH1 0x11 PUSH1 0x4 MSTORE PUSH1 0x24 PUSH1 0x0 REVERT JUMPDEST PUSH32 0x4E487B7100000000000000000000000000000000000000000000000000000000 PUSH1 0x0 MSTORE PUSH1 0x32 PUSH1 0x4 MSTORE PUSH1 0x24 PUSH1 0x0 REVERT JUMPDEST PUSH1 0x0 DUP1 REVERT JUMPDEST PUSH32 0x596F75206861766520616C7265616479206120726967687420746F20766F7465 PUSH1 0x0 DUP3 ADD MSTORE PUSH32 0x2E00000000000000000000000000000000000000000000000000000000000000 PUSH1 0x20 DUP3 ADD MSTORE POP JUMP JUMPDEST PUSH32 0x4F6E6C79206368616972706572736F6E2063616E206769766520726967687420 PUSH1 0x0 DUP3 ADD MSTORE PUSH32 0x746F20766F74652E000000000000000000000000000000000000000000000000 PUSH1 0x20 DUP3 ADD MSTORE POP JUMP JUMPDEST PUSH32 0x596F7520646F6E277420686176652074686520726967687420746F20766F7465 PUSH1 0x0 DUP3 ADD MSTORE PUSH32 0x2E00000000000000000000000000000000000000000000000000000000000000 PUSH1 0x20 DUP3 ADD MSTORE POP JUMP JUMPDEST PUSH32 0x596F7520617265206E6F7420616C6C6F77656420746F20766F74652077697468 PUSH1 0x0 DUP3 ADD MSTORE PUSH32 0x207468697320616464726573732E000000000000000000000000000000000000 PUSH1 0x20 DUP3 ADD MSTORE POP JUMP JUMPDEST PUSH32 0x54686520766F74657220616C726561647920766F7465642E0000000000000000 PUSH1 0x0 DUP3 ADD MSTORE POP JUMP JUMPDEST PUSH2 0xC31 DUP2 PUSH2 0x9E3 JUMP JUMPDEST DUP2 EQ PUSH2 0xC3C JUMPI PUSH1 0x0 DUP1 REVERT JUMPDEST POP JUMP JUMPDEST PUSH2 0xC48 DUP2 PUSH2 0xA1F JUMP JUMPDEST DUP2 EQ PUSH2 0xC53 JUMPI PUSH1 0x0 DUP1 REVERT JUMPDEST POP JUMP JUMPDEST PUSH2 0xC5F DUP2 PUSH2 0xA29 JUMP JUMPDEST DUP2 EQ PUSH2 0xC6A JUMPI PUSH1 0x0 DUP1 REVERT JUMPDEST POP JUMP INVALID LOG2 PUSH5 0x6970667358 0x22 SLT KECCAK256 JUMP 0xCE 0xDD PUSH27 0x3F2098575919FF968FB6C8A803B682B25241CAB8D899E88DEC1583 KECCAK256 PUSH5 0x736F6C6343 STOP ADDMOD SMOD STOP CALLER "
				},
				"gasEstimates": {
					"creation": {
						"codeDepositCost": "647000",
						"executionCost": "infinite",
						"totalCost": "infinite"
					},
					"external": {
						"chairman()": "2514",
						"giveRightToVote(address)": "31633",
						"proposals(uint256)": "infinite",
						"vote(uint8,address)": "infinite",
						"winnerName()": "infinite"
					}
				},
				"methodIdentifiers": {
					"chairman()": "87f7b975",
					"giveRightToVote(address)": "9e7b8d61",
					"proposals(uint256)": "013cf08b",
					"vote(uint8,address)": "b81c6453",
					"winnerName()": "e2ba53f0"
				}
			},
			"storageLayout": {
				"storage": [
					{
						"astId": 20,
						"contract": "contracts/4_Ballot_2.sol:Vote",
						"label": "voters",
						"offset": 0,
						"slot": "0",
						"type": "t_mapping(t_address,t_struct(Voter)10_storage)"
					},
					{
						"astId": 24,
						"contract": "contracts/4_Ballot_2.sol:Vote",
						"label": "proposals",
						"offset": 0,
						"slot": "1",
						"type": "t_array(t_struct(Proposal)15_storage)dyn_storage"
					},
					{
						"astId": 26,
						"contract": "contracts/4_Ballot_2.sol:Vote",
						"label": "chairman",
						"offset": 0,
						"slot": "2",
						"type": "t_address"
					}
				],
				"types": {
					"t_address": {
						"encoding": "inplace",
						"label": "address",
						"numberOfBytes": "20"
					},
					"t_array(t_struct(Proposal)15_storage)dyn_storage": {
						"base": "t_struct(Proposal)15_storage",
						"encoding": "dynamic_array",
						"label": "struct Vote.Proposal[]",
						"numberOfBytes": "32"
					},
					"t_bool": {
						"encoding": "inplace",
						"label": "bool",
						"numberOfBytes": "1"
					},
					"t_bytes32": {
						"encoding": "inplace",
						"label": "bytes32",
						"numberOfBytes": "32"
					},
					"t_mapping(t_address,t_struct(Voter)10_storage)": {
						"encoding": "mapping",
						"key": "t_address",
						"label": "mapping(address => struct Vote.Voter)",
						"numberOfBytes": "32",
						"value": "t_struct(Voter)10_storage"
					},
					"t_struct(Proposal)15_storage": {
						"encoding": "inplace",
						"label": "struct Vote.Proposal",
						"members": [
							{
								"astId": 12,
								"contract": "contracts/4_Ballot_2.sol:Vote",
								"label": "name",
								"offset": 0,
								"slot": "0",
								"type": "t_bytes32"
							},
							{
								"astId": 14,
								"contract": "contracts/4_Ballot_2.sol:Vote",
								"label": "voteCount",
								"offset": 0,
								"slot": "1",
								"type": "t_uint256"
							}
						],
						"numberOfBytes": "64"
					},
					"t_struct(Voter)10_storage": {
						"encoding": "inplace",
						"label": "struct Vote.Voter",
						"members": [
							{
								"astId": 3,
								"contract": "contracts/4_Ballot_2.sol:Vote",
								"label": "voted",
								"offset": 0,
								"slot": "0",
								"type": "t_bool"
							},
							{
								"astId": 5,
								"contract": "contracts/4_Ballot_2.sol:Vote",
								"label": "vote",
								"offset": 1,
								"slot": "0",
								"type": "t_uint8"
							},
							{
								"astId": 7,
								"contract": "contracts/4_Ballot_2.sol:Vote",
								"label": "weight",
								"offset": 2,
								"slot": "0",
								"type": "t_uint32"
							},
							{
								"astId": 9,
								"contract": "contracts/4_Ballot_2.sol:Vote",
								"label": "delegate",
								"offset": 6,
								"slot": "0",
								"type": "t_address"
							}
						],
						"numberOfBytes": "32"
					},
					"t_uint256": {
						"encoding": "inplace",
						"label": "uint256",
						"numberOfBytes": "32"
					},
					"t_uint32": {
						"encoding": "inplace",
						"label": "uint32",
						"numberOfBytes": "4"
					},
					"t_uint8": {
						"encoding": "inplace",
						"label": "uint8",
						"numberOfBytes": "1"
					}
				}
			},
			"userdoc": {
				"kind": "user",
				"methods": {},
				"version": 1
			}
		}
	}
}