{
	"contracts/3_Ballot.sol": {
		"Vote": {
			"abi": [
				{
					"inputs": [
						{
							"internalType": "bytes32[]",
							"name": "_proposalNames",
							"type": "bytes32[]"
						}
					],
					"stateMutability": "nonpayable",
					"type": "constructor"
				},
				{
					"inputs": [],
					"name": "chairman",
					"outputs": [
						{
							"internalType": "address",
							"name": "",
							"type": "address"
						}
					],
					"stateMutability": "view",
					"type": "function"
				},
				{
					"inputs": [
						{
							"internalType": "address",
							"name": "_voter",
							"type": "address"
						}
					],
					"name": "giveRightToVote",
					"outputs": [],
					"stateMutability": "nonpayable",
					"type": "function"
				},
				{
					"inputs": [],
					"name": "isOpenVote",
					"outputs": [
						{
							"internalType": "bool",
							"name": "",
							"type": "bool"
						}
					],
					"stateMutability": "view",
					"type": "function"
				},
				{
					"inputs": [],
					"name": "proposalWinnerName",
					"outputs": [
						{
							"internalType": "bytes32",
							"name": "_winnerName",
							"type": "bytes32"
						}
					],
					"stateMutability": "view",
					"type": "function"
				},
				{
					"inputs": [
						{
							"internalType": "uint256",
							"name": "",
							"type": "uint256"
						}
					],
					"name": "proposals",
					"outputs": [
						{
							"internalType": "bytes32",
							"name": "name",
							"type": "bytes32"
						},
						{
							"internalType": "uint256",
							"name": "voteCount",
							"type": "uint256"
						}
					],
					"stateMutability": "view",
					"type": "function"
				},
				{
					"inputs": [],
					"name": "stopVote",
					"outputs": [
						{
							"internalType": "bytes32",
							"name": "_winnerName",
							"type": "bytes32"
						}
					],
					"stateMutability": "nonpayable",
					"type": "function"
				},
				{
					"inputs": [
						{
							"internalType": "uint8",
							"name": "_proposalId",
							"type": "uint8"
						},
						{
							"internalType": "address",
							"name": "_voter",
							"type": "address"
						}
					],
					"name": "vote",
					"outputs": [],
					"stateMutability": "nonpayable",
					"type": "function"
				},
				{
					"inputs": [],
					"name": "winnerName",
					"outputs": [
						{
							"internalType": "bytes32",
							"name": "_winnerName",
							"type": "bytes32"
						}
					],
					"stateMutability": "view",
					"type": "function"
				}
			],
			"devdoc": {
				"kind": "dev",
				"methods": {},
				"version": 1
			},
			"evm": {
				"assembly": "    /* \"contracts/3_Ballot.sol\":70:2699  contract Vote {... */\n  mstore(0x40, 0x80)\n    /* \"contracts/3_Ballot.sol\":354:383  bool public isOpenVote = true */\n  0x02\n  dup1\n  sload\n  not(mul(0xff, exp(0x02, 0xa0)))\n  and\n  0x010000000000000000000000000000000000000000\n  or\n  swap1\n  sstore\n    /* \"contracts/3_Ballot.sol\":388:820  constructor(bytes32[] memory _proposalNames) {... */\n  callvalue\n  dup1\n  iszero\n  tag_1\n  jumpi\n  0x00\n  dup1\n  revert\ntag_1:\n  pop\n  mload(0x40)\n  sub(codesize, bytecodeSize)\n  dup1\n  bytecodeSize\n  dup4\n  codecopy\n  dup2\n  add\n  0x40\n  dup2\n  swap1\n  mstore\n  tag_2\n  swap2\n  tag_3\n  jump\t// in\ntag_2:\n    /* \"contracts/3_Ballot.sol\":439:447  chairman */\n  0x02\n    /* \"contracts/3_Ballot.sol\":439:460  chairman = msg.sender */\n  dup1\n  sload\n  not(sub(exp(0x02, 0xa0), 0x01))\n  and\n    /* \"contracts/3_Ballot.sol\":450:460  msg.sender */\n  caller\n    /* \"contracts/3_Ballot.sol\":439:460  chairman = msg.sender */\n  or\n  swap1\n  dup2\n  swap1\n  sstore\n  sub(exp(0x02, 0xa0), 0x01)\n    /* \"contracts/3_Ballot.sol\":473:481  chairman */\n  and\n    /* \"contracts/3_Ballot.sol\":439:447  chairman */\n  0x00\n    /* \"contracts/3_Ballot.sol\":466:482  voters[chairman] */\n  swap1\n  dup2\n  mstore\n  0x20\n  dup2\n  swap1\n  mstore\n  0x40\n  dup2\n  keccak256\n    /* \"contracts/3_Ballot.sol\":466:493  voters[chairman].weight = 1 */\n  dup1\n  sload\n  not(0xffffffff0000)\n  and\n  0x010000\n  or\n  swap1\n  sstore\n    /* \"contracts/3_Ballot.sol\":682:816  for (uint256 i = 0; i < _proposalNames.length; i++) {... */\ntag_6:\n    /* \"contracts/3_Ballot.sol\":706:720  _proposalNames */\n  dup2\n    /* \"contracts/3_Ballot.sol\":706:727  _proposalNames.length */\n  mload\n    /* \"contracts/3_Ballot.sol\":702:703  i */\n  dup2\n    /* \"contracts/3_Ballot.sol\":702:727  i < _proposalNames.length */\n  lt\n    /* \"contracts/3_Ballot.sol\":682:816  for (uint256 i = 0; i < _proposalNames.length; i++) {... */\n  iszero\n  tag_7\n  jumpi\n    /* \"contracts/3_Ballot.sol\":742:751  proposals */\n  0x01\n    /* \"contracts/3_Ballot.sol\":757:808  Proposal({ name: _proposalNames[i], voteCount: 0 }) */\n  mload(0x40)\n  dup1\n  0x40\n  add\n  0x40\n  mstore\n  dup1\n    /* \"contracts/3_Ballot.sol\":774:788  _proposalNames */\n  dup5\n    /* \"contracts/3_Ballot.sol\":789:790  i */\n  dup5\n    /* \"contracts/3_Ballot.sol\":774:791  _proposalNames[i] */\n  dup2\n  mload\n  dup2\n  lt\n  tag_9\n  jumpi\n  mstore(0x00, 0x4e487b7100000000000000000000000000000000000000000000000000000000)\n  mstore(0x04, 0x32)\n  revert(0x00, 0x24)\ntag_9:\n  0x20\n  swap1\n  dup2\n  mul\n  swap2\n  swap1\n  swap2\n  add\n  dup2\n  add\n  mload\n    /* \"contracts/3_Ballot.sol\":757:808  Proposal({ name: _proposalNames[i], voteCount: 0 }) */\n  dup3\n  mstore\n    /* \"contracts/3_Ballot.sol\":804:805  0 */\n  0x00\n    /* \"contracts/3_Ballot.sol\":757:808  Proposal({ name: _proposalNames[i], voteCount: 0 }) */\n  swap2\n  dup2\n  add\n  dup3\n  swap1\n  mstore\n    /* \"contracts/3_Ballot.sol\":742:809  proposals.push(Proposal({ name: _proposalNames[i], voteCount: 0 })) */\n  dup4\n  sload\n  0x01\n  dup2\n  dup2\n  add\n  dup7\n  sstore\n  swap5\n  dup4\n  mstore\n  swap2\n  dup2\n  swap1\n  keccak256\n  dup4\n  mload\n  0x02\n  swap1\n  swap4\n  mul\n  add\n  swap2\n  dup3\n  sstore\n  swap2\n  swap1\n  swap2\n  add\n  mload\n  swap2\n  add\n  sstore\n    /* \"contracts/3_Ballot.sol\":729:732  i++ */\n  dup1\n  tag_11\n  dup2\n  tag_12\n  jump\t// in\ntag_11:\n  swap2\n  pop\n  pop\n    /* \"contracts/3_Ballot.sol\":682:816  for (uint256 i = 0; i < _proposalNames.length; i++) {... */\n  jump(tag_6)\ntag_7:\n  pop\n    /* \"contracts/3_Ballot.sol\":388:820  constructor(bytes32[] memory _proposalNames) {... */\n  pop\n    /* \"contracts/3_Ballot.sol\":70:2699  contract Vote {... */\n  jump(tag_14)\n    /* \"#utility.yul\":14:1162   */\ntag_3:\n  0x00\n    /* \"#utility.yul\":140:142   */\n  0x20\n    /* \"#utility.yul\":183:185   */\n  dup1\n    /* \"#utility.yul\":171:180   */\n  dup4\n    /* \"#utility.yul\":162:169   */\n  dup6\n    /* \"#utility.yul\":158:181   */\n  sub\n    /* \"#utility.yul\":154:186   */\n  slt\n    /* \"#utility.yul\":151:153   */\n  iszero\n  tag_16\n  jumpi\n    /* \"#utility.yul\":204:210   */\n  dup2\n    /* \"#utility.yul\":196:202   */\n  dup3\n    /* \"#utility.yul\":189:211   */\n  revert\n    /* \"#utility.yul\":151:153   */\ntag_16:\n    /* \"#utility.yul\":242:251   */\n  dup3\n    /* \"#utility.yul\":236:252   */\n  mload\n    /* \"#utility.yul\":271:289   */\n  0xffffffffffffffff\n    /* \"#utility.yul\":312:314   */\n  dup1\n    /* \"#utility.yul\":304:310   */\n  dup3\n    /* \"#utility.yul\":301:315   */\n  gt\n    /* \"#utility.yul\":298:300   */\n  iszero\n  tag_17\n  jumpi\n    /* \"#utility.yul\":333:339   */\n  dup4\n    /* \"#utility.yul\":325:331   */\n  dup5\n    /* \"#utility.yul\":318:340   */\n  revert\n    /* \"#utility.yul\":298:300   */\ntag_17:\n    /* \"#utility.yul\":376:382   */\n  dup2\n    /* \"#utility.yul\":365:374   */\n  dup6\n    /* \"#utility.yul\":361:383   */\n  add\n    /* \"#utility.yul\":351:383   */\n  swap2\n  pop\n    /* \"#utility.yul\":421:428   */\n  dup6\n    /* \"#utility.yul\":414:418   */\n  0x1f\n    /* \"#utility.yul\":410:412   */\n  dup4\n    /* \"#utility.yul\":406:419   */\n  add\n    /* \"#utility.yul\":402:429   */\n  slt\n    /* \"#utility.yul\":392:394   */\n  tag_18\n  jumpi\n    /* \"#utility.yul\":448:454   */\n  dup4\n    /* \"#utility.yul\":440:446   */\n  dup5\n    /* \"#utility.yul\":433:455   */\n  revert\n    /* \"#utility.yul\":392:394   */\ntag_18:\n    /* \"#utility.yul\":482:484   */\n  dup2\n    /* \"#utility.yul\":476:485   */\n  mload\n    /* \"#utility.yul\":504:506   */\n  dup2\n    /* \"#utility.yul\":500:502   */\n  dup2\n    /* \"#utility.yul\":497:507   */\n  gt\n    /* \"#utility.yul\":494:496   */\n  iszero\n  tag_20\n  jumpi\n    /* \"#utility.yul\":510:528   */\n  tag_20\n  tag_21\n  jump\t// in\ntag_20:\n    /* \"#utility.yul\":557:559   */\n  dup4\n    /* \"#utility.yul\":553:555   */\n  dup2\n    /* \"#utility.yul\":549:560   */\n  mul\n    /* \"#utility.yul\":589:591   */\n  0x40\n    /* \"#utility.yul\":583:592   */\n  mload\n    /* \"#utility.yul\":640:642   */\n  dup6\n    /* \"#utility.yul\":635:637   */\n  dup3\n    /* \"#utility.yul\":627:633   */\n  dup3\n    /* \"#utility.yul\":623:638   */\n  add\n    /* \"#utility.yul\":619:643   */\n  add\n    /* \"#utility.yul\":693:699   */\n  dup2\n    /* \"#utility.yul\":681:691   */\n  dup2\n    /* \"#utility.yul\":678:700   */\n  lt\n    /* \"#utility.yul\":673:675   */\n  dup6\n    /* \"#utility.yul\":661:671   */\n  dup3\n    /* \"#utility.yul\":658:676   */\n  gt\n    /* \"#utility.yul\":655:701   */\n  or\n    /* \"#utility.yul\":652:654   */\n  iszero\n  tag_23\n  jumpi\n    /* \"#utility.yul\":704:722   */\n  tag_23\n  tag_21\n  jump\t// in\ntag_23:\n    /* \"#utility.yul\":740:742   */\n  0x40\n    /* \"#utility.yul\":733:755   */\n  mstore\n    /* \"#utility.yul\":790:808   */\n  dup3\n  dup2\n  mstore\n    /* \"#utility.yul\":824:839   */\n  dup6\n  dup2\n  add\n  swap4\n  pop\n    /* \"#utility.yul\":859:870   */\n  dup5\n  dup7\n  add\n    /* \"#utility.yul\":889:900   */\n  dup3\n  dup7\n  add\n    /* \"#utility.yul\":885:905   */\n  dup8\n  add\n    /* \"#utility.yul\":882:915   */\n  dup11\n  lt\n    /* \"#utility.yul\":879:881   */\n  iszero\n  tag_24\n  jumpi\n    /* \"#utility.yul\":933:939   */\n  dup8\n    /* \"#utility.yul\":925:931   */\n  dup9\n    /* \"#utility.yul\":918:940   */\n  revert\n    /* \"#utility.yul\":879:881   */\ntag_24:\n    /* \"#utility.yul\":960:966   */\n  dup8\n    /* \"#utility.yul\":951:966   */\n  swap6\n  pop\n    /* \"#utility.yul\":975:1131   */\ntag_25:\n    /* \"#utility.yul\":989:991   */\n  dup4\n    /* \"#utility.yul\":986:987   */\n  dup7\n    /* \"#utility.yul\":983:992   */\n  lt\n    /* \"#utility.yul\":975:1131   */\n  iszero\n  tag_27\n  jumpi\n    /* \"#utility.yul\":1046:1056   */\n  dup1\n  mload\n    /* \"#utility.yul\":1034:1057   */\n  dup6\n  mstore\n    /* \"#utility.yul\":1007:1008   */\n  0x01\n    /* \"#utility.yul\":1000:1009   */\n  swap6\n  swap1\n  swap6\n  add\n  swap5\n    /* \"#utility.yul\":1077:1089   */\n  swap4\n  dup7\n  add\n  swap4\n    /* \"#utility.yul\":1109:1121   */\n  dup7\n  add\n    /* \"#utility.yul\":975:1131   */\n  jump(tag_25)\ntag_27:\n  pop\n    /* \"#utility.yul\":1150:1156   */\n  swap9\n    /* \"#utility.yul\":120:1162   */\n  swap8\n  pop\n  pop\n  pop\n  pop\n  pop\n  pop\n  pop\n  pop\n  jump\t// out\n    /* \"#utility.yul\":1167:1460   */\ntag_12:\n  0x00\n  not(0x00)\n    /* \"#utility.yul\":1227:1244   */\n  dup3\n  eq\n    /* \"#utility.yul\":1224:1226   */\n  iszero\n  tag_29\n  jumpi\n    /* \"#utility.yul\":1279:1356   */\n  0x4e487b7100000000000000000000000000000000000000000000000000000000\n    /* \"#utility.yul\":1274:1277   */\n  dup2\n    /* \"#utility.yul\":1267:1357   */\n  mstore\n    /* \"#utility.yul\":1380:1384   */\n  0x11\n    /* \"#utility.yul\":1377:1378   */\n  0x04\n    /* \"#utility.yul\":1370:1385   */\n  mstore\n    /* \"#utility.yul\":1410:1414   */\n  0x24\n    /* \"#utility.yul\":1405:1408   */\n  dup2\n    /* \"#utility.yul\":1398:1415   */\n  revert\n    /* \"#utility.yul\":1224:1226   */\ntag_29:\n  pop\n    /* \"#utility.yul\":1452:1453   */\n  0x01\n    /* \"#utility.yul\":1441:1454   */\n  add\n  swap1\n    /* \"#utility.yul\":1214:1460   */\n  jump\t// out\n    /* \"#utility.yul\":1465:1649   */\ntag_21:\n    /* \"#utility.yul\":1517:1594   */\n  0x4e487b7100000000000000000000000000000000000000000000000000000000\n    /* \"#utility.yul\":1514:1515   */\n  0x00\n    /* \"#utility.yul\":1507:1595   */\n  mstore\n    /* \"#utility.yul\":1614:1618   */\n  0x41\n    /* \"#utility.yul\":1611:1612   */\n  0x04\n    /* \"#utility.yul\":1604:1619   */\n  mstore\n    /* \"#utility.yul\":1638:1642   */\n  0x24\n    /* \"#utility.yul\":1635:1636   */\n  0x00\n    /* \"#utility.yul\":1628:1643   */\n  revert\n    /* \"#utility.yul\":1497:1649   */\ntag_14:\n    /* \"contracts/3_Ballot.sol\":70:2699  contract Vote {... */\n  dataSize(sub_0)\n  dup1\n  dataOffset(sub_0)\n  0x00\n  codecopy\n  0x00\n  return\nstop\n\nsub_0: assembly {\n        /* \"contracts/3_Ballot.sol\":70:2699  contract Vote {... */\n      mstore(0x40, 0x80)\n      callvalue\n      dup1\n      iszero\n      tag_1\n      jumpi\n      0x00\n      dup1\n      revert\n    tag_1:\n      pop\n      jumpi(tag_2, lt(calldatasize, 0x04))\n      calldataload(0x00)\n      0x0100000000000000000000000000000000000000000000000000000000\n      swap1\n      div\n      dup1\n      0x9e7b8d61\n      gt\n      tag_11\n      jumpi\n      dup1\n      0x9e7b8d61\n      eq\n      tag_7\n      jumpi\n      dup1\n      0xb61bfe5b\n      eq\n      tag_8\n      jumpi\n      dup1\n      0xb81c6453\n      eq\n      tag_9\n      jumpi\n      dup1\n      0xe2ba53f0\n      eq\n      tag_10\n      jumpi\n      jump(tag_2)\n    tag_11:\n      dup1\n      0x013cf08b\n      eq\n      tag_3\n      jumpi\n      dup1\n      0x2495c0ce\n      eq\n      tag_4\n      jumpi\n      dup1\n      0x72133c96\n      eq\n      tag_5\n      jumpi\n      dup1\n      0x87f7b975\n      eq\n      tag_6\n      jumpi\n    tag_2:\n      0x00\n      dup1\n      revert\n        /* \"contracts/3_Ballot.sol\":294:321  Proposal[] public proposals */\n    tag_3:\n      tag_12\n      tag_13\n      calldatasize\n      0x04\n      tag_14\n      jump\t// in\n    tag_13:\n      tag_15\n      jump\t// in\n    tag_12:\n      mload(0x40)\n      tag_16\n      swap3\n      swap2\n      swap1\n      tag_17\n      jump\t// in\n    tag_16:\n      mload(0x40)\n      dup1\n      swap2\n      sub\n      swap1\n      return\n        /* \"contracts/3_Ballot.sol\":2367:2523  function stopVote()... */\n    tag_4:\n      tag_18\n      tag_19\n      jump\t// in\n    tag_18:\n      mload(0x40)\n      tag_16\n      swap2\n      swap1\n      tag_21\n      jump\t// in\n        /* \"contracts/3_Ballot.sol\":2027:2363  function proposalWinnerName() public view returns (bytes32 _winnerName) {... */\n    tag_5:\n      tag_18\n      tag_23\n      jump\t// in\n        /* \"contracts/3_Ballot.sol\":326:349  address public chairman */\n    tag_6:\n      tag_25\n      tag_26\n      jump\t// in\n    tag_25:\n      mload(0x40)\n      tag_16\n      swap2\n      swap1\n      tag_28\n      jump\t// in\n        /* \"contracts/3_Ballot.sol\":1575:1749  function giveRightToVote(address _voter)... */\n    tag_7:\n      tag_29\n      tag_30\n      calldatasize\n      0x04\n      tag_31\n      jump\t// in\n    tag_30:\n      tag_32\n      jump\t// in\n    tag_29:\n      stop\n        /* \"contracts/3_Ballot.sol\":354:383  bool public isOpenVote = true */\n    tag_8:\n      tag_33\n      tag_34\n      jump\t// in\n    tag_33:\n      mload(0x40)\n      tag_16\n      swap2\n      swap1\n      tag_36\n      jump\t// in\n        /* \"contracts/3_Ballot.sol\":1753:2023  function vote(uint8 _proposalId, address _voter)... */\n    tag_9:\n      tag_29\n      tag_38\n      calldatasize\n      0x04\n      tag_39\n      jump\t// in\n    tag_38:\n      tag_40\n      jump\t// in\n        /* \"contracts/3_Ballot.sol\":2527:2697  function winnerName() public view returns (bytes32 _winnerName){... */\n    tag_10:\n      tag_18\n      tag_42\n      jump\t// in\n        /* \"contracts/3_Ballot.sol\":294:321  Proposal[] public proposals */\n    tag_15:\n      0x01\n      dup2\n      dup2\n      sload\n      dup2\n      lt\n      tag_44\n      jumpi\n      0x00\n      dup1\n      revert\n    tag_44:\n      0x00\n      swap2\n      dup3\n      mstore\n      0x20\n      swap1\n      swap2\n      keccak256\n      0x02\n      swap1\n      swap2\n      mul\n      add\n      dup1\n      sload\n      0x01\n      swap1\n      swap2\n      add\n      sload\n      swap1\n      swap2\n      pop\n      dup3\n      jump\t// out\n        /* \"contracts/3_Ballot.sol\":2367:2523  function stopVote()... */\n    tag_19:\n        /* \"contracts/3_Ballot.sol\":862:870  chairman */\n      sload(0x02)\n        /* \"contracts/3_Ballot.sol\":2430:2449  bytes32 _winnerName */\n      0x00\n      swap1\n      sub(exp(0x02, 0xa0), 0x01)\n        /* \"contracts/3_Ballot.sol\":862:870  chairman */\n      and\n        /* \"contracts/3_Ballot.sol\":874:884  msg.sender */\n      caller\n        /* \"contracts/3_Ballot.sol\":862:884  chairman == msg.sender */\n      eq\n        /* \"contracts/3_Ballot.sol\":854:932  require(chairman == msg.sender, \"Only chairperson can execute this function.\") */\n      tag_47\n      jumpi\n      mload(0x40)\n      mul(0x461bcd, exp(0x02, 0xe5))\n      dup2\n      mstore\n      0x04\n      add\n      tag_48\n      swap1\n      tag_49\n      jump\t// in\n    tag_48:\n      mload(0x40)\n      dup1\n      swap2\n      sub\n      swap1\n      revert\n    tag_47:\n        /* \"contracts/3_Ballot.sol\":2473:2493  proposalWinnerName() */\n      tag_51\n        /* \"contracts/3_Ballot.sol\":2473:2491  proposalWinnerName */\n      tag_23\n        /* \"contracts/3_Ballot.sol\":2473:2493  proposalWinnerName() */\n      jump\t// in\n    tag_51:\n        /* \"contracts/3_Ballot.sol\":2499:2509  isOpenVote */\n      0x02\n        /* \"contracts/3_Ballot.sol\":2499:2517  isOpenVote = false */\n      dup1\n      sload\n      not(0xff0000000000000000000000000000000000000000)\n      and\n      swap1\n      sstore\n        /* \"contracts/3_Ballot.sol\":2459:2493  _winnerName = proposalWinnerName() */\n      swap2\n        /* \"contracts/3_Ballot.sol\":2367:2523  function stopVote()... */\n      swap1\n      pop\n      jump\t// out\n        /* \"contracts/3_Ballot.sol\":2027:2363  function proposalWinnerName() public view returns (bytes32 _winnerName) {... */\n    tag_23:\n        /* \"contracts/3_Ballot.sol\":2078:2097  bytes32 _winnerName */\n      0x00\n      dup1\n      dup1\n        /* \"contracts/3_Ballot.sol\":2144:2359  for (uint8 i = 0; i < proposals.length; i++) {... */\n    tag_53:\n        /* \"contracts/3_Ballot.sol\":2166:2175  proposals */\n      0x01\n        /* \"contracts/3_Ballot.sol\":2166:2182  proposals.length */\n      sload\n        /* \"contracts/3_Ballot.sol\":2162:2182  i < proposals.length */\n      0xff\n      dup3\n      and\n      lt\n        /* \"contracts/3_Ballot.sol\":2144:2359  for (uint8 i = 0; i < proposals.length; i++) {... */\n      iszero\n      tag_54\n      jumpi\n        /* \"contracts/3_Ballot.sol\":2226:2246  _numberOfWinnerVotes */\n      dup2\n        /* \"contracts/3_Ballot.sol\":2201:2210  proposals */\n      0x01\n        /* \"contracts/3_Ballot.sol\":2211:2212  i */\n      dup3\n        /* \"contracts/3_Ballot.sol\":2201:2213  proposals[i] */\n      0xff\n      and\n      dup2\n      sload\n      dup2\n      lt\n      tag_56\n      jumpi\n      mstore(0x00, mul(0x4e487b71, exp(0x02, 0xe0)))\n      mstore(0x04, 0x32)\n      revert(0x00, 0x24)\n    tag_56:\n      swap1\n      0x00\n      mstore\n      keccak256(0x00, 0x20)\n      swap1\n      0x02\n      mul\n      add\n        /* \"contracts/3_Ballot.sol\":2201:2223  proposals[i].voteCount */\n      0x01\n      add\n      sload\n        /* \"contracts/3_Ballot.sol\":2201:2246  proposals[i].voteCount > _numberOfWinnerVotes */\n      gt\n        /* \"contracts/3_Ballot.sol\":2197:2353  if (proposals[i].voteCount > _numberOfWinnerVotes) {... */\n      iszero\n      tag_58\n      jumpi\n        /* \"contracts/3_Ballot.sol\":2272:2281  proposals */\n      0x01\n        /* \"contracts/3_Ballot.sol\":2282:2283  i */\n      dup2\n        /* \"contracts/3_Ballot.sol\":2272:2284  proposals[i] */\n      0xff\n      and\n      dup2\n      sload\n      dup2\n      lt\n      tag_59\n      jumpi\n      mstore(0x00, mul(0x4e487b71, exp(0x02, 0xe0)))\n      mstore(0x04, 0x32)\n      revert(0x00, 0x24)\n    tag_59:\n      swap1\n      0x00\n      mstore\n      keccak256(0x00, 0x20)\n      swap1\n      0x02\n      mul\n      add\n        /* \"contracts/3_Ballot.sol\":2272:2289  proposals[i].name */\n      0x00\n      add\n      sload\n        /* \"contracts/3_Ballot.sol\":2258:2289  _winnerName = proposals[i].name */\n      swap3\n      pop\n        /* \"contracts/3_Ballot.sol\":2322:2331  proposals */\n      0x01\n        /* \"contracts/3_Ballot.sol\":2332:2333  i */\n      dup2\n        /* \"contracts/3_Ballot.sol\":2322:2334  proposals[i] */\n      0xff\n      and\n      dup2\n      sload\n      dup2\n      lt\n      tag_61\n      jumpi\n      mstore(0x00, mul(0x4e487b71, exp(0x02, 0xe0)))\n      mstore(0x04, 0x32)\n      revert(0x00, 0x24)\n    tag_61:\n      swap1\n      0x00\n      mstore\n      keccak256(0x00, 0x20)\n      swap1\n      0x02\n      mul\n      add\n        /* \"contracts/3_Ballot.sol\":2322:2344  proposals[i].voteCount */\n      0x01\n      add\n      sload\n        /* \"contracts/3_Ballot.sol\":2299:2344  _numberOfWinnerVotes = proposals[i].voteCount */\n      swap2\n      pop\n        /* \"contracts/3_Ballot.sol\":2197:2353  if (proposals[i].voteCount > _numberOfWinnerVotes) {... */\n    tag_58:\n        /* \"contracts/3_Ballot.sol\":2184:2187  i++ */\n      dup1\n      tag_63\n      dup2\n      tag_64\n      jump\t// in\n    tag_63:\n      swap2\n      pop\n      pop\n        /* \"contracts/3_Ballot.sol\":2144:2359  for (uint8 i = 0; i < proposals.length; i++) {... */\n      jump(tag_53)\n    tag_54:\n      pop\n        /* \"contracts/3_Ballot.sol\":2027:2363  function proposalWinnerName() public view returns (bytes32 _winnerName) {... */\n      pop\n      swap1\n      jump\t// out\n        /* \"contracts/3_Ballot.sol\":326:349  address public chairman */\n    tag_26:\n      and(sub(exp(0x02, 0xa0), 0x01), sload(0x02))\n      dup2\n      jump\t// out\n        /* \"contracts/3_Ballot.sol\":1575:1749  function giveRightToVote(address _voter)... */\n    tag_32:\n        /* \"contracts/3_Ballot.sol\":862:870  chairman */\n      and(sub(exp(0x02, 0xa0), 0x01), sload(0x02))\n        /* \"contracts/3_Ballot.sol\":874:884  msg.sender */\n      caller\n        /* \"contracts/3_Ballot.sol\":862:884  chairman == msg.sender */\n      eq\n        /* \"contracts/3_Ballot.sol\":854:932  require(chairman == msg.sender, \"Only chairperson can execute this function.\") */\n      tag_66\n      jumpi\n      mload(0x40)\n      mul(0x461bcd, exp(0x02, 0xe5))\n      dup2\n      mstore\n      0x04\n      add\n      tag_48\n      swap1\n      tag_49\n      jump\t// in\n    tag_66:\n        /* \"contracts/3_Ballot.sol\":984:994  isOpenVote */\n      sload(0x02)\n      0x010000000000000000000000000000000000000000\n      swap1\n      div\n      0xff\n      and\n        /* \"contracts/3_Ballot.sol\":984:1002  isOpenVote == true */\n      iszero\n      iszero\n        /* \"contracts/3_Ballot.sol\":998:1002  true */\n      0x01\n        /* \"contracts/3_Ballot.sol\":984:1002  isOpenVote == true */\n      eq\n        /* \"contracts/3_Ballot.sol\":976:1024  require(isOpenVote == true, \"Votes are closed.\") */\n      tag_69\n      jumpi\n      mload(0x40)\n      mul(0x461bcd, exp(0x02, 0xe5))\n      dup2\n      mstore\n      0x04\n      add\n      tag_48\n      swap1\n      tag_71\n      jump\t// in\n    tag_69:\n      sub(exp(0x02, 0xa0), 0x01)\n        /* \"contracts/3_Ballot.sol\":1092:1106  voters[_voter] */\n      dup2\n      and\n        /* \"contracts/3_Ballot.sol\":1092:1098  voters */\n      0x00\n        /* \"contracts/3_Ballot.sol\":1092:1106  voters[_voter] */\n      swap1\n      dup2\n      mstore\n      0x20\n      dup2\n      swap1\n      mstore\n      0x40\n      swap1\n      keccak256\n        /* \"contracts/3_Ballot.sol\":1092:1112  voters[_voter].voted */\n      sload\n        /* \"contracts/3_Ballot.sol\":1677:1683  _voter */\n      dup2\n      swap1\n        /* \"contracts/3_Ballot.sol\":1092:1112  voters[_voter].voted */\n      0xff\n      and\n        /* \"contracts/3_Ballot.sol\":1091:1112  !voters[_voter].voted */\n      iszero\n        /* \"contracts/3_Ballot.sol\":1083:1141  require(!voters[_voter].voted, \"The voter already voted.\") */\n      tag_73\n      jumpi\n      mload(0x40)\n      mul(0x461bcd, exp(0x02, 0xe5))\n      dup2\n      mstore\n      0x04\n      add\n      tag_48\n      swap1\n      tag_75\n      jump\t// in\n    tag_73:\n      sub(exp(0x02, 0xa0), 0x01)\n        /* \"contracts/3_Ballot.sol\":1210:1224  voters[_voter] */\n      dup3\n      and\n        /* \"contracts/3_Ballot.sol\":1210:1216  voters */\n      0x00\n        /* \"contracts/3_Ballot.sol\":1210:1224  voters[_voter] */\n      swap1\n      dup2\n      mstore\n      0x20\n      dup2\n      swap1\n      mstore\n      0x40\n      swap1\n      keccak256\n        /* \"contracts/3_Ballot.sol\":1210:1231  voters[_voter].weight */\n      sload\n        /* \"contracts/3_Ballot.sol\":1210:1224  voters[_voter] */\n      dup3\n      swap1\n        /* \"contracts/3_Ballot.sol\":1210:1231  voters[_voter].weight */\n      0x010000\n      swap1\n      div\n      0xffffffff\n      and\n        /* \"contracts/3_Ballot.sol\":1210:1236  voters[_voter].weight == 0 */\n      iszero\n        /* \"contracts/3_Ballot.sol\":1202:1274  require(voters[_voter].weight == 0, \"You have already a right to vote.\") */\n      tag_77\n      jumpi\n      mload(0x40)\n      mul(0x461bcd, exp(0x02, 0xe5))\n      dup2\n      mstore\n      0x04\n      add\n      tag_48\n      swap1\n      tag_79\n      jump\t// in\n    tag_77:\n      pop\n      pop\n      sub(exp(0x02, 0xa0), 0x01)\n        /* \"contracts/3_Ballot.sol\":1719:1733  voters[_voter] */\n      and\n        /* \"contracts/3_Ballot.sol\":1719:1725  voters */\n      0x00\n        /* \"contracts/3_Ballot.sol\":1719:1733  voters[_voter] */\n      swap1\n      dup2\n      mstore\n      0x20\n      dup2\n      swap1\n      mstore\n      0x40\n      swap1\n      keccak256\n        /* \"contracts/3_Ballot.sol\":1719:1744  voters[_voter].weight = 1 */\n      dup1\n      sload\n      not(0xffffffff0000)\n      and\n      0x010000\n      or\n      swap1\n      sstore\n        /* \"contracts/3_Ballot.sol\":1575:1749  function giveRightToVote(address _voter)... */\n      jump\t// out\n        /* \"contracts/3_Ballot.sol\":354:383  bool public isOpenVote = true */\n    tag_34:\n      sload(0x02)\n      0x010000000000000000000000000000000000000000\n      swap1\n      div\n      0xff\n      and\n      dup2\n      jump\t// out\n        /* \"contracts/3_Ballot.sol\":1753:2023  function vote(uint8 _proposalId, address _voter)... */\n    tag_40:\n        /* \"contracts/3_Ballot.sol\":984:994  isOpenVote */\n      sload(0x02)\n      0x010000000000000000000000000000000000000000\n      swap1\n      div\n      0xff\n      and\n        /* \"contracts/3_Ballot.sol\":984:1002  isOpenVote == true */\n      iszero\n      iszero\n        /* \"contracts/3_Ballot.sol\":998:1002  true */\n      0x01\n        /* \"contracts/3_Ballot.sol\":984:1002  isOpenVote == true */\n      eq\n        /* \"contracts/3_Ballot.sol\":976:1024  require(isOpenVote == true, \"Votes are closed.\") */\n      tag_82\n      jumpi\n      mload(0x40)\n      mul(0x461bcd, exp(0x02, 0xe5))\n      dup2\n      mstore\n      0x04\n      add\n      tag_48\n      swap1\n      tag_71\n      jump\t// in\n    tag_82:\n        /* \"contracts/3_Ballot.sol\":1844:1850  _voter */\n      dup1\n      sub(exp(0x02, 0xa0), 0x01)\n        /* \"contracts/3_Ballot.sol\":1477:1497  _voter == msg.sender */\n      dup2\n      and\n        /* \"contracts/3_Ballot.sol\":1487:1497  msg.sender */\n      caller\n        /* \"contracts/3_Ballot.sol\":1477:1497  _voter == msg.sender */\n      eq\n        /* \"contracts/3_Ballot.sol\":1462:1559  require(... */\n      tag_85\n      jumpi\n      mload(0x40)\n      mul(0x461bcd, exp(0x02, 0xe5))\n      dup2\n      mstore\n      0x04\n      add\n      tag_48\n      swap1\n      tag_87\n      jump\t// in\n    tag_85:\n      sub(exp(0x02, 0xa0), 0x01)\n        /* \"contracts/3_Ballot.sol\":1341:1355  voters[_voter] */\n      dup3\n      and\n        /* \"contracts/3_Ballot.sol\":1341:1347  voters */\n      0x00\n        /* \"contracts/3_Ballot.sol\":1341:1355  voters[_voter] */\n      swap1\n      dup2\n      mstore\n      0x20\n      dup2\n      swap1\n      mstore\n      0x40\n      swap1\n      keccak256\n        /* \"contracts/3_Ballot.sol\":1341:1362  voters[_voter].weight */\n      sload\n        /* \"contracts/3_Ballot.sol\":1341:1355  voters[_voter] */\n      dup3\n      swap1\n        /* \"contracts/3_Ballot.sol\":1341:1362  voters[_voter].weight */\n      0x010000\n      swap1\n      div\n      0xffffffff\n      and\n        /* \"contracts/3_Ballot.sol\":1333:1405  require(voters[_voter].weight != 0, \"You don't have the right to vote.\") */\n      tag_89\n      jumpi\n      mload(0x40)\n      mul(0x461bcd, exp(0x02, 0xe5))\n      dup2\n      mstore\n      0x04\n      add\n      tag_48\n      swap1\n      tag_91\n      jump\t// in\n    tag_89:\n      sub(exp(0x02, 0xa0), 0x01)\n        /* \"contracts/3_Ballot.sol\":1092:1106  voters[_voter] */\n      dup4\n      and\n        /* \"contracts/3_Ballot.sol\":1092:1098  voters */\n      0x00\n        /* \"contracts/3_Ballot.sol\":1092:1106  voters[_voter] */\n      swap1\n      dup2\n      mstore\n      0x20\n      dup2\n      swap1\n      mstore\n      0x40\n      swap1\n      keccak256\n        /* \"contracts/3_Ballot.sol\":1092:1112  voters[_voter].voted */\n      sload\n        /* \"contracts/3_Ballot.sol\":1892:1898  _voter */\n      dup4\n      swap1\n        /* \"contracts/3_Ballot.sol\":1092:1112  voters[_voter].voted */\n      0xff\n      and\n        /* \"contracts/3_Ballot.sol\":1091:1112  !voters[_voter].voted */\n      iszero\n        /* \"contracts/3_Ballot.sol\":1083:1141  require(!voters[_voter].voted, \"The voter already voted.\") */\n      tag_93\n      jumpi\n      mload(0x40)\n      mul(0x461bcd, exp(0x02, 0xe5))\n      dup2\n      mstore\n      0x04\n      add\n      tag_48\n      swap1\n      tag_75\n      jump\t// in\n    tag_93:\n      sub(exp(0x02, 0xa0), 0x01)\n        /* \"contracts/3_Ballot.sol\":1908:1922  voters[_voter] */\n      dup5\n      and\n        /* \"contracts/3_Ballot.sol\":1908:1914  voters */\n      0x00\n        /* \"contracts/3_Ballot.sol\":1908:1922  voters[_voter] */\n      swap1\n      dup2\n      mstore\n      0x20\n      dup2\n      swap1\n      mstore\n      0x40\n      swap1\n      keccak256\n        /* \"contracts/3_Ballot.sol\":1908:1935  voters[_voter].voted = true */\n      dup1\n      sload\n      0xff\n        /* \"contracts/3_Ballot.sol\":1941:1974  voters[_voter].vote = _proposalId */\n      dup8\n      and\n        /* \"contracts/3_Ballot.sol\":1908:1935  voters[_voter].voted = true */\n      0x0100\n        /* \"contracts/3_Ballot.sol\":1941:1974  voters[_voter].vote = _proposalId */\n      dup2\n      mul\n      not(0xff00)\n      not(0xff)\n        /* \"contracts/3_Ballot.sol\":1908:1935  voters[_voter].voted = true */\n      swap1\n      swap4\n      and\n        /* \"contracts/3_Ballot.sol\":1931:1935  true */\n      0x01\n        /* \"contracts/3_Ballot.sol\":1908:1935  voters[_voter].voted = true */\n      swap1\n      dup2\n      or\n        /* \"contracts/3_Ballot.sol\":1941:1974  voters[_voter].vote = _proposalId */\n      swap4\n      swap1\n      swap4\n      and\n      or\n      swap1\n      swap3\n      sstore\n        /* \"contracts/3_Ballot.sol\":1981:2003  proposals[_proposalId] */\n      dup1\n      sload\n        /* \"contracts/3_Ballot.sol\":1931:1935  true */\n      swap1\n      swap2\n      dup3\n      swap2\n        /* \"contracts/3_Ballot.sol\":1981:2003  proposals[_proposalId] */\n      dup2\n      lt\n      tag_96\n      jumpi\n      mstore(0x00, mul(0x4e487b71, exp(0x02, 0xe0)))\n      mstore(0x04, 0x32)\n      revert(0x00, 0x24)\n    tag_96:\n      swap1\n      0x00\n      mstore\n      keccak256(0x00, 0x20)\n      swap1\n      0x02\n      mul\n      add\n        /* \"contracts/3_Ballot.sol\":1981:2013  proposals[_proposalId].voteCount */\n      0x01\n      add\n      0x00\n        /* \"contracts/3_Ballot.sol\":1981:2018  proposals[_proposalId].voteCount += 1 */\n      dup3\n      dup3\n      sload\n      tag_98\n      swap2\n      swap1\n      tag_99\n      jump\t// in\n    tag_98:\n      swap1\n      swap2\n      sstore\n      pop\n      pop\n      pop\n      pop\n      pop\n      pop\n      pop\n        /* \"contracts/3_Ballot.sol\":1753:2023  function vote(uint8 _proposalId, address _voter)... */\n      jump\t// out\n        /* \"contracts/3_Ballot.sol\":2527:2697  function winnerName() public view returns (bytes32 _winnerName){... */\n    tag_42:\n        /* \"contracts/3_Ballot.sol\":2609:2619  isOpenVote */\n      sload(0x02)\n        /* \"contracts/3_Ballot.sol\":2570:2589  bytes32 _winnerName */\n      0x00\n      swap1\n        /* \"contracts/3_Ballot.sol\":2609:2619  isOpenVote */\n      0x010000000000000000000000000000000000000000\n      swap1\n      div\n      0xff\n      and\n        /* \"contracts/3_Ballot.sol\":2608:2619  !isOpenVote */\n      iszero\n        /* \"contracts/3_Ballot.sol\":2600:2648  require(!isOpenVote, \"Votes are not yet closed\") */\n      tag_101\n      jumpi\n      mload(0x40)\n      mul(0x461bcd, exp(0x02, 0xe5))\n      dup2\n      mstore\n      0x04\n      add\n      tag_48\n      swap1\n      tag_103\n      jump\t// in\n    tag_101:\n        /* \"contracts/3_Ballot.sol\":2672:2692  proposalWinnerName() */\n      tag_104\n        /* \"contracts/3_Ballot.sol\":2672:2690  proposalWinnerName */\n      tag_23\n        /* \"contracts/3_Ballot.sol\":2672:2692  proposalWinnerName() */\n      jump\t// in\n    tag_104:\n        /* \"contracts/3_Ballot.sol\":2658:2692  _winnerName = proposalWinnerName() */\n      swap1\n      pop\n        /* \"contracts/3_Ballot.sol\":2527:2697  function winnerName() public view returns (bytes32 _winnerName){... */\n      swap1\n      jump\t// out\n        /* \"#utility.yul\":14:212   */\n    tag_106:\n        /* \"#utility.yul\":84:104   */\n      dup1\n      calldataload\n      sub(exp(0x02, 0xa0), 0x01)\n        /* \"#utility.yul\":133:187   */\n      dup2\n      and\n        /* \"#utility.yul\":123:188   */\n      dup2\n      eq\n        /* \"#utility.yul\":113:115   */\n      tag_108\n      jumpi\n        /* \"#utility.yul\":202:203   */\n      0x00\n        /* \"#utility.yul\":199:200   */\n      dup1\n        /* \"#utility.yul\":192:204   */\n      revert\n        /* \"#utility.yul\":113:115   */\n    tag_108:\n        /* \"#utility.yul\":65:212   */\n      swap2\n      swap1\n      pop\n      jump\t// out\n        /* \"#utility.yul\":217:415   */\n    tag_31:\n      0x00\n        /* \"#utility.yul\":329:331   */\n      0x20\n        /* \"#utility.yul\":317:326   */\n      dup3\n        /* \"#utility.yul\":308:315   */\n      dup5\n        /* \"#utility.yul\":304:327   */\n      sub\n        /* \"#utility.yul\":300:332   */\n      slt\n        /* \"#utility.yul\":297:299   */\n      iszero\n      tag_110\n      jumpi\n        /* \"#utility.yul\":350:356   */\n      dup1\n        /* \"#utility.yul\":342:348   */\n      dup2\n        /* \"#utility.yul\":335:357   */\n      revert\n        /* \"#utility.yul\":297:299   */\n    tag_110:\n        /* \"#utility.yul\":378:409   */\n      tag_111\n        /* \"#utility.yul\":399:408   */\n      dup3\n        /* \"#utility.yul\":378:409   */\n      tag_106\n      jump\t// in\n    tag_111:\n        /* \"#utility.yul\":368:409   */\n      swap4\n        /* \"#utility.yul\":287:415   */\n      swap3\n      pop\n      pop\n      pop\n      jump\t// out\n        /* \"#utility.yul\":420:610   */\n    tag_14:\n      0x00\n        /* \"#utility.yul\":532:534   */\n      0x20\n        /* \"#utility.yul\":520:529   */\n      dup3\n        /* \"#utility.yul\":511:518   */\n      dup5\n        /* \"#utility.yul\":507:530   */\n      sub\n        /* \"#utility.yul\":503:535   */\n      slt\n        /* \"#utility.yul\":500:502   */\n      iszero\n      tag_113\n      jumpi\n        /* \"#utility.yul\":553:559   */\n      dup1\n        /* \"#utility.yul\":545:551   */\n      dup2\n        /* \"#utility.yul\":538:560   */\n      revert\n        /* \"#utility.yul\":500:502   */\n    tag_113:\n      pop\n        /* \"#utility.yul\":581:604   */\n      calldataload\n      swap2\n        /* \"#utility.yul\":490:610   */\n      swap1\n      pop\n      jump\t// out\n        /* \"#utility.yul\":615:980   */\n    tag_39:\n      0x00\n      dup1\n        /* \"#utility.yul\":742:744   */\n      0x40\n        /* \"#utility.yul\":730:739   */\n      dup4\n        /* \"#utility.yul\":721:728   */\n      dup6\n        /* \"#utility.yul\":717:740   */\n      sub\n        /* \"#utility.yul\":713:745   */\n      slt\n        /* \"#utility.yul\":710:712   */\n      iszero\n      tag_115\n      jumpi\n        /* \"#utility.yul\":763:769   */\n      dup1\n        /* \"#utility.yul\":755:761   */\n      dup2\n        /* \"#utility.yul\":748:770   */\n      revert\n        /* \"#utility.yul\":710:712   */\n    tag_115:\n        /* \"#utility.yul\":807:816   */\n      dup3\n        /* \"#utility.yul\":794:817   */\n      calldataload\n        /* \"#utility.yul\":857:861   */\n      0xff\n        /* \"#utility.yul\":850:855   */\n      dup2\n        /* \"#utility.yul\":846:862   */\n      and\n        /* \"#utility.yul\":839:844   */\n      dup2\n        /* \"#utility.yul\":836:863   */\n      eq\n        /* \"#utility.yul\":826:828   */\n      tag_116\n      jumpi\n        /* \"#utility.yul\":882:888   */\n      dup2\n        /* \"#utility.yul\":874:880   */\n      dup3\n        /* \"#utility.yul\":867:889   */\n      revert\n        /* \"#utility.yul\":826:828   */\n    tag_116:\n        /* \"#utility.yul\":910:915   */\n      swap2\n      pop\n        /* \"#utility.yul\":934:974   */\n      tag_117\n        /* \"#utility.yul\":970:972   */\n      0x20\n        /* \"#utility.yul\":955:973   */\n      dup5\n      add\n        /* \"#utility.yul\":934:974   */\n      tag_106\n      jump\t// in\n    tag_117:\n        /* \"#utility.yul\":924:974   */\n      swap1\n      pop\n        /* \"#utility.yul\":700:980   */\n      swap3\n      pop\n      swap3\n      swap1\n      pop\n      jump\t// out\n        /* \"#utility.yul\":985:1211   */\n    tag_28:\n      sub(exp(0x02, 0xa0), 0x01)\n        /* \"#utility.yul\":1149:1204   */\n      swap2\n      swap1\n      swap2\n      and\n        /* \"#utility.yul\":1131:1205   */\n      dup2\n      mstore\n        /* \"#utility.yul\":1119:1121   */\n      0x20\n        /* \"#utility.yul\":1104:1122   */\n      add\n      swap1\n        /* \"#utility.yul\":1086:1211   */\n      jump\t// out\n        /* \"#utility.yul\":1216:1403   */\n    tag_36:\n        /* \"#utility.yul\":1381:1395   */\n      swap1\n      iszero\n        /* \"#utility.yul\":1374:1396   */\n      iszero\n        /* \"#utility.yul\":1356:1397   */\n      dup2\n      mstore\n        /* \"#utility.yul\":1344:1346   */\n      0x20\n        /* \"#utility.yul\":1329:1347   */\n      add\n      swap1\n        /* \"#utility.yul\":1311:1403   */\n      jump\t// out\n        /* \"#utility.yul\":1408:1585   */\n    tag_21:\n        /* \"#utility.yul\":1554:1579   */\n      swap1\n      dup2\n      mstore\n        /* \"#utility.yul\":1542:1544   */\n      0x20\n        /* \"#utility.yul\":1527:1545   */\n      add\n      swap1\n        /* \"#utility.yul\":1509:1585   */\n      jump\t// out\n        /* \"#utility.yul\":1590:1838   */\n    tag_17:\n        /* \"#utility.yul\":1764:1789   */\n      swap2\n      dup3\n      mstore\n        /* \"#utility.yul\":1820:1822   */\n      0x20\n        /* \"#utility.yul\":1805:1823   */\n      dup3\n      add\n        /* \"#utility.yul\":1798:1832   */\n      mstore\n        /* \"#utility.yul\":1752:1754   */\n      0x40\n        /* \"#utility.yul\":1737:1755   */\n      add\n      swap1\n        /* \"#utility.yul\":1719:1838   */\n      jump\t// out\n        /* \"#utility.yul\":1843:2184   */\n    tag_71:\n        /* \"#utility.yul\":2045:2047   */\n      0x20\n        /* \"#utility.yul\":2027:2048   */\n      dup1\n      dup3\n      mstore\n        /* \"#utility.yul\":2084:2086   */\n      0x11\n        /* \"#utility.yul\":2064:2082   */\n      swap1\n      dup3\n      add\n        /* \"#utility.yul\":2057:2087   */\n      mstore\n        /* \"#utility.yul\":2123:2142   */\n      0x566f7465732061726520636c6f7365642e000000000000000000000000000000\n        /* \"#utility.yul\":2118:2120   */\n      0x40\n        /* \"#utility.yul\":2103:2121   */\n      dup3\n      add\n        /* \"#utility.yul\":2096:2143   */\n      mstore\n        /* \"#utility.yul\":2175:2177   */\n      0x60\n        /* \"#utility.yul\":2160:2178   */\n      add\n      swap1\n        /* \"#utility.yul\":2017:2184   */\n      jump\t// out\n        /* \"#utility.yul\":2189:2586   */\n    tag_79:\n        /* \"#utility.yul\":2391:2393   */\n      0x20\n        /* \"#utility.yul\":2373:2394   */\n      dup1\n      dup3\n      mstore\n        /* \"#utility.yul\":2430:2432   */\n      0x21\n        /* \"#utility.yul\":2410:2428   */\n      swap1\n      dup3\n      add\n        /* \"#utility.yul\":2403:2433   */\n      mstore\n        /* \"#utility.yul\":2469:2503   */\n      0x596f75206861766520616c7265616479206120726967687420746f20766f7465\n        /* \"#utility.yul\":2464:2466   */\n      0x40\n        /* \"#utility.yul\":2449:2467   */\n      dup3\n      add\n        /* \"#utility.yul\":2442:2504   */\n      mstore\n        /* \"#utility.yul\":2540:2543   */\n      0x2e00000000000000000000000000000000000000000000000000000000000000\n        /* \"#utility.yul\":2535:2537   */\n      0x60\n        /* \"#utility.yul\":2520:2538   */\n      dup3\n      add\n        /* \"#utility.yul\":2513:2544   */\n      mstore\n        /* \"#utility.yul\":2576:2579   */\n      0x80\n        /* \"#utility.yul\":2561:2580   */\n      add\n      swap1\n        /* \"#utility.yul\":2363:2586   */\n      jump\t// out\n        /* \"#utility.yul\":2591:2939   */\n    tag_103:\n        /* \"#utility.yul\":2793:2795   */\n      0x20\n        /* \"#utility.yul\":2775:2796   */\n      dup1\n      dup3\n      mstore\n        /* \"#utility.yul\":2832:2834   */\n      0x18\n        /* \"#utility.yul\":2812:2830   */\n      swap1\n      dup3\n      add\n        /* \"#utility.yul\":2805:2835   */\n      mstore\n        /* \"#utility.yul\":2871:2897   */\n      0x566f74657320617265206e6f742079657420636c6f7365640000000000000000\n        /* \"#utility.yul\":2866:2868   */\n      0x40\n        /* \"#utility.yul\":2851:2869   */\n      dup3\n      add\n        /* \"#utility.yul\":2844:2898   */\n      mstore\n        /* \"#utility.yul\":2930:2932   */\n      0x60\n        /* \"#utility.yul\":2915:2933   */\n      add\n      swap1\n        /* \"#utility.yul\":2765:2939   */\n      jump\t// out\n        /* \"#utility.yul\":2944:3341   */\n    tag_91:\n        /* \"#utility.yul\":3146:3148   */\n      0x20\n        /* \"#utility.yul\":3128:3149   */\n      dup1\n      dup3\n      mstore\n        /* \"#utility.yul\":3185:3187   */\n      0x21\n        /* \"#utility.yul\":3165:3183   */\n      swap1\n      dup3\n      add\n        /* \"#utility.yul\":3158:3188   */\n      mstore\n        /* \"#utility.yul\":3224:3258   */\n      0x596f7520646f6e277420686176652074686520726967687420746f20766f7465\n        /* \"#utility.yul\":3219:3221   */\n      0x40\n        /* \"#utility.yul\":3204:3222   */\n      dup3\n      add\n        /* \"#utility.yul\":3197:3259   */\n      mstore\n        /* \"#utility.yul\":3295:3298   */\n      0x2e00000000000000000000000000000000000000000000000000000000000000\n        /* \"#utility.yul\":3290:3292   */\n      0x60\n        /* \"#utility.yul\":3275:3293   */\n      dup3\n      add\n        /* \"#utility.yul\":3268:3299   */\n      mstore\n        /* \"#utility.yul\":3331:3334   */\n      0x80\n        /* \"#utility.yul\":3316:3335   */\n      add\n      swap1\n        /* \"#utility.yul\":3118:3341   */\n      jump\t// out\n        /* \"#utility.yul\":3346:3753   */\n    tag_49:\n        /* \"#utility.yul\":3548:3550   */\n      0x20\n        /* \"#utility.yul\":3530:3551   */\n      dup1\n      dup3\n      mstore\n        /* \"#utility.yul\":3587:3589   */\n      0x2b\n        /* \"#utility.yul\":3567:3585   */\n      swap1\n      dup3\n      add\n        /* \"#utility.yul\":3560:3590   */\n      mstore\n        /* \"#utility.yul\":3626:3660   */\n      0x4f6e6c79206368616972706572736f6e2063616e206578656375746520746869\n        /* \"#utility.yul\":3621:3623   */\n      0x40\n        /* \"#utility.yul\":3606:3624   */\n      dup3\n      add\n        /* \"#utility.yul\":3599:3661   */\n      mstore\n        /* \"#utility.yul\":3697:3710   */\n      0x732066756e6374696f6e2e000000000000000000000000000000000000000000\n        /* \"#utility.yul\":3692:3694   */\n      0x60\n        /* \"#utility.yul\":3677:3695   */\n      dup3\n      add\n        /* \"#utility.yul\":3670:3711   */\n      mstore\n        /* \"#utility.yul\":3743:3746   */\n      0x80\n        /* \"#utility.yul\":3728:3747   */\n      add\n      swap1\n        /* \"#utility.yul\":3520:3753   */\n      jump\t// out\n        /* \"#utility.yul\":3758:4168   */\n    tag_87:\n        /* \"#utility.yul\":3960:3962   */\n      0x20\n        /* \"#utility.yul\":3942:3963   */\n      dup1\n      dup3\n      mstore\n        /* \"#utility.yul\":3999:4001   */\n      0x2e\n        /* \"#utility.yul\":3979:3997   */\n      swap1\n      dup3\n      add\n        /* \"#utility.yul\":3972:4002   */\n      mstore\n        /* \"#utility.yul\":4038:4072   */\n      0x596f7520617265206e6f7420616c6c6f77656420746f20766f74652077697468\n        /* \"#utility.yul\":4033:4035   */\n      0x40\n        /* \"#utility.yul\":4018:4036   */\n      dup3\n      add\n        /* \"#utility.yul\":4011:4073   */\n      mstore\n        /* \"#utility.yul\":4109:4125   */\n      0x207468697320616464726573732e000000000000000000000000000000000000\n        /* \"#utility.yul\":4104:4106   */\n      0x60\n        /* \"#utility.yul\":4089:4107   */\n      dup3\n      add\n        /* \"#utility.yul\":4082:4126   */\n      mstore\n        /* \"#utility.yul\":4158:4161   */\n      0x80\n        /* \"#utility.yul\":4143:4162   */\n      add\n      swap1\n        /* \"#utility.yul\":3932:4168   */\n      jump\t// out\n        /* \"#utility.yul\":4173:4521   */\n    tag_75:\n        /* \"#utility.yul\":4375:4377   */\n      0x20\n        /* \"#utility.yul\":4357:4378   */\n      dup1\n      dup3\n      mstore\n        /* \"#utility.yul\":4414:4416   */\n      0x18\n        /* \"#utility.yul\":4394:4412   */\n      swap1\n      dup3\n      add\n        /* \"#utility.yul\":4387:4417   */\n      mstore\n        /* \"#utility.yul\":4453:4479   */\n      0x54686520766f74657220616c726561647920766f7465642e0000000000000000\n        /* \"#utility.yul\":4448:4450   */\n      0x40\n        /* \"#utility.yul\":4433:4451   */\n      dup3\n      add\n        /* \"#utility.yul\":4426:4480   */\n      mstore\n        /* \"#utility.yul\":4512:4514   */\n      0x60\n        /* \"#utility.yul\":4497:4515   */\n      add\n      swap1\n        /* \"#utility.yul\":4347:4521   */\n      jump\t// out\n        /* \"#utility.yul\":4526:4654   */\n    tag_99:\n      0x00\n        /* \"#utility.yul\":4597:4598   */\n      dup3\n        /* \"#utility.yul\":4593:4599   */\n      not\n        /* \"#utility.yul\":4590:4591   */\n      dup3\n        /* \"#utility.yul\":4587:4600   */\n      gt\n        /* \"#utility.yul\":4584:4586   */\n      iszero\n      tag_131\n      jumpi\n        /* \"#utility.yul\":4603:4621   */\n      tag_131\n      tag_132\n      jump\t// in\n    tag_131:\n      pop\n        /* \"#utility.yul\":4639:4648   */\n      add\n      swap1\n        /* \"#utility.yul\":4574:4654   */\n      jump\t// out\n        /* \"#utility.yul\":4659:4834   */\n    tag_64:\n      0x00\n        /* \"#utility.yul\":4740:4744   */\n      0xff\n        /* \"#utility.yul\":4733:4738   */\n      dup3\n        /* \"#utility.yul\":4729:4745   */\n      and\n        /* \"#utility.yul\":4769:4773   */\n      0xff\n        /* \"#utility.yul\":4760:4767   */\n      dup2\n        /* \"#utility.yul\":4757:4774   */\n      eq\n        /* \"#utility.yul\":4754:4756   */\n      iszero\n      tag_135\n      jumpi\n        /* \"#utility.yul\":4777:4795   */\n      tag_135\n      tag_132\n      jump\t// in\n    tag_135:\n        /* \"#utility.yul\":4826:4827   */\n      0x01\n        /* \"#utility.yul\":4813:4828   */\n      add\n      swap3\n        /* \"#utility.yul\":4704:4834   */\n      swap2\n      pop\n      pop\n      jump\t// out\n        /* \"#utility.yul\":4839:5023   */\n    tag_132:\n      mul(0x4e487b71, exp(0x02, 0xe0))\n        /* \"#utility.yul\":4888:4889   */\n      0x00\n        /* \"#utility.yul\":4881:4969   */\n      mstore\n        /* \"#utility.yul\":4988:4992   */\n      0x11\n        /* \"#utility.yul\":4985:4986   */\n      0x04\n        /* \"#utility.yul\":4978:4993   */\n      mstore\n        /* \"#utility.yul\":5012:5016   */\n      0x24\n        /* \"#utility.yul\":5009:5010   */\n      0x00\n        /* \"#utility.yul\":5002:5017   */\n      revert\n\n    auxdata: 0xa26469706673582212200082f84ec05d638ae390b0a4c4680ca9d364d73a65af3075e4a6007fc058b47364736f6c63430008000033\n}\n",
				"bytecode": {
					"linkReferences": {},
					"object": "60806040526002805460a060020a60ff0219167401000000000000000000000000000000000000000017905534801561003757600080fd5b50604051610baa380380610baa83398101604081905261005691610135565b60028054600160a060020a031916331790819055600160a060020a03166000908152602081905260408120805465ffffffff00001916620100001790555b815181101561012e57600160405180604001604052808484815181106100e3577f4e487b7100000000000000000000000000000000000000000000000000000000600052603260045260246000fd5b60209081029190910181015182526000918101829052835460018181018655948352918190208351600290930201918255919091015191015580610126816101ef565b915050610094565b505061025e565b60006020808385031215610147578182fd5b825167ffffffffffffffff8082111561015e578384fd5b818501915085601f830112610171578384fd5b8151818111156101835761018361022f565b838102604051858282010181811085821117156101a2576101a261022f565b604052828152858101935084860182860187018a10156101c0578788fd5b8795505b838610156101e25780518552600195909501949386019386016101c4565b5098975050505050505050565b6000600019821415610228577f4e487b710000000000000000000000000000000000000000000000000000000081526011600452602481fd5b5060010190565b7f4e487b7100000000000000000000000000000000000000000000000000000000600052604160045260246000fd5b61093d8061026d6000396000f3fe608060405234801561001057600080fd5b50600436106100a5576000357c0100000000000000000000000000000000000000000000000000000000900480639e7b8d61116100785780639e7b8d6114610106578063b61bfe5b1461011b578063b81c645314610130578063e2ba53f014610143576100a5565b8063013cf08b146100aa5780632495c0ce146100d457806372133c96146100e957806387f7b975146100f1575b600080fd5b6100bd6100b8366004610616565b61014b565b6040516100cb92919061068f565b60405180910390f35b6100dc610179565b6040516100cb9190610686565b6100dc6101dd565b6100f96102bd565b6040516100cb9190610667565b6101196101143660046105f5565b6102cc565b005b6101236103ed565b6040516100cb919061067b565b61011961013e36600461062e565b61040e565b6100dc61058b565b6001818154811061015b57600080fd5b60009182526020909120600290910201805460019091015490915082565b600254600090600160a060020a031633146101b25760405160e560020a62461bcd0281526004016101a9906107c5565b60405180910390fd5b6101ba6101dd565b6002805474ff000000000000000000000000000000000000000019169055919050565b600080805b60015460ff821610156102b8578160018260ff16815481106102175760e060020a634e487b7102600052603260045260246000fd5b90600052602060002090600202016001015411156102a65760018160ff16815481106102565760e060020a634e487b7102600052603260045260246000fd5b906000526020600020906002020160000154925060018160ff16815481106102915760e060020a634e487b7102600052603260045260246000fd5b90600052602060002090600202016001015491505b806102b0816108ce565b9150506101e2565b505090565b600254600160a060020a031681565b600254600160a060020a031633146102f95760405160e560020a62461bcd0281526004016101a9906107c5565b60025474010000000000000000000000000000000000000000900460ff16151560011461033b5760405160e560020a62461bcd0281526004016101a99061069d565b600160a060020a038116600090815260208190526040902054819060ff16156103795760405160e560020a62461bcd0281526004016101a99061087f565b600160a060020a038216600090815260208190526040902054829062010000900463ffffffff16156103c05760405160e560020a62461bcd0281526004016101a9906106d4565b5050600160a060020a03166000908152602081905260409020805465ffffffff0000191662010000179055565b60025474010000000000000000000000000000000000000000900460ff1681565b60025474010000000000000000000000000000000000000000900460ff1615156001146104505760405160e560020a62461bcd0281526004016101a99061069d565b80600160a060020a038116331461047c5760405160e560020a62461bcd0281526004016101a990610822565b600160a060020a038216600090815260208190526040902054829062010000900463ffffffff166104c25760405160e560020a62461bcd0281526004016101a990610768565b600160a060020a038316600090815260208190526040902054839060ff16156105005760405160e560020a62461bcd0281526004016101a99061087f565b600160a060020a0384166000908152602081905260409020805460ff8716610100810261ff001960ff1990931660019081179390931617909255805490918291811061055f5760e060020a634e487b7102600052603260045260246000fd5b9060005260206000209060020201600101600082825461057f91906108b6565b90915550505050505050565b60025460009074010000000000000000000000000000000000000000900460ff16156105cc5760405160e560020a62461bcd0281526004016101a990610731565b6105d46101dd565b905090565b8035600160a060020a03811681146105f057600080fd5b919050565b600060208284031215610606578081fd5b61060f826105d9565b9392505050565b600060208284031215610627578081fd5b5035919050565b60008060408385031215610640578081fd5b823560ff81168114610650578182fd5b915061065e602084016105d9565b90509250929050565b600160a060020a0391909116815260200190565b901515815260200190565b90815260200190565b918252602082015260400190565b60208082526011908201527f566f7465732061726520636c6f7365642e000000000000000000000000000000604082015260600190565b60208082526021908201527f596f75206861766520616c7265616479206120726967687420746f20766f746560408201527f2e00000000000000000000000000000000000000000000000000000000000000606082015260800190565b60208082526018908201527f566f74657320617265206e6f742079657420636c6f7365640000000000000000604082015260600190565b60208082526021908201527f596f7520646f6e277420686176652074686520726967687420746f20766f746560408201527f2e00000000000000000000000000000000000000000000000000000000000000606082015260800190565b6020808252602b908201527f4f6e6c79206368616972706572736f6e2063616e20657865637574652074686960408201527f732066756e6374696f6e2e000000000000000000000000000000000000000000606082015260800190565b6020808252602e908201527f596f7520617265206e6f7420616c6c6f77656420746f20766f7465207769746860408201527f207468697320616464726573732e000000000000000000000000000000000000606082015260800190565b60208082526018908201527f54686520766f74657220616c726561647920766f7465642e0000000000000000604082015260600190565b600082198211156108c9576108c96108ee565b500190565b600060ff821660ff8114156108e5576108e56108ee565b60010192915050565b60e060020a634e487b7102600052601160045260246000fdfea26469706673582212200082f84ec05d638ae390b0a4c4680ca9d364d73a65af3075e4a6007fc058b47364736f6c63430008000033",
					"opcodes": "PUSH1 0x80 PUSH1 0x40 MSTORE PUSH1 0x2 DUP1 SLOAD PUSH1 0xA0 PUSH1 0x2 EXP PUSH1 0xFF MUL NOT AND PUSH21 0x10000000000000000000000000000000000000000 OR SWAP1 SSTORE CALLVALUE DUP1 ISZERO PUSH2 0x37 JUMPI PUSH1 0x0 DUP1 REVERT JUMPDEST POP PUSH1 0x40 MLOAD PUSH2 0xBAA CODESIZE SUB DUP1 PUSH2 0xBAA DUP4 CODECOPY DUP2 ADD PUSH1 0x40 DUP2 SWAP1 MSTORE PUSH2 0x56 SWAP2 PUSH2 0x135 JUMP JUMPDEST PUSH1 0x2 DUP1 SLOAD PUSH1 0x1 PUSH1 0xA0 PUSH1 0x2 EXP SUB NOT AND CALLER OR SWAP1 DUP2 SWAP1 SSTORE PUSH1 0x1 PUSH1 0xA0 PUSH1 0x2 EXP SUB AND PUSH1 0x0 SWAP1 DUP2 MSTORE PUSH1 0x20 DUP2 SWAP1 MSTORE PUSH1 0x40 DUP2 KECCAK256 DUP1 SLOAD PUSH6 0xFFFFFFFF0000 NOT AND PUSH3 0x10000 OR SWAP1 SSTORE JUMPDEST DUP2 MLOAD DUP2 LT ISZERO PUSH2 0x12E JUMPI PUSH1 0x1 PUSH1 0x40 MLOAD DUP1 PUSH1 0x40 ADD PUSH1 0x40 MSTORE DUP1 DUP5 DUP5 DUP2 MLOAD DUP2 LT PUSH2 0xE3 JUMPI PUSH32 0x4E487B7100000000000000000000000000000000000000000000000000000000 PUSH1 0x0 MSTORE PUSH1 0x32 PUSH1 0x4 MSTORE PUSH1 0x24 PUSH1 0x0 REVERT JUMPDEST PUSH1 0x20 SWAP1 DUP2 MUL SWAP2 SWAP1 SWAP2 ADD DUP2 ADD MLOAD DUP3 MSTORE PUSH1 0x0 SWAP2 DUP2 ADD DUP3 SWAP1 MSTORE DUP4 SLOAD PUSH1 0x1 DUP2 DUP2 ADD DUP7 SSTORE SWAP5 DUP4 MSTORE SWAP2 DUP2 SWAP1 KECCAK256 DUP4 MLOAD PUSH1 0x2 SWAP1 SWAP4 MUL ADD SWAP2 DUP3 SSTORE SWAP2 SWAP1 SWAP2 ADD MLOAD SWAP2 ADD SSTORE DUP1 PUSH2 0x126 DUP2 PUSH2 0x1EF JUMP JUMPDEST SWAP2 POP POP PUSH2 0x94 JUMP JUMPDEST POP POP PUSH2 0x25E JUMP JUMPDEST PUSH1 0x0 PUSH1 0x20 DUP1 DUP4 DUP6 SUB SLT ISZERO PUSH2 0x147 JUMPI DUP2 DUP3 REVERT JUMPDEST DUP3 MLOAD PUSH8 0xFFFFFFFFFFFFFFFF DUP1 DUP3 GT ISZERO PUSH2 0x15E JUMPI DUP4 DUP5 REVERT JUMPDEST DUP2 DUP6 ADD SWAP2 POP DUP6 PUSH1 0x1F DUP4 ADD SLT PUSH2 0x171 JUMPI DUP4 DUP5 REVERT JUMPDEST DUP2 MLOAD DUP2 DUP2 GT ISZERO PUSH2 0x183 JUMPI PUSH2 0x183 PUSH2 0x22F JUMP JUMPDEST DUP4 DUP2 MUL PUSH1 0x40 MLOAD DUP6 DUP3 DUP3 ADD ADD DUP2 DUP2 LT DUP6 DUP3 GT OR ISZERO PUSH2 0x1A2 JUMPI PUSH2 0x1A2 PUSH2 0x22F JUMP JUMPDEST PUSH1 0x40 MSTORE DUP3 DUP2 MSTORE DUP6 DUP2 ADD SWAP4 POP DUP5 DUP7 ADD DUP3 DUP7 ADD DUP8 ADD DUP11 LT ISZERO PUSH2 0x1C0 JUMPI DUP8 DUP9 REVERT JUMPDEST DUP8 SWAP6 POP JUMPDEST DUP4 DUP7 LT ISZERO PUSH2 0x1E2 JUMPI DUP1 MLOAD DUP6 MSTORE PUSH1 0x1 SWAP6 SWAP1 SWAP6 ADD SWAP5 SWAP4 DUP7 ADD SWAP4 DUP7 ADD PUSH2 0x1C4 JUMP JUMPDEST POP SWAP9 SWAP8 POP POP POP POP POP POP POP POP JUMP JUMPDEST PUSH1 0x0 PUSH1 0x0 NOT DUP3 EQ ISZERO PUSH2 0x228 JUMPI PUSH32 0x4E487B7100000000000000000000000000000000000000000000000000000000 DUP2 MSTORE PUSH1 0x11 PUSH1 0x4 MSTORE PUSH1 0x24 DUP2 REVERT JUMPDEST POP PUSH1 0x1 ADD SWAP1 JUMP JUMPDEST PUSH32 0x4E487B7100000000000000000000000000000000000000000000000000000000 PUSH1 0x0 MSTORE PUSH1 0x41 PUSH1 0x4 MSTORE PUSH1 0x24 PUSH1 0x0 REVERT JUMPDEST PUSH2 0x93D DUP1 PUSH2 0x26D PUSH1 0x0 CODECOPY PUSH1 0x0 RETURN INVALID PUSH1 0x80 PUSH1 0x40 MSTORE CALLVALUE DUP1 ISZERO PUSH2 0x10 JUMPI PUSH1 0x0 DUP1 REVERT JUMPDEST POP PUSH1 0x4 CALLDATASIZE LT PUSH2 0xA5 JUMPI PUSH1 0x0 CALLDATALOAD PUSH29 0x100000000000000000000000000000000000000000000000000000000 SWAP1 DIV DUP1 PUSH4 0x9E7B8D61 GT PUSH2 0x78 JUMPI DUP1 PUSH4 0x9E7B8D61 EQ PUSH2 0x106 JUMPI DUP1 PUSH4 0xB61BFE5B EQ PUSH2 0x11B JUMPI DUP1 PUSH4 0xB81C6453 EQ PUSH2 0x130 JUMPI DUP1 PUSH4 0xE2BA53F0 EQ PUSH2 0x143 JUMPI PUSH2 0xA5 JUMP JUMPDEST DUP1 PUSH4 0x13CF08B EQ PUSH2 0xAA JUMPI DUP1 PUSH4 0x2495C0CE EQ PUSH2 0xD4 JUMPI DUP1 PUSH4 0x72133C96 EQ PUSH2 0xE9 JUMPI DUP1 PUSH4 0x87F7B975 EQ PUSH2 0xF1 JUMPI JUMPDEST PUSH1 0x0 DUP1 REVERT JUMPDEST PUSH2 0xBD PUSH2 0xB8 CALLDATASIZE PUSH1 0x4 PUSH2 0x616 JUMP JUMPDEST PUSH2 0x14B JUMP JUMPDEST PUSH1 0x40 MLOAD PUSH2 0xCB SWAP3 SWAP2 SWAP1 PUSH2 0x68F JUMP JUMPDEST PUSH1 0x40 MLOAD DUP1 SWAP2 SUB SWAP1 RETURN JUMPDEST PUSH2 0xDC PUSH2 0x179 JUMP JUMPDEST PUSH1 0x40 MLOAD PUSH2 0xCB SWAP2 SWAP1 PUSH2 0x686 JUMP JUMPDEST PUSH2 0xDC PUSH2 0x1DD JUMP JUMPDEST PUSH2 0xF9 PUSH2 0x2BD JUMP JUMPDEST PUSH1 0x40 MLOAD PUSH2 0xCB SWAP2 SWAP1 PUSH2 0x667 JUMP JUMPDEST PUSH2 0x119 PUSH2 0x114 CALLDATASIZE PUSH1 0x4 PUSH2 0x5F5 JUMP JUMPDEST PUSH2 0x2CC JUMP JUMPDEST STOP JUMPDEST PUSH2 0x123 PUSH2 0x3ED JUMP JUMPDEST PUSH1 0x40 MLOAD PUSH2 0xCB SWAP2 SWAP1 PUSH2 0x67B JUMP JUMPDEST PUSH2 0x119 PUSH2 0x13E CALLDATASIZE PUSH1 0x4 PUSH2 0x62E JUMP JUMPDEST PUSH2 0x40E JUMP JUMPDEST PUSH2 0xDC PUSH2 0x58B JUMP JUMPDEST PUSH1 0x1 DUP2 DUP2 SLOAD DUP2 LT PUSH2 0x15B JUMPI PUSH1 0x0 DUP1 REVERT JUMPDEST PUSH1 0x0 SWAP2 DUP3 MSTORE PUSH1 0x20 SWAP1 SWAP2 KECCAK256 PUSH1 0x2 SWAP1 SWAP2 MUL ADD DUP1 SLOAD PUSH1 0x1 SWAP1 SWAP2 ADD SLOAD SWAP1 SWAP2 POP DUP3 JUMP JUMPDEST PUSH1 0x2 SLOAD PUSH1 0x0 SWAP1 PUSH1 0x1 PUSH1 0xA0 PUSH1 0x2 EXP SUB AND CALLER EQ PUSH2 0x1B2 JUMPI PUSH1 0x40 MLOAD PUSH1 0xE5 PUSH1 0x2 EXP PUSH3 0x461BCD MUL DUP2 MSTORE PUSH1 0x4 ADD PUSH2 0x1A9 SWAP1 PUSH2 0x7C5 JUMP JUMPDEST PUSH1 0x40 MLOAD DUP1 SWAP2 SUB SWAP1 REVERT JUMPDEST PUSH2 0x1BA PUSH2 0x1DD JUMP JUMPDEST PUSH1 0x2 DUP1 SLOAD PUSH21 0xFF0000000000000000000000000000000000000000 NOT AND SWAP1 SSTORE SWAP2 SWAP1 POP JUMP JUMPDEST PUSH1 0x0 DUP1 DUP1 JUMPDEST PUSH1 0x1 SLOAD PUSH1 0xFF DUP3 AND LT ISZERO PUSH2 0x2B8 JUMPI DUP2 PUSH1 0x1 DUP3 PUSH1 0xFF AND DUP2 SLOAD DUP2 LT PUSH2 0x217 JUMPI PUSH1 0xE0 PUSH1 0x2 EXP PUSH4 0x4E487B71 MUL PUSH1 0x0 MSTORE PUSH1 0x32 PUSH1 0x4 MSTORE PUSH1 0x24 PUSH1 0x0 REVERT JUMPDEST SWAP1 PUSH1 0x0 MSTORE PUSH1 0x20 PUSH1 0x0 KECCAK256 SWAP1 PUSH1 0x2 MUL ADD PUSH1 0x1 ADD SLOAD GT ISZERO PUSH2 0x2A6 JUMPI PUSH1 0x1 DUP2 PUSH1 0xFF AND DUP2 SLOAD DUP2 LT PUSH2 0x256 JUMPI PUSH1 0xE0 PUSH1 0x2 EXP PUSH4 0x4E487B71 MUL PUSH1 0x0 MSTORE PUSH1 0x32 PUSH1 0x4 MSTORE PUSH1 0x24 PUSH1 0x0 REVERT JUMPDEST SWAP1 PUSH1 0x0 MSTORE PUSH1 0x20 PUSH1 0x0 KECCAK256 SWAP1 PUSH1 0x2 MUL ADD PUSH1 0x0 ADD SLOAD SWAP3 POP PUSH1 0x1 DUP2 PUSH1 0xFF AND DUP2 SLOAD DUP2 LT PUSH2 0x291 JUMPI PUSH1 0xE0 PUSH1 0x2 EXP PUSH4 0x4E487B71 MUL PUSH1 0x0 MSTORE PUSH1 0x32 PUSH1 0x4 MSTORE PUSH1 0x24 PUSH1 0x0 REVERT JUMPDEST SWAP1 PUSH1 0x0 MSTORE PUSH1 0x20 PUSH1 0x0 KECCAK256 SWAP1 PUSH1 0x2 MUL ADD PUSH1 0x1 ADD SLOAD SWAP2 POP JUMPDEST DUP1 PUSH2 0x2B0 DUP2 PUSH2 0x8CE JUMP JUMPDEST SWAP2 POP POP PUSH2 0x1E2 JUMP JUMPDEST POP POP SWAP1 JUMP JUMPDEST PUSH1 0x2 SLOAD PUSH1 0x1 PUSH1 0xA0 PUSH1 0x2 EXP SUB AND DUP2 JUMP JUMPDEST PUSH1 0x2 SLOAD PUSH1 0x1 PUSH1 0xA0 PUSH1 0x2 EXP SUB AND CALLER EQ PUSH2 0x2F9 JUMPI PUSH1 0x40 MLOAD PUSH1 0xE5 PUSH1 0x2 EXP PUSH3 0x461BCD MUL DUP2 MSTORE PUSH1 0x4 ADD PUSH2 0x1A9 SWAP1 PUSH2 0x7C5 JUMP JUMPDEST PUSH1 0x2 SLOAD PUSH21 0x10000000000000000000000000000000000000000 SWAP1 DIV PUSH1 0xFF AND ISZERO ISZERO PUSH1 0x1 EQ PUSH2 0x33B JUMPI PUSH1 0x40 MLOAD PUSH1 0xE5 PUSH1 0x2 EXP PUSH3 0x461BCD MUL DUP2 MSTORE PUSH1 0x4 ADD PUSH2 0x1A9 SWAP1 PUSH2 0x69D JUMP JUMPDEST PUSH1 0x1 PUSH1 0xA0 PUSH1 0x2 EXP SUB DUP2 AND PUSH1 0x0 SWAP1 DUP2 MSTORE PUSH1 0x20 DUP2 SWAP1 MSTORE PUSH1 0x40 SWAP1 KECCAK256 SLOAD DUP2 SWAP1 PUSH1 0xFF AND ISZERO PUSH2 0x379 JUMPI PUSH1 0x40 MLOAD PUSH1 0xE5 PUSH1 0x2 EXP PUSH3 0x461BCD MUL DUP2 MSTORE PUSH1 0x4 ADD PUSH2 0x1A9 SWAP1 PUSH2 0x87F JUMP JUMPDEST PUSH1 0x1 PUSH1 0xA0 PUSH1 0x2 EXP SUB DUP3 AND PUSH1 0x0 SWAP1 DUP2 MSTORE PUSH1 0x20 DUP2 SWAP1 MSTORE PUSH1 0x40 SWAP1 KECCAK256 SLOAD DUP3 SWAP1 PUSH3 0x10000 SWAP1 DIV PUSH4 0xFFFFFFFF AND ISZERO PUSH2 0x3C0 JUMPI PUSH1 0x40 MLOAD PUSH1 0xE5 PUSH1 0x2 EXP PUSH3 0x461BCD MUL DUP2 MSTORE PUSH1 0x4 ADD PUSH2 0x1A9 SWAP1 PUSH2 0x6D4 JUMP JUMPDEST POP POP PUSH1 0x1 PUSH1 0xA0 PUSH1 0x2 EXP SUB AND PUSH1 0x0 SWAP1 DUP2 MSTORE PUSH1 0x20 DUP2 SWAP1 MSTORE PUSH1 0x40 SWAP1 KECCAK256 DUP1 SLOAD PUSH6 0xFFFFFFFF0000 NOT AND PUSH3 0x10000 OR SWAP1 SSTORE JUMP JUMPDEST PUSH1 0x2 SLOAD PUSH21 0x10000000000000000000000000000000000000000 SWAP1 DIV PUSH1 0xFF AND DUP2 JUMP JUMPDEST PUSH1 0x2 SLOAD PUSH21 0x10000000000000000000000000000000000000000 SWAP1 DIV PUSH1 0xFF AND ISZERO ISZERO PUSH1 0x1 EQ PUSH2 0x450 JUMPI PUSH1 0x40 MLOAD PUSH1 0xE5 PUSH1 0x2 EXP PUSH3 0x461BCD MUL DUP2 MSTORE PUSH1 0x4 ADD PUSH2 0x1A9 SWAP1 PUSH2 0x69D JUMP JUMPDEST DUP1 PUSH1 0x1 PUSH1 0xA0 PUSH1 0x2 EXP SUB DUP2 AND CALLER EQ PUSH2 0x47C JUMPI PUSH1 0x40 MLOAD PUSH1 0xE5 PUSH1 0x2 EXP PUSH3 0x461BCD MUL DUP2 MSTORE PUSH1 0x4 ADD PUSH2 0x1A9 SWAP1 PUSH2 0x822 JUMP JUMPDEST PUSH1 0x1 PUSH1 0xA0 PUSH1 0x2 EXP SUB DUP3 AND PUSH1 0x0 SWAP1 DUP2 MSTORE PUSH1 0x20 DUP2 SWAP1 MSTORE PUSH1 0x40 SWAP1 KECCAK256 SLOAD DUP3 SWAP1 PUSH3 0x10000 SWAP1 DIV PUSH4 0xFFFFFFFF AND PUSH2 0x4C2 JUMPI PUSH1 0x40 MLOAD PUSH1 0xE5 PUSH1 0x2 EXP PUSH3 0x461BCD MUL DUP2 MSTORE PUSH1 0x4 ADD PUSH2 0x1A9 SWAP1 PUSH2 0x768 JUMP JUMPDEST PUSH1 0x1 PUSH1 0xA0 PUSH1 0x2 EXP SUB DUP4 AND PUSH1 0x0 SWAP1 DUP2 MSTORE PUSH1 0x20 DUP2 SWAP1 MSTORE PUSH1 0x40 SWAP1 KECCAK256 SLOAD DUP4 SWAP1 PUSH1 0xFF AND ISZERO PUSH2 0x500 JUMPI PUSH1 0x40 MLOAD PUSH1 0xE5 PUSH1 0x2 EXP PUSH3 0x461BCD MUL DUP2 MSTORE PUSH1 0x4 ADD PUSH2 0x1A9 SWAP1 PUSH2 0x87F JUMP JUMPDEST PUSH1 0x1 PUSH1 0xA0 PUSH1 0x2 EXP SUB DUP5 AND PUSH1 0x0 SWAP1 DUP2 MSTORE PUSH1 0x20 DUP2 SWAP1 MSTORE PUSH1 0x40 SWAP1 KECCAK256 DUP1 SLOAD PUSH1 0xFF DUP8 AND PUSH2 0x100 DUP2 MUL PUSH2 0xFF00 NOT PUSH1 0xFF NOT SWAP1 SWAP4 AND PUSH1 0x1 SWAP1 DUP2 OR SWAP4 SWAP1 SWAP4 AND OR SWAP1 SWAP3 SSTORE DUP1 SLOAD SWAP1 SWAP2 DUP3 SWAP2 DUP2 LT PUSH2 0x55F JUMPI PUSH1 0xE0 PUSH1 0x2 EXP PUSH4 0x4E487B71 MUL PUSH1 0x0 MSTORE PUSH1 0x32 PUSH1 0x4 MSTORE PUSH1 0x24 PUSH1 0x0 REVERT JUMPDEST SWAP1 PUSH1 0x0 MSTORE PUSH1 0x20 PUSH1 0x0 KECCAK256 SWAP1 PUSH1 0x2 MUL ADD PUSH1 0x1 ADD PUSH1 0x0 DUP3 DUP3 SLOAD PUSH2 0x57F SWAP2 SWAP1 PUSH2 0x8B6 JUMP JUMPDEST SWAP1 SWAP2 SSTORE POP POP POP POP POP POP POP JUMP JUMPDEST PUSH1 0x2 SLOAD PUSH1 0x0 SWAP1 PUSH21 0x10000000000000000000000000000000000000000 SWAP1 DIV PUSH1 0xFF AND ISZERO PUSH2 0x5CC JUMPI PUSH1 0x40 MLOAD PUSH1 0xE5 PUSH1 0x2 EXP PUSH3 0x461BCD MUL DUP2 MSTORE PUSH1 0x4 ADD PUSH2 0x1A9 SWAP1 PUSH2 0x731 JUMP JUMPDEST PUSH2 0x5D4 PUSH2 0x1DD JUMP JUMPDEST SWAP1 POP SWAP1 JUMP JUMPDEST DUP1 CALLDATALOAD PUSH1 0x1 PUSH1 0xA0 PUSH1 0x2 EXP SUB DUP2 AND DUP2 EQ PUSH2 0x5F0 JUMPI PUSH1 0x0 DUP1 REVERT JUMPDEST SWAP2 SWAP1 POP JUMP JUMPDEST PUSH1 0x0 PUSH1 0x20 DUP3 DUP5 SUB SLT ISZERO PUSH2 0x606 JUMPI DUP1 DUP2 REVERT JUMPDEST PUSH2 0x60F DUP3 PUSH2 0x5D9 JUMP JUMPDEST SWAP4 SWAP3 POP POP POP JUMP JUMPDEST PUSH1 0x0 PUSH1 0x20 DUP3 DUP5 SUB SLT ISZERO PUSH2 0x627 JUMPI DUP1 DUP2 REVERT JUMPDEST POP CALLDATALOAD SWAP2 SWAP1 POP JUMP JUMPDEST PUSH1 0x0 DUP1 PUSH1 0x40 DUP4 DUP6 SUB SLT ISZERO PUSH2 0x640 JUMPI DUP1 DUP2 REVERT JUMPDEST DUP3 CALLDATALOAD PUSH1 0xFF DUP2 AND DUP2 EQ PUSH2 0x650 JUMPI DUP2 DUP3 REVERT JUMPDEST SWAP2 POP PUSH2 0x65E PUSH1 0x20 DUP5 ADD PUSH2 0x5D9 JUMP JUMPDEST SWAP1 POP SWAP3 POP SWAP3 SWAP1 POP JUMP JUMPDEST PUSH1 0x1 PUSH1 0xA0 PUSH1 0x2 EXP SUB SWAP2 SWAP1 SWAP2 AND DUP2 MSTORE PUSH1 0x20 ADD SWAP1 JUMP JUMPDEST SWAP1 ISZERO ISZERO DUP2 MSTORE PUSH1 0x20 ADD SWAP1 JUMP JUMPDEST SWAP1 DUP2 MSTORE PUSH1 0x20 ADD SWAP1 JUMP JUMPDEST SWAP2 DUP3 MSTORE PUSH1 0x20 DUP3 ADD MSTORE PUSH1 0x40 ADD SWAP1 JUMP JUMPDEST PUSH1 0x20 DUP1 DUP3 MSTORE PUSH1 0x11 SWAP1 DUP3 ADD MSTORE PUSH32 0x566F7465732061726520636C6F7365642E000000000000000000000000000000 PUSH1 0x40 DUP3 ADD MSTORE PUSH1 0x60 ADD SWAP1 JUMP JUMPDEST PUSH1 0x20 DUP1 DUP3 MSTORE PUSH1 0x21 SWAP1 DUP3 ADD MSTORE PUSH32 0x596F75206861766520616C7265616479206120726967687420746F20766F7465 PUSH1 0x40 DUP3 ADD MSTORE PUSH32 0x2E00000000000000000000000000000000000000000000000000000000000000 PUSH1 0x60 DUP3 ADD MSTORE PUSH1 0x80 ADD SWAP1 JUMP JUMPDEST PUSH1 0x20 DUP1 DUP3 MSTORE PUSH1 0x18 SWAP1 DUP3 ADD MSTORE PUSH32 0x566F74657320617265206E6F742079657420636C6F7365640000000000000000 PUSH1 0x40 DUP3 ADD MSTORE PUSH1 0x60 ADD SWAP1 JUMP JUMPDEST PUSH1 0x20 DUP1 DUP3 MSTORE PUSH1 0x21 SWAP1 DUP3 ADD MSTORE PUSH32 0x596F7520646F6E277420686176652074686520726967687420746F20766F7465 PUSH1 0x40 DUP3 ADD MSTORE PUSH32 0x2E00000000000000000000000000000000000000000000000000000000000000 PUSH1 0x60 DUP3 ADD MSTORE PUSH1 0x80 ADD SWAP1 JUMP JUMPDEST PUSH1 0x20 DUP1 DUP3 MSTORE PUSH1 0x2B SWAP1 DUP3 ADD MSTORE PUSH32 0x4F6E6C79206368616972706572736F6E2063616E206578656375746520746869 PUSH1 0x40 DUP3 ADD MSTORE PUSH32 0x732066756E6374696F6E2E000000000000000000000000000000000000000000 PUSH1 0x60 DUP3 ADD MSTORE PUSH1 0x80 ADD SWAP1 JUMP JUMPDEST PUSH1 0x20 DUP1 DUP3 MSTORE PUSH1 0x2E SWAP1 DUP3 ADD MSTORE PUSH32 0x596F7520617265206E6F7420616C6C6F77656420746F20766F74652077697468 PUSH1 0x40 DUP3 ADD MSTORE PUSH32 0x207468697320616464726573732E000000000000000000000000000000000000 PUSH1 0x60 DUP3 ADD MSTORE PUSH1 0x80 ADD SWAP1 JUMP JUMPDEST PUSH1 0x20 DUP1 DUP3 MSTORE PUSH1 0x18 SWAP1 DUP3 ADD MSTORE PUSH32 0x54686520766F74657220616C726561647920766F7465642E0000000000000000 PUSH1 0x40 DUP3 ADD MSTORE PUSH1 0x60 ADD SWAP1 JUMP JUMPDEST PUSH1 0x0 DUP3 NOT DUP3 GT ISZERO PUSH2 0x8C9 JUMPI PUSH2 0x8C9 PUSH2 0x8EE JUMP JUMPDEST POP ADD SWAP1 JUMP JUMPDEST PUSH1 0x0 PUSH1 0xFF DUP3 AND PUSH1 0xFF DUP2 EQ ISZERO PUSH2 0x8E5 JUMPI PUSH2 0x8E5 PUSH2 0x8EE JUMP JUMPDEST PUSH1 0x1 ADD SWAP3 SWAP2 POP POP JUMP JUMPDEST PUSH1 0xE0 PUSH1 0x2 EXP PUSH4 0x4E487B71 MUL PUSH1 0x0 MSTORE PUSH1 0x11 PUSH1 0x4 MSTORE PUSH1 0x24 PUSH1 0x0 REVERT INVALID LOG2 PUSH5 0x6970667358 0x22 SLT KECCAK256 STOP DUP3 0xF8 0x4E 0xC0 0x5D PUSH4 0x8AE390B0 LOG4 0xC4 PUSH9 0xCA9D364D73A65AF30 PUSH22 0xE4A6007FC058B47364736F6C63430008000033000000 "
				},
				"gasEstimates": {
					"creation": {
						"codeDepositCost": "473000",
						"executionCost": "infinite",
						"totalCost": "infinite"
					},
					"external": {
						"chairman()": "656",
						"giveRightToVote(address)": "22048",
						"isOpenVote()": "478",
						"proposalWinnerName()": "infinite",
						"proposals(uint256)": "1052",
						"stopVote()": "infinite",
						"vote(uint8,address)": "42607",
						"winnerName()": "infinite"
					}
				},
				"methodIdentifiers": {
					"chairman()": "87f7b975",
					"giveRightToVote(address)": "9e7b8d61",
					"isOpenVote()": "b61bfe5b",
					"proposalWinnerName()": "72133c96",
					"proposals(uint256)": "013cf08b",
					"stopVote()": "2495c0ce",
					"vote(uint8,address)": "b81c6453",
					"winnerName()": "e2ba53f0"
				}
			},
			"storageLayout": {
				"storage": [
					{
						"astId": 20,
						"contract": "contracts/3_Ballot.sol:Vote",
						"label": "voters",
						"offset": 0,
						"slot": "0",
						"type": "t_mapping(t_address,t_struct(Voter)10_storage)"
					},
					{
						"astId": 24,
						"contract": "contracts/3_Ballot.sol:Vote",
						"label": "proposals",
						"offset": 0,
						"slot": "1",
						"type": "t_array(t_struct(Proposal)15_storage)dyn_storage"
					},
					{
						"astId": 26,
						"contract": "contracts/3_Ballot.sol:Vote",
						"label": "chairman",
						"offset": 0,
						"slot": "2",
						"type": "t_address"
					},
					{
						"astId": 29,
						"contract": "contracts/3_Ballot.sol:Vote",
						"label": "isOpenVote",
						"offset": 20,
						"slot": "2",
						"type": "t_bool"
					}
				],
				"types": {
					"t_address": {
						"encoding": "inplace",
						"label": "address",
						"numberOfBytes": "20"
					},
					"t_array(t_struct(Proposal)15_storage)dyn_storage": {
						"base": "t_struct(Proposal)15_storage",
						"encoding": "dynamic_array",
						"label": "struct Vote.Proposal[]",
						"numberOfBytes": "32"
					},
					"t_bool": {
						"encoding": "inplace",
						"label": "bool",
						"numberOfBytes": "1"
					},
					"t_bytes32": {
						"encoding": "inplace",
						"label": "bytes32",
						"numberOfBytes": "32"
					},
					"t_mapping(t_address,t_struct(Voter)10_storage)": {
						"encoding": "mapping",
						"key": "t_address",
						"label": "mapping(address => struct Vote.Voter)",
						"numberOfBytes": "32",
						"value": "t_struct(Voter)10_storage"
					},
					"t_struct(Proposal)15_storage": {
						"encoding": "inplace",
						"label": "struct Vote.Proposal",
						"members": [
							{
								"astId": 12,
								"contract": "contracts/3_Ballot.sol:Vote",
								"label": "name",
								"offset": 0,
								"slot": "0",
								"type": "t_bytes32"
							},
							{
								"astId": 14,
								"contract": "contracts/3_Ballot.sol:Vote",
								"label": "voteCount",
								"offset": 0,
								"slot": "1",
								"type": "t_uint256"
							}
						],
						"numberOfBytes": "64"
					},
					"t_struct(Voter)10_storage": {
						"encoding": "inplace",
						"label": "struct Vote.Voter",
						"members": [
							{
								"astId": 3,
								"contract": "contracts/3_Ballot.sol:Vote",
								"label": "voted",
								"offset": 0,
								"slot": "0",
								"type": "t_bool"
							},
							{
								"astId": 5,
								"contract": "contracts/3_Ballot.sol:Vote",
								"label": "vote",
								"offset": 1,
								"slot": "0",
								"type": "t_uint8"
							},
							{
								"astId": 7,
								"contract": "contracts/3_Ballot.sol:Vote",
								"label": "weight",
								"offset": 2,
								"slot": "0",
								"type": "t_uint32"
							},
							{
								"astId": 9,
								"contract": "contracts/3_Ballot.sol:Vote",
								"label": "delegate",
								"offset": 6,
								"slot": "0",
								"type": "t_address"
							}
						],
						"numberOfBytes": "32"
					},
					"t_uint256": {
						"encoding": "inplace",
						"label": "uint256",
						"numberOfBytes": "32"
					},
					"t_uint32": {
						"encoding": "inplace",
						"label": "uint32",
						"numberOfBytes": "4"
					},
					"t_uint8": {
						"encoding": "inplace",
						"label": "uint8",
						"numberOfBytes": "1"
					}
				}
			},
			"userdoc": {
				"kind": "user",
				"methods": {},
				"version": 1
			}
		}
	}
}