{
	"contracts/Whale.sol": {
		"Whale": {
			"abi": [
				{
					"inputs": [],
					"name": "checkBalance",
					"outputs": [
						{
							"internalType": "uint256",
							"name": "",
							"type": "uint256"
						}
					],
					"stateMutability": "view",
					"type": "function"
				}
			],
			"devdoc": {
				"kind": "dev",
				"methods": {},
				"version": 1
			},
			"evm": {
				"assembly": "    /* \"contracts/Whale.sol\":121:295  contract Whale {... */\n  mstore(0x40, 0x80)\n  callvalue\n  dup1\n  iszero\n  tag_1\n  jumpi\n  0x00\n  dup1\n  revert\ntag_1:\n  pop\n  dataSize(sub_0)\n  dup1\n  dataOffset(sub_0)\n  0x00\n  codecopy\n  0x00\n  return\nstop\n\nsub_0: assembly {\n        /* \"contracts/Whale.sol\":121:295  contract Whale {... */\n      mstore(0x40, 0x80)\n      callvalue\n      dup1\n      iszero\n      tag_1\n      jumpi\n      0x00\n      dup1\n      revert\n    tag_1:\n      pop\n      jumpi(tag_2, lt(calldatasize, 0x04))\n      div(calldataload(0x00), 0x0100000000000000000000000000000000000000000000000000000000)\n      0xc71daccb\n      dup2\n      eq\n      tag_3\n      jumpi\n    tag_2:\n      0x00\n      dup1\n      revert\n        /* \"contracts/Whale.sol\":142:293  function checkBalance() public view returns (uint256) {... */\n    tag_3:\n      tag_4\n      tag_5\n      jump\t// in\n    tag_4:\n      mload(0x40)\n        /* \"#utility.yul\":580:605   */\n      swap1\n      dup2\n      mstore\n        /* \"#utility.yul\":568:570   */\n      0x20\n        /* \"#utility.yul\":553:571   */\n      add\n        /* \"contracts/Whale.sol\":142:293  function checkBalance() public view returns (uint256) {... */\n      mload(0x40)\n      dup1\n      swap2\n      sub\n      swap1\n      return\n    tag_5:\n        /* \"contracts/Whale.sol\":213:286  IERC721(0x484Ec30Feff505b545Ed7b905bc25a6a40589181).balanceOf(msg.sender) */\n      mload(0x40)\n      0x70a0823100000000000000000000000000000000000000000000000000000000\n      dup2\n      mstore\n        /* \"contracts/Whale.sol\":275:285  msg.sender */\n      caller\n        /* \"contracts/Whale.sol\":213:286  IERC721(0x484Ec30Feff505b545Ed7b905bc25a6a40589181).balanceOf(msg.sender) */\n      0x04\n      dup3\n      add\n        /* \"#utility.yul\":349:423   */\n      mstore\n        /* \"contracts/Whale.sol\":187:194  uint256 */\n      0x00\n      swap1\n        /* \"contracts/Whale.sol\":221:263  0x484Ec30Feff505b545Ed7b905bc25a6a40589181 */\n      0x484ec30feff505b545ed7b905bc25a6a40589181\n      swap1\n        /* \"contracts/Whale.sol\":213:274  IERC721(0x484Ec30Feff505b545Ed7b905bc25a6a40589181).balanceOf */\n      0x70a08231\n      swap1\n        /* \"#utility.yul\":322:340   */\n      0x24\n      add\n        /* \"contracts/Whale.sol\":213:286  IERC721(0x484Ec30Feff505b545Ed7b905bc25a6a40589181).balanceOf(msg.sender) */\n      0x20\n      mload(0x40)\n      dup1\n      dup4\n      sub\n      dup2\n      dup7\n      dup1\n      extcodesize\n      iszero\n      dup1\n      iszero\n      tag_11\n      jumpi\n      0x00\n      dup1\n      revert\n    tag_11:\n      pop\n      gas\n      staticcall\n      iszero\n      dup1\n      iszero\n      tag_13\n      jumpi\n      returndatasize\n      0x00\n      dup1\n      returndatacopy\n      revert(0x00, returndatasize)\n    tag_13:\n      pop\n      pop\n      pop\n      pop\n      mload(0x40)\n      returndatasize\n      not(0x1f)\n      0x1f\n      dup3\n      add\n      and\n      dup3\n      add\n      dup1\n      0x40\n      mstore\n      pop\n      dup2\n      add\n      swap1\n      tag_14\n      swap2\n      swap1\n      tag_15\n      jump\t// in\n    tag_14:\n        /* \"contracts/Whale.sol\":206:286  return IERC721(0x484Ec30Feff505b545Ed7b905bc25a6a40589181).balanceOf(msg.sender) */\n      swap1\n      pop\n        /* \"contracts/Whale.sol\":142:293  function checkBalance() public view returns (uint256) {... */\n      swap1\n      jump\t// out\n        /* \"#utility.yul\":14:198   */\n    tag_15:\n        /* \"#utility.yul\":84:90   */\n      0x00\n        /* \"#utility.yul\":137:139   */\n      0x20\n        /* \"#utility.yul\":125:134   */\n      dup3\n        /* \"#utility.yul\":116:123   */\n      dup5\n        /* \"#utility.yul\":112:135   */\n      sub\n        /* \"#utility.yul\":108:140   */\n      slt\n        /* \"#utility.yul\":105:157   */\n      iszero\n      tag_18\n      jumpi\n        /* \"#utility.yul\":153:154   */\n      0x00\n        /* \"#utility.yul\":150:151   */\n      dup1\n        /* \"#utility.yul\":143:155   */\n      revert\n        /* \"#utility.yul\":105:157   */\n    tag_18:\n      pop\n        /* \"#utility.yul\":176:192   */\n      mload\n      swap2\n        /* \"#utility.yul\":14:198   */\n      swap1\n      pop\n      jump\t// out\n\n    auxdata: 0xa2646970667358221220d0d65f6174caca72a12be4a4c8992dd94b49a8a256b0e8acdd25b191e40d658664736f6c63430008070033\n}\n",
				"bytecode": {
					"linkReferences": {},
					"object": "608060405234801561001057600080fd5b50610158806100206000396000f3fe608060405234801561001057600080fd5b5060043610610047577c01000000000000000000000000000000000000000000000000000000006000350463c71daccb811461004c575b600080fd5b610054610066565b60405190815260200160405180910390f35b6040517f70a0823100000000000000000000000000000000000000000000000000000000815233600482015260009073484ec30feff505b545ed7b905bc25a6a40589181906370a082319060240160206040518083038186803b1580156100cc57600080fd5b505afa1580156100e0573d6000803e3d6000fd5b505050506040513d601f19601f820116820180604052508101906101049190610109565b905090565b60006020828403121561011b57600080fd5b505191905056fea2646970667358221220d0d65f6174caca72a12be4a4c8992dd94b49a8a256b0e8acdd25b191e40d658664736f6c63430008070033",
					"opcodes": "PUSH1 0x80 PUSH1 0x40 MSTORE CALLVALUE DUP1 ISZERO PUSH2 0x10 JUMPI PUSH1 0x0 DUP1 REVERT JUMPDEST POP PUSH2 0x158 DUP1 PUSH2 0x20 PUSH1 0x0 CODECOPY PUSH1 0x0 RETURN INVALID PUSH1 0x80 PUSH1 0x40 MSTORE CALLVALUE DUP1 ISZERO PUSH2 0x10 JUMPI PUSH1 0x0 DUP1 REVERT JUMPDEST POP PUSH1 0x4 CALLDATASIZE LT PUSH2 0x47 JUMPI PUSH29 0x100000000000000000000000000000000000000000000000000000000 PUSH1 0x0 CALLDATALOAD DIV PUSH4 0xC71DACCB DUP2 EQ PUSH2 0x4C JUMPI JUMPDEST PUSH1 0x0 DUP1 REVERT JUMPDEST PUSH2 0x54 PUSH2 0x66 JUMP JUMPDEST PUSH1 0x40 MLOAD SWAP1 DUP2 MSTORE PUSH1 0x20 ADD PUSH1 0x40 MLOAD DUP1 SWAP2 SUB SWAP1 RETURN JUMPDEST PUSH1 0x40 MLOAD PUSH32 0x70A0823100000000000000000000000000000000000000000000000000000000 DUP2 MSTORE CALLER PUSH1 0x4 DUP3 ADD MSTORE PUSH1 0x0 SWAP1 PUSH20 0x484EC30FEFF505B545ED7B905BC25A6A40589181 SWAP1 PUSH4 0x70A08231 SWAP1 PUSH1 0x24 ADD PUSH1 0x20 PUSH1 0x40 MLOAD DUP1 DUP4 SUB DUP2 DUP7 DUP1 EXTCODESIZE ISZERO DUP1 ISZERO PUSH2 0xCC JUMPI PUSH1 0x0 DUP1 REVERT JUMPDEST POP GAS STATICCALL ISZERO DUP1 ISZERO PUSH2 0xE0 JUMPI RETURNDATASIZE PUSH1 0x0 DUP1 RETURNDATACOPY RETURNDATASIZE PUSH1 0x0 REVERT JUMPDEST POP POP POP POP PUSH1 0x40 MLOAD RETURNDATASIZE PUSH1 0x1F NOT PUSH1 0x1F DUP3 ADD AND DUP3 ADD DUP1 PUSH1 0x40 MSTORE POP DUP2 ADD SWAP1 PUSH2 0x104 SWAP2 SWAP1 PUSH2 0x109 JUMP JUMPDEST SWAP1 POP SWAP1 JUMP JUMPDEST PUSH1 0x0 PUSH1 0x20 DUP3 DUP5 SUB SLT ISZERO PUSH2 0x11B JUMPI PUSH1 0x0 DUP1 REVERT JUMPDEST POP MLOAD SWAP2 SWAP1 POP JUMP INVALID LOG2 PUSH5 0x6970667358 0x22 SLT KECCAK256 0xD0 0xD6 0x5F PUSH2 0x74CA 0xCA PUSH19 0xA12BE4A4C8992DD94B49A8A256B0E8ACDD25B1 SWAP2 0xE4 0xD PUSH6 0x8664736F6C63 NUMBER STOP ADDMOD SMOD STOP CALLER "
				},
				"gasEstimates": {
					"creation": {
						"codeDepositCost": "68800",
						"executionCost": "117",
						"totalCost": "68917"
					},
					"external": {
						"checkBalance()": "infinite"
					}
				},
				"methodIdentifiers": {
					"checkBalance()": "c71daccb"
				}
			},
			"storageLayout": {
				"storage": [],
				"types": null
			},
			"userdoc": {
				"kind": "user",
				"methods": {},
				"version": 1
			}
		}
	}
}