{
	"contracts/Test.sol": {
		"Wallet": {
			"abi": [
				{
					"inputs": [],
					"name": "getBalance",
					"outputs": [
						{
							"internalType": "uint256",
							"name": "",
							"type": "uint256"
						}
					],
					"stateMutability": "view",
					"type": "function"
				},
				{
					"inputs": [],
					"name": "getTotalBalance",
					"outputs": [
						{
							"internalType": "uint256",
							"name": "",
							"type": "uint256"
						}
					],
					"stateMutability": "view",
					"type": "function"
				},
				{
					"inputs": [
						{
							"internalType": "address payable",
							"name": "_to",
							"type": "address"
						}
					],
					"name": "withdrawAllMoney",
					"outputs": [],
					"stateMutability": "nonpayable",
					"type": "function"
				},
				{
					"inputs": [
						{
							"internalType": "address payable",
							"name": "_to",
							"type": "address"
						},
						{
							"internalType": "uint256",
							"name": "_amount",
							"type": "uint256"
						}
					],
					"name": "withdrawMoney",
					"outputs": [],
					"stateMutability": "nonpayable",
					"type": "function"
				},
				{
					"stateMutability": "payable",
					"type": "receive"
				}
			],
			"devdoc": {
				"kind": "dev",
				"methods": {},
				"version": 1
			},
			"evm": {
				"assembly": "    /* \"contracts/Test.sol\":255:1518  contract Wallet is Ownable {... */\n  mstore(0x40, 0x80)\n  callvalue\n  dup1\n  iszero\n  tag_1\n  jumpi\n  0x00\n  dup1\n  revert\ntag_1:\n  pop\n    /* \"contracts/Test.sol\":126:131  owner */\n  0x00\n    /* \"contracts/Test.sol\":126:144  owner = msg.sender */\n  dup1\n  sload\n  not(sub(exp(0x02, 0xa0), 0x01))\n  and\n    /* \"contracts/Test.sol\":134:144  msg.sender */\n  caller\n    /* \"contracts/Test.sol\":126:144  owner = msg.sender */\n  or\n  swap1\n  sstore\n    /* \"contracts/Test.sol\":255:1518  contract Wallet is Ownable {... */\n  dataSize(sub_0)\n  dup1\n  dataOffset(sub_0)\n  0x00\n  codecopy\n  0x00\n  return\nstop\n\nsub_0: assembly {\n        /* \"contracts/Test.sol\":255:1518  contract Wallet is Ownable {... */\n      mstore(0x40, 0x80)\n      jumpi(tag_1, lt(calldatasize, 0x04))\n      div(calldataload(0x00), 0x0100000000000000000000000000000000000000000000000000000000)\n      0x0adec93c\n      dup2\n      eq\n      tag_3\n      jumpi\n      dup1\n      0x12065fe0\n      eq\n      tag_4\n      jumpi\n      dup1\n      0x12b58349\n      eq\n      tag_5\n      jumpi\n      dup1\n      0xf274c897\n      eq\n      tag_6\n      jumpi\n      0x00\n      dup1\n      revert\n    tag_1:\n      jumpi(tag_2, calldatasize)\n        /* \"contracts/Test.sol\":593:628  Payment(msg.value, block.timestamp) */\n      0x40\n      dup1\n      mload\n      dup1\n      dup3\n      add\n      dup3\n      mstore\n        /* \"contracts/Test.sol\":601:610  msg.value */\n      callvalue\n        /* \"contracts/Test.sol\":593:628  Payment(msg.value, block.timestamp) */\n      dup1\n      dup3\n      mstore\n        /* \"contracts/Test.sol\":612:627  block.timestamp */\n      timestamp\n        /* \"contracts/Test.sol\":593:628  Payment(msg.value, block.timestamp) */\n      0x20\n      dup1\n      dup5\n      add\n      swap2\n      dup3\n      mstore\n        /* \"contracts/Test.sol\":646:656  msg.sender */\n      caller\n        /* \"contracts/Test.sol\":568:590  Payment memory payment */\n      0x00\n        /* \"contracts/Test.sol\":638:657  wallets[msg.sender] */\n      dup2\n      dup2\n      mstore\n        /* \"contracts/Test.sol\":638:645  wallets */\n      0x01\n        /* \"contracts/Test.sol\":638:657  wallets[msg.sender] */\n      dup1\n      dup5\n      mstore\n      dup8\n      dup3\n      keccak256\n        /* \"contracts/Test.sol\":638:682  wallets[msg.sender].totalBalance = msg.value */\n      swap6\n      dup7\n      sstore\n        /* \"contracts/Test.sol\":726:759  wallets[msg.sender].numberPayment */\n      dup6\n      dup2\n      add\n      dup1\n      sload\n        /* \"contracts/Test.sol\":697:760  wallets[msg.sender].payments[wallets[msg.sender].numberPayment] */\n      dup4\n      mstore\n        /* \"contracts/Test.sol\":697:725  wallets[msg.sender].payments */\n      0x02\n      swap1\n      swap7\n      add\n        /* \"contracts/Test.sol\":697:760  wallets[msg.sender].payments[wallets[msg.sender].numberPayment] */\n      dup5\n      mstore\n      swap7\n      dup2\n      keccak256\n        /* \"contracts/Test.sol\":697:770  wallets[msg.sender].payments[wallets[msg.sender].numberPayment] = payment */\n      dup7\n      mload\n      dup2\n      sstore\n      swap4\n      mload\n      swap4\n      dup8\n      add\n      swap4\n      swap1\n      swap4\n      sstore\n        /* \"contracts/Test.sol\":785:804  wallets[msg.sender] */\n      dup3\n      mstore\n      swap4\n      swap1\n      swap4\n      mstore\n        /* \"contracts/Test.sol\":785:820  wallets[msg.sender].numberPayment++ */\n      dup1\n      sload\n        /* \"contracts/Test.sol\":593:628  Payment(msg.value, block.timestamp) */\n      swap2\n      swap3\n        /* \"contracts/Test.sol\":785:820  wallets[msg.sender].numberPayment++ */\n      tag_9\n      dup4\n      tag_10\n      jump\t// in\n    tag_9:\n      swap2\n      swap1\n      pop\n      sstore\n      pop\n        /* \"contracts/Test.sol\":558:832  {... */\n      pop\n        /* \"contracts/Test.sol\":255:1518  contract Wallet is Ownable {... */\n      stop\n    tag_2:\n      0x00\n      dup1\n      revert\n        /* \"contracts/Test.sol\":1072:1268  function withdrawAllMoney(address payable _to) external {... */\n    tag_3:\n      callvalue\n      dup1\n      iszero\n      tag_11\n      jumpi\n      0x00\n      dup1\n      revert\n    tag_11:\n      pop\n      tag_12\n      tag_13\n      calldatasize\n      0x04\n      tag_14\n      jump\t// in\n    tag_13:\n      tag_15\n      jump\t// in\n    tag_12:\n      stop\n        /* \"contracts/Test.sol\":958:1066  function getBalance() external view  returns (uint) {... */\n    tag_4:\n      callvalue\n      dup1\n      iszero\n      tag_16\n      jumpi\n      0x00\n      dup1\n      revert\n    tag_16:\n      pop\n        /* \"contracts/Test.sol\":1035:1045  msg.sender */\n      caller\n        /* \"contracts/Test.sol\":1004:1008  uint */\n      0x00\n        /* \"contracts/Test.sol\":1027:1046  wallets[msg.sender] */\n      swap1\n      dup2\n      mstore\n        /* \"contracts/Test.sol\":1027:1034  wallets */\n      0x01\n        /* \"contracts/Test.sol\":1027:1046  wallets[msg.sender] */\n      0x20\n      mstore\n      0x40\n      swap1\n      keccak256\n        /* \"contracts/Test.sol\":1027:1059  wallets[msg.sender].totalBalance */\n      sload\n        /* \"contracts/Test.sol\":958:1066  function getBalance() external view  returns (uint) {... */\n    tag_17:\n      mload(0x40)\n        /* \"#utility.yul\":1539:1564   */\n      swap1\n      dup2\n      mstore\n        /* \"#utility.yul\":1527:1529   */\n      0x20\n        /* \"#utility.yul\":1512:1530   */\n      add\n        /* \"contracts/Test.sol\":958:1066  function getBalance() external view  returns (uint) {... */\n      mload(0x40)\n      dup1\n      swap2\n      sub\n      swap1\n      return\n        /* \"contracts/Test.sol\":838:949  function getTotalBalance() external view onlyOwner returns (uint) {... */\n    tag_5:\n      callvalue\n      dup1\n      iszero\n      tag_21\n      jumpi\n      0x00\n      dup1\n      revert\n    tag_21:\n      pop\n      tag_17\n      tag_23\n      jump\t// in\n        /* \"contracts/Test.sol\":1274:1516  function withdrawMoney(address payable _to, uint _amount) external {... */\n    tag_6:\n      callvalue\n      dup1\n      iszero\n      tag_25\n      jumpi\n      0x00\n      dup1\n      revert\n    tag_25:\n      pop\n      tag_12\n      tag_27\n      calldatasize\n      0x04\n      tag_28\n      jump\t// in\n    tag_27:\n      tag_29\n      jump\t// in\n        /* \"contracts/Test.sol\":1072:1268  function withdrawAllMoney(address payable _to) external {... */\n    tag_15:\n        /* \"contracts/Test.sol\":1160:1170  msg.sender */\n      caller\n        /* \"contracts/Test.sol\":1138:1149  uint amount */\n      0x00\n        /* \"contracts/Test.sol\":1152:1171  wallets[msg.sender] */\n      swap1\n      dup2\n      mstore\n        /* \"contracts/Test.sol\":1152:1159  wallets */\n      0x01\n        /* \"contracts/Test.sol\":1152:1171  wallets[msg.sender] */\n      0x20\n      mstore\n      0x40\n      dup1\n      dup3\n      keccak256\n        /* \"contracts/Test.sol\":1152:1184  wallets[msg.sender].totalBalance */\n      dup1\n      sload\n        /* \"contracts/Test.sol\":1195:1231  wallets[msg.sender].totalBalance = 0 */\n      swap1\n      dup4\n      swap1\n      sstore\n        /* \"contracts/Test.sol\":1241:1261  _to.transfer(amount) */\n      swap1\n      mload\n        /* \"contracts/Test.sol\":1152:1184  wallets[msg.sender].totalBalance */\n      swap1\n      swap2\n        /* \"contracts/Test.sol\":1152:1171  wallets[msg.sender] */\n      0xffffffffffffffffffffffffffffffffffffffff\n        /* \"contracts/Test.sol\":1241:1253  _to.transfer */\n      dup5\n      and\n      swap2\n        /* \"contracts/Test.sol\":1241:1261  _to.transfer(amount) */\n      dup4\n      iszero\n      0x08fc\n      mul\n      swap2\n        /* \"contracts/Test.sol\":1152:1184  wallets[msg.sender].totalBalance */\n      dup5\n      swap2\n        /* \"contracts/Test.sol\":1241:1261  _to.transfer(amount) */\n      swap1\n      dup2\n        /* \"contracts/Test.sol\":1138:1149  uint amount */\n      dup2\n        /* \"contracts/Test.sol\":1241:1261  _to.transfer(amount) */\n      dup2\n        /* \"contracts/Test.sol\":1152:1184  wallets[msg.sender].totalBalance */\n      dup6\n        /* \"contracts/Test.sol\":1241:1253  _to.transfer */\n      dup9\n        /* \"contracts/Test.sol\":1241:1261  _to.transfer(amount) */\n      dup9\n      call\n      swap4\n      pop\n      pop\n      pop\n      pop\n      iszero\n      dup1\n      iszero\n      tag_32\n      jumpi\n      returndatasize\n      0x00\n      dup1\n      returndatacopy\n      revert(0x00, returndatasize)\n    tag_32:\n      pop\n        /* \"contracts/Test.sol\":1128:1268  {... */\n      pop\n        /* \"contracts/Test.sol\":1072:1268  function withdrawAllMoney(address payable _to) external {... */\n      pop\n      jump\t// out\n        /* \"contracts/Test.sol\":838:949  function getTotalBalance() external view onlyOwner returns (uint) {... */\n    tag_23:\n        /* \"contracts/Test.sol\":898:902  uint */\n      0x00\n        /* \"contracts/Test.sol\":210:215  owner */\n      dup1\n      sload\n      0xffffffffffffffffffffffffffffffffffffffff\n      and\n        /* \"contracts/Test.sol\":196:206  msg.sender */\n      caller\n        /* \"contracts/Test.sol\":196:215  msg.sender == owner */\n      eq\n        /* \"contracts/Test.sol\":188:233  require(msg.sender == owner, \"Not the owner\") */\n      tag_35\n      jumpi\n      mload(0x40)\n      0x08c379a000000000000000000000000000000000000000000000000000000000\n      dup2\n      mstore\n        /* \"#utility.yul\":907:909   */\n      0x20\n        /* \"contracts/Test.sol\":188:233  require(msg.sender == owner, \"Not the owner\") */\n      0x04\n      dup3\n      add\n        /* \"#utility.yul\":889:910   */\n      mstore\n        /* \"#utility.yul\":946:948   */\n      0x0d\n        /* \"#utility.yul\":926:944   */\n      0x24\n      dup3\n      add\n        /* \"#utility.yul\":919:949   */\n      mstore\n        /* \"#utility.yul\":985:1000   */\n      0x4e6f7420746865206f776e657200000000000000000000000000000000000000\n        /* \"#utility.yul\":965:983   */\n      0x44\n      dup3\n      add\n        /* \"#utility.yul\":958:1001   */\n      mstore\n        /* \"#utility.yul\":1018:1036   */\n      0x64\n      add\n        /* \"contracts/Test.sol\":188:233  require(msg.sender == owner, \"Not the owner\") */\n    tag_36:\n      mload(0x40)\n      dup1\n      swap2\n      sub\n      swap1\n      revert\n    tag_35:\n      pop\n        /* \"contracts/Test.sol\":929:933  this */\n      address\n        /* \"contracts/Test.sol\":921:942  address(this).balance */\n      balance\n        /* \"contracts/Test.sol\":838:949  function getTotalBalance() external view onlyOwner returns (uint) {... */\n      swap1\n      jump\t// out\n        /* \"contracts/Test.sol\":1274:1516  function withdrawMoney(address payable _to, uint _amount) external {... */\n    tag_29:\n        /* \"contracts/Test.sol\":1378:1388  msg.sender */\n      caller\n        /* \"contracts/Test.sol\":1370:1389  wallets[msg.sender] */\n      0x00\n      swap1\n      dup2\n      mstore\n        /* \"contracts/Test.sol\":1370:1377  wallets */\n      0x01\n        /* \"contracts/Test.sol\":1370:1389  wallets[msg.sender] */\n      0x20\n      mstore\n      0x40\n      swap1\n      keccak256\n        /* \"contracts/Test.sol\":1370:1402  wallets[msg.sender].totalBalance */\n      sload\n        /* \"contracts/Test.sol\":1359:1402  _amount <= wallets[msg.sender].totalBalance */\n      dup2\n      gt\n      iszero\n        /* \"contracts/Test.sol\":1351:1424  require(_amount <= wallets[msg.sender].totalBalance, \"Not enought money\") */\n      tag_40\n      jumpi\n      mload(0x40)\n      0x08c379a000000000000000000000000000000000000000000000000000000000\n      dup2\n      mstore\n        /* \"#utility.yul\":1249:1251   */\n      0x20\n        /* \"contracts/Test.sol\":1351:1424  require(_amount <= wallets[msg.sender].totalBalance, \"Not enought money\") */\n      0x04\n      dup3\n      add\n        /* \"#utility.yul\":1231:1252   */\n      mstore\n        /* \"#utility.yul\":1288:1290   */\n      0x11\n        /* \"#utility.yul\":1268:1286   */\n      0x24\n      dup3\n      add\n        /* \"#utility.yul\":1261:1291   */\n      mstore\n        /* \"#utility.yul\":1327:1346   */\n      0x4e6f7420656e6f75676874206d6f6e6579000000000000000000000000000000\n        /* \"#utility.yul\":1307:1325   */\n      0x44\n      dup3\n      add\n        /* \"#utility.yul\":1300:1347   */\n      mstore\n        /* \"#utility.yul\":1364:1382   */\n      0x64\n      add\n        /* \"contracts/Test.sol\":1351:1424  require(_amount <= wallets[msg.sender].totalBalance, \"Not enought money\") */\n      tag_36\n        /* \"#utility.yul\":1047:1388   */\n      jump\n        /* \"contracts/Test.sol\":1351:1424  require(_amount <= wallets[msg.sender].totalBalance, \"Not enought money\") */\n    tag_40:\n        /* \"contracts/Test.sol\":1443:1453  msg.sender */\n      caller\n        /* \"contracts/Test.sol\":1435:1454  wallets[msg.sender] */\n      0x00\n      swap1\n      dup2\n      mstore\n        /* \"contracts/Test.sol\":1435:1442  wallets */\n      0x01\n        /* \"contracts/Test.sol\":1435:1454  wallets[msg.sender] */\n      0x20\n      mstore\n      0x40\n      dup2\n      keccak256\n        /* \"contracts/Test.sol\":1435:1478  wallets[msg.sender].totalBalance -= _amount */\n      dup1\n      sload\n        /* \"contracts/Test.sol\":1471:1478  _amount */\n      dup4\n      swap3\n        /* \"contracts/Test.sol\":1435:1454  wallets[msg.sender] */\n      swap1\n        /* \"contracts/Test.sol\":1435:1478  wallets[msg.sender].totalBalance -= _amount */\n      tag_43\n      swap1\n        /* \"contracts/Test.sol\":1471:1478  _amount */\n      dup5\n      swap1\n        /* \"contracts/Test.sol\":1435:1478  wallets[msg.sender].totalBalance -= _amount */\n      tag_44\n      jump\t// in\n    tag_43:\n      swap1\n      swap2\n      sstore\n      pop\n      pop\n        /* \"contracts/Test.sol\":1488:1509  _to.transfer(_amount) */\n      mload(0x40)\n        /* \"contracts/Test.sol\":1488:1500  _to.transfer */\n      0xffffffffffffffffffffffffffffffffffffffff\n      dup4\n      and\n      swap1\n        /* \"contracts/Test.sol\":1488:1509  _to.transfer(_amount) */\n      dup3\n      iszero\n      0x08fc\n      mul\n      swap1\n        /* \"contracts/Test.sol\":1501:1508  _amount */\n      dup4\n      swap1\n        /* \"contracts/Test.sol\":1488:1509  _to.transfer(_amount) */\n      0x00\n      dup2\n      dup2\n      dup2\n        /* \"contracts/Test.sol\":1501:1508  _amount */\n      dup6\n        /* \"contracts/Test.sol\":1488:1500  _to.transfer */\n      dup9\n        /* \"contracts/Test.sol\":1488:1509  _to.transfer(_amount) */\n      dup9\n      call\n      swap4\n      pop\n      pop\n      pop\n      pop\n      iszero\n      dup1\n      iszero\n      tag_32\n      jumpi\n      returndatasize\n      0x00\n      dup1\n      returndatacopy\n      revert(0x00, returndatasize)\n        /* \"#utility.yul\":14:218   */\n    tag_48:\n        /* \"#utility.yul\":90:110   */\n      dup1\n      calldataload\n        /* \"#utility.yul\":150:192   */\n      0xffffffffffffffffffffffffffffffffffffffff\n        /* \"#utility.yul\":139:193   */\n      dup2\n      and\n        /* \"#utility.yul\":129:194   */\n      dup2\n      eq\n        /* \"#utility.yul\":119:212   */\n      tag_50\n      jumpi\n        /* \"#utility.yul\":208:209   */\n      0x00\n        /* \"#utility.yul\":205:206   */\n      dup1\n        /* \"#utility.yul\":198:210   */\n      revert\n        /* \"#utility.yul\":119:212   */\n    tag_50:\n        /* \"#utility.yul\":14:218   */\n      swap2\n      swap1\n      pop\n      jump\t// out\n        /* \"#utility.yul\":223:425   */\n    tag_14:\n        /* \"#utility.yul\":290:296   */\n      0x00\n        /* \"#utility.yul\":343:345   */\n      0x20\n        /* \"#utility.yul\":331:340   */\n      dup3\n        /* \"#utility.yul\":322:329   */\n      dup5\n        /* \"#utility.yul\":318:341   */\n      sub\n        /* \"#utility.yul\":314:346   */\n      slt\n        /* \"#utility.yul\":311:363   */\n      iszero\n      tag_52\n      jumpi\n        /* \"#utility.yul\":359:360   */\n      0x00\n        /* \"#utility.yul\":356:357   */\n      dup1\n        /* \"#utility.yul\":349:361   */\n      revert\n        /* \"#utility.yul\":311:363   */\n    tag_52:\n        /* \"#utility.yul\":382:419   */\n      tag_53\n        /* \"#utility.yul\":409:418   */\n      dup3\n        /* \"#utility.yul\":382:419   */\n      tag_48\n      jump\t// in\n    tag_53:\n        /* \"#utility.yul\":372:419   */\n      swap4\n        /* \"#utility.yul\":223:425   */\n      swap3\n      pop\n      pop\n      pop\n      jump\t// out\n        /* \"#utility.yul\":430:700   */\n    tag_28:\n        /* \"#utility.yul\":506:512   */\n      0x00\n        /* \"#utility.yul\":514:520   */\n      dup1\n        /* \"#utility.yul\":567:569   */\n      0x40\n        /* \"#utility.yul\":555:564   */\n      dup4\n        /* \"#utility.yul\":546:553   */\n      dup6\n        /* \"#utility.yul\":542:565   */\n      sub\n        /* \"#utility.yul\":538:570   */\n      slt\n        /* \"#utility.yul\":535:587   */\n      iszero\n      tag_55\n      jumpi\n        /* \"#utility.yul\":583:584   */\n      0x00\n        /* \"#utility.yul\":580:581   */\n      dup1\n        /* \"#utility.yul\":573:585   */\n      revert\n        /* \"#utility.yul\":535:587   */\n    tag_55:\n        /* \"#utility.yul\":606:643   */\n      tag_56\n        /* \"#utility.yul\":633:642   */\n      dup4\n        /* \"#utility.yul\":606:643   */\n      tag_48\n      jump\t// in\n    tag_56:\n        /* \"#utility.yul\":596:643   */\n      swap5\n        /* \"#utility.yul\":690:692   */\n      0x20\n        /* \"#utility.yul\":675:693   */\n      swap4\n      swap1\n      swap4\n      add\n        /* \"#utility.yul\":662:694   */\n      calldataload\n      swap4\n      pop\n      pop\n      pop\n        /* \"#utility.yul\":430:700   */\n      jump\t// out\n        /* \"#utility.yul\":1575:1700   */\n    tag_44:\n        /* \"#utility.yul\":1615:1619   */\n      0x00\n        /* \"#utility.yul\":1643:1644   */\n      dup3\n        /* \"#utility.yul\":1640:1641   */\n      dup3\n        /* \"#utility.yul\":1637:1645   */\n      lt\n        /* \"#utility.yul\":1634:1668   */\n      iszero\n      tag_62\n      jumpi\n        /* \"#utility.yul\":1648:1666   */\n      tag_62\n      tag_63\n      jump\t// in\n    tag_62:\n      pop\n        /* \"#utility.yul\":1685:1694   */\n      sub\n      swap1\n        /* \"#utility.yul\":1575:1700   */\n      jump\t// out\n        /* \"#utility.yul\":1705:1840   */\n    tag_10:\n        /* \"#utility.yul\":1744:1747   */\n      0x00\n      not(0x00)\n        /* \"#utility.yul\":1765:1782   */\n      dup3\n      eq\n        /* \"#utility.yul\":1762:1805   */\n      iszero\n      tag_66\n      jumpi\n        /* \"#utility.yul\":1785:1803   */\n      tag_66\n      tag_63\n      jump\t// in\n    tag_66:\n      pop\n        /* \"#utility.yul\":1832:1833   */\n      0x01\n        /* \"#utility.yul\":1821:1834   */\n      add\n      swap1\n        /* \"#utility.yul\":1705:1840   */\n      jump\t// out\n        /* \"#utility.yul\":1845:2029   */\n    tag_63:\n        /* \"#utility.yul\":1897:1974   */\n      0x4e487b7100000000000000000000000000000000000000000000000000000000\n        /* \"#utility.yul\":1894:1895   */\n      0x00\n        /* \"#utility.yul\":1887:1975   */\n      mstore\n        /* \"#utility.yul\":1994:1998   */\n      0x11\n        /* \"#utility.yul\":1991:1992   */\n      0x04\n        /* \"#utility.yul\":1984:1999   */\n      mstore\n        /* \"#utility.yul\":2018:2022   */\n      0x24\n        /* \"#utility.yul\":2015:2016   */\n      0x00\n        /* \"#utility.yul\":2008:2023   */\n      revert\n\n    auxdata: 0xa26469706673582212206f92d8711e8262a7973f63538df2705a392661ddc73f9fceb88a7af92a3bfad764736f6c63430008070033\n}\n",
				"bytecode": {
					"linkReferences": {},
					"object": "608060405234801561001057600080fd5b5060008054600160a060020a03191633179055610427806100326000396000f3fe60806040526004361061005f577c010000000000000000000000000000000000000000000000000000000060003504630adec93c81146100c957806312065fe0146100eb57806312b583491461011b578063f274c8971461013057600080fd5b366100c457604080518082018252348082524260208084019182523360008181526001808452878220958655858101805483526002909601845296812086518155935193870193909355825293909352805491926100bc836103a7565b919050555050005b600080fd5b3480156100d557600080fd5b506100e96100e4366004610344565b610150565b005b3480156100f757600080fd5b50336000908152600160205260409020545b60405190815260200160405180910390f35b34801561012757600080fd5b506101096101ae565b34801561013c57600080fd5b506100e961014b366004610366565b61023b565b336000908152600160205260408082208054908390559051909173ffffffffffffffffffffffffffffffffffffffff84169183156108fc0291849190818181858888f193505050501580156101a9573d6000803e3d6000fd5b505050565b6000805473ffffffffffffffffffffffffffffffffffffffff163314610235576040517f08c379a000000000000000000000000000000000000000000000000000000000815260206004820152600d60248201527f4e6f7420746865206f776e65720000000000000000000000000000000000000060448201526064015b60405180910390fd5b50303190565b336000908152600160205260409020548111156102b4576040517f08c379a000000000000000000000000000000000000000000000000000000000815260206004820152601160248201527f4e6f7420656e6f75676874206d6f6e6579000000000000000000000000000000604482015260640161022c565b33600090815260016020526040812080548392906102d3908490610390565b909155505060405173ffffffffffffffffffffffffffffffffffffffff83169082156108fc029083906000818181858888f193505050501580156101a9573d6000803e3d6000fd5b803573ffffffffffffffffffffffffffffffffffffffff8116811461033f57600080fd5b919050565b60006020828403121561035657600080fd5b61035f8261031b565b9392505050565b6000806040838503121561037957600080fd5b6103828361031b565b946020939093013593505050565b6000828210156103a2576103a26103c2565b500390565b60006000198214156103bb576103bb6103c2565b5060010190565b7f4e487b7100000000000000000000000000000000000000000000000000000000600052601160045260246000fdfea26469706673582212206f92d8711e8262a7973f63538df2705a392661ddc73f9fceb88a7af92a3bfad764736f6c63430008070033",
					"opcodes": "PUSH1 0x80 PUSH1 0x40 MSTORE CALLVALUE DUP1 ISZERO PUSH2 0x10 JUMPI PUSH1 0x0 DUP1 REVERT JUMPDEST POP PUSH1 0x0 DUP1 SLOAD PUSH1 0x1 PUSH1 0xA0 PUSH1 0x2 EXP SUB NOT AND CALLER OR SWAP1 SSTORE PUSH2 0x427 DUP1 PUSH2 0x32 PUSH1 0x0 CODECOPY PUSH1 0x0 RETURN INVALID PUSH1 0x80 PUSH1 0x40 MSTORE PUSH1 0x4 CALLDATASIZE LT PUSH2 0x5F JUMPI PUSH29 0x100000000000000000000000000000000000000000000000000000000 PUSH1 0x0 CALLDATALOAD DIV PUSH4 0xADEC93C DUP2 EQ PUSH2 0xC9 JUMPI DUP1 PUSH4 0x12065FE0 EQ PUSH2 0xEB JUMPI DUP1 PUSH4 0x12B58349 EQ PUSH2 0x11B JUMPI DUP1 PUSH4 0xF274C897 EQ PUSH2 0x130 JUMPI PUSH1 0x0 DUP1 REVERT JUMPDEST CALLDATASIZE PUSH2 0xC4 JUMPI PUSH1 0x40 DUP1 MLOAD DUP1 DUP3 ADD DUP3 MSTORE CALLVALUE DUP1 DUP3 MSTORE TIMESTAMP PUSH1 0x20 DUP1 DUP5 ADD SWAP2 DUP3 MSTORE CALLER PUSH1 0x0 DUP2 DUP2 MSTORE PUSH1 0x1 DUP1 DUP5 MSTORE DUP8 DUP3 KECCAK256 SWAP6 DUP7 SSTORE DUP6 DUP2 ADD DUP1 SLOAD DUP4 MSTORE PUSH1 0x2 SWAP1 SWAP7 ADD DUP5 MSTORE SWAP7 DUP2 KECCAK256 DUP7 MLOAD DUP2 SSTORE SWAP4 MLOAD SWAP4 DUP8 ADD SWAP4 SWAP1 SWAP4 SSTORE DUP3 MSTORE SWAP4 SWAP1 SWAP4 MSTORE DUP1 SLOAD SWAP2 SWAP3 PUSH2 0xBC DUP4 PUSH2 0x3A7 JUMP JUMPDEST SWAP2 SWAP1 POP SSTORE POP POP STOP JUMPDEST PUSH1 0x0 DUP1 REVERT JUMPDEST CALLVALUE DUP1 ISZERO PUSH2 0xD5 JUMPI PUSH1 0x0 DUP1 REVERT JUMPDEST POP PUSH2 0xE9 PUSH2 0xE4 CALLDATASIZE PUSH1 0x4 PUSH2 0x344 JUMP JUMPDEST PUSH2 0x150 JUMP JUMPDEST STOP JUMPDEST CALLVALUE DUP1 ISZERO PUSH2 0xF7 JUMPI PUSH1 0x0 DUP1 REVERT JUMPDEST POP CALLER PUSH1 0x0 SWAP1 DUP2 MSTORE PUSH1 0x1 PUSH1 0x20 MSTORE PUSH1 0x40 SWAP1 KECCAK256 SLOAD JUMPDEST PUSH1 0x40 MLOAD SWAP1 DUP2 MSTORE PUSH1 0x20 ADD PUSH1 0x40 MLOAD DUP1 SWAP2 SUB SWAP1 RETURN JUMPDEST CALLVALUE DUP1 ISZERO PUSH2 0x127 JUMPI PUSH1 0x0 DUP1 REVERT JUMPDEST POP PUSH2 0x109 PUSH2 0x1AE JUMP JUMPDEST CALLVALUE DUP1 ISZERO PUSH2 0x13C JUMPI PUSH1 0x0 DUP1 REVERT JUMPDEST POP PUSH2 0xE9 PUSH2 0x14B CALLDATASIZE PUSH1 0x4 PUSH2 0x366 JUMP JUMPDEST PUSH2 0x23B JUMP JUMPDEST CALLER PUSH1 0x0 SWAP1 DUP2 MSTORE PUSH1 0x1 PUSH1 0x20 MSTORE PUSH1 0x40 DUP1 DUP3 KECCAK256 DUP1 SLOAD SWAP1 DUP4 SWAP1 SSTORE SWAP1 MLOAD SWAP1 SWAP2 PUSH20 0xFFFFFFFFFFFFFFFFFFFFFFFFFFFFFFFFFFFFFFFF DUP5 AND SWAP2 DUP4 ISZERO PUSH2 0x8FC MUL SWAP2 DUP5 SWAP2 SWAP1 DUP2 DUP2 DUP2 DUP6 DUP9 DUP9 CALL SWAP4 POP POP POP POP ISZERO DUP1 ISZERO PUSH2 0x1A9 JUMPI RETURNDATASIZE PUSH1 0x0 DUP1 RETURNDATACOPY RETURNDATASIZE PUSH1 0x0 REVERT JUMPDEST POP POP POP JUMP JUMPDEST PUSH1 0x0 DUP1 SLOAD PUSH20 0xFFFFFFFFFFFFFFFFFFFFFFFFFFFFFFFFFFFFFFFF AND CALLER EQ PUSH2 0x235 JUMPI PUSH1 0x40 MLOAD PUSH32 0x8C379A000000000000000000000000000000000000000000000000000000000 DUP2 MSTORE PUSH1 0x20 PUSH1 0x4 DUP3 ADD MSTORE PUSH1 0xD PUSH1 0x24 DUP3 ADD MSTORE PUSH32 0x4E6F7420746865206F776E657200000000000000000000000000000000000000 PUSH1 0x44 DUP3 ADD MSTORE PUSH1 0x64 ADD JUMPDEST PUSH1 0x40 MLOAD DUP1 SWAP2 SUB SWAP1 REVERT JUMPDEST POP ADDRESS BALANCE SWAP1 JUMP JUMPDEST CALLER PUSH1 0x0 SWAP1 DUP2 MSTORE PUSH1 0x1 PUSH1 0x20 MSTORE PUSH1 0x40 SWAP1 KECCAK256 SLOAD DUP2 GT ISZERO PUSH2 0x2B4 JUMPI PUSH1 0x40 MLOAD PUSH32 0x8C379A000000000000000000000000000000000000000000000000000000000 DUP2 MSTORE PUSH1 0x20 PUSH1 0x4 DUP3 ADD MSTORE PUSH1 0x11 PUSH1 0x24 DUP3 ADD MSTORE PUSH32 0x4E6F7420656E6F75676874206D6F6E6579000000000000000000000000000000 PUSH1 0x44 DUP3 ADD MSTORE PUSH1 0x64 ADD PUSH2 0x22C JUMP JUMPDEST CALLER PUSH1 0x0 SWAP1 DUP2 MSTORE PUSH1 0x1 PUSH1 0x20 MSTORE PUSH1 0x40 DUP2 KECCAK256 DUP1 SLOAD DUP4 SWAP3 SWAP1 PUSH2 0x2D3 SWAP1 DUP5 SWAP1 PUSH2 0x390 JUMP JUMPDEST SWAP1 SWAP2 SSTORE POP POP PUSH1 0x40 MLOAD PUSH20 0xFFFFFFFFFFFFFFFFFFFFFFFFFFFFFFFFFFFFFFFF DUP4 AND SWAP1 DUP3 ISZERO PUSH2 0x8FC MUL SWAP1 DUP4 SWAP1 PUSH1 0x0 DUP2 DUP2 DUP2 DUP6 DUP9 DUP9 CALL SWAP4 POP POP POP POP ISZERO DUP1 ISZERO PUSH2 0x1A9 JUMPI RETURNDATASIZE PUSH1 0x0 DUP1 RETURNDATACOPY RETURNDATASIZE PUSH1 0x0 REVERT JUMPDEST DUP1 CALLDATALOAD PUSH20 0xFFFFFFFFFFFFFFFFFFFFFFFFFFFFFFFFFFFFFFFF DUP2 AND DUP2 EQ PUSH2 0x33F JUMPI PUSH1 0x0 DUP1 REVERT JUMPDEST SWAP2 SWAP1 POP JUMP JUMPDEST PUSH1 0x0 PUSH1 0x20 DUP3 DUP5 SUB SLT ISZERO PUSH2 0x356 JUMPI PUSH1 0x0 DUP1 REVERT JUMPDEST PUSH2 0x35F DUP3 PUSH2 0x31B JUMP JUMPDEST SWAP4 SWAP3 POP POP POP JUMP JUMPDEST PUSH1 0x0 DUP1 PUSH1 0x40 DUP4 DUP6 SUB SLT ISZERO PUSH2 0x379 JUMPI PUSH1 0x0 DUP1 REVERT JUMPDEST PUSH2 0x382 DUP4 PUSH2 0x31B JUMP JUMPDEST SWAP5 PUSH1 0x20 SWAP4 SWAP1 SWAP4 ADD CALLDATALOAD SWAP4 POP POP POP JUMP JUMPDEST PUSH1 0x0 DUP3 DUP3 LT ISZERO PUSH2 0x3A2 JUMPI PUSH2 0x3A2 PUSH2 0x3C2 JUMP JUMPDEST POP SUB SWAP1 JUMP JUMPDEST PUSH1 0x0 PUSH1 0x0 NOT DUP3 EQ ISZERO PUSH2 0x3BB JUMPI PUSH2 0x3BB PUSH2 0x3C2 JUMP JUMPDEST POP PUSH1 0x1 ADD SWAP1 JUMP JUMPDEST PUSH32 0x4E487B7100000000000000000000000000000000000000000000000000000000 PUSH1 0x0 MSTORE PUSH1 0x11 PUSH1 0x4 MSTORE PUSH1 0x24 PUSH1 0x0 REVERT INVALID LOG2 PUSH5 0x6970667358 0x22 SLT KECCAK256 PUSH16 0x92D8711E8262A7973F63538DF2705A39 0x26 PUSH2 0xDDC7 EXTCODEHASH SWAP16 0xCE 0xB8 DUP11 PUSH27 0xF92A3BFAD764736F6C634300080700330000000000000000000000 "
				},
				"gasEstimates": {
					"creation": {
						"codeDepositCost": "212600",
						"executionCost": "20549",
						"totalCost": "233149"
					},
					"external": {
						"getBalance()": "439",
						"getTotalBalance()": "851",
						"withdrawAllMoney(address)": "infinite",
						"withdrawMoney(address,uint256)": "infinite"
					}
				},
				"methodIdentifiers": {
					"getBalance()": "12065fe0",
					"getTotalBalance()": "12b58349",
					"withdrawAllMoney(address)": "0adec93c",
					"withdrawMoney(address,uint256)": "f274c897"
				}
			},
			"storageLayout": {
				"storage": [
					{
						"astId": 3,
						"contract": "contracts/Test.sol:Wallet",
						"label": "owner",
						"offset": 0,
						"slot": "0",
						"type": "t_address"
					},
					{
						"astId": 47,
						"contract": "contracts/Test.sol:Wallet",
						"label": "wallets",
						"offset": 0,
						"slot": "1",
						"type": "t_mapping(t_address,t_struct(Balance)42_storage)"
					}
				],
				"types": {
					"t_address": {
						"encoding": "inplace",
						"label": "address",
						"numberOfBytes": "20"
					},
					"t_mapping(t_address,t_struct(Balance)42_storage)": {
						"encoding": "mapping",
						"key": "t_address",
						"label": "mapping(address => struct Wallet.Balance)",
						"numberOfBytes": "32",
						"value": "t_struct(Balance)42_storage"
					},
					"t_mapping(t_uint256,t_struct(Payment)32_storage)": {
						"encoding": "mapping",
						"key": "t_uint256",
						"label": "mapping(uint256 => struct Wallet.Payment)",
						"numberOfBytes": "32",
						"value": "t_struct(Payment)32_storage"
					},
					"t_struct(Balance)42_storage": {
						"encoding": "inplace",
						"label": "struct Wallet.Balance",
						"members": [
							{
								"astId": 34,
								"contract": "contracts/Test.sol:Wallet",
								"label": "totalBalance",
								"offset": 0,
								"slot": "0",
								"type": "t_uint256"
							},
							{
								"astId": 36,
								"contract": "contracts/Test.sol:Wallet",
								"label": "numberPayment",
								"offset": 0,
								"slot": "1",
								"type": "t_uint256"
							},
							{
								"astId": 41,
								"contract": "contracts/Test.sol:Wallet",
								"label": "payments",
								"offset": 0,
								"slot": "2",
								"type": "t_mapping(t_uint256,t_struct(Payment)32_storage)"
							}
						],
						"numberOfBytes": "96"
					},
					"t_struct(Payment)32_storage": {
						"encoding": "inplace",
						"label": "struct Wallet.Payment",
						"members": [
							{
								"astId": 29,
								"contract": "contracts/Test.sol:Wallet",
								"label": "amount",
								"offset": 0,
								"slot": "0",
								"type": "t_uint256"
							},
							{
								"astId": 31,
								"contract": "contracts/Test.sol:Wallet",
								"label": "timestamp",
								"offset": 0,
								"slot": "1",
								"type": "t_uint256"
							}
						],
						"numberOfBytes": "64"
					},
					"t_uint256": {
						"encoding": "inplace",
						"label": "uint256",
						"numberOfBytes": "32"
					}
				}
			},
			"userdoc": {
				"kind": "user",
				"methods": {},
				"version": 1
			}
		}
	}
}