{
	"contracts/Whale.sol": {
		"Whale": {
			"abi": [
				{
					"inputs": [],
					"name": "checkOwner",
					"outputs": [
						{
							"internalType": "address",
							"name": "",
							"type": "address"
						}
					],
					"stateMutability": "view",
					"type": "function"
				}
			],
			"devdoc": {
				"kind": "dev",
				"methods": {},
				"version": 1
			},
			"evm": {
				"assembly": "    /* \"contracts/Whale.sol\":122:284  contract Whale {... */\n  mstore(0x40, 0x80)\n  callvalue\n  dup1\n  iszero\n  tag_1\n  jumpi\n  0x00\n  dup1\n  revert\ntag_1:\n  pop\n  dataSize(sub_0)\n  dup1\n  dataOffset(sub_0)\n  0x00\n  codecopy\n  0x00\n  return\nstop\n\nsub_0: assembly {\n        /* \"contracts/Whale.sol\":122:284  contract Whale {... */\n      mstore(0x40, 0x80)\n      callvalue\n      dup1\n      iszero\n      tag_1\n      jumpi\n      0x00\n      dup1\n      revert\n    tag_1:\n      pop\n      jumpi(tag_2, lt(calldatasize, 0x04))\n      div(calldataload(0x00), 0x0100000000000000000000000000000000000000000000000000000000)\n      0xcdbce03d\n      dup2\n      eq\n      tag_3\n      jumpi\n    tag_2:\n      0x00\n      dup1\n      revert\n        /* \"contracts/Whale.sol\":143:282  function checkOwner() public view returns (address) {... */\n    tag_3:\n      tag_4\n      tag_5\n      jump\t// in\n    tag_4:\n      mload(0x40)\n      tag_6\n      swap2\n      swap1\n      tag_7\n      jump\t// in\n    tag_6:\n      mload(0x40)\n      dup1\n      swap2\n      sub\n      swap1\n      return\n    tag_5:\n        /* \"contracts/Whale.sol\":212:275  IERC721(0x484Ec30Feff505b545Ed7b905bc25a6a40589181).ownerOf(45) */\n      mload(0x40)\n      0x6352211e00000000000000000000000000000000000000000000000000000000\n      dup2\n      mstore\n        /* \"contracts/Whale.sol\":186:193  address */\n      0x00\n      swap1\n        /* \"contracts/Whale.sol\":220:262  0x484Ec30Feff505b545Ed7b905bc25a6a40589181 */\n      0x484ec30feff505b545ed7b905bc25a6a40589181\n      swap1\n        /* \"contracts/Whale.sol\":212:271  IERC721(0x484Ec30Feff505b545Ed7b905bc25a6a40589181).ownerOf */\n      0x6352211e\n      swap1\n        /* \"contracts/Whale.sol\":212:275  IERC721(0x484Ec30Feff505b545Ed7b905bc25a6a40589181).ownerOf(45) */\n      tag_9\n      swap1\n        /* \"contracts/Whale.sol\":272:274  45 */\n      0x2d\n      swap1\n        /* \"contracts/Whale.sol\":212:275  IERC721(0x484Ec30Feff505b545Ed7b905bc25a6a40589181).ownerOf(45) */\n      0x04\n      add\n      tag_10\n      jump\t// in\n    tag_9:\n      0x20\n      mload(0x40)\n      dup1\n      dup4\n      sub\n      dup2\n      dup7\n      dup1\n      extcodesize\n      iszero\n      dup1\n      iszero\n      tag_11\n      jumpi\n      0x00\n      dup1\n      revert\n    tag_11:\n      pop\n      gas\n      staticcall\n      iszero\n      dup1\n      iszero\n      tag_13\n      jumpi\n      returndatasize\n      0x00\n      dup1\n      returndatacopy\n      revert(0x00, returndatasize)\n    tag_13:\n      pop\n      pop\n      pop\n      pop\n      mload(0x40)\n      returndatasize\n      not(0x1f)\n      0x1f\n      dup3\n      add\n      and\n      dup3\n      add\n      dup1\n      0x40\n      mstore\n      pop\n      dup2\n      add\n      swap1\n      tag_14\n      swap2\n      swap1\n      tag_15\n      jump\t// in\n    tag_14:\n        /* \"contracts/Whale.sol\":205:275  return IERC721(0x484Ec30Feff505b545Ed7b905bc25a6a40589181).ownerOf(45) */\n      swap1\n      pop\n        /* \"contracts/Whale.sol\":143:282  function checkOwner() public view returns (address) {... */\n      swap1\n      jump\t// out\n        /* \"#utility.yul\":14:347   */\n    tag_15:\n      0x00\n        /* \"#utility.yul\":137:139   */\n      0x20\n        /* \"#utility.yul\":125:134   */\n      dup3\n        /* \"#utility.yul\":116:123   */\n      dup5\n        /* \"#utility.yul\":112:135   */\n      sub\n        /* \"#utility.yul\":108:140   */\n      slt\n        /* \"#utility.yul\":105:107   */\n      iszero\n      tag_18\n      jumpi\n        /* \"#utility.yul\":158:164   */\n      dup1\n        /* \"#utility.yul\":150:156   */\n      dup2\n        /* \"#utility.yul\":143:165   */\n      revert\n        /* \"#utility.yul\":105:107   */\n    tag_18:\n        /* \"#utility.yul\":195:204   */\n      dup2\n        /* \"#utility.yul\":189:205   */\n      mload\n        /* \"#utility.yul\":245:287   */\n      0xffffffffffffffffffffffffffffffffffffffff\n        /* \"#utility.yul\":238:243   */\n      dup2\n        /* \"#utility.yul\":234:288   */\n      and\n        /* \"#utility.yul\":227:232   */\n      dup2\n        /* \"#utility.yul\":224:289   */\n      eq\n        /* \"#utility.yul\":214:216   */\n      tag_19\n      jumpi\n        /* \"#utility.yul\":308:314   */\n      dup2\n        /* \"#utility.yul\":300:306   */\n      dup3\n        /* \"#utility.yul\":293:315   */\n      revert\n        /* \"#utility.yul\":214:216   */\n    tag_19:\n        /* \"#utility.yul\":336:341   */\n      swap4\n        /* \"#utility.yul\":95:347   */\n      swap3\n      pop\n      pop\n      pop\n      jump\t// out\n        /* \"#utility.yul\":352:578   */\n    tag_7:\n        /* \"#utility.yul\":528:570   */\n      0xffffffffffffffffffffffffffffffffffffffff\n        /* \"#utility.yul\":516:571   */\n      swap2\n      swap1\n      swap2\n      and\n        /* \"#utility.yul\":498:572   */\n      dup2\n      mstore\n        /* \"#utility.yul\":486:488   */\n      0x20\n        /* \"#utility.yul\":471:489   */\n      add\n      swap1\n        /* \"#utility.yul\":453:578   */\n      jump\t// out\n        /* \"#utility.yul\":583:769   */\n    tag_10:\n        /* \"#utility.yul\":738:763   */\n      swap1\n      dup2\n      mstore\n        /* \"#utility.yul\":726:728   */\n      0x20\n        /* \"#utility.yul\":711:729   */\n      add\n      swap1\n        /* \"#utility.yul\":693:769   */\n      jump\t// out\n\n    auxdata: 0xa2646970667358221220ee2814d47005c6acdd3b316fbb3d307458338ad017e052b0c171d1e6cdba11fb64736f6c63430008000033\n}\n",
				"bytecode": {
					"linkReferences": {},
					"object": "608060405234801561001057600080fd5b506101ae806100206000396000f3fe608060405234801561001057600080fd5b5060043610610047577c01000000000000000000000000000000000000000000000000000000006000350463cdbce03d811461004c575b600080fd5b61005461006a565b604051610061919061014e565b60405180910390f35b6040517f6352211e00000000000000000000000000000000000000000000000000000000815260009073484ec30feff505b545ed7b905bc25a6a4058918190636352211e906100be90602d9060040161016f565b60206040518083038186803b1580156100d657600080fd5b505afa1580156100ea573d6000803e3d6000fd5b505050506040513d601f19601f8201168201806040525081019061010e9190610113565b905090565b600060208284031215610124578081fd5b815173ffffffffffffffffffffffffffffffffffffffff81168114610147578182fd5b9392505050565b73ffffffffffffffffffffffffffffffffffffffff91909116815260200190565b9081526020019056fea2646970667358221220ee2814d47005c6acdd3b316fbb3d307458338ad017e052b0c171d1e6cdba11fb64736f6c63430008000033",
					"opcodes": "PUSH1 0x80 PUSH1 0x40 MSTORE CALLVALUE DUP1 ISZERO PUSH2 0x10 JUMPI PUSH1 0x0 DUP1 REVERT JUMPDEST POP PUSH2 0x1AE DUP1 PUSH2 0x20 PUSH1 0x0 CODECOPY PUSH1 0x0 RETURN INVALID PUSH1 0x80 PUSH1 0x40 MSTORE CALLVALUE DUP1 ISZERO PUSH2 0x10 JUMPI PUSH1 0x0 DUP1 REVERT JUMPDEST POP PUSH1 0x4 CALLDATASIZE LT PUSH2 0x47 JUMPI PUSH29 0x100000000000000000000000000000000000000000000000000000000 PUSH1 0x0 CALLDATALOAD DIV PUSH4 0xCDBCE03D DUP2 EQ PUSH2 0x4C JUMPI JUMPDEST PUSH1 0x0 DUP1 REVERT JUMPDEST PUSH2 0x54 PUSH2 0x6A JUMP JUMPDEST PUSH1 0x40 MLOAD PUSH2 0x61 SWAP2 SWAP1 PUSH2 0x14E JUMP JUMPDEST PUSH1 0x40 MLOAD DUP1 SWAP2 SUB SWAP1 RETURN JUMPDEST PUSH1 0x40 MLOAD PUSH32 0x6352211E00000000000000000000000000000000000000000000000000000000 DUP2 MSTORE PUSH1 0x0 SWAP1 PUSH20 0x484EC30FEFF505B545ED7B905BC25A6A40589181 SWAP1 PUSH4 0x6352211E SWAP1 PUSH2 0xBE SWAP1 PUSH1 0x2D SWAP1 PUSH1 0x4 ADD PUSH2 0x16F JUMP JUMPDEST PUSH1 0x20 PUSH1 0x40 MLOAD DUP1 DUP4 SUB DUP2 DUP7 DUP1 EXTCODESIZE ISZERO DUP1 ISZERO PUSH2 0xD6 JUMPI PUSH1 0x0 DUP1 REVERT JUMPDEST POP GAS STATICCALL ISZERO DUP1 ISZERO PUSH2 0xEA JUMPI RETURNDATASIZE PUSH1 0x0 DUP1 RETURNDATACOPY RETURNDATASIZE PUSH1 0x0 REVERT JUMPDEST POP POP POP POP PUSH1 0x40 MLOAD RETURNDATASIZE PUSH1 0x1F NOT PUSH1 0x1F DUP3 ADD AND DUP3 ADD DUP1 PUSH1 0x40 MSTORE POP DUP2 ADD SWAP1 PUSH2 0x10E SWAP2 SWAP1 PUSH2 0x113 JUMP JUMPDEST SWAP1 POP SWAP1 JUMP JUMPDEST PUSH1 0x0 PUSH1 0x20 DUP3 DUP5 SUB SLT ISZERO PUSH2 0x124 JUMPI DUP1 DUP2 REVERT JUMPDEST DUP2 MLOAD PUSH20 0xFFFFFFFFFFFFFFFFFFFFFFFFFFFFFFFFFFFFFFFF DUP2 AND DUP2 EQ PUSH2 0x147 JUMPI DUP2 DUP3 REVERT JUMPDEST SWAP4 SWAP3 POP POP POP JUMP JUMPDEST PUSH20 0xFFFFFFFFFFFFFFFFFFFFFFFFFFFFFFFFFFFFFFFF SWAP2 SWAP1 SWAP2 AND DUP2 MSTORE PUSH1 0x20 ADD SWAP1 JUMP JUMPDEST SWAP1 DUP2 MSTORE PUSH1 0x20 ADD SWAP1 JUMP INVALID LOG2 PUSH5 0x6970667358 0x22 SLT KECCAK256 0xEE 0x28 EQ 0xD4 PUSH17 0x5C6ACDD3B316FBB3D307458338AD017E0 MSTORE 0xB0 0xC1 PUSH18 0xD1E6CDBA11FB64736F6C6343000800003300 "
				},
				"gasEstimates": {
					"creation": {
						"codeDepositCost": "86000",
						"executionCost": "135",
						"totalCost": "86135"
					},
					"external": {
						"checkOwner()": "infinite"
					}
				},
				"methodIdentifiers": {
					"checkOwner()": "cdbce03d"
				}
			},
			"storageLayout": {
				"storage": [],
				"types": null
			},
			"userdoc": {
				"kind": "user",
				"methods": {},
				"version": 1
			}
		}
	}
}