{
	"contracts/Whale.sol": {
		"Whale": {
			"abi": [
				{
					"inputs": [],
					"name": "checkBalance",
					"outputs": [
						{
							"internalType": "uint256",
							"name": "",
							"type": "uint256"
						}
					],
					"stateMutability": "view",
					"type": "function"
				}
			],
			"devdoc": {
				"kind": "dev",
				"methods": {},
				"version": 1
			},
			"evm": {
				"assembly": "    /* \"contracts/Whale.sol\":121:881  contract Whale {... */\n  mstore(0x40, 0x80)\n  callvalue\n  dup1\n  iszero\n  tag_1\n  jumpi\n  0x00\n  dup1\n  revert\ntag_1:\n  pop\n  dataSize(sub_0)\n  dup1\n  dataOffset(sub_0)\n  0x00\n  codecopy\n  0x00\n  return\nstop\n\nsub_0: assembly {\n        /* \"contracts/Whale.sol\":121:881  contract Whale {... */\n      mstore(0x40, 0x80)\n      callvalue\n      dup1\n      iszero\n      tag_1\n      jumpi\n      0x00\n      dup1\n      revert\n    tag_1:\n      pop\n      jumpi(tag_2, lt(calldatasize, 0x04))\n      div(calldataload(0x00), 0x0100000000000000000000000000000000000000000000000000000000)\n      0xc71daccb\n      dup2\n      eq\n      tag_3\n      jumpi\n    tag_2:\n      0x00\n      dup1\n      revert\n        /* \"contracts/Whale.sol\":217:879  function checkBalance() public view returns (uint256) {... */\n    tag_3:\n      tag_4\n      tag_5\n      jump\t// in\n    tag_4:\n      mload(0x40)\n      tag_6\n      swap2\n      swap1\n      tag_7\n      jump\t// in\n    tag_6:\n      mload(0x40)\n      dup1\n      swap2\n      sub\n      swap1\n      return\n    tag_5:\n        /* \"contracts/Whale.sol\":262:269  uint256 */\n      0x00\n        /* \"contracts/Whale.sol\":299:302  202 */\n      0xca\n        /* \"contracts/Whale.sol\":313:337  WhaleStruct memory whale */\n      tag_9\n      tag_10\n      jump\t// in\n    tag_9:\n        /* \"contracts/Whale.sol\":348:363  uint maxBalance */\n      0x00\n        /* \"contracts/Whale.sol\":381:388  uint8 i */\n      dup1\n        /* \"contracts/Whale.sol\":377:751  for(uint8 i = 0 ; i < maxSupply; i++) {... */\n    tag_11:\n        /* \"contracts/Whale.sol\":399:408  maxSupply */\n      dup4\n        /* \"contracts/Whale.sol\":395:408  i < maxSupply */\n      0xff\n      and\n        /* \"contracts/Whale.sol\":395:396  i */\n      dup2\n        /* \"contracts/Whale.sol\":395:408  i < maxSupply */\n      0xff\n      and\n      lt\n        /* \"contracts/Whale.sol\":377:751  for(uint8 i = 0 ; i < maxSupply; i++) {... */\n      iszero\n      tag_12\n      jumpi\n        /* \"contracts/Whale.sol\":429:442  address owner */\n      0x00\n        /* \"contracts/Whale.sol\":453:495  0x484Ec30Feff505b545Ed7b905bc25a6a40589181 */\n      0x484ec30feff505b545ed7b905bc25a6a40589181\n        /* \"contracts/Whale.sol\":445:504  IERC721(0x484Ec30Feff505b545Ed7b905bc25a6a40589181).ownerOf */\n      0x6352211e\n        /* \"contracts/Whale.sol\":505:508  i+1 */\n      tag_14\n        /* \"contracts/Whale.sol\":505:506  i */\n      dup5\n        /* \"contracts/Whale.sol\":507:508  1 */\n      0x01\n        /* \"contracts/Whale.sol\":505:508  i+1 */\n      tag_15\n      jump\t// in\n    tag_14:\n        /* \"contracts/Whale.sol\":445:509  IERC721(0x484Ec30Feff505b545Ed7b905bc25a6a40589181).ownerOf(i+1) */\n      mload(0x40)\n      dup3\n      0xffffffff\n      and\n      0x0100000000000000000000000000000000000000000000000000000000\n      mul\n      dup2\n      mstore\n      0x04\n      add\n      tag_16\n      swap2\n      swap1\n      tag_17\n      jump\t// in\n    tag_16:\n      0x20\n      mload(0x40)\n      dup1\n      dup4\n      sub\n      dup2\n      dup7\n      dup1\n      extcodesize\n      iszero\n      dup1\n      iszero\n      tag_18\n      jumpi\n      0x00\n      dup1\n      revert\n    tag_18:\n      pop\n      gas\n      staticcall\n      iszero\n      dup1\n      iszero\n      tag_20\n      jumpi\n      returndatasize\n      0x00\n      dup1\n      returndatacopy\n      revert(0x00, returndatasize)\n    tag_20:\n      pop\n      pop\n      pop\n      pop\n      mload(0x40)\n      returndatasize\n      not(0x1f)\n      0x1f\n      dup3\n      add\n      and\n      dup3\n      add\n      dup1\n      0x40\n      mstore\n      pop\n      dup2\n      add\n      swap1\n      tag_21\n      swap2\n      swap1\n      tag_22\n      jump\t// in\n    tag_21:\n        /* \"contracts/Whale.sol\":538:606  IERC721(0x484Ec30Feff505b545Ed7b905bc25a6a40589181).balanceOf(owner) */\n      mload(0x40)\n      0x70a0823100000000000000000000000000000000000000000000000000000000\n      dup2\n      mstore\n        /* \"contracts/Whale.sol\":429:509  address owner = IERC721(0x484Ec30Feff505b545Ed7b905bc25a6a40589181).ownerOf(i+1) */\n      swap1\n      swap2\n      pop\n        /* \"contracts/Whale.sol\":523:535  uint balance */\n      0x00\n      swap1\n        /* \"contracts/Whale.sol\":546:588  0x484Ec30Feff505b545Ed7b905bc25a6a40589181 */\n      0x484ec30feff505b545ed7b905bc25a6a40589181\n      swap1\n        /* \"contracts/Whale.sol\":538:599  IERC721(0x484Ec30Feff505b545Ed7b905bc25a6a40589181).balanceOf */\n      0x70a08231\n      swap1\n        /* \"contracts/Whale.sol\":538:606  IERC721(0x484Ec30Feff505b545Ed7b905bc25a6a40589181).balanceOf(owner) */\n      tag_23\n      swap1\n        /* \"contracts/Whale.sol\":429:509  address owner = IERC721(0x484Ec30Feff505b545Ed7b905bc25a6a40589181).ownerOf(i+1) */\n      dup6\n      swap1\n        /* \"contracts/Whale.sol\":538:606  IERC721(0x484Ec30Feff505b545Ed7b905bc25a6a40589181).balanceOf(owner) */\n      0x04\n      add\n      tag_24\n      jump\t// in\n    tag_23:\n      0x20\n      mload(0x40)\n      dup1\n      dup4\n      sub\n      dup2\n      dup7\n      dup1\n      extcodesize\n      iszero\n      dup1\n      iszero\n      tag_25\n      jumpi\n      0x00\n      dup1\n      revert\n    tag_25:\n      pop\n      gas\n      staticcall\n      iszero\n      dup1\n      iszero\n      tag_27\n      jumpi\n      returndatasize\n      0x00\n      dup1\n      returndatacopy\n      revert(0x00, returndatasize)\n    tag_27:\n      pop\n      pop\n      pop\n      pop\n      mload(0x40)\n      returndatasize\n      not(0x1f)\n      0x1f\n      dup3\n      add\n      and\n      dup3\n      add\n      dup1\n      0x40\n      mstore\n      pop\n      dup2\n      add\n      swap1\n      tag_28\n      swap2\n      swap1\n      tag_29\n      jump\t// in\n    tag_28:\n        /* \"contracts/Whale.sol\":523:606  uint balance = IERC721(0x484Ec30Feff505b545Ed7b905bc25a6a40589181).balanceOf(owner) */\n      swap1\n      pop\n        /* \"contracts/Whale.sol\":635:645  maxBalance */\n      dup4\n        /* \"contracts/Whale.sol\":625:632  balance */\n      dup2\n        /* \"contracts/Whale.sol\":625:645  balance > maxBalance */\n      gt\n        /* \"contracts/Whale.sol\":621:739  if (balance > maxBalance) {... */\n      iszero\n      tag_30\n      jumpi\n        /* \"contracts/Whale.sol\":665:688  whale.balance = balance */\n      dup1\n      dup6\n      mstore\n        /* \"contracts/Whale.sol\":706:724  whale.addr = owner */\n      0xffffffffffffffffffffffffffffffffffffffff\n      dup3\n      and\n        /* \"contracts/Whale.sol\":706:716  whale.addr */\n      0x20\n      dup7\n      add\n        /* \"contracts/Whale.sol\":706:724  whale.addr = owner */\n      mstore\n        /* \"contracts/Whale.sol\":621:739  if (balance > maxBalance) {... */\n    tag_30:\n        /* \"contracts/Whale.sol\":377:751  for(uint8 i = 0 ; i < maxSupply; i++) {... */\n      pop\n      pop\n        /* \"contracts/Whale.sol\":410:413  i++ */\n      dup1\n      dup1\n      tag_31\n      swap1\n      tag_32\n      jump\t// in\n    tag_31:\n      swap2\n      pop\n      pop\n        /* \"contracts/Whale.sol\":377:751  for(uint8 i = 0 ; i < maxSupply; i++) {... */\n      jump(tag_11)\n    tag_12:\n      pop\n        /* \"contracts/Whale.sol\":767:872  IERC721(0x484Ec30Feff505b545Ed7b905bc25a6a40589181).balanceOf(0x123e710c69b6806ef32Cf52e49dCC5EEEc368a22) */\n      mload(0x40)\n      0x70a0823100000000000000000000000000000000000000000000000000000000\n      dup2\n      mstore\n        /* \"contracts/Whale.sol\":775:817  0x484Ec30Feff505b545Ed7b905bc25a6a40589181 */\n      0x484ec30feff505b545ed7b905bc25a6a40589181\n      swap1\n        /* \"contracts/Whale.sol\":767:828  IERC721(0x484Ec30Feff505b545Ed7b905bc25a6a40589181).balanceOf */\n      0x70a08231\n      swap1\n        /* \"contracts/Whale.sol\":767:872  IERC721(0x484Ec30Feff505b545Ed7b905bc25a6a40589181).balanceOf(0x123e710c69b6806ef32Cf52e49dCC5EEEc368a22) */\n      tag_33\n      swap1\n        /* \"contracts/Whale.sol\":829:871  0x123e710c69b6806ef32Cf52e49dCC5EEEc368a22 */\n      0x123e710c69b6806ef32cf52e49dcc5eeec368a22\n      swap1\n        /* \"contracts/Whale.sol\":767:872  IERC721(0x484Ec30Feff505b545Ed7b905bc25a6a40589181).balanceOf(0x123e710c69b6806ef32Cf52e49dCC5EEEc368a22) */\n      0x04\n      add\n      tag_24\n      jump\t// in\n    tag_33:\n      0x20\n      mload(0x40)\n      dup1\n      dup4\n      sub\n      dup2\n      dup7\n      dup1\n      extcodesize\n      iszero\n      dup1\n      iszero\n      tag_34\n      jumpi\n      0x00\n      dup1\n      revert\n    tag_34:\n      pop\n      gas\n      staticcall\n      iszero\n      dup1\n      iszero\n      tag_36\n      jumpi\n      returndatasize\n      0x00\n      dup1\n      returndatacopy\n      revert(0x00, returndatasize)\n    tag_36:\n      pop\n      pop\n      pop\n      pop\n      mload(0x40)\n      returndatasize\n      not(0x1f)\n      0x1f\n      dup3\n      add\n      and\n      dup3\n      add\n      dup1\n      0x40\n      mstore\n      pop\n      dup2\n      add\n      swap1\n      tag_37\n      swap2\n      swap1\n      tag_29\n      jump\t// in\n    tag_37:\n        /* \"contracts/Whale.sol\":760:872  return IERC721(0x484Ec30Feff505b545Ed7b905bc25a6a40589181).balanceOf(0x123e710c69b6806ef32Cf52e49dCC5EEEc368a22) */\n      swap4\n      pop\n      pop\n      pop\n      pop\n        /* \"contracts/Whale.sol\":217:879  function checkBalance() public view returns (uint256) {... */\n      swap1\n      jump\t// out\n    tag_10:\n      0x40\n      dup1\n      mload\n      dup1\n      dup3\n      add\n      swap1\n      swap2\n      mstore\n      0x00\n      dup1\n      dup3\n      mstore\n      0x20\n      dup3\n      add\n      mstore\n      swap1\n      jump\t// out\n        /* \"#utility.yul\":14:347   */\n    tag_22:\n      0x00\n        /* \"#utility.yul\":137:139   */\n      0x20\n        /* \"#utility.yul\":125:134   */\n      dup3\n        /* \"#utility.yul\":116:123   */\n      dup5\n        /* \"#utility.yul\":112:135   */\n      sub\n        /* \"#utility.yul\":108:140   */\n      slt\n        /* \"#utility.yul\":105:107   */\n      iszero\n      tag_40\n      jumpi\n        /* \"#utility.yul\":158:164   */\n      dup1\n        /* \"#utility.yul\":150:156   */\n      dup2\n        /* \"#utility.yul\":143:165   */\n      revert\n        /* \"#utility.yul\":105:107   */\n    tag_40:\n        /* \"#utility.yul\":195:204   */\n      dup2\n        /* \"#utility.yul\":189:205   */\n      mload\n        /* \"#utility.yul\":245:287   */\n      0xffffffffffffffffffffffffffffffffffffffff\n        /* \"#utility.yul\":238:243   */\n      dup2\n        /* \"#utility.yul\":234:288   */\n      and\n        /* \"#utility.yul\":227:232   */\n      dup2\n        /* \"#utility.yul\":224:289   */\n      eq\n        /* \"#utility.yul\":214:216   */\n      tag_41\n      jumpi\n        /* \"#utility.yul\":308:314   */\n      dup2\n        /* \"#utility.yul\":300:306   */\n      dup3\n        /* \"#utility.yul\":293:315   */\n      revert\n        /* \"#utility.yul\":214:216   */\n    tag_41:\n        /* \"#utility.yul\":336:341   */\n      swap4\n        /* \"#utility.yul\":95:347   */\n      swap3\n      pop\n      pop\n      pop\n      jump\t// out\n        /* \"#utility.yul\":352:546   */\n    tag_29:\n      0x00\n        /* \"#utility.yul\":475:477   */\n      0x20\n        /* \"#utility.yul\":463:472   */\n      dup3\n        /* \"#utility.yul\":454:461   */\n      dup5\n        /* \"#utility.yul\":450:473   */\n      sub\n        /* \"#utility.yul\":446:478   */\n      slt\n        /* \"#utility.yul\":443:445   */\n      iszero\n      tag_43\n      jumpi\n        /* \"#utility.yul\":496:502   */\n      dup1\n        /* \"#utility.yul\":488:494   */\n      dup2\n        /* \"#utility.yul\":481:503   */\n      revert\n        /* \"#utility.yul\":443:445   */\n    tag_43:\n      pop\n        /* \"#utility.yul\":524:540   */\n      mload\n      swap2\n        /* \"#utility.yul\":433:546   */\n      swap1\n      pop\n      jump\t// out\n        /* \"#utility.yul\":551:777   */\n    tag_24:\n        /* \"#utility.yul\":727:769   */\n      0xffffffffffffffffffffffffffffffffffffffff\n        /* \"#utility.yul\":715:770   */\n      swap2\n      swap1\n      swap2\n      and\n        /* \"#utility.yul\":697:771   */\n      dup2\n      mstore\n        /* \"#utility.yul\":685:687   */\n      0x20\n        /* \"#utility.yul\":670:688   */\n      add\n      swap1\n        /* \"#utility.yul\":652:777   */\n      jump\t// out\n        /* \"#utility.yul\":782:959   */\n    tag_7:\n        /* \"#utility.yul\":928:953   */\n      swap1\n      dup2\n      mstore\n        /* \"#utility.yul\":916:918   */\n      0x20\n        /* \"#utility.yul\":901:919   */\n      add\n      swap1\n        /* \"#utility.yul\":883:959   */\n      jump\t// out\n        /* \"#utility.yul\":964:1150   */\n    tag_17:\n        /* \"#utility.yul\":1138:1142   */\n      0xff\n        /* \"#utility.yul\":1126:1143   */\n      swap2\n      swap1\n      swap2\n      and\n        /* \"#utility.yul\":1108:1144   */\n      dup2\n      mstore\n        /* \"#utility.yul\":1096:1098   */\n      0x20\n        /* \"#utility.yul\":1081:1099   */\n      add\n      swap1\n        /* \"#utility.yul\":1063:1150   */\n      jump\t// out\n        /* \"#utility.yul\":1155:1359   */\n    tag_15:\n      0x00\n        /* \"#utility.yul\":1229:1233   */\n      0xff\n        /* \"#utility.yul\":1226:1227   */\n      dup3\n        /* \"#utility.yul\":1222:1234   */\n      and\n        /* \"#utility.yul\":1261:1265   */\n      0xff\n        /* \"#utility.yul\":1258:1259   */\n      dup5\n        /* \"#utility.yul\":1254:1266   */\n      and\n        /* \"#utility.yul\":1296:1299   */\n      dup1\n        /* \"#utility.yul\":1290:1294   */\n      0xff\n        /* \"#utility.yul\":1286:1300   */\n      sub\n        /* \"#utility.yul\":1281:1284   */\n      dup3\n        /* \"#utility.yul\":1278:1301   */\n      gt\n        /* \"#utility.yul\":1275:1277   */\n      iszero\n      tag_49\n      jumpi\n        /* \"#utility.yul\":1304:1322   */\n      tag_49\n      tag_50\n      jump\t// in\n    tag_49:\n        /* \"#utility.yul\":1340:1353   */\n      add\n      swap4\n        /* \"#utility.yul\":1201:1359   */\n      swap3\n      pop\n      pop\n      pop\n      jump\t// out\n        /* \"#utility.yul\":1364:1539   */\n    tag_32:\n      0x00\n        /* \"#utility.yul\":1445:1449   */\n      0xff\n        /* \"#utility.yul\":1438:1443   */\n      dup3\n        /* \"#utility.yul\":1434:1450   */\n      and\n        /* \"#utility.yul\":1474:1478   */\n      0xff\n        /* \"#utility.yul\":1465:1472   */\n      dup2\n        /* \"#utility.yul\":1462:1479   */\n      eq\n        /* \"#utility.yul\":1459:1461   */\n      iszero\n      tag_53\n      jumpi\n        /* \"#utility.yul\":1482:1500   */\n      tag_53\n      tag_50\n      jump\t// in\n    tag_53:\n        /* \"#utility.yul\":1531:1532   */\n      0x01\n        /* \"#utility.yul\":1518:1533   */\n      add\n      swap3\n        /* \"#utility.yul\":1409:1539   */\n      swap2\n      pop\n      pop\n      jump\t// out\n        /* \"#utility.yul\":1544:1728   */\n    tag_50:\n        /* \"#utility.yul\":1596:1673   */\n      0x4e487b7100000000000000000000000000000000000000000000000000000000\n        /* \"#utility.yul\":1593:1594   */\n      0x00\n        /* \"#utility.yul\":1586:1674   */\n      mstore\n        /* \"#utility.yul\":1693:1697   */\n      0x11\n        /* \"#utility.yul\":1690:1691   */\n      0x04\n        /* \"#utility.yul\":1683:1698   */\n      mstore\n        /* \"#utility.yul\":1717:1721   */\n      0x24\n        /* \"#utility.yul\":1714:1715   */\n      0x00\n        /* \"#utility.yul\":1707:1722   */\n      revert\n\n    auxdata: 0xa2646970667358221220ffa8c6ed8526c9e6efcf1f956218fae9706d711da033fe3e0e96282eced974eb64736f6c63430008000033\n}\n",
				"bytecode": {
					"linkReferences": {},
					"object": "608060405234801561001057600080fd5b50610425806100206000396000f3fe608060405234801561001057600080fd5b5060043610610047577c01000000000000000000000000000000000000000000000000000000006000350463c71daccb811461004c575b600080fd5b61005461006a565b6040516100619190610364565b60405180910390f35b600060ca6100766102d9565b6000805b8360ff168160ff16101561021c57600073484ec30feff505b545ed7b905bc25a6a40589181636352211e6100af84600161037b565b6040518263ffffffff167c01000000000000000000000000000000000000000000000000000000000281526004016100e7919061036d565b60206040518083038186803b1580156100ff57600080fd5b505afa158015610113573d6000803e3d6000fd5b505050506040513d601f19601f8201168201806040525081019061013791906102f0565b6040517f70a0823100000000000000000000000000000000000000000000000000000000815290915060009073484ec30feff505b545ed7b905bc25a6a40589181906370a082319061018d908590600401610343565b60206040518083038186803b1580156101a557600080fd5b505afa1580156101b9573d6000803e3d6000fd5b505050506040513d601f19601f820116820180604052508101906101dd919061032b565b9050838111156102075780855273ffffffffffffffffffffffffffffffffffffffff821660208601525b50508080610214906103a0565b91505061007a565b506040517f70a0823100000000000000000000000000000000000000000000000000000000815273484ec30feff505b545ed7b905bc25a6a40589181906370a08231906102819073123e710c69b6806ef32cf52e49dcc5eeec368a2290600401610343565b60206040518083038186803b15801561029957600080fd5b505afa1580156102ad573d6000803e3d6000fd5b505050506040513d601f19601f820116820180604052508101906102d1919061032b565b935050505090565b604080518082019091526000808252602082015290565b600060208284031215610301578081fd5b815173ffffffffffffffffffffffffffffffffffffffff81168114610324578182fd5b9392505050565b60006020828403121561033c578081fd5b5051919050565b73ffffffffffffffffffffffffffffffffffffffff91909116815260200190565b90815260200190565b60ff91909116815260200190565b600060ff821660ff84168060ff03821115610398576103986103c0565b019392505050565b600060ff821660ff8114156103b7576103b76103c0565b60010192915050565b7f4e487b7100000000000000000000000000000000000000000000000000000000600052601160045260246000fdfea2646970667358221220ffa8c6ed8526c9e6efcf1f956218fae9706d711da033fe3e0e96282eced974eb64736f6c63430008000033",
					"opcodes": "PUSH1 0x80 PUSH1 0x40 MSTORE CALLVALUE DUP1 ISZERO PUSH2 0x10 JUMPI PUSH1 0x0 DUP1 REVERT JUMPDEST POP PUSH2 0x425 DUP1 PUSH2 0x20 PUSH1 0x0 CODECOPY PUSH1 0x0 RETURN INVALID PUSH1 0x80 PUSH1 0x40 MSTORE CALLVALUE DUP1 ISZERO PUSH2 0x10 JUMPI PUSH1 0x0 DUP1 REVERT JUMPDEST POP PUSH1 0x4 CALLDATASIZE LT PUSH2 0x47 JUMPI PUSH29 0x100000000000000000000000000000000000000000000000000000000 PUSH1 0x0 CALLDATALOAD DIV PUSH4 0xC71DACCB DUP2 EQ PUSH2 0x4C JUMPI JUMPDEST PUSH1 0x0 DUP1 REVERT JUMPDEST PUSH2 0x54 PUSH2 0x6A JUMP JUMPDEST PUSH1 0x40 MLOAD PUSH2 0x61 SWAP2 SWAP1 PUSH2 0x364 JUMP JUMPDEST PUSH1 0x40 MLOAD DUP1 SWAP2 SUB SWAP1 RETURN JUMPDEST PUSH1 0x0 PUSH1 0xCA PUSH2 0x76 PUSH2 0x2D9 JUMP JUMPDEST PUSH1 0x0 DUP1 JUMPDEST DUP4 PUSH1 0xFF AND DUP2 PUSH1 0xFF AND LT ISZERO PUSH2 0x21C JUMPI PUSH1 0x0 PUSH20 0x484EC30FEFF505B545ED7B905BC25A6A40589181 PUSH4 0x6352211E PUSH2 0xAF DUP5 PUSH1 0x1 PUSH2 0x37B JUMP JUMPDEST PUSH1 0x40 MLOAD DUP3 PUSH4 0xFFFFFFFF AND PUSH29 0x100000000000000000000000000000000000000000000000000000000 MUL DUP2 MSTORE PUSH1 0x4 ADD PUSH2 0xE7 SWAP2 SWAP1 PUSH2 0x36D JUMP JUMPDEST PUSH1 0x20 PUSH1 0x40 MLOAD DUP1 DUP4 SUB DUP2 DUP7 DUP1 EXTCODESIZE ISZERO DUP1 ISZERO PUSH2 0xFF JUMPI PUSH1 0x0 DUP1 REVERT JUMPDEST POP GAS STATICCALL ISZERO DUP1 ISZERO PUSH2 0x113 JUMPI RETURNDATASIZE PUSH1 0x0 DUP1 RETURNDATACOPY RETURNDATASIZE PUSH1 0x0 REVERT JUMPDEST POP POP POP POP PUSH1 0x40 MLOAD RETURNDATASIZE PUSH1 0x1F NOT PUSH1 0x1F DUP3 ADD AND DUP3 ADD DUP1 PUSH1 0x40 MSTORE POP DUP2 ADD SWAP1 PUSH2 0x137 SWAP2 SWAP1 PUSH2 0x2F0 JUMP JUMPDEST PUSH1 0x40 MLOAD PUSH32 0x70A0823100000000000000000000000000000000000000000000000000000000 DUP2 MSTORE SWAP1 SWAP2 POP PUSH1 0x0 SWAP1 PUSH20 0x484EC30FEFF505B545ED7B905BC25A6A40589181 SWAP1 PUSH4 0x70A08231 SWAP1 PUSH2 0x18D SWAP1 DUP6 SWAP1 PUSH1 0x4 ADD PUSH2 0x343 JUMP JUMPDEST PUSH1 0x20 PUSH1 0x40 MLOAD DUP1 DUP4 SUB DUP2 DUP7 DUP1 EXTCODESIZE ISZERO DUP1 ISZERO PUSH2 0x1A5 JUMPI PUSH1 0x0 DUP1 REVERT JUMPDEST POP GAS STATICCALL ISZERO DUP1 ISZERO PUSH2 0x1B9 JUMPI RETURNDATASIZE PUSH1 0x0 DUP1 RETURNDATACOPY RETURNDATASIZE PUSH1 0x0 REVERT JUMPDEST POP POP POP POP PUSH1 0x40 MLOAD RETURNDATASIZE PUSH1 0x1F NOT PUSH1 0x1F DUP3 ADD AND DUP3 ADD DUP1 PUSH1 0x40 MSTORE POP DUP2 ADD SWAP1 PUSH2 0x1DD SWAP2 SWAP1 PUSH2 0x32B JUMP JUMPDEST SWAP1 POP DUP4 DUP2 GT ISZERO PUSH2 0x207 JUMPI DUP1 DUP6 MSTORE PUSH20 0xFFFFFFFFFFFFFFFFFFFFFFFFFFFFFFFFFFFFFFFF DUP3 AND PUSH1 0x20 DUP7 ADD MSTORE JUMPDEST POP POP DUP1 DUP1 PUSH2 0x214 SWAP1 PUSH2 0x3A0 JUMP JUMPDEST SWAP2 POP POP PUSH2 0x7A JUMP JUMPDEST POP PUSH1 0x40 MLOAD PUSH32 0x70A0823100000000000000000000000000000000000000000000000000000000 DUP2 MSTORE PUSH20 0x484EC30FEFF505B545ED7B905BC25A6A40589181 SWAP1 PUSH4 0x70A08231 SWAP1 PUSH2 0x281 SWAP1 PUSH20 0x123E710C69B6806EF32CF52E49DCC5EEEC368A22 SWAP1 PUSH1 0x4 ADD PUSH2 0x343 JUMP JUMPDEST PUSH1 0x20 PUSH1 0x40 MLOAD DUP1 DUP4 SUB DUP2 DUP7 DUP1 EXTCODESIZE ISZERO DUP1 ISZERO PUSH2 0x299 JUMPI PUSH1 0x0 DUP1 REVERT JUMPDEST POP GAS STATICCALL ISZERO DUP1 ISZERO PUSH2 0x2AD JUMPI RETURNDATASIZE PUSH1 0x0 DUP1 RETURNDATACOPY RETURNDATASIZE PUSH1 0x0 REVERT JUMPDEST POP POP POP POP PUSH1 0x40 MLOAD RETURNDATASIZE PUSH1 0x1F NOT PUSH1 0x1F DUP3 ADD AND DUP3 ADD DUP1 PUSH1 0x40 MSTORE POP DUP2 ADD SWAP1 PUSH2 0x2D1 SWAP2 SWAP1 PUSH2 0x32B JUMP JUMPDEST SWAP4 POP POP POP POP SWAP1 JUMP JUMPDEST PUSH1 0x40 DUP1 MLOAD DUP1 DUP3 ADD SWAP1 SWAP2 MSTORE PUSH1 0x0 DUP1 DUP3 MSTORE PUSH1 0x20 DUP3 ADD MSTORE SWAP1 JUMP JUMPDEST PUSH1 0x0 PUSH1 0x20 DUP3 DUP5 SUB SLT ISZERO PUSH2 0x301 JUMPI DUP1 DUP2 REVERT JUMPDEST DUP2 MLOAD PUSH20 0xFFFFFFFFFFFFFFFFFFFFFFFFFFFFFFFFFFFFFFFF DUP2 AND DUP2 EQ PUSH2 0x324 JUMPI DUP2 DUP3 REVERT JUMPDEST SWAP4 SWAP3 POP POP POP JUMP JUMPDEST PUSH1 0x0 PUSH1 0x20 DUP3 DUP5 SUB SLT ISZERO PUSH2 0x33C JUMPI DUP1 DUP2 REVERT JUMPDEST POP MLOAD SWAP2 SWAP1 POP JUMP JUMPDEST PUSH20 0xFFFFFFFFFFFFFFFFFFFFFFFFFFFFFFFFFFFFFFFF SWAP2 SWAP1 SWAP2 AND DUP2 MSTORE PUSH1 0x20 ADD SWAP1 JUMP JUMPDEST SWAP1 DUP2 MSTORE PUSH1 0x20 ADD SWAP1 JUMP JUMPDEST PUSH1 0xFF SWAP2 SWAP1 SWAP2 AND DUP2 MSTORE PUSH1 0x20 ADD SWAP1 JUMP JUMPDEST PUSH1 0x0 PUSH1 0xFF DUP3 AND PUSH1 0xFF DUP5 AND DUP1 PUSH1 0xFF SUB DUP3 GT ISZERO PUSH2 0x398 JUMPI PUSH2 0x398 PUSH2 0x3C0 JUMP JUMPDEST ADD SWAP4 SWAP3 POP POP POP JUMP JUMPDEST PUSH1 0x0 PUSH1 0xFF DUP3 AND PUSH1 0xFF DUP2 EQ ISZERO PUSH2 0x3B7 JUMPI PUSH2 0x3B7 PUSH2 0x3C0 JUMP JUMPDEST PUSH1 0x1 ADD SWAP3 SWAP2 POP POP JUMP JUMPDEST PUSH32 0x4E487B7100000000000000000000000000000000000000000000000000000000 PUSH1 0x0 MSTORE PUSH1 0x11 PUSH1 0x4 MSTORE PUSH1 0x24 PUSH1 0x0 REVERT INVALID LOG2 PUSH5 0x6970667358 0x22 SLT KECCAK256 SELFDESTRUCT 0xA8 0xC6 0xED DUP6 0x26 0xC9 0xE6 0xEF 0xCF 0x1F SWAP6 PUSH3 0x18FAE9 PUSH17 0x6D711DA033FE3E0E96282ECED974EB6473 PUSH16 0x6C634300080000330000000000000000 "
				},
				"gasEstimates": {
					"creation": {
						"codeDepositCost": "212200",
						"executionCost": "257",
						"totalCost": "212457"
					},
					"external": {
						"checkBalance()": "infinite"
					}
				},
				"methodIdentifiers": {
					"checkBalance()": "c71daccb"
				}
			},
			"storageLayout": {
				"storage": [],
				"types": null
			},
			"userdoc": {
				"kind": "user",
				"methods": {},
				"version": 1
			}
		}
	}
}