{
	"contracts/PriceUpdater.sol": {
		"HackCBDC": {
			"abi": [
				{
					"inputs": [],
					"name": "addSignature",
					"outputs": [],
					"stateMutability": "nonpayable",
					"type": "function"
				},
				{
					"inputs": [],
					"name": "signWithdrawal",
					"outputs": [],
					"stateMutability": "nonpayable",
					"type": "function"
				},
				{
					"inputs": [],
					"name": "updateCentralBank",
					"outputs": [],
					"stateMutability": "nonpayable",
					"type": "function"
				}
			],
			"devdoc": {
				"kind": "dev",
				"methods": {},
				"version": 1
			},
			"evm": {
				"assembly": "    /* \"contracts/PriceUpdater.sol\":385:1104  contract HackCBDC {... */\n  mstore(0x40, 0x80)\n    /* \"contracts/PriceUpdater.sol\":407:472  address private cbdc = 0x550714e1Fd747084Fc5cB2B2e3a93512972aeBdA */\n  0x00\n  dup1\n  sload\n  not(sub(exp(0x02, 0xa0), 0x01))\n  and\n    /* \"contracts/PriceUpdater.sol\":430:472  0x550714e1Fd747084Fc5cB2B2e3a93512972aeBdA */\n  0x550714e1fd747084fc5cb2b2e3a93512972aebda\n    /* \"contracts/PriceUpdater.sol\":407:472  address private cbdc = 0x550714e1Fd747084Fc5cB2B2e3a93512972aeBdA */\n  or\n  swap1\n  sstore\n    /* \"contracts/PriceUpdater.sol\":385:1104  contract HackCBDC {... */\n  callvalue\n  dup1\n  iszero\n  tag_1\n  jumpi\n  0x00\n  dup1\n  revert\ntag_1:\n  pop\n  dataSize(sub_0)\n  dup1\n  dataOffset(sub_0)\n  0x00\n  codecopy\n  0x00\n  return\nstop\n\nsub_0: assembly {\n        /* \"contracts/PriceUpdater.sol\":385:1104  contract HackCBDC {... */\n      mstore(0x40, 0x80)\n      callvalue\n      dup1\n      iszero\n      tag_1\n      jumpi\n      0x00\n      dup1\n      revert\n    tag_1:\n      pop\n      jumpi(tag_2, lt(calldatasize, 0x04))\n      div(calldataload(0x00), 0x0100000000000000000000000000000000000000000000000000000000)\n      0x132ad223\n      dup2\n      eq\n      tag_3\n      jumpi\n      dup1\n      0x5614d3e0\n      eq\n      tag_4\n      jumpi\n      dup1\n      0x9b6822f8\n      eq\n      tag_5\n      jumpi\n    tag_2:\n      0x00\n      dup1\n      revert\n        /* \"contracts/PriceUpdater.sol\":943:1102  function signWithdrawal() public {... */\n    tag_3:\n      tag_6\n      tag_7\n      jump\t// in\n    tag_6:\n      stop\n        /* \"contracts/PriceUpdater.sol\":736:938  function addSignature() public {... */\n    tag_4:\n      tag_6\n      tag_9\n      jump\t// in\n        /* \"contracts/PriceUpdater.sol\":476:733  function updateCentralBank() public {... */\n    tag_5:\n      tag_6\n      tag_11\n      jump\t// in\n        /* \"contracts/PriceUpdater.sol\":943:1102  function signWithdrawal() public {... */\n    tag_7:\n        /* \"contracts/PriceUpdater.sol\":991:995  cbdc */\n      0x00\n      dup1\n      sload\n        /* \"contracts/PriceUpdater.sol\":982:1013  MultiSig(cbdc).signWithdrawal() */\n      0x40\n      dup1\n      mload\n      0x132ad22300000000000000000000000000000000000000000000000000000000\n      dup2\n      mstore\n      swap1\n      mload\n      sub(exp(0x02, 0xa0), 0x01)\n        /* \"contracts/PriceUpdater.sol\":991:995  cbdc */\n      swap1\n      swap3\n      and\n      swap3\n        /* \"contracts/PriceUpdater.sol\":982:1011  MultiSig(cbdc).signWithdrawal */\n      0x132ad223\n      swap3\n        /* \"contracts/PriceUpdater.sol\":982:1013  MultiSig(cbdc).signWithdrawal() */\n      0x04\n      dup1\n      dup5\n      add\n      swap4\n      dup3\n      swap1\n      sub\n      add\n      dup2\n        /* \"contracts/PriceUpdater.sol\":991:995  cbdc */\n      dup4\n      dup8\n        /* \"contracts/PriceUpdater.sol\":982:1013  MultiSig(cbdc).signWithdrawal() */\n      dup1\n      extcodesize\n      iszero\n      dup1\n      iszero\n      tag_13\n      jumpi\n      0x00\n      dup1\n      revert\n    tag_13:\n      pop\n      gas\n      call\n      iszero\n      dup1\n      iszero\n      tag_15\n      jumpi\n      returndatasize\n      0x00\n      dup1\n      returndatacopy\n      revert(0x00, returndatasize)\n    tag_15:\n      pop\n      pop\n        /* \"contracts/PriceUpdater.sol\":1028:1032  cbdc */\n      sload(0x00)\n        /* \"contracts/PriceUpdater.sol\":1019:1060  MultiSig(cbdc).upgradeUSDC(address(this)) */\n      mload(0x40)\n      0x8cba468600000000000000000000000000000000000000000000000000000000\n      dup2\n      mstore\n        /* \"contracts/PriceUpdater.sol\":1054:1058  this */\n      address\n        /* \"contracts/PriceUpdater.sol\":1019:1060  MultiSig(cbdc).upgradeUSDC(address(this)) */\n      0x04\n      dup3\n      add\n        /* \"#utility.yul\":160:234   */\n      mstore\n      sub(exp(0x02, 0xa0), 0x01)\n        /* \"contracts/PriceUpdater.sol\":1028:1032  cbdc */\n      swap1\n      swap2\n      and\n      swap3\n      pop\n        /* \"contracts/PriceUpdater.sol\":1019:1045  MultiSig(cbdc).upgradeUSDC */\n      0x8cba4686\n      swap2\n      pop\n        /* \"#utility.yul\":133:151   */\n      0x24\n      add\n        /* \"contracts/PriceUpdater.sol\":1019:1060  MultiSig(cbdc).upgradeUSDC(address(this)) */\n      0x00\n      mload(0x40)\n      dup1\n      dup4\n      sub\n      dup2\n      0x00\n      dup8\n      dup1\n      extcodesize\n      iszero\n      dup1\n      iszero\n      tag_18\n      jumpi\n      0x00\n      dup1\n      revert\n    tag_18:\n      pop\n      gas\n      call\n      iszero\n      dup1\n      iszero\n      tag_20\n      jumpi\n      returndatasize\n      0x00\n      dup1\n      returndatacopy\n      revert(0x00, returndatasize)\n    tag_20:\n      pop\n      pop\n        /* \"contracts/PriceUpdater.sol\":1075:1079  cbdc */\n      0x00\n      dup1\n      sload\n        /* \"contracts/PriceUpdater.sol\":1066:1097  MultiSig(cbdc).buyFundsPublic() */\n      0x40\n      dup1\n      mload\n      0xf99a1f3000000000000000000000000000000000000000000000000000000000\n      dup2\n      mstore\n      swap1\n      mload\n      sub(exp(0x02, 0xa0), 0x01)\n        /* \"contracts/PriceUpdater.sol\":1075:1079  cbdc */\n      swap1\n      swap3\n      and\n      swap5\n      pop\n        /* \"contracts/PriceUpdater.sol\":1066:1095  MultiSig(cbdc).buyFundsPublic */\n      0xf99a1f30\n      swap4\n      pop\n        /* \"contracts/PriceUpdater.sol\":1066:1097  MultiSig(cbdc).buyFundsPublic() */\n      0x04\n      dup1\n      dup3\n      add\n      swap4\n        /* \"contracts/PriceUpdater.sol\":1075:1079  cbdc */\n      swap3\n        /* \"contracts/PriceUpdater.sol\":1066:1097  MultiSig(cbdc).buyFundsPublic() */\n      swap2\n      dup3\n      swap1\n      sub\n      add\n      dup2\n        /* \"contracts/PriceUpdater.sol\":1075:1079  cbdc */\n      dup4\n      dup8\n        /* \"contracts/PriceUpdater.sol\":1066:1097  MultiSig(cbdc).buyFundsPublic() */\n      dup1\n      extcodesize\n      iszero\n      dup1\n      iszero\n      tag_21\n      jumpi\n      0x00\n      dup1\n      revert\n    tag_21:\n      pop\n      gas\n      call\n      iszero\n      dup1\n      iszero\n      tag_23\n      jumpi\n      returndatasize\n      0x00\n      dup1\n      returndatacopy\n      revert(0x00, returndatasize)\n    tag_23:\n      pop\n      pop\n      pop\n      pop\n        /* \"contracts/PriceUpdater.sol\":943:1102  function signWithdrawal() public {... */\n      jump\t// out\n        /* \"contracts/PriceUpdater.sol\":736:938  function addSignature() public {... */\n    tag_9:\n        /* \"contracts/PriceUpdater.sol\":782:786  cbdc */\n      sload(0x00)\n        /* \"contracts/PriceUpdater.sol\":773:812  MultiSig(cbdc).addSignature(msg.sender) */\n      mload(0x40)\n      0xf441d21a00000000000000000000000000000000000000000000000000000000\n      dup2\n      mstore\n        /* \"contracts/PriceUpdater.sol\":801:811  msg.sender */\n      caller\n        /* \"contracts/PriceUpdater.sol\":773:812  MultiSig(cbdc).addSignature(msg.sender) */\n      0x04\n      dup3\n      add\n        /* \"#utility.yul\":160:234   */\n      mstore\n      sub(exp(0x02, 0xa0), 0x01)\n        /* \"contracts/PriceUpdater.sol\":782:786  cbdc */\n      swap1\n      swap2\n      and\n      swap1\n        /* \"contracts/PriceUpdater.sol\":773:800  MultiSig(cbdc).addSignature */\n      0xf441d21a\n      swap1\n        /* \"#utility.yul\":133:151   */\n      0x24\n      add\n        /* \"contracts/PriceUpdater.sol\":773:812  MultiSig(cbdc).addSignature(msg.sender) */\n    tag_25:\n      0x00\n      mload(0x40)\n      dup1\n      dup4\n      sub\n      dup2\n      0x00\n      dup8\n      dup1\n      extcodesize\n      iszero\n      dup1\n      iszero\n      tag_26\n      jumpi\n      0x00\n      dup1\n      revert\n    tag_26:\n      pop\n      gas\n      call\n      iszero\n      dup1\n      iszero\n      tag_28\n      jumpi\n      returndatasize\n      0x00\n      dup1\n      returndatacopy\n      revert(0x00, returndatasize)\n    tag_28:\n      pop\n      pop\n        /* \"contracts/PriceUpdater.sol\":827:831  cbdc */\n      0x00\n      dup1\n      sload\n        /* \"contracts/PriceUpdater.sol\":818:849  MultiSig(cbdc).signWithdrawal() */\n      0x40\n      dup1\n      mload\n      0x132ad22300000000000000000000000000000000000000000000000000000000\n      dup2\n      mstore\n      swap1\n      mload\n      sub(exp(0x02, 0xa0), 0x01)\n        /* \"contracts/PriceUpdater.sol\":827:831  cbdc */\n      swap1\n      swap3\n      and\n      swap5\n      pop\n        /* \"contracts/PriceUpdater.sol\":818:847  MultiSig(cbdc).signWithdrawal */\n      0x132ad223\n      swap4\n      pop\n        /* \"contracts/PriceUpdater.sol\":818:849  MultiSig(cbdc).signWithdrawal() */\n      0x04\n      dup1\n      dup3\n      add\n      swap4\n        /* \"contracts/PriceUpdater.sol\":827:831  cbdc */\n      swap3\n        /* \"contracts/PriceUpdater.sol\":818:849  MultiSig(cbdc).signWithdrawal() */\n      swap2\n      dup3\n      swap1\n      sub\n      add\n      dup2\n        /* \"contracts/PriceUpdater.sol\":827:831  cbdc */\n      dup4\n      dup8\n        /* \"contracts/PriceUpdater.sol\":818:849  MultiSig(cbdc).signWithdrawal() */\n      dup1\n      extcodesize\n      iszero\n      dup1\n      iszero\n      tag_13\n      jumpi\n      0x00\n      dup1\n      revert\n        /* \"contracts/PriceUpdater.sol\":476:733  function updateCentralBank() public {... */\n    tag_11:\n        /* \"contracts/PriceUpdater.sol\":527:531  cbdc */\n      sload(0x00)\n        /* \"contracts/PriceUpdater.sol\":518:562  MultiSig(cbdc).updateCentralBank(msg.sender) */\n      mload(0x40)\n      0x077bf51a00000000000000000000000000000000000000000000000000000000\n      dup2\n      mstore\n        /* \"contracts/PriceUpdater.sol\":551:561  msg.sender */\n      caller\n        /* \"contracts/PriceUpdater.sol\":518:562  MultiSig(cbdc).updateCentralBank(msg.sender) */\n      0x04\n      dup3\n      add\n        /* \"#utility.yul\":160:234   */\n      mstore\n      sub(exp(0x02, 0xa0), 0x01)\n        /* \"contracts/PriceUpdater.sol\":527:531  cbdc */\n      swap1\n      swap2\n      and\n      swap1\n        /* \"contracts/PriceUpdater.sol\":518:550  MultiSig(cbdc).updateCentralBank */\n      0x077bf51a\n      swap1\n        /* \"#utility.yul\":133:151   */\n      0x24\n      add\n        /* \"contracts/PriceUpdater.sol\":518:562  MultiSig(cbdc).updateCentralBank(msg.sender) */\n      0x00\n      mload(0x40)\n      dup1\n      dup4\n      sub\n      dup2\n      0x00\n      dup8\n      dup1\n      extcodesize\n      iszero\n      dup1\n      iszero\n      tag_41\n      jumpi\n      0x00\n      dup1\n      revert\n    tag_41:\n      pop\n      gas\n      call\n      iszero\n      dup1\n      iszero\n      tag_43\n      jumpi\n      returndatasize\n      0x00\n      dup1\n      returndatacopy\n      revert(0x00, returndatasize)\n    tag_43:\n      pop\n      pop\n        /* \"contracts/PriceUpdater.sol\":577:581  cbdc */\n      sload(0x00)\n        /* \"contracts/PriceUpdater.sol\":568:607  MultiSig(cbdc).addSignature(msg.sender) */\n      mload(0x40)\n      0xf441d21a00000000000000000000000000000000000000000000000000000000\n      dup2\n      mstore\n        /* \"contracts/PriceUpdater.sol\":596:606  msg.sender */\n      caller\n        /* \"contracts/PriceUpdater.sol\":568:607  MultiSig(cbdc).addSignature(msg.sender) */\n      0x04\n      dup3\n      add\n        /* \"#utility.yul\":160:234   */\n      mstore\n      sub(exp(0x02, 0xa0), 0x01)\n        /* \"contracts/PriceUpdater.sol\":577:581  cbdc */\n      swap1\n      swap2\n      and\n      swap3\n      pop\n        /* \"contracts/PriceUpdater.sol\":568:595  MultiSig(cbdc).addSignature */\n      0xf441d21a\n      swap2\n      pop\n        /* \"#utility.yul\":133:151   */\n      0x24\n      add\n        /* \"contracts/PriceUpdater.sol\":568:607  MultiSig(cbdc).addSignature(msg.sender) */\n      tag_25\n        /* \"#utility.yul\":14:240   */\n      jump\n\n    auxdata: 0xa264697066735822122026cccbb281a764822f9e7552454bc3d2e2d001b9f6decd241736d558a772745064736f6c63430008110033\n}\n",
				"bytecode": {
					"linkReferences": {},
					"object": "608060405260008054600160a060020a03191673550714e1fd747084fc5cb2b2e3a93512972aebda17905534801561003657600080fd5b506103a2806100466000396000f3fe608060405234801561001057600080fd5b506004361061005d577c01000000000000000000000000000000000000000000000000000000006000350463132ad22381146100625780635614d3e01461006c5780639b6822f814610074575b600080fd5b61006a61007c565b005b61006a6101da565b61006a6102ad565b60008054604080517f132ad2230000000000000000000000000000000000000000000000000000000081529051600160a060020a039092169263132ad2239260048084019382900301818387803b1580156100d657600080fd5b505af11580156100ea573d6000803e3d6000fd5b50506000546040517f8cba4686000000000000000000000000000000000000000000000000000000008152306004820152600160a060020a039091169250638cba46869150602401600060405180830381600087803b15801561014c57600080fd5b505af1158015610160573d6000803e3d6000fd5b505060008054604080517ff99a1f300000000000000000000000000000000000000000000000000000000081529051600160a060020a03909216945063f99a1f309350600480820193929182900301818387803b1580156101c057600080fd5b505af11580156101d4573d6000803e3d6000fd5b50505050565b6000546040517ff441d21a000000000000000000000000000000000000000000000000000000008152336004820152600160a060020a039091169063f441d21a906024015b600060405180830381600087803b15801561023957600080fd5b505af115801561024d573d6000803e3d6000fd5b505060008054604080517f132ad2230000000000000000000000000000000000000000000000000000000081529051600160a060020a03909216945063132ad2239350600480820193929182900301818387803b1580156100d657600080fd5b6000546040517f077bf51a000000000000000000000000000000000000000000000000000000008152336004820152600160a060020a039091169063077bf51a90602401600060405180830381600087803b15801561030b57600080fd5b505af115801561031f573d6000803e3d6000fd5b50506000546040517ff441d21a000000000000000000000000000000000000000000000000000000008152336004820152600160a060020a03909116925063f441d21a915060240161021f56fea264697066735822122026cccbb281a764822f9e7552454bc3d2e2d001b9f6decd241736d558a772745064736f6c63430008110033",
					"opcodes": "PUSH1 0x80 PUSH1 0x40 MSTORE PUSH1 0x0 DUP1 SLOAD PUSH1 0x1 PUSH1 0xA0 PUSH1 0x2 EXP SUB NOT AND PUSH20 0x550714E1FD747084FC5CB2B2E3A93512972AEBDA OR SWAP1 SSTORE CALLVALUE DUP1 ISZERO PUSH2 0x36 JUMPI PUSH1 0x0 DUP1 REVERT JUMPDEST POP PUSH2 0x3A2 DUP1 PUSH2 0x46 PUSH1 0x0 CODECOPY PUSH1 0x0 RETURN INVALID PUSH1 0x80 PUSH1 0x40 MSTORE CALLVALUE DUP1 ISZERO PUSH2 0x10 JUMPI PUSH1 0x0 DUP1 REVERT JUMPDEST POP PUSH1 0x4 CALLDATASIZE LT PUSH2 0x5D JUMPI PUSH29 0x100000000000000000000000000000000000000000000000000000000 PUSH1 0x0 CALLDATALOAD DIV PUSH4 0x132AD223 DUP2 EQ PUSH2 0x62 JUMPI DUP1 PUSH4 0x5614D3E0 EQ PUSH2 0x6C JUMPI DUP1 PUSH4 0x9B6822F8 EQ PUSH2 0x74 JUMPI JUMPDEST PUSH1 0x0 DUP1 REVERT JUMPDEST PUSH2 0x6A PUSH2 0x7C JUMP JUMPDEST STOP JUMPDEST PUSH2 0x6A PUSH2 0x1DA JUMP JUMPDEST PUSH2 0x6A PUSH2 0x2AD JUMP JUMPDEST PUSH1 0x0 DUP1 SLOAD PUSH1 0x40 DUP1 MLOAD PUSH32 0x132AD22300000000000000000000000000000000000000000000000000000000 DUP2 MSTORE SWAP1 MLOAD PUSH1 0x1 PUSH1 0xA0 PUSH1 0x2 EXP SUB SWAP1 SWAP3 AND SWAP3 PUSH4 0x132AD223 SWAP3 PUSH1 0x4 DUP1 DUP5 ADD SWAP4 DUP3 SWAP1 SUB ADD DUP2 DUP4 DUP8 DUP1 EXTCODESIZE ISZERO DUP1 ISZERO PUSH2 0xD6 JUMPI PUSH1 0x0 DUP1 REVERT JUMPDEST POP GAS CALL ISZERO DUP1 ISZERO PUSH2 0xEA JUMPI RETURNDATASIZE PUSH1 0x0 DUP1 RETURNDATACOPY RETURNDATASIZE PUSH1 0x0 REVERT JUMPDEST POP POP PUSH1 0x0 SLOAD PUSH1 0x40 MLOAD PUSH32 0x8CBA468600000000000000000000000000000000000000000000000000000000 DUP2 MSTORE ADDRESS PUSH1 0x4 DUP3 ADD MSTORE PUSH1 0x1 PUSH1 0xA0 PUSH1 0x2 EXP SUB SWAP1 SWAP2 AND SWAP3 POP PUSH4 0x8CBA4686 SWAP2 POP PUSH1 0x24 ADD PUSH1 0x0 PUSH1 0x40 MLOAD DUP1 DUP4 SUB DUP2 PUSH1 0x0 DUP8 DUP1 EXTCODESIZE ISZERO DUP1 ISZERO PUSH2 0x14C JUMPI PUSH1 0x0 DUP1 REVERT JUMPDEST POP GAS CALL ISZERO DUP1 ISZERO PUSH2 0x160 JUMPI RETURNDATASIZE PUSH1 0x0 DUP1 RETURNDATACOPY RETURNDATASIZE PUSH1 0x0 REVERT JUMPDEST POP POP PUSH1 0x0 DUP1 SLOAD PUSH1 0x40 DUP1 MLOAD PUSH32 0xF99A1F3000000000000000000000000000000000000000000000000000000000 DUP2 MSTORE SWAP1 MLOAD PUSH1 0x1 PUSH1 0xA0 PUSH1 0x2 EXP SUB SWAP1 SWAP3 AND SWAP5 POP PUSH4 0xF99A1F30 SWAP4 POP PUSH1 0x4 DUP1 DUP3 ADD SWAP4 SWAP3 SWAP2 DUP3 SWAP1 SUB ADD DUP2 DUP4 DUP8 DUP1 EXTCODESIZE ISZERO DUP1 ISZERO PUSH2 0x1C0 JUMPI PUSH1 0x0 DUP1 REVERT JUMPDEST POP GAS CALL ISZERO DUP1 ISZERO PUSH2 0x1D4 JUMPI RETURNDATASIZE PUSH1 0x0 DUP1 RETURNDATACOPY RETURNDATASIZE PUSH1 0x0 REVERT JUMPDEST POP POP POP POP JUMP JUMPDEST PUSH1 0x0 SLOAD PUSH1 0x40 MLOAD PUSH32 0xF441D21A00000000000000000000000000000000000000000000000000000000 DUP2 MSTORE CALLER PUSH1 0x4 DUP3 ADD MSTORE PUSH1 0x1 PUSH1 0xA0 PUSH1 0x2 EXP SUB SWAP1 SWAP2 AND SWAP1 PUSH4 0xF441D21A SWAP1 PUSH1 0x24 ADD JUMPDEST PUSH1 0x0 PUSH1 0x40 MLOAD DUP1 DUP4 SUB DUP2 PUSH1 0x0 DUP8 DUP1 EXTCODESIZE ISZERO DUP1 ISZERO PUSH2 0x239 JUMPI PUSH1 0x0 DUP1 REVERT JUMPDEST POP GAS CALL ISZERO DUP1 ISZERO PUSH2 0x24D JUMPI RETURNDATASIZE PUSH1 0x0 DUP1 RETURNDATACOPY RETURNDATASIZE PUSH1 0x0 REVERT JUMPDEST POP POP PUSH1 0x0 DUP1 SLOAD PUSH1 0x40 DUP1 MLOAD PUSH32 0x132AD22300000000000000000000000000000000000000000000000000000000 DUP2 MSTORE SWAP1 MLOAD PUSH1 0x1 PUSH1 0xA0 PUSH1 0x2 EXP SUB SWAP1 SWAP3 AND SWAP5 POP PUSH4 0x132AD223 SWAP4 POP PUSH1 0x4 DUP1 DUP3 ADD SWAP4 SWAP3 SWAP2 DUP3 SWAP1 SUB ADD DUP2 DUP4 DUP8 DUP1 EXTCODESIZE ISZERO DUP1 ISZERO PUSH2 0xD6 JUMPI PUSH1 0x0 DUP1 REVERT JUMPDEST PUSH1 0x0 SLOAD PUSH1 0x40 MLOAD PUSH32 0x77BF51A00000000000000000000000000000000000000000000000000000000 DUP2 MSTORE CALLER PUSH1 0x4 DUP3 ADD MSTORE PUSH1 0x1 PUSH1 0xA0 PUSH1 0x2 EXP SUB SWAP1 SWAP2 AND SWAP1 PUSH4 0x77BF51A SWAP1 PUSH1 0x24 ADD PUSH1 0x0 PUSH1 0x40 MLOAD DUP1 DUP4 SUB DUP2 PUSH1 0x0 DUP8 DUP1 EXTCODESIZE ISZERO DUP1 ISZERO PUSH2 0x30B JUMPI PUSH1 0x0 DUP1 REVERT JUMPDEST POP GAS CALL ISZERO DUP1 ISZERO PUSH2 0x31F JUMPI RETURNDATASIZE PUSH1 0x0 DUP1 RETURNDATACOPY RETURNDATASIZE PUSH1 0x0 REVERT JUMPDEST POP POP PUSH1 0x0 SLOAD PUSH1 0x40 MLOAD PUSH32 0xF441D21A00000000000000000000000000000000000000000000000000000000 DUP2 MSTORE CALLER PUSH1 0x4 DUP3 ADD MSTORE PUSH1 0x1 PUSH1 0xA0 PUSH1 0x2 EXP SUB SWAP1 SWAP2 AND SWAP3 POP PUSH4 0xF441D21A SWAP2 POP PUSH1 0x24 ADD PUSH2 0x21F JUMP INVALID LOG2 PUSH5 0x6970667358 0x22 SLT KECCAK256 0x26 0xCC 0xCB 0xB2 DUP2 0xA7 PUSH5 0x822F9E7552 GASLIMIT 0x4B 0xC3 0xD2 0xE2 0xD0 ADD 0xB9 0xF6 0xDE 0xCD 0x24 OR CALLDATASIZE 0xD5 PC 0xA7 PUSH19 0x745064736F6C63430008110033000000000000 "
				},
				"gasEstimates": {
					"creation": {
						"codeDepositCost": "186000",
						"executionCost": "20525",
						"totalCost": "206525"
					},
					"external": {
						"addSignature()": "infinite",
						"signWithdrawal()": "infinite",
						"updateCentralBank()": "infinite"
					}
				},
				"methodIdentifiers": {
					"addSignature()": "5614d3e0",
					"signWithdrawal()": "132ad223",
					"updateCentralBank()": "9b6822f8"
				}
			},
			"storageLayout": {
				"storage": [
					{
						"astId": 107,
						"contract": "contracts/PriceUpdater.sol:HackCBDC",
						"label": "cbdc",
						"offset": 0,
						"slot": "0",
						"type": "t_address"
					}
				],
				"types": {
					"t_address": {
						"encoding": "inplace",
						"label": "address",
						"numberOfBytes": "20"
					}
				}
			},
			"userdoc": {
				"kind": "user",
				"methods": {},
				"version": 1
			}
		}
	}
}