{
	"contracts/3_Ballot.sol": {
		"Vote": {
			"abi": [
				{
					"inputs": [
						{
							"internalType": "bytes32[]",
							"name": "_proposalNames",
							"type": "bytes32[]"
						}
					],
					"stateMutability": "nonpayable",
					"type": "constructor"
				},
				{
					"inputs": [],
					"name": "chairman",
					"outputs": [
						{
							"internalType": "address",
							"name": "",
							"type": "address"
						}
					],
					"stateMutability": "view",
					"type": "function"
				},
				{
					"inputs": [],
					"name": "finalWinnerName",
					"outputs": [
						{
							"internalType": "bytes32",
							"name": "_winnerName",
							"type": "bytes32"
						}
					],
					"stateMutability": "nonpayable",
					"type": "function"
				},
				{
					"inputs": [
						{
							"internalType": "address",
							"name": "_voter",
							"type": "address"
						}
					],
					"name": "giveRightToVote",
					"outputs": [],
					"stateMutability": "nonpayable",
					"type": "function"
				},
				{
					"inputs": [],
					"name": "openVote",
					"outputs": [
						{
							"internalType": "bool",
							"name": "",
							"type": "bool"
						}
					],
					"stateMutability": "view",
					"type": "function"
				},
				{
					"inputs": [],
					"name": "proposalWinnerName",
					"outputs": [
						{
							"internalType": "bytes32",
							"name": "_winnerName",
							"type": "bytes32"
						}
					],
					"stateMutability": "view",
					"type": "function"
				},
				{
					"inputs": [
						{
							"internalType": "uint256",
							"name": "",
							"type": "uint256"
						}
					],
					"name": "proposals",
					"outputs": [
						{
							"internalType": "bytes32",
							"name": "name",
							"type": "bytes32"
						},
						{
							"internalType": "uint256",
							"name": "voteCount",
							"type": "uint256"
						}
					],
					"stateMutability": "view",
					"type": "function"
				},
				{
					"inputs": [
						{
							"internalType": "uint8",
							"name": "_proposalId",
							"type": "uint8"
						},
						{
							"internalType": "address",
							"name": "_voter",
							"type": "address"
						}
					],
					"name": "vote",
					"outputs": [],
					"stateMutability": "nonpayable",
					"type": "function"
				}
			],
			"devdoc": {
				"kind": "dev",
				"methods": {},
				"version": 1
			},
			"evm": {
				"assembly": "    /* \"contracts/3_Ballot.sol\":70:2548  contract Vote {... */\n  mstore(0x40, 0x80)\n    /* \"contracts/3_Ballot.sol\":377:381  true */\n  0x01\n    /* \"contracts/3_Ballot.sol\":354:381  bool public openVote = true */\n  0x02\n  exp(0x0100, 0x14)\n  dup2\n  sload\n  dup2\n  0xff\n  mul\n  not\n  and\n  swap1\n  dup4\n  iszero\n  iszero\n  mul\n  or\n  swap1\n  sstore\n  pop\n    /* \"contracts/3_Ballot.sol\":386:818  constructor(bytes32[] memory _proposalNames) {... */\n  callvalue\n  dup1\n  iszero\n  tag_1\n  jumpi\n  0x00\n  dup1\n  revert\ntag_1:\n  pop\n  mload(0x40)\n  sub(codesize, bytecodeSize)\n  dup1\n  bytecodeSize\n  dup4\n  codecopy\n  dup2\n  dup2\n  add\n  0x40\n  mstore\n  dup2\n  add\n  swap1\n  tag_2\n  swap2\n  swap1\n  tag_3\n  jump\t// in\ntag_2:\n    /* \"contracts/3_Ballot.sol\":448:458  msg.sender */\n  caller\n    /* \"contracts/3_Ballot.sol\":437:445  chairman */\n  0x02\n  0x00\n    /* \"contracts/3_Ballot.sol\":437:458  chairman = msg.sender */\n  0x0100\n  exp\n  dup2\n  sload\n  dup2\n  0xffffffffffffffffffffffffffffffffffffffff\n  mul\n  not\n  and\n  swap1\n  dup4\n  0xffffffffffffffffffffffffffffffffffffffff\n  and\n  mul\n  or\n  swap1\n  sstore\n  pop\n    /* \"contracts/3_Ballot.sol\":490:491  1 */\n  0x01\n    /* \"contracts/3_Ballot.sol\":464:470  voters */\n  0x00\n    /* \"contracts/3_Ballot.sol\":464:480  voters[chairman] */\n  dup1\n    /* \"contracts/3_Ballot.sol\":471:479  chairman */\n  0x02\n  0x00\n  swap1\n  sload\n  swap1\n  0x0100\n  exp\n  swap1\n  div\n  0xffffffffffffffffffffffffffffffffffffffff\n  and\n    /* \"contracts/3_Ballot.sol\":464:480  voters[chairman] */\n  0xffffffffffffffffffffffffffffffffffffffff\n  and\n  0xffffffffffffffffffffffffffffffffffffffff\n  and\n  dup2\n  mstore\n  0x20\n  add\n  swap1\n  dup2\n  mstore\n  0x20\n  add\n  0x00\n  keccak256\n    /* \"contracts/3_Ballot.sol\":464:487  voters[chairman].weight */\n  0x00\n  add\n  0x02\n    /* \"contracts/3_Ballot.sol\":464:491  voters[chairman].weight = 1 */\n  0x0100\n  exp\n  dup2\n  sload\n  dup2\n  0xffffffff\n  mul\n  not\n  and\n  swap1\n  dup4\n  0xffffffff\n  and\n  mul\n  or\n  swap1\n  sstore\n  pop\n    /* \"contracts/3_Ballot.sol\":685:694  uint256 i */\n  0x00\n    /* \"contracts/3_Ballot.sol\":680:814  for (uint256 i = 0; i < _proposalNames.length; i++) {... */\ntag_6:\n    /* \"contracts/3_Ballot.sol\":704:718  _proposalNames */\n  dup2\n    /* \"contracts/3_Ballot.sol\":704:725  _proposalNames.length */\n  mload\n    /* \"contracts/3_Ballot.sol\":700:701  i */\n  dup2\n    /* \"contracts/3_Ballot.sol\":700:725  i < _proposalNames.length */\n  lt\n    /* \"contracts/3_Ballot.sol\":680:814  for (uint256 i = 0; i < _proposalNames.length; i++) {... */\n  iszero\n  tag_7\n  jumpi\n    /* \"contracts/3_Ballot.sol\":740:749  proposals */\n  0x01\n    /* \"contracts/3_Ballot.sol\":755:806  Proposal({ name: _proposalNames[i], voteCount: 0 }) */\n  mload(0x40)\n  dup1\n  0x40\n  add\n  0x40\n  mstore\n  dup1\n    /* \"contracts/3_Ballot.sol\":772:786  _proposalNames */\n  dup5\n    /* \"contracts/3_Ballot.sol\":787:788  i */\n  dup5\n    /* \"contracts/3_Ballot.sol\":772:789  _proposalNames[i] */\n  dup2\n  mload\n  dup2\n  lt\n  tag_9\n  jumpi\n  tag_10\n  tag_11\n  jump\t// in\ntag_10:\ntag_9:\n  0x20\n  mul\n  0x20\n  add\n  add\n  mload\n    /* \"contracts/3_Ballot.sol\":755:806  Proposal({ name: _proposalNames[i], voteCount: 0 }) */\n  dup2\n  mstore\n  0x20\n  add\n    /* \"contracts/3_Ballot.sol\":802:803  0 */\n  0x00\n    /* \"contracts/3_Ballot.sol\":755:806  Proposal({ name: _proposalNames[i], voteCount: 0 }) */\n  dup2\n  mstore\n  pop\n    /* \"contracts/3_Ballot.sol\":740:807  proposals.push(Proposal({ name: _proposalNames[i], voteCount: 0 })) */\n  swap1\n  dup1\n  0x01\n  dup2\n  sload\n  add\n  dup1\n  dup3\n  sstore\n  dup1\n  swap2\n  pop\n  pop\n  0x01\n  swap1\n  sub\n  swap1\n  0x00\n  mstore\n  keccak256(0x00, 0x20)\n  swap1\n  0x02\n  mul\n  add\n  0x00\n  swap1\n  swap2\n  swap1\n  swap2\n  swap1\n  swap2\n  pop\n  0x00\n  dup3\n  add\n  mload\n  dup2\n  0x00\n  add\n  sstore\n  0x20\n  dup3\n  add\n  mload\n  dup2\n  0x01\n  add\n  sstore\n  pop\n  pop\n    /* \"contracts/3_Ballot.sol\":727:730  i++ */\n  dup1\n  dup1\n  tag_13\n  swap1\n  tag_14\n  jump\t// in\ntag_13:\n  swap2\n  pop\n  pop\n    /* \"contracts/3_Ballot.sol\":680:814  for (uint256 i = 0; i < _proposalNames.length; i++) {... */\n  jump(tag_6)\ntag_7:\n  pop\n    /* \"contracts/3_Ballot.sol\":386:818  constructor(bytes32[] memory _proposalNames) {... */\n  pop\n    /* \"contracts/3_Ballot.sol\":70:2548  contract Vote {... */\n  jump(tag_15)\n    /* \"#utility.yul\":24:768   */\ntag_17:\n    /* \"#utility.yul\":131:136   */\n  0x00\n    /* \"#utility.yul\":156:237   */\n  tag_19\n    /* \"#utility.yul\":172:236   */\n  tag_20\n    /* \"#utility.yul\":229:235   */\n  dup5\n    /* \"#utility.yul\":172:236   */\n  tag_21\n  jump\t// in\ntag_20:\n    /* \"#utility.yul\":156:237   */\n  tag_22\n  jump\t// in\ntag_19:\n    /* \"#utility.yul\":147:237   */\n  swap1\n  pop\n    /* \"#utility.yul\":257:262   */\n  dup1\n    /* \"#utility.yul\":286:292   */\n  dup4\n    /* \"#utility.yul\":279:284   */\n  dup3\n    /* \"#utility.yul\":272:293   */\n  mstore\n    /* \"#utility.yul\":320:324   */\n  0x20\n    /* \"#utility.yul\":313:318   */\n  dup3\n    /* \"#utility.yul\":309:325   */\n  add\n    /* \"#utility.yul\":302:325   */\n  swap1\n  pop\n    /* \"#utility.yul\":346:352   */\n  dup3\n    /* \"#utility.yul\":396:399   */\n  dup6\n    /* \"#utility.yul\":388:392   */\n  0x20\n    /* \"#utility.yul\":380:386   */\n  dup7\n    /* \"#utility.yul\":376:393   */\n  mul\n    /* \"#utility.yul\":371:374   */\n  dup3\n    /* \"#utility.yul\":367:394   */\n  add\n    /* \"#utility.yul\":364:400   */\n  gt\n    /* \"#utility.yul\":361:504   */\n  iszero\n  tag_23\n  jumpi\n    /* \"#utility.yul\":415:494   */\n  tag_24\n  tag_25\n  jump\t// in\ntag_24:\n    /* \"#utility.yul\":361:504   */\ntag_23:\n    /* \"#utility.yul\":528:529   */\n  0x00\n    /* \"#utility.yul\":513:762   */\ntag_26:\n    /* \"#utility.yul\":538:544   */\n  dup6\n    /* \"#utility.yul\":535:536   */\n  dup2\n    /* \"#utility.yul\":532:545   */\n  lt\n    /* \"#utility.yul\":513:762   */\n  iszero\n  tag_28\n  jumpi\n    /* \"#utility.yul\":606:609   */\n  dup2\n    /* \"#utility.yul\":635:683   */\n  tag_29\n    /* \"#utility.yul\":679:682   */\n  dup9\n    /* \"#utility.yul\":667:677   */\n  dup3\n    /* \"#utility.yul\":635:683   */\n  tag_30\n  jump\t// in\ntag_29:\n    /* \"#utility.yul\":630:633   */\n  dup5\n    /* \"#utility.yul\":623:684   */\n  mstore\n    /* \"#utility.yul\":713:717   */\n  0x20\n    /* \"#utility.yul\":708:711   */\n  dup5\n    /* \"#utility.yul\":704:718   */\n  add\n    /* \"#utility.yul\":697:718   */\n  swap4\n  pop\n    /* \"#utility.yul\":747:751   */\n  0x20\n    /* \"#utility.yul\":742:745   */\n  dup4\n    /* \"#utility.yul\":738:752   */\n  add\n    /* \"#utility.yul\":731:752   */\n  swap3\n  pop\n    /* \"#utility.yul\":573:762   */\n  pop\n    /* \"#utility.yul\":560:561   */\n  0x01\n    /* \"#utility.yul\":557:558   */\n  dup2\n    /* \"#utility.yul\":553:562   */\n  add\n    /* \"#utility.yul\":548:562   */\n  swap1\n  pop\n    /* \"#utility.yul\":513:762   */\n  jump(tag_26)\ntag_28:\n    /* \"#utility.yul\":517:531   */\n  pop\n    /* \"#utility.yul\":137:768   */\n  pop\n  pop\n    /* \"#utility.yul\":24:768   */\n  swap4\n  swap3\n  pop\n  pop\n  pop\n  jump\t// out\n    /* \"#utility.yul\":791:1176   */\ntag_31:\n    /* \"#utility.yul\":873:878   */\n  0x00\n    /* \"#utility.yul\":922:925   */\n  dup3\n    /* \"#utility.yul\":915:919   */\n  0x1f\n    /* \"#utility.yul\":907:913   */\n  dup4\n    /* \"#utility.yul\":903:920   */\n  add\n    /* \"#utility.yul\":899:926   */\n  slt\n    /* \"#utility.yul\":889:1011   */\n  tag_33\n  jumpi\n    /* \"#utility.yul\":930:1009   */\n  tag_34\n  tag_35\n  jump\t// in\ntag_34:\n    /* \"#utility.yul\":889:1011   */\ntag_33:\n    /* \"#utility.yul\":1040:1046   */\n  dup2\n    /* \"#utility.yul\":1034:1047   */\n  mload\n    /* \"#utility.yul\":1065:1170   */\n  tag_36\n    /* \"#utility.yul\":1166:1169   */\n  dup5\n    /* \"#utility.yul\":1158:1164   */\n  dup3\n    /* \"#utility.yul\":1151:1155   */\n  0x20\n    /* \"#utility.yul\":1143:1149   */\n  dup7\n    /* \"#utility.yul\":1139:1156   */\n  add\n    /* \"#utility.yul\":1065:1170   */\n  tag_17\n  jump\t// in\ntag_36:\n    /* \"#utility.yul\":1056:1170   */\n  swap2\n  pop\n    /* \"#utility.yul\":879:1176   */\n  pop\n    /* \"#utility.yul\":791:1176   */\n  swap3\n  swap2\n  pop\n  pop\n  jump\t// out\n    /* \"#utility.yul\":1182:1325   */\ntag_30:\n    /* \"#utility.yul\":1239:1244   */\n  0x00\n    /* \"#utility.yul\":1270:1276   */\n  dup2\n    /* \"#utility.yul\":1264:1277   */\n  mload\n    /* \"#utility.yul\":1255:1277   */\n  swap1\n  pop\n    /* \"#utility.yul\":1286:1319   */\n  tag_38\n    /* \"#utility.yul\":1313:1318   */\n  dup2\n    /* \"#utility.yul\":1286:1319   */\n  tag_39\n  jump\t// in\ntag_38:\n    /* \"#utility.yul\":1182:1325   */\n  swap3\n  swap2\n  pop\n  pop\n  jump\t// out\n    /* \"#utility.yul\":1331:1885   */\ntag_3:\n    /* \"#utility.yul\":1426:1432   */\n  0x00\n    /* \"#utility.yul\":1475:1477   */\n  0x20\n    /* \"#utility.yul\":1463:1472   */\n  dup3\n    /* \"#utility.yul\":1454:1461   */\n  dup5\n    /* \"#utility.yul\":1450:1473   */\n  sub\n    /* \"#utility.yul\":1446:1478   */\n  slt\n    /* \"#utility.yul\":1443:1562   */\n  iszero\n  tag_41\n  jumpi\n    /* \"#utility.yul\":1481:1560   */\n  tag_42\n  tag_43\n  jump\t// in\ntag_42:\n    /* \"#utility.yul\":1443:1562   */\ntag_41:\n    /* \"#utility.yul\":1622:1623   */\n  0x00\n    /* \"#utility.yul\":1611:1620   */\n  dup3\n    /* \"#utility.yul\":1607:1624   */\n  add\n    /* \"#utility.yul\":1601:1625   */\n  mload\n    /* \"#utility.yul\":1652:1670   */\n  0xffffffffffffffff\n    /* \"#utility.yul\":1644:1650   */\n  dup2\n    /* \"#utility.yul\":1641:1671   */\n  gt\n    /* \"#utility.yul\":1638:1755   */\n  iszero\n  tag_44\n  jumpi\n    /* \"#utility.yul\":1674:1753   */\n  tag_45\n  tag_46\n  jump\t// in\ntag_45:\n    /* \"#utility.yul\":1638:1755   */\ntag_44:\n    /* \"#utility.yul\":1779:1868   */\n  tag_47\n    /* \"#utility.yul\":1860:1867   */\n  dup5\n    /* \"#utility.yul\":1851:1857   */\n  dup3\n    /* \"#utility.yul\":1840:1849   */\n  dup6\n    /* \"#utility.yul\":1836:1858   */\n  add\n    /* \"#utility.yul\":1779:1868   */\n  tag_31\n  jump\t// in\ntag_47:\n    /* \"#utility.yul\":1769:1868   */\n  swap2\n  pop\n    /* \"#utility.yul\":1572:1878   */\n  pop\n    /* \"#utility.yul\":1331:1885   */\n  swap3\n  swap2\n  pop\n  pop\n  jump\t// out\n    /* \"#utility.yul\":1891:2020   */\ntag_22:\n    /* \"#utility.yul\":1925:1931   */\n  0x00\n    /* \"#utility.yul\":1952:1972   */\n  tag_49\n  tag_50\n  jump\t// in\ntag_49:\n    /* \"#utility.yul\":1942:1972   */\n  swap1\n  pop\n    /* \"#utility.yul\":1981:2014   */\n  tag_51\n    /* \"#utility.yul\":2009:2013   */\n  dup3\n    /* \"#utility.yul\":2001:2007   */\n  dup3\n    /* \"#utility.yul\":1981:2014   */\n  tag_52\n  jump\t// in\ntag_51:\n    /* \"#utility.yul\":1891:2020   */\n  swap2\n  swap1\n  pop\n  jump\t// out\n    /* \"#utility.yul\":2026:2101   */\ntag_50:\n    /* \"#utility.yul\":2059:2065   */\n  0x00\n    /* \"#utility.yul\":2092:2094   */\n  0x40\n    /* \"#utility.yul\":2086:2095   */\n  mload\n    /* \"#utility.yul\":2076:2095   */\n  swap1\n  pop\n    /* \"#utility.yul\":2026:2101   */\n  swap1\n  jump\t// out\n    /* \"#utility.yul\":2107:2418   */\ntag_21:\n    /* \"#utility.yul\":2184:2188   */\n  0x00\n    /* \"#utility.yul\":2274:2292   */\n  0xffffffffffffffff\n    /* \"#utility.yul\":2266:2272   */\n  dup3\n    /* \"#utility.yul\":2263:2293   */\n  gt\n    /* \"#utility.yul\":2260:2316   */\n  iszero\n  tag_55\n  jumpi\n    /* \"#utility.yul\":2296:2314   */\n  tag_56\n  tag_57\n  jump\t// in\ntag_56:\n    /* \"#utility.yul\":2260:2316   */\ntag_55:\n    /* \"#utility.yul\":2346:2350   */\n  0x20\n    /* \"#utility.yul\":2338:2344   */\n  dup3\n    /* \"#utility.yul\":2334:2351   */\n  mul\n    /* \"#utility.yul\":2326:2351   */\n  swap1\n  pop\n    /* \"#utility.yul\":2406:2410   */\n  0x20\n    /* \"#utility.yul\":2400:2404   */\n  dup2\n    /* \"#utility.yul\":2396:2411   */\n  add\n    /* \"#utility.yul\":2388:2411   */\n  swap1\n  pop\n    /* \"#utility.yul\":2107:2418   */\n  swap2\n  swap1\n  pop\n  jump\t// out\n    /* \"#utility.yul\":2424:2501   */\ntag_58:\n    /* \"#utility.yul\":2461:2468   */\n  0x00\n    /* \"#utility.yul\":2490:2495   */\n  dup2\n    /* \"#utility.yul\":2479:2495   */\n  swap1\n  pop\n    /* \"#utility.yul\":2424:2501   */\n  swap2\n  swap1\n  pop\n  jump\t// out\n    /* \"#utility.yul\":2507:2584   */\ntag_60:\n    /* \"#utility.yul\":2544:2551   */\n  0x00\n    /* \"#utility.yul\":2573:2578   */\n  dup2\n    /* \"#utility.yul\":2562:2578   */\n  swap1\n  pop\n    /* \"#utility.yul\":2507:2584   */\n  swap2\n  swap1\n  pop\n  jump\t// out\n    /* \"#utility.yul\":2590:2871   */\ntag_52:\n    /* \"#utility.yul\":2673:2700   */\n  tag_63\n    /* \"#utility.yul\":2695:2699   */\n  dup3\n    /* \"#utility.yul\":2673:2700   */\n  tag_64\n  jump\t// in\ntag_63:\n    /* \"#utility.yul\":2665:2671   */\n  dup2\n    /* \"#utility.yul\":2661:2701   */\n  add\n    /* \"#utility.yul\":2803:2809   */\n  dup2\n    /* \"#utility.yul\":2791:2801   */\n  dup2\n    /* \"#utility.yul\":2788:2810   */\n  lt\n    /* \"#utility.yul\":2767:2785   */\n  0xffffffffffffffff\n    /* \"#utility.yul\":2755:2765   */\n  dup3\n    /* \"#utility.yul\":2752:2786   */\n  gt\n    /* \"#utility.yul\":2749:2811   */\n  or\n    /* \"#utility.yul\":2746:2834   */\n  iszero\n  tag_65\n  jumpi\n    /* \"#utility.yul\":2814:2832   */\n  tag_66\n  tag_57\n  jump\t// in\ntag_66:\n    /* \"#utility.yul\":2746:2834   */\ntag_65:\n    /* \"#utility.yul\":2854:2864   */\n  dup1\n    /* \"#utility.yul\":2850:2852   */\n  0x40\n    /* \"#utility.yul\":2843:2865   */\n  mstore\n    /* \"#utility.yul\":2633:2871   */\n  pop\n    /* \"#utility.yul\":2590:2871   */\n  pop\n  pop\n  jump\t// out\n    /* \"#utility.yul\":2877:3110   */\ntag_14:\n    /* \"#utility.yul\":2916:2919   */\n  0x00\n    /* \"#utility.yul\":2939:2963   */\n  tag_68\n    /* \"#utility.yul\":2957:2962   */\n  dup3\n    /* \"#utility.yul\":2939:2963   */\n  tag_60\n  jump\t// in\ntag_68:\n    /* \"#utility.yul\":2930:2963   */\n  swap2\n  pop\n    /* \"#utility.yul\":2985:3051   */\n  0xffffffffffffffffffffffffffffffffffffffffffffffffffffffffffffffff\n    /* \"#utility.yul\":2978:2983   */\n  dup3\n    /* \"#utility.yul\":2975:3052   */\n  eq\n    /* \"#utility.yul\":2972:3075   */\n  iszero\n  tag_69\n  jumpi\n    /* \"#utility.yul\":3055:3073   */\n  tag_70\n  tag_71\n  jump\t// in\ntag_70:\n    /* \"#utility.yul\":2972:3075   */\ntag_69:\n    /* \"#utility.yul\":3102:3103   */\n  0x01\n    /* \"#utility.yul\":3095:3100   */\n  dup3\n    /* \"#utility.yul\":3091:3104   */\n  add\n    /* \"#utility.yul\":3084:3104   */\n  swap1\n  pop\n    /* \"#utility.yul\":2877:3110   */\n  swap2\n  swap1\n  pop\n  jump\t// out\n    /* \"#utility.yul\":3116:3296   */\ntag_71:\n    /* \"#utility.yul\":3164:3241   */\n  0x4e487b7100000000000000000000000000000000000000000000000000000000\n    /* \"#utility.yul\":3161:3162   */\n  0x00\n    /* \"#utility.yul\":3154:3242   */\n  mstore\n    /* \"#utility.yul\":3261:3265   */\n  0x11\n    /* \"#utility.yul\":3258:3259   */\n  0x04\n    /* \"#utility.yul\":3251:3266   */\n  mstore\n    /* \"#utility.yul\":3285:3289   */\n  0x24\n    /* \"#utility.yul\":3282:3283   */\n  0x00\n    /* \"#utility.yul\":3275:3290   */\n  revert\n    /* \"#utility.yul\":3302:3482   */\ntag_11:\n    /* \"#utility.yul\":3350:3427   */\n  0x4e487b7100000000000000000000000000000000000000000000000000000000\n    /* \"#utility.yul\":3347:3348   */\n  0x00\n    /* \"#utility.yul\":3340:3428   */\n  mstore\n    /* \"#utility.yul\":3447:3451   */\n  0x32\n    /* \"#utility.yul\":3444:3445   */\n  0x04\n    /* \"#utility.yul\":3437:3452   */\n  mstore\n    /* \"#utility.yul\":3471:3475   */\n  0x24\n    /* \"#utility.yul\":3468:3469   */\n  0x00\n    /* \"#utility.yul\":3461:3476   */\n  revert\n    /* \"#utility.yul\":3488:3668   */\ntag_57:\n    /* \"#utility.yul\":3536:3613   */\n  0x4e487b7100000000000000000000000000000000000000000000000000000000\n    /* \"#utility.yul\":3533:3534   */\n  0x00\n    /* \"#utility.yul\":3526:3614   */\n  mstore\n    /* \"#utility.yul\":3633:3637   */\n  0x41\n    /* \"#utility.yul\":3630:3631   */\n  0x04\n    /* \"#utility.yul\":3623:3638   */\n  mstore\n    /* \"#utility.yul\":3657:3661   */\n  0x24\n    /* \"#utility.yul\":3654:3655   */\n  0x00\n    /* \"#utility.yul\":3647:3662   */\n  revert\n    /* \"#utility.yul\":3674:3791   */\ntag_35:\n    /* \"#utility.yul\":3783:3784   */\n  0x00\n    /* \"#utility.yul\":3780:3781   */\n  dup1\n    /* \"#utility.yul\":3773:3785   */\n  revert\n    /* \"#utility.yul\":3797:3914   */\ntag_25:\n    /* \"#utility.yul\":3906:3907   */\n  0x00\n    /* \"#utility.yul\":3903:3904   */\n  dup1\n    /* \"#utility.yul\":3896:3908   */\n  revert\n    /* \"#utility.yul\":3920:4037   */\ntag_46:\n    /* \"#utility.yul\":4029:4030   */\n  0x00\n    /* \"#utility.yul\":4026:4027   */\n  dup1\n    /* \"#utility.yul\":4019:4031   */\n  revert\n    /* \"#utility.yul\":4043:4160   */\ntag_43:\n    /* \"#utility.yul\":4152:4153   */\n  0x00\n    /* \"#utility.yul\":4149:4150   */\n  dup1\n    /* \"#utility.yul\":4142:4154   */\n  revert\n    /* \"#utility.yul\":4166:4268   */\ntag_64:\n    /* \"#utility.yul\":4207:4213   */\n  0x00\n    /* \"#utility.yul\":4258:4260   */\n  0x1f\n    /* \"#utility.yul\":4254:4261   */\n  not\n    /* \"#utility.yul\":4249:4251   */\n  0x1f\n    /* \"#utility.yul\":4242:4247   */\n  dup4\n    /* \"#utility.yul\":4238:4252   */\n  add\n    /* \"#utility.yul\":4234:4262   */\n  and\n    /* \"#utility.yul\":4224:4262   */\n  swap1\n  pop\n    /* \"#utility.yul\":4166:4268   */\n  swap2\n  swap1\n  pop\n  jump\t// out\n    /* \"#utility.yul\":4274:4396   */\ntag_39:\n    /* \"#utility.yul\":4347:4371   */\n  tag_81\n    /* \"#utility.yul\":4365:4370   */\n  dup2\n    /* \"#utility.yul\":4347:4371   */\n  tag_58\n  jump\t// in\ntag_81:\n    /* \"#utility.yul\":4340:4345   */\n  dup2\n    /* \"#utility.yul\":4337:4372   */\n  eq\n    /* \"#utility.yul\":4327:4390   */\n  tag_82\n  jumpi\n    /* \"#utility.yul\":4386:4387   */\n  0x00\n    /* \"#utility.yul\":4383:4384   */\n  dup1\n    /* \"#utility.yul\":4376:4388   */\n  revert\n    /* \"#utility.yul\":4327:4390   */\ntag_82:\n    /* \"#utility.yul\":4274:4396   */\n  pop\n  jump\t// out\n    /* \"contracts/3_Ballot.sol\":70:2548  contract Vote {... */\ntag_15:\n  dataSize(sub_0)\n  dup1\n  dataOffset(sub_0)\n  0x00\n  codecopy\n  0x00\n  return\nstop\n\nsub_0: assembly {\n        /* \"contracts/3_Ballot.sol\":70:2548  contract Vote {... */\n      mstore(0x40, 0x80)\n      callvalue\n      dup1\n      iszero\n      tag_1\n      jumpi\n      0x00\n      dup1\n      revert\n    tag_1:\n      pop\n      jumpi(tag_2, lt(calldatasize, 0x04))\n      shr(0xe0, calldataload(0x00))\n      dup1\n      0x87f7b975\n      gt\n      tag_10\n      jumpi\n      dup1\n      0x87f7b975\n      eq\n      tag_6\n      jumpi\n      dup1\n      0x9e7b8d61\n      eq\n      tag_7\n      jumpi\n      dup1\n      0xb81c6453\n      eq\n      tag_8\n      jumpi\n      dup1\n      0xd107d8c2\n      eq\n      tag_9\n      jumpi\n      jump(tag_2)\n    tag_10:\n      dup1\n      0x013cf08b\n      eq\n      tag_3\n      jumpi\n      dup1\n      0x5d3f0ae9\n      eq\n      tag_4\n      jumpi\n      dup1\n      0x72133c96\n      eq\n      tag_5\n      jumpi\n    tag_2:\n      0x00\n      dup1\n      revert\n        /* \"contracts/3_Ballot.sol\":294:321  Proposal[] public proposals */\n    tag_3:\n      tag_11\n      0x04\n      dup1\n      calldatasize\n      sub\n      dup2\n      add\n      swap1\n      tag_12\n      swap2\n      swap1\n      tag_13\n      jump\t// in\n    tag_12:\n      tag_14\n      jump\t// in\n    tag_11:\n      mload(0x40)\n      tag_15\n      swap3\n      swap2\n      swap1\n      tag_16\n      jump\t// in\n    tag_15:\n      mload(0x40)\n      dup1\n      swap2\n      sub\n      swap1\n      return\n        /* \"contracts/3_Ballot.sol\":2371:2546  function finalWinnerName()... */\n    tag_4:\n      tag_17\n      tag_18\n      jump\t// in\n    tag_17:\n      mload(0x40)\n      tag_19\n      swap2\n      swap1\n      tag_20\n      jump\t// in\n    tag_19:\n      mload(0x40)\n      dup1\n      swap2\n      sub\n      swap1\n      return\n        /* \"contracts/3_Ballot.sol\":2020:2367  function proposalWinnerName() public view voteOpened returns (bytes32 _winnerName) {... */\n    tag_5:\n      tag_21\n      tag_22\n      jump\t// in\n    tag_21:\n      mload(0x40)\n      tag_23\n      swap2\n      swap1\n      tag_20\n      jump\t// in\n    tag_23:\n      mload(0x40)\n      dup1\n      swap2\n      sub\n      swap1\n      return\n        /* \"contracts/3_Ballot.sol\":326:349  address public chairman */\n    tag_6:\n      tag_24\n      tag_25\n      jump\t// in\n    tag_24:\n      mload(0x40)\n      tag_26\n      swap2\n      swap1\n      tag_27\n      jump\t// in\n    tag_26:\n      mload(0x40)\n      dup1\n      swap2\n      sub\n      swap1\n      return\n        /* \"contracts/3_Ballot.sol\":1568:1742  function giveRightToVote(address _voter)... */\n    tag_7:\n      tag_28\n      0x04\n      dup1\n      calldatasize\n      sub\n      dup2\n      add\n      swap1\n      tag_29\n      swap2\n      swap1\n      tag_30\n      jump\t// in\n    tag_29:\n      tag_31\n      jump\t// in\n    tag_28:\n      stop\n        /* \"contracts/3_Ballot.sol\":1746:2016  function vote(uint8 _proposalId, address _voter)... */\n    tag_8:\n      tag_32\n      0x04\n      dup1\n      calldatasize\n      sub\n      dup2\n      add\n      swap1\n      tag_33\n      swap2\n      swap1\n      tag_34\n      jump\t// in\n    tag_33:\n      tag_35\n      jump\t// in\n    tag_32:\n      stop\n        /* \"contracts/3_Ballot.sol\":354:381  bool public openVote = true */\n    tag_9:\n      tag_36\n      tag_37\n      jump\t// in\n    tag_36:\n      mload(0x40)\n      tag_38\n      swap2\n      swap1\n      tag_39\n      jump\t// in\n    tag_38:\n      mload(0x40)\n      dup1\n      swap2\n      sub\n      swap1\n      return\n        /* \"contracts/3_Ballot.sol\":294:321  Proposal[] public proposals */\n    tag_14:\n      0x01\n      dup2\n      dup2\n      sload\n      dup2\n      lt\n      tag_40\n      jumpi\n      0x00\n      dup1\n      revert\n    tag_40:\n      swap1\n      0x00\n      mstore\n      keccak256(0x00, 0x20)\n      swap1\n      0x02\n      mul\n      add\n      0x00\n      swap2\n      pop\n      swap1\n      pop\n      dup1\n      0x00\n      add\n      sload\n      swap1\n      dup1\n      0x01\n      add\n      sload\n      swap1\n      pop\n      dup3\n      jump\t// out\n        /* \"contracts/3_Ballot.sol\":2371:2546  function finalWinnerName()... */\n    tag_18:\n        /* \"contracts/3_Ballot.sol\":2456:2475  bytes32 _winnerName */\n      0x00\n        /* \"contracts/3_Ballot.sol\":872:882  msg.sender */\n      caller\n        /* \"contracts/3_Ballot.sol\":860:882  chairman == msg.sender */\n      0xffffffffffffffffffffffffffffffffffffffff\n      and\n        /* \"contracts/3_Ballot.sol\":860:868  chairman */\n      0x02\n      0x00\n      swap1\n      sload\n      swap1\n      0x0100\n      exp\n      swap1\n      div\n      0xffffffffffffffffffffffffffffffffffffffff\n      and\n        /* \"contracts/3_Ballot.sol\":860:882  chairman == msg.sender */\n      0xffffffffffffffffffffffffffffffffffffffff\n      and\n      eq\n        /* \"contracts/3_Ballot.sol\":852:927  require(chairman == msg.sender, \"Only chairperson can give right to vote.\") */\n      tag_43\n      jumpi\n      mload(0x40)\n      0x08c379a000000000000000000000000000000000000000000000000000000000\n      dup2\n      mstore\n      0x04\n      add\n      tag_44\n      swap1\n      tag_45\n      jump\t// in\n    tag_44:\n      mload(0x40)\n      dup1\n      swap2\n      sub\n      swap1\n      revert\n    tag_43:\n        /* \"contracts/3_Ballot.sol\":991:995  true */\n      0x01\n        /* \"contracts/3_Ballot.sol\":979:995  openVote == true */\n      iszero\n      iszero\n        /* \"contracts/3_Ballot.sol\":979:987  openVote */\n      0x02\n      0x14\n      swap1\n      sload\n      swap1\n      0x0100\n      exp\n      swap1\n      div\n      0xff\n      and\n        /* \"contracts/3_Ballot.sol\":979:995  openVote == true */\n      iszero\n      iszero\n      eq\n        /* \"contracts/3_Ballot.sol\":971:1017  require(openVote == true, \"Votes are closed.\") */\n      tag_47\n      jumpi\n      mload(0x40)\n      0x08c379a000000000000000000000000000000000000000000000000000000000\n      dup2\n      mstore\n      0x04\n      add\n      tag_48\n      swap1\n      tag_49\n      jump\t// in\n    tag_48:\n      mload(0x40)\n      dup1\n      swap2\n      sub\n      swap1\n      revert\n    tag_47:\n        /* \"contracts/3_Ballot.sol\":2496:2501  false */\n      0x00\n        /* \"contracts/3_Ballot.sol\":2485:2493  openVote */\n      0x02\n      0x14\n        /* \"contracts/3_Ballot.sol\":2485:2501  openVote = false */\n      0x0100\n      exp\n      dup2\n      sload\n      dup2\n      0xff\n      mul\n      not\n      and\n      swap1\n      dup4\n      iszero\n      iszero\n      mul\n      or\n      swap1\n      sstore\n      pop\n        /* \"contracts/3_Ballot.sol\":2521:2541  proposalWinnerName() */\n      tag_51\n        /* \"contracts/3_Ballot.sol\":2521:2539  proposalWinnerName */\n      tag_22\n        /* \"contracts/3_Ballot.sol\":2521:2541  proposalWinnerName() */\n      jump\t// in\n    tag_51:\n        /* \"contracts/3_Ballot.sol\":2507:2541  _winnerName = proposalWinnerName() */\n      swap1\n      pop\n        /* \"contracts/3_Ballot.sol\":2371:2546  function finalWinnerName()... */\n      swap1\n      jump\t// out\n        /* \"contracts/3_Ballot.sol\":2020:2367  function proposalWinnerName() public view voteOpened returns (bytes32 _winnerName) {... */\n    tag_22:\n        /* \"contracts/3_Ballot.sol\":2082:2101  bytes32 _winnerName */\n      0x00\n        /* \"contracts/3_Ballot.sol\":991:995  true */\n      0x01\n        /* \"contracts/3_Ballot.sol\":979:995  openVote == true */\n      iszero\n      iszero\n        /* \"contracts/3_Ballot.sol\":979:987  openVote */\n      0x02\n      0x14\n      swap1\n      sload\n      swap1\n      0x0100\n      exp\n      swap1\n      div\n      0xff\n      and\n        /* \"contracts/3_Ballot.sol\":979:995  openVote == true */\n      iszero\n      iszero\n      eq\n        /* \"contracts/3_Ballot.sol\":971:1017  require(openVote == true, \"Votes are closed.\") */\n      tag_53\n      jumpi\n      mload(0x40)\n      0x08c379a000000000000000000000000000000000000000000000000000000000\n      dup2\n      mstore\n      0x04\n      add\n      tag_54\n      swap1\n      tag_49\n      jump\t// in\n    tag_54:\n      mload(0x40)\n      dup1\n      swap2\n      sub\n      swap1\n      revert\n    tag_53:\n        /* \"contracts/3_Ballot.sol\":2109:2137  uint256 _numberOfWinnerVotes */\n      0x00\n        /* \"contracts/3_Ballot.sol\":2153:2160  uint8 i */\n      dup1\n        /* \"contracts/3_Ballot.sol\":2148:2363  for (uint8 i = 0; i < proposals.length; i++) {... */\n    tag_56:\n        /* \"contracts/3_Ballot.sol\":2170:2179  proposals */\n      0x01\n        /* \"contracts/3_Ballot.sol\":2170:2186  proposals.length */\n      dup1\n      sload\n      swap1\n      pop\n        /* \"contracts/3_Ballot.sol\":2166:2167  i */\n      dup2\n        /* \"contracts/3_Ballot.sol\":2166:2186  i < proposals.length */\n      0xff\n      and\n      lt\n        /* \"contracts/3_Ballot.sol\":2148:2363  for (uint8 i = 0; i < proposals.length; i++) {... */\n      iszero\n      tag_57\n      jumpi\n        /* \"contracts/3_Ballot.sol\":2230:2250  _numberOfWinnerVotes */\n      dup2\n        /* \"contracts/3_Ballot.sol\":2205:2214  proposals */\n      0x01\n        /* \"contracts/3_Ballot.sol\":2215:2216  i */\n      dup3\n        /* \"contracts/3_Ballot.sol\":2205:2217  proposals[i] */\n      0xff\n      and\n      dup2\n      sload\n      dup2\n      lt\n      tag_59\n      jumpi\n      tag_60\n      tag_61\n      jump\t// in\n    tag_60:\n    tag_59:\n      swap1\n      0x00\n      mstore\n      keccak256(0x00, 0x20)\n      swap1\n      0x02\n      mul\n      add\n        /* \"contracts/3_Ballot.sol\":2205:2227  proposals[i].voteCount */\n      0x01\n      add\n      sload\n        /* \"contracts/3_Ballot.sol\":2205:2250  proposals[i].voteCount > _numberOfWinnerVotes */\n      gt\n        /* \"contracts/3_Ballot.sol\":2201:2357  if (proposals[i].voteCount > _numberOfWinnerVotes) {... */\n      iszero\n      tag_63\n      jumpi\n        /* \"contracts/3_Ballot.sol\":2276:2285  proposals */\n      0x01\n        /* \"contracts/3_Ballot.sol\":2286:2287  i */\n      dup2\n        /* \"contracts/3_Ballot.sol\":2276:2288  proposals[i] */\n      0xff\n      and\n      dup2\n      sload\n      dup2\n      lt\n      tag_64\n      jumpi\n      tag_65\n      tag_61\n      jump\t// in\n    tag_65:\n    tag_64:\n      swap1\n      0x00\n      mstore\n      keccak256(0x00, 0x20)\n      swap1\n      0x02\n      mul\n      add\n        /* \"contracts/3_Ballot.sol\":2276:2293  proposals[i].name */\n      0x00\n      add\n      sload\n        /* \"contracts/3_Ballot.sol\":2262:2293  _winnerName = proposals[i].name */\n      swap3\n      pop\n        /* \"contracts/3_Ballot.sol\":2326:2335  proposals */\n      0x01\n        /* \"contracts/3_Ballot.sol\":2336:2337  i */\n      dup2\n        /* \"contracts/3_Ballot.sol\":2326:2338  proposals[i] */\n      0xff\n      and\n      dup2\n      sload\n      dup2\n      lt\n      tag_67\n      jumpi\n      tag_68\n      tag_61\n      jump\t// in\n    tag_68:\n    tag_67:\n      swap1\n      0x00\n      mstore\n      keccak256(0x00, 0x20)\n      swap1\n      0x02\n      mul\n      add\n        /* \"contracts/3_Ballot.sol\":2326:2348  proposals[i].voteCount */\n      0x01\n      add\n      sload\n        /* \"contracts/3_Ballot.sol\":2303:2348  _numberOfWinnerVotes = proposals[i].voteCount */\n      swap2\n      pop\n        /* \"contracts/3_Ballot.sol\":2201:2357  if (proposals[i].voteCount > _numberOfWinnerVotes) {... */\n    tag_63:\n        /* \"contracts/3_Ballot.sol\":2188:2191  i++ */\n      dup1\n      dup1\n      tag_70\n      swap1\n      tag_71\n      jump\t// in\n    tag_70:\n      swap2\n      pop\n      pop\n        /* \"contracts/3_Ballot.sol\":2148:2363  for (uint8 i = 0; i < proposals.length; i++) {... */\n      jump(tag_56)\n    tag_57:\n      pop\n        /* \"contracts/3_Ballot.sol\":2103:2367  {... */\n      pop\n        /* \"contracts/3_Ballot.sol\":2020:2367  function proposalWinnerName() public view voteOpened returns (bytes32 _winnerName) {... */\n      swap1\n      jump\t// out\n        /* \"contracts/3_Ballot.sol\":326:349  address public chairman */\n    tag_25:\n      0x02\n      0x00\n      swap1\n      sload\n      swap1\n      0x0100\n      exp\n      swap1\n      div\n      0xffffffffffffffffffffffffffffffffffffffff\n      and\n      dup2\n      jump\t// out\n        /* \"contracts/3_Ballot.sol\":1568:1742  function giveRightToVote(address _voter)... */\n    tag_31:\n        /* \"contracts/3_Ballot.sol\":872:882  msg.sender */\n      caller\n        /* \"contracts/3_Ballot.sol\":860:882  chairman == msg.sender */\n      0xffffffffffffffffffffffffffffffffffffffff\n      and\n        /* \"contracts/3_Ballot.sol\":860:868  chairman */\n      0x02\n      0x00\n      swap1\n      sload\n      swap1\n      0x0100\n      exp\n      swap1\n      div\n      0xffffffffffffffffffffffffffffffffffffffff\n      and\n        /* \"contracts/3_Ballot.sol\":860:882  chairman == msg.sender */\n      0xffffffffffffffffffffffffffffffffffffffff\n      and\n      eq\n        /* \"contracts/3_Ballot.sol\":852:927  require(chairman == msg.sender, \"Only chairperson can give right to vote.\") */\n      tag_73\n      jumpi\n      mload(0x40)\n      0x08c379a000000000000000000000000000000000000000000000000000000000\n      dup2\n      mstore\n      0x04\n      add\n      tag_74\n      swap1\n      tag_45\n      jump\t// in\n    tag_74:\n      mload(0x40)\n      dup1\n      swap2\n      sub\n      swap1\n      revert\n    tag_73:\n        /* \"contracts/3_Ballot.sol\":991:995  true */\n      0x01\n        /* \"contracts/3_Ballot.sol\":979:995  openVote == true */\n      iszero\n      iszero\n        /* \"contracts/3_Ballot.sol\":979:987  openVote */\n      0x02\n      0x14\n      swap1\n      sload\n      swap1\n      0x0100\n      exp\n      swap1\n      div\n      0xff\n      and\n        /* \"contracts/3_Ballot.sol\":979:995  openVote == true */\n      iszero\n      iszero\n      eq\n        /* \"contracts/3_Ballot.sol\":971:1017  require(openVote == true, \"Votes are closed.\") */\n      tag_76\n      jumpi\n      mload(0x40)\n      0x08c379a000000000000000000000000000000000000000000000000000000000\n      dup2\n      mstore\n      0x04\n      add\n      tag_77\n      swap1\n      tag_49\n      jump\t// in\n    tag_77:\n      mload(0x40)\n      dup1\n      swap2\n      sub\n      swap1\n      revert\n    tag_76:\n        /* \"contracts/3_Ballot.sol\":1670:1676  _voter */\n      dup1\n        /* \"contracts/3_Ballot.sol\":1085:1091  voters */\n      0x00\n        /* \"contracts/3_Ballot.sol\":1085:1099  voters[_voter] */\n      dup1\n        /* \"contracts/3_Ballot.sol\":1092:1098  _voter */\n      dup3\n        /* \"contracts/3_Ballot.sol\":1085:1099  voters[_voter] */\n      0xffffffffffffffffffffffffffffffffffffffff\n      and\n      0xffffffffffffffffffffffffffffffffffffffff\n      and\n      dup2\n      mstore\n      0x20\n      add\n      swap1\n      dup2\n      mstore\n      0x20\n      add\n      0x00\n      keccak256\n        /* \"contracts/3_Ballot.sol\":1085:1105  voters[_voter].voted */\n      0x00\n      add\n      0x00\n      swap1\n      sload\n      swap1\n      0x0100\n      exp\n      swap1\n      div\n      0xff\n      and\n        /* \"contracts/3_Ballot.sol\":1084:1105  !voters[_voter].voted */\n      iszero\n        /* \"contracts/3_Ballot.sol\":1076:1134  require(!voters[_voter].voted, \"The voter already voted.\") */\n      tag_79\n      jumpi\n      mload(0x40)\n      0x08c379a000000000000000000000000000000000000000000000000000000000\n      dup2\n      mstore\n      0x04\n      add\n      tag_80\n      swap1\n      tag_81\n      jump\t// in\n    tag_80:\n      mload(0x40)\n      dup1\n      swap2\n      sub\n      swap1\n      revert\n    tag_79:\n        /* \"contracts/3_Ballot.sol\":1696:1702  _voter */\n      dup2\n        /* \"contracts/3_Ballot.sol\":1228:1229  0 */\n      0x00\n        /* \"contracts/3_Ballot.sol\":1203:1209  voters */\n      dup1\n        /* \"contracts/3_Ballot.sol\":1203:1217  voters[_voter] */\n      0x00\n        /* \"contracts/3_Ballot.sol\":1210:1216  _voter */\n      dup4\n        /* \"contracts/3_Ballot.sol\":1203:1217  voters[_voter] */\n      0xffffffffffffffffffffffffffffffffffffffff\n      and\n      0xffffffffffffffffffffffffffffffffffffffff\n      and\n      dup2\n      mstore\n      0x20\n      add\n      swap1\n      dup2\n      mstore\n      0x20\n      add\n      0x00\n      keccak256\n        /* \"contracts/3_Ballot.sol\":1203:1224  voters[_voter].weight */\n      0x00\n      add\n      0x02\n      swap1\n      sload\n      swap1\n      0x0100\n      exp\n      swap1\n      div\n      0xffffffff\n      and\n        /* \"contracts/3_Ballot.sol\":1203:1229  voters[_voter].weight == 0 */\n      0xffffffff\n      and\n      eq\n        /* \"contracts/3_Ballot.sol\":1195:1267  require(voters[_voter].weight == 0, \"You have already a right to vote.\") */\n      tag_83\n      jumpi\n      mload(0x40)\n      0x08c379a000000000000000000000000000000000000000000000000000000000\n      dup2\n      mstore\n      0x04\n      add\n      tag_84\n      swap1\n      tag_85\n      jump\t// in\n    tag_84:\n      mload(0x40)\n      dup1\n      swap2\n      sub\n      swap1\n      revert\n    tag_83:\n        /* \"contracts/3_Ballot.sol\":1736:1737  1 */\n      0x01\n        /* \"contracts/3_Ballot.sol\":1712:1718  voters */\n      0x00\n        /* \"contracts/3_Ballot.sol\":1712:1726  voters[_voter] */\n      dup1\n        /* \"contracts/3_Ballot.sol\":1719:1725  _voter */\n      dup6\n        /* \"contracts/3_Ballot.sol\":1712:1726  voters[_voter] */\n      0xffffffffffffffffffffffffffffffffffffffff\n      and\n      0xffffffffffffffffffffffffffffffffffffffff\n      and\n      dup2\n      mstore\n      0x20\n      add\n      swap1\n      dup2\n      mstore\n      0x20\n      add\n      0x00\n      keccak256\n        /* \"contracts/3_Ballot.sol\":1712:1733  voters[_voter].weight */\n      0x00\n      add\n      0x02\n        /* \"contracts/3_Ballot.sol\":1712:1737  voters[_voter].weight = 1 */\n      0x0100\n      exp\n      dup2\n      sload\n      dup2\n      0xffffffff\n      mul\n      not\n      and\n      swap1\n      dup4\n      0xffffffff\n      and\n      mul\n      or\n      swap1\n      sstore\n      pop\n        /* \"contracts/3_Ballot.sol\":1140:1141  _ */\n      pop\n        /* \"contracts/3_Ballot.sol\":1023:1024  _ */\n      pop\n        /* \"contracts/3_Ballot.sol\":1568:1742  function giveRightToVote(address _voter)... */\n      pop\n      jump\t// out\n        /* \"contracts/3_Ballot.sol\":1746:2016  function vote(uint8 _proposalId, address _voter)... */\n    tag_35:\n        /* \"contracts/3_Ballot.sol\":991:995  true */\n      0x01\n        /* \"contracts/3_Ballot.sol\":979:995  openVote == true */\n      iszero\n      iszero\n        /* \"contracts/3_Ballot.sol\":979:987  openVote */\n      0x02\n      0x14\n      swap1\n      sload\n      swap1\n      0x0100\n      exp\n      swap1\n      div\n      0xff\n      and\n        /* \"contracts/3_Ballot.sol\":979:995  openVote == true */\n      iszero\n      iszero\n      eq\n        /* \"contracts/3_Ballot.sol\":971:1017  require(openVote == true, \"Votes are closed.\") */\n      tag_88\n      jumpi\n      mload(0x40)\n      0x08c379a000000000000000000000000000000000000000000000000000000000\n      dup2\n      mstore\n      0x04\n      add\n      tag_89\n      swap1\n      tag_49\n      jump\t// in\n    tag_89:\n      mload(0x40)\n      dup1\n      swap2\n      sub\n      swap1\n      revert\n    tag_88:\n        /* \"contracts/3_Ballot.sol\":1837:1843  _voter */\n      dup1\n        /* \"contracts/3_Ballot.sol\":1480:1490  msg.sender */\n      caller\n        /* \"contracts/3_Ballot.sol\":1470:1490  _voter == msg.sender */\n      0xffffffffffffffffffffffffffffffffffffffff\n      and\n        /* \"contracts/3_Ballot.sol\":1470:1476  _voter */\n      dup2\n        /* \"contracts/3_Ballot.sol\":1470:1490  _voter == msg.sender */\n      0xffffffffffffffffffffffffffffffffffffffff\n      and\n      eq\n        /* \"contracts/3_Ballot.sol\":1455:1552  require(... */\n      tag_91\n      jumpi\n      mload(0x40)\n      0x08c379a000000000000000000000000000000000000000000000000000000000\n      dup2\n      mstore\n      0x04\n      add\n      tag_92\n      swap1\n      tag_93\n      jump\t// in\n    tag_92:\n      mload(0x40)\n      dup1\n      swap2\n      sub\n      swap1\n      revert\n    tag_91:\n        /* \"contracts/3_Ballot.sol\":1861:1867  _voter */\n      dup2\n        /* \"contracts/3_Ballot.sol\":1359:1360  0 */\n      0x00\n        /* \"contracts/3_Ballot.sol\":1334:1340  voters */\n      dup1\n        /* \"contracts/3_Ballot.sol\":1334:1348  voters[_voter] */\n      0x00\n        /* \"contracts/3_Ballot.sol\":1341:1347  _voter */\n      dup4\n        /* \"contracts/3_Ballot.sol\":1334:1348  voters[_voter] */\n      0xffffffffffffffffffffffffffffffffffffffff\n      and\n      0xffffffffffffffffffffffffffffffffffffffff\n      and\n      dup2\n      mstore\n      0x20\n      add\n      swap1\n      dup2\n      mstore\n      0x20\n      add\n      0x00\n      keccak256\n        /* \"contracts/3_Ballot.sol\":1334:1355  voters[_voter].weight */\n      0x00\n      add\n      0x02\n      swap1\n      sload\n      swap1\n      0x0100\n      exp\n      swap1\n      div\n      0xffffffff\n      and\n        /* \"contracts/3_Ballot.sol\":1334:1360  voters[_voter].weight != 0 */\n      0xffffffff\n      and\n      eq\n      iszero\n        /* \"contracts/3_Ballot.sol\":1326:1398  require(voters[_voter].weight != 0, \"You don't have the right to vote.\") */\n      tag_95\n      jumpi\n      mload(0x40)\n      0x08c379a000000000000000000000000000000000000000000000000000000000\n      dup2\n      mstore\n      0x04\n      add\n      tag_96\n      swap1\n      tag_97\n      jump\t// in\n    tag_96:\n      mload(0x40)\n      dup1\n      swap2\n      sub\n      swap1\n      revert\n    tag_95:\n        /* \"contracts/3_Ballot.sol\":1885:1891  _voter */\n      dup3\n        /* \"contracts/3_Ballot.sol\":1085:1091  voters */\n      0x00\n        /* \"contracts/3_Ballot.sol\":1085:1099  voters[_voter] */\n      dup1\n        /* \"contracts/3_Ballot.sol\":1092:1098  _voter */\n      dup3\n        /* \"contracts/3_Ballot.sol\":1085:1099  voters[_voter] */\n      0xffffffffffffffffffffffffffffffffffffffff\n      and\n      0xffffffffffffffffffffffffffffffffffffffff\n      and\n      dup2\n      mstore\n      0x20\n      add\n      swap1\n      dup2\n      mstore\n      0x20\n      add\n      0x00\n      keccak256\n        /* \"contracts/3_Ballot.sol\":1085:1105  voters[_voter].voted */\n      0x00\n      add\n      0x00\n      swap1\n      sload\n      swap1\n      0x0100\n      exp\n      swap1\n      div\n      0xff\n      and\n        /* \"contracts/3_Ballot.sol\":1084:1105  !voters[_voter].voted */\n      iszero\n        /* \"contracts/3_Ballot.sol\":1076:1134  require(!voters[_voter].voted, \"The voter already voted.\") */\n      tag_99\n      jumpi\n      mload(0x40)\n      0x08c379a000000000000000000000000000000000000000000000000000000000\n      dup2\n      mstore\n      0x04\n      add\n      tag_100\n      swap1\n      tag_81\n      jump\t// in\n    tag_100:\n      mload(0x40)\n      dup1\n      swap2\n      sub\n      swap1\n      revert\n    tag_99:\n        /* \"contracts/3_Ballot.sol\":1924:1928  true */\n      0x01\n        /* \"contracts/3_Ballot.sol\":1901:1907  voters */\n      0x00\n        /* \"contracts/3_Ballot.sol\":1901:1915  voters[_voter] */\n      dup1\n        /* \"contracts/3_Ballot.sol\":1908:1914  _voter */\n      dup7\n        /* \"contracts/3_Ballot.sol\":1901:1915  voters[_voter] */\n      0xffffffffffffffffffffffffffffffffffffffff\n      and\n      0xffffffffffffffffffffffffffffffffffffffff\n      and\n      dup2\n      mstore\n      0x20\n      add\n      swap1\n      dup2\n      mstore\n      0x20\n      add\n      0x00\n      keccak256\n        /* \"contracts/3_Ballot.sol\":1901:1921  voters[_voter].voted */\n      0x00\n      add\n      0x00\n        /* \"contracts/3_Ballot.sol\":1901:1928  voters[_voter].voted = true */\n      0x0100\n      exp\n      dup2\n      sload\n      dup2\n      0xff\n      mul\n      not\n      and\n      swap1\n      dup4\n      iszero\n      iszero\n      mul\n      or\n      swap1\n      sstore\n      pop\n        /* \"contracts/3_Ballot.sol\":1956:1967  _proposalId */\n      dup5\n        /* \"contracts/3_Ballot.sol\":1934:1940  voters */\n      0x00\n        /* \"contracts/3_Ballot.sol\":1934:1948  voters[_voter] */\n      dup1\n        /* \"contracts/3_Ballot.sol\":1941:1947  _voter */\n      dup7\n        /* \"contracts/3_Ballot.sol\":1934:1948  voters[_voter] */\n      0xffffffffffffffffffffffffffffffffffffffff\n      and\n      0xffffffffffffffffffffffffffffffffffffffff\n      and\n      dup2\n      mstore\n      0x20\n      add\n      swap1\n      dup2\n      mstore\n      0x20\n      add\n      0x00\n      keccak256\n        /* \"contracts/3_Ballot.sol\":1934:1953  voters[_voter].vote */\n      0x00\n      add\n      0x01\n        /* \"contracts/3_Ballot.sol\":1934:1967  voters[_voter].vote = _proposalId */\n      0x0100\n      exp\n      dup2\n      sload\n      dup2\n      0xff\n      mul\n      not\n      and\n      swap1\n      dup4\n      0xff\n      and\n      mul\n      or\n      swap1\n      sstore\n      pop\n        /* \"contracts/3_Ballot.sol\":2010:2011  1 */\n      0x01\n        /* \"contracts/3_Ballot.sol\":1974:1983  proposals */\n      dup1\n        /* \"contracts/3_Ballot.sol\":1984:1995  _proposalId */\n      dup7\n        /* \"contracts/3_Ballot.sol\":1974:1996  proposals[_proposalId] */\n      0xff\n      and\n      dup2\n      sload\n      dup2\n      lt\n      tag_102\n      jumpi\n      tag_103\n      tag_61\n      jump\t// in\n    tag_103:\n    tag_102:\n      swap1\n      0x00\n      mstore\n      keccak256(0x00, 0x20)\n      swap1\n      0x02\n      mul\n      add\n        /* \"contracts/3_Ballot.sol\":1974:2006  proposals[_proposalId].voteCount */\n      0x01\n      add\n      0x00\n        /* \"contracts/3_Ballot.sol\":1974:2011  proposals[_proposalId].voteCount += 1 */\n      dup3\n      dup3\n      sload\n      tag_105\n      swap2\n      swap1\n      tag_106\n      jump\t// in\n    tag_105:\n      swap3\n      pop\n      pop\n      dup2\n      swap1\n      sstore\n      pop\n        /* \"contracts/3_Ballot.sol\":1404:1405  _ */\n      pop\n        /* \"contracts/3_Ballot.sol\":1558:1559  _ */\n      pop\n        /* \"contracts/3_Ballot.sol\":1023:1024  _ */\n      pop\n        /* \"contracts/3_Ballot.sol\":1746:2016  function vote(uint8 _proposalId, address _voter)... */\n      pop\n      pop\n      jump\t// out\n        /* \"contracts/3_Ballot.sol\":354:381  bool public openVote = true */\n    tag_37:\n      0x02\n      0x14\n      swap1\n      sload\n      swap1\n      0x0100\n      exp\n      swap1\n      div\n      0xff\n      and\n      dup2\n      jump\t// out\n        /* \"#utility.yul\":7:146   */\n    tag_108:\n        /* \"#utility.yul\":53:58   */\n      0x00\n        /* \"#utility.yul\":91:97   */\n      dup2\n        /* \"#utility.yul\":78:98   */\n      calldataload\n        /* \"#utility.yul\":69:98   */\n      swap1\n      pop\n        /* \"#utility.yul\":107:140   */\n      tag_110\n        /* \"#utility.yul\":134:139   */\n      dup2\n        /* \"#utility.yul\":107:140   */\n      tag_111\n      jump\t// in\n    tag_110:\n        /* \"#utility.yul\":7:146   */\n      swap3\n      swap2\n      pop\n      pop\n      jump\t// out\n        /* \"#utility.yul\":152:291   */\n    tag_112:\n        /* \"#utility.yul\":198:203   */\n      0x00\n        /* \"#utility.yul\":236:242   */\n      dup2\n        /* \"#utility.yul\":223:243   */\n      calldataload\n        /* \"#utility.yul\":214:243   */\n      swap1\n      pop\n        /* \"#utility.yul\":252:285   */\n      tag_114\n        /* \"#utility.yul\":279:284   */\n      dup2\n        /* \"#utility.yul\":252:285   */\n      tag_115\n      jump\t// in\n    tag_114:\n        /* \"#utility.yul\":152:291   */\n      swap3\n      swap2\n      pop\n      pop\n      jump\t// out\n        /* \"#utility.yul\":297:432   */\n    tag_116:\n        /* \"#utility.yul\":341:346   */\n      0x00\n        /* \"#utility.yul\":379:385   */\n      dup2\n        /* \"#utility.yul\":366:386   */\n      calldataload\n        /* \"#utility.yul\":357:386   */\n      swap1\n      pop\n        /* \"#utility.yul\":395:426   */\n      tag_118\n        /* \"#utility.yul\":420:425   */\n      dup2\n        /* \"#utility.yul\":395:426   */\n      tag_119\n      jump\t// in\n    tag_118:\n        /* \"#utility.yul\":297:432   */\n      swap3\n      swap2\n      pop\n      pop\n      jump\t// out\n        /* \"#utility.yul\":438:767   */\n    tag_30:\n        /* \"#utility.yul\":497:503   */\n      0x00\n        /* \"#utility.yul\":546:548   */\n      0x20\n        /* \"#utility.yul\":534:543   */\n      dup3\n        /* \"#utility.yul\":525:532   */\n      dup5\n        /* \"#utility.yul\":521:544   */\n      sub\n        /* \"#utility.yul\":517:549   */\n      slt\n        /* \"#utility.yul\":514:633   */\n      iszero\n      tag_121\n      jumpi\n        /* \"#utility.yul\":552:631   */\n      tag_122\n      tag_123\n      jump\t// in\n    tag_122:\n        /* \"#utility.yul\":514:633   */\n    tag_121:\n        /* \"#utility.yul\":672:673   */\n      0x00\n        /* \"#utility.yul\":697:750   */\n      tag_124\n        /* \"#utility.yul\":742:749   */\n      dup5\n        /* \"#utility.yul\":733:739   */\n      dup3\n        /* \"#utility.yul\":722:731   */\n      dup6\n        /* \"#utility.yul\":718:740   */\n      add\n        /* \"#utility.yul\":697:750   */\n      tag_108\n      jump\t// in\n    tag_124:\n        /* \"#utility.yul\":687:750   */\n      swap2\n      pop\n        /* \"#utility.yul\":643:760   */\n      pop\n        /* \"#utility.yul\":438:767   */\n      swap3\n      swap2\n      pop\n      pop\n      jump\t// out\n        /* \"#utility.yul\":773:1102   */\n    tag_13:\n        /* \"#utility.yul\":832:838   */\n      0x00\n        /* \"#utility.yul\":881:883   */\n      0x20\n        /* \"#utility.yul\":869:878   */\n      dup3\n        /* \"#utility.yul\":860:867   */\n      dup5\n        /* \"#utility.yul\":856:879   */\n      sub\n        /* \"#utility.yul\":852:884   */\n      slt\n        /* \"#utility.yul\":849:968   */\n      iszero\n      tag_126\n      jumpi\n        /* \"#utility.yul\":887:966   */\n      tag_127\n      tag_123\n      jump\t// in\n    tag_127:\n        /* \"#utility.yul\":849:968   */\n    tag_126:\n        /* \"#utility.yul\":1007:1008   */\n      0x00\n        /* \"#utility.yul\":1032:1085   */\n      tag_128\n        /* \"#utility.yul\":1077:1084   */\n      dup5\n        /* \"#utility.yul\":1068:1074   */\n      dup3\n        /* \"#utility.yul\":1057:1066   */\n      dup6\n        /* \"#utility.yul\":1053:1075   */\n      add\n        /* \"#utility.yul\":1032:1085   */\n      tag_112\n      jump\t// in\n    tag_128:\n        /* \"#utility.yul\":1022:1085   */\n      swap2\n      pop\n        /* \"#utility.yul\":978:1095   */\n      pop\n        /* \"#utility.yul\":773:1102   */\n      swap3\n      swap2\n      pop\n      pop\n      jump\t// out\n        /* \"#utility.yul\":1108:1578   */\n    tag_34:\n        /* \"#utility.yul\":1174:1180   */\n      0x00\n        /* \"#utility.yul\":1182:1188   */\n      dup1\n        /* \"#utility.yul\":1231:1233   */\n      0x40\n        /* \"#utility.yul\":1219:1228   */\n      dup4\n        /* \"#utility.yul\":1210:1217   */\n      dup6\n        /* \"#utility.yul\":1206:1229   */\n      sub\n        /* \"#utility.yul\":1202:1234   */\n      slt\n        /* \"#utility.yul\":1199:1318   */\n      iszero\n      tag_130\n      jumpi\n        /* \"#utility.yul\":1237:1316   */\n      tag_131\n      tag_123\n      jump\t// in\n    tag_131:\n        /* \"#utility.yul\":1199:1318   */\n    tag_130:\n        /* \"#utility.yul\":1357:1358   */\n      0x00\n        /* \"#utility.yul\":1382:1433   */\n      tag_132\n        /* \"#utility.yul\":1425:1432   */\n      dup6\n        /* \"#utility.yul\":1416:1422   */\n      dup3\n        /* \"#utility.yul\":1405:1414   */\n      dup7\n        /* \"#utility.yul\":1401:1423   */\n      add\n        /* \"#utility.yul\":1382:1433   */\n      tag_116\n      jump\t// in\n    tag_132:\n        /* \"#utility.yul\":1372:1433   */\n      swap3\n      pop\n        /* \"#utility.yul\":1328:1443   */\n      pop\n        /* \"#utility.yul\":1482:1484   */\n      0x20\n        /* \"#utility.yul\":1508:1561   */\n      tag_133\n        /* \"#utility.yul\":1553:1560   */\n      dup6\n        /* \"#utility.yul\":1544:1550   */\n      dup3\n        /* \"#utility.yul\":1533:1542   */\n      dup7\n        /* \"#utility.yul\":1529:1551   */\n      add\n        /* \"#utility.yul\":1508:1561   */\n      tag_108\n      jump\t// in\n    tag_133:\n        /* \"#utility.yul\":1498:1561   */\n      swap2\n      pop\n        /* \"#utility.yul\":1453:1571   */\n      pop\n        /* \"#utility.yul\":1108:1578   */\n      swap3\n      pop\n      swap3\n      swap1\n      pop\n      jump\t// out\n        /* \"#utility.yul\":1584:1702   */\n    tag_134:\n        /* \"#utility.yul\":1671:1695   */\n      tag_136\n        /* \"#utility.yul\":1689:1694   */\n      dup2\n        /* \"#utility.yul\":1671:1695   */\n      tag_137\n      jump\t// in\n    tag_136:\n        /* \"#utility.yul\":1666:1669   */\n      dup3\n        /* \"#utility.yul\":1659:1696   */\n      mstore\n        /* \"#utility.yul\":1584:1702   */\n      pop\n      pop\n      jump\t// out\n        /* \"#utility.yul\":1708:1817   */\n    tag_138:\n        /* \"#utility.yul\":1789:1810   */\n      tag_140\n        /* \"#utility.yul\":1804:1809   */\n      dup2\n        /* \"#utility.yul\":1789:1810   */\n      tag_141\n      jump\t// in\n    tag_140:\n        /* \"#utility.yul\":1784:1787   */\n      dup3\n        /* \"#utility.yul\":1777:1811   */\n      mstore\n        /* \"#utility.yul\":1708:1817   */\n      pop\n      pop\n      jump\t// out\n        /* \"#utility.yul\":1823:1941   */\n    tag_142:\n        /* \"#utility.yul\":1910:1934   */\n      tag_144\n        /* \"#utility.yul\":1928:1933   */\n      dup2\n        /* \"#utility.yul\":1910:1934   */\n      tag_145\n      jump\t// in\n    tag_144:\n        /* \"#utility.yul\":1905:1908   */\n      dup3\n        /* \"#utility.yul\":1898:1935   */\n      mstore\n        /* \"#utility.yul\":1823:1941   */\n      pop\n      pop\n      jump\t// out\n        /* \"#utility.yul\":1947:2313   */\n    tag_146:\n        /* \"#utility.yul\":2089:2092   */\n      0x00\n        /* \"#utility.yul\":2110:2177   */\n      tag_148\n        /* \"#utility.yul\":2174:2176   */\n      0x11\n        /* \"#utility.yul\":2169:2172   */\n      dup4\n        /* \"#utility.yul\":2110:2177   */\n      tag_149\n      jump\t// in\n    tag_148:\n        /* \"#utility.yul\":2103:2177   */\n      swap2\n      pop\n        /* \"#utility.yul\":2186:2279   */\n      tag_150\n        /* \"#utility.yul\":2275:2278   */\n      dup3\n        /* \"#utility.yul\":2186:2279   */\n      tag_151\n      jump\t// in\n    tag_150:\n        /* \"#utility.yul\":2304:2306   */\n      0x20\n        /* \"#utility.yul\":2299:2302   */\n      dup3\n        /* \"#utility.yul\":2295:2307   */\n      add\n        /* \"#utility.yul\":2288:2307   */\n      swap1\n      pop\n        /* \"#utility.yul\":1947:2313   */\n      swap2\n      swap1\n      pop\n      jump\t// out\n        /* \"#utility.yul\":2319:2685   */\n    tag_152:\n        /* \"#utility.yul\":2461:2464   */\n      0x00\n        /* \"#utility.yul\":2482:2549   */\n      tag_154\n        /* \"#utility.yul\":2546:2548   */\n      0x21\n        /* \"#utility.yul\":2541:2544   */\n      dup4\n        /* \"#utility.yul\":2482:2549   */\n      tag_149\n      jump\t// in\n    tag_154:\n        /* \"#utility.yul\":2475:2549   */\n      swap2\n      pop\n        /* \"#utility.yul\":2558:2651   */\n      tag_155\n        /* \"#utility.yul\":2647:2650   */\n      dup3\n        /* \"#utility.yul\":2558:2651   */\n      tag_156\n      jump\t// in\n    tag_155:\n        /* \"#utility.yul\":2676:2678   */\n      0x40\n        /* \"#utility.yul\":2671:2674   */\n      dup3\n        /* \"#utility.yul\":2667:2679   */\n      add\n        /* \"#utility.yul\":2660:2679   */\n      swap1\n      pop\n        /* \"#utility.yul\":2319:2685   */\n      swap2\n      swap1\n      pop\n      jump\t// out\n        /* \"#utility.yul\":2691:3057   */\n    tag_157:\n        /* \"#utility.yul\":2833:2836   */\n      0x00\n        /* \"#utility.yul\":2854:2921   */\n      tag_159\n        /* \"#utility.yul\":2918:2920   */\n      0x28\n        /* \"#utility.yul\":2913:2916   */\n      dup4\n        /* \"#utility.yul\":2854:2921   */\n      tag_149\n      jump\t// in\n    tag_159:\n        /* \"#utility.yul\":2847:2921   */\n      swap2\n      pop\n        /* \"#utility.yul\":2930:3023   */\n      tag_160\n        /* \"#utility.yul\":3019:3022   */\n      dup3\n        /* \"#utility.yul\":2930:3023   */\n      tag_161\n      jump\t// in\n    tag_160:\n        /* \"#utility.yul\":3048:3050   */\n      0x40\n        /* \"#utility.yul\":3043:3046   */\n      dup3\n        /* \"#utility.yul\":3039:3051   */\n      add\n        /* \"#utility.yul\":3032:3051   */\n      swap1\n      pop\n        /* \"#utility.yul\":2691:3057   */\n      swap2\n      swap1\n      pop\n      jump\t// out\n        /* \"#utility.yul\":3063:3429   */\n    tag_162:\n        /* \"#utility.yul\":3205:3208   */\n      0x00\n        /* \"#utility.yul\":3226:3293   */\n      tag_164\n        /* \"#utility.yul\":3290:3292   */\n      0x21\n        /* \"#utility.yul\":3285:3288   */\n      dup4\n        /* \"#utility.yul\":3226:3293   */\n      tag_149\n      jump\t// in\n    tag_164:\n        /* \"#utility.yul\":3219:3293   */\n      swap2\n      pop\n        /* \"#utility.yul\":3302:3395   */\n      tag_165\n        /* \"#utility.yul\":3391:3394   */\n      dup3\n        /* \"#utility.yul\":3302:3395   */\n      tag_166\n      jump\t// in\n    tag_165:\n        /* \"#utility.yul\":3420:3422   */\n      0x40\n        /* \"#utility.yul\":3415:3418   */\n      dup3\n        /* \"#utility.yul\":3411:3423   */\n      add\n        /* \"#utility.yul\":3404:3423   */\n      swap1\n      pop\n        /* \"#utility.yul\":3063:3429   */\n      swap2\n      swap1\n      pop\n      jump\t// out\n        /* \"#utility.yul\":3435:3801   */\n    tag_167:\n        /* \"#utility.yul\":3577:3580   */\n      0x00\n        /* \"#utility.yul\":3598:3665   */\n      tag_169\n        /* \"#utility.yul\":3662:3664   */\n      0x2e\n        /* \"#utility.yul\":3657:3660   */\n      dup4\n        /* \"#utility.yul\":3598:3665   */\n      tag_149\n      jump\t// in\n    tag_169:\n        /* \"#utility.yul\":3591:3665   */\n      swap2\n      pop\n        /* \"#utility.yul\":3674:3767   */\n      tag_170\n        /* \"#utility.yul\":3763:3766   */\n      dup3\n        /* \"#utility.yul\":3674:3767   */\n      tag_171\n      jump\t// in\n    tag_170:\n        /* \"#utility.yul\":3792:3794   */\n      0x40\n        /* \"#utility.yul\":3787:3790   */\n      dup3\n        /* \"#utility.yul\":3783:3795   */\n      add\n        /* \"#utility.yul\":3776:3795   */\n      swap1\n      pop\n        /* \"#utility.yul\":3435:3801   */\n      swap2\n      swap1\n      pop\n      jump\t// out\n        /* \"#utility.yul\":3807:4173   */\n    tag_172:\n        /* \"#utility.yul\":3949:3952   */\n      0x00\n        /* \"#utility.yul\":3970:4037   */\n      tag_174\n        /* \"#utility.yul\":4034:4036   */\n      0x18\n        /* \"#utility.yul\":4029:4032   */\n      dup4\n        /* \"#utility.yul\":3970:4037   */\n      tag_149\n      jump\t// in\n    tag_174:\n        /* \"#utility.yul\":3963:4037   */\n      swap2\n      pop\n        /* \"#utility.yul\":4046:4139   */\n      tag_175\n        /* \"#utility.yul\":4135:4138   */\n      dup3\n        /* \"#utility.yul\":4046:4139   */\n      tag_176\n      jump\t// in\n    tag_175:\n        /* \"#utility.yul\":4164:4166   */\n      0x20\n        /* \"#utility.yul\":4159:4162   */\n      dup3\n        /* \"#utility.yul\":4155:4167   */\n      add\n        /* \"#utility.yul\":4148:4167   */\n      swap1\n      pop\n        /* \"#utility.yul\":3807:4173   */\n      swap2\n      swap1\n      pop\n      jump\t// out\n        /* \"#utility.yul\":4179:4297   */\n    tag_177:\n        /* \"#utility.yul\":4266:4290   */\n      tag_179\n        /* \"#utility.yul\":4284:4289   */\n      dup2\n        /* \"#utility.yul\":4266:4290   */\n      tag_180\n      jump\t// in\n    tag_179:\n        /* \"#utility.yul\":4261:4264   */\n      dup3\n        /* \"#utility.yul\":4254:4291   */\n      mstore\n        /* \"#utility.yul\":4179:4297   */\n      pop\n      pop\n      jump\t// out\n        /* \"#utility.yul\":4303:4525   */\n    tag_27:\n        /* \"#utility.yul\":4396:4400   */\n      0x00\n        /* \"#utility.yul\":4434:4436   */\n      0x20\n        /* \"#utility.yul\":4423:4432   */\n      dup3\n        /* \"#utility.yul\":4419:4437   */\n      add\n        /* \"#utility.yul\":4411:4437   */\n      swap1\n      pop\n        /* \"#utility.yul\":4447:4518   */\n      tag_182\n        /* \"#utility.yul\":4515:4516   */\n      0x00\n        /* \"#utility.yul\":4504:4513   */\n      dup4\n        /* \"#utility.yul\":4500:4517   */\n      add\n        /* \"#utility.yul\":4491:4497   */\n      dup5\n        /* \"#utility.yul\":4447:4518   */\n      tag_134\n      jump\t// in\n    tag_182:\n        /* \"#utility.yul\":4303:4525   */\n      swap3\n      swap2\n      pop\n      pop\n      jump\t// out\n        /* \"#utility.yul\":4531:4741   */\n    tag_39:\n        /* \"#utility.yul\":4618:4622   */\n      0x00\n        /* \"#utility.yul\":4656:4658   */\n      0x20\n        /* \"#utility.yul\":4645:4654   */\n      dup3\n        /* \"#utility.yul\":4641:4659   */\n      add\n        /* \"#utility.yul\":4633:4659   */\n      swap1\n      pop\n        /* \"#utility.yul\":4669:4734   */\n      tag_184\n        /* \"#utility.yul\":4731:4732   */\n      0x00\n        /* \"#utility.yul\":4720:4729   */\n      dup4\n        /* \"#utility.yul\":4716:4733   */\n      add\n        /* \"#utility.yul\":4707:4713   */\n      dup5\n        /* \"#utility.yul\":4669:4734   */\n      tag_138\n      jump\t// in\n    tag_184:\n        /* \"#utility.yul\":4531:4741   */\n      swap3\n      swap2\n      pop\n      pop\n      jump\t// out\n        /* \"#utility.yul\":4747:4969   */\n    tag_20:\n        /* \"#utility.yul\":4840:4844   */\n      0x00\n        /* \"#utility.yul\":4878:4880   */\n      0x20\n        /* \"#utility.yul\":4867:4876   */\n      dup3\n        /* \"#utility.yul\":4863:4881   */\n      add\n        /* \"#utility.yul\":4855:4881   */\n      swap1\n      pop\n        /* \"#utility.yul\":4891:4962   */\n      tag_186\n        /* \"#utility.yul\":4959:4960   */\n      0x00\n        /* \"#utility.yul\":4948:4957   */\n      dup4\n        /* \"#utility.yul\":4944:4961   */\n      add\n        /* \"#utility.yul\":4935:4941   */\n      dup5\n        /* \"#utility.yul\":4891:4962   */\n      tag_142\n      jump\t// in\n    tag_186:\n        /* \"#utility.yul\":4747:4969   */\n      swap3\n      swap2\n      pop\n      pop\n      jump\t// out\n        /* \"#utility.yul\":4975:5307   */\n    tag_16:\n        /* \"#utility.yul\":5096:5100   */\n      0x00\n        /* \"#utility.yul\":5134:5136   */\n      0x40\n        /* \"#utility.yul\":5123:5132   */\n      dup3\n        /* \"#utility.yul\":5119:5137   */\n      add\n        /* \"#utility.yul\":5111:5137   */\n      swap1\n      pop\n        /* \"#utility.yul\":5147:5218   */\n      tag_188\n        /* \"#utility.yul\":5215:5216   */\n      0x00\n        /* \"#utility.yul\":5204:5213   */\n      dup4\n        /* \"#utility.yul\":5200:5217   */\n      add\n        /* \"#utility.yul\":5191:5197   */\n      dup6\n        /* \"#utility.yul\":5147:5218   */\n      tag_142\n      jump\t// in\n    tag_188:\n        /* \"#utility.yul\":5228:5300   */\n      tag_189\n        /* \"#utility.yul\":5296:5298   */\n      0x20\n        /* \"#utility.yul\":5285:5294   */\n      dup4\n        /* \"#utility.yul\":5281:5299   */\n      add\n        /* \"#utility.yul\":5272:5278   */\n      dup5\n        /* \"#utility.yul\":5228:5300   */\n      tag_177\n      jump\t// in\n    tag_189:\n        /* \"#utility.yul\":4975:5307   */\n      swap4\n      swap3\n      pop\n      pop\n      pop\n      jump\t// out\n        /* \"#utility.yul\":5313:5732   */\n    tag_49:\n        /* \"#utility.yul\":5479:5483   */\n      0x00\n        /* \"#utility.yul\":5517:5519   */\n      0x20\n        /* \"#utility.yul\":5506:5515   */\n      dup3\n        /* \"#utility.yul\":5502:5520   */\n      add\n        /* \"#utility.yul\":5494:5520   */\n      swap1\n      pop\n        /* \"#utility.yul\":5566:5575   */\n      dup2\n        /* \"#utility.yul\":5560:5564   */\n      dup2\n        /* \"#utility.yul\":5556:5576   */\n      sub\n        /* \"#utility.yul\":5552:5553   */\n      0x00\n        /* \"#utility.yul\":5541:5550   */\n      dup4\n        /* \"#utility.yul\":5537:5554   */\n      add\n        /* \"#utility.yul\":5530:5577   */\n      mstore\n        /* \"#utility.yul\":5594:5725   */\n      tag_191\n        /* \"#utility.yul\":5720:5724   */\n      dup2\n        /* \"#utility.yul\":5594:5725   */\n      tag_146\n      jump\t// in\n    tag_191:\n        /* \"#utility.yul\":5586:5725   */\n      swap1\n      pop\n        /* \"#utility.yul\":5313:5732   */\n      swap2\n      swap1\n      pop\n      jump\t// out\n        /* \"#utility.yul\":5738:6157   */\n    tag_85:\n        /* \"#utility.yul\":5904:5908   */\n      0x00\n        /* \"#utility.yul\":5942:5944   */\n      0x20\n        /* \"#utility.yul\":5931:5940   */\n      dup3\n        /* \"#utility.yul\":5927:5945   */\n      add\n        /* \"#utility.yul\":5919:5945   */\n      swap1\n      pop\n        /* \"#utility.yul\":5991:6000   */\n      dup2\n        /* \"#utility.yul\":5985:5989   */\n      dup2\n        /* \"#utility.yul\":5981:6001   */\n      sub\n        /* \"#utility.yul\":5977:5978   */\n      0x00\n        /* \"#utility.yul\":5966:5975   */\n      dup4\n        /* \"#utility.yul\":5962:5979   */\n      add\n        /* \"#utility.yul\":5955:6002   */\n      mstore\n        /* \"#utility.yul\":6019:6150   */\n      tag_193\n        /* \"#utility.yul\":6145:6149   */\n      dup2\n        /* \"#utility.yul\":6019:6150   */\n      tag_152\n      jump\t// in\n    tag_193:\n        /* \"#utility.yul\":6011:6150   */\n      swap1\n      pop\n        /* \"#utility.yul\":5738:6157   */\n      swap2\n      swap1\n      pop\n      jump\t// out\n        /* \"#utility.yul\":6163:6582   */\n    tag_45:\n        /* \"#utility.yul\":6329:6333   */\n      0x00\n        /* \"#utility.yul\":6367:6369   */\n      0x20\n        /* \"#utility.yul\":6356:6365   */\n      dup3\n        /* \"#utility.yul\":6352:6370   */\n      add\n        /* \"#utility.yul\":6344:6370   */\n      swap1\n      pop\n        /* \"#utility.yul\":6416:6425   */\n      dup2\n        /* \"#utility.yul\":6410:6414   */\n      dup2\n        /* \"#utility.yul\":6406:6426   */\n      sub\n        /* \"#utility.yul\":6402:6403   */\n      0x00\n        /* \"#utility.yul\":6391:6400   */\n      dup4\n        /* \"#utility.yul\":6387:6404   */\n      add\n        /* \"#utility.yul\":6380:6427   */\n      mstore\n        /* \"#utility.yul\":6444:6575   */\n      tag_195\n        /* \"#utility.yul\":6570:6574   */\n      dup2\n        /* \"#utility.yul\":6444:6575   */\n      tag_157\n      jump\t// in\n    tag_195:\n        /* \"#utility.yul\":6436:6575   */\n      swap1\n      pop\n        /* \"#utility.yul\":6163:6582   */\n      swap2\n      swap1\n      pop\n      jump\t// out\n        /* \"#utility.yul\":6588:7007   */\n    tag_97:\n        /* \"#utility.yul\":6754:6758   */\n      0x00\n        /* \"#utility.yul\":6792:6794   */\n      0x20\n        /* \"#utility.yul\":6781:6790   */\n      dup3\n        /* \"#utility.yul\":6777:6795   */\n      add\n        /* \"#utility.yul\":6769:6795   */\n      swap1\n      pop\n        /* \"#utility.yul\":6841:6850   */\n      dup2\n        /* \"#utility.yul\":6835:6839   */\n      dup2\n        /* \"#utility.yul\":6831:6851   */\n      sub\n        /* \"#utility.yul\":6827:6828   */\n      0x00\n        /* \"#utility.yul\":6816:6825   */\n      dup4\n        /* \"#utility.yul\":6812:6829   */\n      add\n        /* \"#utility.yul\":6805:6852   */\n      mstore\n        /* \"#utility.yul\":6869:7000   */\n      tag_197\n        /* \"#utility.yul\":6995:6999   */\n      dup2\n        /* \"#utility.yul\":6869:7000   */\n      tag_162\n      jump\t// in\n    tag_197:\n        /* \"#utility.yul\":6861:7000   */\n      swap1\n      pop\n        /* \"#utility.yul\":6588:7007   */\n      swap2\n      swap1\n      pop\n      jump\t// out\n        /* \"#utility.yul\":7013:7432   */\n    tag_93:\n        /* \"#utility.yul\":7179:7183   */\n      0x00\n        /* \"#utility.yul\":7217:7219   */\n      0x20\n        /* \"#utility.yul\":7206:7215   */\n      dup3\n        /* \"#utility.yul\":7202:7220   */\n      add\n        /* \"#utility.yul\":7194:7220   */\n      swap1\n      pop\n        /* \"#utility.yul\":7266:7275   */\n      dup2\n        /* \"#utility.yul\":7260:7264   */\n      dup2\n        /* \"#utility.yul\":7256:7276   */\n      sub\n        /* \"#utility.yul\":7252:7253   */\n      0x00\n        /* \"#utility.yul\":7241:7250   */\n      dup4\n        /* \"#utility.yul\":7237:7254   */\n      add\n        /* \"#utility.yul\":7230:7277   */\n      mstore\n        /* \"#utility.yul\":7294:7425   */\n      tag_199\n        /* \"#utility.yul\":7420:7424   */\n      dup2\n        /* \"#utility.yul\":7294:7425   */\n      tag_167\n      jump\t// in\n    tag_199:\n        /* \"#utility.yul\":7286:7425   */\n      swap1\n      pop\n        /* \"#utility.yul\":7013:7432   */\n      swap2\n      swap1\n      pop\n      jump\t// out\n        /* \"#utility.yul\":7438:7857   */\n    tag_81:\n        /* \"#utility.yul\":7604:7608   */\n      0x00\n        /* \"#utility.yul\":7642:7644   */\n      0x20\n        /* \"#utility.yul\":7631:7640   */\n      dup3\n        /* \"#utility.yul\":7627:7645   */\n      add\n        /* \"#utility.yul\":7619:7645   */\n      swap1\n      pop\n        /* \"#utility.yul\":7691:7700   */\n      dup2\n        /* \"#utility.yul\":7685:7689   */\n      dup2\n        /* \"#utility.yul\":7681:7701   */\n      sub\n        /* \"#utility.yul\":7677:7678   */\n      0x00\n        /* \"#utility.yul\":7666:7675   */\n      dup4\n        /* \"#utility.yul\":7662:7679   */\n      add\n        /* \"#utility.yul\":7655:7702   */\n      mstore\n        /* \"#utility.yul\":7719:7850   */\n      tag_201\n        /* \"#utility.yul\":7845:7849   */\n      dup2\n        /* \"#utility.yul\":7719:7850   */\n      tag_172\n      jump\t// in\n    tag_201:\n        /* \"#utility.yul\":7711:7850   */\n      swap1\n      pop\n        /* \"#utility.yul\":7438:7857   */\n      swap2\n      swap1\n      pop\n      jump\t// out\n        /* \"#utility.yul\":7944:8113   */\n    tag_149:\n        /* \"#utility.yul\":8028:8039   */\n      0x00\n        /* \"#utility.yul\":8062:8068   */\n      dup3\n        /* \"#utility.yul\":8057:8060   */\n      dup3\n        /* \"#utility.yul\":8050:8069   */\n      mstore\n        /* \"#utility.yul\":8102:8106   */\n      0x20\n        /* \"#utility.yul\":8097:8100   */\n      dup3\n        /* \"#utility.yul\":8093:8107   */\n      add\n        /* \"#utility.yul\":8078:8107   */\n      swap1\n      pop\n        /* \"#utility.yul\":7944:8113   */\n      swap3\n      swap2\n      pop\n      pop\n      jump\t// out\n        /* \"#utility.yul\":8119:8424   */\n    tag_106:\n        /* \"#utility.yul\":8159:8162   */\n      0x00\n        /* \"#utility.yul\":8178:8198   */\n      tag_206\n        /* \"#utility.yul\":8196:8197   */\n      dup3\n        /* \"#utility.yul\":8178:8198   */\n      tag_180\n      jump\t// in\n    tag_206:\n        /* \"#utility.yul\":8173:8198   */\n      swap2\n      pop\n        /* \"#utility.yul\":8212:8232   */\n      tag_207\n        /* \"#utility.yul\":8230:8231   */\n      dup4\n        /* \"#utility.yul\":8212:8232   */\n      tag_180\n      jump\t// in\n    tag_207:\n        /* \"#utility.yul\":8207:8232   */\n      swap3\n      pop\n        /* \"#utility.yul\":8366:8367   */\n      dup3\n        /* \"#utility.yul\":8298:8364   */\n      0xffffffffffffffffffffffffffffffffffffffffffffffffffffffffffffffff\n        /* \"#utility.yul\":8294:8368   */\n      sub\n        /* \"#utility.yul\":8291:8292   */\n      dup3\n        /* \"#utility.yul\":8288:8369   */\n      gt\n        /* \"#utility.yul\":8285:8392   */\n      iszero\n      tag_208\n      jumpi\n        /* \"#utility.yul\":8372:8390   */\n      tag_209\n      tag_210\n      jump\t// in\n    tag_209:\n        /* \"#utility.yul\":8285:8392   */\n    tag_208:\n        /* \"#utility.yul\":8416:8417   */\n      dup3\n        /* \"#utility.yul\":8413:8414   */\n      dup3\n        /* \"#utility.yul\":8409:8418   */\n      add\n        /* \"#utility.yul\":8402:8418   */\n      swap1\n      pop\n        /* \"#utility.yul\":8119:8424   */\n      swap3\n      swap2\n      pop\n      pop\n      jump\t// out\n        /* \"#utility.yul\":8430:8526   */\n    tag_137:\n        /* \"#utility.yul\":8467:8474   */\n      0x00\n        /* \"#utility.yul\":8496:8520   */\n      tag_212\n        /* \"#utility.yul\":8514:8519   */\n      dup3\n        /* \"#utility.yul\":8496:8520   */\n      tag_213\n      jump\t// in\n    tag_212:\n        /* \"#utility.yul\":8485:8520   */\n      swap1\n      pop\n        /* \"#utility.yul\":8430:8526   */\n      swap2\n      swap1\n      pop\n      jump\t// out\n        /* \"#utility.yul\":8532:8622   */\n    tag_141:\n        /* \"#utility.yul\":8566:8573   */\n      0x00\n        /* \"#utility.yul\":8609:8614   */\n      dup2\n        /* \"#utility.yul\":8602:8615   */\n      iszero\n        /* \"#utility.yul\":8595:8616   */\n      iszero\n        /* \"#utility.yul\":8584:8616   */\n      swap1\n      pop\n        /* \"#utility.yul\":8532:8622   */\n      swap2\n      swap1\n      pop\n      jump\t// out\n        /* \"#utility.yul\":8628:8705   */\n    tag_145:\n        /* \"#utility.yul\":8665:8672   */\n      0x00\n        /* \"#utility.yul\":8694:8699   */\n      dup2\n        /* \"#utility.yul\":8683:8699   */\n      swap1\n      pop\n        /* \"#utility.yul\":8628:8705   */\n      swap2\n      swap1\n      pop\n      jump\t// out\n        /* \"#utility.yul\":8711:8837   */\n    tag_213:\n        /* \"#utility.yul\":8748:8755   */\n      0x00\n        /* \"#utility.yul\":8788:8830   */\n      0xffffffffffffffffffffffffffffffffffffffff\n        /* \"#utility.yul\":8781:8786   */\n      dup3\n        /* \"#utility.yul\":8777:8831   */\n      and\n        /* \"#utility.yul\":8766:8831   */\n      swap1\n      pop\n        /* \"#utility.yul\":8711:8837   */\n      swap2\n      swap1\n      pop\n      jump\t// out\n        /* \"#utility.yul\":8843:8920   */\n    tag_180:\n        /* \"#utility.yul\":8880:8887   */\n      0x00\n        /* \"#utility.yul\":8909:8914   */\n      dup2\n        /* \"#utility.yul\":8898:8914   */\n      swap1\n      pop\n        /* \"#utility.yul\":8843:8920   */\n      swap2\n      swap1\n      pop\n      jump\t// out\n        /* \"#utility.yul\":8926:9012   */\n    tag_218:\n        /* \"#utility.yul\":8961:8968   */\n      0x00\n        /* \"#utility.yul\":9001:9005   */\n      0xff\n        /* \"#utility.yul\":8994:8999   */\n      dup3\n        /* \"#utility.yul\":8990:9006   */\n      and\n        /* \"#utility.yul\":8979:9006   */\n      swap1\n      pop\n        /* \"#utility.yul\":8926:9012   */\n      swap2\n      swap1\n      pop\n      jump\t// out\n        /* \"#utility.yul\":9018:9185   */\n    tag_71:\n        /* \"#utility.yul\":9055:9058   */\n      0x00\n        /* \"#utility.yul\":9078:9100   */\n      tag_221\n        /* \"#utility.yul\":9094:9099   */\n      dup3\n        /* \"#utility.yul\":9078:9100   */\n      tag_218\n      jump\t// in\n    tag_221:\n        /* \"#utility.yul\":9069:9100   */\n      swap2\n      pop\n        /* \"#utility.yul\":9122:9126   */\n      0xff\n        /* \"#utility.yul\":9115:9120   */\n      dup3\n        /* \"#utility.yul\":9112:9127   */\n      eq\n        /* \"#utility.yul\":9109:9150   */\n      iszero\n      tag_222\n      jumpi\n        /* \"#utility.yul\":9130:9148   */\n      tag_223\n      tag_210\n      jump\t// in\n    tag_223:\n        /* \"#utility.yul\":9109:9150   */\n    tag_222:\n        /* \"#utility.yul\":9177:9178   */\n      0x01\n        /* \"#utility.yul\":9170:9175   */\n      dup3\n        /* \"#utility.yul\":9166:9179   */\n      add\n        /* \"#utility.yul\":9159:9179   */\n      swap1\n      pop\n        /* \"#utility.yul\":9018:9185   */\n      swap2\n      swap1\n      pop\n      jump\t// out\n        /* \"#utility.yul\":9191:9371   */\n    tag_210:\n        /* \"#utility.yul\":9239:9316   */\n      0x4e487b7100000000000000000000000000000000000000000000000000000000\n        /* \"#utility.yul\":9236:9237   */\n      0x00\n        /* \"#utility.yul\":9229:9317   */\n      mstore\n        /* \"#utility.yul\":9336:9340   */\n      0x11\n        /* \"#utility.yul\":9333:9334   */\n      0x04\n        /* \"#utility.yul\":9326:9341   */\n      mstore\n        /* \"#utility.yul\":9360:9364   */\n      0x24\n        /* \"#utility.yul\":9357:9358   */\n      0x00\n        /* \"#utility.yul\":9350:9365   */\n      revert\n        /* \"#utility.yul\":9377:9557   */\n    tag_61:\n        /* \"#utility.yul\":9425:9502   */\n      0x4e487b7100000000000000000000000000000000000000000000000000000000\n        /* \"#utility.yul\":9422:9423   */\n      0x00\n        /* \"#utility.yul\":9415:9503   */\n      mstore\n        /* \"#utility.yul\":9522:9526   */\n      0x32\n        /* \"#utility.yul\":9519:9520   */\n      0x04\n        /* \"#utility.yul\":9512:9527   */\n      mstore\n        /* \"#utility.yul\":9546:9550   */\n      0x24\n        /* \"#utility.yul\":9543:9544   */\n      0x00\n        /* \"#utility.yul\":9536:9551   */\n      revert\n        /* \"#utility.yul\":9686:9803   */\n    tag_123:\n        /* \"#utility.yul\":9795:9796   */\n      0x00\n        /* \"#utility.yul\":9792:9793   */\n      dup1\n        /* \"#utility.yul\":9785:9797   */\n      revert\n        /* \"#utility.yul\":9809:9976   */\n    tag_151:\n        /* \"#utility.yul\":9949:9968   */\n      0x566f7465732061726520636c6f7365642e000000000000000000000000000000\n        /* \"#utility.yul\":9945:9946   */\n      0x00\n        /* \"#utility.yul\":9937:9943   */\n      dup3\n        /* \"#utility.yul\":9933:9947   */\n      add\n        /* \"#utility.yul\":9926:9969   */\n      mstore\n        /* \"#utility.yul\":9809:9976   */\n      pop\n      jump\t// out\n        /* \"#utility.yul\":9982:10202   */\n    tag_156:\n        /* \"#utility.yul\":10122:10156   */\n      0x596f75206861766520616c7265616479206120726967687420746f20766f7465\n        /* \"#utility.yul\":10118:10119   */\n      0x00\n        /* \"#utility.yul\":10110:10116   */\n      dup3\n        /* \"#utility.yul\":10106:10120   */\n      add\n        /* \"#utility.yul\":10099:10157   */\n      mstore\n        /* \"#utility.yul\":10191:10194   */\n      0x2e00000000000000000000000000000000000000000000000000000000000000\n        /* \"#utility.yul\":10186:10188   */\n      0x20\n        /* \"#utility.yul\":10178:10184   */\n      dup3\n        /* \"#utility.yul\":10174:10189   */\n      add\n        /* \"#utility.yul\":10167:10195   */\n      mstore\n        /* \"#utility.yul\":9982:10202   */\n      pop\n      jump\t// out\n        /* \"#utility.yul\":10208:10435   */\n    tag_161:\n        /* \"#utility.yul\":10348:10382   */\n      0x4f6e6c79206368616972706572736f6e2063616e206769766520726967687420\n        /* \"#utility.yul\":10344:10345   */\n      0x00\n        /* \"#utility.yul\":10336:10342   */\n      dup3\n        /* \"#utility.yul\":10332:10346   */\n      add\n        /* \"#utility.yul\":10325:10383   */\n      mstore\n        /* \"#utility.yul\":10417:10427   */\n      0x746f20766f74652e000000000000000000000000000000000000000000000000\n        /* \"#utility.yul\":10412:10414   */\n      0x20\n        /* \"#utility.yul\":10404:10410   */\n      dup3\n        /* \"#utility.yul\":10400:10415   */\n      add\n        /* \"#utility.yul\":10393:10428   */\n      mstore\n        /* \"#utility.yul\":10208:10435   */\n      pop\n      jump\t// out\n        /* \"#utility.yul\":10441:10661   */\n    tag_166:\n        /* \"#utility.yul\":10581:10615   */\n      0x596f7520646f6e277420686176652074686520726967687420746f20766f7465\n        /* \"#utility.yul\":10577:10578   */\n      0x00\n        /* \"#utility.yul\":10569:10575   */\n      dup3\n        /* \"#utility.yul\":10565:10579   */\n      add\n        /* \"#utility.yul\":10558:10616   */\n      mstore\n        /* \"#utility.yul\":10650:10653   */\n      0x2e00000000000000000000000000000000000000000000000000000000000000\n        /* \"#utility.yul\":10645:10647   */\n      0x20\n        /* \"#utility.yul\":10637:10643   */\n      dup3\n        /* \"#utility.yul\":10633:10648   */\n      add\n        /* \"#utility.yul\":10626:10654   */\n      mstore\n        /* \"#utility.yul\":10441:10661   */\n      pop\n      jump\t// out\n        /* \"#utility.yul\":10667:10900   */\n    tag_171:\n        /* \"#utility.yul\":10807:10841   */\n      0x596f7520617265206e6f7420616c6c6f77656420746f20766f74652077697468\n        /* \"#utility.yul\":10803:10804   */\n      0x00\n        /* \"#utility.yul\":10795:10801   */\n      dup3\n        /* \"#utility.yul\":10791:10805   */\n      add\n        /* \"#utility.yul\":10784:10842   */\n      mstore\n        /* \"#utility.yul\":10876:10892   */\n      0x207468697320616464726573732e000000000000000000000000000000000000\n        /* \"#utility.yul\":10871:10873   */\n      0x20\n        /* \"#utility.yul\":10863:10869   */\n      dup3\n        /* \"#utility.yul\":10859:10874   */\n      add\n        /* \"#utility.yul\":10852:10893   */\n      mstore\n        /* \"#utility.yul\":10667:10900   */\n      pop\n      jump\t// out\n        /* \"#utility.yul\":10906:11080   */\n    tag_176:\n        /* \"#utility.yul\":11046:11072   */\n      0x54686520766f74657220616c726561647920766f7465642e0000000000000000\n        /* \"#utility.yul\":11042:11043   */\n      0x00\n        /* \"#utility.yul\":11034:11040   */\n      dup3\n        /* \"#utility.yul\":11030:11044   */\n      add\n        /* \"#utility.yul\":11023:11073   */\n      mstore\n        /* \"#utility.yul\":10906:11080   */\n      pop\n      jump\t// out\n        /* \"#utility.yul\":11086:11208   */\n    tag_111:\n        /* \"#utility.yul\":11159:11183   */\n      tag_236\n        /* \"#utility.yul\":11177:11182   */\n      dup2\n        /* \"#utility.yul\":11159:11183   */\n      tag_137\n      jump\t// in\n    tag_236:\n        /* \"#utility.yul\":11152:11157   */\n      dup2\n        /* \"#utility.yul\":11149:11184   */\n      eq\n        /* \"#utility.yul\":11139:11202   */\n      tag_237\n      jumpi\n        /* \"#utility.yul\":11198:11199   */\n      0x00\n        /* \"#utility.yul\":11195:11196   */\n      dup1\n        /* \"#utility.yul\":11188:11200   */\n      revert\n        /* \"#utility.yul\":11139:11202   */\n    tag_237:\n        /* \"#utility.yul\":11086:11208   */\n      pop\n      jump\t// out\n        /* \"#utility.yul\":11214:11336   */\n    tag_115:\n        /* \"#utility.yul\":11287:11311   */\n      tag_239\n        /* \"#utility.yul\":11305:11310   */\n      dup2\n        /* \"#utility.yul\":11287:11311   */\n      tag_180\n      jump\t// in\n    tag_239:\n        /* \"#utility.yul\":11280:11285   */\n      dup2\n        /* \"#utility.yul\":11277:11312   */\n      eq\n        /* \"#utility.yul\":11267:11330   */\n      tag_240\n      jumpi\n        /* \"#utility.yul\":11326:11327   */\n      0x00\n        /* \"#utility.yul\":11323:11324   */\n      dup1\n        /* \"#utility.yul\":11316:11328   */\n      revert\n        /* \"#utility.yul\":11267:11330   */\n    tag_240:\n        /* \"#utility.yul\":11214:11336   */\n      pop\n      jump\t// out\n        /* \"#utility.yul\":11342:11460   */\n    tag_119:\n        /* \"#utility.yul\":11413:11435   */\n      tag_242\n        /* \"#utility.yul\":11429:11434   */\n      dup2\n        /* \"#utility.yul\":11413:11435   */\n      tag_218\n      jump\t// in\n    tag_242:\n        /* \"#utility.yul\":11406:11411   */\n      dup2\n        /* \"#utility.yul\":11403:11436   */\n      eq\n        /* \"#utility.yul\":11393:11454   */\n      tag_243\n      jumpi\n        /* \"#utility.yul\":11450:11451   */\n      0x00\n        /* \"#utility.yul\":11447:11448   */\n      dup1\n        /* \"#utility.yul\":11440:11452   */\n      revert\n        /* \"#utility.yul\":11393:11454   */\n    tag_243:\n        /* \"#utility.yul\":11342:11460   */\n      pop\n      jump\t// out\n\n    auxdata: 0xa26469706673582212201d30ba207b993eb2bd8ba13546789a29f9940514a0e078ecc1729919830f339164736f6c63430008070033\n}\n",
				"bytecode": {
					"linkReferences": {},
					"object": "60806040526001600260146101000a81548160ff0219169083151502179055503480156200002c57600080fd5b50604051620014613803806200146183398181016040528101906200005291906200027a565b33600260006101000a81548173ffffffffffffffffffffffffffffffffffffffff021916908373ffffffffffffffffffffffffffffffffffffffff1602179055506001600080600260009054906101000a900473ffffffffffffffffffffffffffffffffffffffff1673ffffffffffffffffffffffffffffffffffffffff1673ffffffffffffffffffffffffffffffffffffffff16815260200190815260200160002060000160026101000a81548163ffffffff021916908363ffffffff16021790555060005b8151811015620001ad5760016040518060400160405280848481518110620001465762000145620003ea565b5b6020026020010151815260200160008152509080600181540180825580915050600190039060005260206000209060020201600090919091909150600082015181600001556020820151816001015550508080620001a4906200036d565b91505062000119565b505062000487565b6000620001cc620001c684620002f4565b620002cb565b90508083825260208201905082856020860282011115620001f257620001f16200044d565b5b60005b858110156200022657816200020b888262000263565b845260208401935060208301925050600181019050620001f5565b5050509392505050565b600082601f83011262000248576200024762000448565b5b81516200025a848260208601620001b5565b91505092915050565b60008151905062000274816200046d565b92915050565b60006020828403121562000293576200029262000457565b5b600082015167ffffffffffffffff811115620002b457620002b362000452565b5b620002c28482850162000230565b91505092915050565b6000620002d7620002ea565b9050620002e5828262000337565b919050565b6000604051905090565b600067ffffffffffffffff82111562000312576200031162000419565b5b602082029050602081019050919050565b6000819050919050565b6000819050919050565b62000342826200045c565b810181811067ffffffffffffffff8211171562000364576200036362000419565b5b80604052505050565b60006200037a826200032d565b91507fffffffffffffffffffffffffffffffffffffffffffffffffffffffffffffffff821415620003b057620003af620003bb565b5b600182019050919050565b7f4e487b7100000000000000000000000000000000000000000000000000000000600052601160045260246000fd5b7f4e487b7100000000000000000000000000000000000000000000000000000000600052603260045260246000fd5b7f4e487b7100000000000000000000000000000000000000000000000000000000600052604160045260246000fd5b600080fd5b600080fd5b600080fd5b600080fd5b6000601f19601f8301169050919050565b620004788162000323565b81146200048457600080fd5b50565b610fca80620004976000396000f3fe608060405234801561001057600080fd5b506004361061007d5760003560e01c806387f7b9751161005b57806387f7b975146100ef5780639e7b8d611461010d578063b81c645314610129578063d107d8c2146101455761007d565b8063013cf08b146100825780635d3f0ae9146100b357806372133c96146100d1575b600080fd5b61009c600480360381019061009791906109b9565b610163565b6040516100aa929190610b85565b60405180910390f35b6100bb610197565b6040516100c89190610b6a565b60405180910390f35b6100d96102a7565b6040516100e69190610b6a565b60405180910390f35b6100f76103b2565b6040516101049190610b34565b60405180910390f35b6101276004803603810190610122919061098c565b6103d8565b005b610143600480360381019061013e91906109e6565b61064f565b005b61014d61093a565b60405161015a9190610b4f565b60405180910390f35b6001818154811061017357600080fd5b90600052602060002090600202016000915090508060000154908060010154905082565b60003373ffffffffffffffffffffffffffffffffffffffff16600260009054906101000a900473ffffffffffffffffffffffffffffffffffffffff1673ffffffffffffffffffffffffffffffffffffffff1614610229576040517f08c379a000000000000000000000000000000000000000000000000000000000815260040161022090610bee565b60405180910390fd5b60011515600260149054906101000a900460ff1615151461027f576040517f08c379a000000000000000000000000000000000000000000000000000000000815260040161027690610bae565b60405180910390fd5b6000600260146101000a81548160ff0219169083151502179055506102a26102a7565b905090565b600060011515600260149054906101000a900460ff161515146102ff576040517f08c379a00000000000000000000000000000000000000000000000000000000081526004016102f690610bae565b60405180910390fd5b6000805b6001805490508160ff1610156103ad578160018260ff168154811061032b5761032a610d8d565b5b906000526020600020906002020160010154111561039a5760018160ff168154811061035a57610359610d8d565b5b906000526020600020906002020160000154925060018160ff168154811061038557610384610d8d565b5b90600052602060002090600202016001015491505b80806103a590610d34565b915050610303565b505090565b600260009054906101000a900473ffffffffffffffffffffffffffffffffffffffff1681565b3373ffffffffffffffffffffffffffffffffffffffff16600260009054906101000a900473ffffffffffffffffffffffffffffffffffffffff1673ffffffffffffffffffffffffffffffffffffffff1614610468576040517f08c379a000000000000000000000000000000000000000000000000000000000815260040161045f90610bee565b60405180910390fd5b60011515600260149054906101000a900460ff161515146104be576040517f08c379a00000000000000000000000000000000000000000000000000000000081526004016104b590610bae565b60405180910390fd5b806000808273ffffffffffffffffffffffffffffffffffffffff1673ffffffffffffffffffffffffffffffffffffffff16815260200190815260200160002060000160009054906101000a900460ff161561054e576040517f08c379a000000000000000000000000000000000000000000000000000000000815260040161054590610c4e565b60405180910390fd5b8160008060008373ffffffffffffffffffffffffffffffffffffffff1673ffffffffffffffffffffffffffffffffffffffff16815260200190815260200160002060000160029054906101000a900463ffffffff1663ffffffff16146105e9576040517f08c379a00000000000000000000000000000000000000000000000000000000081526004016105e090610bce565b60405180910390fd5b60016000808573ffffffffffffffffffffffffffffffffffffffff1673ffffffffffffffffffffffffffffffffffffffff16815260200190815260200160002060000160026101000a81548163ffffffff021916908363ffffffff160217905550505050565b60011515600260149054906101000a900460ff161515146106a5576040517f08c379a000000000000000000000000000000000000000000000000000000000815260040161069c90610bae565b60405180910390fd5b803373ffffffffffffffffffffffffffffffffffffffff168173ffffffffffffffffffffffffffffffffffffffff1614610714576040517f08c379a000000000000000000000000000000000000000000000000000000000815260040161070b90610c2e565b60405180910390fd5b8160008060008373ffffffffffffffffffffffffffffffffffffffff1673ffffffffffffffffffffffffffffffffffffffff16815260200190815260200160002060000160029054906101000a900463ffffffff1663ffffffff1614156107b0576040517f08c379a00000000000000000000000000000000000000000000000000000000081526004016107a790610c0e565b60405180910390fd5b826000808273ffffffffffffffffffffffffffffffffffffffff1673ffffffffffffffffffffffffffffffffffffffff16815260200190815260200160002060000160009054906101000a900460ff1615610840576040517f08c379a000000000000000000000000000000000000000000000000000000000815260040161083790610c4e565b60405180910390fd5b60016000808673ffffffffffffffffffffffffffffffffffffffff1673ffffffffffffffffffffffffffffffffffffffff16815260200190815260200160002060000160006101000a81548160ff021916908315150217905550846000808673ffffffffffffffffffffffffffffffffffffffff1673ffffffffffffffffffffffffffffffffffffffff16815260200190815260200160002060000160016101000a81548160ff021916908360ff1602179055506001808660ff168154811061090c5761090b610d8d565b5b9060005260206000209060020201600101600082825461092c9190610c7f565b925050819055505050505050565b600260149054906101000a900460ff1681565b60008135905061095c81610f4f565b92915050565b60008135905061097181610f66565b92915050565b60008135905061098681610f7d565b92915050565b6000602082840312156109a2576109a1610dbc565b5b60006109b08482850161094d565b91505092915050565b6000602082840312156109cf576109ce610dbc565b5b60006109dd84828501610962565b91505092915050565b600080604083850312156109fd576109fc610dbc565b5b6000610a0b85828601610977565b9250506020610a1c8582860161094d565b9150509250929050565b610a2f81610cd5565b82525050565b610a3e81610ce7565b82525050565b610a4d81610cf3565b82525050565b6000610a60601183610c6e565b9150610a6b82610dc1565b602082019050919050565b6000610a83602183610c6e565b9150610a8e82610dea565b604082019050919050565b6000610aa6602883610c6e565b9150610ab182610e39565b604082019050919050565b6000610ac9602183610c6e565b9150610ad482610e88565b604082019050919050565b6000610aec602e83610c6e565b9150610af782610ed7565b604082019050919050565b6000610b0f601883610c6e565b9150610b1a82610f26565b602082019050919050565b610b2e81610d1d565b82525050565b6000602082019050610b496000830184610a26565b92915050565b6000602082019050610b646000830184610a35565b92915050565b6000602082019050610b7f6000830184610a44565b92915050565b6000604082019050610b9a6000830185610a44565b610ba76020830184610b25565b9392505050565b60006020820190508181036000830152610bc781610a53565b9050919050565b60006020820190508181036000830152610be781610a76565b9050919050565b60006020820190508181036000830152610c0781610a99565b9050919050565b60006020820190508181036000830152610c2781610abc565b9050919050565b60006020820190508181036000830152610c4781610adf565b9050919050565b60006020820190508181036000830152610c6781610b02565b9050919050565b600082825260208201905092915050565b6000610c8a82610d1d565b9150610c9583610d1d565b9250827fffffffffffffffffffffffffffffffffffffffffffffffffffffffffffffffff03821115610cca57610cc9610d5e565b5b828201905092915050565b6000610ce082610cfd565b9050919050565b60008115159050919050565b6000819050919050565b600073ffffffffffffffffffffffffffffffffffffffff82169050919050565b6000819050919050565b600060ff82169050919050565b6000610d3f82610d27565b915060ff821415610d5357610d52610d5e565b5b600182019050919050565b7f4e487b7100000000000000000000000000000000000000000000000000000000600052601160045260246000fd5b7f4e487b7100000000000000000000000000000000000000000000000000000000600052603260045260246000fd5b600080fd5b7f566f7465732061726520636c6f7365642e000000000000000000000000000000600082015250565b7f596f75206861766520616c7265616479206120726967687420746f20766f746560008201527f2e00000000000000000000000000000000000000000000000000000000000000602082015250565b7f4f6e6c79206368616972706572736f6e2063616e20676976652072696768742060008201527f746f20766f74652e000000000000000000000000000000000000000000000000602082015250565b7f596f7520646f6e277420686176652074686520726967687420746f20766f746560008201527f2e00000000000000000000000000000000000000000000000000000000000000602082015250565b7f596f7520617265206e6f7420616c6c6f77656420746f20766f7465207769746860008201527f207468697320616464726573732e000000000000000000000000000000000000602082015250565b7f54686520766f74657220616c726561647920766f7465642e0000000000000000600082015250565b610f5881610cd5565b8114610f6357600080fd5b50565b610f6f81610d1d565b8114610f7a57600080fd5b50565b610f8681610d27565b8114610f9157600080fd5b5056fea26469706673582212201d30ba207b993eb2bd8ba13546789a29f9940514a0e078ecc1729919830f339164736f6c63430008070033",
					"opcodes": "PUSH1 0x80 PUSH1 0x40 MSTORE PUSH1 0x1 PUSH1 0x2 PUSH1 0x14 PUSH2 0x100 EXP DUP2 SLOAD DUP2 PUSH1 0xFF MUL NOT AND SWAP1 DUP4 ISZERO ISZERO MUL OR SWAP1 SSTORE POP CALLVALUE DUP1 ISZERO PUSH3 0x2C JUMPI PUSH1 0x0 DUP1 REVERT JUMPDEST POP PUSH1 0x40 MLOAD PUSH3 0x1461 CODESIZE SUB DUP1 PUSH3 0x1461 DUP4 CODECOPY DUP2 DUP2 ADD PUSH1 0x40 MSTORE DUP2 ADD SWAP1 PUSH3 0x52 SWAP2 SWAP1 PUSH3 0x27A JUMP JUMPDEST CALLER PUSH1 0x2 PUSH1 0x0 PUSH2 0x100 EXP DUP2 SLOAD DUP2 PUSH20 0xFFFFFFFFFFFFFFFFFFFFFFFFFFFFFFFFFFFFFFFF MUL NOT AND SWAP1 DUP4 PUSH20 0xFFFFFFFFFFFFFFFFFFFFFFFFFFFFFFFFFFFFFFFF AND MUL OR SWAP1 SSTORE POP PUSH1 0x1 PUSH1 0x0 DUP1 PUSH1 0x2 PUSH1 0x0 SWAP1 SLOAD SWAP1 PUSH2 0x100 EXP SWAP1 DIV PUSH20 0xFFFFFFFFFFFFFFFFFFFFFFFFFFFFFFFFFFFFFFFF AND PUSH20 0xFFFFFFFFFFFFFFFFFFFFFFFFFFFFFFFFFFFFFFFF AND PUSH20 0xFFFFFFFFFFFFFFFFFFFFFFFFFFFFFFFFFFFFFFFF AND DUP2 MSTORE PUSH1 0x20 ADD SWAP1 DUP2 MSTORE PUSH1 0x20 ADD PUSH1 0x0 KECCAK256 PUSH1 0x0 ADD PUSH1 0x2 PUSH2 0x100 EXP DUP2 SLOAD DUP2 PUSH4 0xFFFFFFFF MUL NOT AND SWAP1 DUP4 PUSH4 0xFFFFFFFF AND MUL OR SWAP1 SSTORE POP PUSH1 0x0 JUMPDEST DUP2 MLOAD DUP2 LT ISZERO PUSH3 0x1AD JUMPI PUSH1 0x1 PUSH1 0x40 MLOAD DUP1 PUSH1 0x40 ADD PUSH1 0x40 MSTORE DUP1 DUP5 DUP5 DUP2 MLOAD DUP2 LT PUSH3 0x146 JUMPI PUSH3 0x145 PUSH3 0x3EA JUMP JUMPDEST JUMPDEST PUSH1 0x20 MUL PUSH1 0x20 ADD ADD MLOAD DUP2 MSTORE PUSH1 0x20 ADD PUSH1 0x0 DUP2 MSTORE POP SWAP1 DUP1 PUSH1 0x1 DUP2 SLOAD ADD DUP1 DUP3 SSTORE DUP1 SWAP2 POP POP PUSH1 0x1 SWAP1 SUB SWAP1 PUSH1 0x0 MSTORE PUSH1 0x20 PUSH1 0x0 KECCAK256 SWAP1 PUSH1 0x2 MUL ADD PUSH1 0x0 SWAP1 SWAP2 SWAP1 SWAP2 SWAP1 SWAP2 POP PUSH1 0x0 DUP3 ADD MLOAD DUP2 PUSH1 0x0 ADD SSTORE PUSH1 0x20 DUP3 ADD MLOAD DUP2 PUSH1 0x1 ADD SSTORE POP POP DUP1 DUP1 PUSH3 0x1A4 SWAP1 PUSH3 0x36D JUMP JUMPDEST SWAP2 POP POP PUSH3 0x119 JUMP JUMPDEST POP POP PUSH3 0x487 JUMP JUMPDEST PUSH1 0x0 PUSH3 0x1CC PUSH3 0x1C6 DUP5 PUSH3 0x2F4 JUMP JUMPDEST PUSH3 0x2CB JUMP JUMPDEST SWAP1 POP DUP1 DUP4 DUP3 MSTORE PUSH1 0x20 DUP3 ADD SWAP1 POP DUP3 DUP6 PUSH1 0x20 DUP7 MUL DUP3 ADD GT ISZERO PUSH3 0x1F2 JUMPI PUSH3 0x1F1 PUSH3 0x44D JUMP JUMPDEST JUMPDEST PUSH1 0x0 JUMPDEST DUP6 DUP2 LT ISZERO PUSH3 0x226 JUMPI DUP2 PUSH3 0x20B DUP9 DUP3 PUSH3 0x263 JUMP JUMPDEST DUP5 MSTORE PUSH1 0x20 DUP5 ADD SWAP4 POP PUSH1 0x20 DUP4 ADD SWAP3 POP POP PUSH1 0x1 DUP2 ADD SWAP1 POP PUSH3 0x1F5 JUMP JUMPDEST POP POP POP SWAP4 SWAP3 POP POP POP JUMP JUMPDEST PUSH1 0x0 DUP3 PUSH1 0x1F DUP4 ADD SLT PUSH3 0x248 JUMPI PUSH3 0x247 PUSH3 0x448 JUMP JUMPDEST JUMPDEST DUP2 MLOAD PUSH3 0x25A DUP5 DUP3 PUSH1 0x20 DUP7 ADD PUSH3 0x1B5 JUMP JUMPDEST SWAP2 POP POP SWAP3 SWAP2 POP POP JUMP JUMPDEST PUSH1 0x0 DUP2 MLOAD SWAP1 POP PUSH3 0x274 DUP2 PUSH3 0x46D JUMP JUMPDEST SWAP3 SWAP2 POP POP JUMP JUMPDEST PUSH1 0x0 PUSH1 0x20 DUP3 DUP5 SUB SLT ISZERO PUSH3 0x293 JUMPI PUSH3 0x292 PUSH3 0x457 JUMP JUMPDEST JUMPDEST PUSH1 0x0 DUP3 ADD MLOAD PUSH8 0xFFFFFFFFFFFFFFFF DUP2 GT ISZERO PUSH3 0x2B4 JUMPI PUSH3 0x2B3 PUSH3 0x452 JUMP JUMPDEST JUMPDEST PUSH3 0x2C2 DUP5 DUP3 DUP6 ADD PUSH3 0x230 JUMP JUMPDEST SWAP2 POP POP SWAP3 SWAP2 POP POP JUMP JUMPDEST PUSH1 0x0 PUSH3 0x2D7 PUSH3 0x2EA JUMP JUMPDEST SWAP1 POP PUSH3 0x2E5 DUP3 DUP3 PUSH3 0x337 JUMP JUMPDEST SWAP2 SWAP1 POP JUMP JUMPDEST PUSH1 0x0 PUSH1 0x40 MLOAD SWAP1 POP SWAP1 JUMP JUMPDEST PUSH1 0x0 PUSH8 0xFFFFFFFFFFFFFFFF DUP3 GT ISZERO PUSH3 0x312 JUMPI PUSH3 0x311 PUSH3 0x419 JUMP JUMPDEST JUMPDEST PUSH1 0x20 DUP3 MUL SWAP1 POP PUSH1 0x20 DUP2 ADD SWAP1 POP SWAP2 SWAP1 POP JUMP JUMPDEST PUSH1 0x0 DUP2 SWAP1 POP SWAP2 SWAP1 POP JUMP JUMPDEST PUSH1 0x0 DUP2 SWAP1 POP SWAP2 SWAP1 POP JUMP JUMPDEST PUSH3 0x342 DUP3 PUSH3 0x45C JUMP JUMPDEST DUP2 ADD DUP2 DUP2 LT PUSH8 0xFFFFFFFFFFFFFFFF DUP3 GT OR ISZERO PUSH3 0x364 JUMPI PUSH3 0x363 PUSH3 0x419 JUMP JUMPDEST JUMPDEST DUP1 PUSH1 0x40 MSTORE POP POP POP JUMP JUMPDEST PUSH1 0x0 PUSH3 0x37A DUP3 PUSH3 0x32D JUMP JUMPDEST SWAP2 POP PUSH32 0xFFFFFFFFFFFFFFFFFFFFFFFFFFFFFFFFFFFFFFFFFFFFFFFFFFFFFFFFFFFFFFFF DUP3 EQ ISZERO PUSH3 0x3B0 JUMPI PUSH3 0x3AF PUSH3 0x3BB JUMP JUMPDEST JUMPDEST PUSH1 0x1 DUP3 ADD SWAP1 POP SWAP2 SWAP1 POP JUMP JUMPDEST PUSH32 0x4E487B7100000000000000000000000000000000000000000000000000000000 PUSH1 0x0 MSTORE PUSH1 0x11 PUSH1 0x4 MSTORE PUSH1 0x24 PUSH1 0x0 REVERT JUMPDEST PUSH32 0x4E487B7100000000000000000000000000000000000000000000000000000000 PUSH1 0x0 MSTORE PUSH1 0x32 PUSH1 0x4 MSTORE PUSH1 0x24 PUSH1 0x0 REVERT JUMPDEST PUSH32 0x4E487B7100000000000000000000000000000000000000000000000000000000 PUSH1 0x0 MSTORE PUSH1 0x41 PUSH1 0x4 MSTORE PUSH1 0x24 PUSH1 0x0 REVERT JUMPDEST PUSH1 0x0 DUP1 REVERT JUMPDEST PUSH1 0x0 DUP1 REVERT JUMPDEST PUSH1 0x0 DUP1 REVERT JUMPDEST PUSH1 0x0 DUP1 REVERT JUMPDEST PUSH1 0x0 PUSH1 0x1F NOT PUSH1 0x1F DUP4 ADD AND SWAP1 POP SWAP2 SWAP1 POP JUMP JUMPDEST PUSH3 0x478 DUP2 PUSH3 0x323 JUMP JUMPDEST DUP2 EQ PUSH3 0x484 JUMPI PUSH1 0x0 DUP1 REVERT JUMPDEST POP JUMP JUMPDEST PUSH2 0xFCA DUP1 PUSH3 0x497 PUSH1 0x0 CODECOPY PUSH1 0x0 RETURN INVALID PUSH1 0x80 PUSH1 0x40 MSTORE CALLVALUE DUP1 ISZERO PUSH2 0x10 JUMPI PUSH1 0x0 DUP1 REVERT JUMPDEST POP PUSH1 0x4 CALLDATASIZE LT PUSH2 0x7D JUMPI PUSH1 0x0 CALLDATALOAD PUSH1 0xE0 SHR DUP1 PUSH4 0x87F7B975 GT PUSH2 0x5B JUMPI DUP1 PUSH4 0x87F7B975 EQ PUSH2 0xEF JUMPI DUP1 PUSH4 0x9E7B8D61 EQ PUSH2 0x10D JUMPI DUP1 PUSH4 0xB81C6453 EQ PUSH2 0x129 JUMPI DUP1 PUSH4 0xD107D8C2 EQ PUSH2 0x145 JUMPI PUSH2 0x7D JUMP JUMPDEST DUP1 PUSH4 0x13CF08B EQ PUSH2 0x82 JUMPI DUP1 PUSH4 0x5D3F0AE9 EQ PUSH2 0xB3 JUMPI DUP1 PUSH4 0x72133C96 EQ PUSH2 0xD1 JUMPI JUMPDEST PUSH1 0x0 DUP1 REVERT JUMPDEST PUSH2 0x9C PUSH1 0x4 DUP1 CALLDATASIZE SUB DUP2 ADD SWAP1 PUSH2 0x97 SWAP2 SWAP1 PUSH2 0x9B9 JUMP JUMPDEST PUSH2 0x163 JUMP JUMPDEST PUSH1 0x40 MLOAD PUSH2 0xAA SWAP3 SWAP2 SWAP1 PUSH2 0xB85 JUMP JUMPDEST PUSH1 0x40 MLOAD DUP1 SWAP2 SUB SWAP1 RETURN JUMPDEST PUSH2 0xBB PUSH2 0x197 JUMP JUMPDEST PUSH1 0x40 MLOAD PUSH2 0xC8 SWAP2 SWAP1 PUSH2 0xB6A JUMP JUMPDEST PUSH1 0x40 MLOAD DUP1 SWAP2 SUB SWAP1 RETURN JUMPDEST PUSH2 0xD9 PUSH2 0x2A7 JUMP JUMPDEST PUSH1 0x40 MLOAD PUSH2 0xE6 SWAP2 SWAP1 PUSH2 0xB6A JUMP JUMPDEST PUSH1 0x40 MLOAD DUP1 SWAP2 SUB SWAP1 RETURN JUMPDEST PUSH2 0xF7 PUSH2 0x3B2 JUMP JUMPDEST PUSH1 0x40 MLOAD PUSH2 0x104 SWAP2 SWAP1 PUSH2 0xB34 JUMP JUMPDEST PUSH1 0x40 MLOAD DUP1 SWAP2 SUB SWAP1 RETURN JUMPDEST PUSH2 0x127 PUSH1 0x4 DUP1 CALLDATASIZE SUB DUP2 ADD SWAP1 PUSH2 0x122 SWAP2 SWAP1 PUSH2 0x98C JUMP JUMPDEST PUSH2 0x3D8 JUMP JUMPDEST STOP JUMPDEST PUSH2 0x143 PUSH1 0x4 DUP1 CALLDATASIZE SUB DUP2 ADD SWAP1 PUSH2 0x13E SWAP2 SWAP1 PUSH2 0x9E6 JUMP JUMPDEST PUSH2 0x64F JUMP JUMPDEST STOP JUMPDEST PUSH2 0x14D PUSH2 0x93A JUMP JUMPDEST PUSH1 0x40 MLOAD PUSH2 0x15A SWAP2 SWAP1 PUSH2 0xB4F JUMP JUMPDEST PUSH1 0x40 MLOAD DUP1 SWAP2 SUB SWAP1 RETURN JUMPDEST PUSH1 0x1 DUP2 DUP2 SLOAD DUP2 LT PUSH2 0x173 JUMPI PUSH1 0x0 DUP1 REVERT JUMPDEST SWAP1 PUSH1 0x0 MSTORE PUSH1 0x20 PUSH1 0x0 KECCAK256 SWAP1 PUSH1 0x2 MUL ADD PUSH1 0x0 SWAP2 POP SWAP1 POP DUP1 PUSH1 0x0 ADD SLOAD SWAP1 DUP1 PUSH1 0x1 ADD SLOAD SWAP1 POP DUP3 JUMP JUMPDEST PUSH1 0x0 CALLER PUSH20 0xFFFFFFFFFFFFFFFFFFFFFFFFFFFFFFFFFFFFFFFF AND PUSH1 0x2 PUSH1 0x0 SWAP1 SLOAD SWAP1 PUSH2 0x100 EXP SWAP1 DIV PUSH20 0xFFFFFFFFFFFFFFFFFFFFFFFFFFFFFFFFFFFFFFFF AND PUSH20 0xFFFFFFFFFFFFFFFFFFFFFFFFFFFFFFFFFFFFFFFF AND EQ PUSH2 0x229 JUMPI PUSH1 0x40 MLOAD PUSH32 0x8C379A000000000000000000000000000000000000000000000000000000000 DUP2 MSTORE PUSH1 0x4 ADD PUSH2 0x220 SWAP1 PUSH2 0xBEE JUMP JUMPDEST PUSH1 0x40 MLOAD DUP1 SWAP2 SUB SWAP1 REVERT JUMPDEST PUSH1 0x1 ISZERO ISZERO PUSH1 0x2 PUSH1 0x14 SWAP1 SLOAD SWAP1 PUSH2 0x100 EXP SWAP1 DIV PUSH1 0xFF AND ISZERO ISZERO EQ PUSH2 0x27F JUMPI PUSH1 0x40 MLOAD PUSH32 0x8C379A000000000000000000000000000000000000000000000000000000000 DUP2 MSTORE PUSH1 0x4 ADD PUSH2 0x276 SWAP1 PUSH2 0xBAE JUMP JUMPDEST PUSH1 0x40 MLOAD DUP1 SWAP2 SUB SWAP1 REVERT JUMPDEST PUSH1 0x0 PUSH1 0x2 PUSH1 0x14 PUSH2 0x100 EXP DUP2 SLOAD DUP2 PUSH1 0xFF MUL NOT AND SWAP1 DUP4 ISZERO ISZERO MUL OR SWAP1 SSTORE POP PUSH2 0x2A2 PUSH2 0x2A7 JUMP JUMPDEST SWAP1 POP SWAP1 JUMP JUMPDEST PUSH1 0x0 PUSH1 0x1 ISZERO ISZERO PUSH1 0x2 PUSH1 0x14 SWAP1 SLOAD SWAP1 PUSH2 0x100 EXP SWAP1 DIV PUSH1 0xFF AND ISZERO ISZERO EQ PUSH2 0x2FF JUMPI PUSH1 0x40 MLOAD PUSH32 0x8C379A000000000000000000000000000000000000000000000000000000000 DUP2 MSTORE PUSH1 0x4 ADD PUSH2 0x2F6 SWAP1 PUSH2 0xBAE JUMP JUMPDEST PUSH1 0x40 MLOAD DUP1 SWAP2 SUB SWAP1 REVERT JUMPDEST PUSH1 0x0 DUP1 JUMPDEST PUSH1 0x1 DUP1 SLOAD SWAP1 POP DUP2 PUSH1 0xFF AND LT ISZERO PUSH2 0x3AD JUMPI DUP2 PUSH1 0x1 DUP3 PUSH1 0xFF AND DUP2 SLOAD DUP2 LT PUSH2 0x32B JUMPI PUSH2 0x32A PUSH2 0xD8D JUMP JUMPDEST JUMPDEST SWAP1 PUSH1 0x0 MSTORE PUSH1 0x20 PUSH1 0x0 KECCAK256 SWAP1 PUSH1 0x2 MUL ADD PUSH1 0x1 ADD SLOAD GT ISZERO PUSH2 0x39A JUMPI PUSH1 0x1 DUP2 PUSH1 0xFF AND DUP2 SLOAD DUP2 LT PUSH2 0x35A JUMPI PUSH2 0x359 PUSH2 0xD8D JUMP JUMPDEST JUMPDEST SWAP1 PUSH1 0x0 MSTORE PUSH1 0x20 PUSH1 0x0 KECCAK256 SWAP1 PUSH1 0x2 MUL ADD PUSH1 0x0 ADD SLOAD SWAP3 POP PUSH1 0x1 DUP2 PUSH1 0xFF AND DUP2 SLOAD DUP2 LT PUSH2 0x385 JUMPI PUSH2 0x384 PUSH2 0xD8D JUMP JUMPDEST JUMPDEST SWAP1 PUSH1 0x0 MSTORE PUSH1 0x20 PUSH1 0x0 KECCAK256 SWAP1 PUSH1 0x2 MUL ADD PUSH1 0x1 ADD SLOAD SWAP2 POP JUMPDEST DUP1 DUP1 PUSH2 0x3A5 SWAP1 PUSH2 0xD34 JUMP JUMPDEST SWAP2 POP POP PUSH2 0x303 JUMP JUMPDEST POP POP SWAP1 JUMP JUMPDEST PUSH1 0x2 PUSH1 0x0 SWAP1 SLOAD SWAP1 PUSH2 0x100 EXP SWAP1 DIV PUSH20 0xFFFFFFFFFFFFFFFFFFFFFFFFFFFFFFFFFFFFFFFF AND DUP2 JUMP JUMPDEST CALLER PUSH20 0xFFFFFFFFFFFFFFFFFFFFFFFFFFFFFFFFFFFFFFFF AND PUSH1 0x2 PUSH1 0x0 SWAP1 SLOAD SWAP1 PUSH2 0x100 EXP SWAP1 DIV PUSH20 0xFFFFFFFFFFFFFFFFFFFFFFFFFFFFFFFFFFFFFFFF AND PUSH20 0xFFFFFFFFFFFFFFFFFFFFFFFFFFFFFFFFFFFFFFFF AND EQ PUSH2 0x468 JUMPI PUSH1 0x40 MLOAD PUSH32 0x8C379A000000000000000000000000000000000000000000000000000000000 DUP2 MSTORE PUSH1 0x4 ADD PUSH2 0x45F SWAP1 PUSH2 0xBEE JUMP JUMPDEST PUSH1 0x40 MLOAD DUP1 SWAP2 SUB SWAP1 REVERT JUMPDEST PUSH1 0x1 ISZERO ISZERO PUSH1 0x2 PUSH1 0x14 SWAP1 SLOAD SWAP1 PUSH2 0x100 EXP SWAP1 DIV PUSH1 0xFF AND ISZERO ISZERO EQ PUSH2 0x4BE JUMPI PUSH1 0x40 MLOAD PUSH32 0x8C379A000000000000000000000000000000000000000000000000000000000 DUP2 MSTORE PUSH1 0x4 ADD PUSH2 0x4B5 SWAP1 PUSH2 0xBAE JUMP JUMPDEST PUSH1 0x40 MLOAD DUP1 SWAP2 SUB SWAP1 REVERT JUMPDEST DUP1 PUSH1 0x0 DUP1 DUP3 PUSH20 0xFFFFFFFFFFFFFFFFFFFFFFFFFFFFFFFFFFFFFFFF AND PUSH20 0xFFFFFFFFFFFFFFFFFFFFFFFFFFFFFFFFFFFFFFFF AND DUP2 MSTORE PUSH1 0x20 ADD SWAP1 DUP2 MSTORE PUSH1 0x20 ADD PUSH1 0x0 KECCAK256 PUSH1 0x0 ADD PUSH1 0x0 SWAP1 SLOAD SWAP1 PUSH2 0x100 EXP SWAP1 DIV PUSH1 0xFF AND ISZERO PUSH2 0x54E JUMPI PUSH1 0x40 MLOAD PUSH32 0x8C379A000000000000000000000000000000000000000000000000000000000 DUP2 MSTORE PUSH1 0x4 ADD PUSH2 0x545 SWAP1 PUSH2 0xC4E JUMP JUMPDEST PUSH1 0x40 MLOAD DUP1 SWAP2 SUB SWAP1 REVERT JUMPDEST DUP2 PUSH1 0x0 DUP1 PUSH1 0x0 DUP4 PUSH20 0xFFFFFFFFFFFFFFFFFFFFFFFFFFFFFFFFFFFFFFFF AND PUSH20 0xFFFFFFFFFFFFFFFFFFFFFFFFFFFFFFFFFFFFFFFF AND DUP2 MSTORE PUSH1 0x20 ADD SWAP1 DUP2 MSTORE PUSH1 0x20 ADD PUSH1 0x0 KECCAK256 PUSH1 0x0 ADD PUSH1 0x2 SWAP1 SLOAD SWAP1 PUSH2 0x100 EXP SWAP1 DIV PUSH4 0xFFFFFFFF AND PUSH4 0xFFFFFFFF AND EQ PUSH2 0x5E9 JUMPI PUSH1 0x40 MLOAD PUSH32 0x8C379A000000000000000000000000000000000000000000000000000000000 DUP2 MSTORE PUSH1 0x4 ADD PUSH2 0x5E0 SWAP1 PUSH2 0xBCE JUMP JUMPDEST PUSH1 0x40 MLOAD DUP1 SWAP2 SUB SWAP1 REVERT JUMPDEST PUSH1 0x1 PUSH1 0x0 DUP1 DUP6 PUSH20 0xFFFFFFFFFFFFFFFFFFFFFFFFFFFFFFFFFFFFFFFF AND PUSH20 0xFFFFFFFFFFFFFFFFFFFFFFFFFFFFFFFFFFFFFFFF AND DUP2 MSTORE PUSH1 0x20 ADD SWAP1 DUP2 MSTORE PUSH1 0x20 ADD PUSH1 0x0 KECCAK256 PUSH1 0x0 ADD PUSH1 0x2 PUSH2 0x100 EXP DUP2 SLOAD DUP2 PUSH4 0xFFFFFFFF MUL NOT AND SWAP1 DUP4 PUSH4 0xFFFFFFFF AND MUL OR SWAP1 SSTORE POP POP POP POP JUMP JUMPDEST PUSH1 0x1 ISZERO ISZERO PUSH1 0x2 PUSH1 0x14 SWAP1 SLOAD SWAP1 PUSH2 0x100 EXP SWAP1 DIV PUSH1 0xFF AND ISZERO ISZERO EQ PUSH2 0x6A5 JUMPI PUSH1 0x40 MLOAD PUSH32 0x8C379A000000000000000000000000000000000000000000000000000000000 DUP2 MSTORE PUSH1 0x4 ADD PUSH2 0x69C SWAP1 PUSH2 0xBAE JUMP JUMPDEST PUSH1 0x40 MLOAD DUP1 SWAP2 SUB SWAP1 REVERT JUMPDEST DUP1 CALLER PUSH20 0xFFFFFFFFFFFFFFFFFFFFFFFFFFFFFFFFFFFFFFFF AND DUP2 PUSH20 0xFFFFFFFFFFFFFFFFFFFFFFFFFFFFFFFFFFFFFFFF AND EQ PUSH2 0x714 JUMPI PUSH1 0x40 MLOAD PUSH32 0x8C379A000000000000000000000000000000000000000000000000000000000 DUP2 MSTORE PUSH1 0x4 ADD PUSH2 0x70B SWAP1 PUSH2 0xC2E JUMP JUMPDEST PUSH1 0x40 MLOAD DUP1 SWAP2 SUB SWAP1 REVERT JUMPDEST DUP2 PUSH1 0x0 DUP1 PUSH1 0x0 DUP4 PUSH20 0xFFFFFFFFFFFFFFFFFFFFFFFFFFFFFFFFFFFFFFFF AND PUSH20 0xFFFFFFFFFFFFFFFFFFFFFFFFFFFFFFFFFFFFFFFF AND DUP2 MSTORE PUSH1 0x20 ADD SWAP1 DUP2 MSTORE PUSH1 0x20 ADD PUSH1 0x0 KECCAK256 PUSH1 0x0 ADD PUSH1 0x2 SWAP1 SLOAD SWAP1 PUSH2 0x100 EXP SWAP1 DIV PUSH4 0xFFFFFFFF AND PUSH4 0xFFFFFFFF AND EQ ISZERO PUSH2 0x7B0 JUMPI PUSH1 0x40 MLOAD PUSH32 0x8C379A000000000000000000000000000000000000000000000000000000000 DUP2 MSTORE PUSH1 0x4 ADD PUSH2 0x7A7 SWAP1 PUSH2 0xC0E JUMP JUMPDEST PUSH1 0x40 MLOAD DUP1 SWAP2 SUB SWAP1 REVERT JUMPDEST DUP3 PUSH1 0x0 DUP1 DUP3 PUSH20 0xFFFFFFFFFFFFFFFFFFFFFFFFFFFFFFFFFFFFFFFF AND PUSH20 0xFFFFFFFFFFFFFFFFFFFFFFFFFFFFFFFFFFFFFFFF AND DUP2 MSTORE PUSH1 0x20 ADD SWAP1 DUP2 MSTORE PUSH1 0x20 ADD PUSH1 0x0 KECCAK256 PUSH1 0x0 ADD PUSH1 0x0 SWAP1 SLOAD SWAP1 PUSH2 0x100 EXP SWAP1 DIV PUSH1 0xFF AND ISZERO PUSH2 0x840 JUMPI PUSH1 0x40 MLOAD PUSH32 0x8C379A000000000000000000000000000000000000000000000000000000000 DUP2 MSTORE PUSH1 0x4 ADD PUSH2 0x837 SWAP1 PUSH2 0xC4E JUMP JUMPDEST PUSH1 0x40 MLOAD DUP1 SWAP2 SUB SWAP1 REVERT JUMPDEST PUSH1 0x1 PUSH1 0x0 DUP1 DUP7 PUSH20 0xFFFFFFFFFFFFFFFFFFFFFFFFFFFFFFFFFFFFFFFF AND PUSH20 0xFFFFFFFFFFFFFFFFFFFFFFFFFFFFFFFFFFFFFFFF AND DUP2 MSTORE PUSH1 0x20 ADD SWAP1 DUP2 MSTORE PUSH1 0x20 ADD PUSH1 0x0 KECCAK256 PUSH1 0x0 ADD PUSH1 0x0 PUSH2 0x100 EXP DUP2 SLOAD DUP2 PUSH1 0xFF MUL NOT AND SWAP1 DUP4 ISZERO ISZERO MUL OR SWAP1 SSTORE POP DUP5 PUSH1 0x0 DUP1 DUP7 PUSH20 0xFFFFFFFFFFFFFFFFFFFFFFFFFFFFFFFFFFFFFFFF AND PUSH20 0xFFFFFFFFFFFFFFFFFFFFFFFFFFFFFFFFFFFFFFFF AND DUP2 MSTORE PUSH1 0x20 ADD SWAP1 DUP2 MSTORE PUSH1 0x20 ADD PUSH1 0x0 KECCAK256 PUSH1 0x0 ADD PUSH1 0x1 PUSH2 0x100 EXP DUP2 SLOAD DUP2 PUSH1 0xFF MUL NOT AND SWAP1 DUP4 PUSH1 0xFF AND MUL OR SWAP1 SSTORE POP PUSH1 0x1 DUP1 DUP7 PUSH1 0xFF AND DUP2 SLOAD DUP2 LT PUSH2 0x90C JUMPI PUSH2 0x90B PUSH2 0xD8D JUMP JUMPDEST JUMPDEST SWAP1 PUSH1 0x0 MSTORE PUSH1 0x20 PUSH1 0x0 KECCAK256 SWAP1 PUSH1 0x2 MUL ADD PUSH1 0x1 ADD PUSH1 0x0 DUP3 DUP3 SLOAD PUSH2 0x92C SWAP2 SWAP1 PUSH2 0xC7F JUMP JUMPDEST SWAP3 POP POP DUP2 SWAP1 SSTORE POP POP POP POP POP POP JUMP JUMPDEST PUSH1 0x2 PUSH1 0x14 SWAP1 SLOAD SWAP1 PUSH2 0x100 EXP SWAP1 DIV PUSH1 0xFF AND DUP2 JUMP JUMPDEST PUSH1 0x0 DUP2 CALLDATALOAD SWAP1 POP PUSH2 0x95C DUP2 PUSH2 0xF4F JUMP JUMPDEST SWAP3 SWAP2 POP POP JUMP JUMPDEST PUSH1 0x0 DUP2 CALLDATALOAD SWAP1 POP PUSH2 0x971 DUP2 PUSH2 0xF66 JUMP JUMPDEST SWAP3 SWAP2 POP POP JUMP JUMPDEST PUSH1 0x0 DUP2 CALLDATALOAD SWAP1 POP PUSH2 0x986 DUP2 PUSH2 0xF7D JUMP JUMPDEST SWAP3 SWAP2 POP POP JUMP JUMPDEST PUSH1 0x0 PUSH1 0x20 DUP3 DUP5 SUB SLT ISZERO PUSH2 0x9A2 JUMPI PUSH2 0x9A1 PUSH2 0xDBC JUMP JUMPDEST JUMPDEST PUSH1 0x0 PUSH2 0x9B0 DUP5 DUP3 DUP6 ADD PUSH2 0x94D JUMP JUMPDEST SWAP2 POP POP SWAP3 SWAP2 POP POP JUMP JUMPDEST PUSH1 0x0 PUSH1 0x20 DUP3 DUP5 SUB SLT ISZERO PUSH2 0x9CF JUMPI PUSH2 0x9CE PUSH2 0xDBC JUMP JUMPDEST JUMPDEST PUSH1 0x0 PUSH2 0x9DD DUP5 DUP3 DUP6 ADD PUSH2 0x962 JUMP JUMPDEST SWAP2 POP POP SWAP3 SWAP2 POP POP JUMP JUMPDEST PUSH1 0x0 DUP1 PUSH1 0x40 DUP4 DUP6 SUB SLT ISZERO PUSH2 0x9FD JUMPI PUSH2 0x9FC PUSH2 0xDBC JUMP JUMPDEST JUMPDEST PUSH1 0x0 PUSH2 0xA0B DUP6 DUP3 DUP7 ADD PUSH2 0x977 JUMP JUMPDEST SWAP3 POP POP PUSH1 0x20 PUSH2 0xA1C DUP6 DUP3 DUP7 ADD PUSH2 0x94D JUMP JUMPDEST SWAP2 POP POP SWAP3 POP SWAP3 SWAP1 POP JUMP JUMPDEST PUSH2 0xA2F DUP2 PUSH2 0xCD5 JUMP JUMPDEST DUP3 MSTORE POP POP JUMP JUMPDEST PUSH2 0xA3E DUP2 PUSH2 0xCE7 JUMP JUMPDEST DUP3 MSTORE POP POP JUMP JUMPDEST PUSH2 0xA4D DUP2 PUSH2 0xCF3 JUMP JUMPDEST DUP3 MSTORE POP POP JUMP JUMPDEST PUSH1 0x0 PUSH2 0xA60 PUSH1 0x11 DUP4 PUSH2 0xC6E JUMP JUMPDEST SWAP2 POP PUSH2 0xA6B DUP3 PUSH2 0xDC1 JUMP JUMPDEST PUSH1 0x20 DUP3 ADD SWAP1 POP SWAP2 SWAP1 POP JUMP JUMPDEST PUSH1 0x0 PUSH2 0xA83 PUSH1 0x21 DUP4 PUSH2 0xC6E JUMP JUMPDEST SWAP2 POP PUSH2 0xA8E DUP3 PUSH2 0xDEA JUMP JUMPDEST PUSH1 0x40 DUP3 ADD SWAP1 POP SWAP2 SWAP1 POP JUMP JUMPDEST PUSH1 0x0 PUSH2 0xAA6 PUSH1 0x28 DUP4 PUSH2 0xC6E JUMP JUMPDEST SWAP2 POP PUSH2 0xAB1 DUP3 PUSH2 0xE39 JUMP JUMPDEST PUSH1 0x40 DUP3 ADD SWAP1 POP SWAP2 SWAP1 POP JUMP JUMPDEST PUSH1 0x0 PUSH2 0xAC9 PUSH1 0x21 DUP4 PUSH2 0xC6E JUMP JUMPDEST SWAP2 POP PUSH2 0xAD4 DUP3 PUSH2 0xE88 JUMP JUMPDEST PUSH1 0x40 DUP3 ADD SWAP1 POP SWAP2 SWAP1 POP JUMP JUMPDEST PUSH1 0x0 PUSH2 0xAEC PUSH1 0x2E DUP4 PUSH2 0xC6E JUMP JUMPDEST SWAP2 POP PUSH2 0xAF7 DUP3 PUSH2 0xED7 JUMP JUMPDEST PUSH1 0x40 DUP3 ADD SWAP1 POP SWAP2 SWAP1 POP JUMP JUMPDEST PUSH1 0x0 PUSH2 0xB0F PUSH1 0x18 DUP4 PUSH2 0xC6E JUMP JUMPDEST SWAP2 POP PUSH2 0xB1A DUP3 PUSH2 0xF26 JUMP JUMPDEST PUSH1 0x20 DUP3 ADD SWAP1 POP SWAP2 SWAP1 POP JUMP JUMPDEST PUSH2 0xB2E DUP2 PUSH2 0xD1D JUMP JUMPDEST DUP3 MSTORE POP POP JUMP JUMPDEST PUSH1 0x0 PUSH1 0x20 DUP3 ADD SWAP1 POP PUSH2 0xB49 PUSH1 0x0 DUP4 ADD DUP5 PUSH2 0xA26 JUMP JUMPDEST SWAP3 SWAP2 POP POP JUMP JUMPDEST PUSH1 0x0 PUSH1 0x20 DUP3 ADD SWAP1 POP PUSH2 0xB64 PUSH1 0x0 DUP4 ADD DUP5 PUSH2 0xA35 JUMP JUMPDEST SWAP3 SWAP2 POP POP JUMP JUMPDEST PUSH1 0x0 PUSH1 0x20 DUP3 ADD SWAP1 POP PUSH2 0xB7F PUSH1 0x0 DUP4 ADD DUP5 PUSH2 0xA44 JUMP JUMPDEST SWAP3 SWAP2 POP POP JUMP JUMPDEST PUSH1 0x0 PUSH1 0x40 DUP3 ADD SWAP1 POP PUSH2 0xB9A PUSH1 0x0 DUP4 ADD DUP6 PUSH2 0xA44 JUMP JUMPDEST PUSH2 0xBA7 PUSH1 0x20 DUP4 ADD DUP5 PUSH2 0xB25 JUMP JUMPDEST SWAP4 SWAP3 POP POP POP JUMP JUMPDEST PUSH1 0x0 PUSH1 0x20 DUP3 ADD SWAP1 POP DUP2 DUP2 SUB PUSH1 0x0 DUP4 ADD MSTORE PUSH2 0xBC7 DUP2 PUSH2 0xA53 JUMP JUMPDEST SWAP1 POP SWAP2 SWAP1 POP JUMP JUMPDEST PUSH1 0x0 PUSH1 0x20 DUP3 ADD SWAP1 POP DUP2 DUP2 SUB PUSH1 0x0 DUP4 ADD MSTORE PUSH2 0xBE7 DUP2 PUSH2 0xA76 JUMP JUMPDEST SWAP1 POP SWAP2 SWAP1 POP JUMP JUMPDEST PUSH1 0x0 PUSH1 0x20 DUP3 ADD SWAP1 POP DUP2 DUP2 SUB PUSH1 0x0 DUP4 ADD MSTORE PUSH2 0xC07 DUP2 PUSH2 0xA99 JUMP JUMPDEST SWAP1 POP SWAP2 SWAP1 POP JUMP JUMPDEST PUSH1 0x0 PUSH1 0x20 DUP3 ADD SWAP1 POP DUP2 DUP2 SUB PUSH1 0x0 DUP4 ADD MSTORE PUSH2 0xC27 DUP2 PUSH2 0xABC JUMP JUMPDEST SWAP1 POP SWAP2 SWAP1 POP JUMP JUMPDEST PUSH1 0x0 PUSH1 0x20 DUP3 ADD SWAP1 POP DUP2 DUP2 SUB PUSH1 0x0 DUP4 ADD MSTORE PUSH2 0xC47 DUP2 PUSH2 0xADF JUMP JUMPDEST SWAP1 POP SWAP2 SWAP1 POP JUMP JUMPDEST PUSH1 0x0 PUSH1 0x20 DUP3 ADD SWAP1 POP DUP2 DUP2 SUB PUSH1 0x0 DUP4 ADD MSTORE PUSH2 0xC67 DUP2 PUSH2 0xB02 JUMP JUMPDEST SWAP1 POP SWAP2 SWAP1 POP JUMP JUMPDEST PUSH1 0x0 DUP3 DUP3 MSTORE PUSH1 0x20 DUP3 ADD SWAP1 POP SWAP3 SWAP2 POP POP JUMP JUMPDEST PUSH1 0x0 PUSH2 0xC8A DUP3 PUSH2 0xD1D JUMP JUMPDEST SWAP2 POP PUSH2 0xC95 DUP4 PUSH2 0xD1D JUMP JUMPDEST SWAP3 POP DUP3 PUSH32 0xFFFFFFFFFFFFFFFFFFFFFFFFFFFFFFFFFFFFFFFFFFFFFFFFFFFFFFFFFFFFFFFF SUB DUP3 GT ISZERO PUSH2 0xCCA JUMPI PUSH2 0xCC9 PUSH2 0xD5E JUMP JUMPDEST JUMPDEST DUP3 DUP3 ADD SWAP1 POP SWAP3 SWAP2 POP POP JUMP JUMPDEST PUSH1 0x0 PUSH2 0xCE0 DUP3 PUSH2 0xCFD JUMP JUMPDEST SWAP1 POP SWAP2 SWAP1 POP JUMP JUMPDEST PUSH1 0x0 DUP2 ISZERO ISZERO SWAP1 POP SWAP2 SWAP1 POP JUMP JUMPDEST PUSH1 0x0 DUP2 SWAP1 POP SWAP2 SWAP1 POP JUMP JUMPDEST PUSH1 0x0 PUSH20 0xFFFFFFFFFFFFFFFFFFFFFFFFFFFFFFFFFFFFFFFF DUP3 AND SWAP1 POP SWAP2 SWAP1 POP JUMP JUMPDEST PUSH1 0x0 DUP2 SWAP1 POP SWAP2 SWAP1 POP JUMP JUMPDEST PUSH1 0x0 PUSH1 0xFF DUP3 AND SWAP1 POP SWAP2 SWAP1 POP JUMP JUMPDEST PUSH1 0x0 PUSH2 0xD3F DUP3 PUSH2 0xD27 JUMP JUMPDEST SWAP2 POP PUSH1 0xFF DUP3 EQ ISZERO PUSH2 0xD53 JUMPI PUSH2 0xD52 PUSH2 0xD5E JUMP JUMPDEST JUMPDEST PUSH1 0x1 DUP3 ADD SWAP1 POP SWAP2 SWAP1 POP JUMP JUMPDEST PUSH32 0x4E487B7100000000000000000000000000000000000000000000000000000000 PUSH1 0x0 MSTORE PUSH1 0x11 PUSH1 0x4 MSTORE PUSH1 0x24 PUSH1 0x0 REVERT JUMPDEST PUSH32 0x4E487B7100000000000000000000000000000000000000000000000000000000 PUSH1 0x0 MSTORE PUSH1 0x32 PUSH1 0x4 MSTORE PUSH1 0x24 PUSH1 0x0 REVERT JUMPDEST PUSH1 0x0 DUP1 REVERT JUMPDEST PUSH32 0x566F7465732061726520636C6F7365642E000000000000000000000000000000 PUSH1 0x0 DUP3 ADD MSTORE POP JUMP JUMPDEST PUSH32 0x596F75206861766520616C7265616479206120726967687420746F20766F7465 PUSH1 0x0 DUP3 ADD MSTORE PUSH32 0x2E00000000000000000000000000000000000000000000000000000000000000 PUSH1 0x20 DUP3 ADD MSTORE POP JUMP JUMPDEST PUSH32 0x4F6E6C79206368616972706572736F6E2063616E206769766520726967687420 PUSH1 0x0 DUP3 ADD MSTORE PUSH32 0x746F20766F74652E000000000000000000000000000000000000000000000000 PUSH1 0x20 DUP3 ADD MSTORE POP JUMP JUMPDEST PUSH32 0x596F7520646F6E277420686176652074686520726967687420746F20766F7465 PUSH1 0x0 DUP3 ADD MSTORE PUSH32 0x2E00000000000000000000000000000000000000000000000000000000000000 PUSH1 0x20 DUP3 ADD MSTORE POP JUMP JUMPDEST PUSH32 0x596F7520617265206E6F7420616C6C6F77656420746F20766F74652077697468 PUSH1 0x0 DUP3 ADD MSTORE PUSH32 0x207468697320616464726573732E000000000000000000000000000000000000 PUSH1 0x20 DUP3 ADD MSTORE POP JUMP JUMPDEST PUSH32 0x54686520766F74657220616C726561647920766F7465642E0000000000000000 PUSH1 0x0 DUP3 ADD MSTORE POP JUMP JUMPDEST PUSH2 0xF58 DUP2 PUSH2 0xCD5 JUMP JUMPDEST DUP2 EQ PUSH2 0xF63 JUMPI PUSH1 0x0 DUP1 REVERT JUMPDEST POP JUMP JUMPDEST PUSH2 0xF6F DUP2 PUSH2 0xD1D JUMP JUMPDEST DUP2 EQ PUSH2 0xF7A JUMPI PUSH1 0x0 DUP1 REVERT JUMPDEST POP JUMP JUMPDEST PUSH2 0xF86 DUP2 PUSH2 0xD27 JUMP JUMPDEST DUP2 EQ PUSH2 0xF91 JUMPI PUSH1 0x0 DUP1 REVERT JUMPDEST POP JUMP INVALID LOG2 PUSH5 0x6970667358 0x22 SLT KECCAK256 SAR ADDRESS 0xBA KECCAK256 PUSH28 0x993EB2BD8BA13546789A29F9940514A0E078ECC1729919830F339164 PUSH20 0x6F6C634300080700330000000000000000000000 "
				},
				"gasEstimates": {
					"creation": {
						"codeDepositCost": "808400",
						"executionCost": "infinite",
						"totalCost": "infinite"
					},
					"external": {
						"chairman()": "2514",
						"finalWinnerName()": "infinite",
						"giveRightToVote(address)": "33854",
						"openVote()": "2587",
						"proposalWinnerName()": "infinite",
						"proposals(uint256)": "infinite",
						"vote(uint8,address)": "infinite"
					}
				},
				"methodIdentifiers": {
					"chairman()": "87f7b975",
					"finalWinnerName()": "5d3f0ae9",
					"giveRightToVote(address)": "9e7b8d61",
					"openVote()": "d107d8c2",
					"proposalWinnerName()": "72133c96",
					"proposals(uint256)": "013cf08b",
					"vote(uint8,address)": "b81c6453"
				}
			},
			"storageLayout": {
				"storage": [
					{
						"astId": 20,
						"contract": "contracts/3_Ballot.sol:Vote",
						"label": "voters",
						"offset": 0,
						"slot": "0",
						"type": "t_mapping(t_address,t_struct(Voter)10_storage)"
					},
					{
						"astId": 24,
						"contract": "contracts/3_Ballot.sol:Vote",
						"label": "proposals",
						"offset": 0,
						"slot": "1",
						"type": "t_array(t_struct(Proposal)15_storage)dyn_storage"
					},
					{
						"astId": 26,
						"contract": "contracts/3_Ballot.sol:Vote",
						"label": "chairman",
						"offset": 0,
						"slot": "2",
						"type": "t_address"
					},
					{
						"astId": 29,
						"contract": "contracts/3_Ballot.sol:Vote",
						"label": "openVote",
						"offset": 20,
						"slot": "2",
						"type": "t_bool"
					}
				],
				"types": {
					"t_address": {
						"encoding": "inplace",
						"label": "address",
						"numberOfBytes": "20"
					},
					"t_array(t_struct(Proposal)15_storage)dyn_storage": {
						"base": "t_struct(Proposal)15_storage",
						"encoding": "dynamic_array",
						"label": "struct Vote.Proposal[]",
						"numberOfBytes": "32"
					},
					"t_bool": {
						"encoding": "inplace",
						"label": "bool",
						"numberOfBytes": "1"
					},
					"t_bytes32": {
						"encoding": "inplace",
						"label": "bytes32",
						"numberOfBytes": "32"
					},
					"t_mapping(t_address,t_struct(Voter)10_storage)": {
						"encoding": "mapping",
						"key": "t_address",
						"label": "mapping(address => struct Vote.Voter)",
						"numberOfBytes": "32",
						"value": "t_struct(Voter)10_storage"
					},
					"t_struct(Proposal)15_storage": {
						"encoding": "inplace",
						"label": "struct Vote.Proposal",
						"members": [
							{
								"astId": 12,
								"contract": "contracts/3_Ballot.sol:Vote",
								"label": "name",
								"offset": 0,
								"slot": "0",
								"type": "t_bytes32"
							},
							{
								"astId": 14,
								"contract": "contracts/3_Ballot.sol:Vote",
								"label": "voteCount",
								"offset": 0,
								"slot": "1",
								"type": "t_uint256"
							}
						],
						"numberOfBytes": "64"
					},
					"t_struct(Voter)10_storage": {
						"encoding": "inplace",
						"label": "struct Vote.Voter",
						"members": [
							{
								"astId": 3,
								"contract": "contracts/3_Ballot.sol:Vote",
								"label": "voted",
								"offset": 0,
								"slot": "0",
								"type": "t_bool"
							},
							{
								"astId": 5,
								"contract": "contracts/3_Ballot.sol:Vote",
								"label": "vote",
								"offset": 1,
								"slot": "0",
								"type": "t_uint8"
							},
							{
								"astId": 7,
								"contract": "contracts/3_Ballot.sol:Vote",
								"label": "weight",
								"offset": 2,
								"slot": "0",
								"type": "t_uint32"
							},
							{
								"astId": 9,
								"contract": "contracts/3_Ballot.sol:Vote",
								"label": "delegate",
								"offset": 6,
								"slot": "0",
								"type": "t_address"
							}
						],
						"numberOfBytes": "32"
					},
					"t_uint256": {
						"encoding": "inplace",
						"label": "uint256",
						"numberOfBytes": "32"
					},
					"t_uint32": {
						"encoding": "inplace",
						"label": "uint32",
						"numberOfBytes": "4"
					},
					"t_uint8": {
						"encoding": "inplace",
						"label": "uint8",
						"numberOfBytes": "1"
					}
				}
			},
			"userdoc": {
				"kind": "user",
				"methods": {},
				"version": 1
			}
		}
	}
}