{
	"contracts/Test.sol": {
		"Agency": {
			"abi": [
				{
					"inputs": [
						{
							"internalType": "uint256",
							"name": "_price",
							"type": "uint256"
						},
						{
							"internalType": "uint256",
							"name": "_size",
							"type": "uint256"
						},
						{
							"internalType": "string",
							"name": "location",
							"type": "string"
						}
					],
					"name": "addHouse",
					"outputs": [],
					"stateMutability": "nonpayable",
					"type": "function"
				},
				{
					"inputs": [],
					"name": "getHouse",
					"outputs": [],
					"stateMutability": "nonpayable",
					"type": "function"
				}
			],
			"devdoc": {
				"kind": "dev",
				"methods": {},
				"version": 1
			},
			"evm": {
				"assembly": "    /* \"contracts/Test.sol\":255:652  contract Agency is Owner {... */\n  mstore(0x40, 0x80)\n  callvalue\n  dup1\n  iszero\n  tag_1\n  jumpi\n  0x00\n  dup1\n  revert\ntag_1:\n  pop\n    /* \"contracts/Test.sol\":124:129  owner */\n  0x00\n    /* \"contracts/Test.sol\":124:142  owner = msg.sender */\n  dup1\n  sload\n  not(sub(exp(0x02, 0xa0), 0x01))\n  and\n    /* \"contracts/Test.sol\":132:142  msg.sender */\n  caller\n    /* \"contracts/Test.sol\":124:142  owner = msg.sender */\n  or\n  swap1\n  sstore\n    /* \"contracts/Test.sol\":255:652  contract Agency is Owner {... */\n  dataSize(sub_0)\n  dup1\n  dataOffset(sub_0)\n  0x00\n  codecopy\n  0x00\n  return\nstop\n\nsub_0: assembly {\n        /* \"contracts/Test.sol\":255:652  contract Agency is Owner {... */\n      mstore(0x40, 0x80)\n      callvalue\n      dup1\n      iszero\n      tag_1\n      jumpi\n      0x00\n      dup1\n      revert\n    tag_1:\n      pop\n      jumpi(tag_2, lt(calldatasize, 0x04))\n      div(calldataload(0x00), 0x0100000000000000000000000000000000000000000000000000000000)\n      0x04e2064f\n      dup2\n      eq\n      tag_3\n      jumpi\n      dup1\n      0xe2b0966c\n      eq\n      tag_4\n      jumpi\n    tag_2:\n      0x00\n      dup1\n      revert\n        /* \"contracts/Test.sol\":603:650  function getHouse() external onlyOwner {... */\n    tag_3:\n      tag_5\n      tag_6\n      jump\t// in\n    tag_5:\n      stop\n        /* \"contracts/Test.sol\":503:597  function addHouse(uint _price, uint _size, string memory location) external onlyOwner {... */\n    tag_4:\n      tag_5\n      tag_8\n      calldatasize\n      0x04\n      tag_9\n      jump\t// in\n    tag_8:\n      tag_10\n      jump\t// in\n        /* \"contracts/Test.sol\":603:650  function getHouse() external onlyOwner {... */\n    tag_6:\n        /* \"contracts/Test.sol\":208:213  owner */\n      and(0xffffffffffffffffffffffffffffffffffffffff, sload(0x00))\n        /* \"contracts/Test.sol\":194:204  msg.sender */\n      caller\n        /* \"contracts/Test.sol\":194:213  msg.sender == owner */\n      eq\n        /* \"contracts/Test.sol\":186:232  require(msg.sender == owner, \"Not this owner\") */\n      tag_12\n      jumpi\n      mload(0x40)\n      0x08c379a000000000000000000000000000000000000000000000000000000000\n      dup2\n      mstore\n        /* \"#utility.yul\":1279:1281   */\n      0x20\n        /* \"contracts/Test.sol\":186:232  require(msg.sender == owner, \"Not this owner\") */\n      0x04\n      dup3\n      add\n        /* \"#utility.yul\":1261:1282   */\n      mstore\n        /* \"#utility.yul\":1318:1320   */\n      0x0e\n        /* \"#utility.yul\":1298:1316   */\n      0x24\n      dup3\n      add\n        /* \"#utility.yul\":1291:1321   */\n      mstore\n        /* \"#utility.yul\":1357:1373   */\n      0x4e6f742074686973206f776e6572000000000000000000000000000000000000\n        /* \"#utility.yul\":1337:1355   */\n      0x44\n      dup3\n      add\n        /* \"#utility.yul\":1330:1374   */\n      mstore\n        /* \"#utility.yul\":1391:1409   */\n      0x64\n      add\n        /* \"contracts/Test.sol\":186:232  require(msg.sender == owner, \"Not this owner\") */\n    tag_13:\n      mload(0x40)\n      dup1\n      swap2\n      sub\n      swap1\n      revert\n    tag_12:\n        /* \"contracts/Test.sol\":603:650  function getHouse() external onlyOwner {... */\n      jump\t// out\n        /* \"contracts/Test.sol\":503:597  function addHouse(uint _price, uint _size, string memory location) external onlyOwner {... */\n    tag_10:\n        /* \"contracts/Test.sol\":208:213  owner */\n      and(0xffffffffffffffffffffffffffffffffffffffff, sload(0x00))\n        /* \"contracts/Test.sol\":194:204  msg.sender */\n      caller\n        /* \"contracts/Test.sol\":194:213  msg.sender == owner */\n      eq\n        /* \"contracts/Test.sol\":186:232  require(msg.sender == owner, \"Not this owner\") */\n      tag_17\n      jumpi\n      mload(0x40)\n      0x08c379a000000000000000000000000000000000000000000000000000000000\n      dup2\n      mstore\n        /* \"#utility.yul\":1279:1281   */\n      0x20\n        /* \"contracts/Test.sol\":186:232  require(msg.sender == owner, \"Not this owner\") */\n      0x04\n      dup3\n      add\n        /* \"#utility.yul\":1261:1282   */\n      mstore\n        /* \"#utility.yul\":1318:1320   */\n      0x0e\n        /* \"#utility.yul\":1298:1316   */\n      0x24\n      dup3\n      add\n        /* \"#utility.yul\":1291:1321   */\n      mstore\n        /* \"#utility.yul\":1357:1373   */\n      0x4e6f742074686973206f776e6572000000000000000000000000000000000000\n        /* \"#utility.yul\":1337:1355   */\n      0x44\n      dup3\n      add\n        /* \"#utility.yul\":1330:1374   */\n      mstore\n        /* \"#utility.yul\":1391:1409   */\n      0x64\n      add\n        /* \"contracts/Test.sol\":186:232  require(msg.sender == owner, \"Not this owner\") */\n      tag_13\n        /* \"#utility.yul\":1077:1415   */\n      jump\n        /* \"contracts/Test.sol\":186:232  require(msg.sender == owner, \"Not this owner\") */\n    tag_17:\n        /* \"contracts/Test.sol\":503:597  function addHouse(uint _price, uint _size, string memory location) external onlyOwner {... */\n      pop\n      pop\n      pop\n      jump\t// out\n        /* \"#utility.yul\":14:1072   */\n    tag_9:\n        /* \"#utility.yul\":101:107   */\n      0x00\n        /* \"#utility.yul\":109:115   */\n      dup1\n        /* \"#utility.yul\":117:123   */\n      0x00\n        /* \"#utility.yul\":170:172   */\n      0x60\n        /* \"#utility.yul\":158:167   */\n      dup5\n        /* \"#utility.yul\":149:156   */\n      dup7\n        /* \"#utility.yul\":145:168   */\n      sub\n        /* \"#utility.yul\":141:173   */\n      slt\n        /* \"#utility.yul\":138:190   */\n      iszero\n      tag_22\n      jumpi\n        /* \"#utility.yul\":186:187   */\n      0x00\n        /* \"#utility.yul\":183:184   */\n      dup1\n        /* \"#utility.yul\":176:188   */\n      revert\n        /* \"#utility.yul\":138:190   */\n    tag_22:\n        /* \"#utility.yul\":222:231   */\n      dup4\n        /* \"#utility.yul\":209:232   */\n      calldataload\n        /* \"#utility.yul\":199:232   */\n      swap3\n      pop\n        /* \"#utility.yul\":279:281   */\n      0x20\n        /* \"#utility.yul\":268:277   */\n      dup5\n        /* \"#utility.yul\":264:282   */\n      add\n        /* \"#utility.yul\":251:283   */\n      calldataload\n        /* \"#utility.yul\":241:283   */\n      swap2\n      pop\n        /* \"#utility.yul\":334:336   */\n      0x40\n        /* \"#utility.yul\":323:332   */\n      dup5\n        /* \"#utility.yul\":319:337   */\n      add\n        /* \"#utility.yul\":306:338   */\n      calldataload\n        /* \"#utility.yul\":357:375   */\n      0xffffffffffffffff\n        /* \"#utility.yul\":398:400   */\n      dup1\n        /* \"#utility.yul\":390:396   */\n      dup3\n        /* \"#utility.yul\":387:401   */\n      gt\n        /* \"#utility.yul\":384:418   */\n      iszero\n      tag_23\n      jumpi\n        /* \"#utility.yul\":414:415   */\n      0x00\n        /* \"#utility.yul\":411:412   */\n      dup1\n        /* \"#utility.yul\":404:416   */\n      revert\n        /* \"#utility.yul\":384:418   */\n    tag_23:\n        /* \"#utility.yul\":452:458   */\n      dup2\n        /* \"#utility.yul\":441:450   */\n      dup7\n        /* \"#utility.yul\":437:459   */\n      add\n        /* \"#utility.yul\":427:459   */\n      swap2\n      pop\n        /* \"#utility.yul\":497:504   */\n      dup7\n        /* \"#utility.yul\":490:494   */\n      0x1f\n        /* \"#utility.yul\":486:488   */\n      dup4\n        /* \"#utility.yul\":482:495   */\n      add\n        /* \"#utility.yul\":478:505   */\n      slt\n        /* \"#utility.yul\":468:523   */\n      tag_24\n      jumpi\n        /* \"#utility.yul\":519:520   */\n      0x00\n        /* \"#utility.yul\":516:517   */\n      dup1\n        /* \"#utility.yul\":509:521   */\n      revert\n        /* \"#utility.yul\":468:523   */\n    tag_24:\n        /* \"#utility.yul\":555:557   */\n      dup2\n        /* \"#utility.yul\":542:558   */\n      calldataload\n        /* \"#utility.yul\":577:579   */\n      dup2\n        /* \"#utility.yul\":573:575   */\n      dup2\n        /* \"#utility.yul\":570:580   */\n      gt\n        /* \"#utility.yul\":567:603   */\n      iszero\n      tag_26\n      jumpi\n        /* \"#utility.yul\":583:601   */\n      tag_26\n      tag_27\n      jump\t// in\n    tag_26:\n        /* \"#utility.yul\":658:660   */\n      0x40\n        /* \"#utility.yul\":652:661   */\n      mload\n        /* \"#utility.yul\":626:628   */\n      0x1f\n        /* \"#utility.yul\":712:725   */\n      dup3\n      add\n      not(0x1f)\n        /* \"#utility.yul\":708:730   */\n      swap1\n      dup2\n      and\n        /* \"#utility.yul\":732:734   */\n      0x3f\n        /* \"#utility.yul\":704:735   */\n      add\n        /* \"#utility.yul\":700:740   */\n      and\n        /* \"#utility.yul\":688:741   */\n      dup2\n      add\n      swap1\n        /* \"#utility.yul\":756:774   */\n      dup4\n      dup3\n      gt\n        /* \"#utility.yul\":776:798   */\n      dup2\n      dup4\n      lt\n        /* \"#utility.yul\":753:799   */\n      or\n        /* \"#utility.yul\":750:822   */\n      iszero\n      tag_29\n      jumpi\n        /* \"#utility.yul\":802:820   */\n      tag_29\n      tag_27\n      jump\t// in\n    tag_29:\n        /* \"#utility.yul\":842:852   */\n      dup2\n        /* \"#utility.yul\":838:840   */\n      0x40\n        /* \"#utility.yul\":831:853   */\n      mstore\n        /* \"#utility.yul\":877:879   */\n      dup3\n        /* \"#utility.yul\":869:875   */\n      dup2\n        /* \"#utility.yul\":862:880   */\n      mstore\n        /* \"#utility.yul\":917:924   */\n      dup10\n        /* \"#utility.yul\":912:914   */\n      0x20\n        /* \"#utility.yul\":907:909   */\n      dup5\n        /* \"#utility.yul\":903:905   */\n      dup8\n        /* \"#utility.yul\":899:910   */\n      add\n        /* \"#utility.yul\":895:915   */\n      add\n        /* \"#utility.yul\":892:925   */\n      gt\n        /* \"#utility.yul\":889:942   */\n      iszero\n      tag_30\n      jumpi\n        /* \"#utility.yul\":938:939   */\n      0x00\n        /* \"#utility.yul\":935:936   */\n      dup1\n        /* \"#utility.yul\":928:940   */\n      revert\n        /* \"#utility.yul\":889:942   */\n    tag_30:\n        /* \"#utility.yul\":994:996   */\n      dup3\n        /* \"#utility.yul\":989:991   */\n      0x20\n        /* \"#utility.yul\":985:987   */\n      dup7\n        /* \"#utility.yul\":981:992   */\n      add\n        /* \"#utility.yul\":976:978   */\n      0x20\n        /* \"#utility.yul\":968:974   */\n      dup4\n        /* \"#utility.yul\":964:979   */\n      add\n        /* \"#utility.yul\":951:997   */\n      calldatacopy\n        /* \"#utility.yul\":1039:1040   */\n      0x00\n        /* \"#utility.yul\":1034:1036   */\n      0x20\n        /* \"#utility.yul\":1029:1031   */\n      dup5\n        /* \"#utility.yul\":1021:1027   */\n      dup4\n        /* \"#utility.yul\":1017:1032   */\n      add\n        /* \"#utility.yul\":1013:1037   */\n      add\n        /* \"#utility.yul\":1006:1041   */\n      mstore\n        /* \"#utility.yul\":1060:1066   */\n      dup1\n        /* \"#utility.yul\":1050:1066   */\n      swap6\n      pop\n      pop\n      pop\n      pop\n      pop\n      pop\n        /* \"#utility.yul\":14:1072   */\n      swap3\n      pop\n      swap3\n      pop\n      swap3\n      jump\t// out\n        /* \"#utility.yul\":1420:1604   */\n    tag_27:\n        /* \"#utility.yul\":1472:1549   */\n      0x4e487b7100000000000000000000000000000000000000000000000000000000\n        /* \"#utility.yul\":1469:1470   */\n      0x00\n        /* \"#utility.yul\":1462:1550   */\n      mstore\n        /* \"#utility.yul\":1569:1573   */\n      0x41\n        /* \"#utility.yul\":1566:1567   */\n      0x04\n        /* \"#utility.yul\":1559:1574   */\n      mstore\n        /* \"#utility.yul\":1593:1597   */\n      0x24\n        /* \"#utility.yul\":1590:1591   */\n      0x00\n        /* \"#utility.yul\":1583:1598   */\n      revert\n\n    auxdata: 0xa2646970667358221220c2a79066048a675db08c521e31934e439ad2ec0144d66cbca154dedf8aaa083064736f6c63430008070033\n}\n",
				"bytecode": {
					"linkReferences": {},
					"object": "608060405234801561001057600080fd5b5060008054600160a060020a031916331790556102ab806100326000396000f3fe608060405234801561001057600080fd5b5060043610610052577c0100000000000000000000000000000000000000000000000000000000600035046304e2064f8114610057578063e2b0966c14610061575b600080fd5b61005f610074565b005b61005f61006f366004610182565b6100fc565b60005473ffffffffffffffffffffffffffffffffffffffff1633146100fa576040517f08c379a000000000000000000000000000000000000000000000000000000000815260206004820152600e60248201527f4e6f742074686973206f776e657200000000000000000000000000000000000060448201526064015b60405180910390fd5b565b60005473ffffffffffffffffffffffffffffffffffffffff16331461017d576040517f08c379a000000000000000000000000000000000000000000000000000000000815260206004820152600e60248201527f4e6f742074686973206f776e657200000000000000000000000000000000000060448201526064016100f1565b505050565b60008060006060848603121561019757600080fd5b8335925060208401359150604084013567ffffffffffffffff808211156101bd57600080fd5b818601915086601f8301126101d157600080fd5b8135818111156101e3576101e3610246565b604051601f8201601f19908116603f0116810190838211818310171561020b5761020b610246565b8160405282815289602084870101111561022457600080fd5b8260208601602083013760006020848301015280955050505050509250925092565b7f4e487b7100000000000000000000000000000000000000000000000000000000600052604160045260246000fdfea2646970667358221220c2a79066048a675db08c521e31934e439ad2ec0144d66cbca154dedf8aaa083064736f6c63430008070033",
					"opcodes": "PUSH1 0x80 PUSH1 0x40 MSTORE CALLVALUE DUP1 ISZERO PUSH2 0x10 JUMPI PUSH1 0x0 DUP1 REVERT JUMPDEST POP PUSH1 0x0 DUP1 SLOAD PUSH1 0x1 PUSH1 0xA0 PUSH1 0x2 EXP SUB NOT AND CALLER OR SWAP1 SSTORE PUSH2 0x2AB DUP1 PUSH2 0x32 PUSH1 0x0 CODECOPY PUSH1 0x0 RETURN INVALID PUSH1 0x80 PUSH1 0x40 MSTORE CALLVALUE DUP1 ISZERO PUSH2 0x10 JUMPI PUSH1 0x0 DUP1 REVERT JUMPDEST POP PUSH1 0x4 CALLDATASIZE LT PUSH2 0x52 JUMPI PUSH29 0x100000000000000000000000000000000000000000000000000000000 PUSH1 0x0 CALLDATALOAD DIV PUSH4 0x4E2064F DUP2 EQ PUSH2 0x57 JUMPI DUP1 PUSH4 0xE2B0966C EQ PUSH2 0x61 JUMPI JUMPDEST PUSH1 0x0 DUP1 REVERT JUMPDEST PUSH2 0x5F PUSH2 0x74 JUMP JUMPDEST STOP JUMPDEST PUSH2 0x5F PUSH2 0x6F CALLDATASIZE PUSH1 0x4 PUSH2 0x182 JUMP JUMPDEST PUSH2 0xFC JUMP JUMPDEST PUSH1 0x0 SLOAD PUSH20 0xFFFFFFFFFFFFFFFFFFFFFFFFFFFFFFFFFFFFFFFF AND CALLER EQ PUSH2 0xFA JUMPI PUSH1 0x40 MLOAD PUSH32 0x8C379A000000000000000000000000000000000000000000000000000000000 DUP2 MSTORE PUSH1 0x20 PUSH1 0x4 DUP3 ADD MSTORE PUSH1 0xE PUSH1 0x24 DUP3 ADD MSTORE PUSH32 0x4E6F742074686973206F776E6572000000000000000000000000000000000000 PUSH1 0x44 DUP3 ADD MSTORE PUSH1 0x64 ADD JUMPDEST PUSH1 0x40 MLOAD DUP1 SWAP2 SUB SWAP1 REVERT JUMPDEST JUMP JUMPDEST PUSH1 0x0 SLOAD PUSH20 0xFFFFFFFFFFFFFFFFFFFFFFFFFFFFFFFFFFFFFFFF AND CALLER EQ PUSH2 0x17D JUMPI PUSH1 0x40 MLOAD PUSH32 0x8C379A000000000000000000000000000000000000000000000000000000000 DUP2 MSTORE PUSH1 0x20 PUSH1 0x4 DUP3 ADD MSTORE PUSH1 0xE PUSH1 0x24 DUP3 ADD MSTORE PUSH32 0x4E6F742074686973206F776E6572000000000000000000000000000000000000 PUSH1 0x44 DUP3 ADD MSTORE PUSH1 0x64 ADD PUSH2 0xF1 JUMP JUMPDEST POP POP POP JUMP JUMPDEST PUSH1 0x0 DUP1 PUSH1 0x0 PUSH1 0x60 DUP5 DUP7 SUB SLT ISZERO PUSH2 0x197 JUMPI PUSH1 0x0 DUP1 REVERT JUMPDEST DUP4 CALLDATALOAD SWAP3 POP PUSH1 0x20 DUP5 ADD CALLDATALOAD SWAP2 POP PUSH1 0x40 DUP5 ADD CALLDATALOAD PUSH8 0xFFFFFFFFFFFFFFFF DUP1 DUP3 GT ISZERO PUSH2 0x1BD JUMPI PUSH1 0x0 DUP1 REVERT JUMPDEST DUP2 DUP7 ADD SWAP2 POP DUP7 PUSH1 0x1F DUP4 ADD SLT PUSH2 0x1D1 JUMPI PUSH1 0x0 DUP1 REVERT JUMPDEST DUP2 CALLDATALOAD DUP2 DUP2 GT ISZERO PUSH2 0x1E3 JUMPI PUSH2 0x1E3 PUSH2 0x246 JUMP JUMPDEST PUSH1 0x40 MLOAD PUSH1 0x1F DUP3 ADD PUSH1 0x1F NOT SWAP1 DUP2 AND PUSH1 0x3F ADD AND DUP2 ADD SWAP1 DUP4 DUP3 GT DUP2 DUP4 LT OR ISZERO PUSH2 0x20B JUMPI PUSH2 0x20B PUSH2 0x246 JUMP JUMPDEST DUP2 PUSH1 0x40 MSTORE DUP3 DUP2 MSTORE DUP10 PUSH1 0x20 DUP5 DUP8 ADD ADD GT ISZERO PUSH2 0x224 JUMPI PUSH1 0x0 DUP1 REVERT JUMPDEST DUP3 PUSH1 0x20 DUP7 ADD PUSH1 0x20 DUP4 ADD CALLDATACOPY PUSH1 0x0 PUSH1 0x20 DUP5 DUP4 ADD ADD MSTORE DUP1 SWAP6 POP POP POP POP POP POP SWAP3 POP SWAP3 POP SWAP3 JUMP JUMPDEST PUSH32 0x4E487B7100000000000000000000000000000000000000000000000000000000 PUSH1 0x0 MSTORE PUSH1 0x41 PUSH1 0x4 MSTORE PUSH1 0x24 PUSH1 0x0 REVERT INVALID LOG2 PUSH5 0x6970667358 0x22 SLT KECCAK256 0xC2 0xA7 SWAP1 PUSH7 0x48A675DB08C52 0x1E BALANCE SWAP4 0x4E NUMBER SWAP11 0xD2 0xEC ADD DIFFICULTY 0xD6 PUSH13 0xBCA154DEDF8AAA083064736F6C PUSH4 0x43000807 STOP CALLER "
				},
				"gasEstimates": {
					"creation": {
						"codeDepositCost": "136600",
						"executionCost": "20475",
						"totalCost": "157075"
					},
					"external": {
						"addHouse(uint256,uint256,string)": "infinite",
						"getHouse()": "442"
					}
				},
				"methodIdentifiers": {
					"addHouse(uint256,uint256,string)": "e2b0966c",
					"getHouse()": "04e2064f"
				}
			},
			"storageLayout": {
				"storage": [
					{
						"astId": 3,
						"contract": "contracts/Test.sol:Agency",
						"label": "owner",
						"offset": 0,
						"slot": "0",
						"type": "t_address"
					},
					{
						"astId": 47,
						"contract": "contracts/Test.sol:Agency",
						"label": "possessions",
						"offset": 0,
						"slot": "1",
						"type": "t_mapping(t_address,t_array(t_struct(House)41_storage)dyn_storage)"
					}
				],
				"types": {
					"t_address": {
						"encoding": "inplace",
						"label": "address",
						"numberOfBytes": "20"
					},
					"t_array(t_struct(House)41_storage)dyn_storage": {
						"base": "t_struct(House)41_storage",
						"encoding": "dynamic_array",
						"label": "struct Agency.House[]",
						"numberOfBytes": "32"
					},
					"t_enum(HouseType)31": {
						"encoding": "inplace",
						"label": "enum Agency.HouseType",
						"numberOfBytes": "1"
					},
					"t_mapping(t_address,t_array(t_struct(House)41_storage)dyn_storage)": {
						"encoding": "mapping",
						"key": "t_address",
						"label": "mapping(address => struct Agency.House[])",
						"numberOfBytes": "32",
						"value": "t_array(t_struct(House)41_storage)dyn_storage"
					},
					"t_string_storage": {
						"encoding": "bytes",
						"label": "string",
						"numberOfBytes": "32"
					},
					"t_struct(House)41_storage": {
						"encoding": "inplace",
						"label": "struct Agency.House",
						"members": [
							{
								"astId": 33,
								"contract": "contracts/Test.sol:Agency",
								"label": "price",
								"offset": 0,
								"slot": "0",
								"type": "t_uint256"
							},
							{
								"astId": 35,
								"contract": "contracts/Test.sol:Agency",
								"label": "size",
								"offset": 0,
								"slot": "1",
								"type": "t_uint256"
							},
							{
								"astId": 38,
								"contract": "contracts/Test.sol:Agency",
								"label": "houseType",
								"offset": 0,
								"slot": "2",
								"type": "t_enum(HouseType)31"
							},
							{
								"astId": 40,
								"contract": "contracts/Test.sol:Agency",
								"label": "location",
								"offset": 0,
								"slot": "3",
								"type": "t_string_storage"
							}
						],
						"numberOfBytes": "128"
					},
					"t_uint256": {
						"encoding": "inplace",
						"label": "uint256",
						"numberOfBytes": "32"
					}
				}
			},
			"userdoc": {
				"kind": "user",
				"methods": {},
				"version": 1
			}
		}
	}
}