{
	"contracts/Whale.sol": {
		"Whale": {
			"abi": [
				{
					"inputs": [],
					"name": "checkOwner",
					"outputs": [
						{
							"internalType": "address",
							"name": "",
							"type": "address"
						}
					],
					"stateMutability": "view",
					"type": "function"
				},
				{
					"inputs": [
						{
							"internalType": "bytes32",
							"name": "_data",
							"type": "bytes32"
						}
					],
					"name": "toShortString",
					"outputs": [
						{
							"internalType": "string",
							"name": "",
							"type": "string"
						}
					],
					"stateMutability": "pure",
					"type": "function"
				}
			],
			"devdoc": {
				"kind": "dev",
				"methods": {},
				"version": 1
			},
			"evm": {
				"assembly": "    /* \"contracts/Whale.sol\":122:2098  contract Whale {... */\n  mstore(0x40, 0x80)\n  callvalue\n  dup1\n  iszero\n  tag_1\n  jumpi\n  0x00\n  dup1\n  revert\ntag_1:\n  pop\n  dataSize(sub_0)\n  dup1\n  dataOffset(sub_0)\n  0x00\n  codecopy\n  0x00\n  return\nstop\n\nsub_0: assembly {\n        /* \"contracts/Whale.sol\":122:2098  contract Whale {... */\n      mstore(0x40, 0x80)\n      callvalue\n      dup1\n      iszero\n      tag_1\n      jumpi\n      0x00\n      dup1\n      revert\n    tag_1:\n      pop\n      jumpi(tag_2, lt(calldatasize, 0x04))\n      div(calldataload(0x00), 0x0100000000000000000000000000000000000000000000000000000000)\n      0xcdbce03d\n      dup2\n      eq\n      tag_3\n      jumpi\n      dup1\n      0xdb91bb50\n      eq\n      tag_4\n      jumpi\n    tag_2:\n      0x00\n      dup1\n      revert\n        /* \"contracts/Whale.sol\":143:282  function checkOwner() public view returns (address) {... */\n    tag_3:\n      tag_5\n      tag_6\n      jump\t// in\n    tag_5:\n      mload(0x40)\n      tag_7\n      swap2\n      swap1\n      tag_8\n      jump\t// in\n    tag_7:\n      mload(0x40)\n      dup1\n      swap2\n      sub\n      swap1\n      return\n        /* \"contracts/Whale.sol\":287:2096  function toShortString(bytes32 _data)... */\n    tag_4:\n      tag_9\n      tag_10\n      calldatasize\n      0x04\n      tag_11\n      jump\t// in\n    tag_10:\n      tag_12\n      jump\t// in\n    tag_9:\n      mload(0x40)\n      tag_7\n      swap2\n      swap1\n      tag_14\n      jump\t// in\n        /* \"contracts/Whale.sol\":143:282  function checkOwner() public view returns (address) {... */\n    tag_6:\n        /* \"contracts/Whale.sol\":212:275  IERC721(0x484Ec30Feff505b545Ed7b905bc25a6a40589181).ownerOf(45) */\n      mload(0x40)\n      0x6352211e00000000000000000000000000000000000000000000000000000000\n      dup2\n      mstore\n        /* \"contracts/Whale.sol\":186:193  address */\n      0x00\n      swap1\n        /* \"contracts/Whale.sol\":220:262  0x484Ec30Feff505b545Ed7b905bc25a6a40589181 */\n      0x484ec30feff505b545ed7b905bc25a6a40589181\n      swap1\n        /* \"contracts/Whale.sol\":212:271  IERC721(0x484Ec30Feff505b545Ed7b905bc25a6a40589181).ownerOf */\n      0x6352211e\n      swap1\n        /* \"contracts/Whale.sol\":212:275  IERC721(0x484Ec30Feff505b545Ed7b905bc25a6a40589181).ownerOf(45) */\n      tag_16\n      swap1\n        /* \"contracts/Whale.sol\":272:274  45 */\n      0x2d\n      swap1\n        /* \"contracts/Whale.sol\":212:275  IERC721(0x484Ec30Feff505b545Ed7b905bc25a6a40589181).ownerOf(45) */\n      0x04\n      add\n      tag_17\n      jump\t// in\n    tag_16:\n      0x20\n      mload(0x40)\n      dup1\n      dup4\n      sub\n      dup2\n      dup7\n      dup1\n      extcodesize\n      iszero\n      dup1\n      iszero\n      tag_18\n      jumpi\n      0x00\n      dup1\n      revert\n    tag_18:\n      pop\n      gas\n      staticcall\n      iszero\n      dup1\n      iszero\n      tag_20\n      jumpi\n      returndatasize\n      0x00\n      dup1\n      returndatacopy\n      revert(0x00, returndatasize)\n    tag_20:\n      pop\n      pop\n      pop\n      pop\n      mload(0x40)\n      returndatasize\n      not(0x1f)\n      0x1f\n      dup3\n      add\n      and\n      dup3\n      add\n      dup1\n      0x40\n      mstore\n      pop\n      dup2\n      add\n      swap1\n      tag_21\n      swap2\n      swap1\n      tag_22\n      jump\t// in\n    tag_21:\n        /* \"contracts/Whale.sol\":205:275  return IERC721(0x484Ec30Feff505b545Ed7b905bc25a6a40589181).ownerOf(45) */\n      swap1\n      pop\n        /* \"contracts/Whale.sol\":143:282  function checkOwner() public view returns (address) {... */\n      swap1\n      jump\t// out\n        /* \"contracts/Whale.sol\":287:2096  function toShortString(bytes32 _data)... */\n    tag_12:\n        /* \"contracts/Whale.sol\":534:547  new bytes(32) */\n      0x40\n      dup1\n      mload\n        /* \"contracts/Whale.sol\":544:546  32 */\n      0x20\n        /* \"contracts/Whale.sol\":534:547  new bytes(32) */\n      dup1\n      dup3\n      mstore\n      dup2\n      dup4\n      add\n      swap1\n      swap3\n      mstore\n        /* \"contracts/Whale.sol\":358:371  string memory */\n      0x60\n      swap2\n        /* \"contracts/Whale.sol\":503:531  bytes memory _bytesContainer */\n      0x00\n      swap2\n        /* \"contracts/Whale.sol\":534:547  new bytes(32) */\n      swap1\n      0x20\n      dup3\n      add\n      dup2\n      dup1\n      calldatasize\n      dup4\n      calldatacopy\n      add\n      swap1\n      pop\n      pop\n        /* \"contracts/Whale.sol\":503:547  bytes memory _bytesContainer = new bytes(32) */\n      swap1\n      pop\n        /* \"contracts/Whale.sol\":686:704  uint256 _charCount */\n      0x00\n        /* \"contracts/Whale.sol\":764:785  uint256 _bytesCounter */\n      dup1\n        /* \"contracts/Whale.sol\":759:1572  for (uint256 _bytesCounter = 0; _bytesCounter < 32; _bytesCounter++) {... */\n    tag_26:\n        /* \"contracts/Whale.sol\":807:809  32 */\n      0x20\n        /* \"contracts/Whale.sol\":791:804  _bytesCounter */\n      dup2\n        /* \"contracts/Whale.sol\":791:809  _bytesCounter < 32 */\n      lt\n        /* \"contracts/Whale.sol\":759:1572  for (uint256 _bytesCounter = 0; _bytesCounter < 32; _bytesCounter++) {... */\n      iszero\n      tag_27\n      jumpi\n        /* \"contracts/Whale.sol\":1253:1265  bytes1 _char */\n      0x00\n        /* \"contracts/Whale.sol\":1306:1323  8 * _bytesCounter */\n      tag_29\n        /* \"contracts/Whale.sol\":1310:1323  _bytesCounter */\n      dup3\n        /* \"contracts/Whale.sol\":1306:1307  8 */\n      0x08\n        /* \"contracts/Whale.sol\":1306:1323  8 * _bytesCounter */\n      tag_30\n      jump\t// in\n    tag_29:\n        /* \"contracts/Whale.sol\":1300:1324  2 ** (8 * _bytesCounter) */\n      tag_31\n      swap1\n        /* \"contracts/Whale.sol\":1300:1301  2 */\n      0x02\n        /* \"contracts/Whale.sol\":1300:1324  2 ** (8 * _bytesCounter) */\n      tag_32\n      jump\t// in\n    tag_31:\n        /* \"contracts/Whale.sol\":1283:1324  uint256(_data) * 2 ** (8 * _bytesCounter) */\n      tag_33\n      swap1\n        /* \"contracts/Whale.sol\":1291:1296  _data */\n      dup8\n        /* \"contracts/Whale.sol\":1283:1324  uint256(_data) * 2 ** (8 * _bytesCounter) */\n      tag_30\n      jump\t// in\n    tag_33:\n        /* \"contracts/Whale.sol\":1275:1325  bytes32(uint256(_data) * 2 ** (8 * _bytesCounter)) */\n      swap1\n      pop\n        /* \"contracts/Whale.sol\":1381:1391  _char != 0 */\n      0xff00000000000000000000000000000000000000000000000000000000000000\n      dup2\n      and\n      iszero\n        /* \"contracts/Whale.sol\":1377:1566  if (_char != 0) {... */\n      tag_34\n      jumpi\n        /* \"contracts/Whale.sol\":1477:1482  _char */\n      dup1\n        /* \"contracts/Whale.sol\":1447:1462  _bytesContainer */\n      dup5\n        /* \"contracts/Whale.sol\":1463:1473  _charCount */\n      dup5\n        /* \"contracts/Whale.sol\":1447:1474  _bytesContainer[_charCount] */\n      dup2\n      mload\n      dup2\n      lt\n      tag_35\n      jumpi\n      mstore(0x00, mul(0x4e487b71, exp(0x02, 0xe0)))\n      mstore(0x04, 0x32)\n      revert(0x00, 0x24)\n    tag_35:\n      0x20\n      add\n      add\n        /* \"contracts/Whale.sol\":1447:1482  _bytesContainer[_charCount] = _char */\n      swap1\n      not(0xffffffffffffffffffffffffffffffffffffffffffffffffffffffffffffff)\n      and\n      swap1\n      dup2\n      0x00\n      byte\n      swap1\n      mstore8\n      pop\n        /* \"contracts/Whale.sol\":1543:1555  _charCount++ */\n      dup3\n      tag_36\n      dup2\n      tag_37\n      jump\t// in\n    tag_36:\n      swap4\n      pop\n      pop\n        /* \"contracts/Whale.sol\":1377:1566  if (_char != 0) {... */\n    tag_34:\n      pop\n        /* \"contracts/Whale.sol\":811:826  _bytesCounter++ */\n      dup1\n      tag_38\n      dup2\n      tag_37\n      jump\t// in\n    tag_38:\n      swap2\n      pop\n      pop\n        /* \"contracts/Whale.sol\":759:1572  for (uint256 _bytesCounter = 0; _bytesCounter < 32; _bytesCounter++) {... */\n      jump(tag_26)\n    tag_27:\n      pop\n        /* \"contracts/Whale.sol\":1642:1677  bytes memory _bytesContainerTrimmed */\n      0x00\n        /* \"contracts/Whale.sol\":1690:1700  _charCount */\n      dup2\n        /* \"contracts/Whale.sol\":1680:1701  new bytes(_charCount) */\n      0xffffffffffffffff\n      dup2\n      gt\n      iszero\n      tag_39\n      jumpi\n      mstore(0x00, mul(0x4e487b71, exp(0x02, 0xe0)))\n      mstore(0x04, 0x41)\n      revert(0x00, 0x24)\n    tag_39:\n      mload(0x40)\n      swap1\n      dup1\n      dup3\n      mstore\n      dup1\n      0x1f\n      add\n      not(0x1f)\n      and\n      0x20\n      add\n      dup3\n      add\n      0x40\n      mstore\n      dup1\n      iszero\n      tag_40\n      jumpi\n      0x20\n      dup3\n      add\n      dup2\n      dup1\n      calldatasize\n      dup4\n      calldatacopy\n      add\n      swap1\n      pop\n    tag_40:\n      pop\n        /* \"contracts/Whale.sol\":1642:1701  bytes memory _bytesContainerTrimmed = new bytes(_charCount) */\n      swap1\n      pop\n        /* \"contracts/Whale.sol\":1764:1784  uint256 _charCounter */\n      0x00\n        /* \"contracts/Whale.sol\":1759:1994  for (uint256 _charCounter = 0; _charCounter < _charCount; _charCounter++) {... */\n    tag_41:\n        /* \"contracts/Whale.sol\":1805:1815  _charCount */\n      dup3\n        /* \"contracts/Whale.sol\":1790:1802  _charCounter */\n      dup2\n        /* \"contracts/Whale.sol\":1790:1815  _charCounter < _charCount */\n      lt\n        /* \"contracts/Whale.sol\":1759:1994  for (uint256 _charCounter = 0; _charCounter < _charCount; _charCounter++) {... */\n      iszero\n      tag_42\n      jumpi\n        /* \"contracts/Whale.sol\":1958:1973  _bytesContainer */\n      dup4\n        /* \"contracts/Whale.sol\":1974:1986  _charCounter */\n      dup2\n        /* \"contracts/Whale.sol\":1958:1987  _bytesContainer[_charCounter] */\n      dup2\n      mload\n      dup2\n      lt\n      tag_44\n      jumpi\n      mstore(0x00, mul(0x4e487b71, exp(0x02, 0xe0)))\n      mstore(0x04, 0x32)\n      revert(0x00, 0x24)\n    tag_44:\n      0x20\n      add\n      add\n      mload\n      0x0100000000000000000000000000000000000000000000000000000000000000\n      swap1\n      div\n      0x0100000000000000000000000000000000000000000000000000000000000000\n      mul\n        /* \"contracts/Whale.sol\":1919:1941  _bytesContainerTrimmed */\n      dup3\n        /* \"contracts/Whale.sol\":1942:1954  _charCounter */\n      dup3\n        /* \"contracts/Whale.sol\":1919:1955  _bytesContainerTrimmed[_charCounter] */\n      dup2\n      mload\n      dup2\n      lt\n      tag_45\n      jumpi\n      mstore(0x00, mul(0x4e487b71, exp(0x02, 0xe0)))\n      mstore(0x04, 0x32)\n      revert(0x00, 0x24)\n    tag_45:\n      0x20\n      add\n      add\n        /* \"contracts/Whale.sol\":1919:1987  _bytesContainerTrimmed[_charCounter] = _bytesContainer[_charCounter] */\n      swap1\n      not(0xffffffffffffffffffffffffffffffffffffffffffffffffffffffffffffff)\n      and\n      swap1\n      dup2\n      0x00\n      byte\n      swap1\n      mstore8\n      pop\n        /* \"contracts/Whale.sol\":1817:1831  _charCounter++ */\n      dup1\n      tag_46\n      dup2\n      tag_37\n      jump\t// in\n    tag_46:\n      swap2\n      pop\n      pop\n        /* \"contracts/Whale.sol\":1759:1994  for (uint256 _charCounter = 0; _charCounter < _charCount; _charCounter++) {... */\n      jump(tag_41)\n    tag_42:\n      pop\n        /* \"contracts/Whale.sol\":2066:2088  _bytesContainerTrimmed */\n      swap5\n        /* \"contracts/Whale.sol\":287:2096  function toShortString(bytes32 _data)... */\n      swap4\n      pop\n      pop\n      pop\n      pop\n      jump\t// out\n        /* \"#utility.yul\":14:347   */\n    tag_22:\n      0x00\n        /* \"#utility.yul\":137:139   */\n      0x20\n        /* \"#utility.yul\":125:134   */\n      dup3\n        /* \"#utility.yul\":116:123   */\n      dup5\n        /* \"#utility.yul\":112:135   */\n      sub\n        /* \"#utility.yul\":108:140   */\n      slt\n        /* \"#utility.yul\":105:107   */\n      iszero\n      tag_49\n      jumpi\n        /* \"#utility.yul\":158:164   */\n      dup1\n        /* \"#utility.yul\":150:156   */\n      dup2\n        /* \"#utility.yul\":143:165   */\n      revert\n        /* \"#utility.yul\":105:107   */\n    tag_49:\n        /* \"#utility.yul\":195:204   */\n      dup2\n        /* \"#utility.yul\":189:205   */\n      mload\n        /* \"#utility.yul\":245:287   */\n      0xffffffffffffffffffffffffffffffffffffffff\n        /* \"#utility.yul\":238:243   */\n      dup2\n        /* \"#utility.yul\":234:288   */\n      and\n        /* \"#utility.yul\":227:232   */\n      dup2\n        /* \"#utility.yul\":224:289   */\n      eq\n        /* \"#utility.yul\":214:216   */\n      tag_50\n      jumpi\n        /* \"#utility.yul\":308:314   */\n      dup2\n        /* \"#utility.yul\":300:306   */\n      dup3\n        /* \"#utility.yul\":293:315   */\n      revert\n        /* \"#utility.yul\":214:216   */\n    tag_50:\n        /* \"#utility.yul\":336:341   */\n      swap4\n        /* \"#utility.yul\":95:347   */\n      swap3\n      pop\n      pop\n      pop\n      jump\t// out\n        /* \"#utility.yul\":352:542   */\n    tag_11:\n      0x00\n        /* \"#utility.yul\":464:466   */\n      0x20\n        /* \"#utility.yul\":452:461   */\n      dup3\n        /* \"#utility.yul\":443:450   */\n      dup5\n        /* \"#utility.yul\":439:462   */\n      sub\n        /* \"#utility.yul\":435:467   */\n      slt\n        /* \"#utility.yul\":432:434   */\n      iszero\n      tag_52\n      jumpi\n        /* \"#utility.yul\":485:491   */\n      dup1\n        /* \"#utility.yul\":477:483   */\n      dup2\n        /* \"#utility.yul\":470:492   */\n      revert\n        /* \"#utility.yul\":432:434   */\n    tag_52:\n      pop\n        /* \"#utility.yul\":513:536   */\n      calldataload\n      swap2\n        /* \"#utility.yul\":422:542   */\n      swap1\n      pop\n      jump\t// out\n        /* \"#utility.yul\":547:773   */\n    tag_8:\n        /* \"#utility.yul\":723:765   */\n      0xffffffffffffffffffffffffffffffffffffffff\n        /* \"#utility.yul\":711:766   */\n      swap2\n      swap1\n      swap2\n      and\n        /* \"#utility.yul\":693:767   */\n      dup2\n      mstore\n        /* \"#utility.yul\":681:683   */\n      0x20\n        /* \"#utility.yul\":666:684   */\n      add\n      swap1\n        /* \"#utility.yul\":648:773   */\n      jump\t// out\n        /* \"#utility.yul\":778:964   */\n    tag_17:\n        /* \"#utility.yul\":933:958   */\n      swap1\n      dup2\n      mstore\n        /* \"#utility.yul\":921:923   */\n      0x20\n        /* \"#utility.yul\":906:924   */\n      add\n      swap1\n        /* \"#utility.yul\":888:964   */\n      jump\t// out\n        /* \"#utility.yul\":969:1572   */\n    tag_14:\n      0x00\n        /* \"#utility.yul\":1110:1112   */\n      0x20\n        /* \"#utility.yul\":1139:1141   */\n      dup1\n        /* \"#utility.yul\":1128:1137   */\n      dup4\n        /* \"#utility.yul\":1121:1142   */\n      mstore\n        /* \"#utility.yul\":1171:1177   */\n      dup4\n        /* \"#utility.yul\":1165:1178   */\n      mload\n        /* \"#utility.yul\":1214:1220   */\n      dup1\n        /* \"#utility.yul\":1209:1211   */\n      dup3\n        /* \"#utility.yul\":1198:1207   */\n      dup6\n        /* \"#utility.yul\":1194:1212   */\n      add\n        /* \"#utility.yul\":1187:1221   */\n      mstore\n        /* \"#utility.yul\":1239:1243   */\n      dup3\n        /* \"#utility.yul\":1252:1392   */\n    tag_56:\n        /* \"#utility.yul\":1266:1272   */\n      dup2\n        /* \"#utility.yul\":1263:1264   */\n      dup2\n        /* \"#utility.yul\":1260:1273   */\n      lt\n        /* \"#utility.yul\":1252:1392   */\n      iszero\n      tag_58\n      jumpi\n        /* \"#utility.yul\":1361:1375   */\n      dup6\n      dup2\n      add\n        /* \"#utility.yul\":1357:1380   */\n      dup4\n      add\n        /* \"#utility.yul\":1351:1381   */\n      mload\n        /* \"#utility.yul\":1327:1344   */\n      dup6\n      dup3\n      add\n        /* \"#utility.yul\":1346:1348   */\n      0x40\n        /* \"#utility.yul\":1323:1349   */\n      add\n        /* \"#utility.yul\":1316:1382   */\n      mstore\n        /* \"#utility.yul\":1281:1291   */\n      dup3\n      add\n        /* \"#utility.yul\":1252:1392   */\n      jump(tag_56)\n    tag_58:\n        /* \"#utility.yul\":1410:1416   */\n      dup2\n        /* \"#utility.yul\":1407:1408   */\n      dup2\n        /* \"#utility.yul\":1404:1417   */\n      gt\n        /* \"#utility.yul\":1401:1403   */\n      iszero\n      tag_59\n      jumpi\n        /* \"#utility.yul\":1480:1484   */\n      dup4\n        /* \"#utility.yul\":1475:1477   */\n      0x40\n        /* \"#utility.yul\":1466:1472   */\n      dup4\n        /* \"#utility.yul\":1455:1464   */\n      dup8\n        /* \"#utility.yul\":1451:1473   */\n      add\n        /* \"#utility.yul\":1447:1478   */\n      add\n        /* \"#utility.yul\":1440:1485   */\n      mstore\n        /* \"#utility.yul\":1401:1403   */\n    tag_59:\n      pop\n        /* \"#utility.yul\":1556:1558   */\n      0x1f\n        /* \"#utility.yul\":1535:1550   */\n      add\n      not(0x1f)\n        /* \"#utility.yul\":1531:1560   */\n      and\n        /* \"#utility.yul\":1516:1561   */\n      swap3\n      swap1\n      swap3\n      add\n        /* \"#utility.yul\":1563:1565   */\n      0x40\n        /* \"#utility.yul\":1512:1566   */\n      add\n      swap4\n        /* \"#utility.yul\":1090:1572   */\n      swap3\n      pop\n      pop\n      pop\n      jump\t// out\n        /* \"#utility.yul\":1577:2032   */\n    tag_60:\n        /* \"#utility.yul\":1673:1679   */\n      dup1\n        /* \"#utility.yul\":1696:1701   */\n      dup3\n        /* \"#utility.yul\":1710:2026   */\n    tag_62:\n        /* \"#utility.yul\":1759:1760   */\n      0x01\n        /* \"#utility.yul\":1796:1798   */\n      dup1\n        /* \"#utility.yul\":1786:1794   */\n      dup7\n        /* \"#utility.yul\":1783:1799   */\n      gt\n        /* \"#utility.yul\":1773:1775   */\n      tag_65\n      jumpi\n        /* \"#utility.yul\":1803:1808   */\n      pop\n      jump(tag_64)\n        /* \"#utility.yul\":1773:1775   */\n    tag_65:\n        /* \"#utility.yul\":1844:1848   */\n      dup2\n        /* \"#utility.yul\":1839:1842   */\n      dup8\n        /* \"#utility.yul\":1835:1849   */\n      div\n        /* \"#utility.yul\":1829:1833   */\n      dup3\n        /* \"#utility.yul\":1826:1850   */\n      gt\n        /* \"#utility.yul\":1823:1825   */\n      iszero\n      tag_67\n      jumpi\n        /* \"#utility.yul\":1853:1871   */\n      tag_67\n      tag_68\n      jump\t// in\n    tag_67:\n        /* \"#utility.yul\":1903:1905   */\n      dup1\n        /* \"#utility.yul\":1893:1901   */\n      dup7\n        /* \"#utility.yul\":1889:1906   */\n      and\n        /* \"#utility.yul\":1886:1888   */\n      iszero\n      tag_69\n      jumpi\n        /* \"#utility.yul\":1918:1934   */\n      swap2\n      dup2\n      mul\n      swap2\n        /* \"#utility.yul\":1886:1888   */\n    tag_69:\n      pop\n        /* \"#utility.yul\":2011:2015   */\n      0x02\n        /* \"#utility.yul\":1997:2016   */\n      swap1\n      swap5\n      div\n      swap4\n        /* \"#utility.yul\":1957:1972   */\n      dup1\n      mul\n        /* \"#utility.yul\":1710:2026   */\n      jump(tag_62)\n    tag_64:\n        /* \"#utility.yul\":1654:2032   */\n      swap5\n      pop\n      swap5\n      swap3\n      pop\n      pop\n      pop\n      jump\t// out\n        /* \"#utility.yul\":2037:2176   */\n    tag_32:\n      0x00\n        /* \"#utility.yul\":2126:2170   */\n      tag_50\n      not(0x00)\n        /* \"#utility.yul\":2153:2161   */\n      dup5\n        /* \"#utility.yul\":2147:2151   */\n      dup5\n        /* \"#utility.yul\":2181:3103   */\n      0x00\n        /* \"#utility.yul\":2265:2273   */\n      dup3\n        /* \"#utility.yul\":2255:2257   */\n      tag_74\n      jumpi\n      pop\n        /* \"#utility.yul\":2306:2307   */\n      0x01\n        /* \"#utility.yul\":2320:2325   */\n      jump(tag_50)\n        /* \"#utility.yul\":2255:2257   */\n    tag_74:\n        /* \"#utility.yul\":2354:2358   */\n      dup2\n        /* \"#utility.yul\":2344:2346   */\n      tag_75\n      jumpi\n      pop\n        /* \"#utility.yul\":2391:2392   */\n      0x00\n        /* \"#utility.yul\":2405:2410   */\n      jump(tag_50)\n        /* \"#utility.yul\":2344:2346   */\n    tag_75:\n        /* \"#utility.yul\":2436:2440   */\n      dup2\n        /* \"#utility.yul\":2454:2455   */\n      0x01\n        /* \"#utility.yul\":2449:2508   */\n      dup2\n      eq\n      tag_77\n      jumpi\n        /* \"#utility.yul\":2522:2523   */\n      0x02\n        /* \"#utility.yul\":2517:2700   */\n      dup2\n      eq\n      tag_78\n      jumpi\n        /* \"#utility.yul\":2429:2700   */\n      jump(tag_76)\n        /* \"#utility.yul\":2449:2508   */\n    tag_77:\n        /* \"#utility.yul\":2479:2480   */\n      0x01\n        /* \"#utility.yul\":2470:2480   */\n      swap2\n      pop\n        /* \"#utility.yul\":2493:2498   */\n      pop\n      jump(tag_50)\n        /* \"#utility.yul\":2517:2700   */\n    tag_78:\n        /* \"#utility.yul\":2554:2557   */\n      0xff\n        /* \"#utility.yul\":2544:2552   */\n      dup5\n        /* \"#utility.yul\":2541:2558   */\n      gt\n        /* \"#utility.yul\":2538:2540   */\n      iszero\n      tag_80\n      jumpi\n        /* \"#utility.yul\":2561:2579   */\n      tag_80\n      tag_68\n      jump\t// in\n    tag_80:\n        /* \"#utility.yul\":2610:2618   */\n      dup4\n        /* \"#utility.yul\":2607:2608   */\n      0x02\n        /* \"#utility.yul\":2603:2619   */\n      exp\n        /* \"#utility.yul\":2594:2619   */\n      swap2\n      pop\n        /* \"#utility.yul\":2645:2648   */\n      dup5\n        /* \"#utility.yul\":2638:2643   */\n      dup3\n        /* \"#utility.yul\":2635:2649   */\n      gt\n        /* \"#utility.yul\":2632:2634   */\n      iszero\n      tag_82\n      jumpi\n        /* \"#utility.yul\":2652:2670   */\n      tag_82\n      tag_68\n      jump\t// in\n    tag_82:\n        /* \"#utility.yul\":2685:2690   */\n      pop\n      jump(tag_50)\n        /* \"#utility.yul\":2429:2700   */\n    tag_76:\n      pop\n        /* \"#utility.yul\":2784:2786   */\n      0x20\n        /* \"#utility.yul\":2774:2782   */\n      dup4\n        /* \"#utility.yul\":2771:2787   */\n      lt\n        /* \"#utility.yul\":2765:2768   */\n      0x0133\n        /* \"#utility.yul\":2759:2763   */\n      dup4\n        /* \"#utility.yul\":2756:2769   */\n      lt\n        /* \"#utility.yul\":2752:2788   */\n      and\n        /* \"#utility.yul\":2746:2748   */\n      0x4e\n        /* \"#utility.yul\":2736:2744   */\n      dup5\n        /* \"#utility.yul\":2733:2749   */\n      lt\n        /* \"#utility.yul\":2728:2730   */\n      0x0b\n        /* \"#utility.yul\":2722:2726   */\n      dup5\n        /* \"#utility.yul\":2719:2731   */\n      lt\n        /* \"#utility.yul\":2715:2750   */\n      and\n        /* \"#utility.yul\":2712:2789   */\n      or\n        /* \"#utility.yul\":2709:2711   */\n      iszero\n      tag_83\n      jumpi\n      pop\n        /* \"#utility.yul\":2821:2840   */\n      dup2\n      dup2\n      exp\n        /* \"#utility.yul\":2856:2870   */\n      dup4\n      dup2\n      gt\n        /* \"#utility.yul\":2853:2855   */\n      iszero\n      tag_85\n      jumpi\n        /* \"#utility.yul\":2873:2891   */\n      tag_85\n      tag_68\n      jump\t// in\n    tag_85:\n        /* \"#utility.yul\":2906:2911   */\n      jump(tag_50)\n        /* \"#utility.yul\":2709:2711   */\n    tag_83:\n        /* \"#utility.yul\":2953:2995   */\n      tag_86\n        /* \"#utility.yul\":2991:2994   */\n      dup5\n        /* \"#utility.yul\":2981:2989   */\n      dup5\n        /* \"#utility.yul\":2975:2979   */\n      dup5\n        /* \"#utility.yul\":2972:2973   */\n      0x01\n        /* \"#utility.yul\":2953:2995   */\n      tag_60\n      jump\t// in\n    tag_86:\n        /* \"#utility.yul\":3028:3034   */\n      dup1\n        /* \"#utility.yul\":3023:3026   */\n      dup7\n        /* \"#utility.yul\":3019:3035   */\n      div\n        /* \"#utility.yul\":3010:3017   */\n      dup3\n        /* \"#utility.yul\":3007:3036   */\n      gt\n        /* \"#utility.yul\":3004:3006   */\n      iszero\n      tag_88\n      jumpi\n        /* \"#utility.yul\":3039:3057   */\n      tag_88\n      tag_68\n      jump\t// in\n    tag_88:\n        /* \"#utility.yul\":3077:3097   */\n      mul\n      swap5\n        /* \"#utility.yul\":2245:3103   */\n      swap4\n      pop\n      pop\n      pop\n      pop\n      jump\t// out\n        /* \"#utility.yul\":3108:3276   */\n    tag_30:\n      0x00\n        /* \"#utility.yul\":3214:3215   */\n      dup2\n        /* \"#utility.yul\":3210:3211   */\n      0x00\n        /* \"#utility.yul\":3206:3212   */\n      not\n        /* \"#utility.yul\":3202:3216   */\n      div\n        /* \"#utility.yul\":3199:3200   */\n      dup4\n        /* \"#utility.yul\":3196:3217   */\n      gt\n        /* \"#utility.yul\":3191:3192   */\n      dup3\n        /* \"#utility.yul\":3184:3193   */\n      iszero\n        /* \"#utility.yul\":3177:3194   */\n      iszero\n        /* \"#utility.yul\":3173:3218   */\n      and\n        /* \"#utility.yul\":3170:3172   */\n      iszero\n      tag_91\n      jumpi\n        /* \"#utility.yul\":3221:3239   */\n      tag_91\n      tag_68\n      jump\t// in\n    tag_91:\n      pop\n        /* \"#utility.yul\":3261:3270   */\n      mul\n      swap1\n        /* \"#utility.yul\":3160:3276   */\n      jump\t// out\n        /* \"#utility.yul\":3281:3416   */\n    tag_37:\n      0x00\n      not(0x00)\n        /* \"#utility.yul\":3341:3358   */\n      dup3\n      eq\n        /* \"#utility.yul\":3338:3340   */\n      iszero\n      tag_94\n      jumpi\n        /* \"#utility.yul\":3361:3379   */\n      tag_94\n      tag_68\n      jump\t// in\n    tag_94:\n      pop\n        /* \"#utility.yul\":3408:3409   */\n      0x01\n        /* \"#utility.yul\":3397:3410   */\n      add\n      swap1\n        /* \"#utility.yul\":3328:3416   */\n      jump\t// out\n        /* \"#utility.yul\":3421:3605   */\n    tag_68:\n      mul(0x4e487b71, exp(0x02, 0xe0))\n        /* \"#utility.yul\":3470:3471   */\n      0x00\n        /* \"#utility.yul\":3463:3551   */\n      mstore\n        /* \"#utility.yul\":3570:3574   */\n      0x11\n        /* \"#utility.yul\":3567:3568   */\n      0x04\n        /* \"#utility.yul\":3560:3575   */\n      mstore\n        /* \"#utility.yul\":3594:3598   */\n      0x24\n        /* \"#utility.yul\":3591:3592   */\n      0x00\n        /* \"#utility.yul\":3584:3599   */\n      revert\n\n    auxdata: 0xa26469706673582212206f8460bfb7e669f5b5ff27020c71c4622f2c4174981bd2f5c50804dd4aefe10f64736f6c63430008000033\n}\n",
				"bytecode": {
					"linkReferences": {},
					"object": "608060405234801561001057600080fd5b506105de806100206000396000f3fe608060405234801561001057600080fd5b5060043610610052577c01000000000000000000000000000000000000000000000000000000006000350463cdbce03d8114610057578063db91bb5014610075575b600080fd5b61005f610095565b60405161006c91906103c2565b60405180910390f35b6100886100833660046103aa565b61013e565b60405161006c91906103ec565b6040517f6352211e00000000000000000000000000000000000000000000000000000000815260009073484ec30feff505b545ed7b905bc25a6a4058918190636352211e906100e990602d906004016103e3565b60206040518083038186803b15801561010157600080fd5b505afa158015610115573d6000803e3d6000fd5b505050506040513d601f19601f82011682018060405250810190610139919061036f565b905090565b604080516020808252818301909252606091600091906020820181803683370190505090506000805b602081101561023057600061017d826008610555565b610188906002610487565b6101929087610555565b90507fff0000000000000000000000000000000000000000000000000000000000000081161561021d57808484815181106101e05760e060020a634e487b7102600052603260045260246000fd5b60200101907effffffffffffffffffffffffffffffffffffffffffffffffffffffffffffff1916908160001a9053508261021981610574565b9350505b508061022881610574565b915050610167565b5060008167ffffffffffffffff81111561025d5760e060020a634e487b7102600052604160045260246000fd5b6040519080825280601f01601f191660200182016040528015610287576020820181803683370190505b50905060005b82811015610366578381815181106102b85760e060020a634e487b7102600052603260045260246000fd5b60200101517f010000000000000000000000000000000000000000000000000000000000000090047f0100000000000000000000000000000000000000000000000000000000000000028282815181106103255760e060020a634e487b7102600052603260045260246000fd5b60200101907effffffffffffffffffffffffffffffffffffffffffffffffffffffffffffff1916908160001a9053508061035e81610574565b91505061028d565b50949350505050565b600060208284031215610380578081fd5b815173ffffffffffffffffffffffffffffffffffffffff811681146103a3578182fd5b9392505050565b6000602082840312156103bb578081fd5b5035919050565b73ffffffffffffffffffffffffffffffffffffffff91909116815260200190565b90815260200190565b6000602080835283518082850152825b81811015610418578581018301518582016040015282016103fc565b818111156104295783604083870101525b50601f01601f1916929092016040019392505050565b80825b6001808611610451575061047e565b8187048211156104635761046361058f565b8086161561047057918102915b506002909404938002610442565b94509492505050565b60006103a360001984846000826104a0575060016103a3565b816104ad575060006103a3565b81600181146104c357600281146104cd576104fa565b60019150506103a3565b60ff8411156104de576104de61058f565b8360020a9150848211156104f4576104f461058f565b506103a3565b5060208310610133831016604e8410600b841016171561052d575081810a838111156105285761052861058f565b6103a3565b61053a848484600161043f565b80860482111561054c5761054c61058f565b02949350505050565b600081600019048311821515161561056f5761056f61058f565b500290565b60006000198214156105885761058861058f565b5060010190565b60e060020a634e487b7102600052601160045260246000fdfea26469706673582212206f8460bfb7e669f5b5ff27020c71c4622f2c4174981bd2f5c50804dd4aefe10f64736f6c63430008000033",
					"opcodes": "PUSH1 0x80 PUSH1 0x40 MSTORE CALLVALUE DUP1 ISZERO PUSH2 0x10 JUMPI PUSH1 0x0 DUP1 REVERT JUMPDEST POP PUSH2 0x5DE DUP1 PUSH2 0x20 PUSH1 0x0 CODECOPY PUSH1 0x0 RETURN INVALID PUSH1 0x80 PUSH1 0x40 MSTORE CALLVALUE DUP1 ISZERO PUSH2 0x10 JUMPI PUSH1 0x0 DUP1 REVERT JUMPDEST POP PUSH1 0x4 CALLDATASIZE LT PUSH2 0x52 JUMPI PUSH29 0x100000000000000000000000000000000000000000000000000000000 PUSH1 0x0 CALLDATALOAD DIV PUSH4 0xCDBCE03D DUP2 EQ PUSH2 0x57 JUMPI DUP1 PUSH4 0xDB91BB50 EQ PUSH2 0x75 JUMPI JUMPDEST PUSH1 0x0 DUP1 REVERT JUMPDEST PUSH2 0x5F PUSH2 0x95 JUMP JUMPDEST PUSH1 0x40 MLOAD PUSH2 0x6C SWAP2 SWAP1 PUSH2 0x3C2 JUMP JUMPDEST PUSH1 0x40 MLOAD DUP1 SWAP2 SUB SWAP1 RETURN JUMPDEST PUSH2 0x88 PUSH2 0x83 CALLDATASIZE PUSH1 0x4 PUSH2 0x3AA JUMP JUMPDEST PUSH2 0x13E JUMP JUMPDEST PUSH1 0x40 MLOAD PUSH2 0x6C SWAP2 SWAP1 PUSH2 0x3EC JUMP JUMPDEST PUSH1 0x40 MLOAD PUSH32 0x6352211E00000000000000000000000000000000000000000000000000000000 DUP2 MSTORE PUSH1 0x0 SWAP1 PUSH20 0x484EC30FEFF505B545ED7B905BC25A6A40589181 SWAP1 PUSH4 0x6352211E SWAP1 PUSH2 0xE9 SWAP1 PUSH1 0x2D SWAP1 PUSH1 0x4 ADD PUSH2 0x3E3 JUMP JUMPDEST PUSH1 0x20 PUSH1 0x40 MLOAD DUP1 DUP4 SUB DUP2 DUP7 DUP1 EXTCODESIZE ISZERO DUP1 ISZERO PUSH2 0x101 JUMPI PUSH1 0x0 DUP1 REVERT JUMPDEST POP GAS STATICCALL ISZERO DUP1 ISZERO PUSH2 0x115 JUMPI RETURNDATASIZE PUSH1 0x0 DUP1 RETURNDATACOPY RETURNDATASIZE PUSH1 0x0 REVERT JUMPDEST POP POP POP POP PUSH1 0x40 MLOAD RETURNDATASIZE PUSH1 0x1F NOT PUSH1 0x1F DUP3 ADD AND DUP3 ADD DUP1 PUSH1 0x40 MSTORE POP DUP2 ADD SWAP1 PUSH2 0x139 SWAP2 SWAP1 PUSH2 0x36F JUMP JUMPDEST SWAP1 POP SWAP1 JUMP JUMPDEST PUSH1 0x40 DUP1 MLOAD PUSH1 0x20 DUP1 DUP3 MSTORE DUP2 DUP4 ADD SWAP1 SWAP3 MSTORE PUSH1 0x60 SWAP2 PUSH1 0x0 SWAP2 SWAP1 PUSH1 0x20 DUP3 ADD DUP2 DUP1 CALLDATASIZE DUP4 CALLDATACOPY ADD SWAP1 POP POP SWAP1 POP PUSH1 0x0 DUP1 JUMPDEST PUSH1 0x20 DUP2 LT ISZERO PUSH2 0x230 JUMPI PUSH1 0x0 PUSH2 0x17D DUP3 PUSH1 0x8 PUSH2 0x555 JUMP JUMPDEST PUSH2 0x188 SWAP1 PUSH1 0x2 PUSH2 0x487 JUMP JUMPDEST PUSH2 0x192 SWAP1 DUP8 PUSH2 0x555 JUMP JUMPDEST SWAP1 POP PUSH32 0xFF00000000000000000000000000000000000000000000000000000000000000 DUP2 AND ISZERO PUSH2 0x21D JUMPI DUP1 DUP5 DUP5 DUP2 MLOAD DUP2 LT PUSH2 0x1E0 JUMPI PUSH1 0xE0 PUSH1 0x2 EXP PUSH4 0x4E487B71 MUL PUSH1 0x0 MSTORE PUSH1 0x32 PUSH1 0x4 MSTORE PUSH1 0x24 PUSH1 0x0 REVERT JUMPDEST PUSH1 0x20 ADD ADD SWAP1 PUSH31 0xFFFFFFFFFFFFFFFFFFFFFFFFFFFFFFFFFFFFFFFFFFFFFFFFFFFFFFFFFFFFFF NOT AND SWAP1 DUP2 PUSH1 0x0 BYTE SWAP1 MSTORE8 POP DUP3 PUSH2 0x219 DUP2 PUSH2 0x574 JUMP JUMPDEST SWAP4 POP POP JUMPDEST POP DUP1 PUSH2 0x228 DUP2 PUSH2 0x574 JUMP JUMPDEST SWAP2 POP POP PUSH2 0x167 JUMP JUMPDEST POP PUSH1 0x0 DUP2 PUSH8 0xFFFFFFFFFFFFFFFF DUP2 GT ISZERO PUSH2 0x25D JUMPI PUSH1 0xE0 PUSH1 0x2 EXP PUSH4 0x4E487B71 MUL PUSH1 0x0 MSTORE PUSH1 0x41 PUSH1 0x4 MSTORE PUSH1 0x24 PUSH1 0x0 REVERT JUMPDEST PUSH1 0x40 MLOAD SWAP1 DUP1 DUP3 MSTORE DUP1 PUSH1 0x1F ADD PUSH1 0x1F NOT AND PUSH1 0x20 ADD DUP3 ADD PUSH1 0x40 MSTORE DUP1 ISZERO PUSH2 0x287 JUMPI PUSH1 0x20 DUP3 ADD DUP2 DUP1 CALLDATASIZE DUP4 CALLDATACOPY ADD SWAP1 POP JUMPDEST POP SWAP1 POP PUSH1 0x0 JUMPDEST DUP3 DUP2 LT ISZERO PUSH2 0x366 JUMPI DUP4 DUP2 DUP2 MLOAD DUP2 LT PUSH2 0x2B8 JUMPI PUSH1 0xE0 PUSH1 0x2 EXP PUSH4 0x4E487B71 MUL PUSH1 0x0 MSTORE PUSH1 0x32 PUSH1 0x4 MSTORE PUSH1 0x24 PUSH1 0x0 REVERT JUMPDEST PUSH1 0x20 ADD ADD MLOAD PUSH32 0x100000000000000000000000000000000000000000000000000000000000000 SWAP1 DIV PUSH32 0x100000000000000000000000000000000000000000000000000000000000000 MUL DUP3 DUP3 DUP2 MLOAD DUP2 LT PUSH2 0x325 JUMPI PUSH1 0xE0 PUSH1 0x2 EXP PUSH4 0x4E487B71 MUL PUSH1 0x0 MSTORE PUSH1 0x32 PUSH1 0x4 MSTORE PUSH1 0x24 PUSH1 0x0 REVERT JUMPDEST PUSH1 0x20 ADD ADD SWAP1 PUSH31 0xFFFFFFFFFFFFFFFFFFFFFFFFFFFFFFFFFFFFFFFFFFFFFFFFFFFFFFFFFFFFFF NOT AND SWAP1 DUP2 PUSH1 0x0 BYTE SWAP1 MSTORE8 POP DUP1 PUSH2 0x35E DUP2 PUSH2 0x574 JUMP JUMPDEST SWAP2 POP POP PUSH2 0x28D JUMP JUMPDEST POP SWAP5 SWAP4 POP POP POP POP JUMP JUMPDEST PUSH1 0x0 PUSH1 0x20 DUP3 DUP5 SUB SLT ISZERO PUSH2 0x380 JUMPI DUP1 DUP2 REVERT JUMPDEST DUP2 MLOAD PUSH20 0xFFFFFFFFFFFFFFFFFFFFFFFFFFFFFFFFFFFFFFFF DUP2 AND DUP2 EQ PUSH2 0x3A3 JUMPI DUP2 DUP3 REVERT JUMPDEST SWAP4 SWAP3 POP POP POP JUMP JUMPDEST PUSH1 0x0 PUSH1 0x20 DUP3 DUP5 SUB SLT ISZERO PUSH2 0x3BB JUMPI DUP1 DUP2 REVERT JUMPDEST POP CALLDATALOAD SWAP2 SWAP1 POP JUMP JUMPDEST PUSH20 0xFFFFFFFFFFFFFFFFFFFFFFFFFFFFFFFFFFFFFFFF SWAP2 SWAP1 SWAP2 AND DUP2 MSTORE PUSH1 0x20 ADD SWAP1 JUMP JUMPDEST SWAP1 DUP2 MSTORE PUSH1 0x20 ADD SWAP1 JUMP JUMPDEST PUSH1 0x0 PUSH1 0x20 DUP1 DUP4 MSTORE DUP4 MLOAD DUP1 DUP3 DUP6 ADD MSTORE DUP3 JUMPDEST DUP2 DUP2 LT ISZERO PUSH2 0x418 JUMPI DUP6 DUP2 ADD DUP4 ADD MLOAD DUP6 DUP3 ADD PUSH1 0x40 ADD MSTORE DUP3 ADD PUSH2 0x3FC JUMP JUMPDEST DUP2 DUP2 GT ISZERO PUSH2 0x429 JUMPI DUP4 PUSH1 0x40 DUP4 DUP8 ADD ADD MSTORE JUMPDEST POP PUSH1 0x1F ADD PUSH1 0x1F NOT AND SWAP3 SWAP1 SWAP3 ADD PUSH1 0x40 ADD SWAP4 SWAP3 POP POP POP JUMP JUMPDEST DUP1 DUP3 JUMPDEST PUSH1 0x1 DUP1 DUP7 GT PUSH2 0x451 JUMPI POP PUSH2 0x47E JUMP JUMPDEST DUP2 DUP8 DIV DUP3 GT ISZERO PUSH2 0x463 JUMPI PUSH2 0x463 PUSH2 0x58F JUMP JUMPDEST DUP1 DUP7 AND ISZERO PUSH2 0x470 JUMPI SWAP2 DUP2 MUL SWAP2 JUMPDEST POP PUSH1 0x2 SWAP1 SWAP5 DIV SWAP4 DUP1 MUL PUSH2 0x442 JUMP JUMPDEST SWAP5 POP SWAP5 SWAP3 POP POP POP JUMP JUMPDEST PUSH1 0x0 PUSH2 0x3A3 PUSH1 0x0 NOT DUP5 DUP5 PUSH1 0x0 DUP3 PUSH2 0x4A0 JUMPI POP PUSH1 0x1 PUSH2 0x3A3 JUMP JUMPDEST DUP2 PUSH2 0x4AD JUMPI POP PUSH1 0x0 PUSH2 0x3A3 JUMP JUMPDEST DUP2 PUSH1 0x1 DUP2 EQ PUSH2 0x4C3 JUMPI PUSH1 0x2 DUP2 EQ PUSH2 0x4CD JUMPI PUSH2 0x4FA JUMP JUMPDEST PUSH1 0x1 SWAP2 POP POP PUSH2 0x3A3 JUMP JUMPDEST PUSH1 0xFF DUP5 GT ISZERO PUSH2 0x4DE JUMPI PUSH2 0x4DE PUSH2 0x58F JUMP JUMPDEST DUP4 PUSH1 0x2 EXP SWAP2 POP DUP5 DUP3 GT ISZERO PUSH2 0x4F4 JUMPI PUSH2 0x4F4 PUSH2 0x58F JUMP JUMPDEST POP PUSH2 0x3A3 JUMP JUMPDEST POP PUSH1 0x20 DUP4 LT PUSH2 0x133 DUP4 LT AND PUSH1 0x4E DUP5 LT PUSH1 0xB DUP5 LT AND OR ISZERO PUSH2 0x52D JUMPI POP DUP2 DUP2 EXP DUP4 DUP2 GT ISZERO PUSH2 0x528 JUMPI PUSH2 0x528 PUSH2 0x58F JUMP JUMPDEST PUSH2 0x3A3 JUMP JUMPDEST PUSH2 0x53A DUP5 DUP5 DUP5 PUSH1 0x1 PUSH2 0x43F JUMP JUMPDEST DUP1 DUP7 DIV DUP3 GT ISZERO PUSH2 0x54C JUMPI PUSH2 0x54C PUSH2 0x58F JUMP JUMPDEST MUL SWAP5 SWAP4 POP POP POP POP JUMP JUMPDEST PUSH1 0x0 DUP2 PUSH1 0x0 NOT DIV DUP4 GT DUP3 ISZERO ISZERO AND ISZERO PUSH2 0x56F JUMPI PUSH2 0x56F PUSH2 0x58F JUMP JUMPDEST POP MUL SWAP1 JUMP JUMPDEST PUSH1 0x0 PUSH1 0x0 NOT DUP3 EQ ISZERO PUSH2 0x588 JUMPI PUSH2 0x588 PUSH2 0x58F JUMP JUMPDEST POP PUSH1 0x1 ADD SWAP1 JUMP JUMPDEST PUSH1 0xE0 PUSH1 0x2 EXP PUSH4 0x4E487B71 MUL PUSH1 0x0 MSTORE PUSH1 0x11 PUSH1 0x4 MSTORE PUSH1 0x24 PUSH1 0x0 REVERT INVALID LOG2 PUSH5 0x6970667358 0x22 SLT KECCAK256 PUSH16 0x8460BFB7E669F5B5FF27020C71C4622F 0x2C COINBASE PUSH21 0x981BD2F5C50804DD4AEFE10F64736F6C6343000800 STOP CALLER "
				},
				"gasEstimates": {
					"creation": {
						"codeDepositCost": "300400",
						"executionCost": "337",
						"totalCost": "300737"
					},
					"external": {
						"checkOwner()": "infinite",
						"toShortString(bytes32)": "infinite"
					}
				},
				"methodIdentifiers": {
					"checkOwner()": "cdbce03d",
					"toShortString(bytes32)": "db91bb50"
				}
			},
			"storageLayout": {
				"storage": [],
				"types": null
			},
			"userdoc": {
				"kind": "user",
				"methods": {},
				"version": 1
			}
		}
	}
}