{
	"data": {
		"bytecode": {
			"linkReferences": {},
			"object": "608060405234801561001057600080fd5b506104bc806100206000396000f3fe608060405234801561001057600080fd5b5060043610610047577c01000000000000000000000000000000000000000000000000000000006000350463db91bb50811461004c575b600080fd5b61005f61005a3660046102a6565b610075565b60405161006c91906102be565b60405180910390f35b604080516020808252818301909252606091600091906020820181803683370190505090506000805b60208110156101675760006100b4826008610433565b6100bf906002610359565b6100c99087610433565b90507fff0000000000000000000000000000000000000000000000000000000000000081161561015457808484815181106101175760e060020a634e487b7102600052603260045260246000fd5b60200101907effffffffffffffffffffffffffffffffffffffffffffffffffffffffffffff1916908160001a9053508261015081610452565b9350505b508061015f81610452565b91505061009e565b5060008167ffffffffffffffff8111156101945760e060020a634e487b7102600052604160045260246000fd5b6040519080825280601f01601f1916602001820160405280156101be576020820181803683370190505b50905060005b8281101561029d578381815181106101ef5760e060020a634e487b7102600052603260045260246000fd5b60200101517f010000000000000000000000000000000000000000000000000000000000000090047f01000000000000000000000000000000000000000000000000000000000000000282828151811061025c5760e060020a634e487b7102600052603260045260246000fd5b60200101907effffffffffffffffffffffffffffffffffffffffffffffffffffffffffffff1916908160001a9053508061029581610452565b9150506101c4565b50949350505050565b6000602082840312156102b7578081fd5b5035919050565b6000602080835283518082850152825b818110156102ea578581018301518582016040015282016102ce565b818111156102fb5783604083870101525b50601f01601f1916929092016040019392505050565b80825b60018086116103235750610350565b8187048211156103355761033561046d565b8086161561034257918102915b506002909404938002610314565b94509492505050565b6000610368600019848461036f565b9392505050565b60008261037e57506001610368565b8161038b57506000610368565b81600181146103a157600281146103ab576103d8565b6001915050610368565b60ff8411156103bc576103bc61046d565b8360020a9150848211156103d2576103d261046d565b50610368565b5060208310610133831016604e8410600b841016171561040b575081810a838111156104065761040661046d565b610368565b6104188484846001610311565b80860482111561042a5761042a61046d565b02949350505050565b600081600019048311821515161561044d5761044d61046d565b500290565b60006000198214156104665761046661046d565b5060010190565b60e060020a634e487b7102600052601160045260246000fdfea2646970667358221220697967cdb433cad7d17e99011e9699b14f8a9fcf06e8b11b8facc02ca726dcf064736f6c63430008000033",
			"opcodes": "PUSH1 0x80 PUSH1 0x40 MSTORE CALLVALUE DUP1 ISZERO PUSH2 0x10 JUMPI PUSH1 0x0 DUP1 REVERT JUMPDEST POP PUSH2 0x4BC DUP1 PUSH2 0x20 PUSH1 0x0 CODECOPY PUSH1 0x0 RETURN INVALID PUSH1 0x80 PUSH1 0x40 MSTORE CALLVALUE DUP1 ISZERO PUSH2 0x10 JUMPI PUSH1 0x0 DUP1 REVERT JUMPDEST POP PUSH1 0x4 CALLDATASIZE LT PUSH2 0x47 JUMPI PUSH29 0x100000000000000000000000000000000000000000000000000000000 PUSH1 0x0 CALLDATALOAD DIV PUSH4 0xDB91BB50 DUP2 EQ PUSH2 0x4C JUMPI JUMPDEST PUSH1 0x0 DUP1 REVERT JUMPDEST PUSH2 0x5F PUSH2 0x5A CALLDATASIZE PUSH1 0x4 PUSH2 0x2A6 JUMP JUMPDEST PUSH2 0x75 JUMP JUMPDEST PUSH1 0x40 MLOAD PUSH2 0x6C SWAP2 SWAP1 PUSH2 0x2BE JUMP JUMPDEST PUSH1 0x40 MLOAD DUP1 SWAP2 SUB SWAP1 RETURN JUMPDEST PUSH1 0x40 DUP1 MLOAD PUSH1 0x20 DUP1 DUP3 MSTORE DUP2 DUP4 ADD SWAP1 SWAP3 MSTORE PUSH1 0x60 SWAP2 PUSH1 0x0 SWAP2 SWAP1 PUSH1 0x20 DUP3 ADD DUP2 DUP1 CALLDATASIZE DUP4 CALLDATACOPY ADD SWAP1 POP POP SWAP1 POP PUSH1 0x0 DUP1 JUMPDEST PUSH1 0x20 DUP2 LT ISZERO PUSH2 0x167 JUMPI PUSH1 0x0 PUSH2 0xB4 DUP3 PUSH1 0x8 PUSH2 0x433 JUMP JUMPDEST PUSH2 0xBF SWAP1 PUSH1 0x2 PUSH2 0x359 JUMP JUMPDEST PUSH2 0xC9 SWAP1 DUP8 PUSH2 0x433 JUMP JUMPDEST SWAP1 POP PUSH32 0xFF00000000000000000000000000000000000000000000000000000000000000 DUP2 AND ISZERO PUSH2 0x154 JUMPI DUP1 DUP5 DUP5 DUP2 MLOAD DUP2 LT PUSH2 0x117 JUMPI PUSH1 0xE0 PUSH1 0x2 EXP PUSH4 0x4E487B71 MUL PUSH1 0x0 MSTORE PUSH1 0x32 PUSH1 0x4 MSTORE PUSH1 0x24 PUSH1 0x0 REVERT JUMPDEST PUSH1 0x20 ADD ADD SWAP1 PUSH31 0xFFFFFFFFFFFFFFFFFFFFFFFFFFFFFFFFFFFFFFFFFFFFFFFFFFFFFFFFFFFFFF NOT AND SWAP1 DUP2 PUSH1 0x0 BYTE SWAP1 MSTORE8 POP DUP3 PUSH2 0x150 DUP2 PUSH2 0x452 JUMP JUMPDEST SWAP4 POP POP JUMPDEST POP DUP1 PUSH2 0x15F DUP2 PUSH2 0x452 JUMP JUMPDEST SWAP2 POP POP PUSH2 0x9E JUMP JUMPDEST POP PUSH1 0x0 DUP2 PUSH8 0xFFFFFFFFFFFFFFFF DUP2 GT ISZERO PUSH2 0x194 JUMPI PUSH1 0xE0 PUSH1 0x2 EXP PUSH4 0x4E487B71 MUL PUSH1 0x0 MSTORE PUSH1 0x41 PUSH1 0x4 MSTORE PUSH1 0x24 PUSH1 0x0 REVERT JUMPDEST PUSH1 0x40 MLOAD SWAP1 DUP1 DUP3 MSTORE DUP1 PUSH1 0x1F ADD PUSH1 0x1F NOT AND PUSH1 0x20 ADD DUP3 ADD PUSH1 0x40 MSTORE DUP1 ISZERO PUSH2 0x1BE JUMPI PUSH1 0x20 DUP3 ADD DUP2 DUP1 CALLDATASIZE DUP4 CALLDATACOPY ADD SWAP1 POP JUMPDEST POP SWAP1 POP PUSH1 0x0 JUMPDEST DUP3 DUP2 LT ISZERO PUSH2 0x29D JUMPI DUP4 DUP2 DUP2 MLOAD DUP2 LT PUSH2 0x1EF JUMPI PUSH1 0xE0 PUSH1 0x2 EXP PUSH4 0x4E487B71 MUL PUSH1 0x0 MSTORE PUSH1 0x32 PUSH1 0x4 MSTORE PUSH1 0x24 PUSH1 0x0 REVERT JUMPDEST PUSH1 0x20 ADD ADD MLOAD PUSH32 0x100000000000000000000000000000000000000000000000000000000000000 SWAP1 DIV PUSH32 0x100000000000000000000000000000000000000000000000000000000000000 MUL DUP3 DUP3 DUP2 MLOAD DUP2 LT PUSH2 0x25C JUMPI PUSH1 0xE0 PUSH1 0x2 EXP PUSH4 0x4E487B71 MUL PUSH1 0x0 MSTORE PUSH1 0x32 PUSH1 0x4 MSTORE PUSH1 0x24 PUSH1 0x0 REVERT JUMPDEST PUSH1 0x20 ADD ADD SWAP1 PUSH31 0xFFFFFFFFFFFFFFFFFFFFFFFFFFFFFFFFFFFFFFFFFFFFFFFFFFFFFFFFFFFFFF NOT AND SWAP1 DUP2 PUSH1 0x0 BYTE SWAP1 MSTORE8 POP DUP1 PUSH2 0x295 DUP2 PUSH2 0x452 JUMP JUMPDEST SWAP2 POP POP PUSH2 0x1C4 JUMP JUMPDEST POP SWAP5 SWAP4 POP POP POP POP JUMP JUMPDEST PUSH1 0x0 PUSH1 0x20 DUP3 DUP5 SUB SLT ISZERO PUSH2 0x2B7 JUMPI DUP1 DUP2 REVERT JUMPDEST POP CALLDATALOAD SWAP2 SWAP1 POP JUMP JUMPDEST PUSH1 0x0 PUSH1 0x20 DUP1 DUP4 MSTORE DUP4 MLOAD DUP1 DUP3 DUP6 ADD MSTORE DUP3 JUMPDEST DUP2 DUP2 LT ISZERO PUSH2 0x2EA JUMPI DUP6 DUP2 ADD DUP4 ADD MLOAD DUP6 DUP3 ADD PUSH1 0x40 ADD MSTORE DUP3 ADD PUSH2 0x2CE JUMP JUMPDEST DUP2 DUP2 GT ISZERO PUSH2 0x2FB JUMPI DUP4 PUSH1 0x40 DUP4 DUP8 ADD ADD MSTORE JUMPDEST POP PUSH1 0x1F ADD PUSH1 0x1F NOT AND SWAP3 SWAP1 SWAP3 ADD PUSH1 0x40 ADD SWAP4 SWAP3 POP POP POP JUMP JUMPDEST DUP1 DUP3 JUMPDEST PUSH1 0x1 DUP1 DUP7 GT PUSH2 0x323 JUMPI POP PUSH2 0x350 JUMP JUMPDEST DUP2 DUP8 DIV DUP3 GT ISZERO PUSH2 0x335 JUMPI PUSH2 0x335 PUSH2 0x46D JUMP JUMPDEST DUP1 DUP7 AND ISZERO PUSH2 0x342 JUMPI SWAP2 DUP2 MUL SWAP2 JUMPDEST POP PUSH1 0x2 SWAP1 SWAP5 DIV SWAP4 DUP1 MUL PUSH2 0x314 JUMP JUMPDEST SWAP5 POP SWAP5 SWAP3 POP POP POP JUMP JUMPDEST PUSH1 0x0 PUSH2 0x368 PUSH1 0x0 NOT DUP5 DUP5 PUSH2 0x36F JUMP JUMPDEST SWAP4 SWAP3 POP POP POP JUMP JUMPDEST PUSH1 0x0 DUP3 PUSH2 0x37E JUMPI POP PUSH1 0x1 PUSH2 0x368 JUMP JUMPDEST DUP2 PUSH2 0x38B JUMPI POP PUSH1 0x0 PUSH2 0x368 JUMP JUMPDEST DUP2 PUSH1 0x1 DUP2 EQ PUSH2 0x3A1 JUMPI PUSH1 0x2 DUP2 EQ PUSH2 0x3AB JUMPI PUSH2 0x3D8 JUMP JUMPDEST PUSH1 0x1 SWAP2 POP POP PUSH2 0x368 JUMP JUMPDEST PUSH1 0xFF DUP5 GT ISZERO PUSH2 0x3BC JUMPI PUSH2 0x3BC PUSH2 0x46D JUMP JUMPDEST DUP4 PUSH1 0x2 EXP SWAP2 POP DUP5 DUP3 GT ISZERO PUSH2 0x3D2 JUMPI PUSH2 0x3D2 PUSH2 0x46D JUMP JUMPDEST POP PUSH2 0x368 JUMP JUMPDEST POP PUSH1 0x20 DUP4 LT PUSH2 0x133 DUP4 LT AND PUSH1 0x4E DUP5 LT PUSH1 0xB DUP5 LT AND OR ISZERO PUSH2 0x40B JUMPI POP DUP2 DUP2 EXP DUP4 DUP2 GT ISZERO PUSH2 0x406 JUMPI PUSH2 0x406 PUSH2 0x46D JUMP JUMPDEST PUSH2 0x368 JUMP JUMPDEST PUSH2 0x418 DUP5 DUP5 DUP5 PUSH1 0x1 PUSH2 0x311 JUMP JUMPDEST DUP1 DUP7 DIV DUP3 GT ISZERO PUSH2 0x42A JUMPI PUSH2 0x42A PUSH2 0x46D JUMP JUMPDEST MUL SWAP5 SWAP4 POP POP POP POP JUMP JUMPDEST PUSH1 0x0 DUP2 PUSH1 0x0 NOT DIV DUP4 GT DUP3 ISZERO ISZERO AND ISZERO PUSH2 0x44D JUMPI PUSH2 0x44D PUSH2 0x46D JUMP JUMPDEST POP MUL SWAP1 JUMP JUMPDEST PUSH1 0x0 PUSH1 0x0 NOT DUP3 EQ ISZERO PUSH2 0x466 JUMPI PUSH2 0x466 PUSH2 0x46D JUMP JUMPDEST POP PUSH1 0x1 ADD SWAP1 JUMP JUMPDEST PUSH1 0xE0 PUSH1 0x2 EXP PUSH4 0x4E487B71 MUL PUSH1 0x0 MSTORE PUSH1 0x11 PUSH1 0x4 MSTORE PUSH1 0x24 PUSH1 0x0 REVERT INVALID LOG2 PUSH5 0x6970667358 0x22 SLT KECCAK256 PUSH10 0x7967CDB433CAD7D17E99 ADD 0x1E SWAP7 SWAP10 0xB1 0x4F DUP11 SWAP16 0xCF MOD 0xE8 0xB1 SHL DUP16 0xAC 0xC0 0x2C 0xA7 0x26 0xDC CREATE PUSH5 0x736F6C6343 STOP ADDMOD STOP STOP CALLER "
		},
		"gasEstimates": {
			"creation": {
				"codeDepositCost": "242400",
				"executionCost": "281",
				"totalCost": "242681"
			},
			"external": {
				"toShortString(bytes32)": "infinite"
			}
		},
		"methodIdentifiers": {
			"toShortString(bytes32)": "db91bb50"
		}
	},
	"abi": [
		{
			"inputs": [
				{
					"internalType": "bytes32",
					"name": "_data",
					"type": "bytes32"
				}
			],
			"name": "toShortString",
			"outputs": [
				{
					"internalType": "string",
					"name": "",
					"type": "string"
				}
			],
			"stateMutability": "pure",
			"type": "function"
		}
	]
}